{"abi":[{"type":"constructor","inputs":[],"stateMutability":"nonpayable"},{"type":"function","name":"gov","inputs":[],"outputs":[{"name":"","type":"address","internalType":"address"}],"stateMutability":"view"},{"type":"function","name":"setGov","inputs":[{"name":"_gov","type":"address","internalType":"address"}],"outputs":[],"stateMutability":"nonpayable"}],"bytecode":{"object":"0x608060405234801561001057600080fd5b50600080546001600160a01b03191633179055610145806100326000396000f3fe608060405234801561001057600080fd5b50600436106100365760003560e01c806312d43a511461003b578063cfad57a21461005f575b600080fd5b610043610087565b604080516001600160a01b039092168252519081900360200190f35b6100856004803603602081101561007557600080fd5b50356001600160a01b0316610096565b005b6000546001600160a01b031681565b6000546001600160a01b031633146100ed576040805162461bcd60e51b815260206004820152601560248201527423b7bb32b93730b136329d103337b93134b23232b760591b604482015290519081900360640190fd5b600080546001600160a01b0319166001600160a01b039290921691909117905556fea26469706673582212209af841b8394fb19154a53ca96a133f8c7e23d55ef9cb7912227b63546195906d64736f6c634300060c0033","linkReferences":{}},"methodIdentifiers":{"gov()":"12d43a51","setGov(address)":"cfad57a2"},"id":72}