{"abi":[{"type":"constructor","inputs":[],"stateMutability":"nonpayable"},{"type":"function","name":"BASIS_POINTS_DIVISOR","inputs":[],"outputs":[{"name":"","type":"uint256","internalType":"uint256"}],"stateMutability":"view"},{"type":"function","name":"MAX_ADJUSTMENT_BASIS_POINTS","inputs":[],"outputs":[{"name":"","type":"uint256","internalType":"uint256"}],"stateMutability":"view"},{"type":"function","name":"MAX_ADJUSTMENT_INTERVAL","inputs":[],"outputs":[{"name":"","type":"uint256","internalType":"uint256"}],"stateMutability":"view"},{"type":"function","name":"MAX_SPREAD_BASIS_POINTS","inputs":[],"outputs":[{"name":"","type":"uint256","internalType":"uint256"}],"stateMutability":"view"},{"type":"function","name":"ONE_USD","inputs":[],"outputs":[{"name":"","type":"uint256","internalType":"uint256"}],"stateMutability":"view"},{"type":"function","name":"PRICE_PRECISION","inputs":[],"outputs":[{"name":"","type":"uint256","internalType":"uint256"}],"stateMutability":"view"},{"type":"function","name":"adjustmentBasisPoints","inputs":[{"name":"","type":"address","internalType":"address"}],"outputs":[{"name":"","type":"uint256","internalType":"uint256"}],"stateMutability":"view"},{"type":"function","name":"bnb","inputs":[],"outputs":[{"name":"","type":"address","internalType":"address"}],"stateMutability":"view"},{"type":"function","name":"bnbBusd","inputs":[],"outputs":[{"name":"","type":"address","internalType":"address"}],"stateMutability":"view"},{"type":"function","name":"btc","inputs":[],"outputs":[{"name":"","type":"address","internalType":"address"}],"stateMutability":"view"},{"type":"function","name":"btcBnb","inputs":[],"outputs":[{"name":"","type":"address","internalType":"address"}],"stateMutability":"view"},{"type":"function","name":"chainlinkFlags","inputs":[],"outputs":[{"name":"","type":"address","internalType":"address"}],"stateMutability":"view"},{"type":"function","name":"eth","inputs":[],"outputs":[{"name":"","type":"address","internalType":"address"}],"stateMutability":"view"},{"type":"function","name":"ethBnb","inputs":[],"outputs":[{"name":"","type":"address","internalType":"address"}],"stateMutability":"view"},{"type":"function","name":"favorPrimaryPrice","inputs":[],"outputs":[{"name":"","type":"bool","internalType":"bool"}],"stateMutability":"view"},{"type":"function","name":"getAmmPrice","inputs":[{"name":"_token","type":"address","internalType":"address"}],"outputs":[{"name":"","type":"uint256","internalType":"uint256"}],"stateMutability":"view"},{"type":"function","name":"getAmmPriceV2","inputs":[{"name":"_token","type":"address","internalType":"address"},{"name":"_maximise","type":"bool","internalType":"bool"},{"name":"_primaryPrice","type":"uint256","internalType":"uint256"}],"outputs":[{"name":"","type":"uint256","internalType":"uint256"}],"stateMutability":"view"},{"type":"function","name":"getLatestPrimaryPrice","inputs":[{"name":"_token","type":"address","internalType":"address"}],"outputs":[{"name":"","type":"uint256","internalType":"uint256"}],"stateMutability":"view"},{"type":"function","name":"getPairPrice","inputs":[{"name":"_pair","type":"address","internalType":"address"},{"name":"_divByReserve0","type":"bool","internalType":"bool"}],"outputs":[{"name":"","type":"uint256","internalType":"uint256"}],"stateMutability":"view"},{"type":"function","name":"getPrice","inputs":[{"name":"_token","type":"address","internalType":"address"},{"name":"_maximise","type":"bool","internalType":"bool"},{"name":"_includeAmmPrice","type":"bool","internalType":"bool"},{"name":"","type":"bool","internalType":"bool"}],"outputs":[{"name":"","type":"uint256","internalType":"uint256"}],"stateMutability":"view"},{"type":"function","name":"getPriceV1","inputs":[{"name":"_token","type":"address","internalType":"address"},{"name":"_maximise","type":"bool","internalType":"bool"},{"name":"_includeAmmPrice","type":"bool","internalType":"bool"}],"outputs":[{"name":"","type":"uint256","internalType":"uint256"}],"stateMutability":"view"},{"type":"function","name":"getPriceV2","inputs":[{"name":"_token","type":"address","internalType":"address"},{"name":"_maximise","type":"bool","internalType":"bool"},{"name":"_includeAmmPrice","type":"bool","internalType":"bool"}],"outputs":[{"name":"","type":"uint256","internalType":"uint256"}],"stateMutability":"view"},{"type":"function","name":"getPrimaryPrice","inputs":[{"name":"_token","type":"address","internalType":"address"},{"name":"_maximise","type":"bool","internalType":"bool"}],"outputs":[{"name":"","type":"uint256","internalType":"uint256"}],"stateMutability":"view"},{"type":"function","name":"getSecondaryPrice","inputs":[{"name":"_token","type":"address","internalType":"address"},{"name":"_referencePrice","type":"uint256","internalType":"uint256"},{"name":"_maximise","type":"bool","internalType":"bool"}],"outputs":[{"name":"","type":"uint256","internalType":"uint256"}],"stateMutability":"view"},{"type":"function","name":"gov","inputs":[],"outputs":[{"name":"","type":"address","internalType":"address"}],"stateMutability":"view"},{"type":"function","name":"isAdjustmentAdditive","inputs":[{"name":"","type":"address","internalType":"address"}],"outputs":[{"name":"","type":"bool","internalType":"bool"}],"stateMutability":"view"},{"type":"function","name":"isAmmEnabled","inputs":[],"outputs":[{"name":"","type":"bool","internalType":"bool"}],"stateMutability":"view"},{"type":"function","name":"isSecondaryPriceEnabled","inputs":[],"outputs":[{"name":"","type":"bool","internalType":"bool"}],"stateMutability":"view"},{"type":"function","name":"lastAdjustmentTimings","inputs":[{"name":"","type":"address","internalType":"address"}],"outputs":[{"name":"","type":"uint256","internalType":"uint256"}],"stateMutability":"view"},{"type":"function","name":"maxStrictPriceDeviation","inputs":[],"outputs":[{"name":"","type":"uint256","internalType":"uint256"}],"stateMutability":"view"},{"type":"function","name":"priceDecimals","inputs":[{"name":"","type":"address","internalType":"address"}],"outputs":[{"name":"","type":"uint256","internalType":"uint256"}],"stateMutability":"view"},{"type":"function","name":"priceFeeds","inputs":[{"name":"","type":"address","internalType":"address"}],"outputs":[{"name":"","type":"address","internalType":"address"}],"stateMutability":"view"},{"type":"function","name":"priceSampleSpace","inputs":[],"outputs":[{"name":"","type":"uint256","internalType":"uint256"}],"stateMutability":"view"},{"type":"function","name":"secondaryPriceFeed","inputs":[],"outputs":[{"name":"","type":"address","internalType":"address"}],"stateMutability":"view"},{"type":"function","name":"setAdjustment","inputs":[{"name":"_token","type":"address","internalType":"address"},{"name":"_isAdditive","type":"bool","internalType":"bool"},{"name":"_adjustmentBps","type":"uint256","internalType":"uint256"}],"outputs":[],"stateMutability":"nonpayable"},{"type":"function","name":"setChainlinkFlags","inputs":[{"name":"_chainlinkFlags","type":"address","internalType":"address"}],"outputs":[],"stateMutability":"nonpayable"},{"type":"function","name":"setFavorPrimaryPrice","inputs":[{"name":"_favorPrimaryPrice","type":"bool","internalType":"bool"}],"outputs":[],"stateMutability":"nonpayable"},{"type":"function","name":"setGov","inputs":[{"name":"_gov","type":"address","internalType":"address"}],"outputs":[],"stateMutability":"nonpayable"},{"type":"function","name":"setIsAmmEnabled","inputs":[{"name":"_isEnabled","type":"bool","internalType":"bool"}],"outputs":[],"stateMutability":"nonpayable"},{"type":"function","name":"setIsSecondaryPriceEnabled","inputs":[{"name":"_isEnabled","type":"bool","internalType":"bool"}],"outputs":[],"stateMutability":"nonpayable"},{"type":"function","name":"setMaxStrictPriceDeviation","inputs":[{"name":"_maxStrictPriceDeviation","type":"uint256","internalType":"uint256"}],"outputs":[],"stateMutability":"nonpayable"},{"type":"function","name":"setPairs","inputs":[{"name":"_bnbBusd","type":"address","internalType":"address"},{"name":"_ethBnb","type":"address","internalType":"address"},{"name":"_btcBnb","type":"address","internalType":"address"}],"outputs":[],"stateMutability":"nonpayable"},{"type":"function","name":"setPriceSampleSpace","inputs":[{"name":"_priceSampleSpace","type":"uint256","internalType":"uint256"}],"outputs":[],"stateMutability":"nonpayable"},{"type":"function","name":"setSecondaryPriceFeed","inputs":[{"name":"_secondaryPriceFeed","type":"address","internalType":"address"}],"outputs":[],"stateMutability":"nonpayable"},{"type":"function","name":"setSpreadBasisPoints","inputs":[{"name":"_token","type":"address","internalType":"address"},{"name":"_spreadBasisPoints","type":"uint256","internalType":"uint256"}],"outputs":[],"stateMutability":"nonpayable"},{"type":"function","name":"setSpreadThresholdBasisPoints","inputs":[{"name":"_spreadThresholdBasisPoints","type":"uint256","internalType":"uint256"}],"outputs":[],"stateMutability":"nonpayable"},{"type":"function","name":"setTokenConfig","inputs":[{"name":"_token","type":"address","internalType":"address"},{"name":"_priceFeed","type":"address","internalType":"address"},{"name":"_priceDecimals","type":"uint256","internalType":"uint256"},{"name":"_isStrictStable","type":"bool","internalType":"bool"}],"outputs":[],"stateMutability":"nonpayable"},{"type":"function","name":"setTokens","inputs":[{"name":"_btc","type":"address","internalType":"address"},{"name":"_eth","type":"address","internalType":"address"},{"name":"_bnb","type":"address","internalType":"address"}],"outputs":[],"stateMutability":"nonpayable"},{"type":"function","name":"setUseV2Pricing","inputs":[{"name":"_useV2Pricing","type":"bool","internalType":"bool"}],"outputs":[],"stateMutability":"nonpayable"},{"type":"function","name":"spreadBasisPoints","inputs":[{"name":"","type":"address","internalType":"address"}],"outputs":[{"name":"","type":"uint256","internalType":"uint256"}],"stateMutability":"view"},{"type":"function","name":"spreadThresholdBasisPoints","inputs":[],"outputs":[{"name":"","type":"uint256","internalType":"uint256"}],"stateMutability":"view"},{"type":"function","name":"strictStableTokens","inputs":[{"name":"","type":"address","internalType":"address"}],"outputs":[{"name":"","type":"bool","internalType":"bool"}],"stateMutability":"view"},{"type":"function","name":"useV2Pricing","inputs":[],"outputs":[{"name":"","type":"bool","internalType":"bool"}],"stateMutability":"view"}],"bytecode":{"object":"0x60806040526001805461ffff60b01b1960ff60a81b1960ff60a01b19909216600160a01b1791909116600160a81b171690556003600281905560009055601e60055534801561004d57600080fd5b50600080546001600160a01b031916331790556121eb8061006f6000396000f3fe608060405234801561001057600080fd5b50600436106103275760003560e01c8063732391b4116101b8578063a27ea38611610104578063c2138d8c116100a2578063d694376c1161007c578063d694376c146108b5578063e4440e02146108e9578063eb1c92a9146108f1578063fd34ec401461091057610327565b8063c2138d8c14610843578063cefe0f2114610869578063cfad57a21461088f57610327565b8063a39c73a3116100de578063a39c73a3146107c4578063b02a2de4146107cc578063b731dd8714610800578063b8f611051461081d57610327565b8063a27ea38614610768578063a28d57d81461078e578063a2ad7b931461079657610327565b8063971bd396116101715780639a0a66351161014b5780639a0a6635146106e85780639b18dc471461070e5780639b889380146107165780639dcb511a1461074257610327565b8063971bd396146106b957806397dfade7146106c15780639917dc74146106c957610327565b8063732391b414610615578063826e055f1461064b5780638b86616c146106715780638c7c9e0c1461067957806393f690741461068157806395082d25146105b957610327565b8063443be2091161027757806356c8c2c11161023057806367781c0e1161020a57806367781c0e146105b95780636ce8a44b146105c15780636fc80708146105e7578063717cfe7a146105ef57610327565b806356c8c2c114610564578063593d9e8014610592578063604f37e91461059a57610327565b8063443be2091461049257806348cac277146104ca57806349a876e4146104f05780634a4b1f4f146104f85780634b9ade471461050057806356bf9de41461053e57610327565b80632fc3a70a116102e45780633d949c5f116102be5780633d949c5f146104185780633eba8d361461044e5780633ebbc601146104825780633f0c3bb71461048a57610327565b80632fc3a70a146103b657806330536ee5146103f4578063378e7bf71461041057610327565b80630957aed91461032c5780631193c80914610346578063126082cf1461036a57806312d43a51146103725780632fa03b8f1461037a5780632fbfe3d314610399575b600080fd5b61033461092f565b60408051918252519081900360200190f35b61034e610934565b604080516001600160a01b039092168252519081900360200190f35b610334610943565b61034e610949565b6103976004803603602081101561039057600080fd5b5035610958565b005b610397600480360360208110156103af57600080fd5b50356109e9565b610334600480360360808110156103cc57600080fd5b506001600160a01b038135169060208101351515906040810135151590606001351515610a3b565b6103fc610af9565b604080519115158252519081900360200190f35b610334610b09565b6103346004803603606081101561042e57600080fd5b506001600160a01b03813516906020810135151590604001351515610b0f565b6103346004803603606081101561046457600080fd5b506001600160a01b0381351690602081013590604001351515610ce3565b6103fc610d91565b6103fc610da1565b610397600480360360608110156104a857600080fd5b506001600160a01b038135811691602081013582169160409091013516610db1565b610334600480360360208110156104e057600080fd5b50356001600160a01b0316610e3d565b61034e610e4f565b610334610e5e565b6103976004803603608081101561051657600080fd5b506001600160a01b038135811691602081013590911690604081013590606001351515610e63565b6103346004803603602081101561055457600080fd5b50356001600160a01b0316610f05565b6103346004803603604081101561057a57600080fd5b506001600160a01b038135169060200135151561102b565b6103fc61147c565b610397600480360360208110156105b057600080fd5b5035151561148c565b6103346114f7565b6103fc600480360360208110156105d757600080fd5b50356001600160a01b0316611507565b61033461151c565b6103346004803603602081101561060557600080fd5b50356001600160a01b0316611522565b6103346004803603606081101561062b57600080fd5b506001600160a01b03813516906020810135151590604001351515611534565b6103976004803603602081101561066157600080fd5b50356001600160a01b0316611589565b61034e6115f8565b61034e611607565b6103976004803603606081101561069757600080fd5b506001600160a01b038135811691602081013582169160409091013516611616565b61034e6116a2565b61034e6116b1565b610397600480360360208110156106df57600080fd5b503515156116c0565b610397600480360360208110156106fe57600080fd5b50356001600160a01b031661172b565b61033461179a565b6103976004803603604081101561072c57600080fd5b506001600160a01b0381351690602001356117a0565b61034e6004803603602081101561075857600080fd5b50356001600160a01b0316611849565b6103346004803603602081101561077e57600080fd5b50356001600160a01b0316611864565b61034e611876565b610334600480360360408110156107ac57600080fd5b506001600160a01b0381351690602001351515611885565b610334611979565b610334600480360360608110156107e257600080fd5b506001600160a01b038135169060208101351515906040013561197f565b6103976004803603602081101561081657600080fd5b5035611a47565b6103fc6004803603602081101561083357600080fd5b50356001600160a01b0316611a99565b6103346004803603602081101561085957600080fd5b50356001600160a01b0316611aae565b6103346004803603602081101561087f57600080fd5b50356001600160a01b0316611bac565b610397600480360360208110156108a557600080fd5b50356001600160a01b0316611bbe565b610397600480360360608110156108cb57600080fd5b506001600160a01b0381351690602081013515159060400135611c2d565b61034e611d70565b6103976004803603602081101561090757600080fd5b50351515611d7f565b6103976004803603602081101561092657600080fd5b50351515611dea565b603281565b600a546001600160a01b031681565b61271081565b6000546001600160a01b031681565b6000546001600160a01b031633146109a5576040805162461bcd60e51b81526020600482015260196024820152600080516020612125833981519152604482015290519081900360640190fd5b600081116109e45760405162461bcd60e51b81526004018080602001828103825260298152602001806120896029913960400191505060405180910390fd5b600255565b6000546001600160a01b03163314610a36576040805162461bcd60e51b81526020600482015260196024820152600080516020612125833981519152604482015290519081900360640190fd5b600355565b6001546000908190600160b01b900460ff16610a6157610a5c868686610b0f565b610a6c565b610a6c868686611534565b6001600160a01b0387166000908152601060205260409020549091508015610aef576001600160a01b03871660009081526011602052604090205460ff168015610ad757610ad0612710610aca610ac38286611e55565b8690611eaf565b90611f08565b9250610aed565b610aea612710610aca610ac38286611f4a565b92505b505b5095945050505050565b600154600160b01b900460ff1681565b60035481565b600080610b1c858561102b565b9050828015610b345750600154600160a01b900460ff165b15610b79576000610b4486611aae565b90508015610b7757848015610b5857508181115b15610b61578091505b84158015610b6e57508181105b15610b77578091505b505b600154600160a81b900460ff1615610b9957610b96858286610ce3565b90505b6001600160a01b0385166000908152600f602052604090205460ff1615610c8257600068327cb2734119d3b7a9601e1b8211610bea57610be568327cb2734119d3b7a9601e1b83611f4a565b610c00565b610c008268327cb2734119d3b7a9601e1b611f4a565b90506003548111610c215768327cb2734119d3b7a9601e1b92505050610cdc565b848015610c39575068327cb2734119d3b7a9601e1b82115b15610c4657509050610cdc565b84158015610c5f575068327cb2734119d3b7a9601e1b82105b15610c6c57509050610cdc565b68327cb2734119d3b7a9601e1b92505050610cdc565b6001600160a01b0385166000908152600e60205260409020548415610cc457610cbb612710610aca610cb48285611e55565b8590611eaf565b92505050610cdc565b610cd7612710610aca610cb48285611f4a565b925050505b9392505050565b6004546000906001600160a01b0316610cfd575081610cdc565b6004805460408051630ffd9c6d60e31b81526001600160a01b038881169482019490945260248101879052851515604482015290519290911691637fece36891606480820192602092909190829003018186803b158015610d5d57600080fd5b505afa158015610d71573d6000803e3d6000fd5b505050506040513d6020811015610d8757600080fd5b5051949350505050565b600154600160a81b900460ff1681565b600154600160a01b900460ff1681565b6000546001600160a01b03163314610dfe576040805162461bcd60e51b81526020600482015260196024820152600080516020612125833981519152604482015290519081900360640190fd5b600680546001600160a01b039485166001600160a01b031991821617909155600780549385169382169390931790925560088054919093169116179055565b60106020526000908152604090205481565b6008546001600160a01b031681565b601481565b6000546001600160a01b03163314610eb0576040805162461bcd60e51b81526020600482015260196024820152600080516020612125833981519152604482015290519081900360640190fd5b6001600160a01b039384166000908152600c6020908152604080832080546001600160a01b0319169690971695909517909555600d855283812092909255600f90935220805460ff1916911515919091179055565b6001600160a01b038082166000908152600c602052604081205490911680610f5e5760405162461bcd60e51b81526004018080602001828103825260228152602001806121946022913960400191505060405180910390fd5b60008190506000816001600160a01b03166350d25bcd6040518163ffffffff1660e01b815260040160206040518083038186803b158015610f9e57600080fd5b505afa158015610fb2573d6000803e3d6000fd5b505050506040513d6020811015610fc857600080fd5b5051905060008113611021576040805162461bcd60e51b815260206004820152601d60248201527f5661756c745072696365466565643a20696e76616c6964207072696365000000604482015290519081900360640190fd5b925050505b919050565b6001600160a01b038083166000908152600c6020526040812054909116806110845760405162461bcd60e51b81526004018080602001828103825260228152602001806121946022913960400191505060405180910390fd5b6001546001600160a01b0316156111615760015460408051631abf23ff60e11b815273a438451d6458044c3c8cd2f6f31c91ac882a6d91600482015290516000926001600160a01b03169163357e47fe916024808301926020929190829003018186803b1580156110f457600080fd5b505afa158015611108573d6000803e3d6000fd5b505050506040513d602081101561111e57600080fd5b50519050801561115f5760405162461bcd60e51b81526004018080602001828103825260258152602001806121456025913960400191505060405180910390fd5b505b6000819050600080826001600160a01b031663668a0f026040518163ffffffff1660e01b815260040160206040518083038186803b1580156111a257600080fd5b505afa1580156111b6573d6000803e3d6000fd5b505050506040513d60208110156111cc57600080fd5b5051905060005b600254816001600160501b031610156113f757806001600160501b0316826001600160501b031611611204576113f7565b60006001600160501b0382166112d9576000856001600160a01b03166350d25bcd6040518163ffffffff1660e01b815260040160206040518083038186803b15801561124f57600080fd5b505afa158015611263573d6000803e3d6000fd5b505050506040513d602081101561127957600080fd5b50519050600081136112d2576040805162461bcd60e51b815260206004820152601d60248201527f5661756c745072696365466565643a20696e76616c6964207072696365000000604482015290519081900360640190fd5b90506113b3565b6000856001600160a01b0316639a6fc8f58486036040518263ffffffff1660e01b815260040180826001600160501b0316815260200191505060a06040518083038186803b15801561132a57600080fd5b505afa15801561133e573d6000803e3d6000fd5b505050506040513d60a081101561135457600080fd5b50602001519050600081136113b0576040805162461bcd60e51b815260206004820152601d60248201527f5661756c745072696365466565643a20696e76616c6964207072696365000000604482015290519081900360640190fd5b90505b836113bf5792506113ef565b8780156113cb57508381115b156113d75792506113ef565b871580156113e457508381105b156113ed578093505b505b6001016111d3565b50600082116114375760405162461bcd60e51b81526004018080602001828103825260258152602001806120b26025913960400191505060405180910390fd5b6001600160a01b0387166000908152600d602052604090205461146e600a82900a610aca8568327cb2734119d3b7a9601e1b611eaf565b955050505050505b92915050565b600154600160b81b900460ff1681565b6000546001600160a01b031633146114d9576040805162461bcd60e51b81526020600482015260196024820152600080516020612125833981519152604482015290519081900360640190fd5b60018054911515600160b81b0260ff60b81b19909216919091179055565b68327cb2734119d3b7a9601e1b81565b60116020526000908152604090205460ff1681565b60025481565b60126020526000908152604090205481565b600080611541858561102b565b90508280156115595750600154600160a01b900460ff165b15610b795761156985858361197f565b905060015460ff600160a81b9091041615610b9957610b96858286610ce3565b6000546001600160a01b031633146115d6576040805162461bcd60e51b81526020600482015260196024820152600080516020612125833981519152604482015290519081900360640190fd5b600180546001600160a01b0319166001600160a01b0392909216919091179055565b6004546001600160a01b031681565b6007546001600160a01b031681565b6000546001600160a01b03163314611663576040805162461bcd60e51b81526020600482015260196024820152600080516020612125833981519152604482015290519081900360640190fd5b600980546001600160a01b039485166001600160a01b031991821617909155600a805493851693821693909317909255600b8054919093169116179055565b600b546001600160a01b031681565b6009546001600160a01b031681565b6000546001600160a01b0316331461170d576040805162461bcd60e51b81526020600482015260196024820152600080516020612125833981519152604482015290519081900360640190fd5b60018054911515600160a01b0260ff60a01b19909216919091179055565b6000546001600160a01b03163314611778576040805162461bcd60e51b81526020600482015260196024820152600080516020612125833981519152604482015290519081900360640190fd5b600480546001600160a01b0319166001600160a01b0392909216919091179055565b611c2081565b6000546001600160a01b031633146117ed576040805162461bcd60e51b81526020600482015260196024820152600080516020612125833981519152604482015290519081900360640190fd5b603281111561182d5760405162461bcd60e51b815260040180806020018281038252602a81526020018061216a602a913960400191505060405180910390fd5b6001600160a01b039091166000908152600e6020526040902055565b600c602052600090815260409020546001600160a01b031681565b600e6020526000908152604090205481565b6006546001600160a01b031681565b6000806000846001600160a01b0316630902f1ac6040518163ffffffff1660e01b815260040160606040518083038186803b1580156118c357600080fd5b505afa1580156118d7573d6000803e3d6000fd5b505050506040513d60608110156118ed57600080fd5b5080516020909101516dffffffffffffffffffffffffffff91821693501690508315611946578161192357600092505050611476565b61193d82610aca8368327cb2734119d3b7a9601e1b611eaf565b92505050611476565b8061195657600092505050611476565b61197081610aca8468327cb2734119d3b7a9601e1b611eaf565b95945050505050565b60055481565b60008061198b85611aae565b90508061199b5782915050610cdc565b60008382116119b3576119ae8483611f4a565b6119bd565b6119bd8285611f4a565b90506119d460055485611eaf90919063ffffffff16565b6119e082612710611eaf565b1015611a0a57600154600160b81b900460ff1615611a02578392505050610cdc565b509050610cdc565b848015611a1657508382115b15611a2357509050610cdc565b84158015611a3057508382105b15611a3d57509050610cdc565b5091949350505050565b6000546001600160a01b03163314611a94576040805162461bcd60e51b81526020600482015260196024820152600080516020612125833981519152604482015290519081900360640190fd5b600555565b600f6020526000908152604090205460ff1681565b6008546000906001600160a01b0383811691161415611ae557600954611ade906001600160a01b03166001611885565b9050611026565b6007546001600160a01b0383811691161415611b5757600954600090611b15906001600160a01b03166001611885565b600a54909150600090611b32906001600160a01b03166001611885565b9050611b4e68327cb2734119d3b7a9601e1b610aca8484611eaf565b92505050611026565b6006546001600160a01b0383811691161415611ba457600954600090611b87906001600160a01b03166001611885565b600b54909150600090611b32906001600160a01b03166001611885565b506000919050565b600d6020526000908152604090205481565b6000546001600160a01b03163314611c0b576040805162461bcd60e51b81526020600482015260196024820152600080516020612125833981519152604482015290519081900360640190fd5b600080546001600160a01b0319166001600160a01b0392909216919091179055565b6000546001600160a01b03163314611c7a576040805162461bcd60e51b81526020600482015260196024820152600080516020612125833981519152604482015290519081900360640190fd5b6001600160a01b0383166000908152601260205260409020544290611ca190611c20611e55565b10611cdd5760405162461bcd60e51b815260040180806020018281038252602d8152602001806120f8602d913960400191505060405180910390fd5b6014811115611d2c576040805162461bcd60e51b8152602060048201526016602482015275696e76616c6964205f61646a7573746d656e7442707360501b604482015290519081900360640190fd5b6001600160a01b03929092166000908152601160209081526040808320805460ff191694151594909417909355601081528282209390935560129092529020429055565b6001546001600160a01b031681565b6000546001600160a01b03163314611dcc576040805162461bcd60e51b81526020600482015260196024820152600080516020612125833981519152604482015290519081900360640190fd5b60018054911515600160a81b0260ff60a81b19909216919091179055565b6000546001600160a01b03163314611e37576040805162461bcd60e51b81526020600482015260196024820152600080516020612125833981519152604482015290519081900360640190fd5b60018054911515600160b01b0260ff60b01b19909216919091179055565b600082820183811015610cdc576040805162461bcd60e51b815260206004820152601b60248201527f536166654d6174683a206164646974696f6e206f766572666c6f770000000000604482015290519081900360640190fd5b600082611ebe57506000611476565b82820282848281611ecb57fe5b0414610cdc5760405162461bcd60e51b81526004018080602001828103825260218152602001806120d76021913960400191505060405180910390fd5b6000610cdc83836040518060400160405280601a81526020017f536166654d6174683a206469766973696f6e206279207a65726f000000000000815250611f8c565b6000610cdc83836040518060400160405280601e81526020017f536166654d6174683a207375627472616374696f6e206f766572666c6f77000081525061202e565b600081836120185760405162461bcd60e51b81526004018080602001828103825283818151815260200191508051906020019080838360005b83811015611fdd578181015183820152602001611fc5565b50505050905090810190601f16801561200a5780820380516001836020036101000a031916815260200191505b509250505060405180910390fd5b50600083858161202457fe5b0495945050505050565b600081848411156120805760405162461bcd60e51b8152602060048201818152835160248401528351909283926044909101919085019080838360008315611fdd578181015183820152602001611fc5565b50505090039056fe5661756c745072696365466565643a20696e76616c6964205f707269636553616d706c6553706163655661756c745072696365466565643a20636f756c64206e6f74206665746368207072696365536166654d6174683a206d756c7469706c69636174696f6e206f766572666c6f775661756c745072696365466565643a2061646a7573746d656e74206672657175656e63792065786365656465645661756c745072696365466565643a20666f7262696464656e00000000000000436861696e6c696e6b20666565647320617265206e6f74206265696e6720757064617465645661756c745072696365466565643a20696e76616c6964205f7370726561644261736973506f696e74735661756c745072696365466565643a20696e76616c69642070726963652066656564a2646970667358221220be3bb973a4e548331d33a8eedd348762e7109952d07b118e8ce4cf6d93e1c71964736f6c634300060c0033","linkReferences":{}},"methodIdentifiers":{"BASIS_POINTS_DIVISOR()":"126082cf","MAX_ADJUSTMENT_BASIS_POINTS()":"4a4b1f4f","MAX_ADJUSTMENT_INTERVAL()":"9b18dc47","MAX_SPREAD_BASIS_POINTS()":"0957aed9","ONE_USD()":"67781c0e","PRICE_PRECISION()":"95082d25","adjustmentBasisPoints(address)":"48cac277","bnb()":"49a876e4","bnbBusd()":"97dfade7","btc()":"a28d57d8","btcBnb()":"971bd396","chainlinkFlags()":"e4440e02","eth()":"8c7c9e0c","ethBnb()":"1193c809","favorPrimaryPrice()":"593d9e80","getAmmPrice(address)":"c2138d8c","getAmmPriceV2(address,bool,uint256)":"b02a2de4","getLatestPrimaryPrice(address)":"56bf9de4","getPairPrice(address,bool)":"a2ad7b93","getPrice(address,bool,bool,bool)":"2fc3a70a","getPriceV1(address,bool,bool)":"3d949c5f","getPriceV2(address,bool,bool)":"732391b4","getPrimaryPrice(address,bool)":"56c8c2c1","getSecondaryPrice(address,uint256,bool)":"3eba8d36","gov()":"12d43a51","isAdjustmentAdditive(address)":"6ce8a44b","isAmmEnabled()":"3f0c3bb7","isSecondaryPriceEnabled()":"3ebbc601","lastAdjustmentTimings(address)":"717cfe7a","maxStrictPriceDeviation()":"378e7bf7","priceDecimals(address)":"cefe0f21","priceFeeds(address)":"9dcb511a","priceSampleSpace()":"6fc80708","secondaryPriceFeed()":"8b86616c","setAdjustment(address,bool,uint256)":"d694376c","setChainlinkFlags(address)":"826e055f","setFavorPrimaryPrice(bool)":"604f37e9","setGov(address)":"cfad57a2","setIsAmmEnabled(bool)":"9917dc74","setIsSecondaryPriceEnabled(bool)":"eb1c92a9","setMaxStrictPriceDeviation(uint256)":"2fbfe3d3","setPairs(address,address,address)":"93f69074","setPriceSampleSpace(uint256)":"2fa03b8f","setSecondaryPriceFeed(address)":"9a0a6635","setSpreadBasisPoints(address,uint256)":"9b889380","setSpreadThresholdBasisPoints(uint256)":"b731dd87","setTokenConfig(address,address,uint256,bool)":"4b9ade47","setTokens(address,address,address)":"443be209","setUseV2Pricing(bool)":"fd34ec40","spreadBasisPoints(address)":"a27ea386","spreadThresholdBasisPoints()":"a39c73a3","strictStableTokens(address)":"b8f61105","useV2Pricing()":"30536ee5"},"id":93}