{"abi":[{"type":"constructor","inputs":[{"name":"_gmx","type":"address","internalType":"address"},{"name":"_reserveToken","type":"address","internalType":"address"},{"name":"_backedSupply","type":"uint256","internalType":"uint256"},{"name":"_baseMintPrice","type":"uint256","internalType":"uint256"},{"name":"_mintMultiplier","type":"uint256","internalType":"uint256"},{"name":"_multiplierPrecision","type":"uint256","internalType":"uint256"},{"name":"_minAuthorizations","type":"uint256","internalType":"uint256"}],"stateMutability":"nonpayable"},{"type":"function","name":"BASIS_POINTS_DIVISOR","inputs":[],"outputs":[{"name":"","type":"uint256","internalType":"uint256"}],"stateMutability":"view"},{"type":"function","name":"BURN_BASIS_POINTS","inputs":[],"outputs":[{"name":"","type":"uint256","internalType":"uint256"}],"stateMutability":"view"},{"type":"function","name":"PRICE_PRECISION","inputs":[],"outputs":[{"name":"","type":"uint256","internalType":"uint256"}],"stateMutability":"view"},{"type":"function","name":"actionsNonce","inputs":[],"outputs":[{"name":"","type":"uint256","internalType":"uint256"}],"stateMutability":"view"},{"type":"function","name":"admin","inputs":[],"outputs":[{"name":"","type":"address","internalType":"address"}],"stateMutability":"view"},{"type":"function","name":"approve","inputs":[{"name":"_token","type":"address","internalType":"address"},{"name":"_spender","type":"address","internalType":"address"},{"name":"_amount","type":"uint256","internalType":"uint256"},{"name":"_nonce","type":"uint256","internalType":"uint256"}],"outputs":[],"stateMutability":"nonpayable"},{"type":"function","name":"approveNFT","inputs":[{"name":"_token","type":"address","internalType":"address"},{"name":"_spender","type":"address","internalType":"address"},{"name":"_tokenId","type":"uint256","internalType":"uint256"},{"name":"_nonce","type":"uint256","internalType":"uint256"}],"outputs":[],"stateMutability":"nonpayable"},{"type":"function","name":"approveNFTs","inputs":[{"name":"_token","type":"address","internalType":"address"},{"name":"_spender","type":"address","internalType":"address"},{"name":"_tokenIds","type":"uint256[]","internalType":"uint256[]"},{"name":"_nonce","type":"uint256","internalType":"uint256"}],"outputs":[],"stateMutability":"nonpayable"},{"type":"function","name":"backedSupply","inputs":[],"outputs":[{"name":"","type":"uint256","internalType":"uint256"}],"stateMutability":"view"},{"type":"function","name":"baseMintPrice","inputs":[],"outputs":[{"name":"","type":"uint256","internalType":"uint256"}],"stateMutability":"view"},{"type":"function","name":"burn","inputs":[{"name":"_amount","type":"uint256","internalType":"uint256"},{"name":"_minOut","type":"uint256","internalType":"uint256"},{"name":"_receiver","type":"address","internalType":"address"}],"outputs":[{"name":"","type":"uint256","internalType":"uint256"}],"stateMutability":"nonpayable"},{"type":"function","name":"getBurnAmountOut","inputs":[{"name":"_amount","type":"uint256","internalType":"uint256"}],"outputs":[{"name":"","type":"uint256","internalType":"uint256"}],"stateMutability":"view"},{"type":"function","name":"getMintPrice","inputs":[],"outputs":[{"name":"","type":"uint256","internalType":"uint256"}],"stateMutability":"view"},{"type":"function","name":"gmx","inputs":[],"outputs":[{"name":"","type":"address","internalType":"address"}],"stateMutability":"view"},{"type":"function","name":"initialize","inputs":[{"name":"_signers","type":"address[]","internalType":"address[]"}],"outputs":[],"stateMutability":"nonpayable"},{"type":"function","name":"isHandler","inputs":[{"name":"","type":"address","internalType":"address"}],"outputs":[{"name":"","type":"bool","internalType":"bool"}],"stateMutability":"view"},{"type":"function","name":"isInitialized","inputs":[],"outputs":[{"name":"","type":"bool","internalType":"bool"}],"stateMutability":"view"},{"type":"function","name":"isSigner","inputs":[{"name":"","type":"address","internalType":"address"}],"outputs":[{"name":"","type":"bool","internalType":"bool"}],"stateMutability":"view"},{"type":"function","name":"minAuthorizations","inputs":[],"outputs":[{"name":"","type":"uint256","internalType":"uint256"}],"stateMutability":"view"},{"type":"function","name":"mint","inputs":[{"name":"_amount","type":"uint256","internalType":"uint256"},{"name":"_maxCost","type":"uint256","internalType":"uint256"},{"name":"_receiver","type":"address","internalType":"address"}],"outputs":[{"name":"","type":"uint256","internalType":"uint256"}],"stateMutability":"nonpayable"},{"type":"function","name":"mintMultiplier","inputs":[],"outputs":[{"name":"","type":"uint256","internalType":"uint256"}],"stateMutability":"view"},{"type":"function","name":"mintedSupply","inputs":[],"outputs":[{"name":"","type":"uint256","internalType":"uint256"}],"stateMutability":"view"},{"type":"function","name":"multiplierPrecision","inputs":[],"outputs":[{"name":"","type":"uint256","internalType":"uint256"}],"stateMutability":"view"},{"type":"function","name":"pendingActions","inputs":[{"name":"","type":"bytes32","internalType":"bytes32"}],"outputs":[{"name":"","type":"bool","internalType":"bool"}],"stateMutability":"view"},{"type":"function","name":"receiveNFTs","inputs":[{"name":"_token","type":"address","internalType":"address"},{"name":"_sender","type":"address","internalType":"address"},{"name":"_tokenIds","type":"uint256[]","internalType":"uint256[]"}],"outputs":[],"stateMutability":"nonpayable"},{"type":"function","name":"reserveToken","inputs":[],"outputs":[{"name":"","type":"address","internalType":"address"}],"stateMutability":"view"},{"type":"function","name":"setAdmin","inputs":[{"name":"_target","type":"address","internalType":"address"},{"name":"_admin","type":"address","internalType":"address"},{"name":"_nonce","type":"uint256","internalType":"uint256"}],"outputs":[],"stateMutability":"nonpayable"},{"type":"function","name":"setBackedSupply","inputs":[{"name":"_backedSupply","type":"uint256","internalType":"uint256"}],"outputs":[],"stateMutability":"nonpayable"},{"type":"function","name":"setGov","inputs":[{"name":"_timelock","type":"address","internalType":"address"},{"name":"_target","type":"address","internalType":"address"},{"name":"_gov","type":"address","internalType":"address"},{"name":"_nonce","type":"uint256","internalType":"uint256"}],"outputs":[],"stateMutability":"nonpayable"},{"type":"function","name":"setHandler","inputs":[{"name":"_handler","type":"address","internalType":"address"},{"name":"_isHandler","type":"bool","internalType":"bool"}],"outputs":[],"stateMutability":"nonpayable"},{"type":"function","name":"setMintMultiplier","inputs":[{"name":"_mintMultiplier","type":"uint256","internalType":"uint256"}],"outputs":[],"stateMutability":"nonpayable"},{"type":"function","name":"signApprove","inputs":[{"name":"_token","type":"address","internalType":"address"},{"name":"_spender","type":"address","internalType":"address"},{"name":"_amount","type":"uint256","internalType":"uint256"},{"name":"_nonce","type":"uint256","internalType":"uint256"}],"outputs":[],"stateMutability":"nonpayable"},{"type":"function","name":"signApproveNFT","inputs":[{"name":"_token","type":"address","internalType":"address"},{"name":"_spender","type":"address","internalType":"address"},{"name":"_tokenId","type":"uint256","internalType":"uint256"},{"name":"_nonce","type":"uint256","internalType":"uint256"}],"outputs":[],"stateMutability":"nonpayable"},{"type":"function","name":"signApproveNFTs","inputs":[{"name":"_token","type":"address","internalType":"address"},{"name":"_spender","type":"address","internalType":"address"},{"name":"_tokenIds","type":"uint256[]","internalType":"uint256[]"},{"name":"_nonce","type":"uint256","internalType":"uint256"}],"outputs":[],"stateMutability":"nonpayable"},{"type":"function","name":"signSetAdmin","inputs":[{"name":"_target","type":"address","internalType":"address"},{"name":"_admin","type":"address","internalType":"address"},{"name":"_nonce","type":"uint256","internalType":"uint256"}],"outputs":[],"stateMutability":"nonpayable"},{"type":"function","name":"signSetGov","inputs":[{"name":"_timelock","type":"address","internalType":"address"},{"name":"_target","type":"address","internalType":"address"},{"name":"_gov","type":"address","internalType":"address"},{"name":"_nonce","type":"uint256","internalType":"uint256"}],"outputs":[],"stateMutability":"nonpayable"},{"type":"function","name":"signalApprove","inputs":[{"name":"_token","type":"address","internalType":"address"},{"name":"_spender","type":"address","internalType":"address"},{"name":"_amount","type":"uint256","internalType":"uint256"}],"outputs":[],"stateMutability":"nonpayable"},{"type":"function","name":"signalApproveNFT","inputs":[{"name":"_token","type":"address","internalType":"address"},{"name":"_spender","type":"address","internalType":"address"},{"name":"_tokenId","type":"uint256","internalType":"uint256"}],"outputs":[],"stateMutability":"nonpayable"},{"type":"function","name":"signalApproveNFTs","inputs":[{"name":"_token","type":"address","internalType":"address"},{"name":"_spender","type":"address","internalType":"address"},{"name":"_tokenIds","type":"uint256[]","internalType":"uint256[]"}],"outputs":[],"stateMutability":"nonpayable"},{"type":"function","name":"signalSetAdmin","inputs":[{"name":"_target","type":"address","internalType":"address"},{"name":"_admin","type":"address","internalType":"address"}],"outputs":[],"stateMutability":"nonpayable"},{"type":"function","name":"signalSetGov","inputs":[{"name":"_timelock","type":"address","internalType":"address"},{"name":"_target","type":"address","internalType":"address"},{"name":"_gov","type":"address","internalType":"address"}],"outputs":[],"stateMutability":"nonpayable"},{"type":"function","name":"signedActions","inputs":[{"name":"","type":"address","internalType":"address"},{"name":"","type":"bytes32","internalType":"bytes32"}],"outputs":[{"name":"","type":"bool","internalType":"bool"}],"stateMutability":"view"},{"type":"function","name":"signers","inputs":[{"name":"","type":"uint256","internalType":"uint256"}],"outputs":[{"name":"","type":"address","internalType":"address"}],"stateMutability":"view"},{"type":"function","name":"signersLength","inputs":[],"outputs":[{"name":"","type":"uint256","internalType":"uint256"}],"stateMutability":"view"},{"type":"event","name":"ClearAction","inputs":[{"name":"action","type":"bytes32","indexed":false,"internalType":"bytes32"},{"name":"nonce","type":"uint256","indexed":false,"internalType":"uint256"}],"anonymous":false},{"type":"event","name":"SignAction","inputs":[{"name":"action","type":"bytes32","indexed":false,"internalType":"bytes32"},{"name":"nonce","type":"uint256","indexed":false,"internalType":"uint256"}],"anonymous":false},{"type":"event","name":"SignalApprove","inputs":[{"name":"token","type":"address","indexed":false,"internalType":"address"},{"name":"spender","type":"address","indexed":false,"internalType":"address"},{"name":"amount","type":"uint256","indexed":false,"internalType":"uint256"},{"name":"action","type":"bytes32","indexed":false,"internalType":"bytes32"},{"name":"nonce","type":"uint256","indexed":false,"internalType":"uint256"}],"anonymous":false},{"type":"event","name":"SignalApproveNFT","inputs":[{"name":"token","type":"address","indexed":false,"internalType":"address"},{"name":"spender","type":"address","indexed":false,"internalType":"address"},{"name":"tokenId","type":"uint256","indexed":false,"internalType":"uint256"},{"name":"action","type":"bytes32","indexed":false,"internalType":"bytes32"},{"name":"nonce","type":"uint256","indexed":false,"internalType":"uint256"}],"anonymous":false},{"type":"event","name":"SignalApproveNFTs","inputs":[{"name":"token","type":"address","indexed":false,"internalType":"address"},{"name":"spender","type":"address","indexed":false,"internalType":"address"},{"name":"tokenIds","type":"uint256[]","indexed":false,"internalType":"uint256[]"},{"name":"action","type":"bytes32","indexed":false,"internalType":"bytes32"},{"name":"nonce","type":"uint256","indexed":false,"internalType":"uint256"}],"anonymous":false},{"type":"event","name":"SignalPendingAction","inputs":[{"name":"action","type":"bytes32","indexed":false,"internalType":"bytes32"},{"name":"nonce","type":"uint256","indexed":false,"internalType":"uint256"}],"anonymous":false},{"type":"event","name":"SignalSetAdmin","inputs":[{"name":"target","type":"address","indexed":false,"internalType":"address"},{"name":"admin","type":"address","indexed":false,"internalType":"address"},{"name":"action","type":"bytes32","indexed":false,"internalType":"bytes32"},{"name":"nonce","type":"uint256","indexed":false,"internalType":"uint256"}],"anonymous":false},{"type":"event","name":"SignalSetGov","inputs":[{"name":"timelock","type":"address","indexed":false,"internalType":"address"},{"name":"target","type":"address","indexed":false,"internalType":"address"},{"name":"gov","type":"address","indexed":false,"internalType":"address"},{"name":"action","type":"bytes32","indexed":false,"internalType":"bytes32"},{"name":"nonce","type":"uint256","indexed":false,"internalType":"uint256"}],"anonymous":false}],"bytecode":{"object":"0x608060405234801561001057600080fd5b5060405161373a38038061373a833981810160405260e081101561003357600080fd5b508051602082015160408301516060840151608085015160a086015160c0909601516001600055600480546001600160a01b03199081163317909155600391909155600980546001600160a01b03978816908316179055600a805496909516951694909417909255600b55600c55600d55600f55613684806100b66000396000f3fe608060405234801561001057600080fd5b50600436106102745760003560e01c80639fddaac111610151578063e2d03cc5116100c3578063f00cb94211610087578063f00cb94214610991578063f23f977514610a4d578063f4325d6714610a89578063f466634b14610a91578063f52dc4f714610ac7578063f851a44014610b0357610274565b8063e2d03cc5146108b1578063e30569e5146108e9578063e7d3fe6b14610906578063e907562114610938578063eb0eec481461097457610274565b8063adb384b611610115578063adb384b614610758578063b82ce26114610812578063c1bd8cf91461082f578063c616b59214610837578063dce6e18d1461083f578063ddf67a9f1461087557610274565b80639fddaac114610635578063a224cee71461066b578063a4c04bb71461070c578063a62fb17014610714578063a7f93ebd1461075057610274565b806342a1fcee116101ea57806375fd490c116101ae57806375fd490c146105775780637df73e27146105a55780638559dff3146105cb57806387c6d4f9146105d357806395082d25146105ff5780639cb7de4b1461060757610274565b806342a1fcee1461041f57806346ea87af146104db5780634dc5ecb3146105015780635fe15ad71461053d578063749388c41461054557610274565b80632494b7eb1161023c5780632494b7eb146103c6578063287800c9146103e357806331e67c71146103eb578063392e53cd146103f35780633acd81a51461040f57806341f684f31461041757610274565b80630b13beca14610279578063126082cf146102b1578063181fcd33146102cb5780632079fb9a146103855780632415ab6e146103be575b600080fd5b6102af6004803603606081101561028f57600080fd5b506001600160a01b03813581169160208101359091169060400135610b0b565b005b6102b9610c7b565b60408051918252519081900360200190f35b6102af600480360360608110156102e157600080fd5b6001600160a01b038235811692602081013590911691810190606081016040820135600160201b81111561031457600080fd5b82018360208201111561032657600080fd5b803590602001918460208302840111600160201b8311171561034757600080fd5b919080806020026020016040519081016040528093929190818152602001838360200280828437600092019190915250929550610c81945050505050565b6103a26004803603602081101561039b57600080fd5b5035610e77565b604080516001600160a01b039092168252519081900360200190f35b6102b9610e9e565b6102af600480360360208110156103dc57600080fd5b5035610ea4565b6102b9610f4c565b6103a2610f52565b6103fb610f61565b604080519115158252519081900360200190f35b6102b9610f6a565b6102b9610f70565b6102af6004803603608081101561043557600080fd5b6001600160a01b038235811692602081013590911691810190606081016040820135600160201b81111561046857600080fd5b82018360208201111561047a57600080fd5b803590602001918460208302840111600160201b8311171561049b57600080fd5b9190808060200260200160405190810160405280939291908181526020018383602002808284376000920191909152509295505091359250610f76915050565b6103fb600480360360208110156104f157600080fd5b50356001600160a01b031661116c565b6102af6004803603608081101561051757600080fd5b506001600160a01b03813581169160208101359091169060408101359060600135611181565b6102b9611315565b6102b96004803603606081101561055b57600080fd5b50803590602081013590604001356001600160a01b031661131b565b6102af6004803603604081101561058d57600080fd5b506001600160a01b0381358116916020013516611510565b6103fb600480360360208110156105bb57600080fd5b50356001600160a01b0316611699565b6102b96116ae565b6103fb600480360360408110156105e957600080fd5b506001600160a01b0381351690602001356116b4565b6102b96116d4565b6102af6004803603604081101561061d57600080fd5b506001600160a01b03813516906020013515156116e5565b6102af6004803603606081101561064b57600080fd5b506001600160a01b0381358116916020810135909116906040013561175d565b6102af6004803603602081101561068157600080fd5b810190602081018135600160201b81111561069b57600080fd5b8201836020820111156106ad57600080fd5b803590602001918460208302840111600160201b831117156106ce57600080fd5b9190808060200260200160405190810160405280939291908181526020018383602002808284376000920191909152509295506118dd945050505050565b6102b9611936565b6102af6004803603608081101561072a57600080fd5b506001600160a01b0381358116916020810135821691604082013516906060013561193c565b6102b9611b1e565b6102af6004803603606081101561076e57600080fd5b6001600160a01b038235811692602081013590911691810190606081016040820135600160201b8111156107a157600080fd5b8201836020820111156107b357600080fd5b803590602001918460208302840111600160201b831117156107d457600080fd5b919080806020026020016040519081016040528093929190818152602001838360200280828437600092019190915250929550611b54945050505050565b6102b96004803603602081101561082857600080fd5b5035611c97565b6102b9611d42565b6102b9611d48565b6102af6004803603606081101561085557600080fd5b506001600160a01b03813581169160208101359091169060400135611d4e565b6102af6004803603608081101561088b57600080fd5b506001600160a01b03813581169160208101359091169060408101359060600135611ebb565b6102af600480360360608110156108c757600080fd5b506001600160a01b038135811691602081013582169160409091013516611fbf565b6103fb600480360360208110156108ff57600080fd5b503561215b565b6102b96004803603606081101561091c57600080fd5b50803590602081013590604001356001600160a01b0316612170565b6102af6004803603608081101561094e57600080fd5b506001600160a01b038135811691602081013582169160408201351690606001356123e9565b6102af6004803603602081101561098a57600080fd5b5035612578565b6102af600480360360808110156109a757600080fd5b6001600160a01b038235811692602081013590911691810190606081016040820135600160201b8111156109da57600080fd5b8201836020820111156109ec57600080fd5b803590602001918460208302840111600160201b83111715610a0d57600080fd5b919080806020026020016040519081016040528093929190818152602001838360200280828437600092019190915250929550509135925061260a915050565b6102af60048036036080811015610a6357600080fd5b506001600160a01b0381358116916020810135909116906040810135906060013561274a565b6103a26128aa565b6102af60048036036060811015610aa757600080fd5b506001600160a01b038135811691602081013590911690604001356128b9565b6102af60048036036080811015610add57600080fd5b506001600160a01b03813581169160208101359091169060408101359060600135612a8d565b6103a2612b8e565b60026000541415610b51576040805162461bcd60e51b815260206004820152601f60248201526000805160206134ef833981519152604482015290519081900360640190fd5b60026000556004546001600160a01b03163314610ba3576040805162461bcd60e51b8152602060048201526017602482015260008051602061357b833981519152604482015290519081900360640190fd5b60028054600101908190556040805169185c1c1c9bdd9953919560b21b6020808301919091526001600160601b0319606088811b8216602a85015287901b16603e8301526052820185905260728083018590528351808403909101815260929092019092528051910120610c178183612b9d565b604080516001600160a01b03808816825286166020820152808201859052606081018390526080810184905290517fcd9ba83b63715dc15ac193645d6e925bf4b487c94b73d709b8b6dea608efd4cc9181900360a00190a150506001600055505050565b61271081565b60026000541415610cc7576040805162461bcd60e51b815260206004820152601f60248201526000805160206134ef833981519152604482015290519081900360640190fd5b60026000556004546001600160a01b03163314610d19576040805162461bcd60e51b8152602060048201526017602482015260008051602061357b833981519152604482015290519081900360640190fd5b60028054600101908190556040516a617070726f76654e46547360a81b60208083019182526001600160601b0319606088811b8216602b86015287901b16603f840152845160009388938893889388936053019180860191028083838b5b83811015610d8f578181015183820152602001610d77565b50505050905001828152602001945050505050604051602081830303815290604052805190602001209050610dc48183612b9d565b7ff9d0354d71c261982d98abd09b735f3663b2d7275e2569ad5fd907a4092765f9858585848660405180866001600160a01b03168152602001856001600160a01b0316815260200180602001848152602001838152602001828103825285818151815260200191508051906020019060200280838360005b83811015610e54578181015183820152602001610e3c565b50505050905001965050505050505060405180910390a150506001600055505050565b60058181548110610e8457fe5b6000918252602090912001546001600160a01b0316905081565b600f5481565b6004546001600160a01b03163314610ef1576040805162461bcd60e51b8152602060048201526017602482015260008051602061357b833981519152604482015290519081900360640190fd5b600b548111610f47576040805162461bcd60e51b815260206004820152601f60248201527f476d78466c6f6f723a20696e76616c6964205f6261636b6564537570706c7900604482015290519081900360640190fd5b600b55565b60035481565b6009546001600160a01b031681565b60015460ff1681565b600d5481565b60055490565b60026000541415610fbc576040805162461bcd60e51b815260206004820152601f60248201526000805160206134ef833981519152604482015290519081900360640190fd5b60026000556004546001600160a01b0316331461100e576040805162461bcd60e51b8152602060048201526017602482015260008051602061357b833981519152604482015290519081900360640190fd5b60008484848460405160200180806a617070726f76654e46547360a81b815250600b01856001600160a01b031660601b8152601401846001600160a01b031660601b8152601401838051906020019060200280838360005b8381101561107e578181015183820152602001611066565b505050509050018281526020019450505050506040516020818303038152906040528051906020012090506110b281612bf6565b6110bb81612c43565b60005b835181101561115557856001600160a01b031663095ea7b3868684815181106110e357fe5b60200260200101516040518363ffffffff1660e01b815260040180836001600160a01b0316815260200182815260200192505050600060405180830381600087803b15801561113157600080fd5b505af1158015611145573d6000803e3d6000fd5b5050600190920191506110be9050565b506111608183612d29565b50506001600055505050565b60106020526000908152604090205460ff1681565b600260005414156111c7576040805162461bcd60e51b815260206004820152601f60248201526000805160206134ef833981519152604482015290519081900360640190fd5b60026000556004546001600160a01b03163314611219576040805162461bcd60e51b8152602060048201526017602482015260008051602061357b833981519152604482015290519081900360640190fd5b6040805166617070726f766560c81b6020808301919091526001600160601b0319606088811b8216602785015287901b16603b830152604f8201859052606f80830185905283518084039091018152608f909201909252805191012061127e81612bf6565b61128781612c43565b846001600160a01b031663095ea7b385856040518363ffffffff1660e01b815260040180836001600160a01b0316815260200182815260200192505050602060405180830381600087803b1580156112de57600080fd5b505af11580156112f2573d6000803e3d6000fd5b505050506040513d602081101561130857600080fd5b5061116090508183612d29565b61232881565b3360009081526010602052604081205460ff16611375576040805162461bcd60e51b815260206004820152601360248201527223b6bc233637b7b91d103337b93134b23232b760691b604482015290519081900360640190fd5b600260005414156113bb576040805162461bcd60e51b815260206004820152601f60248201526000805160206134ef833981519152604482015290519081900360640190fd5b60026000558361140e576040805162461bcd60e51b815260206004820152601960248201527811db5e119b1bdbdc8e881a5b9d985b1a590817d85b5bdd5b9d603a1b604482015290519081900360640190fd5b600061141985611c97565b905083811015611470576040805162461bcd60e51b815260206004820181905260248201527f476d78466c6f6f723a20696e73756666696369656e7420616d6f756e744f7574604482015290519081900360640190fd5b600b5461147d9086612de2565b600b5560095460408051632770a7eb60e21b81523360048201526024810188905290516001600160a01b0390921691639dc29fac9160448082019260009290919082900301818387803b1580156114d357600080fd5b505af11580156114e7573d6000803e3d6000fd5b5050600a5461150392506001600160a01b031690508483612e2d565b6001600055949350505050565b60026000541415611556576040805162461bcd60e51b815260206004820152601f60248201526000805160206134ef833981519152604482015290519081900360640190fd5b600260009081553381526006602052604090205460ff166115ac576040805162461bcd60e51b8152602060048201526017602482015260008051602061357b833981519152604482015290519081900360640190fd5b6002805460010190819055604080516739b2ba20b236b4b760c11b6020808301919091526001600160601b0319606087811b8216602885015286901b16603c830152605080830185905283518084039091018152607090920190925280519101206116178183612b9d565b336000908152600860209081526040808320848452825291829020805460ff1916600117905581516001600160a01b0387811682528616918101919091528082018390526060810184905290517f4fc9433645aa0a3670e9185496bbd752209fed7a9696fb8a954a0db30ef927b09181900360800190a1505060016000555050565b60066020526000908152604090205460ff1681565b600c5481565b600860209081526000928352604080842090915290825290205460ff1681565b6c0c9f2c9cd04674edea4000000081565b6004546001600160a01b03163314611732576040805162461bcd60e51b8152602060048201526017602482015260008051602061357b833981519152604482015290519081900360640190fd5b6001600160a01b03919091166000908152601060205260409020805460ff1916911515919091179055565b600260005414156117a3576040805162461bcd60e51b815260206004820152601f60248201526000805160206134ef833981519152604482015290519081900360640190fd5b600260009081553381526006602052604090205460ff166117f9576040805162461bcd60e51b8152602060048201526017602482015260008051602061357b833981519152604482015290519081900360640190fd5b604080516739b2ba20b236b4b760c11b6020808301919091526001600160601b0319606087811b8216602885015286901b16603c8301526050808301859052835180840390910181526070909201909252805191012061185881612bf6565b61186181612c43565b836001600160a01b031663704b6c02846040518263ffffffff1660e01b815260040180826001600160a01b03168152602001915050600060405180830381600087803b1580156118b057600080fd5b505af11580156118c4573d6000803e3d6000fd5b505050506118d28183612d29565b505060016000555050565b6004546001600160a01b0316331461192a576040805162461bcd60e51b8152602060048201526017602482015260008051602061357b833981519152604482015290519081900360640190fd5b61193381612e84565b50565b60025481565b60026000541415611982576040805162461bcd60e51b815260206004820152601f60248201526000805160206134ef833981519152604482015290519081900360640190fd5b600260009081553381526006602052604090205460ff166119d8576040805162461bcd60e51b8152602060048201526017602482015260008051602061357b833981519152604482015290519081900360640190fd5b604080516b39b4b3b730b629b2ba23b7bb60a11b6020808301919091526001600160601b0319606088811b8216602c85015287811b82168486015286901b16605483015260688083018590528351808403909101815260889092019092528051910120611a4481612bf6565b33600090815260086020908152604080832084845290915290205460ff1615611ab4576040805162461bcd60e51b815260206004820152601c60248201527f546f6b656e4d616e616765723a20616c7265616479207369676e656400000000604482015290519081900360640190fd5b336000908152600860209081526040808320848452825291829020805460ff19166001179055815183815290810184905281517faae28fe5531fe5dfb8d12409392ec67b50c825dd06233312cb6aeaddd16cbd22929181900390910190a150506001600055505050565b6000611b4f611b46600f54611b40600d54600e54612f8990919063ffffffff16565b90612fe2565b600c5490613024565b905090565b60026000541415611b9a576040805162461bcd60e51b815260206004820152601f60248201526000805160206134ef833981519152604482015290519081900360640190fd5b60026000556004546001600160a01b03163314611bec576040805162461bcd60e51b8152602060048201526017602482015260008051602061357b833981519152604482015290519081900360640190fd5b60005b81518110156118d257836001600160a01b03166323b872dd8430858581518110611c1557fe5b60200260200101516040518463ffffffff1660e01b815260040180846001600160a01b03168152602001836001600160a01b031681526020018281526020019350505050600060405180830381600087803b158015611c7357600080fd5b505af1158015611c87573d6000803e3d6000fd5b505060019092019150611bef9050565b600a54604080516370a0823160e01b8152306004820152905160009283926001600160a01b03909116916370a0823191602480820192602092909190829003018186803b158015611ce757600080fd5b505afa158015611cfb573d6000803e3d6000fd5b505050506040513d6020811015611d1157600080fd5b5051600b54909150611d3b9061271090611b409061232890611d3590838988612f89565b90612f89565b9392505050565b600e5481565b600b5481565b60026000541415611d94576040805162461bcd60e51b815260206004820152601f60248201526000805160206134ef833981519152604482015290519081900360640190fd5b60026000556004546001600160a01b03163314611de6576040805162461bcd60e51b8152602060048201526017602482015260008051602061357b833981519152604482015290519081900360640190fd5b60028054600101908190556040805166617070726f766560c81b6020808301919091526001600160601b0319606088811b8216602785015287901b16603b830152604f8201859052606f80830185905283518084039091018152608f9092019092528051910120611e578183612b9d565b604080516001600160a01b03808816825286166020820152808201859052606081018390526080810184905290517fc19251bf5f704ddc3d5babe6f4e5bde0dded20b19f7844716861821ab3163cd79181900360a00190a150506001600055505050565b60026000541415611f01576040805162461bcd60e51b815260206004820152601f60248201526000805160206134ef833981519152604482015290519081900360640190fd5b600260009081553381526006602052604090205460ff16611f57576040805162461bcd60e51b8152602060048201526017602482015260008051602061357b833981519152604482015290519081900360640190fd5b6040805169185c1c1c9bdd9953919560b21b6020808301919091526001600160601b0319606088811b8216602a85015287901b16603e8301526052820185905260728083018590528351808403909101815260929092019092528051910120611a4481612bf6565b60026000541415612005576040805162461bcd60e51b815260206004820152601f60248201526000805160206134ef833981519152604482015290519081900360640190fd5b60026000556004546001600160a01b03163314612057576040805162461bcd60e51b8152602060048201526017602482015260008051602061357b833981519152604482015290519081900360640190fd5b6002805460010190819055604080516b39b4b3b730b629b2ba23b7bb60a11b6020808301919091526001600160601b0319606088811b8216602c85015287811b82168486015286901b166054830152606880830185905283518084039091018152608890920190925280519101206120cf8183612b9d565b336000908152600860209081526040808320848452825291829020805460ff1916600117905581516001600160a01b0388811682528781169282019290925290851681830152606081018390526080810184905290517f634e13057d45400506e3b303913ac59b61e5a8137ea6fed5ed44aa0b8bc3c5689181900360a00190a150506001600055505050565b60076020526000908152604090205460ff1681565b3360009081526010602052604081205460ff166121ca576040805162461bcd60e51b815260206004820152601360248201527223b6bc233637b7b91d103337b93134b23232b760691b604482015290519081900360640190fd5b60026000541415612210576040805162461bcd60e51b815260206004820152601f60248201526000805160206134ef833981519152604482015290519081900360640190fd5b600260005583612263576040805162461bcd60e51b815260206004820152601960248201527811db5e119b1bdbdc8e881a5b9d985b1a590817d85b5bdd5b9d603a1b604482015290519081900360640190fd5b600061226d611b1e565b9050600061229661228f600f54611b40600d548a612f8990919063ffffffff16565b8390613024565b905060006122a96002611b408585613024565b905060006122c86c0c9f2c9cd04674edea40000000611b408a85612f89565b90508681111561231f576040805162461bcd60e51b815260206004820152601b60248201527f476d78466c6f6f723a205f6d6178436f73742065786365656465640000000000604482015290519081900360640190fd5b600e5461232c9089613024565b600e55600b5461233c9089613024565b600b55600a54612357906001600160a01b031633308461307e565b6009546040805163a9059cbb60e01b81526001600160a01b038981166004830152602482018c90529151919092169163a9059cbb9160448083019260209291908290030181600087803b1580156123ad57600080fd5b505af11580156123c1573d6000803e3d6000fd5b505050506040513d60208110156123d757600080fd5b50506001600055979650505050505050565b6002600054141561242f576040805162461bcd60e51b815260206004820152601f60248201526000805160206134ef833981519152604482015290519081900360640190fd5b60026000556004546001600160a01b03163314612481576040805162461bcd60e51b8152602060048201526017602482015260008051602061357b833981519152604482015290519081900360640190fd5b604080516b39b4b3b730b629b2ba23b7bb60a11b6020808301919091526001600160601b0319606088811b8216602c85015287811b82168486015286901b166054830152606880830185905283518084039091018152608890920190925280519101206124ed81612bf6565b6124f681612c43565b846001600160a01b031663996a7a1e85856040518363ffffffff1660e01b815260040180836001600160a01b03168152602001826001600160a01b0316815260200192505050600060405180830381600087803b15801561255657600080fd5b505af115801561256a573d6000803e3d6000fd5b505050506111608183612d29565b6004546001600160a01b031633146125c5576040805162461bcd60e51b8152602060048201526017602482015260008051602061357b833981519152604482015290519081900360640190fd5b600d5481116126055760405162461bcd60e51b81526004018080602001828103825260218152602001806135c16021913960400191505060405180910390fd5b600d55565b60026000541415612650576040805162461bcd60e51b815260206004820152601f60248201526000805160206134ef833981519152604482015290519081900360640190fd5b600260009081553381526006602052604090205460ff166126a6576040805162461bcd60e51b8152602060048201526017602482015260008051602061357b833981519152604482015290519081900360640190fd5b60008484848460405160200180806a617070726f76654e46547360a81b815250600b01856001600160a01b031660601b8152601401846001600160a01b031660601b8152601401838051906020019060200280838360005b838110156127165781810151838201526020016126fe565b50505050905001828152602001945050505050604051602081830303815290604052805190602001209050611a4481612bf6565b60026000541415612790576040805162461bcd60e51b815260206004820152601f60248201526000805160206134ef833981519152604482015290519081900360640190fd5b60026000556004546001600160a01b031633146127e2576040805162461bcd60e51b8152602060048201526017602482015260008051602061357b833981519152604482015290519081900360640190fd5b6040805169185c1c1c9bdd9953919560b21b6020808301919091526001600160601b0319606088811b8216602a85015287901b16603e830152605282018590526072808301859052835180840390910181526092909201909252805191012061284a81612bf6565b61285381612c43565b846001600160a01b031663095ea7b385856040518363ffffffff1660e01b815260040180836001600160a01b0316815260200182815260200192505050600060405180830381600087803b15801561255657600080fd5b600a546001600160a01b031681565b600260005414156128ff576040805162461bcd60e51b815260206004820152601f60248201526000805160206134ef833981519152604482015290519081900360640190fd5b600260009081553381526006602052604090205460ff16612955576040805162461bcd60e51b8152602060048201526017602482015260008051602061357b833981519152604482015290519081900360640190fd5b604080516739b2ba20b236b4b760c11b6020808301919091526001600160601b0319606087811b8216602885015286901b16603c830152605080830185905283518084039091018152607090920190925280519101206129b481612bf6565b33600090815260086020908152604080832084845290915290205460ff1615612a24576040805162461bcd60e51b815260206004820152601c60248201527f546f6b656e4d616e616765723a20616c7265616479207369676e656400000000604482015290519081900360640190fd5b336000908152600860209081526040808320848452825291829020805460ff19166001179055815183815290810184905281517faae28fe5531fe5dfb8d12409392ec67b50c825dd06233312cb6aeaddd16cbd22929181900390910190a1505060016000555050565b60026000541415612ad3576040805162461bcd60e51b815260206004820152601f60248201526000805160206134ef833981519152604482015290519081900360640190fd5b600260009081553381526006602052604090205460ff16612b29576040805162461bcd60e51b8152602060048201526017602482015260008051602061357b833981519152604482015290519081900360640190fd5b6040805166617070726f766560c81b6020808301919091526001600160601b0319606088811b8216602785015287901b16603b830152604f8201859052606f80830185905283518084039091018152608f9092019092528051910120611a4481612bf6565b6004546001600160a01b031681565b600082815260076020908152604091829020805460ff19166001179055815184815290810183905281517f64df01c46eb530dc540770a0b88cc32f0b8c2b371a546ae0b13cc8ca6671fff9929181900390910190a15050565b60008181526007602052604090205460ff166119335760405162461bcd60e51b81526004018080602001828103825260228152602001806135e26022913960400191505060405180910390fd5b6000805b600554811015612ca757600060058281548110612c6057fe5b60009182526020808320909101546001600160a01b031680835260088252604080842088855290925291205490915060ff1615612c9e576001909201915b50600101612c47565b5080612ce45760405162461bcd60e51b81526004018080602001828103825260238152602001806135586023913960400191505060405180910390fd5b600354811015612d255760405162461bcd60e51b81526004018080602001828103825260288152602001806135306028913960400191505060405180910390fd5b5050565b60008281526007602052604090205460ff16612d8c576040805162461bcd60e51b815260206004820152601d60248201527f546f6b656e4d616e616765723a20696e76616c6964205f616374696f6e000000604482015290519081900360640190fd5b600082815260076020908152604091829020805460ff19169055815184815290810183905281517ff4640d39061e643d9b802cb3725953405344555ad6dbb1cbdb0495f3eccb8e68929181900390910190a15050565b6000612e2483836040518060400160405280601e81526020017f536166654d6174683a207375627472616374696f6e206f766572666c6f7700008152506130de565b90505b92915050565b604080516001600160a01b038416602482015260448082018490528251808303909101815260649091019091526020810180516001600160e01b031663a9059cbb60e01b179052612e7f908490613175565b505050565b6004546001600160a01b03163314612ed1576040805162461bcd60e51b8152602060048201526017602482015260008051602061357b833981519152604482015290519081900360640190fd5b60015460ff1615612f135760405162461bcd60e51b815260040180806020018281038252602181526020018061350f6021913960400191505060405180910390fd5b6001805460ff1916811790558051612f3290600590602084019061346a565b5060005b8151811015612d25576000828281518110612f4d57fe5b6020908102919091018101516001600160a01b03166000908152600690915260409020805460ff19166001908117909155919091019050612f36565b600082612f9857506000612e27565b82820282848281612fa557fe5b0414612e245760405162461bcd60e51b81526004018080602001828103825260218152602001806136046021913960400191505060405180910390fd5b6000612e2483836040518060400160405280601a81526020017f536166654d6174683a206469766973696f6e206279207a65726f000000000000815250613226565b600082820183811015612e24576040805162461bcd60e51b815260206004820152601b60248201527f536166654d6174683a206164646974696f6e206f766572666c6f770000000000604482015290519081900360640190fd5b604080516001600160a01b0380861660248301528416604482015260648082018490528251808303909101815260849091019091526020810180516001600160e01b03166323b872dd60e01b1790526130d8908590613175565b50505050565b6000818484111561316d5760405162461bcd60e51b81526004018080602001828103825283818151815260200191508051906020019080838360005b8381101561313257818101518382015260200161311a565b50505050905090810190601f16801561315f5780820380516001836020036101000a031916815260200191505b509250505060405180910390fd5b505050900390565b60606131ca826040518060400160405280602081526020017f5361666545524332303a206c6f772d6c6576656c2063616c6c206661696c6564815250856001600160a01b031661328b9092919063ffffffff16565b805190915015612e7f578080602001905160208110156131e957600080fd5b5051612e7f5760405162461bcd60e51b815260040180806020018281038252602a815260200180613625602a913960400191505060405180910390fd5b600081836132755760405162461bcd60e51b815260206004820181815283516024840152835190928392604490910191908501908083836000831561313257818101518382015260200161311a565b50600083858161328157fe5b0495945050505050565b606061329a84846000856132a2565b949350505050565b6060824710156132e35760405162461bcd60e51b815260040180806020018281038252602681526020018061359b6026913960400191505060405180910390fd5b6132ec856133fe565b61333d576040805162461bcd60e51b815260206004820152601d60248201527f416464726573733a2063616c6c20746f206e6f6e2d636f6e7472616374000000604482015290519081900360640190fd5b60006060866001600160a01b031685876040518082805190602001908083835b6020831061337c5780518252601f19909201916020918201910161335d565b6001836020036101000a03801982511681845116808217855250505050505090500191505060006040518083038185875af1925050503d80600081146133de576040519150601f19603f3d011682016040523d82523d6000602084013e6133e3565b606091505b50915091506133f3828286613404565b979650505050505050565b3b151590565b60608315613413575081611d3b565b8251156134235782518084602001fd5b60405162461bcd60e51b815260206004820181815284516024840152845185939192839260440191908501908083836000831561313257818101518382015260200161311a565b8280548282559060005260206000209081019282156134bf579160200282015b828111156134bf57825182546001600160a01b0319166001600160a01b0390911617825560209092019160019091019061348a565b506134cb9291506134cf565b5090565b5b808211156134cb5780546001600160a01b03191681556001016134d056fe5265656e7472616e637947756172643a207265656e7472616e742063616c6c00546f6b656e4d616e616765723a20616c726561647920696e697469616c697a6564546f6b656e4d616e616765723a20696e73756666696369656e7420617574686f72697a6174696f6e546f6b656e4d616e616765723a20616374696f6e206e6f7420617574686f72697a6564546f6b656e4d616e616765723a20666f7262696464656e000000000000000000416464726573733a20696e73756666696369656e742062616c616e636520666f722063616c6c476d78466c6f6f723a20696e76616c6964205f6d696e744d756c7469706c696572546f6b656e4d616e616765723a20616374696f6e206e6f74207369676e616c6c6564536166654d6174683a206d756c7469706c69636174696f6e206f766572666c6f775361666545524332303a204552433230206f7065726174696f6e20646964206e6f742073756363656564a2646970667358221220a6c133f770c60447cba3eb70090ce4915e95607be05d3cae8930522961e66a5c64736f6c634300060c0033","linkReferences":{}},"methodIdentifiers":{"BASIS_POINTS_DIVISOR()":"126082cf","BURN_BASIS_POINTS()":"5fe15ad7","PRICE_PRECISION()":"95082d25","actionsNonce()":"a4c04bb7","admin()":"f851a440","approve(address,address,uint256,uint256)":"4dc5ecb3","approveNFT(address,address,uint256,uint256)":"f23f9775","approveNFTs(address,address,uint256[],uint256)":"42a1fcee","backedSupply()":"c616b592","baseMintPrice()":"8559dff3","burn(uint256,uint256,address)":"749388c4","getBurnAmountOut(uint256)":"b82ce261","getMintPrice()":"a7f93ebd","gmx()":"31e67c71","initialize(address[])":"a224cee7","isHandler(address)":"46ea87af","isInitialized()":"392e53cd","isSigner(address)":"7df73e27","minAuthorizations()":"287800c9","mint(uint256,uint256,address)":"e7d3fe6b","mintMultiplier()":"3acd81a5","mintedSupply()":"c1bd8cf9","multiplierPrecision()":"2415ab6e","pendingActions(bytes32)":"e30569e5","receiveNFTs(address,address,uint256[])":"adb384b6","reserveToken()":"f4325d67","setAdmin(address,address,uint256)":"9fddaac1","setBackedSupply(uint256)":"2494b7eb","setGov(address,address,address,uint256)":"e9075621","setHandler(address,bool)":"9cb7de4b","setMintMultiplier(uint256)":"eb0eec48","signApprove(address,address,uint256,uint256)":"f52dc4f7","signApproveNFT(address,address,uint256,uint256)":"ddf67a9f","signApproveNFTs(address,address,uint256[],uint256)":"f00cb942","signSetAdmin(address,address,uint256)":"f466634b","signSetGov(address,address,address,uint256)":"a62fb170","signalApprove(address,address,uint256)":"dce6e18d","signalApproveNFT(address,address,uint256)":"0b13beca","signalApproveNFTs(address,address,uint256[])":"181fcd33","signalSetAdmin(address,address)":"75fd490c","signalSetGov(address,address,address)":"e2d03cc5","signedActions(address,bytes32)":"87c6d4f9","signers(uint256)":"2079fb9a","signersLength()":"41f684f3"},"id":111}