{"abi":[{"type":"function","name":"getDecreaseOrders","inputs":[{"name":"_orderBookAddress","type":"address","internalType":"address payable"},{"name":"_account","type":"address","internalType":"address"},{"name":"_indices","type":"uint256[]","internalType":"uint256[]"}],"outputs":[{"name":"","type":"uint256[]","internalType":"uint256[]"},{"name":"","type":"address[]","internalType":"address[]"}],"stateMutability":"view"},{"type":"function","name":"getIncreaseOrders","inputs":[{"name":"_orderBookAddress","type":"address","internalType":"address payable"},{"name":"_account","type":"address","internalType":"address"},{"name":"_indices","type":"uint256[]","internalType":"uint256[]"}],"outputs":[{"name":"","type":"uint256[]","internalType":"uint256[]"},{"name":"","type":"address[]","internalType":"address[]"}],"stateMutability":"view"},{"type":"function","name":"getSwapOrders","inputs":[{"name":"_orderBookAddress","type":"address","internalType":"address payable"},{"name":"_account","type":"address","internalType":"address"},{"name":"_indices","type":"uint256[]","internalType":"uint256[]"}],"outputs":[{"name":"","type":"uint256[]","internalType":"uint256[]"},{"name":"","type":"address[]","internalType":"address[]"}],"stateMutability":"view"}],"bytecode":{"object":"0x608060405234801561001057600080fd5b50610e33806100206000396000f3fe608060405234801561001057600080fd5b50600436106100415760003560e01c80630ce933b9146100465780632e1814691461019b578063c38ccd5014610257575b600080fd5b6101026004803603606081101561005c57600080fd5b6001600160a01b03823581169260208101359091169181019060608101604082013564010000000081111561009057600080fd5b8201836020820111156100a257600080fd5b803590602001918460208302840111640100000000831117156100c457600080fd5b919080806020026020016040519081016040528093929190818152602001838360200280828437600092019190915250929550610313945050505050565b604051808060200180602001838103835285818151815260200191508051906020019060200280838360005b8381101561014657818101518382015260200161012e565b50505050905001838103825284818151815260200191508051906020019060200280838360005b8381101561018557818101518382015260200161016d565b5050505090500194505050505060405180910390f35b610102600480360360608110156101b157600080fd5b6001600160a01b0382358116926020810135909116918101906060810160408201356401000000008111156101e557600080fd5b8201836020820111156101f757600080fd5b8035906020019184602083028401116401000000008311171561021957600080fd5b91908080602002602001604051908101604052809392919081815260200183836020028082843760009201919091525092955061067d945050505050565b6101026004803603606081101561026d57600080fd5b6001600160a01b0382358116926020810135909116918101906060810160408201356401000000008111156102a157600080fd5b8201836020820111156102b357600080fd5b803590602001918460208302840111640100000000831117156102d557600080fd5b919080806020026020016040519081016040528093929190818152602001838360200280828437600092019190915250929550610a21945050505050565b60608061031e610dc5565b6040518060a001604052806000815260200160008152602001866001600160a01b0316815260200160058152602001600281525090506060845182606001510267ffffffffffffffff8111801561037457600080fd5b5060405190808252806020026020018201604052801561039e578160200160208202803683370190505b5090506060855183608001510267ffffffffffffffff811180156103c157600080fd5b506040519080825280602002602001820160405280156103eb578160200160208202803683370190505b509050875b86518451101561066f578684600001518151811061040a57fe5b60200260200101518460200181815250506000806000806000806000876001600160a01b031663026032ee8c604001518d602001516040518363ffffffff1660e01b815260040180836001600160a01b03168152602001828152602001925050506101006040518083038186803b15801561048457600080fd5b505afa158015610498573d6000803e3d6000fd5b505050506040513d6101008110156104af57600080fd5b810190808051906020019092919080519060200190929190805190602001909291908051906020019092919080519060200190929190805190602001909291908051906020019092919080519060200190929190505050509650965096509650965096509650858a8c606001518d60000151028151811061052c57fe5b602002602001018181525050838a8c606001518d60000151026001018151811061055257fe5b6020026020010181815250508261056a57600061056d565b60015b60ff168a8c606001518d60000151026002018151811061058957fe5b602002602001018181525050818a8c606001518d6000015102600301815181106105af57fe5b602002602001018181525050806105c75760006105ca565b60015b60ff168a8c606001518d6000015102600401815181106105e657fe5b60200260200101818152505086898c608001518d60000151028151811061060957fe5b60200260200101906001600160a01b031690816001600160a01b03168152505084898c608001518d60000151026001018151811061064357fe5b6001600160a01b0390921660209283029190910190910152505088516001018952506103f09350505050565b509097909650945050505050565b606080610688610dc5565b6040518060a001604052806000815260200160008152602001866001600160a01b0316815260200160058152602001600381525090506060845182606001510267ffffffffffffffff811180156106de57600080fd5b50604051908082528060200260200182016040528015610708578160200160208202803683370190505b5090506060855183608001510267ffffffffffffffff8111801561072b57600080fd5b50604051908082528060200260200182016040528015610755578160200160208202803683370190505b509050875b86518451101561066f578684600001518151811061077457fe5b6020026020010151846020018181525050600080600080600080600080886001600160a01b031663d0d40cd68d604001518e602001516040518363ffffffff1660e01b815260040180836001600160a01b03168152602001828152602001925050506101206040518083038186803b1580156107ef57600080fd5b505afa158015610803573d6000803e3d6000fd5b505050506040513d61012081101561081a57600080fd5b810190808051906020019092919080519060200190929190805190602001909291908051906020019092919080519060200190929190805190602001909291908051906020019092919080519060200190929190805190602001909291905050505097509750975097509750975097509750848b8d606001518e6000015102815181106108a357fe5b602002602001018181525050838b8d606001518e6000015102600101815181106108c957fe5b602002602001018181525050828b8d606001518e6000015102600201815181106108ef57fe5b6020026020010181815250508161090757600061090a565b60015b60ff168b8d606001518e60000151026003018151811061092657fe5b6020026020010181815250508061093e576000610941565b60015b60ff168b8d606001518e60000151026004018151811061095d57fe5b602002602001018181525050878a8d608001518e60000151028151811061098057fe5b60200260200101906001600160a01b031690816001600160a01b031681525050868a8d608001518e6000015102600101815181106109ba57fe5b60200260200101906001600160a01b031690816001600160a01b031681525050858a8d608001518e6000015102600201815181106109f457fe5b6001600160a01b0390921660209283029190910190910152505089516001018a525061075a945050505050565b606080610a2c610dc5565b6040518060a001604052806000815260200160008152602001866001600160a01b0316815260200160058152602001600381525090506060845182606001510267ffffffffffffffff81118015610a8257600080fd5b50604051908082528060200260200182016040528015610aac578160200160208202803683370190505b5090506060855183608001510267ffffffffffffffff81118015610acf57600080fd5b50604051908082528060200260200182016040528015610af9578160200160208202803683370190505b509050875b86518451101561066f5786846000015181518110610b1857fe5b6020026020010151846020018181525050600080600080600080600080886001600160a01b031663d3bab1d18d604001518e602001516040518363ffffffff1660e01b815260040180836001600160a01b03168152602001828152602001925050506101206040518083038186803b158015610b9357600080fd5b505afa158015610ba7573d6000803e3d6000fd5b505050506040513d610120811015610bbe57600080fd5b810190808051906020019092919080519060200190929190805190602001909291908051906020019092919080519060200190929190805190602001909291908051906020019092919080519060200190929190805190602001909291905050505097509750975097509750975097509750868b8d606001518e600001510281518110610c4757fe5b602002602001018181525050838b8d606001518e600001510260010181518110610c6d57fe5b60200260200101818152505082610c85576000610c88565b60015b60ff168b8d606001518e600001510260020181518110610ca457fe5b602002602001018181525050818b8d606001518e600001510260030181518110610cca57fe5b60200260200101818152505080610ce2576000610ce5565b60015b60ff168b8d606001518e600001510260040181518110610d0157fe5b602002602001018181525050878a8d608001518e600001510281518110610d2457fe5b60200260200101906001600160a01b031690816001600160a01b031681525050858a8d608001518e600001510260010181518110610d5e57fe5b60200260200101906001600160a01b031690816001600160a01b031681525050848a8d608001518e600001510260020181518110610d9857fe5b6001600160a01b0390921660209283029190910190910152505089516001018a5250610afe945050505050565b6040518060a00160405280600081526020016000815260200160006001600160a01b031681526020016000815260200160008152509056fea2646970667358221220bd988de65c3905cdc021bbbe6ee6b3e33c66faf844ddf337d7fe5adca2f608c864736f6c634300060c0033","linkReferences":{}},"methodIdentifiers":{"getDecreaseOrders(address,address,uint256[])":"0ce933b9","getIncreaseOrders(address,address,uint256[])":"c38ccd50","getSwapOrders(address,address,uint256[])":"2e181469"},"id":150}