{"abi":[{"type":"constructor","inputs":[{"name":"_token","type":"address","internalType":"address"},{"name":"_wToken","type":"address","internalType":"address"}],"stateMutability":"nonpayable"},{"type":"function","name":"gov","inputs":[],"outputs":[{"name":"","type":"address","internalType":"address"}],"stateMutability":"view"},{"type":"function","name":"setGov","inputs":[{"name":"_gov","type":"address","internalType":"address"}],"outputs":[],"stateMutability":"nonpayable"},{"type":"function","name":"token","inputs":[],"outputs":[{"name":"","type":"address","internalType":"address"}],"stateMutability":"view"},{"type":"function","name":"unwrap","inputs":[{"name":"_amount","type":"uint256","internalType":"uint256"},{"name":"_receiver","type":"address","internalType":"address"}],"outputs":[],"stateMutability":"nonpayable"},{"type":"function","name":"wToken","inputs":[],"outputs":[{"name":"","type":"address","internalType":"address"}],"stateMutability":"view"},{"type":"function","name":"withdrawToken","inputs":[{"name":"_token","type":"address","internalType":"address"},{"name":"_account","type":"address","internalType":"address"},{"name":"_amount","type":"uint256","internalType":"uint256"}],"outputs":[],"stateMutability":"nonpayable"},{"type":"function","name":"wrap","inputs":[{"name":"_amount","type":"uint256","internalType":"uint256"},{"name":"_receiver","type":"address","internalType":"address"}],"outputs":[],"stateMutability":"nonpayable"}],"bytecode":{"object":"0x608060405234801561001057600080fd5b506040516108353803806108358339818101604052604081101561003357600080fd5b5080516020909101516001600081905580546001600160a01b03199081163317909155600280546001600160a01b03948516908316179055600380549390921692169190911790556107ab8061008a6000396000f3fe608060405234801561001057600080fd5b506004361061007d5760003560e01c806313bac8201161005b57806313bac820146100e65780637647691d14610112578063cfad57a21461013e578063fc0c546a146101645761007d565b806301e33667146100825780630babd864146100ba57806312d43a51146100de575b600080fd5b6100b86004803603606081101561009857600080fd5b506001600160a01b0381358116916020810135909116906040013561016c565b005b6100c26101dc565b604080516001600160a01b039092168252519081900360200190f35b6100c26101eb565b6100b8600480360360408110156100fc57600080fd5b50803590602001356001600160a01b03166101fa565b6100b86004803603604081101561012857600080fd5b50803590602001356001600160a01b031661028f565b6100b86004803603602081101561015457600080fd5b50356001600160a01b031661031b565b6100c2610394565b6001546001600160a01b031633146101c3576040805162461bcd60e51b815260206004820152601560248201527423b7bb32b93730b136329d103337b93134b23232b760591b604482015290519081900360640190fd5b6101d76001600160a01b03841683836103a3565b505050565b6003546001600160a01b031681565b6001546001600160a01b031681565b60026000541415610252576040805162461bcd60e51b815260206004820152601f60248201527f5265656e7472616e637947756172643a207265656e7472616e742063616c6c00604482015290519081900360640190fd5b600260008190555461026f906001600160a01b03163330856103f5565b600354610286906001600160a01b031682846103a3565b50506001600055565b600260005414156102e7576040805162461bcd60e51b815260206004820152601f60248201527f5265656e7472616e637947756172643a207265656e7472616e742063616c6c00604482015290519081900360640190fd5b6002600055600354610304906001600160a01b03163330856103f5565b600254610286906001600160a01b031682846103a3565b6001546001600160a01b03163314610372576040805162461bcd60e51b815260206004820152601560248201527423b7bb32b93730b136329d103337b93134b23232b760591b604482015290519081900360640190fd5b600180546001600160a01b0319166001600160a01b0392909216919091179055565b6002546001600160a01b031681565b604080516001600160a01b038416602482015260448082018490528251808303909101815260649091019091526020810180516001600160e01b031663a9059cbb60e01b1790526101d7908490610455565b604080516001600160a01b0380861660248301528416604482015260648082018490528251808303909101815260849091019091526020810180516001600160e01b03166323b872dd60e01b17905261044f908590610455565b50505050565b60606104aa826040518060400160405280602081526020017f5361666545524332303a206c6f772d6c6576656c2063616c6c206661696c6564815250856001600160a01b03166105069092919063ffffffff16565b8051909150156101d7578080602001905160208110156104c957600080fd5b50516101d75760405162461bcd60e51b815260040180806020018281038252602a81526020018061074c602a913960400191505060405180910390fd5b6060610515848460008561051f565b90505b9392505050565b6060824710156105605760405162461bcd60e51b81526004018080602001828103825260268152602001806107266026913960400191505060405180910390fd5b6105698561067b565b6105ba576040805162461bcd60e51b815260206004820152601d60248201527f416464726573733a2063616c6c20746f206e6f6e2d636f6e7472616374000000604482015290519081900360640190fd5b60006060866001600160a01b031685876040518082805190602001908083835b602083106105f95780518252601f1990920191602091820191016105da565b6001836020036101000a03801982511681845116808217855250505050505090500191505060006040518083038185875af1925050503d806000811461065b576040519150601f19603f3d011682016040523d82523d6000602084013e610660565b606091505b5091509150610670828286610681565b979650505050505050565b3b151590565b60608315610690575081610518565b8251156106a05782518084602001fd5b8160405162461bcd60e51b81526004018080602001828103825283818151815260200191508051906020019080838360005b838110156106ea5781810151838201526020016106d2565b50505050905090810190601f1680156107175780820380516001836020036101000a031916815260200191505b509250505060405180910390fdfe416464726573733a20696e73756666696369656e742062616c616e636520666f722063616c6c5361666545524332303a204552433230206f7065726174696f6e20646964206e6f742073756363656564a2646970667358221220aa49d694ba70b99e4cf0582aa4e238681fa020d1915718cb5a92ac6c23a6004b64736f6c634300060c0033","linkReferences":{}},"methodIdentifiers":{"gov()":"12d43a51","setGov(address)":"cfad57a2","token()":"fc0c546a","unwrap(uint256,address)":"7647691d","wToken()":"0babd864","withdrawToken(address,address,uint256)":"01e33667","wrap(uint256,address)":"13bac820"},"id":179}