{"abi":[{"type":"constructor","inputs":[{"name":"_rewardToken","type":"address","internalType":"address"},{"name":"_rewardTracker","type":"address","internalType":"address"}],"stateMutability":"nonpayable"},{"type":"function","name":"BASIS_POINTS_DIVISOR","inputs":[],"outputs":[{"name":"","type":"uint256","internalType":"uint256"}],"stateMutability":"view"},{"type":"function","name":"BONUS_DURATION","inputs":[],"outputs":[{"name":"","type":"uint256","internalType":"uint256"}],"stateMutability":"view"},{"type":"function","name":"admin","inputs":[],"outputs":[{"name":"","type":"address","internalType":"address"}],"stateMutability":"view"},{"type":"function","name":"bonusMultiplierBasisPoints","inputs":[],"outputs":[{"name":"","type":"uint256","internalType":"uint256"}],"stateMutability":"view"},{"type":"function","name":"distribute","inputs":[],"outputs":[{"name":"","type":"uint256","internalType":"uint256"}],"stateMutability":"nonpayable"},{"type":"function","name":"gov","inputs":[],"outputs":[{"name":"","type":"address","internalType":"address"}],"stateMutability":"view"},{"type":"function","name":"lastDistributionTime","inputs":[],"outputs":[{"name":"","type":"uint256","internalType":"uint256"}],"stateMutability":"view"},{"type":"function","name":"pendingRewards","inputs":[],"outputs":[{"name":"","type":"uint256","internalType":"uint256"}],"stateMutability":"view"},{"type":"function","name":"rewardToken","inputs":[],"outputs":[{"name":"","type":"address","internalType":"address"}],"stateMutability":"view"},{"type":"function","name":"rewardTracker","inputs":[],"outputs":[{"name":"","type":"address","internalType":"address"}],"stateMutability":"view"},{"type":"function","name":"setAdmin","inputs":[{"name":"_admin","type":"address","internalType":"address"}],"outputs":[],"stateMutability":"nonpayable"},{"type":"function","name":"setBonusMultiplier","inputs":[{"name":"_bonusMultiplierBasisPoints","type":"uint256","internalType":"uint256"}],"outputs":[],"stateMutability":"nonpayable"},{"type":"function","name":"setGov","inputs":[{"name":"_gov","type":"address","internalType":"address"}],"outputs":[],"stateMutability":"nonpayable"},{"type":"function","name":"tokensPerInterval","inputs":[],"outputs":[{"name":"","type":"uint256","internalType":"uint256"}],"stateMutability":"view"},{"type":"function","name":"updateLastDistributionTime","inputs":[],"outputs":[],"stateMutability":"nonpayable"},{"type":"function","name":"withdrawToken","inputs":[{"name":"_token","type":"address","internalType":"address"},{"name":"_account","type":"address","internalType":"address"},{"name":"_amount","type":"uint256","internalType":"uint256"}],"outputs":[],"stateMutability":"nonpayable"},{"type":"event","name":"BonusMultiplierChange","inputs":[{"name":"amount","type":"uint256","indexed":false,"internalType":"uint256"}],"anonymous":false},{"type":"event","name":"Distribute","inputs":[{"name":"amount","type":"uint256","indexed":false,"internalType":"uint256"}],"anonymous":false}],"bytecode":{"object":"0x608060405234801561001057600080fd5b50604051610ea7380380610ea78339818101604052604081101561003357600080fd5b5080516020909101516001600081905580546001600160a01b031990811633908117909255600380546001600160a01b0395861690831617905560058054949093169381169390931790915560068054909216179055610e0f806100986000396000f3fe608060405234801561001057600080fd5b50600436106101005760003560e01c8063a013ad5411610097578063eded3fda11610066578063eded3fda146101ff578063f7c618c114610207578063f851a4401461020f578063fd58e63a1461021757610100565b8063a013ad54146101c1578063a8d93627146101c9578063cfad57a2146101d1578063e4fc6b6d146101f757610100565b80633ae6d6eb116100d35780633ae6d6eb146101835780636bcb411a1461018b578063704b6c021461019357806375b17350146101b957610100565b806301e3366714610105578063126082cf1461013d57806312d43a51146101575780632f6beaa51461017b575b600080fd5b61013b6004803603606081101561011b57600080fd5b506001600160a01b03813581169160208101359091169060400135610234565b005b6101456102a4565b60408051918252519081900360200190f35b61015f6102aa565b604080516001600160a01b039092168252519081900360200190f35b6101456102b9565b61013b6102bf565b61015f610324565b61013b600480360360208110156101a957600080fd5b50356001600160a01b0316610333565b6101456103ac565b6101456103b2565b6101456103ba565b61013b600480360360208110156101e757600080fd5b50356001600160a01b0316610465565b6101456104de565b610145610623565b61015f6106f2565b61015f610701565b61013b6004803603602081101561022d57600080fd5b5035610710565b6001546001600160a01b0316331461028b576040805162461bcd60e51b815260206004820152601560248201527423b7bb32b93730b136329d103337b93134b23232b760591b604482015290519081900360640190fd5b61029f6001600160a01b0384168383610850565b505050565b61271081565b6001546001600160a01b031681565b60025481565b6006546001600160a01b0316331461031e576040805162461bcd60e51b815260206004820152601b60248201527f426f6e75734469737472696275746f723a20666f7262696464656e0000000000604482015290519081900360640190fd5b42600455565b6005546001600160a01b031681565b6001546001600160a01b0316331461038a576040805162461bcd60e51b815260206004820152601560248201527423b7bb32b93730b136329d103337b93134b23232b760591b604482015290519081900360640190fd5b600680546001600160a01b0319166001600160a01b0392909216919091179055565b60045481565b6301e1338081565b600080600560009054906101000a90046001600160a01b03166001600160a01b03166318160ddd6040518163ffffffff1660e01b815260040160206040518083038186803b15801561040b57600080fd5b505afa15801561041f573d6000803e3d6000fd5b505050506040513d602081101561043557600080fd5b505160025490915061045e906301e13380906104589061271090829086906108a2565b90610904565b9150505b90565b6001546001600160a01b031633146104bc576040805162461bcd60e51b815260206004820152601560248201527423b7bb32b93730b136329d103337b93134b23232b760591b604482015290519081900360640190fd5b600180546001600160a01b0319166001600160a01b0392909216919091179055565b6005546000906001600160a01b0316331461052a5760405162461bcd60e51b8152600401808060200182810382526024815260200180610d8c6024913960400191505060405180910390fd5b6000610534610623565b905080610545576000915050610462565b426004908155600354604080516370a0823160e01b81523093810193909352516000926001600160a01b03909216916370a08231916024808301926020929190829003018186803b15801561059957600080fd5b505afa1580156105ad573d6000803e3d6000fd5b505050506040513d60208110156105c357600080fd5b50519050808211156105d3578091505b6003546105ea906001600160a01b03163384610850565b6040805183815290517f4def474aca53bf221d07d9ab0f675b3f6d8d2494b8427271bcf43c018ef1eead9181900360200190a150905090565b600060045442141561063757506000610462565b600554604080516318160ddd60e01b815290516000926001600160a01b0316916318160ddd916004808301926020929190829003018186803b15801561067c57600080fd5b505afa158015610690573d6000803e3d6000fd5b505050506040513d60208110156106a657600080fd5b50516004549091506000906106bc904290610946565b90506106eb6301e133806104586127106104586002546106e588886108a290919063ffffffff16565b906108a2565b9250505090565b6003546001600160a01b031681565b6006546001600160a01b031681565b6006546001600160a01b0316331461076f576040805162461bcd60e51b815260206004820152601b60248201527f426f6e75734469737472696275746f723a20666f7262696464656e0000000000604482015290519081900360640190fd5b6004546107ad5760405162461bcd60e51b815260040180806020018281038252602e815260200180610d3d602e913960400191505060405180910390fd5b600560009054906101000a90046001600160a01b03166001600160a01b0316633e158b0c6040518163ffffffff1660e01b8152600401600060405180830381600087803b1580156107fd57600080fd5b505af1158015610811573d6000803e3d6000fd5b5050506002829055506040805182815290517f58585e4edc172f6517d6789356504dc9ad23553d02202c3ac454a8d0733f6b2b9181900360200190a150565b604080516001600160a01b038416602482015260448082018490528251808303909101815260649091019091526020810180516001600160e01b031663a9059cbb60e01b17905261029f908490610988565b6000826108b1575060006108fe565b828202828482816108be57fe5b04146108fb5760405162461bcd60e51b8152600401808060200182810382526021815260200180610d6b6021913960400191505060405180910390fd5b90505b92915050565b60006108fb83836040518060400160405280601a81526020017f536166654d6174683a206469766973696f6e206279207a65726f000000000000815250610a39565b60006108fb83836040518060400160405280601e81526020017f536166654d6174683a207375627472616374696f6e206f766572666c6f770000815250610add565b60606109dd826040518060400160405280602081526020017f5361666545524332303a206c6f772d6c6576656c2063616c6c206661696c6564815250856001600160a01b0316610b379092919063ffffffff16565b80519091501561029f578080602001905160208110156109fc57600080fd5b505161029f5760405162461bcd60e51b815260040180806020018281038252602a815260200180610db0602a913960400191505060405180910390fd5b60008183610ac55760405162461bcd60e51b81526004018080602001828103825283818151815260200191508051906020019080838360005b83811015610a8a578181015183820152602001610a72565b50505050905090810190601f168015610ab75780820380516001836020036101000a031916815260200191505b509250505060405180910390fd5b506000838581610ad157fe5b049150505b9392505050565b60008184841115610b2f5760405162461bcd60e51b8152602060048201818152835160248401528351909283926044909101919085019080838360008315610a8a578181015183820152602001610a72565b505050900390565b6060610b468484600085610b4e565b949350505050565b606082471015610b8f5760405162461bcd60e51b8152600401808060200182810382526026815260200180610d176026913960400191505060405180910390fd5b610b9885610caa565b610be9576040805162461bcd60e51b815260206004820152601d60248201527f416464726573733a2063616c6c20746f206e6f6e2d636f6e7472616374000000604482015290519081900360640190fd5b60006060866001600160a01b031685876040518082805190602001908083835b60208310610c285780518252601f199092019160209182019101610c09565b6001836020036101000a03801982511681845116808217855250505050505090500191505060006040518083038185875af1925050503d8060008114610c8a576040519150601f19603f3d011682016040523d82523d6000602084013e610c8f565b606091505b5091509150610c9f828286610cb0565b979650505050505050565b3b151590565b60608315610cbf575081610ad6565b825115610ccf5782518084602001fd5b60405162461bcd60e51b8152602060048201818152845160248401528451859391928392604401919085019080838360008315610a8a578181015183820152602001610a7256fe416464726573733a20696e73756666696369656e742062616c616e636520666f722063616c6c426f6e75734469737472696275746f723a20696e76616c6964206c617374446973747269627574696f6e54696d65536166654d6174683a206d756c7469706c69636174696f6e206f766572666c6f77426f6e75734469737472696275746f723a20696e76616c6964206d73672e73656e6465725361666545524332303a204552433230206f7065726174696f6e20646964206e6f742073756363656564a26469706673582212207049f2e0a1925bb3a926838705a6ded0c6ee80985a3f62a9993e3d5ff420a64164736f6c634300060c0033","linkReferences":{}},"methodIdentifiers":{"BASIS_POINTS_DIVISOR()":"126082cf","BONUS_DURATION()":"a013ad54","admin()":"f851a440","bonusMultiplierBasisPoints()":"2f6beaa5","distribute()":"e4fc6b6d","gov()":"12d43a51","lastDistributionTime()":"75b17350","pendingRewards()":"eded3fda","rewardToken()":"f7c618c1","rewardTracker()":"6bcb411a","setAdmin(address)":"704b6c02","setBonusMultiplier(uint256)":"fd58e63a","setGov(address)":"cfad57a2","tokensPerInterval()":"a8d93627","updateLastDistributionTime()":"3ae6d6eb","withdrawToken(address,address,uint256)":"01e33667"},"id":165}