{"abi":[{"type":"function","name":"BASIS_POINTS","inputs":[],"outputs":[{"name":"","type":"uint256","internalType":"uint256"}],"stateMutability":"view"},{"type":"function","name":"codeOwners","inputs":[{"name":"","type":"bytes32","internalType":"bytes32"}],"outputs":[{"name":"","type":"address","internalType":"address"}],"stateMutability":"view"},{"type":"function","name":"getTraderReferralInfo","inputs":[{"name":"_account","type":"address","internalType":"address"}],"outputs":[{"name":"","type":"bytes32","internalType":"bytes32"},{"name":"","type":"address","internalType":"address"}],"stateMutability":"view"},{"type":"function","name":"gov","inputs":[],"outputs":[{"name":"","type":"address","internalType":"address"}],"stateMutability":"view"},{"type":"function","name":"govSetCodeOwner","inputs":[{"name":"_code","type":"bytes32","internalType":"bytes32"},{"name":"_newAccount","type":"address","internalType":"address"}],"outputs":[],"stateMutability":"nonpayable"},{"type":"function","name":"isHandler","inputs":[{"name":"","type":"address","internalType":"address"}],"outputs":[{"name":"","type":"bool","internalType":"bool"}],"stateMutability":"view"},{"type":"function","name":"referrerDiscountShares","inputs":[{"name":"","type":"address","internalType":"address"}],"outputs":[{"name":"","type":"uint256","internalType":"uint256"}],"stateMutability":"view"},{"type":"function","name":"referrerTiers","inputs":[{"name":"","type":"address","internalType":"address"}],"outputs":[{"name":"","type":"uint256","internalType":"uint256"}],"stateMutability":"view"},{"type":"function","name":"registerCode","inputs":[{"name":"_code","type":"bytes32","internalType":"bytes32"}],"outputs":[],"stateMutability":"nonpayable"},{"type":"function","name":"setCodeOwner","inputs":[{"name":"_code","type":"bytes32","internalType":"bytes32"},{"name":"_newAccount","type":"address","internalType":"address"}],"outputs":[],"stateMutability":"nonpayable"},{"type":"function","name":"setGov","inputs":[{"name":"_gov","type":"address","internalType":"address"}],"outputs":[],"stateMutability":"nonpayable"},{"type":"function","name":"setHandler","inputs":[{"name":"_handler","type":"address","internalType":"address"},{"name":"_isActive","type":"bool","internalType":"bool"}],"outputs":[],"stateMutability":"nonpayable"},{"type":"function","name":"setReferrerDiscountShare","inputs":[{"name":"_discountShare","type":"uint256","internalType":"uint256"}],"outputs":[],"stateMutability":"nonpayable"},{"type":"function","name":"setReferrerTier","inputs":[{"name":"_referrer","type":"address","internalType":"address"},{"name":"_tierId","type":"uint256","internalType":"uint256"}],"outputs":[],"stateMutability":"nonpayable"},{"type":"function","name":"setTier","inputs":[{"name":"_tierId","type":"uint256","internalType":"uint256"},{"name":"_totalRebate","type":"uint256","internalType":"uint256"},{"name":"_discountShare","type":"uint256","internalType":"uint256"}],"outputs":[],"stateMutability":"nonpayable"},{"type":"function","name":"setTraderReferralCode","inputs":[{"name":"_account","type":"address","internalType":"address"},{"name":"_code","type":"bytes32","internalType":"bytes32"}],"outputs":[],"stateMutability":"nonpayable"},{"type":"function","name":"setTraderReferralCodeByUser","inputs":[{"name":"_code","type":"bytes32","internalType":"bytes32"}],"outputs":[],"stateMutability":"nonpayable"},{"type":"function","name":"tiers","inputs":[{"name":"","type":"uint256","internalType":"uint256"}],"outputs":[{"name":"totalRebate","type":"uint256","internalType":"uint256"},{"name":"discountShare","type":"uint256","internalType":"uint256"}],"stateMutability":"view"},{"type":"function","name":"traderReferralCodes","inputs":[{"name":"","type":"address","internalType":"address"}],"outputs":[{"name":"","type":"bytes32","internalType":"bytes32"}],"stateMutability":"view"},{"type":"event","name":"GovSetCodeOwner","inputs":[{"name":"code","type":"bytes32","indexed":false,"internalType":"bytes32"},{"name":"newAccount","type":"address","indexed":false,"internalType":"address"}],"anonymous":false},{"type":"event","name":"RegisterCode","inputs":[{"name":"account","type":"address","indexed":false,"internalType":"address"},{"name":"code","type":"bytes32","indexed":false,"internalType":"bytes32"}],"anonymous":false},{"type":"event","name":"SetCodeOwner","inputs":[{"name":"account","type":"address","indexed":false,"internalType":"address"},{"name":"newAccount","type":"address","indexed":false,"internalType":"address"},{"name":"code","type":"bytes32","indexed":false,"internalType":"bytes32"}],"anonymous":false},{"type":"event","name":"SetHandler","inputs":[{"name":"handler","type":"address","indexed":false,"internalType":"address"},{"name":"isActive","type":"bool","indexed":false,"internalType":"bool"}],"anonymous":false},{"type":"event","name":"SetReferrerDiscountShare","inputs":[{"name":"referrer","type":"address","indexed":false,"internalType":"address"},{"name":"discountShare","type":"uint256","indexed":false,"internalType":"uint256"}],"anonymous":false},{"type":"event","name":"SetReferrerTier","inputs":[{"name":"referrer","type":"address","indexed":false,"internalType":"address"},{"name":"tierId","type":"uint256","indexed":false,"internalType":"uint256"}],"anonymous":false},{"type":"event","name":"SetTier","inputs":[{"name":"tierId","type":"uint256","indexed":false,"internalType":"uint256"},{"name":"totalRebate","type":"uint256","indexed":false,"internalType":"uint256"},{"name":"discountShare","type":"uint256","indexed":false,"internalType":"uint256"}],"anonymous":false},{"type":"event","name":"SetTraderReferralCode","inputs":[{"name":"account","type":"address","indexed":false,"internalType":"address"},{"name":"code","type":"bytes32","indexed":false,"internalType":"bytes32"}],"anonymous":false}],"bytecode":{"object":"0x608060405234801561001057600080fd5b50600080546001600160a01b03191633179055610db7806100326000396000f3fe608060405234801561001057600080fd5b50600436106101215760003560e01c8063836a0187116100ad578063cfad57a211610071578063cfad57a21461038d578063dfcfa250146103b3578063e1e01bf3146103df578063e1f1c4a7146103fc578063ed8431341461040457610121565b8063836a0187146102d657806385725b58146102ff5780639c8e2de9146103255780639cb7de4b14610342578063c8b3c4601461037057610121565b80633fb8b323116100f45780633fb8b323146101d757806346ea87af14610203578063534ef8831461023d57806356b4b2ad1461028457806371a6a790146102b057610121565b8063039af9eb1461012657806312d43a511461015c5780631582a0181461018057806336def2c8146101b8575b600080fd5b6101436004803603602081101561013c57600080fd5b5035610430565b6040805192835260208301919091528051918290030190f35b610164610449565b604080516001600160a01b039092168252519081900360200190f35b6101a66004803603602081101561019657600080fd5b50356001600160a01b0316610458565b60408051918252519081900360200190f35b6101d5600480360360208110156101ce57600080fd5b503561046a565b005b6101d5600480360360408110156101ed57600080fd5b506001600160a01b038135169060200135610570565b6102296004803603602081101561021957600080fd5b50356001600160a01b0316610620565b604080519115158252519081900360200190f35b6102636004803603602081101561025357600080fd5b50356001600160a01b0316610635565b604080519283526001600160a01b0390911660208301528051918290030190f35b6101d56004803603604081101561029a57600080fd5b506001600160a01b03813516906020013561067b565b6101a6600480360360208110156102c657600080fd5b50356001600160a01b03166106ed565b6101d5600480360360608110156102ec57600080fd5b50803590602081013590604001356106ff565b6101a66004803603602081101561031557600080fd5b50356001600160a01b031661085e565b6101d56004803603602081101561033b57600080fd5b5035610870565b6101d56004803603604081101561035857600080fd5b506001600160a01b0381351690602001351515610900565b6101646004803603602081101561038657600080fd5b50356109bb565b6101d5600480360360208110156103a357600080fd5b50356001600160a01b03166109d6565b6101d5600480360360408110156103c957600080fd5b50803590602001356001600160a01b0316610a4f565b6101d5600480360360208110156103f557600080fd5b5035610b60565b6101a6610b6d565b6101d56004803603604081101561041a57600080fd5b50803590602001356001600160a01b0316610b73565b6003602052600090815260409020805460019091015482565b6000546001600160a01b031681565b60026020526000908152604090205481565b806104bc576040805162461bcd60e51b815260206004820152601e60248201527f526566657272616c53746f726167653a20696e76616c6964205f636f64650000604482015290519081900360640190fd5b6000818152600560205260409020546001600160a01b0316156105105760405162461bcd60e51b8152600401808060200182810382526024815260200180610d386024913960400191505060405180910390fd5b60008181526005602090815260409182902080546001600160a01b03191633908117909155825190815290810183905281517f04f82286a2a3b2ee5c8555de8304dfe2ea70991613213184b73a9e408d2d8029929181900390910190a150565b6000546001600160a01b031633146105c7576040805162461bcd60e51b815260206004820152601560248201527423b7bb32b93730b136329d103337b93134b23232b760591b604482015290519081900360640190fd5b6001600160a01b0382166000818152600260209081526040918290208490558151928352820183905280517f7696855cdbb94bb5a44cb0a95caff6f29173aa1cbfba193834b12b90827ce2bc9281900390910190a15050565b60046020526000908152604090205460ff1681565b6001600160a01b038116600090815260066020526040812054819081811561067157506000818152600560205260409020546001600160a01b03165b9092509050915091565b3360009081526004602052604090205460ff166106df576040805162461bcd60e51b815260206004820152601a60248201527f526566657272616c53746f726167653a20666f7262696464656e000000000000604482015290519081900360640190fd5b6106e98282610ca0565b5050565b60016020526000908152604090205481565b6000546001600160a01b03163314610756576040805162461bcd60e51b815260206004820152601560248201527423b7bb32b93730b136329d103337b93134b23232b760591b604482015290519081900360640190fd5b6127108211156107975760405162461bcd60e51b8152600401808060200182810382526024815260200180610d146024913960400191505060405180910390fd5b6127108111156107d85760405162461bcd60e51b8152600401808060200182810382526026815260200180610d5c6026913960400191505060405180910390fd5b6107e0610cf9565b50600083815260036020818152604080842081518083018352878152808401878152958990529383528351815593516001909401939093558251868152908101859052808301849052915190917f4ebd23a492b2bd79586cb57cae40d7793408265f20320f68b478b971e696f4c7919081900360600190a150505050565b60066020526000908152604090205481565b6127108111156108b15760405162461bcd60e51b8152600401808060200182810382526026815260200180610d5c6026913960400191505060405180910390fd5b336000818152600160209081526040918290208490558151928352820183905280517fbd224f3917462b0fa80805fe3ec29be3a37f664955aad6224e5ece036224c4299281900390910190a150565b6000546001600160a01b03163314610957576040805162461bcd60e51b815260206004820152601560248201527423b7bb32b93730b136329d103337b93134b23232b760591b604482015290519081900360640190fd5b6001600160a01b038216600081815260046020908152604091829020805460ff191685151590811790915582519384529083015280517fd373464a39404e5f98fdb4b152b8ba9a094561e97e5c4b4ea11eb18cd9e6695e9281900390910190a15050565b6005602052600090815260409020546001600160a01b031681565b6000546001600160a01b03163314610a2d576040805162461bcd60e51b815260206004820152601560248201527423b7bb32b93730b136329d103337b93134b23232b760591b604482015290519081900360640190fd5b600080546001600160a01b0319166001600160a01b0392909216919091179055565b6000546001600160a01b03163314610aa6576040805162461bcd60e51b815260206004820152601560248201527423b7bb32b93730b136329d103337b93134b23232b760591b604482015290519081900360640190fd5b81610af8576040805162461bcd60e51b815260206004820152601e60248201527f526566657272616c53746f726167653a20696e76616c6964205f636f64650000604482015290519081900360640190fd5b60008281526005602090815260409182902080546001600160a01b0319166001600160a01b03851690811790915582518581529182015281517f6431f88c655dd0e2b8d09b6405c007c515c66d67f2998e69c902873a8c8f3e97929181900390910190a15050565b610b6a3382610ca0565b50565b61271081565b81610bc5576040805162461bcd60e51b815260206004820152601e60248201527f526566657272616c53746f726167653a20696e76616c6964205f636f64650000604482015290519081900360640190fd5b6000828152600560205260409020546001600160a01b0316338114610c31576040805162461bcd60e51b815260206004820152601a60248201527f526566657272616c53746f726167653a20666f7262696464656e000000000000604482015290519081900360640190fd5b60008381526005602090815260409182902080546001600160a01b0386166001600160a01b0319909116811790915582513381529182015280820185905290517f5640856798d41ce9ca0a109b54c20a06eb99ba9c36ab4547115dafb8473cf3979181900360600190a1505050565b6001600160a01b0382166000818152600660209081526040918290208490558151928352820183905280517f43825f14567dda057e821be2e51a5aa79aa51f3907a647e3ed2bd486a01050f19281900390910190a15050565b60405180604001604052806000815260200160008152509056fe526566657272616c53746f726167653a20696e76616c696420746f74616c526562617465526566657272616c53746f726167653a20636f646520616c726561647920657869737473526566657272616c53746f726167653a20696e76616c696420646973636f756e745368617265a2646970667358221220824bb22c58d703b99bb48930f3d7335d6aec32dc45101d2a172be1006577399e64736f6c634300060c0033","linkReferences":{}},"methodIdentifiers":{"BASIS_POINTS()":"e1f1c4a7","codeOwners(bytes32)":"c8b3c460","getTraderReferralInfo(address)":"534ef883","gov()":"12d43a51","govSetCodeOwner(bytes32,address)":"dfcfa250","isHandler(address)":"46ea87af","referrerDiscountShares(address)":"71a6a790","referrerTiers(address)":"1582a018","registerCode(bytes32)":"36def2c8","setCodeOwner(bytes32,address)":"ed843134","setGov(address)":"cfad57a2","setHandler(address,bool)":"9cb7de4b","setReferrerDiscountShare(uint256)":"9c8e2de9","setReferrerTier(address,uint256)":"3fb8b323","setTier(uint256,uint256,uint256)":"836a0187","setTraderReferralCode(address,bytes32)":"56b4b2ad","setTraderReferralCodeByUser(bytes32)":"e1e01bf3","tiers(uint256)":"039af9eb","traderReferralCodes(address)":"85725b58"},"id":163}