{"abi":[{"type":"constructor","inputs":[{"name":"_initialSupply","type":"uint256","internalType":"uint256"}],"stateMutability":"nonpayable"},{"type":"function","name":"addAdmin","inputs":[{"name":"_account","type":"address","internalType":"address"}],"outputs":[],"stateMutability":"nonpayable"},{"type":"function","name":"addBlockedRecipient","inputs":[{"name":"_recipient","type":"address","internalType":"address"}],"outputs":[],"stateMutability":"nonpayable"},{"type":"function","name":"addMsgSender","inputs":[{"name":"_msgSender","type":"address","internalType":"address"}],"outputs":[],"stateMutability":"nonpayable"},{"type":"function","name":"admins","inputs":[{"name":"","type":"address","internalType":"address"}],"outputs":[{"name":"","type":"bool","internalType":"bool"}],"stateMutability":"view"},{"type":"function","name":"allowance","inputs":[{"name":"_owner","type":"address","internalType":"address"},{"name":"_spender","type":"address","internalType":"address"}],"outputs":[{"name":"","type":"uint256","internalType":"uint256"}],"stateMutability":"view"},{"type":"function","name":"allowances","inputs":[{"name":"","type":"address","internalType":"address"},{"name":"","type":"address","internalType":"address"}],"outputs":[{"name":"","type":"uint256","internalType":"uint256"}],"stateMutability":"view"},{"type":"function","name":"allowedMsgSenders","inputs":[{"name":"","type":"address","internalType":"address"}],"outputs":[{"name":"","type":"bool","internalType":"bool"}],"stateMutability":"view"},{"type":"function","name":"approve","inputs":[{"name":"_spender","type":"address","internalType":"address"},{"name":"_amount","type":"uint256","internalType":"uint256"}],"outputs":[{"name":"","type":"bool","internalType":"bool"}],"stateMutability":"nonpayable"},{"type":"function","name":"balanceOf","inputs":[{"name":"_account","type":"address","internalType":"address"}],"outputs":[{"name":"","type":"uint256","internalType":"uint256"}],"stateMutability":"view"},{"type":"function","name":"balances","inputs":[{"name":"","type":"address","internalType":"address"}],"outputs":[{"name":"","type":"uint256","internalType":"uint256"}],"stateMutability":"view"},{"type":"function","name":"beginMigration","inputs":[],"outputs":[],"stateMutability":"nonpayable"},{"type":"function","name":"blockedRecipients","inputs":[{"name":"","type":"address","internalType":"address"}],"outputs":[{"name":"","type":"bool","internalType":"bool"}],"stateMutability":"view"},{"type":"function","name":"decimals","inputs":[],"outputs":[{"name":"","type":"uint8","internalType":"uint8"}],"stateMutability":"view"},{"type":"function","name":"endMigration","inputs":[],"outputs":[],"stateMutability":"nonpayable"},{"type":"function","name":"gov","inputs":[],"outputs":[{"name":"","type":"address","internalType":"address"}],"stateMutability":"view"},{"type":"function","name":"hasActiveMigration","inputs":[],"outputs":[{"name":"","type":"bool","internalType":"bool"}],"stateMutability":"view"},{"type":"function","name":"migrationTime","inputs":[],"outputs":[{"name":"","type":"uint256","internalType":"uint256"}],"stateMutability":"view"},{"type":"function","name":"name","inputs":[],"outputs":[{"name":"","type":"string","internalType":"string"}],"stateMutability":"view"},{"type":"function","name":"removeAdmin","inputs":[{"name":"_account","type":"address","internalType":"address"}],"outputs":[],"stateMutability":"nonpayable"},{"type":"function","name":"removeBlockedRecipient","inputs":[{"name":"_recipient","type":"address","internalType":"address"}],"outputs":[],"stateMutability":"nonpayable"},{"type":"function","name":"removeMsgSender","inputs":[{"name":"_msgSender","type":"address","internalType":"address"}],"outputs":[],"stateMutability":"nonpayable"},{"type":"function","name":"setGov","inputs":[{"name":"_gov","type":"address","internalType":"address"}],"outputs":[],"stateMutability":"nonpayable"},{"type":"function","name":"setNextMigrationTime","inputs":[{"name":"_migrationTime","type":"uint256","internalType":"uint256"}],"outputs":[],"stateMutability":"nonpayable"},{"type":"function","name":"symbol","inputs":[],"outputs":[{"name":"","type":"string","internalType":"string"}],"stateMutability":"view"},{"type":"function","name":"totalSupply","inputs":[],"outputs":[{"name":"","type":"uint256","internalType":"uint256"}],"stateMutability":"view"},{"type":"function","name":"transfer","inputs":[{"name":"_recipient","type":"address","internalType":"address"},{"name":"_amount","type":"uint256","internalType":"uint256"}],"outputs":[{"name":"","type":"bool","internalType":"bool"}],"stateMutability":"nonpayable"},{"type":"function","name":"transferFrom","inputs":[{"name":"_sender","type":"address","internalType":"address"},{"name":"_recipient","type":"address","internalType":"address"},{"name":"_amount","type":"uint256","internalType":"uint256"}],"outputs":[{"name":"","type":"bool","internalType":"bool"}],"stateMutability":"nonpayable"},{"type":"function","name":"withdrawToken","inputs":[{"name":"_token","type":"address","internalType":"address"},{"name":"_account","type":"address","internalType":"address"},{"name":"_amount","type":"uint256","internalType":"uint256"}],"outputs":[],"stateMutability":"nonpayable"},{"type":"event","name":"Approval","inputs":[{"name":"owner","type":"address","indexed":true,"internalType":"address"},{"name":"spender","type":"address","indexed":true,"internalType":"address"},{"name":"value","type":"uint256","indexed":false,"internalType":"uint256"}],"anonymous":false},{"type":"event","name":"Transfer","inputs":[{"name":"from","type":"address","indexed":true,"internalType":"address"},{"name":"to","type":"address","indexed":true,"internalType":"address"},{"name":"value","type":"uint256","indexed":false,"internalType":"uint256"}],"anonymous":false}],"bytecode":{"object":"0x608060405234801561001057600080fd5b5060405162001467380380620014678339818101604052602081101561003557600080fd5b5051600180546001600160a01b0319163390811782556000818152600560205260409020805460ff191690921790915561006f9082610075565b506101d3565b6001600160a01b0382166100d0576040805162461bcd60e51b815260206004820152601d60248201527f474d543a206d696e7420746f20746865207a65726f2061646472657373000000604482015290519081900360640190fd5b6100e98160005461017260201b610d4d1790919060201c565b60009081556001600160a01b03831681526003602090815260409091205461011a918390610d4d610172821b17901c565b6001600160a01b03831660008181526003602090815260408083209490945583518581529351929391927fddf252ad1be2c89b69c2b068fc378daa952ba7f163c4a11628f55a4df523b3ef9281900390910190a35050565b6000828201838110156101cc576040805162461bcd60e51b815260206004820152601b60248201527f536166654d6174683a206164646974696f6e206f766572666c6f770000000000604482015290519081900360640190fd5b9392505050565b61128480620001e36000396000f3fe608060405234801561001057600080fd5b50600436106101c45760003560e01c806355b6ed5c116100f9578063a9059cbb11610097578063cfad57a211610071578063cfad57a214610581578063dd62ed3e146105a7578063fe0194f2146105d5578063ff61a51c146105dd576101c4565b8063a9059cbb14610512578063a92c6fae1461053e578063b99524551461055b576101c4565b806370480275116100d357806370480275146104b657806370a08231146104dc5780638fb998e11461050257806395d89b411461050a576101c4565b806355b6ed5c1461045a5780635ec080fc146104885780636c525d04146104ae576101c4565b806318160ddd1161016657806327e235e31161014057806327e235e3146103ca578063313ce567146103f0578063429b62e51461040e5780634d9567ee14610434576101c4565b806318160ddd14610354578063205b10a01461036e57806323b872dd14610394576101c4565b806308ebd96a116101a257806308ebd96a146102b8578063095ea7b3146102de57806312d43a511461030a5780631785f53c1461032e576101c4565b806301d060b0146101c957806301e336671461020357806306fdde031461023b575b600080fd5b6101ef600480360360208110156101df57600080fd5b50356001600160a01b03166105e5565b604080519115158252519081900360200190f35b6102396004803603606081101561021957600080fd5b506001600160a01b038135811691602081013590911690604001356105fa565b005b6102436106d2565b6040805160208082528351818301528351919283929083019185019080838360005b8381101561027d578181015183820152602001610265565b50505050905090810190601f1680156102aa5780820380516001836020036101000a031916815260200191505b509250505060405180910390f35b610239600480360360208110156102ce57600080fd5b50356001600160a01b03166106f4565b6101ef600480360360408110156102f457600080fd5b506001600160a01b038135169060200135610768565b61031261077e565b604080516001600160a01b039092168252519081900360200190f35b6102396004803603602081101561034457600080fd5b50356001600160a01b031661078d565b61035c6107fe565b60408051918252519081900360200190f35b6101ef6004803603602081101561038457600080fd5b50356001600160a01b0316610804565b6101ef600480360360608110156103aa57600080fd5b506001600160a01b03813581169160208101359091169060400135610819565b61035c600480360360208110156103e057600080fd5b50356001600160a01b0316610887565b6103f8610899565b6040805160ff9092168252519081900360200190f35b6101ef6004803603602081101561042457600080fd5b50356001600160a01b031661089e565b6102396004803603602081101561044a57600080fd5b50356001600160a01b03166108b3565b61035c6004803603604081101561047057600080fd5b506001600160a01b0381358116916020013516610924565b6102396004803603602081101561049e57600080fd5b50356001600160a01b0316610941565b6102396109b2565b610239600480360360208110156104cc57600080fd5b50356001600160a01b0316610a16565b61035c600480360360208110156104f257600080fd5b50356001600160a01b0316610a8a565b6101ef610aa5565b610243610ab5565b6101ef6004803603604081101561052857600080fd5b506001600160a01b038135169060200135610ad4565b6102396004803603602081101561055457600080fd5b5035610ae1565b6102396004803603602081101561057157600080fd5b50356001600160a01b0316610b8c565b6102396004803603602081101561059757600080fd5b50356001600160a01b0316610c00565b61035c600480360360408110156105bd57600080fd5b506001600160a01b0381358116916020013516610c72565b610239610c9d565b61035c610d47565b60076020526000908152604090205460ff1681565b6001546001600160a01b0316331461064a576040805162461bcd60e51b815260206004820152600e60248201526d23a6aa1d103337b93134b23232b760911b604482015290519081900360640190fd5b826001600160a01b031663a9059cbb83836040518363ffffffff1660e01b815260040180836001600160a01b0316815260200182815260200192505050602060405180830381600087803b1580156106a157600080fd5b505af11580156106b5573d6000803e3d6000fd5b505050506040513d60208110156106cb57600080fd5b5050505050565b6040518060400160405280600681526020016511d85b589a5d60d21b81525081565b6001546001600160a01b03163314610744576040805162461bcd60e51b815260206004820152600e60248201526d23a6aa1d103337b93134b23232b760911b604482015290519081900360640190fd5b6001600160a01b03166000908152600760205260409020805460ff19166001179055565b6000610775338484610dae565b50600192915050565b6001546001600160a01b031681565b6001546001600160a01b031633146107dd576040805162461bcd60e51b815260206004820152600e60248201526d23a6aa1d103337b93134b23232b760911b604482015290519081900360640190fd5b6001600160a01b03166000908152600560205260409020805460ff19169055565b60005481565b60066020526000908152604090205460ff1681565b6000806108648360405180606001604052806026815260200161119f602691396001600160a01b03881660009081526004602090815260408083203384529091529020549190610eb0565b9050610871853383610dae565b61087c858585610f47565b506001949350505050565b60036020526000908152604090205481565b601281565b60056020526000908152604090205460ff1681565b6001546001600160a01b03163314610903576040805162461bcd60e51b815260206004820152600e60248201526d23a6aa1d103337b93134b23232b760911b604482015290519081900360640190fd5b6001600160a01b03166000908152600760205260409020805460ff19169055565b600460209081526000928352604080842090915290825290205481565b6001546001600160a01b03163314610991576040805162461bcd60e51b815260206004820152600e60248201526d23a6aa1d103337b93134b23232b760911b604482015290519081900360640190fd5b6001600160a01b03166000908152600660205260409020805460ff19169055565b3360009081526005602052604090205460ff16610a07576040805162461bcd60e51b815260206004820152600e60248201526d23a6aa1d103337b93134b23232b760911b604482015290519081900360640190fd5b6001805460ff60a01b19169055565b6001546001600160a01b03163314610a66576040805162461bcd60e51b815260206004820152600e60248201526d23a6aa1d103337b93134b23232b760911b604482015290519081900360640190fd5b6001600160a01b03166000908152600560205260409020805460ff19166001179055565b6001600160a01b031660009081526003602052604090205490565b600154600160a01b900460ff1681565b6040518060400160405280600381526020016211d35560ea1b81525081565b6000610775338484610f47565b6001546001600160a01b03163314610b31576040805162461bcd60e51b815260206004820152600e60248201526d23a6aa1d103337b93134b23232b760911b604482015290519081900360640190fd5b6002548111610b87576040805162461bcd60e51b815260206004820152601b60248201527f474d543a20696e76616c6964205f6d6967726174696f6e54696d650000000000604482015290519081900360640190fd5b600255565b6001546001600160a01b03163314610bdc576040805162461bcd60e51b815260206004820152600e60248201526d23a6aa1d103337b93134b23232b760911b604482015290519081900360640190fd5b6001600160a01b03166000908152600660205260409020805460ff19166001179055565b6001546001600160a01b03163314610c50576040805162461bcd60e51b815260206004820152600e60248201526d23a6aa1d103337b93134b23232b760911b604482015290519081900360640190fd5b600180546001600160a01b0319166001600160a01b0392909216919091179055565b6001600160a01b03918216600090815260046020908152604080832093909416825291909152205490565b3360009081526005602052604090205460ff16610cf2576040805162461bcd60e51b815260206004820152600e60248201526d23a6aa1d103337b93134b23232b760911b604482015290519081900360640190fd5b6002544211610d325760405162461bcd60e51b815260040180806020018281038252602181526020018061117e6021913960400191505060405180910390fd5b6001805460ff60a01b1916600160a01b179055565b60025481565b600082820183811015610da7576040805162461bcd60e51b815260206004820152601b60248201527f536166654d6174683a206164646974696f6e206f766572666c6f770000000000604482015290519081900360640190fd5b9392505050565b6001600160a01b038316610df35760405162461bcd60e51b81526004018080602001828103825260228152602001806111e86022913960400191505060405180910390fd5b6001600160a01b038216610e4e576040805162461bcd60e51b815260206004820181905260248201527f474d543a20617070726f766520746f20746865207a65726f2061646472657373604482015290519081900360640190fd5b6001600160a01b03808416600081815260046020908152604080832094871680845294825291829020859055815185815291517f8c5be1e5ebec7d5bd14f71427d1e84f3dd0314c0f7b2291e5b200ac8c7c3b9259281900390910190a3505050565b60008184841115610f3f5760405162461bcd60e51b81526004018080602001828103825283818151815260200191508051906020019080838360005b83811015610f04578181015183820152602001610eec565b50505050905090810190601f168015610f315780820380516001836020036101000a031916815260200191505b509250505060405180910390fd5b505050900390565b6001600160a01b038316610f8c5760405162461bcd60e51b81526004018080602001828103825260238152602001806111c56023913960400191505060405180910390fd5b6001600160a01b038216610fd15760405162461bcd60e51b815260040180806020018281038252602181526020018061122e6021913960400191505060405180910390fd5b600154600160a01b900460ff16156110b5573360009081526007602052604090205460ff16611047576040805162461bcd60e51b815260206004820152601960248201527f474d543a20666f7262696464656e206d73672e73656e64657200000000000000604482015290519081900360640190fd5b6001600160a01b03821660009081526006602052604090205460ff16156110b5576040805162461bcd60e51b815260206004820152601860248201527f474d543a20666f7262696464656e20726563697069656e740000000000000000604482015290519081900360640190fd5b6110f28160405180606001604052806024815260200161120a602491396001600160a01b0386166000908152600360205260409020549190610eb0565b6001600160a01b0380851660009081526003602052604080822093909355908416815220546111219082610d4d565b6001600160a01b0380841660008181526003602090815260409182902094909455805185815290519193928716927fddf252ad1be2c89b69c2b068fc378daa952ba7f163c4a11628f55a4df523b3ef92918290030190a350505056fe474d543a206d6967726174696f6e54696d65206e6f742079657420706173736564474d543a207472616e7366657220616d6f756e74206578636565647320616c6c6f77616e6365474d543a207472616e736665722066726f6d20746865207a65726f2061646472657373474d543a20617070726f76652066726f6d20746865207a65726f2061646472657373474d543a207472616e7366657220616d6f756e7420657863656564732062616c616e6365474d543a207472616e7366657220746f20746865207a65726f2061646472657373a26469706673582212202dd2ff8376e5fc836b9dfcea84de16363be57d5491c69860769dd74725d2102164736f6c634300060c0033","linkReferences":{}},"methodIdentifiers":{"addAdmin(address)":"70480275","addBlockedRecipient(address)":"b9952455","addMsgSender(address)":"08ebd96a","admins(address)":"429b62e5","allowance(address,address)":"dd62ed3e","allowances(address,address)":"55b6ed5c","allowedMsgSenders(address)":"01d060b0","approve(address,uint256)":"095ea7b3","balanceOf(address)":"70a08231","balances(address)":"27e235e3","beginMigration()":"fe0194f2","blockedRecipients(address)":"205b10a0","decimals()":"313ce567","endMigration()":"6c525d04","gov()":"12d43a51","hasActiveMigration()":"8fb998e1","migrationTime()":"ff61a51c","name()":"06fdde03","removeAdmin(address)":"1785f53c","removeBlockedRecipient(address)":"5ec080fc","removeMsgSender(address)":"4d9567ee","setGov(address)":"cfad57a2","setNextMigrationTime(uint256)":"a92c6fae","symbol()":"95d89b41","totalSupply()":"18160ddd","transfer(address,uint256)":"a9059cbb","transferFrom(address,address,uint256)":"23b872dd","withdrawToken(address,address,uint256)":"01e33667"},"id":105}