{"abi":[{"type":"function","name":"collect","inputs":[{"name":"params","type":"tuple","internalType":"struct UniNftManager.CollectParams","components":[{"name":"tokenId","type":"uint256","internalType":"uint256"},{"name":"recipient","type":"address","internalType":"address"},{"name":"amount0Max","type":"uint128","internalType":"uint128"},{"name":"amount1Max","type":"uint128","internalType":"uint128"}]}],"outputs":[{"name":"amount0","type":"uint256","internalType":"uint256"},{"name":"amount1","type":"uint256","internalType":"uint256"}],"stateMutability":"nonpayable"},{"type":"function","name":"ownerOf","inputs":[{"name":"tokenId","type":"uint256","internalType":"uint256"}],"outputs":[{"name":"","type":"address","internalType":"address"}],"stateMutability":"view"},{"type":"function","name":"positions","inputs":[{"name":"","type":"uint256","internalType":"uint256"}],"outputs":[{"name":"nonce","type":"uint96","internalType":"uint96"},{"name":"operator","type":"address","internalType":"address"},{"name":"token0","type":"address","internalType":"address"},{"name":"token1","type":"address","internalType":"address"},{"name":"fee","type":"uint24","internalType":"uint24"},{"name":"tickLower","type":"int24","internalType":"int24"},{"name":"tickUpper","type":"int24","internalType":"int24"},{"name":"liquidity","type":"uint128","internalType":"uint128"},{"name":"feeGrowthInside0LastX128","type":"uint256","internalType":"uint256"},{"name":"feeGrowthInside1LastX128","type":"uint256","internalType":"uint256"},{"name":"tokensOwed0","type":"uint128","internalType":"uint128"},{"name":"tokensOwed1","type":"uint128","internalType":"uint128"}],"stateMutability":"pure"}],"bytecode":{"object":"0x608060405234801561001057600080fd5b50610228806100206000396000f3fe608060405234801561001057600080fd5b50600436106100415760003560e01c80636352211e1461004657806399fbab881461006f578063fc6f78651461009a575b600080fd5b6100596100543660046100fc565b6100bb565b6040516100669190610131565b60405180910390f35b61008261007d3660046100fc565b6100c1565b6040516100669c9b9a99989796959493929190610153565b6100ad6100a83660046100e5565b6100dd565b604051610066929190610145565b50600090565b6000808080808080808080808091939597999b5091939597999b565b600080915091565b6000608082840312156100f6578081fd5b50919050565b60006020828403121561010d578081fd5b5035919050565b60020b9052565b6fffffffffffffffffffffffffffffffff169052565b6001600160a01b0391909116815260200190565b918252602082015260400190565b6bffffffffffffffffffffffff8d1681526001600160a01b038c811660208301528b811660408301528a16606082015262ffffff89166080820152600288900b60a082015261018081016101aa60c0830189610114565b6101b760e083018861011b565b85610100830152846101208301526101d361014083018561011b565b6101e161016083018461011b565b9d9c5050505050505050505050505056fea26469706673582212205514a6090d13af644a91f73cdfd272b856185d523fc077527a2ba3347f88666464736f6c634300060c0033","linkReferences":{}},"methodIdentifiers":{"collect((uint256,address,uint128,uint128))":"fc6f7865","ownerOf(uint256)":"6352211e","positions(uint256)":"99fbab88"},"id":79}