{"abi":[{"type":"receive","stateMutability":"payable"},{"type":"function","name":"acceptTransfer","inputs":[{"name":"_sender","type":"address","internalType":"address"}],"outputs":[],"stateMutability":"nonpayable"},{"type":"function","name":"batchCompoundForAccounts","inputs":[{"name":"_accounts","type":"address[]","internalType":"address[]"}],"outputs":[],"stateMutability":"nonpayable"},{"type":"function","name":"batchStakeGmxForAccount","inputs":[{"name":"_accounts","type":"address[]","internalType":"address[]"},{"name":"_amounts","type":"uint256[]","internalType":"uint256[]"}],"outputs":[],"stateMutability":"nonpayable"},{"type":"function","name":"bnGmx","inputs":[],"outputs":[{"name":"","type":"address","internalType":"address"}],"stateMutability":"view"},{"type":"function","name":"bonusGmxTracker","inputs":[],"outputs":[{"name":"","type":"address","internalType":"address"}],"stateMutability":"view"},{"type":"function","name":"claim","inputs":[],"outputs":[],"stateMutability":"nonpayable"},{"type":"function","name":"claimEsGmx","inputs":[],"outputs":[],"stateMutability":"nonpayable"},{"type":"function","name":"claimFees","inputs":[],"outputs":[],"stateMutability":"nonpayable"},{"type":"function","name":"compound","inputs":[],"outputs":[],"stateMutability":"nonpayable"},{"type":"function","name":"compoundForAccount","inputs":[{"name":"_account","type":"address","internalType":"address"}],"outputs":[],"stateMutability":"nonpayable"},{"type":"function","name":"esGmx","inputs":[],"outputs":[{"name":"","type":"address","internalType":"address"}],"stateMutability":"view"},{"type":"function","name":"feeGlpTracker","inputs":[],"outputs":[{"name":"","type":"address","internalType":"address"}],"stateMutability":"view"},{"type":"function","name":"feeGmxTracker","inputs":[],"outputs":[{"name":"","type":"address","internalType":"address"}],"stateMutability":"view"},{"type":"function","name":"glp","inputs":[],"outputs":[{"name":"","type":"address","internalType":"address"}],"stateMutability":"view"},{"type":"function","name":"glpManager","inputs":[],"outputs":[{"name":"","type":"address","internalType":"address"}],"stateMutability":"view"},{"type":"function","name":"glpVester","inputs":[],"outputs":[{"name":"","type":"address","internalType":"address"}],"stateMutability":"view"},{"type":"function","name":"gmx","inputs":[],"outputs":[{"name":"","type":"address","internalType":"address"}],"stateMutability":"view"},{"type":"function","name":"gmxVester","inputs":[],"outputs":[{"name":"","type":"address","internalType":"address"}],"stateMutability":"view"},{"type":"function","name":"gov","inputs":[],"outputs":[{"name":"","type":"address","internalType":"address"}],"stateMutability":"view"},{"type":"function","name":"handleRewards","inputs":[{"name":"_shouldClaimGmx","type":"bool","internalType":"bool"},{"name":"_shouldStakeGmx","type":"bool","internalType":"bool"},{"name":"_shouldClaimEsGmx","type":"bool","internalType":"bool"},{"name":"_shouldStakeEsGmx","type":"bool","internalType":"bool"},{"name":"_shouldStakeMultiplierPoints","type":"bool","internalType":"bool"},{"name":"_shouldClaimWeth","type":"bool","internalType":"bool"},{"name":"_shouldConvertWethToEth","type":"bool","internalType":"bool"}],"outputs":[],"stateMutability":"nonpayable"},{"type":"function","name":"initialize","inputs":[{"name":"_weth","type":"address","internalType":"address"},{"name":"_gmx","type":"address","internalType":"address"},{"name":"_esGmx","type":"address","internalType":"address"},{"name":"_bnGmx","type":"address","internalType":"address"},{"name":"_glp","type":"address","internalType":"address"},{"name":"_stakedGmxTracker","type":"address","internalType":"address"},{"name":"_bonusGmxTracker","type":"address","internalType":"address"},{"name":"_feeGmxTracker","type":"address","internalType":"address"},{"name":"_feeGlpTracker","type":"address","internalType":"address"},{"name":"_stakedGlpTracker","type":"address","internalType":"address"},{"name":"_glpManager","type":"address","internalType":"address"},{"name":"_gmxVester","type":"address","internalType":"address"},{"name":"_glpVester","type":"address","internalType":"address"}],"outputs":[],"stateMutability":"nonpayable"},{"type":"function","name":"isInitialized","inputs":[],"outputs":[{"name":"","type":"bool","internalType":"bool"}],"stateMutability":"view"},{"type":"function","name":"mintAndStakeGlp","inputs":[{"name":"_token","type":"address","internalType":"address"},{"name":"_amount","type":"uint256","internalType":"uint256"},{"name":"_minUsdg","type":"uint256","internalType":"uint256"},{"name":"_minGlp","type":"uint256","internalType":"uint256"}],"outputs":[{"name":"","type":"uint256","internalType":"uint256"}],"stateMutability":"nonpayable"},{"type":"function","name":"mintAndStakeGlpETH","inputs":[{"name":"_minUsdg","type":"uint256","internalType":"uint256"},{"name":"_minGlp","type":"uint256","internalType":"uint256"}],"outputs":[{"name":"","type":"uint256","internalType":"uint256"}],"stateMutability":"payable"},{"type":"function","name":"pendingReceivers","inputs":[{"name":"","type":"address","internalType":"address"}],"outputs":[{"name":"","type":"address","internalType":"address"}],"stateMutability":"view"},{"type":"function","name":"setGov","inputs":[{"name":"_gov","type":"address","internalType":"address"}],"outputs":[],"stateMutability":"nonpayable"},{"type":"function","name":"signalTransfer","inputs":[{"name":"_receiver","type":"address","internalType":"address"}],"outputs":[],"stateMutability":"nonpayable"},{"type":"function","name":"stakeEsGmx","inputs":[{"name":"_amount","type":"uint256","internalType":"uint256"}],"outputs":[],"stateMutability":"nonpayable"},{"type":"function","name":"stakeGmx","inputs":[{"name":"_amount","type":"uint256","internalType":"uint256"}],"outputs":[],"stateMutability":"nonpayable"},{"type":"function","name":"stakeGmxForAccount","inputs":[{"name":"_account","type":"address","internalType":"address"},{"name":"_amount","type":"uint256","internalType":"uint256"}],"outputs":[],"stateMutability":"nonpayable"},{"type":"function","name":"stakedGlpTracker","inputs":[],"outputs":[{"name":"","type":"address","internalType":"address"}],"stateMutability":"view"},{"type":"function","name":"stakedGmxTracker","inputs":[],"outputs":[{"name":"","type":"address","internalType":"address"}],"stateMutability":"view"},{"type":"function","name":"unstakeAndRedeemGlp","inputs":[{"name":"_tokenOut","type":"address","internalType":"address"},{"name":"_glpAmount","type":"uint256","internalType":"uint256"},{"name":"_minOut","type":"uint256","internalType":"uint256"},{"name":"_receiver","type":"address","internalType":"address"}],"outputs":[{"name":"","type":"uint256","internalType":"uint256"}],"stateMutability":"nonpayable"},{"type":"function","name":"unstakeAndRedeemGlpETH","inputs":[{"name":"_glpAmount","type":"uint256","internalType":"uint256"},{"name":"_minOut","type":"uint256","internalType":"uint256"},{"name":"_receiver","type":"address","internalType":"address payable"}],"outputs":[{"name":"","type":"uint256","internalType":"uint256"}],"stateMutability":"nonpayable"},{"type":"function","name":"unstakeEsGmx","inputs":[{"name":"_amount","type":"uint256","internalType":"uint256"}],"outputs":[],"stateMutability":"nonpayable"},{"type":"function","name":"unstakeGmx","inputs":[{"name":"_amount","type":"uint256","internalType":"uint256"}],"outputs":[],"stateMutability":"nonpayable"},{"type":"function","name":"weth","inputs":[],"outputs":[{"name":"","type":"address","internalType":"address"}],"stateMutability":"view"},{"type":"function","name":"withdrawToken","inputs":[{"name":"_token","type":"address","internalType":"address"},{"name":"_account","type":"address","internalType":"address"},{"name":"_amount","type":"uint256","internalType":"uint256"}],"outputs":[],"stateMutability":"nonpayable"},{"type":"event","name":"StakeGlp","inputs":[{"name":"account","type":"address","indexed":false,"internalType":"address"},{"name":"amount","type":"uint256","indexed":false,"internalType":"uint256"}],"anonymous":false},{"type":"event","name":"StakeGmx","inputs":[{"name":"account","type":"address","indexed":false,"internalType":"address"},{"name":"token","type":"address","indexed":false,"internalType":"address"},{"name":"amount","type":"uint256","indexed":false,"internalType":"uint256"}],"anonymous":false},{"type":"event","name":"UnstakeGlp","inputs":[{"name":"account","type":"address","indexed":false,"internalType":"address"},{"name":"amount","type":"uint256","indexed":false,"internalType":"uint256"}],"anonymous":false},{"type":"event","name":"UnstakeGmx","inputs":[{"name":"account","type":"address","indexed":false,"internalType":"address"},{"name":"token","type":"address","indexed":false,"internalType":"address"},{"name":"amount","type":"uint256","indexed":false,"internalType":"uint256"}],"anonymous":false}],"bytecode":{"object":"0x608060405234801561001057600080fd5b506001600081905580546001600160a01b03191633179055615441806100376000396000f3fe6080604052600436106102295760003560e01c806353a8aa0311610123578063cfad57a2116100ab578063ef8c59941161006f578063ef8c599414610999578063ef9aacfd146109c3578063f3daeacc146109f6578063f69e204614610a20578063fa6db1bc14610a3557610288565b8063cfad57a2146108f4578063d294f09314610927578063e102f5641461093c578063e1b9db8914610951578063e1c363b71461098457610288565b8063655603a4116100f2578063655603a4146108435780636a192a781461087657806378a207ee1461088b578063abb5e5e2146108a0578063af394d00146108df57610288565b806353a8aa03146107a85780635da4b8dd146107cb5780635fe3945f1461080457806364f644671461081957610288565b80632fdd983d116101b1578063392e53cd11610175578063392e53cd1461072b5780633fc8cef31461075457806341d315b4146107695780634e71d92d1461077e57806351c3e3b41461079357610288565b80632fdd983d146105c557806330b700021461066057806331e67c71146106bc578063364e2311146106d15780633671df251461071657610288565b80630f3aa554116101f85780630f3aa5541461045f57806312d43a51146104b85780631af276a6146104cd5780631fcd60e51461057d5780632a9f40831461059257610288565b806301e336671461028d578063078580d2146102d05780630ce4018a146102fa5780630db79e521461032b57610288565b36610288576002546001600160a01b03163314610286576040805162461bcd60e51b81526020600482015260166024820152752937baba32b91d1034b73b30b634b21039b2b73232b960511b604482015290519081900360640190fd5b005b600080fd5b34801561029957600080fd5b50610286600480360360608110156102b057600080fd5b506001600160a01b03813581169160208101359091169060400135610a4a565b3480156102dc57600080fd5b50610286600480360360208110156102f357600080fd5b5035610ab0565b34801561030657600080fd5b5061030f610b1d565b604080516001600160a01b039092168252519081900360200190f35b34801561033757600080fd5b506102866004803603604081101561034e57600080fd5b81019060208101813564010000000081111561036957600080fd5b82018360208201111561037b57600080fd5b8035906020019184602083028401116401000000008311171561039d57600080fd5b91908080602002602001604051908101604052809392919081815260200183836020028082843760009201919091525092959493602081019350359150506401000000008111156103ed57600080fd5b8201836020820111156103ff57600080fd5b8035906020019184602083028401116401000000008311171561042157600080fd5b919080806020026020016040519081016040528093929190818152602001838360200280828437600092019190915250929550610b2c945050505050565b34801561046b57600080fd5b506104a66004803603608081101561048257600080fd5b506001600160a01b0381358116916020810135916040820135916060013516610c21565b60408051918252519081900360200190f35b3480156104c457600080fd5b5061030f610eb5565b3480156104d957600080fd5b50610286600480360360208110156104f057600080fd5b81019060208101813564010000000081111561050b57600080fd5b82018360208201111561051d57600080fd5b8035906020019184602083028401116401000000008311171561053f57600080fd5b919080806020026020016040519081016040528093929190818152602001838360200280828437600092019190915250929550610ec4945050505050565b34801561058957600080fd5b5061030f610f95565b34801561059e57600080fd5b50610286600480360360208110156105b557600080fd5b50356001600160a01b0316610fa4565b3480156105d157600080fd5b5061028660048036036101a08110156105e957600080fd5b506001600160a01b038135811691602081013582169160408201358116916060810135821691608082013581169160a081013582169160c082013581169160e08101358216916101008201358116916101208101358216916101408201358116916101608101358216916101809091013516611045565b34801561066c57600080fd5b50610286600480360360e081101561068357600080fd5b508035151590602081013515159060408101351515906060810135151590608081013515159060a081013515159060c0013515156111d2565b3480156106c857600080fd5b5061030f611894565b3480156106dd57600080fd5b506104a6600480360360808110156106f457600080fd5b506001600160a01b0381351690602081013590604081013590606001356118a3565b34801561072257600080fd5b5061030f611b35565b34801561073757600080fd5b50610740611b44565b604080519115158252519081900360200190f35b34801561076057600080fd5b5061030f611b54565b34801561077557600080fd5b5061030f611b63565b34801561078a57600080fd5b50610286611b72565b34801561079f57600080fd5b5061030f611dd1565b6104a6600480360360408110156107be57600080fd5b5080359060200135611de0565b3480156107d757600080fd5b50610286600480360360408110156107ee57600080fd5b506001600160a01b03813516906020013561215d565b34801561081057600080fd5b5061028661220f565b34801561082557600080fd5b506102866004803603602081101561083c57600080fd5b50356122b4565b34801561084f57600080fd5b506102866004803603602081101561086657600080fd5b50356001600160a01b0316612319565b34801561088257600080fd5b5061030f612d22565b34801561089757600080fd5b5061030f612d31565b3480156108ac57600080fd5b506104a6600480360360608110156108c357600080fd5b50803590602081013590604001356001600160a01b0316612d40565b3480156108eb57600080fd5b5061030f61304d565b34801561090057600080fd5b506102866004803603602081101561091757600080fd5b50356001600160a01b031661305c565b34801561093357600080fd5b506102866130cb565b34801561094857600080fd5b5061030f6131f2565b34801561095d57600080fd5b5061030f6004803603602081101561097457600080fd5b50356001600160a01b0316613201565b34801561099057600080fd5b5061030f61321c565b3480156109a557600080fd5b50610286600480360360208110156109bc57600080fd5b503561322b565b3480156109cf57600080fd5b50610286600480360360208110156109e657600080fd5b50356001600160a01b0316613290565b348015610a0257600080fd5b5061028660048036036020811015610a1957600080fd5b503561347e565b348015610a2c57600080fd5b506102866134e3565b348015610a4157600080fd5b5061030f61353e565b6001546001600160a01b03163314610a97576040805162461bcd60e51b8152602060048201526015602482015260008051602061506e833981519152604482015290519081900360640190fd5b610aab6001600160a01b038416838361354d565b505050565b60026000541415610af6576040805162461bcd60e51b815260206004820152601f6024820152600080516020615028833981519152604482015290519081900360640190fd5b6002600055600354610b159033906001600160a01b031683600161359f565b506001600055565b6007546001600160a01b031681565b60026000541415610b72576040805162461bcd60e51b815260206004820152601f6024820152600080516020615028833981519152604482015290519081900360640190fd5b60026000556001546001600160a01b03163314610bc4576040805162461bcd60e51b8152602060048201526015602482015260008051602061506e833981519152604482015290519081900360640190fd5b6003546001600160a01b031660005b8351811015610c1657610c0e33858381518110610bec57fe5b602002602001015184868581518110610c0157fe5b6020026020010151613af3565b600101610bd3565b505060016000555050565b600060026000541415610c69576040805162461bcd60e51b815260206004820152601f6024820152600080516020615028833981519152604482015290519081900360640190fd5b600260005583610cc0576040805162461bcd60e51b815260206004820181905260248201527f526577617264526f757465723a20696e76616c6964205f676c70416d6f756e74604482015290519081900360640190fd5b600a54600b546040805163098bf59d60e01b815233600482018190526001600160a01b039384166024830152604482018990526064820181905291519193929092169163098bf59d91608480830192600092919082900301818387803b158015610d2957600080fd5b505af1158015610d3d573d6000803e3d6000fd5b5050600b546006546040805163098bf59d60e01b81526001600160a01b03878116600483018190529381166024830152604482018c90526064820193909352905191909216935063098bf59d9250608480830192600092919082900301818387803b158015610dab57600080fd5b505af1158015610dbf573d6000803e3d6000fd5b5050600c54604080516371d597ad60e01b81526001600160a01b0386811660048301528b81166024830152604482018b9052606482018a905288811660848301529151600095509190921692506371d597ad9160a48082019260209290919082900301818787803b158015610e3357600080fd5b505af1158015610e47573d6000803e3d6000fd5b505050506040513d6020811015610e5d57600080fd5b5051604080516001600160a01b03851681526020810189905281519293507f1cb6202519b6b6c72ba5ed11e2c3f53af3cea010f96bfc705584e53e75cf034c929081900390910190a160016000559695505050505050565b6001546001600160a01b031681565b60026000541415610f0a576040805162461bcd60e51b815260206004820152601f6024820152600080516020615028833981519152604482015290519081900360640190fd5b60026000556001546001600160a01b03163314610f5c576040805162461bcd60e51b8152602060048201526015602482015260008051602061506e833981519152604482015290519081900360640190fd5b60005b8151811015610f8c57610f84828281518110610f7757fe5b6020026020010151613d14565b600101610f5f565b50506001600055565b6008546001600160a01b031681565b60026000541415610fea576040805162461bcd60e51b815260206004820152601f6024820152600080516020615028833981519152604482015290519081900360640190fd5b60026000556001546001600160a01b0316331461103c576040805162461bcd60e51b8152602060048201526015602482015260008051602061506e833981519152604482015290519081900360640190fd5b610b1581613d14565b6001546001600160a01b03163314611092576040805162461bcd60e51b8152602060048201526015602482015260008051602061506e833981519152604482015290519081900360640190fd5b600154600160a01b900460ff16156110db5760405162461bcd60e51b81526004018080602001828103825260218152602001806150ff6021913960400191505060405180910390fd5b6001805460ff60a01b1916600160a01b179055600280546001600160a01b039e8f166001600160a01b031991821617909155600380549d8f169d82169d909d17909c55600480549b8e169b8d169b909b17909a5560058054998d16998c169990991790985560068054978c16978b169790971790965560078054958b16958a169590951790945560088054938a169389169390931790925560098054918916918816919091179055600b8054918816918716919091179055600a8054918716918616919091179055600c8054918616918516919091179055600d8054918516918416919091179055600e8054919093169116179055565b60026000541415611218576040805162461bcd60e51b815260206004820152601f6024820152600080516020615028833981519152604482015290519081900360640190fd5b600260009081553390881561134457600d54604080516309f4173d60e11b81526001600160a01b03858116600483018190526024830152915160009392909216916313e82e7a9160448082019260209290919082900301818787803b15801561128057600080fd5b505af1158015611294573d6000803e3d6000fd5b505050506040513d60208110156112aa57600080fd5b5051600e54604080516309f4173d60e11b81526001600160a01b03878116600483018190526024830152915193945060009391909216916313e82e7a91604480830192602092919082900301818787803b15801561130757600080fd5b505af115801561131b573d6000803e3d6000fd5b505050506040513d602081101561133157600080fd5b5051905061133f8282613d29565b925050505b8780156113515750600081115b156113705760035461137090839081906001600160a01b031684613af3565b6000871561149557600754604080516309f4173d60e11b81526001600160a01b03868116600483018190526024830152915160009392909216916313e82e7a9160448082019260209290919082900301818787803b1580156113d157600080fd5b505af11580156113e5573d6000803e3d6000fd5b505050506040513d60208110156113fb57600080fd5b5051600a54604080516309f4173d60e11b81526001600160a01b03888116600483018190526024830152915193945060009391909216916313e82e7a91604480830192602092919082900301818787803b15801561145857600080fd5b505af115801561146c573d6000803e3d6000fd5b505050506040513d602081101561148257600080fd5b505190506114908282613d29565b925050505b8680156114a25750600081115b156114c1576004546114c190849081906001600160a01b031684613af3565b85156115d657600854604080516309f4173d60e11b81526001600160a01b03868116600483018190526024830152915160009392909216916313e82e7a9160448082019260209290919082900301818787803b15801561152057600080fd5b505af1158015611534573d6000803e3d6000fd5b505050506040513d602081101561154a57600080fd5b5051905080156115d45760095460055460408051631e42d69b60e21b81526001600160a01b038881166004830181905260248301529283166044820152606481018590529051919092169163790b5a6c91608480830192600092919082900301818387803b1580156115bb57600080fd5b505af11580156115cf573d6000803e3d6000fd5b505050505b505b841561188357831561177e57600954604080516309f4173d60e11b81526001600160a01b038681166004830152306024830152915160009392909216916313e82e7a9160448082019260209290919082900301818787803b15801561163a57600080fd5b505af115801561164e573d6000803e3d6000fd5b505050506040513d602081101561166457600080fd5b5051600b54604080516309f4173d60e11b81526001600160a01b038881166004830152306024830152915193945060009391909216916313e82e7a91604480830192602092919082900301818787803b1580156116c057600080fd5b505af11580156116d4573d6000803e3d6000fd5b505050506040513d60208110156116ea57600080fd5b5051905060006116fa8383613d29565b60025460408051632e1a7d4d60e01b81526004810184905290519293506001600160a01b0390911691632e1a7d4d9160248082019260009290919082900301818387803b15801561174a57600080fd5b505af115801561175e573d6000803e3d6000fd5b50611776925050506001600160a01b03871682613d8c565b505050611883565b600954604080516309f4173d60e11b81526001600160a01b03868116600483018190526024830152915191909216916313e82e7a9160448083019260209291908290030181600087803b1580156117d457600080fd5b505af11580156117e8573d6000803e3d6000fd5b505050506040513d60208110156117fe57600080fd5b5050600b54604080516309f4173d60e11b81526001600160a01b03868116600483018190526024830152915191909216916313e82e7a9160448083019260209291908290030181600087803b15801561185657600080fd5b505af115801561186a573d6000803e3d6000fd5b505050506040513d602081101561188057600080fd5b50505b505060016000555050505050505050565b6003546001600160a01b031681565b6000600260005414156118eb576040805162461bcd60e51b815260206004820152601f6024820152600080516020615028833981519152604482015290519081900360640190fd5b600260005583611942576040805162461bcd60e51b815260206004820152601d60248201527f526577617264526f757465723a20696e76616c6964205f616d6f756e74000000604482015290519081900360640190fd5b600c54604080516317eb2a1560e01b81523360048201819052602482018190526001600160a01b038981166044840152606483018990526084830188905260a483018790529251909360009316916317eb2a159160c480830192602092919082900301818787803b1580156119b657600080fd5b505af11580156119ca573d6000803e3d6000fd5b505050506040513d60208110156119e057600080fd5b5051600b5460065460408051631e42d69b60e21b81526001600160a01b03878116600483018190526024830152928316604482015260648101859052905193945091169163790b5a6c9160848082019260009290919082900301818387803b158015611a4b57600080fd5b505af1158015611a5f573d6000803e3d6000fd5b5050600a54600b5460408051631e42d69b60e21b81526001600160a01b03888116600483018190526024830152928316604482015260648101879052905191909216935063790b5a6c9250608480830192600092919082900301818387803b158015611aca57600080fd5b505af1158015611ade573d6000803e3d6000fd5b5050604080516001600160a01b03861681526020810185905281517fa4725d47fa458d9222498e4d63f34527cf7318c1506f89d9092b35fdbcb64f3a9450908190039091019150a160016000559695505050505050565b600e546001600160a01b031681565b600154600160a01b900460ff1681565b6002546001600160a01b031681565b600d546001600160a01b031681565b60026000541415611bb8576040805162461bcd60e51b815260206004820152601f6024820152600080516020615028833981519152604482015290519081900360640190fd5b60026000908155600954604080516309f4173d60e11b8152336004820181905260248201819052915191936001600160a01b03909316926313e82e7a926044808401936020939083900390910190829087803b158015611c1757600080fd5b505af1158015611c2b573d6000803e3d6000fd5b505050506040513d6020811015611c4157600080fd5b5050600b54604080516309f4173d60e11b81526001600160a01b03848116600483018190526024830152915191909216916313e82e7a9160448083019260209291908290030181600087803b158015611c9957600080fd5b505af1158015611cad573d6000803e3d6000fd5b505050506040513d6020811015611cc357600080fd5b5050600754604080516309f4173d60e11b81526001600160a01b03848116600483018190526024830152915191909216916313e82e7a9160448083019260209291908290030181600087803b158015611d1b57600080fd5b505af1158015611d2f573d6000803e3d6000fd5b505050506040513d6020811015611d4557600080fd5b5050600a54604080516309f4173d60e11b81526001600160a01b03848116600483018190526024830152915191909216916313e82e7a9160448083019260209291908290030181600087803b158015611d9d57600080fd5b505af1158015611db1573d6000803e3d6000fd5b505050506040513d6020811015611dc757600080fd5b5050600160005550565b6009546001600160a01b031681565b600060026000541415611e28576040805162461bcd60e51b815260206004820152601f6024820152600080516020615028833981519152604482015290519081900360640190fd5b600260005534611e7f576040805162461bcd60e51b815260206004820152601f60248201527f526577617264526f757465723a20696e76616c6964206d73672e76616c756500604482015290519081900360640190fd5b600260009054906101000a90046001600160a01b03166001600160a01b031663d0e30db0346040518263ffffffff1660e01b81526004016000604051808303818588803b158015611ecf57600080fd5b505af1158015611ee3573d6000803e3d6000fd5b5050600254600c546040805163095ea7b360e01b81526001600160a01b039283166004820152346024820152905191909216945063095ea7b39350604480830193506020928290030181600087803b158015611f3e57600080fd5b505af1158015611f52573d6000803e3d6000fd5b505050506040513d6020811015611f6857600080fd5b5050600c54600254604080516317eb2a1560e01b815230600482015233602482018190526001600160a01b0393841660448301523460648301526084820188905260a482018790529151919360009316916317eb2a159160c48082019260209290919082900301818787803b158015611fe057600080fd5b505af1158015611ff4573d6000803e3d6000fd5b505050506040513d602081101561200a57600080fd5b5051600b5460065460408051631e42d69b60e21b81526001600160a01b03878116600483018190526024830152928316604482015260648101859052905193945091169163790b5a6c9160848082019260009290919082900301818387803b15801561207557600080fd5b505af1158015612089573d6000803e3d6000fd5b5050600a54600b5460408051631e42d69b60e21b81526001600160a01b03888116600483018190526024830152928316604482015260648101879052905191909216935063790b5a6c9250608480830192600092919082900301818387803b1580156120f457600080fd5b505af1158015612108573d6000803e3d6000fd5b5050604080516001600160a01b03861681526020810185905281517fa4725d47fa458d9222498e4d63f34527cf7318c1506f89d9092b35fdbcb64f3a9450908190039091019150a16001600055949350505050565b600260005414156121a3576040805162461bcd60e51b815260206004820152601f6024820152600080516020615028833981519152604482015290519081900360640190fd5b60026000556001546001600160a01b031633146121f5576040805162461bcd60e51b8152602060048201526015602482015260008051602061506e833981519152604482015290519081900360640190fd5b600354610f8c90339084906001600160a01b031684613af3565b60026000541415612255576040805162461bcd60e51b815260206004820152601f6024820152600080516020615028833981519152604482015290519081900360640190fd5b60026000908155600754604080516309f4173d60e11b8152336004820181905260248201819052915191936001600160a01b03909316926313e82e7a926044808401936020939083900390910190829087803b158015611d1b57600080fd5b600260005414156122fa576040805162461bcd60e51b815260206004820152601f6024820152600080516020615028833981519152604482015290519081900360640190fd5b6002600055600454610b159033906001600160a01b031683600161359f565b6002600054141561235f576040805162461bcd60e51b815260206004820152601f6024820152600080516020615028833981519152604482015290519081900360640190fd5b6002600055600d54604080516370a0823160e01b81526001600160a01b038481166004830152915191909216916370a08231916024808301926020929190829003018186803b1580156123b157600080fd5b505afa1580156123c5573d6000803e3d6000fd5b505050506040513d60208110156123db57600080fd5b5051156124195760405162461bcd60e51b81526004018080602001828103825260268152602001806150486026913960400191505060405180910390fd5b600e54604080516370a0823160e01b81526001600160a01b038481166004830152915191909216916370a08231916024808301926020929190829003018186803b15801561246657600080fd5b505afa15801561247a573d6000803e3d6000fd5b505050506040513d602081101561249057600080fd5b5051156124ce5760405162461bcd60e51b81526004018080602001828103825260268152602001806150486026913960400191505060405180910390fd5b6001600160a01b038181166000908152600f602052604090205433911681146125285760405162461bcd60e51b81526004018080602001828103825260248152602001806151466024913960400191505060405180910390fd5b6001600160a01b0382166000908152600f6020526040902080546001600160a01b031916905561255781613e71565b61256082613d14565b60075460035460408051637aeceb1f60e11b81526001600160a01b03868116600483015292831660248201529051600093929092169163f5d9d63e91604480820192602092909190829003018186803b1580156125bc57600080fd5b505afa1580156125d0573d6000803e3d6000fd5b505050506040513d60208110156125e657600080fd5b5051905080156126245760035461260a9084906001600160a01b031683600061359f565b60035461262490849084906001600160a01b031684613af3565b6007546004805460408051637aeceb1f60e11b81526001600160a01b0388811694820194909452918316602483015251600093929092169163f5d9d63e91604480820192602092909190829003018186803b15801561268257600080fd5b505afa158015612696573d6000803e3d6000fd5b505050506040513d60208110156126ac57600080fd5b5051905080156126ea576004546126d09085906001600160a01b031683600061359f565b6004546126ea90859085906001600160a01b031684613af3565b60095460055460408051637aeceb1f60e11b81526001600160a01b03888116600483015292831660248201529051600093929092169163f5d9d63e91604480820192602092909190829003018186803b15801561274657600080fd5b505afa15801561275a573d6000803e3d6000fd5b505050506040513d602081101561277057600080fd5b50519050801561287d576009546005546040805163098bf59d60e01b81526001600160a01b038981166004830181905293811660248301526044820186905260648201939093529051919092169163098bf59d91608480830192600092919082900301818387803b1580156127e457600080fd5b505af11580156127f8573d6000803e3d6000fd5b505060095460055460408051631e42d69b60e21b81526001600160a01b038b811660048301528a81166024830152928316604482015260648101879052905191909216935063790b5a6c9250608480830192600092919082900301818387803b15801561286457600080fd5b505af1158015612878573d6000803e3d6000fd5b505050505b6000600460009054906101000a90046001600160a01b03166001600160a01b03166370a08231876040518263ffffffff1660e01b815260040180826001600160a01b0316815260200191505060206040518083038186803b1580156128e157600080fd5b505afa1580156128f5573d6000803e3d6000fd5b505050506040513d602081101561290b57600080fd5b5051905080156129a45760048054604080516323b872dd60e01b81526001600160a01b038a811694820194909452888416602482015260448101859052905192909116916323b872dd916064808201926020929091908290030181600087803b15801561297757600080fd5b505af115801561298b573d6000803e3d6000fd5b505050506040513d60208110156129a157600080fd5b50505b600b5460065460408051637aeceb1f60e11b81526001600160a01b038a8116600483015292831660248201529051600093929092169163f5d9d63e91604480820192602092909190829003018186803b158015612a0057600080fd5b505afa158015612a14573d6000803e3d6000fd5b505050506040513d6020811015612a2a57600080fd5b505190508015612c3857600a54600b546040805163098bf59d60e01b81526001600160a01b038b81166004830181905293811660248301526044820186905260648201939093529051919092169163098bf59d91608480830192600092919082900301818387803b158015612a9e57600080fd5b505af1158015612ab2573d6000803e3d6000fd5b5050600b546006546040805163098bf59d60e01b81526001600160a01b038d8116600483018190529381166024830152604482018890526064820193909352905191909216935063098bf59d9250608480830192600092919082900301818387803b158015612b2057600080fd5b505af1158015612b34573d6000803e3d6000fd5b5050600b5460065460408051631e42d69b60e21b81526001600160a01b038d811660048301528c81166024830152928316604482015260648101879052905191909216935063790b5a6c9250608480830192600092919082900301818387803b158015612ba057600080fd5b505af1158015612bb4573d6000803e3d6000fd5b5050600a54600b5460408051631e42d69b60e21b81526001600160a01b038c8116600483018190526024830152928316604482015260648101879052905191909216935063790b5a6c9250608480830192600092919082900301818387803b158015612c1f57600080fd5b505af1158015612c33573d6000803e3d6000fd5b505050505b600d5460408051630f713c2360e41b81526001600160a01b038a8116600483015289811660248301529151919092169163f713c23091604480830192600092919082900301818387803b158015612c8e57600080fd5b505af1158015612ca2573d6000803e3d6000fd5b5050600e5460408051630f713c2360e41b81526001600160a01b038c811660048301528b81166024830152915191909216935063f713c2309250604480830192600092919082900301818387803b158015612cfc57600080fd5b505af1158015612d10573d6000803e3d6000fd5b50506001600055505050505050505050565b6004546001600160a01b031681565b6006546001600160a01b031681565b600060026000541415612d88576040805162461bcd60e51b815260206004820152601f6024820152600080516020615028833981519152604482015290519081900360640190fd5b600260005583612ddf576040805162461bcd60e51b815260206004820181905260248201527f526577617264526f757465723a20696e76616c6964205f676c70416d6f756e74604482015290519081900360640190fd5b600a54600b546040805163098bf59d60e01b815233600482018190526001600160a01b039384166024830152604482018990526064820181905291519193929092169163098bf59d91608480830192600092919082900301818387803b158015612e4857600080fd5b505af1158015612e5c573d6000803e3d6000fd5b5050600b546006546040805163098bf59d60e01b81526001600160a01b03878116600483018190529381166024830152604482018c90526064820193909352905191909216935063098bf59d9250608480830192600092919082900301818387803b158015612eca57600080fd5b505af1158015612ede573d6000803e3d6000fd5b5050600c54600254604080516371d597ad60e01b81526001600160a01b0387811660048301529283166024820152604481018b9052606481018a90523060848201529051600095509190921692506371d597ad9160a48082019260209290919082900301818787803b158015612f5357600080fd5b505af1158015612f67573d6000803e3d6000fd5b505050506040513d6020811015612f7d57600080fd5b505160025460408051632e1a7d4d60e01b81526004810184905290519293506001600160a01b0390911691632e1a7d4d9160248082019260009290919082900301818387803b158015612fcf57600080fd5b505af1158015612fe3573d6000803e3d6000fd5b50612ffb925050506001600160a01b03851682613d8c565b604080516001600160a01b03841681526020810188905281517f1cb6202519b6b6c72ba5ed11e2c3f53af3cea010f96bfc705584e53e75cf034c929181900390910190a1600160005595945050505050565b600a546001600160a01b031681565b6001546001600160a01b031633146130a9576040805162461bcd60e51b8152602060048201526015602482015260008051602061506e833981519152604482015290519081900360640190fd5b600180546001600160a01b0319166001600160a01b0392909216919091179055565b60026000541415613111576040805162461bcd60e51b815260206004820152601f6024820152600080516020615028833981519152604482015290519081900360640190fd5b60026000908155600954604080516309f4173d60e11b8152336004820181905260248201819052915191936001600160a01b03909316926313e82e7a926044808401936020939083900390910190829087803b15801561317057600080fd5b505af1158015613184573d6000803e3d6000fd5b505050506040513d602081101561319a57600080fd5b5050600b54604080516309f4173d60e11b81526001600160a01b03848116600483018190526024830152915191909216916313e82e7a9160448083019260209291908290030181600087803b158015611d9d57600080fd5b6005546001600160a01b031681565b600f602052600090815260409020546001600160a01b031681565b600b546001600160a01b031681565b60026000541415613271576040805162461bcd60e51b815260206004820152601f6024820152600080516020615028833981519152604482015290519081900360640190fd5b6002600055600454610b1590339081906001600160a01b031684613af3565b600260005414156132d6576040805162461bcd60e51b815260206004820152601f6024820152600080516020615028833981519152604482015290519081900360640190fd5b6002600055600d54604080516370a0823160e01b815233600482015290516001600160a01b03909216916370a0823191602480820192602092909190829003018186803b15801561332657600080fd5b505afa15801561333a573d6000803e3d6000fd5b505050506040513d602081101561335057600080fd5b50511561338e5760405162461bcd60e51b81526004018080602001828103825260268152602001806150486026913960400191505060405180910390fd5b600e54604080516370a0823160e01b815233600482015290516001600160a01b03909216916370a0823191602480820192602092909190829003018186803b1580156133d957600080fd5b505afa1580156133ed573d6000803e3d6000fd5b505050506040513d602081101561340357600080fd5b5051156134415760405162461bcd60e51b81526004018080602001828103825260268152602001806150486026913960400191505060405180910390fd5b61344a81613e71565b336000908152600f6020526040812080546001600160a01b0319166001600160a01b03939093169290921790915560019055565b600260005414156134c4576040805162461bcd60e51b815260206004820152601f6024820152600080516020615028833981519152604482015290519081900360640190fd5b6002600055600354610b1590339081906001600160a01b031684613af3565b60026000541415613529576040805162461bcd60e51b815260206004820152601f6024820152600080516020615028833981519152604482015290519081900360640190fd5b600260005561353733613d14565b6001600055565b600c546001600160a01b031681565b604080516001600160a01b038416602482015260448082018490528251808303909101815260649091019091526020810180516001600160e01b031663a9059cbb60e01b179052610aab9084906149c1565b600082116135f4576040805162461bcd60e51b815260206004820152601d60248201527f526577617264526f757465723a20696e76616c6964205f616d6f756e74000000604482015290519081900360640190fd5b600754604080516310c1c10360e01b81526001600160a01b038781166004830152915160009392909216916310c1c10391602480820192602092909190829003018186803b15801561364557600080fd5b505afa158015613659573d6000803e3d6000fd5b505050506040513d602081101561366f57600080fd5b50516009546008546040805163098bf59d60e01b81526001600160a01b038a8116600483018190529381166024830152604482018990526064820193909352905193945091169163098bf59d9160848082019260009290919082900301818387803b1580156136dd57600080fd5b505af11580156136f1573d6000803e3d6000fd5b50506008546007546040805163098bf59d60e01b81526001600160a01b038b8116600483018190529381166024830152604482018a90526064820193909352905191909216935063098bf59d9250608480830192600092919082900301818387803b15801561375f57600080fd5b505af1158015613773573d6000803e3d6000fd5b50506007546040805163098bf59d60e01b81526001600160a01b038a8116600483018190528a82166024840152604483018a90526064830152915191909216935063098bf59d9250608480830192600092919082900301818387803b1580156137db57600080fd5b505af11580156137ef573d6000803e3d6000fd5b505050508115613aa257600854604080516309f4173d60e11b81526001600160a01b03888116600483018190526024830152915160009392909216916313e82e7a9160448082019260209290919082900301818787803b15801561385257600080fd5b505af1158015613866573d6000803e3d6000fd5b505050506040513d602081101561387c57600080fd5b5051905080156139065760095460055460408051631e42d69b60e21b81526001600160a01b038a81166004830181905260248301529283166044820152606481018590529051919092169163790b5a6c91608480830192600092919082900301818387803b1580156138ed57600080fd5b505af1158015613901573d6000803e3d6000fd5b505050505b60095460055460408051637aeceb1f60e11b81526001600160a01b038a8116600483015292831660248201529051600093929092169163f5d9d63e91604480820192602092909190829003018186803b15801561396257600080fd5b505afa158015613976573d6000803e3d6000fd5b505050506040513d602081101561398c57600080fd5b505190508015613a9f5760006139ac846139a68489614a72565b90614acb565b6009546005546040805163098bf59d60e01b81526001600160a01b038d8116600483018190529381166024830152604482018690526064820193909352905193945091169163098bf59d9160848082019260009290919082900301818387803b158015613a1857600080fd5b505af1158015613a2c573d6000803e3d6000fd5b505060055460408051632770a7eb60e21b81526001600160a01b038d81166004830152602482018790529151919092169350639dc29fac9250604480830192600092919082900301818387803b158015613a8557600080fd5b505af1158015613a99573d6000803e3d6000fd5b50505050505b50505b604080516001600160a01b0380881682528616602082015280820185905290517fce8eb393006add0768cc6cefb3ca0fc4787015ce1ac86bd800e72a79993103459181900360600190a15050505050565b60008111613b48576040805162461bcd60e51b815260206004820152601d60248201527f526577617264526f757465723a20696e76616c6964205f616d6f756e74000000604482015290519081900360640190fd5b60075460408051631e42d69b60e21b81526001600160a01b03878116600483015286811660248301528581166044830152606482018590529151919092169163790b5a6c91608480830192600092919082900301818387803b158015613bad57600080fd5b505af1158015613bc1573d6000803e3d6000fd5b505060085460075460408051631e42d69b60e21b81526001600160a01b03898116600483018190526024830152928316604482015260648101879052905191909216935063790b5a6c9250608480830192600092919082900301818387803b158015613c2c57600080fd5b505af1158015613c40573d6000803e3d6000fd5b505060095460085460408051631e42d69b60e21b81526001600160a01b03898116600483018190526024830152928316604482015260648101879052905191909216935063790b5a6c9250608480830192600092919082900301818387803b158015613cab57600080fd5b505af1158015613cbf573d6000803e3d6000fd5b5050604080516001600160a01b0380881682528616602082015280820185905290517fad0723806aa1e5a8fb826fc9f0c5b589e585a6b60dc768a1b20691c95062d2d69350908190036060019150a150505050565b613d1d81614b0d565b613d2681614cc5565b50565b600082820183811015613d83576040805162461bcd60e51b815260206004820152601b60248201527f536166654d6174683a206164646974696f6e206f766572666c6f770000000000604482015290519081900360640190fd5b90505b92915050565b80471015613de1576040805162461bcd60e51b815260206004820152601d60248201527f416464726573733a20696e73756666696369656e742062616c616e6365000000604482015290519081900360640190fd5b6040516000906001600160a01b0384169083908381818185875af1925050503d8060008114613e2c576040519150601f19603f3d011682016040523d82523d6000602084013e613e31565b606091505b5050905080610aab5760405162461bcd60e51b815260040180806020018281038252603a8152602001806150c5603a913960400191505060405180910390fd5b6007546040805163a318021760e01b81526001600160a01b0384811660048301529151919092169163a3180217916024808301926020929190829003018186803b158015613ebe57600080fd5b505afa158015613ed2573d6000803e3d6000fd5b505050506040513d6020811015613ee857600080fd5b505115613f265760405162461bcd60e51b815260040180806020018281038252603781526020018061508e6037913960400191505060405180910390fd5b60075460408051633792def360e01b81526001600160a01b03848116600483015291519190921691633792def3916024808301926020929190829003018186803b158015613f7357600080fd5b505afa158015613f87573d6000803e3d6000fd5b505050506040513d6020811015613f9d57600080fd5b505115613fdb5760405162461bcd60e51b81526004018080602001828103825260348152602001806152666034913960400191505060405180910390fd5b6008546040805163a318021760e01b81526001600160a01b0384811660048301529151919092169163a3180217916024808301926020929190829003018186803b15801561402857600080fd5b505afa15801561403c573d6000803e3d6000fd5b505050506040513d602081101561405257600080fd5b5051156140905760405162461bcd60e51b81526004018080602001828103825260368152602001806151fd6036913960400191505060405180910390fd5b60085460408051633792def360e01b81526001600160a01b03848116600483015291519190921691633792def3916024808301926020929190829003018186803b1580156140dd57600080fd5b505afa1580156140f1573d6000803e3d6000fd5b505050506040513d602081101561410757600080fd5b5051156141455760405162461bcd60e51b81526004018080602001828103825260338152602001806152336033913960400191505060405180910390fd5b6009546040805163a318021760e01b81526001600160a01b0384811660048301529151919092169163a3180217916024808301926020929190829003018186803b15801561419257600080fd5b505afa1580156141a6573d6000803e3d6000fd5b505050506040513d60208110156141bc57600080fd5b5051156141fa5760405162461bcd60e51b815260040180806020018281038252603481526020018061529a6034913960400191505060405180910390fd5b60095460408051633792def360e01b81526001600160a01b03848116600483015291519190921691633792def3916024808301926020929190829003018186803b15801561424757600080fd5b505afa15801561425b573d6000803e3d6000fd5b505050506040513d602081101561427157600080fd5b5051156142af5760405162461bcd60e51b81526004018080602001828103825260318152602001806153026031913960400191505060405180910390fd5b600d5460408051631ccdc0d760e21b81526001600160a01b03848116600483015291519190921691637337035c916024808301926020929190829003018186803b1580156142fc57600080fd5b505afa158015614310573d6000803e3d6000fd5b505050506040513d602081101561432657600080fd5b5051156143645760405162461bcd60e51b815260040180806020018281038252603b8152602001806151c2603b913960400191505060405180910390fd5b600d5460408051635b8de71560e11b81526001600160a01b0384811660048301529151919092169163b71bce2a916024808301926020929190829003018186803b1580156143b157600080fd5b505afa1580156143c5573d6000803e3d6000fd5b505050506040513d60208110156143db57600080fd5b5051156144195760405162461bcd60e51b815260040180806020018281038252603881526020018061535d6038913960400191505060405180910390fd5b600a546040805163a318021760e01b81526001600160a01b0384811660048301529151919092169163a3180217916024808301926020929190829003018186803b15801561446657600080fd5b505afa15801561447a573d6000803e3d6000fd5b505050506040513d602081101561449057600080fd5b5051156144ce5760405162461bcd60e51b815260040180806020018281038252603781526020018061516a6037913960400191505060405180910390fd5b600a5460408051633792def360e01b81526001600160a01b03848116600483015291519190921691633792def3916024808301926020929190829003018186803b15801561451b57600080fd5b505afa15801561452f573d6000803e3d6000fd5b505050506040513d602081101561454557600080fd5b5051156145835760405162461bcd60e51b8152600401808060200182810382526034815260200180614ff46034913960400191505060405180910390fd5b600b546040805163a318021760e01b81526001600160a01b0384811660048301529151919092169163a3180217916024808301926020929190829003018186803b1580156145d057600080fd5b505afa1580156145e4573d6000803e3d6000fd5b505050506040513d60208110156145fa57600080fd5b5051156146385760405162461bcd60e51b81526004018080602001828103825260348152602001806152ce6034913960400191505060405180910390fd5b600b5460408051633792def360e01b81526001600160a01b03848116600483015291519190921691633792def3916024808301926020929190829003018186803b15801561468557600080fd5b505afa158015614699573d6000803e3d6000fd5b505050506040513d60208110156146af57600080fd5b5051156146ed5760405162461bcd60e51b81526004018080602001828103825260318152602001806153db6031913960400191505060405180910390fd5b600e5460408051631ccdc0d760e21b81526001600160a01b03848116600483015291519190921691637337035c916024808301926020929190829003018186803b15801561473a57600080fd5b505afa15801561474e573d6000803e3d6000fd5b505050506040513d602081101561476457600080fd5b5051156147a25760405162461bcd60e51b815260040180806020018281038252603b8152602001806151c2603b913960400191505060405180910390fd5b600e5460408051635b8de71560e11b81526001600160a01b0384811660048301529151919092169163b71bce2a916024808301926020929190829003018186803b1580156147ef57600080fd5b505afa158015614803573d6000803e3d6000fd5b505050506040513d602081101561481957600080fd5b5051156148575760405162461bcd60e51b815260040180806020018281038252603881526020018061535d6038913960400191505060405180910390fd5b600d54604080516370a0823160e01b81526001600160a01b038481166004830152915191909216916370a08231916024808301926020929190829003018186803b1580156148a457600080fd5b505afa1580156148b8573d6000803e3d6000fd5b505050506040513d60208110156148ce57600080fd5b50511561490c5760405162461bcd60e51b81526004018080602001828103825260238152602001806153b86023913960400191505060405180910390fd5b600e54604080516370a0823160e01b81526001600160a01b038481166004830152915191909216916370a08231916024808301926020929190829003018186803b15801561495957600080fd5b505afa15801561496d573d6000803e3d6000fd5b505050506040513d602081101561498357600080fd5b505115613d265760405162461bcd60e51b81526004018080602001828103825260238152602001806153956023913960400191505060405180910390fd5b6060614a16826040518060400160405280602081526020017f5361666545524332303a206c6f772d6c6576656c2063616c6c206661696c6564815250856001600160a01b0316614d709092919063ffffffff16565b805190915015610aab57808060200190516020811015614a3557600080fd5b5051610aab5760405162461bcd60e51b815260040180806020018281038252602a815260200180615333602a913960400191505060405180910390fd5b600082614a8157506000613d86565b82820282848281614a8e57fe5b0414613d835760405162461bcd60e51b81526004018080602001828103825260218152602001806151a16021913960400191505060405180910390fd5b6000613d8383836040518060400160405280601a81526020017f536166654d6174683a206469766973696f6e206279207a65726f000000000000815250614d89565b600754604080516309f4173d60e11b81526001600160a01b03848116600483018190526024830152915160009392909216916313e82e7a9160448082019260209290919082900301818787803b158015614b6657600080fd5b505af1158015614b7a573d6000803e3d6000fd5b505050506040513d6020811015614b9057600080fd5b505190508015614bb457600454614bb490839081906001600160a01b031684613af3565b600854604080516309f4173d60e11b81526001600160a01b03858116600483018190526024830152915160009392909216916313e82e7a9160448082019260209290919082900301818787803b158015614c0d57600080fd5b505af1158015614c21573d6000803e3d6000fd5b505050506040513d6020811015614c3757600080fd5b505190508015610aab5760095460055460408051631e42d69b60e21b81526001600160a01b038781166004830181905260248301529283166044820152606481018590529051919092169163790b5a6c91608480830192600092919082900301818387803b158015614ca857600080fd5b505af1158015614cbc573d6000803e3d6000fd5b50505050505050565b600a54604080516309f4173d60e11b81526001600160a01b03848116600483018190526024830152915160009392909216916313e82e7a9160448082019260209290919082900301818787803b158015614d1e57600080fd5b505af1158015614d32573d6000803e3d6000fd5b505050506040513d6020811015614d4857600080fd5b505190508015614d6c57600454614d6c90839081906001600160a01b031684613af3565b5050565b6060614d7f8484600085614e2b565b90505b9392505050565b60008183614e155760405162461bcd60e51b81526004018080602001828103825283818151815260200191508051906020019080838360005b83811015614dda578181015183820152602001614dc2565b50505050905090810190601f168015614e075780820380516001836020036101000a031916815260200191505b509250505060405180910390fd5b506000838581614e2157fe5b0495945050505050565b606082471015614e6c5760405162461bcd60e51b81526004018080602001828103825260268152602001806151206026913960400191505060405180910390fd5b614e7585614f87565b614ec6576040805162461bcd60e51b815260206004820152601d60248201527f416464726573733a2063616c6c20746f206e6f6e2d636f6e7472616374000000604482015290519081900360640190fd5b60006060866001600160a01b031685876040518082805190602001908083835b60208310614f055780518252601f199092019160209182019101614ee6565b6001836020036101000a03801982511681845116808217855250505050505090500191505060006040518083038185875af1925050503d8060008114614f67576040519150601f19603f3d011682016040523d82523d6000602084013e614f6c565b606091505b5091509150614f7c828286614f8d565b979650505050505050565b3b151590565b60608315614f9c575081614d82565b825115614fac5782518084602001fd5b60405162461bcd60e51b8152602060048201818152845160248401528451859391928392604401919085019080838360008315614dda578181015183820152602001614dc256fe526577617264526f757465723a207374616b6564476c70547261636b65722e63756d756c617469766552657761726473203e20305265656e7472616e637947756172643a207265656e7472616e742063616c6c00526577617264526f757465723a2073656e646572206861732076657374656420746f6b656e73476f7665726e61626c653a20666f7262696464656e0000000000000000000000526577617264526f757465723a207374616b6564476d78547261636b65722e617665726167655374616b6564416d6f756e7473203e2030416464726573733a20756e61626c6520746f2073656e642076616c75652c20726563697069656e74206d61792068617665207265766572746564526577617264526f757465723a20616c726561647920696e697469616c697a6564416464726573733a20696e73756666696369656e742062616c616e636520666f722063616c6c526577617264526f757465723a207472616e73666572206e6f74207369676e616c6c6564526577617264526f757465723a207374616b6564476c70547261636b65722e617665726167655374616b6564416d6f756e7473203e2030536166654d6174683a206d756c7469706c69636174696f6e206f766572666c6f77526577617264526f757465723a20676d785665737465722e7472616e73666572726564417665726167655374616b6564416d6f756e7473203e2030526577617264526f757465723a20626f6e7573476d78547261636b65722e617665726167655374616b6564416d6f756e7473203e2030526577617264526f757465723a20626f6e7573476d78547261636b65722e63756d756c617469766552657761726473203e2030526577617264526f757465723a207374616b6564476d78547261636b65722e63756d756c617469766552657761726473203e2030526577617264526f757465723a20666565476d78547261636b65722e617665726167655374616b6564416d6f756e7473203e2030526577617264526f757465723a20666565476c70547261636b65722e617665726167655374616b6564416d6f756e7473203e2030526577617264526f757465723a20666565476d78547261636b65722e63756d756c617469766552657761726473203e20305361666545524332303a204552433230206f7065726174696f6e20646964206e6f742073756363656564526577617264526f757465723a20676d785665737465722e7472616e7366657272656443756d756c617469766552657761726473203e2030526577617264526f757465723a20676c705665737465722e62616c616e6365203e2030526577617264526f757465723a20676d785665737465722e62616c616e6365203e2030526577617264526f757465723a20666565476c70547261636b65722e63756d756c617469766552657761726473203e2030a2646970667358221220423b3f2c283cd69bd417e60ec4d35d16c3e32124e3311297f1b55cb0c736e78264736f6c634300060c0033","linkReferences":{}},"methodIdentifiers":{"acceptTransfer(address)":"655603a4","batchCompoundForAccounts(address[])":"1af276a6","batchStakeGmxForAccount(address[],uint256[])":"0db79e52","bnGmx()":"e102f564","bonusGmxTracker()":"1fcd60e5","claim()":"4e71d92d","claimEsGmx()":"5fe3945f","claimFees()":"d294f093","compound()":"f69e2046","compoundForAccount(address)":"2a9f4083","esGmx()":"6a192a78","feeGlpTracker()":"e1c363b7","feeGmxTracker()":"51c3e3b4","glp()":"78a207ee","glpManager()":"fa6db1bc","glpVester()":"3671df25","gmx()":"31e67c71","gmxVester()":"41d315b4","gov()":"12d43a51","handleRewards(bool,bool,bool,bool,bool,bool,bool)":"30b70002","initialize(address,address,address,address,address,address,address,address,address,address,address,address,address)":"2fdd983d","isInitialized()":"392e53cd","mintAndStakeGlp(address,uint256,uint256,uint256)":"364e2311","mintAndStakeGlpETH(uint256,uint256)":"53a8aa03","pendingReceivers(address)":"e1b9db89","setGov(address)":"cfad57a2","signalTransfer(address)":"ef9aacfd","stakeEsGmx(uint256)":"ef8c5994","stakeGmx(uint256)":"f3daeacc","stakeGmxForAccount(address,uint256)":"5da4b8dd","stakedGlpTracker()":"af394d00","stakedGmxTracker()":"0ce4018a","unstakeAndRedeemGlp(address,uint256,uint256,address)":"0f3aa554","unstakeAndRedeemGlpETH(uint256,uint256,address)":"abb5e5e2","unstakeEsGmx(uint256)":"64f64467","unstakeGmx(uint256)":"078580d2","weth()":"3fc8cef3","withdrawToken(address,address,uint256)":"01e33667"},"id":169}