{"abi":[{"type":"function","name":"getPool","inputs":[{"name":"","type":"address","internalType":"address"},{"name":"","type":"address","internalType":"address"},{"name":"","type":"uint24","internalType":"uint24"}],"outputs":[{"name":"","type":"address","internalType":"address"}],"stateMutability":"view"}],"bytecode":{"object":"0x608060405234801561001057600080fd5b5060e38061001f6000396000f3fe6080604052348015600f57600080fd5b506004361060285760003560e01c80631698ee8214602d575b600080fd5b606660048036036060811015604157600080fd5b5080356001600160a01b03908116916020810135909116906040013562ffffff166082565b604080516001600160a01b039092168252519081900360200190f35b600060208181529381526040808220855292815282812090935282529020546001600160a01b03168156fea2646970667358221220d2479861afeb4e902523d7c71eec2f7fd9905610521dbf3f0d06d287991c90b664736f6c634300060c0033","linkReferences":{}},"methodIdentifiers":{"getPool(address,address,uint24)":"1698ee82"},"id":78}