{"abi":[{"type":"constructor","inputs":[{"name":"_addresses","type":"address[5]","internalType":"address[5]"}],"stateMutability":"nonpayable"},{"type":"function","name":"btc","inputs":[],"outputs":[{"name":"","type":"address","internalType":"address"}],"stateMutability":"view"},{"type":"function","name":"btcwFtmPair","inputs":[],"outputs":[{"name":"","type":"address","internalType":"address"}],"stateMutability":"view"},{"type":"function","name":"busd","inputs":[],"outputs":[{"name":"","type":"address","internalType":"address"}],"stateMutability":"view"},{"type":"function","name":"getPair","inputs":[{"name":"tokenA","type":"address","internalType":"address"},{"name":"tokenB","type":"address","internalType":"address"}],"outputs":[{"name":"","type":"address","internalType":"address"}],"stateMutability":"view"},{"type":"function","name":"wFtm","inputs":[],"outputs":[{"name":"","type":"address","internalType":"address"}],"stateMutability":"view"},{"type":"function","name":"wFtmBusdPair","inputs":[],"outputs":[{"name":"","type":"address","internalType":"address"}],"stateMutability":"view"}],"bytecode":{"object":"0x608060405234801561001057600080fd5b506040516102d93803806102d9833981810160405260a081101561003357600080fd5b508051600080546001600160a01b03199081166001600160a01b03938416178255602084015160018054831691851691909117905560408401516002805483169185169190911790556060840151600380548316918516919091179055608090930151600480549094169216919091179091556102239081906100b690396000f3fe608060405234801561001057600080fd5b50600436106100625760003560e01c80633ca5b2341461006757806342dd7f0f1461008b57806354568bdb146100935780639935d7be1461009b578063a28d57d8146100a3578063e6a43905146100ab575b600080fd5b61006f6100d9565b604080516001600160a01b039092168252519081900360200190f35b61006f6100e8565b61006f6100f7565b61006f610106565b61006f610115565b61006f600480360360408110156100c157600080fd5b506001600160a01b0381358116916020013516610124565b6002546001600160a01b031681565b6003546001600160a01b031681565b6004546001600160a01b031681565b6001546001600160a01b031681565b6000546001600160a01b031681565b6002546000906001600160a01b03848116911614801561015157506001546001600160a01b038381169116145b1561016857506003546001600160a01b03166101e7565b6001546001600160a01b03848116911614801561019257506000546001600160a01b038381169116145b156101a957506004546001600160a01b03166101e7565b6040805162461bcd60e51b815260206004820152600e60248201526d496e76616c696420746f6b656e7360901b604482015290519081900360640190fd5b9291505056fea2646970667358221220755f8cbe0f032a37bdf516473f14dc8656fdbcec65fb1aa5d80c639e297049d164736f6c634300060c0033","linkReferences":{}},"methodIdentifiers":{"btc()":"a28d57d8","btcwFtmPair()":"54568bdb","busd()":"3ca5b234","getPair(address,address)":"e6a43905","wFtm()":"9935d7be","wFtmBusdPair()":"42dd7f0f"},"id":75}