{"abi":[{"type":"constructor","inputs":[{"name":"_glp","type":"address","internalType":"address"},{"name":"_glpManager","type":"address","internalType":"contract IGlpManager"},{"name":"_stakedGlpTracker","type":"address","internalType":"address"},{"name":"_feeGlpTracker","type":"address","internalType":"address"}],"stateMutability":"nonpayable"},{"type":"function","name":"allowance","inputs":[{"name":"_owner","type":"address","internalType":"address"},{"name":"_spender","type":"address","internalType":"address"}],"outputs":[{"name":"","type":"uint256","internalType":"uint256"}],"stateMutability":"view"},{"type":"function","name":"allowances","inputs":[{"name":"","type":"address","internalType":"address"},{"name":"","type":"address","internalType":"address"}],"outputs":[{"name":"","type":"uint256","internalType":"uint256"}],"stateMutability":"view"},{"type":"function","name":"approve","inputs":[{"name":"_spender","type":"address","internalType":"address"},{"name":"_amount","type":"uint256","internalType":"uint256"}],"outputs":[{"name":"","type":"bool","internalType":"bool"}],"stateMutability":"nonpayable"},{"type":"function","name":"balanceOf","inputs":[{"name":"_account","type":"address","internalType":"address"}],"outputs":[{"name":"","type":"uint256","internalType":"uint256"}],"stateMutability":"view"},{"type":"function","name":"decimals","inputs":[],"outputs":[{"name":"","type":"uint8","internalType":"uint8"}],"stateMutability":"view"},{"type":"function","name":"feeGlpTracker","inputs":[],"outputs":[{"name":"","type":"address","internalType":"address"}],"stateMutability":"view"},{"type":"function","name":"glp","inputs":[],"outputs":[{"name":"","type":"address","internalType":"address"}],"stateMutability":"view"},{"type":"function","name":"glpManager","inputs":[],"outputs":[{"name":"","type":"address","internalType":"contract IGlpManager"}],"stateMutability":"view"},{"type":"function","name":"name","inputs":[],"outputs":[{"name":"","type":"string","internalType":"string"}],"stateMutability":"view"},{"type":"function","name":"stakedGlpTracker","inputs":[],"outputs":[{"name":"","type":"address","internalType":"address"}],"stateMutability":"view"},{"type":"function","name":"symbol","inputs":[],"outputs":[{"name":"","type":"string","internalType":"string"}],"stateMutability":"view"},{"type":"function","name":"totalSupply","inputs":[],"outputs":[{"name":"","type":"uint256","internalType":"uint256"}],"stateMutability":"view"},{"type":"function","name":"transfer","inputs":[{"name":"_recipient","type":"address","internalType":"address"},{"name":"_amount","type":"uint256","internalType":"uint256"}],"outputs":[{"name":"","type":"bool","internalType":"bool"}],"stateMutability":"nonpayable"},{"type":"function","name":"transferFrom","inputs":[{"name":"_sender","type":"address","internalType":"address"},{"name":"_recipient","type":"address","internalType":"address"},{"name":"_amount","type":"uint256","internalType":"uint256"}],"outputs":[{"name":"","type":"bool","internalType":"bool"}],"stateMutability":"nonpayable"},{"type":"event","name":"Approval","inputs":[{"name":"owner","type":"address","indexed":true,"internalType":"address"},{"name":"spender","type":"address","indexed":true,"internalType":"address"},{"name":"value","type":"uint256","indexed":false,"internalType":"uint256"}],"anonymous":false}],"bytecode":{"object":"0x608060405234801561001057600080fd5b50604051610ce9380380610ce98339818101604052608081101561003357600080fd5b50805160208201516040830151606090930151600080546001600160a01b039485166001600160a01b0319918216179091556001805493851693821693909317909255600280549484169483169490941790935560038054929093169116179055610c46806100a36000396000f3fe608060405234801561001057600080fd5b50600436106100ea5760003560e01c806378a207ee1161008c578063af394d0011610066578063af394d00146102c6578063dd62ed3e146102ce578063e1c363b7146102fc578063fa6db1bc14610304576100ea565b806378a207ee1461026e57806395d89b4114610292578063a9059cbb1461029a576100ea565b806323b872dd116100c857806323b872dd146101c6578063313ce567146101fc57806355b6ed5c1461021a57806370a0823114610248576100ea565b806306fdde03146100ef578063095ea7b31461016c57806318160ddd146101ac575b600080fd5b6100f761030c565b6040805160208082528351818301528351919283929083019185019080838360005b83811015610131578181015183820152602001610119565b50505050905090810190601f16801561015e5780820380516001836020036101000a031916815260200191505b509250505060405180910390f35b6101986004803603604081101561018257600080fd5b506001600160a01b038135169060200135610331565b604080519115158252519081900360200190f35b6101b4610347565b60408051918252519081900360200190f35b610198600480360360608110156101dc57600080fd5b506001600160a01b038135811691602081013590911690604001356103bd565b61020461042b565b6040805160ff9092168252519081900360200190f35b6101b46004803603604081101561023057600080fd5b506001600160a01b0381358116916020013516610430565b6101b46004803603602081101561025e57600080fd5b50356001600160a01b031661044d565b6102766104db565b604080516001600160a01b039092168252519081900360200190f35b6100f76104ea565b610198600480360360408110156102b057600080fd5b506001600160a01b03813516906020013561050a565b610276610517565b6101b4600480360360408110156102e457600080fd5b506001600160a01b0381358116916020013516610526565b610276610551565b610276610560565b6040518060400160405280600981526020016805374616b6564476c760bc1b81525081565b600061033e33848461056f565b50600192915050565b600254604080516318160ddd60e01b815290516000926001600160a01b0316916318160ddd916004808301926020929190829003018186803b15801561038c57600080fd5b505afa1580156103a0573d6000803e3d6000fd5b505050506040513d60208110156103b657600080fd5b5051905090565b600080610408836040518060600160405280602c8152602001610bba602c91396001600160a01b0388166000908152600460209081526040808320338452909152902054919061065b565b905061041585338361056f565b6104208585856106f2565b506001949350505050565b601281565b600460209081526000928352604080842090915290825290205481565b6003546000805460408051637aeceb1f60e11b81526001600160a01b038681166004830152928316602482015290519293919091169163f5d9d63e91604480820192602092909190829003018186803b1580156104a957600080fd5b505afa1580156104bd573d6000803e3d6000fd5b505050506040513d60208110156104d357600080fd5b505192915050565b6000546001600160a01b031681565b60405180604001604052806004815260200163073474c560e41b81525081565b600061033e3384846106f2565b6002546001600160a01b031681565b6001600160a01b03918216600090815260046020908152604080832093909416825291909152205490565b6003546001600160a01b031681565b6001546001600160a01b031681565b6001600160a01b0383166105b45760405162461bcd60e51b8152600401808060200182810382526028815260200180610b456028913960400191505060405180910390fd5b6001600160a01b0382166105f95760405162461bcd60e51b8152600401808060200182810382526026815260200180610b6d6026913960400191505060405180910390fd5b6001600160a01b03808416600081815260046020908152604080832094871680845294825291829020859055815185815291517f8c5be1e5ebec7d5bd14f71427d1e84f3dd0314c0f7b2291e5b200ac8c7c3b9259281900390910190a3505050565b600081848411156106ea5760405162461bcd60e51b81526004018080602001828103825283818151815260200191508051906020019080838360005b838110156106af578181015183820152602001610697565b50505050905090810190601f1680156106dc5780820380516001836020036101000a031916815260200191505b509250505060405180910390fd5b505050900390565b6001600160a01b0383166107375760405162461bcd60e51b8152600401808060200182810382526029815260200180610b1c6029913960400191505060405180910390fd5b6001600160a01b03821661077c5760405162461bcd60e51b8152600401808060200182810382526027815260200180610b936027913960400191505060405180910390fd5b4261087d600160009054906101000a90046001600160a01b03166001600160a01b031663352693156040518163ffffffff1660e01b8152600401602060405180830381600087803b1580156107d057600080fd5b505af11580156107e4573d6000803e3d6000fd5b505050506040513d60208110156107fa57600080fd5b505160015460408051638b770e1160e01b81526001600160a01b03898116600483015291519190921691638b770e119160248083019260209291908290030181600087803b15801561084b57600080fd5b505af115801561085f573d6000803e3d6000fd5b505050506040513d602081101561087557600080fd5b505190610aba565b11156108ba5760405162461bcd60e51b815260040180806020018281038252602b815260200180610be6602b913960400191505060405180910390fd5b6002546003546040805163098bf59d60e01b81526001600160a01b038781166004830181905293811660248301526044820186905260648201939093529051919092169163098bf59d91608480830192600092919082900301818387803b15801561092457600080fd5b505af1158015610938573d6000803e3d6000fd5b5050600354600080546040805163098bf59d60e01b81526001600160a01b038a8116600483018190529381166024830152604482018990526064820193909352905191909316945063098bf59d935060848084019382900301818387803b1580156109a257600080fd5b505af11580156109b6573d6000803e3d6000fd5b50506003546000805460408051631e42d69b60e21b81526001600160a01b038a811660048301528981166024830152928316604482015260648101889052905191909316945063790b5a6c935060848084019382900301818387803b158015610a1e57600080fd5b505af1158015610a32573d6000803e3d6000fd5b505060025460035460408051631e42d69b60e21b81526001600160a01b03888116600483018190526024830152928316604482015260648101879052905191909216935063790b5a6c9250608480830192600092919082900301818387803b158015610a9d57600080fd5b505af1158015610ab1573d6000803e3d6000fd5b50505050505050565b600082820183811015610b14576040805162461bcd60e51b815260206004820152601b60248201527f536166654d6174683a206164646974696f6e206f766572666c6f770000000000604482015290519081900360640190fd5b939250505056fe5374616b6564476c703a207472616e736665722066726f6d20746865207a65726f20616464726573735374616b6564476c703a20617070726f76652066726f6d20746865207a65726f20616464726573735374616b6564476c703a20617070726f766520746f20746865207a65726f20616464726573735374616b6564476c703a207472616e7366657220746f20746865207a65726f20616464726573735374616b6564476c703a207472616e7366657220616d6f756e74206578636565647320616c6c6f77616e63655374616b6564476c703a20636f6f6c646f776e206475726174696f6e206e6f742079657420706173736564a2646970667358221220bd31d733722338a03efa7c93dbcbb395c270abf3a48b175b363b31110be4d9b764736f6c634300060c0033","linkReferences":{}},"methodIdentifiers":{"allowance(address,address)":"dd62ed3e","allowances(address,address)":"55b6ed5c","approve(address,uint256)":"095ea7b3","balanceOf(address)":"70a08231","decimals()":"313ce567","feeGlpTracker()":"e1c363b7","glp()":"78a207ee","glpManager()":"fa6db1bc","name()":"06fdde03","stakedGlpTracker()":"af394d00","symbol()":"95d89b41","totalSupply()":"18160ddd","transfer(address,uint256)":"a9059cbb","transferFrom(address,address,uint256)":"23b872dd"},"id":172}