{"abi":[{"type":"constructor","inputs":[{"name":"_vault","type":"address","internalType":"address"}],"stateMutability":"nonpayable"},{"type":"function","name":"addAdmin","inputs":[{"name":"_account","type":"address","internalType":"address"}],"outputs":[],"stateMutability":"nonpayable"},{"type":"function","name":"addNonStakingAccount","inputs":[{"name":"_account","type":"address","internalType":"address"}],"outputs":[],"stateMutability":"nonpayable"},{"type":"function","name":"addVault","inputs":[{"name":"_vault","type":"address","internalType":"address"}],"outputs":[],"stateMutability":"nonpayable"},{"type":"function","name":"admins","inputs":[{"name":"","type":"address","internalType":"address"}],"outputs":[{"name":"","type":"bool","internalType":"bool"}],"stateMutability":"view"},{"type":"function","name":"allowance","inputs":[{"name":"_owner","type":"address","internalType":"address"},{"name":"_spender","type":"address","internalType":"address"}],"outputs":[{"name":"","type":"uint256","internalType":"uint256"}],"stateMutability":"view"},{"type":"function","name":"allowances","inputs":[{"name":"","type":"address","internalType":"address"},{"name":"","type":"address","internalType":"address"}],"outputs":[{"name":"","type":"uint256","internalType":"uint256"}],"stateMutability":"view"},{"type":"function","name":"approve","inputs":[{"name":"_spender","type":"address","internalType":"address"},{"name":"_amount","type":"uint256","internalType":"uint256"}],"outputs":[{"name":"","type":"bool","internalType":"bool"}],"stateMutability":"nonpayable"},{"type":"function","name":"balanceOf","inputs":[{"name":"_account","type":"address","internalType":"address"}],"outputs":[{"name":"","type":"uint256","internalType":"uint256"}],"stateMutability":"view"},{"type":"function","name":"balances","inputs":[{"name":"","type":"address","internalType":"address"}],"outputs":[{"name":"","type":"uint256","internalType":"uint256"}],"stateMutability":"view"},{"type":"function","name":"burn","inputs":[{"name":"_account","type":"address","internalType":"address"},{"name":"_amount","type":"uint256","internalType":"uint256"}],"outputs":[],"stateMutability":"nonpayable"},{"type":"function","name":"claim","inputs":[{"name":"_receiver","type":"address","internalType":"address"}],"outputs":[],"stateMutability":"nonpayable"},{"type":"function","name":"decimals","inputs":[],"outputs":[{"name":"","type":"uint8","internalType":"uint8"}],"stateMutability":"view"},{"type":"function","name":"gov","inputs":[],"outputs":[{"name":"","type":"address","internalType":"address"}],"stateMutability":"view"},{"type":"function","name":"inWhitelistMode","inputs":[],"outputs":[{"name":"","type":"bool","internalType":"bool"}],"stateMutability":"view"},{"type":"function","name":"mint","inputs":[{"name":"_account","type":"address","internalType":"address"},{"name":"_amount","type":"uint256","internalType":"uint256"}],"outputs":[],"stateMutability":"nonpayable"},{"type":"function","name":"name","inputs":[],"outputs":[{"name":"","type":"string","internalType":"string"}],"stateMutability":"view"},{"type":"function","name":"nonStakingAccounts","inputs":[{"name":"","type":"address","internalType":"address"}],"outputs":[{"name":"","type":"bool","internalType":"bool"}],"stateMutability":"view"},{"type":"function","name":"nonStakingSupply","inputs":[],"outputs":[{"name":"","type":"uint256","internalType":"uint256"}],"stateMutability":"view"},{"type":"function","name":"recoverClaim","inputs":[{"name":"_account","type":"address","internalType":"address"},{"name":"_receiver","type":"address","internalType":"address"}],"outputs":[],"stateMutability":"nonpayable"},{"type":"function","name":"removeAdmin","inputs":[{"name":"_account","type":"address","internalType":"address"}],"outputs":[],"stateMutability":"nonpayable"},{"type":"function","name":"removeNonStakingAccount","inputs":[{"name":"_account","type":"address","internalType":"address"}],"outputs":[],"stateMutability":"nonpayable"},{"type":"function","name":"removeVault","inputs":[{"name":"_vault","type":"address","internalType":"address"}],"outputs":[],"stateMutability":"nonpayable"},{"type":"function","name":"setGov","inputs":[{"name":"_gov","type":"address","internalType":"address"}],"outputs":[],"stateMutability":"nonpayable"},{"type":"function","name":"setInWhitelistMode","inputs":[{"name":"_inWhitelistMode","type":"bool","internalType":"bool"}],"outputs":[],"stateMutability":"nonpayable"},{"type":"function","name":"setInfo","inputs":[{"name":"_name","type":"string","internalType":"string"},{"name":"_symbol","type":"string","internalType":"string"}],"outputs":[],"stateMutability":"nonpayable"},{"type":"function","name":"setWhitelistedHandler","inputs":[{"name":"_handler","type":"address","internalType":"address"},{"name":"_isWhitelisted","type":"bool","internalType":"bool"}],"outputs":[],"stateMutability":"nonpayable"},{"type":"function","name":"setYieldTrackers","inputs":[{"name":"_yieldTrackers","type":"address[]","internalType":"address[]"}],"outputs":[],"stateMutability":"nonpayable"},{"type":"function","name":"stakedBalance","inputs":[{"name":"_account","type":"address","internalType":"address"}],"outputs":[{"name":"","type":"uint256","internalType":"uint256"}],"stateMutability":"view"},{"type":"function","name":"symbol","inputs":[],"outputs":[{"name":"","type":"string","internalType":"string"}],"stateMutability":"view"},{"type":"function","name":"totalStaked","inputs":[],"outputs":[{"name":"","type":"uint256","internalType":"uint256"}],"stateMutability":"view"},{"type":"function","name":"totalSupply","inputs":[],"outputs":[{"name":"","type":"uint256","internalType":"uint256"}],"stateMutability":"view"},{"type":"function","name":"transfer","inputs":[{"name":"_recipient","type":"address","internalType":"address"},{"name":"_amount","type":"uint256","internalType":"uint256"}],"outputs":[{"name":"","type":"bool","internalType":"bool"}],"stateMutability":"nonpayable"},{"type":"function","name":"transferFrom","inputs":[{"name":"_sender","type":"address","internalType":"address"},{"name":"_recipient","type":"address","internalType":"address"},{"name":"_amount","type":"uint256","internalType":"uint256"}],"outputs":[{"name":"","type":"bool","internalType":"bool"}],"stateMutability":"nonpayable"},{"type":"function","name":"vaults","inputs":[{"name":"","type":"address","internalType":"address"}],"outputs":[{"name":"","type":"bool","internalType":"bool"}],"stateMutability":"view"},{"type":"function","name":"whitelistedHandlers","inputs":[{"name":"","type":"address","internalType":"address"}],"outputs":[{"name":"","type":"bool","internalType":"bool"}],"stateMutability":"view"},{"type":"function","name":"withdrawToken","inputs":[{"name":"_token","type":"address","internalType":"address"},{"name":"_account","type":"address","internalType":"address"},{"name":"_amount","type":"uint256","internalType":"uint256"}],"outputs":[],"stateMutability":"nonpayable"},{"type":"function","name":"yieldTrackers","inputs":[{"name":"","type":"uint256","internalType":"uint256"}],"outputs":[{"name":"","type":"address","internalType":"address"}],"stateMutability":"view"},{"type":"event","name":"Approval","inputs":[{"name":"owner","type":"address","indexed":true,"internalType":"address"},{"name":"spender","type":"address","indexed":true,"internalType":"address"},{"name":"value","type":"uint256","indexed":false,"internalType":"uint256"}],"anonymous":false},{"type":"event","name":"Transfer","inputs":[{"name":"from","type":"address","indexed":true,"internalType":"address"},{"name":"to","type":"address","indexed":true,"internalType":"address"},{"name":"value","type":"uint256","indexed":false,"internalType":"uint256"}],"anonymous":false}],"bytecode":{"object":"0x60806040523480156200001157600080fd5b506040516200266638038062002666833981810160405260208110156200003757600080fd5b50516040805180820182526009815268555344204d756d6d7960b81b6020828101918252835180850190945260048452635553444d60e01b90840152815191929160009162000089918391906200033c565b5081516200009f9060019060208501906200033c565b50600480546001600160a01b031916339081179091556000818152600960205260409020805460ff19166001179055620000da908262000105565b5050506001600160a01b03166000908152600c60205260409020805460ff19166001179055620003d8565b6001600160a01b0382166200014c5760405162461bcd60e51b8152600401808060200182810382526024815260200180620026426024913960400191505060405180910390fd5b62000157826200023b565b6200017381600254620002da60201b620014ff1790919060201c565b6002556001600160a01b038216600090815260056020908152604090912054620001a8918390620014ff620002da821b17901c565b6001600160a01b03831660009081526005602090815260408083209390935560089052205460ff1615620001f657620001f281600354620002da60201b620014ff1790919060201c565b6003555b6040805182815290516001600160a01b038416916000917fddf252ad1be2c89b69c2b068fc378daa952ba7f163c4a11628f55a4df523b3ef9181900360200190a35050565b60005b600754811015620002d6576000600782815481106200025957fe5b600091825260208220015460408051635fd6196560e01b81526001600160a01b03878116600483015291519190921693508392635fd61965926024808201939182900301818387803b158015620002af57600080fd5b505af1158015620002c4573d6000803e3d6000fd5b5050600190930192506200023e915050565b5050565b60008282018381101562000335576040805162461bcd60e51b815260206004820152601b60248201527f536166654d6174683a206164646974696f6e206f766572666c6f770000000000604482015290519081900360640190fd5b9392505050565b828054600181600116156101000203166002900490600052602060002090601f016020900481019282601f106200037f57805160ff1916838001178555620003af565b82800160010185558215620003af579182015b82811115620003af57825182559160200191906001019062000392565b50620003bd929150620003c1565b5090565b5b80821115620003bd5760008155600101620003c2565b61225a80620003e86000396000f3fe608060405234801561001057600080fd5b50600436106102275760003560e01c806355b6ed5c116101305780639dc29fac116100b8578063ceb68c231161007c578063ceb68c2314610887578063cfad57a2146108ad578063d92fc87e146108d3578063dd62ed3e14610901578063fb30d9161461092f57610227565b80639dc29fac146106d4578063a622ee7c14610700578063a9059cbb14610726578063a923fc4014610752578063c93be6361461087f57610227565b806370a08231116100ff57806370a082311461064a578063817b1cd2146106705780639554381a1461067857806395d89b411461069e578063996f11ee146106a657610227565b806355b6ed5c146105aa57806360217267146105d857806362289077146105fe578063704802751461062457610227565b8063276eab4e116101b3578063363000511161018257806336300051146104f657806340c10f191461051c578063429b62e5146105485780634cb5bbe31461056e57806352cd38d91461058d57610227565b8063276eab4e1461040757806327e235e3146104aa578063293d6987146104d0578063313ce567146104d857610227565b80631785f53c116101fa5780631785f53c1461034557806318160ddd1461036b5780631e83409a1461038557806323b872dd146103ab578063256b5a02146103e157610227565b806301e336671461022c57806306fdde0314610264578063095ea7b3146102e157806312d43a5114610321575b600080fd5b6102626004803603606081101561024257600080fd5b506001600160a01b03813581169160208101359091169060400135610955565b005b61026c6109bb565b6040805160208082528351818301528351919283929083019185019080838360005b838110156102a657818101518382015260200161028e565b50505050905090810190601f1680156102d35780820380516001836020036101000a031916815260200191505b509250505060405180910390f35b61030d600480360360408110156102f757600080fd5b506001600160a01b038135169060200135610a49565b604080519115158252519081900360200190f35b610329610a5f565b604080516001600160a01b039092168252519081900360200190f35b6102626004803603602081101561035b57600080fd5b50356001600160a01b0316610a6e565b610373610adc565b60408051918252519081900360200190f35b6102626004803603602081101561039b57600080fd5b50356001600160a01b0316610ae2565b61030d600480360360608110156103c157600080fd5b506001600160a01b03813581169160208101359091169060400135610b99565b610262600480360360208110156103f757600080fd5b50356001600160a01b0316610c09565b6102626004803603602081101561041d57600080fd5b81019060208101813564010000000081111561043857600080fd5b82018360208201111561044a57600080fd5b8035906020019184602083028401116401000000008311171561046c57600080fd5b919080806020026020016040519081016040528093929190818152602001838360200280828437600092019190915250929550610c7a945050505050565b610373600480360360208110156104c057600080fd5b50356001600160a01b0316610cda565b61030d610cec565b6104e0610cf5565b6040805160ff9092168252519081900360200190f35b61030d6004803603602081101561050c57600080fd5b50356001600160a01b0316610cfa565b6102626004803603604081101561053257600080fd5b506001600160a01b038135169060200135610d0f565b61030d6004803603602081101561055e57600080fd5b50356001600160a01b0316610d6f565b6102626004803603602081101561058457600080fd5b50351515610d84565b610329600480360360208110156105a357600080fd5b5035610de4565b610373600480360360408110156105c057600080fd5b506001600160a01b0381358116916020013516610e0b565b610373600480360360208110156105ee57600080fd5b50356001600160a01b0316610e28565b6102626004803603602081101561061457600080fd5b50356001600160a01b0316610e71565b6102626004803603602081101561063a57600080fd5b50356001600160a01b0316610f64565b6103736004803603602081101561066057600080fd5b50356001600160a01b0316610fd5565b610373610ff0565b61030d6004803603602081101561068e57600080fd5b50356001600160a01b031661100e565b61026c611023565b610262600480360360408110156106bc57600080fd5b506001600160a01b038135811691602001351661107d565b610262600480360360408110156106ea57600080fd5b506001600160a01b038135169060200135611184565b61030d6004803603602081101561071657600080fd5b50356001600160a01b03166111e4565b61030d6004803603604081101561073c57600080fd5b506001600160a01b0381351690602001356111f9565b6102626004803603604081101561076857600080fd5b81019060208101813564010000000081111561078357600080fd5b82018360208201111561079557600080fd5b803590602001918460018302840111640100000000831117156107b757600080fd5b91908080601f016020809104026020016040519081016040528093929190818152602001838380828437600092019190915250929594936020810193503591505064010000000081111561080a57600080fd5b82018360208201111561081c57600080fd5b8035906020019184600183028401116401000000008311171561083e57600080fd5b91908080601f016020809104026020016040519081016040528093929190818152602001838380828437600092019190915250929550611206945050505050565b61037361127a565b6102626004803603602081101561089d57600080fd5b50356001600160a01b0316611280565b610262600480360360208110156108c357600080fd5b50356001600160a01b03166112ee565b610262600480360360408110156108e957600080fd5b506001600160a01b038135169060200135151561135d565b6103736004803603604081101561091757600080fd5b506001600160a01b03813581169160200135166113d5565b6102626004803603602081101561094557600080fd5b50356001600160a01b0316611400565b6004546001600160a01b031633146109a2576040805162461bcd60e51b815260206004820152601560248201526000805160206121da833981519152604482015290519081900360640190fd5b6109b66001600160a01b0384168383611559565b505050565b6000805460408051602060026001851615610100026000190190941693909304601f81018490048402820184019092528181529291830182828015610a415780601f10610a1657610100808354040283529160200191610a41565b820191906000526020600020905b815481529060010190602001808311610a2457829003601f168201915b505050505081565b6000610a563384846115ab565b50600192915050565b6004546001600160a01b031681565b6004546001600160a01b03163314610abb576040805162461bcd60e51b815260206004820152601560248201526000805160206121da833981519152604482015290519081900360640190fd5b6001600160a01b03166000908152600960205260409020805460ff19169055565b60025481565b60005b600754811015610b9557600060078281548110610afe57fe5b6000918252602080832090910154604080516310e059a160e11b81523360048201526001600160a01b038881166024830152915191909216945084936321c0b34293604480850194919392918390030190829087803b158015610b6057600080fd5b505af1158015610b74573d6000803e3d6000fd5b505050506040513d6020811015610b8a57600080fd5b505050600101610ae5565b5050565b600080610be4836040518060600160405280602d8152602001612187602d91396001600160a01b03881660009081526006602090815260408083203384529091529020549190611697565b9050610bf18533836115ab565b610bfc85858561172e565b60019150505b9392505050565b6004546001600160a01b03163314610c56576040805162461bcd60e51b815260206004820152601560248201526000805160206121da833981519152604482015290519081900360640190fd5b6001600160a01b03166000908152600c60205260409020805460ff19166001179055565b6004546001600160a01b03163314610cc7576040805162461bcd60e51b815260206004820152601560248201526000805160206121da833981519152604482015290519081900360640190fd5b8051610b95906007906020840190611eed565b60056020526000908152604090205481565b600a5460ff1681565b601281565b600b6020526000908152604090205460ff1681565b336000908152600c602052604090205460ff16610d65576040805162461bcd60e51b815260206004820152600f60248201526e2aa9a2269d103337b93134b23232b760891b604482015290519081900360640190fd5b610b958282611956565b60096020526000908152604090205460ff1681565b6004546001600160a01b03163314610dd1576040805162461bcd60e51b815260206004820152601560248201526000805160206121da833981519152604482015290519081900360640190fd5b600a805460ff1916911515919091179055565b60078181548110610df157fe5b6000918252602090912001546001600160a01b0316905081565b600660209081526000928352604080842090915290825290205481565b6001600160a01b03811660009081526008602052604081205460ff1615610e5157506000610e6c565b506001600160a01b0381166000908152600560205260409020545b919050565b3360009081526009602052604090205460ff16610ec3576040805162461bcd60e51b815260206004820152601560248201526000805160206121da833981519152604482015290519081900360640190fd5b6001600160a01b03811660009081526008602052604090205460ff1615610f1b5760405162461bcd60e51b81526004018080602001828103825260238152602001806120016023913960400191505060405180910390fd5b610f2481611a5a565b6001600160a01b0381166000908152600860209081526040808320805460ff191660011790556005909152902054600354610f5e916114ff565b60035550565b6004546001600160a01b03163314610fb1576040805162461bcd60e51b815260206004820152601560248201526000805160206121da833981519152604482015290519081900360640190fd5b6001600160a01b03166000908152600960205260409020805460ff19166001179055565b6001600160a01b031660009081526005602052604090205490565b6000611009600354600254611af090919063ffffffff16565b905090565b60086020526000908152604090205460ff1681565b60018054604080516020600284861615610100026000190190941693909304601f81018490048402820184019092528181529291830182828015610a415780601f10610a1657610100808354040283529160200191610a41565b3360009081526009602052604090205460ff166110cf576040805162461bcd60e51b815260206004820152601560248201526000805160206121da833981519152604482015290519081900360640190fd5b60005b6007548110156109b6576000600782815481106110eb57fe5b6000918252602080832090910154604080516310e059a160e11b81526001600160a01b0389811660048301528881166024830152915191909216945084936321c0b34293604480850194919392918390030190829087803b15801561114f57600080fd5b505af1158015611163573d6000803e3d6000fd5b505050506040513d602081101561117957600080fd5b5050506001016110d2565b336000908152600c602052604090205460ff166111da576040805162461bcd60e51b815260206004820152600f60248201526e2aa9a2269d103337b93134b23232b760891b604482015290519081900360640190fd5b610b958282611b32565b600c6020526000908152604090205460ff1681565b6000610a5633848461172e565b6004546001600160a01b03163314611253576040805162461bcd60e51b815260206004820152601560248201526000805160206121da833981519152604482015290519081900360640190fd5b8151611266906000906020850190611f52565b5080516109b6906001906020840190611f52565b60035481565b6004546001600160a01b031633146112cd576040805162461bcd60e51b815260206004820152601560248201526000805160206121da833981519152604482015290519081900360640190fd5b6001600160a01b03166000908152600c60205260409020805460ff19169055565b6004546001600160a01b0316331461133b576040805162461bcd60e51b815260206004820152601560248201526000805160206121da833981519152604482015290519081900360640190fd5b600480546001600160a01b0319166001600160a01b0392909216919091179055565b6004546001600160a01b031633146113aa576040805162461bcd60e51b815260206004820152601560248201526000805160206121da833981519152604482015290519081900360640190fd5b6001600160a01b03919091166000908152600b60205260409020805460ff1916911515919091179055565b6001600160a01b03918216600090815260066020908152604080832093909416825291909152205490565b3360009081526009602052604090205460ff16611452576040805162461bcd60e51b815260206004820152601560248201526000805160206121da833981519152604482015290519081900360640190fd5b6001600160a01b03811660009081526008602052604090205460ff166114bf576040805162461bcd60e51b815260206004820152601f60248201527f5969656c64546f6b656e3a205f6163636f756e74206e6f74206d61726b656400604482015290519081900360640190fd5b6114c881611a5a565b6001600160a01b0381166000908152600860209081526040808320805460ff191690556005909152902054600354610f5e91611af0565b600082820183811015610c02576040805162461bcd60e51b815260206004820152601b60248201527f536166654d6174683a206164646974696f6e206f766572666c6f770000000000604482015290519081900360640190fd5b604080516001600160a01b038416602482015260448082018490528251808303909101815260649091019091526020810180516001600160e01b031663a9059cbb60e01b1790526109b6908490611c5d565b6001600160a01b0383166115f05760405162461bcd60e51b815260040180806020018281038252602981526020018061215e6029913960400191505060405180910390fd5b6001600160a01b0382166116355760405162461bcd60e51b81526004018080602001828103825260278152602001806120c26027913960400191505060405180910390fd5b6001600160a01b03808416600081815260066020908152604080832094871680845294825291829020859055815185815291517f8c5be1e5ebec7d5bd14f71427d1e84f3dd0314c0f7b2291e5b200ac8c7c3b9259281900390910190a3505050565b600081848411156117265760405162461bcd60e51b81526004018080602001828103825283818151815260200191508051906020019080838360005b838110156116eb5781810151838201526020016116d3565b50505050905090810190601f1680156117185780820380516001836020036101000a031916815260200191505b509250505060405180910390fd5b505050900390565b6001600160a01b0383166117735760405162461bcd60e51b815260040180806020018281038252602a81526020018061204c602a913960400191505060405180910390fd5b6001600160a01b0382166117b85760405162461bcd60e51b81526004018080602001828103825260288152602001806120246028913960400191505060405180910390fd5b600a5460ff161561181157336000908152600b602052604090205460ff166118115760405162461bcd60e51b81526004018080602001828103825260268152602001806121b46026913960400191505060405180910390fd5b61181a83611a5a565b61182382611a5a565b611860816040518060600160405280602b81526020016121fa602b91396001600160a01b0386166000908152600560205260409020549190611697565b6001600160a01b03808516600090815260056020526040808220939093559084168152205461188f90826114ff565b6001600160a01b0380841660009081526005602090815260408083209490945591861681526008909152205460ff16156118d4576003546118d09082611af0565b6003555b6001600160a01b03821660009081526008602052604090205460ff16156119065760035461190290826114ff565b6003555b816001600160a01b0316836001600160a01b03167fddf252ad1be2c89b69c2b068fc378daa952ba7f163c4a11628f55a4df523b3ef836040518082815260200191505060405180910390a3505050565b6001600160a01b03821661199b5760405162461bcd60e51b81526004018080602001828103825260248152602001806121106024913960400191505060405180910390fd5b6119a482611a5a565b6002546119b190826114ff565b6002556001600160a01b0382166000908152600560205260409020546119d790826114ff565b6001600160a01b03831660009081526005602090815260408083209390935560089052205460ff1615611a1557600354611a1190826114ff565b6003555b6040805182815290516001600160a01b038416916000917fddf252ad1be2c89b69c2b068fc378daa952ba7f163c4a11628f55a4df523b3ef9181900360200190a35050565b60005b600754811015610b9557600060078281548110611a7657fe5b600091825260208220015460408051635fd6196560e01b81526001600160a01b03878116600483015291519190921693508392635fd61965926024808201939182900301818387803b158015611acb57600080fd5b505af1158015611adf573d6000803e3d6000fd5b505060019093019250611a5d915050565b6000610c0283836040518060400160405280601e81526020017f536166654d6174683a207375627472616374696f6e206f766572666c6f770000815250611697565b6001600160a01b038216611b775760405162461bcd60e51b81526004018080602001828103825260268152602001806120766026913960400191505060405180910390fd5b611b8082611a5a565b611bbd816040518060600160405280602781526020016120e9602791396001600160a01b0385166000908152600560205260409020549190611697565b6001600160a01b038316600090815260056020526040902055600254611be39082611af0565b6002556001600160a01b03821660009081526008602052604090205460ff1615611c1857600354611c149082611af0565b6003555b6040805182815290516000916001600160a01b038516917fddf252ad1be2c89b69c2b068fc378daa952ba7f163c4a11628f55a4df523b3ef9181900360200190a35050565b6060611cb2826040518060400160405280602081526020017f5361666545524332303a206c6f772d6c6576656c2063616c6c206661696c6564815250856001600160a01b0316611d0e9092919063ffffffff16565b8051909150156109b657808060200190516020811015611cd157600080fd5b50516109b65760405162461bcd60e51b815260040180806020018281038252602a815260200180612134602a913960400191505060405180910390fd5b6060611d1d8484600085611d25565b949350505050565b606082471015611d665760405162461bcd60e51b815260040180806020018281038252602681526020018061209c6026913960400191505060405180910390fd5b611d6f85611e81565b611dc0576040805162461bcd60e51b815260206004820152601d60248201527f416464726573733a2063616c6c20746f206e6f6e2d636f6e7472616374000000604482015290519081900360640190fd5b60006060866001600160a01b031685876040518082805190602001908083835b60208310611dff5780518252601f199092019160209182019101611de0565b6001836020036101000a03801982511681845116808217855250505050505090500191505060006040518083038185875af1925050503d8060008114611e61576040519150601f19603f3d011682016040523d82523d6000602084013e611e66565b606091505b5091509150611e76828286611e87565b979650505050505050565b3b151590565b60608315611e96575081610c02565b825115611ea65782518084602001fd5b60405162461bcd60e51b81526020600482018181528451602484015284518593919283926044019190850190808383600083156116eb5781810151838201526020016116d3565b828054828255906000526020600020908101928215611f42579160200282015b82811115611f4257825182546001600160a01b0319166001600160a01b03909116178255602090920191600190910190611f0d565b50611f4e929150611fcc565b5090565b828054600181600116156101000203166002900490600052602060002090601f016020900481019282601f10611f9357805160ff1916838001178555611fc0565b82800160010185558215611fc0579182015b82811115611fc0578251825591602001919060010190611fa5565b50611f4e929150611feb565b5b80821115611f4e5780546001600160a01b0319168155600101611fcd565b5b80821115611f4e5760008155600101611fec56fe5969656c64546f6b656e3a205f6163636f756e7420616c7265616479206d61726b65645969656c64546f6b656e3a207472616e7366657220746f20746865207a65726f20616464726573735969656c64546f6b656e3a207472616e736665722066726f6d20746865207a65726f20616464726573735969656c64546f6b656e3a206275726e2066726f6d20746865207a65726f2061646472657373416464726573733a20696e73756666696369656e742062616c616e636520666f722063616c6c5969656c64546f6b656e3a20617070726f766520746f20746865207a65726f20616464726573735969656c64546f6b656e3a206275726e20616d6f756e7420657863656564732062616c616e63655969656c64546f6b656e3a206d696e7420746f20746865207a65726f20616464726573735361666545524332303a204552433230206f7065726174696f6e20646964206e6f7420737563636565645969656c64546f6b656e3a20617070726f76652066726f6d20746865207a65726f20616464726573735969656c64546f6b656e3a207472616e7366657220616d6f756e74206578636565647320616c6c6f77616e63655969656c64546f6b656e3a206d73672e73656e646572206e6f742077686974656c69737465645969656c64546f6b656e3a20666f7262696464656e00000000000000000000005969656c64546f6b656e3a207472616e7366657220616d6f756e7420657863656564732062616c616e6365a264697066735822122024f312554d1629285bbed37aef0d4f55fa4d155f623aa18105a477c3117c223a64736f6c634300060c00335969656c64546f6b656e3a206d696e7420746f20746865207a65726f2061646472657373","linkReferences":{}},"methodIdentifiers":{"addAdmin(address)":"70480275","addNonStakingAccount(address)":"62289077","addVault(address)":"256b5a02","admins(address)":"429b62e5","allowance(address,address)":"dd62ed3e","allowances(address,address)":"55b6ed5c","approve(address,uint256)":"095ea7b3","balanceOf(address)":"70a08231","balances(address)":"27e235e3","burn(address,uint256)":"9dc29fac","claim(address)":"1e83409a","decimals()":"313ce567","gov()":"12d43a51","inWhitelistMode()":"293d6987","mint(address,uint256)":"40c10f19","name()":"06fdde03","nonStakingAccounts(address)":"9554381a","nonStakingSupply()":"c93be636","recoverClaim(address,address)":"996f11ee","removeAdmin(address)":"1785f53c","removeNonStakingAccount(address)":"fb30d916","removeVault(address)":"ceb68c23","setGov(address)":"cfad57a2","setInWhitelistMode(bool)":"4cb5bbe3","setInfo(string,string)":"a923fc40","setWhitelistedHandler(address,bool)":"d92fc87e","setYieldTrackers(address[])":"276eab4e","stakedBalance(address)":"60217267","symbol()":"95d89b41","totalStaked()":"817b1cd2","totalSupply()":"18160ddd","transfer(address,uint256)":"a9059cbb","transferFrom(address,address,uint256)":"23b872dd","vaults(address)":"a622ee7c","whitelistedHandlers(address)":"36300051","withdrawToken(address,address,uint256)":"01e33667","yieldTrackers(uint256)":"52cd38d9"},"id":185}