{"abi":[{"type":"constructor","inputs":[{"name":"_rewardToken","type":"address","internalType":"address"},{"name":"_rewardTracker","type":"address","internalType":"address"}],"stateMutability":"nonpayable"},{"type":"function","name":"admin","inputs":[],"outputs":[{"name":"","type":"address","internalType":"address"}],"stateMutability":"view"},{"type":"function","name":"distribute","inputs":[],"outputs":[{"name":"","type":"uint256","internalType":"uint256"}],"stateMutability":"nonpayable"},{"type":"function","name":"gov","inputs":[],"outputs":[{"name":"","type":"address","internalType":"address"}],"stateMutability":"view"},{"type":"function","name":"lastDistributionTime","inputs":[],"outputs":[{"name":"","type":"uint256","internalType":"uint256"}],"stateMutability":"view"},{"type":"function","name":"pendingRewards","inputs":[],"outputs":[{"name":"","type":"uint256","internalType":"uint256"}],"stateMutability":"view"},{"type":"function","name":"rewardToken","inputs":[],"outputs":[{"name":"","type":"address","internalType":"address"}],"stateMutability":"view"},{"type":"function","name":"rewardTracker","inputs":[],"outputs":[{"name":"","type":"address","internalType":"address"}],"stateMutability":"view"},{"type":"function","name":"setAdmin","inputs":[{"name":"_admin","type":"address","internalType":"address"}],"outputs":[],"stateMutability":"nonpayable"},{"type":"function","name":"setGov","inputs":[{"name":"_gov","type":"address","internalType":"address"}],"outputs":[],"stateMutability":"nonpayable"},{"type":"function","name":"setTokensPerInterval","inputs":[{"name":"_amount","type":"uint256","internalType":"uint256"}],"outputs":[],"stateMutability":"nonpayable"},{"type":"function","name":"tokensPerInterval","inputs":[],"outputs":[{"name":"","type":"uint256","internalType":"uint256"}],"stateMutability":"view"},{"type":"function","name":"updateLastDistributionTime","inputs":[],"outputs":[],"stateMutability":"nonpayable"},{"type":"function","name":"withdrawToken","inputs":[{"name":"_token","type":"address","internalType":"address"},{"name":"_account","type":"address","internalType":"address"},{"name":"_amount","type":"uint256","internalType":"uint256"}],"outputs":[],"stateMutability":"nonpayable"},{"type":"event","name":"Distribute","inputs":[{"name":"amount","type":"uint256","indexed":false,"internalType":"uint256"}],"anonymous":false},{"type":"event","name":"TokensPerIntervalChange","inputs":[{"name":"amount","type":"uint256","indexed":false,"internalType":"uint256"}],"anonymous":false}],"bytecode":{"object":"0x608060405234801561001057600080fd5b50604051610c76380380610c768339818101604052604081101561003357600080fd5b5080516020909101516001600081905580546001600160a01b031990811633908117909255600280546001600160a01b0395861690831617905560058054949093169381169390931790915560068054909216179055610bde806100986000396000f3fe608060405234801561001057600080fd5b50600436106100cf5760003560e01c806375b173501161008c578063e4fc6b6d11610066578063e4fc6b6d146101cb578063eded3fda146101d3578063f7c618c1146101db578063f851a440146101e3576100cf565b806375b1735014610183578063a8d936271461019d578063cfad57a2146101a5576100cf565b806301e33667146100d457806312d43a511461010c57806318e20a03146101305780633ae6d6eb1461014d5780636bcb411a14610155578063704b6c021461015d575b600080fd5b61010a600480360360608110156100ea57600080fd5b506001600160a01b038135811691602081013590911690604001356101eb565b005b61011461025b565b604080516001600160a01b039092168252519081900360200190f35b61010a6004803603602081101561014657600080fd5b503561026a565b61010a6103aa565b61011461040f565b61010a6004803603602081101561017357600080fd5b50356001600160a01b031661041e565b61018b610497565b60408051918252519081900360200190f35b61018b61049d565b61010a600480360360208110156101bb57600080fd5b50356001600160a01b03166104a3565b61018b61051c565b61018b610662565b6101146106a3565b6101146106b2565b6001546001600160a01b03163314610242576040805162461bcd60e51b815260206004820152601560248201527423b7bb32b93730b136329d103337b93134b23232b760591b604482015290519081900360640190fd5b6102566001600160a01b03841683836106c1565b505050565b6001546001600160a01b031681565b6006546001600160a01b031633146102c9576040805162461bcd60e51b815260206004820152601c60248201527f5265776172644469737472696275746f723a20666f7262696464656e00000000604482015290519081900360640190fd5b6004546103075760405162461bcd60e51b815260040180806020018281038252602f815260200180610b50602f913960400191505060405180910390fd5b600560009054906101000a90046001600160a01b03166001600160a01b0316633e158b0c6040518163ffffffff1660e01b8152600401600060405180830381600087803b15801561035757600080fd5b505af115801561036b573d6000803e3d6000fd5b5050506003829055506040805182815290517f98dc76c39aa5a5dcb749f8750a65db3dfa1e14bcc1591a9c16a7420e5da748f89181900360200190a150565b6006546001600160a01b03163314610409576040805162461bcd60e51b815260206004820152601c60248201527f5265776172644469737472696275746f723a20666f7262696464656e00000000604482015290519081900360640190fd5b42600455565b6005546001600160a01b031681565b6001546001600160a01b03163314610475576040805162461bcd60e51b815260206004820152601560248201527423b7bb32b93730b136329d103337b93134b23232b760591b604482015290519081900360640190fd5b600680546001600160a01b0319166001600160a01b0392909216919091179055565b60045481565b60035481565b6001546001600160a01b031633146104fa576040805162461bcd60e51b815260206004820152601560248201527423b7bb32b93730b136329d103337b93134b23232b760591b604482015290519081900360640190fd5b600180546001600160a01b0319166001600160a01b0392909216919091179055565b6005546000906001600160a01b031633146105685760405162461bcd60e51b8152600401808060200182810382526025815260200180610ae46025913960400191505060405180910390fd5b6000610572610662565b90508061058357600091505061065f565b426004908155600254604080516370a0823160e01b81523093810193909352516000926001600160a01b03909216916370a08231916024808301926020929190829003018186803b1580156105d757600080fd5b505afa1580156105eb573d6000803e3d6000fd5b505050506040513d602081101561060157600080fd5b5051905080821115610611578091505b600254610628906001600160a01b031633846106c1565b6040805183815290517f4def474aca53bf221d07d9ab0f675b3f6d8d2494b8427271bcf43c018ef1eead9181900360200190a15090505b90565b60006004544214156106765750600061065f565b600061068d6004544261071390919063ffffffff16565b60035490915061069d908261075e565b91505090565b6002546001600160a01b031681565b6006546001600160a01b031681565b604080516001600160a01b038416602482015260448082018490528251808303909101815260649091019091526020810180516001600160e01b031663a9059cbb60e01b1790526102569084906107b7565b600061075583836040518060400160405280601e81526020017f536166654d6174683a207375627472616374696f6e206f766572666c6f770000815250610868565b90505b92915050565b60008261076d57506000610758565b8282028284828161077a57fe5b04146107555760405162461bcd60e51b8152600401808060200182810382526021815260200180610b2f6021913960400191505060405180910390fd5b606061080c826040518060400160405280602081526020017f5361666545524332303a206c6f772d6c6576656c2063616c6c206661696c6564815250856001600160a01b03166109049092919063ffffffff16565b8051909150156102565780806020019051602081101561082b57600080fd5b50516102565760405162461bcd60e51b815260040180806020018281038252602a815260200180610b7f602a913960400191505060405180910390fd5b600081848411156108f75760405162461bcd60e51b81526004018080602001828103825283818151815260200191508051906020019080838360005b838110156108bc5781810151838201526020016108a4565b50505050905090810190601f1680156108e95780820380516001836020036101000a031916815260200191505b509250505060405180910390fd5b50508183035b9392505050565b6060610913848460008561091b565b949350505050565b60608247101561095c5760405162461bcd60e51b8152600401808060200182810382526026815260200180610b096026913960400191505060405180910390fd5b61096585610a77565b6109b6576040805162461bcd60e51b815260206004820152601d60248201527f416464726573733a2063616c6c20746f206e6f6e2d636f6e7472616374000000604482015290519081900360640190fd5b60006060866001600160a01b031685876040518082805190602001908083835b602083106109f55780518252601f1990920191602091820191016109d6565b6001836020036101000a03801982511681845116808217855250505050505090500191505060006040518083038185875af1925050503d8060008114610a57576040519150601f19603f3d011682016040523d82523d6000602084013e610a5c565b606091505b5091509150610a6c828286610a7d565b979650505050505050565b3b151590565b60608315610a8c5750816108fd565b825115610a9c5782518084602001fd5b60405162461bcd60e51b81526020600482018181528451602484015284518593919283926044019190850190808383600083156108bc5781810151838201526020016108a456fe5265776172644469737472696275746f723a20696e76616c6964206d73672e73656e646572416464726573733a20696e73756666696369656e742062616c616e636520666f722063616c6c536166654d6174683a206d756c7469706c69636174696f6e206f766572666c6f775265776172644469737472696275746f723a20696e76616c6964206c617374446973747269627574696f6e54696d655361666545524332303a204552433230206f7065726174696f6e20646964206e6f742073756363656564a26469706673582212201de2566518df64d12a10e3382b389d37e0a15eb583126c08e749aade2b17c4c164736f6c634300060c0033","linkReferences":{}},"methodIdentifiers":{"admin()":"f851a440","distribute()":"e4fc6b6d","gov()":"12d43a51","lastDistributionTime()":"75b17350","pendingRewards()":"eded3fda","rewardToken()":"f7c618c1","rewardTracker()":"6bcb411a","setAdmin(address)":"704b6c02","setGov(address)":"cfad57a2","setTokensPerInterval(uint256)":"18e20a03","tokensPerInterval()":"a8d93627","updateLastDistributionTime()":"3ae6d6eb","withdrawToken(address,address,uint256)":"01e33667"},"id":167}