{"abi":[{"type":"function","name":"emitPriceEvent","inputs":[{"name":"_token","type":"address","internalType":"address"},{"name":"_price","type":"uint256","internalType":"uint256"}],"outputs":[],"stateMutability":"nonpayable"},{"type":"function","name":"gov","inputs":[],"outputs":[{"name":"","type":"address","internalType":"address"}],"stateMutability":"view"},{"type":"function","name":"isPriceFeed","inputs":[{"name":"","type":"address","internalType":"address"}],"outputs":[{"name":"","type":"bool","internalType":"bool"}],"stateMutability":"view"},{"type":"function","name":"setGov","inputs":[{"name":"_gov","type":"address","internalType":"address"}],"outputs":[],"stateMutability":"nonpayable"},{"type":"function","name":"setIsPriceFeed","inputs":[{"name":"_priceFeed","type":"address","internalType":"address"},{"name":"_isPriceFeed","type":"bool","internalType":"bool"}],"outputs":[],"stateMutability":"nonpayable"},{"type":"event","name":"PriceUpdate","inputs":[{"name":"token","type":"address","indexed":false,"internalType":"address"},{"name":"price","type":"uint256","indexed":false,"internalType":"uint256"},{"name":"priceFeed","type":"address","indexed":false,"internalType":"address"}],"anonymous":false}],"bytecode":{"object":"0x608060405234801561001057600080fd5b50600080546001600160a01b03191633179055610341806100326000396000f3fe608060405234801561001057600080fd5b50600436106100575760003560e01c806312d43a511461005c57806357a94beb1461008057806369d4c924146100ba578063cfad57a2146100ea578063e0409c7114610110575b600080fd5b61006461013c565b604080516001600160a01b039092168252519081900360200190f35b6100a66004803603602081101561009657600080fd5b50356001600160a01b031661014b565b604080519115158252519081900360200190f35b6100e8600480360360408110156100d057600080fd5b506001600160a01b0381351690602001351515610160565b005b6100e86004803603602081101561010057600080fd5b50356001600160a01b03166101e2565b6100e86004803603604081101561012657600080fd5b506001600160a01b03813516906020013561025b565b6000546001600160a01b031681565b60016020526000908152604090205460ff1681565b6000546001600160a01b031633146101b7576040805162461bcd60e51b815260206004820152601560248201527423b7bb32b93730b136329d103337b93134b23232b760591b604482015290519081900360640190fd5b6001600160a01b03919091166000908152600160205260409020805460ff1916911515919091179055565b6000546001600160a01b03163314610239576040805162461bcd60e51b815260206004820152601560248201527423b7bb32b93730b136329d103337b93134b23232b760591b604482015290519081900360640190fd5b600080546001600160a01b0319166001600160a01b0392909216919091179055565b3360009081526001602052604090205460ff166102bf576040805162461bcd60e51b815260206004820152601f60248201527f4661737450726963654576656e74733a20696e76616c69642073656e64657200604482015290519081900360640190fd5b604080516001600160a01b038416815260208101839052338183015290517fc37a77b91cc3fc2d0e4b43fd2f347ec67adda10e39215de4742836cc3e42c97a9181900360600190a1505056fea2646970667358221220b04db0b047e31d141d625276e20ff082b50adc1e6041a1b6351e72f7dcefd5c564736f6c634300060c0033","linkReferences":{}},"methodIdentifiers":{"emitPriceEvent(address,uint256)":"e0409c71","gov()":"12d43a51","isPriceFeed(address)":"57a94beb","setGov(address)":"cfad57a2","setIsPriceFeed(address,bool)":"69d4c924"},"id":138}