{"abi":[{"type":"constructor","inputs":[],"stateMutability":"nonpayable"},{"type":"function","name":"BASIS_POINTS_DIVISOR","inputs":[],"outputs":[{"name":"","type":"uint256","internalType":"uint256"}],"stateMutability":"view"},{"type":"function","name":"FUNDING_RATE_PRECISION","inputs":[],"outputs":[{"name":"","type":"uint256","internalType":"uint256"}],"stateMutability":"view"},{"type":"function","name":"MAX_FEE_BASIS_POINTS","inputs":[],"outputs":[{"name":"","type":"uint256","internalType":"uint256"}],"stateMutability":"view"},{"type":"function","name":"MAX_FUNDING_RATE_FACTOR","inputs":[],"outputs":[{"name":"","type":"uint256","internalType":"uint256"}],"stateMutability":"view"},{"type":"function","name":"MAX_LIQUIDATION_FEE_USD","inputs":[],"outputs":[{"name":"","type":"uint256","internalType":"uint256"}],"stateMutability":"view"},{"type":"function","name":"MIN_FUNDING_RATE_INTERVAL","inputs":[],"outputs":[{"name":"","type":"uint256","internalType":"uint256"}],"stateMutability":"view"},{"type":"function","name":"MIN_LEVERAGE","inputs":[],"outputs":[{"name":"","type":"uint256","internalType":"uint256"}],"stateMutability":"view"},{"type":"function","name":"PRICE_PRECISION","inputs":[],"outputs":[{"name":"","type":"uint256","internalType":"uint256"}],"stateMutability":"view"},{"type":"function","name":"USDG_DECIMALS","inputs":[],"outputs":[{"name":"","type":"uint256","internalType":"uint256"}],"stateMutability":"view"},{"type":"function","name":"addRouter","inputs":[{"name":"_router","type":"address","internalType":"address"}],"outputs":[],"stateMutability":"nonpayable"},{"type":"function","name":"adjustForDecimals","inputs":[{"name":"_amount","type":"uint256","internalType":"uint256"},{"name":"_tokenDiv","type":"address","internalType":"address"},{"name":"_tokenMul","type":"address","internalType":"address"}],"outputs":[{"name":"","type":"uint256","internalType":"uint256"}],"stateMutability":"view"},{"type":"function","name":"allWhitelistedTokens","inputs":[{"name":"","type":"uint256","internalType":"uint256"}],"outputs":[{"name":"","type":"address","internalType":"address"}],"stateMutability":"view"},{"type":"function","name":"allWhitelistedTokensLength","inputs":[],"outputs":[{"name":"","type":"uint256","internalType":"uint256"}],"stateMutability":"view"},{"type":"function","name":"approvedRouters","inputs":[{"name":"","type":"address","internalType":"address"},{"name":"","type":"address","internalType":"address"}],"outputs":[{"name":"","type":"bool","internalType":"bool"}],"stateMutability":"view"},{"type":"function","name":"bufferAmounts","inputs":[{"name":"","type":"address","internalType":"address"}],"outputs":[{"name":"","type":"uint256","internalType":"uint256"}],"stateMutability":"view"},{"type":"function","name":"buyUSDG","inputs":[{"name":"_token","type":"address","internalType":"address"},{"name":"_receiver","type":"address","internalType":"address"}],"outputs":[{"name":"","type":"uint256","internalType":"uint256"}],"stateMutability":"nonpayable"},{"type":"function","name":"clearTokenConfig","inputs":[{"name":"_token","type":"address","internalType":"address"}],"outputs":[],"stateMutability":"nonpayable"},{"type":"function","name":"cumulativeFundingRates","inputs":[{"name":"","type":"address","internalType":"address"}],"outputs":[{"name":"","type":"uint256","internalType":"uint256"}],"stateMutability":"view"},{"type":"function","name":"decreasePosition","inputs":[{"name":"_account","type":"address","internalType":"address"},{"name":"_collateralToken","type":"address","internalType":"address"},{"name":"_indexToken","type":"address","internalType":"address"},{"name":"_collateralDelta","type":"uint256","internalType":"uint256"},{"name":"_sizeDelta","type":"uint256","internalType":"uint256"},{"name":"_isLong","type":"bool","internalType":"bool"},{"name":"_receiver","type":"address","internalType":"address"}],"outputs":[{"name":"","type":"uint256","internalType":"uint256"}],"stateMutability":"nonpayable"},{"type":"function","name":"directPoolDeposit","inputs":[{"name":"_token","type":"address","internalType":"address"}],"outputs":[],"stateMutability":"nonpayable"},{"type":"function","name":"errorController","inputs":[],"outputs":[{"name":"","type":"address","internalType":"address"}],"stateMutability":"view"},{"type":"function","name":"feeReserves","inputs":[{"name":"","type":"address","internalType":"address"}],"outputs":[{"name":"","type":"uint256","internalType":"uint256"}],"stateMutability":"view"},{"type":"function","name":"fundingInterval","inputs":[],"outputs":[{"name":"","type":"uint256","internalType":"uint256"}],"stateMutability":"view"},{"type":"function","name":"fundingRateFactor","inputs":[],"outputs":[{"name":"","type":"uint256","internalType":"uint256"}],"stateMutability":"view"},{"type":"function","name":"getDelta","inputs":[{"name":"_indexToken","type":"address","internalType":"address"},{"name":"_size","type":"uint256","internalType":"uint256"},{"name":"_averagePrice","type":"uint256","internalType":"uint256"},{"name":"_isLong","type":"bool","internalType":"bool"},{"name":"_lastIncreasedTime","type":"uint256","internalType":"uint256"}],"outputs":[{"name":"","type":"bool","internalType":"bool"},{"name":"","type":"uint256","internalType":"uint256"}],"stateMutability":"view"},{"type":"function","name":"getEntryFundingRate","inputs":[{"name":"_collateralToken","type":"address","internalType":"address"},{"name":"_indexToken","type":"address","internalType":"address"},{"name":"_isLong","type":"bool","internalType":"bool"}],"outputs":[{"name":"","type":"uint256","internalType":"uint256"}],"stateMutability":"view"},{"type":"function","name":"getFeeBasisPoints","inputs":[{"name":"_token","type":"address","internalType":"address"},{"name":"_usdgDelta","type":"uint256","internalType":"uint256"},{"name":"_feeBasisPoints","type":"uint256","internalType":"uint256"},{"name":"_taxBasisPoints","type":"uint256","internalType":"uint256"},{"name":"_increment","type":"bool","internalType":"bool"}],"outputs":[{"name":"","type":"uint256","internalType":"uint256"}],"stateMutability":"view"},{"type":"function","name":"getFundingFee","inputs":[{"name":"_account","type":"address","internalType":"address"},{"name":"_collateralToken","type":"address","internalType":"address"},{"name":"_indexToken","type":"address","internalType":"address"},{"name":"_isLong","type":"bool","internalType":"bool"},{"name":"_size","type":"uint256","internalType":"uint256"},{"name":"_entryFundingRate","type":"uint256","internalType":"uint256"}],"outputs":[{"name":"","type":"uint256","internalType":"uint256"}],"stateMutability":"view"},{"type":"function","name":"getGlobalShortDelta","inputs":[{"name":"_token","type":"address","internalType":"address"}],"outputs":[{"name":"","type":"bool","internalType":"bool"},{"name":"","type":"uint256","internalType":"uint256"}],"stateMutability":"view"},{"type":"function","name":"getMaxPrice","inputs":[{"name":"_token","type":"address","internalType":"address"}],"outputs":[{"name":"","type":"uint256","internalType":"uint256"}],"stateMutability":"view"},{"type":"function","name":"getMinPrice","inputs":[{"name":"_token","type":"address","internalType":"address"}],"outputs":[{"name":"","type":"uint256","internalType":"uint256"}],"stateMutability":"view"},{"type":"function","name":"getNextAveragePrice","inputs":[{"name":"_indexToken","type":"address","internalType":"address"},{"name":"_size","type":"uint256","internalType":"uint256"},{"name":"_averagePrice","type":"uint256","internalType":"uint256"},{"name":"_isLong","type":"bool","internalType":"bool"},{"name":"_nextPrice","type":"uint256","internalType":"uint256"},{"name":"_sizeDelta","type":"uint256","internalType":"uint256"},{"name":"_lastIncreasedTime","type":"uint256","internalType":"uint256"}],"outputs":[{"name":"","type":"uint256","internalType":"uint256"}],"stateMutability":"view"},{"type":"function","name":"getNextFundingRate","inputs":[{"name":"_token","type":"address","internalType":"address"}],"outputs":[{"name":"","type":"uint256","internalType":"uint256"}],"stateMutability":"view"},{"type":"function","name":"getNextGlobalShortAveragePrice","inputs":[{"name":"_indexToken","type":"address","internalType":"address"},{"name":"_nextPrice","type":"uint256","internalType":"uint256"},{"name":"_sizeDelta","type":"uint256","internalType":"uint256"}],"outputs":[{"name":"","type":"uint256","internalType":"uint256"}],"stateMutability":"view"},{"type":"function","name":"getPosition","inputs":[{"name":"_account","type":"address","internalType":"address"},{"name":"_collateralToken","type":"address","internalType":"address"},{"name":"_indexToken","type":"address","internalType":"address"},{"name":"_isLong","type":"bool","internalType":"bool"}],"outputs":[{"name":"","type":"uint256","internalType":"uint256"},{"name":"","type":"uint256","internalType":"uint256"},{"name":"","type":"uint256","internalType":"uint256"},{"name":"","type":"uint256","internalType":"uint256"},{"name":"","type":"uint256","internalType":"uint256"},{"name":"","type":"uint256","internalType":"uint256"},{"name":"","type":"bool","internalType":"bool"},{"name":"","type":"uint256","internalType":"uint256"}],"stateMutability":"view"},{"type":"function","name":"getPositionDelta","inputs":[{"name":"_account","type":"address","internalType":"address"},{"name":"_collateralToken","type":"address","internalType":"address"},{"name":"_indexToken","type":"address","internalType":"address"},{"name":"_isLong","type":"bool","internalType":"bool"}],"outputs":[{"name":"","type":"bool","internalType":"bool"},{"name":"","type":"uint256","internalType":"uint256"}],"stateMutability":"view"},{"type":"function","name":"getPositionFee","inputs":[{"name":"_account","type":"address","internalType":"address"},{"name":"_collateralToken","type":"address","internalType":"address"},{"name":"_indexToken","type":"address","internalType":"address"},{"name":"_isLong","type":"bool","internalType":"bool"},{"name":"_sizeDelta","type":"uint256","internalType":"uint256"}],"outputs":[{"name":"","type":"uint256","internalType":"uint256"}],"stateMutability":"view"},{"type":"function","name":"getPositionKey","inputs":[{"name":"_account","type":"address","internalType":"address"},{"name":"_collateralToken","type":"address","internalType":"address"},{"name":"_indexToken","type":"address","internalType":"address"},{"name":"_isLong","type":"bool","internalType":"bool"}],"outputs":[{"name":"","type":"bytes32","internalType":"bytes32"}],"stateMutability":"pure"},{"type":"function","name":"getPositionLeverage","inputs":[{"name":"_account","type":"address","internalType":"address"},{"name":"_collateralToken","type":"address","internalType":"address"},{"name":"_indexToken","type":"address","internalType":"address"},{"name":"_isLong","type":"bool","internalType":"bool"}],"outputs":[{"name":"","type":"uint256","internalType":"uint256"}],"stateMutability":"view"},{"type":"function","name":"getRedemptionAmount","inputs":[{"name":"_token","type":"address","internalType":"address"},{"name":"_usdgAmount","type":"uint256","internalType":"uint256"}],"outputs":[{"name":"","type":"uint256","internalType":"uint256"}],"stateMutability":"view"},{"type":"function","name":"getRedemptionCollateral","inputs":[{"name":"_token","type":"address","internalType":"address"}],"outputs":[{"name":"","type":"uint256","internalType":"uint256"}],"stateMutability":"view"},{"type":"function","name":"getRedemptionCollateralUsd","inputs":[{"name":"_token","type":"address","internalType":"address"}],"outputs":[{"name":"","type":"uint256","internalType":"uint256"}],"stateMutability":"view"},{"type":"function","name":"getTargetUsdgAmount","inputs":[{"name":"_token","type":"address","internalType":"address"}],"outputs":[{"name":"","type":"uint256","internalType":"uint256"}],"stateMutability":"view"},{"type":"function","name":"getUtilisation","inputs":[{"name":"_token","type":"address","internalType":"address"}],"outputs":[{"name":"","type":"uint256","internalType":"uint256"}],"stateMutability":"view"},{"type":"function","name":"globalShortAveragePrices","inputs":[{"name":"","type":"address","internalType":"address"}],"outputs":[{"name":"","type":"uint256","internalType":"uint256"}],"stateMutability":"view"},{"type":"function","name":"globalShortSizes","inputs":[{"name":"","type":"address","internalType":"address"}],"outputs":[{"name":"","type":"uint256","internalType":"uint256"}],"stateMutability":"view"},{"type":"function","name":"gov","inputs":[],"outputs":[{"name":"","type":"address","internalType":"address"}],"stateMutability":"view"},{"type":"function","name":"guaranteedUsd","inputs":[{"name":"","type":"address","internalType":"address"}],"outputs":[{"name":"","type":"uint256","internalType":"uint256"}],"stateMutability":"view"},{"type":"function","name":"hasDynamicFees","inputs":[],"outputs":[{"name":"","type":"bool","internalType":"bool"}],"stateMutability":"view"},{"type":"function","name":"inManagerMode","inputs":[],"outputs":[{"name":"","type":"bool","internalType":"bool"}],"stateMutability":"view"},{"type":"function","name":"inPrivateLiquidationMode","inputs":[],"outputs":[{"name":"","type":"bool","internalType":"bool"}],"stateMutability":"view"},{"type":"function","name":"includeAmmPrice","inputs":[],"outputs":[{"name":"","type":"bool","internalType":"bool"}],"stateMutability":"view"},{"type":"function","name":"increasePosition","inputs":[{"name":"_account","type":"address","internalType":"address"},{"name":"_collateralToken","type":"address","internalType":"address"},{"name":"_indexToken","type":"address","internalType":"address"},{"name":"_sizeDelta","type":"uint256","internalType":"uint256"},{"name":"_isLong","type":"bool","internalType":"bool"}],"outputs":[],"stateMutability":"nonpayable"},{"type":"function","name":"initialize","inputs":[{"name":"_router","type":"address","internalType":"address"},{"name":"_usdg","type":"address","internalType":"address"},{"name":"_priceFeed","type":"address","internalType":"address"},{"name":"_liquidationFeeUsd","type":"uint256","internalType":"uint256"},{"name":"_fundingRateFactor","type":"uint256","internalType":"uint256"},{"name":"_stableFundingRateFactor","type":"uint256","internalType":"uint256"}],"outputs":[],"stateMutability":"nonpayable"},{"type":"function","name":"isInitialized","inputs":[],"outputs":[{"name":"","type":"bool","internalType":"bool"}],"stateMutability":"view"},{"type":"function","name":"isLeverageEnabled","inputs":[],"outputs":[{"name":"","type":"bool","internalType":"bool"}],"stateMutability":"view"},{"type":"function","name":"isLiquidator","inputs":[{"name":"","type":"address","internalType":"address"}],"outputs":[{"name":"","type":"bool","internalType":"bool"}],"stateMutability":"view"},{"type":"function","name":"isManager","inputs":[{"name":"","type":"address","internalType":"address"}],"outputs":[{"name":"","type":"bool","internalType":"bool"}],"stateMutability":"view"},{"type":"function","name":"isSwapEnabled","inputs":[],"outputs":[{"name":"","type":"bool","internalType":"bool"}],"stateMutability":"view"},{"type":"function","name":"lastFundingTimes","inputs":[{"name":"","type":"address","internalType":"address"}],"outputs":[{"name":"","type":"uint256","internalType":"uint256"}],"stateMutability":"view"},{"type":"function","name":"liquidatePosition","inputs":[{"name":"_account","type":"address","internalType":"address"},{"name":"_collateralToken","type":"address","internalType":"address"},{"name":"_indexToken","type":"address","internalType":"address"},{"name":"_isLong","type":"bool","internalType":"bool"},{"name":"_feeReceiver","type":"address","internalType":"address"}],"outputs":[],"stateMutability":"nonpayable"},{"type":"function","name":"liquidationFeeUsd","inputs":[],"outputs":[{"name":"","type":"uint256","internalType":"uint256"}],"stateMutability":"view"},{"type":"function","name":"marginFeeBasisPoints","inputs":[],"outputs":[{"name":"","type":"uint256","internalType":"uint256"}],"stateMutability":"view"},{"type":"function","name":"maxGasPrice","inputs":[],"outputs":[{"name":"","type":"uint256","internalType":"uint256"}],"stateMutability":"view"},{"type":"function","name":"maxGlobalShortSizes","inputs":[{"name":"","type":"address","internalType":"address"}],"outputs":[{"name":"","type":"uint256","internalType":"uint256"}],"stateMutability":"view"},{"type":"function","name":"maxLeverage","inputs":[],"outputs":[{"name":"","type":"uint256","internalType":"uint256"}],"stateMutability":"view"},{"type":"function","name":"maxUsdgAmounts","inputs":[{"name":"","type":"address","internalType":"address"}],"outputs":[{"name":"","type":"uint256","internalType":"uint256"}],"stateMutability":"view"},{"type":"function","name":"minProfitBasisPoints","inputs":[{"name":"","type":"address","internalType":"address"}],"outputs":[{"name":"","type":"uint256","internalType":"uint256"}],"stateMutability":"view"},{"type":"function","name":"minProfitTime","inputs":[],"outputs":[{"name":"","type":"uint256","internalType":"uint256"}],"stateMutability":"view"},{"type":"function","name":"mintBurnFeeBasisPoints","inputs":[],"outputs":[{"name":"","type":"uint256","internalType":"uint256"}],"stateMutability":"view"},{"type":"function","name":"poolAmounts","inputs":[{"name":"","type":"address","internalType":"address"}],"outputs":[{"name":"","type":"uint256","internalType":"uint256"}],"stateMutability":"view"},{"type":"function","name":"priceFeed","inputs":[],"outputs":[{"name":"","type":"address","internalType":"address"}],"stateMutability":"view"},{"type":"function","name":"removeRouter","inputs":[{"name":"_router","type":"address","internalType":"address"}],"outputs":[],"stateMutability":"nonpayable"},{"type":"function","name":"reservedAmounts","inputs":[{"name":"","type":"address","internalType":"address"}],"outputs":[{"name":"","type":"uint256","internalType":"uint256"}],"stateMutability":"view"},{"type":"function","name":"router","inputs":[],"outputs":[{"name":"","type":"address","internalType":"address"}],"stateMutability":"view"},{"type":"function","name":"sellUSDG","inputs":[{"name":"_token","type":"address","internalType":"address"},{"name":"_receiver","type":"address","internalType":"address"}],"outputs":[{"name":"","type":"uint256","internalType":"uint256"}],"stateMutability":"nonpayable"},{"type":"function","name":"setBufferAmount","inputs":[{"name":"_token","type":"address","internalType":"address"},{"name":"_amount","type":"uint256","internalType":"uint256"}],"outputs":[],"stateMutability":"nonpayable"},{"type":"function","name":"setError","inputs":[{"name":"_errorCode","type":"uint256","internalType":"uint256"},{"name":"_error","type":"string","internalType":"string"}],"outputs":[],"stateMutability":"nonpayable"},{"type":"function","name":"setErrorController","inputs":[{"name":"_errorController","type":"address","internalType":"address"}],"outputs":[],"stateMutability":"nonpayable"},{"type":"function","name":"setFees","inputs":[{"name":"_taxBasisPoints","type":"uint256","internalType":"uint256"},{"name":"_stableTaxBasisPoints","type":"uint256","internalType":"uint256"},{"name":"_mintBurnFeeBasisPoints","type":"uint256","internalType":"uint256"},{"name":"_swapFeeBasisPoints","type":"uint256","internalType":"uint256"},{"name":"_stableSwapFeeBasisPoints","type":"uint256","internalType":"uint256"},{"name":"_marginFeeBasisPoints","type":"uint256","internalType":"uint256"},{"name":"_liquidationFeeUsd","type":"uint256","internalType":"uint256"},{"name":"_minProfitTime","type":"uint256","internalType":"uint256"},{"name":"_hasDynamicFees","type":"bool","internalType":"bool"}],"outputs":[],"stateMutability":"nonpayable"},{"type":"function","name":"setFundingRate","inputs":[{"name":"_fundingInterval","type":"uint256","internalType":"uint256"},{"name":"_fundingRateFactor","type":"uint256","internalType":"uint256"},{"name":"_stableFundingRateFactor","type":"uint256","internalType":"uint256"}],"outputs":[],"stateMutability":"nonpayable"},{"type":"function","name":"setGov","inputs":[{"name":"_gov","type":"address","internalType":"address"}],"outputs":[],"stateMutability":"nonpayable"},{"type":"function","name":"setInManagerMode","inputs":[{"name":"_inManagerMode","type":"bool","internalType":"bool"}],"outputs":[],"stateMutability":"nonpayable"},{"type":"function","name":"setInPrivateLiquidationMode","inputs":[{"name":"_inPrivateLiquidationMode","type":"bool","internalType":"bool"}],"outputs":[],"stateMutability":"nonpayable"},{"type":"function","name":"setIsLeverageEnabled","inputs":[{"name":"_isLeverageEnabled","type":"bool","internalType":"bool"}],"outputs":[],"stateMutability":"nonpayable"},{"type":"function","name":"setIsSwapEnabled","inputs":[{"name":"_isSwapEnabled","type":"bool","internalType":"bool"}],"outputs":[],"stateMutability":"nonpayable"},{"type":"function","name":"setLiquidator","inputs":[{"name":"_liquidator","type":"address","internalType":"address"},{"name":"_isActive","type":"bool","internalType":"bool"}],"outputs":[],"stateMutability":"nonpayable"},{"type":"function","name":"setManager","inputs":[{"name":"_manager","type":"address","internalType":"address"},{"name":"_isManager","type":"bool","internalType":"bool"}],"outputs":[],"stateMutability":"nonpayable"},{"type":"function","name":"setMaxGasPrice","inputs":[{"name":"_maxGasPrice","type":"uint256","internalType":"uint256"}],"outputs":[],"stateMutability":"nonpayable"},{"type":"function","name":"setMaxGlobalShortSize","inputs":[{"name":"_token","type":"address","internalType":"address"},{"name":"_amount","type":"uint256","internalType":"uint256"}],"outputs":[],"stateMutability":"nonpayable"},{"type":"function","name":"setMaxLeverage","inputs":[{"name":"_maxLeverage","type":"uint256","internalType":"uint256"}],"outputs":[],"stateMutability":"nonpayable"},{"type":"function","name":"setPriceFeed","inputs":[{"name":"_priceFeed","type":"address","internalType":"address"}],"outputs":[],"stateMutability":"nonpayable"},{"type":"function","name":"setTokenConfig","inputs":[{"name":"_token","type":"address","internalType":"address"},{"name":"_tokenDecimals","type":"uint256","internalType":"uint256"},{"name":"_tokenWeight","type":"uint256","internalType":"uint256"},{"name":"_minProfitBps","type":"uint256","internalType":"uint256"},{"name":"_maxUsdgAmount","type":"uint256","internalType":"uint256"},{"name":"_isStable","type":"bool","internalType":"bool"},{"name":"_isShortable","type":"bool","internalType":"bool"}],"outputs":[],"stateMutability":"nonpayable"},{"type":"function","name":"setUsdgAmount","inputs":[{"name":"_token","type":"address","internalType":"address"},{"name":"_amount","type":"uint256","internalType":"uint256"}],"outputs":[],"stateMutability":"nonpayable"},{"type":"function","name":"setVaultUtils","inputs":[{"name":"_vaultUtils","type":"address","internalType":"contract IVaultUtils"}],"outputs":[],"stateMutability":"nonpayable"},{"type":"function","name":"shortableTokens","inputs":[{"name":"","type":"address","internalType":"address"}],"outputs":[{"name":"","type":"bool","internalType":"bool"}],"stateMutability":"view"},{"type":"function","name":"stableFundingRateFactor","inputs":[],"outputs":[{"name":"","type":"uint256","internalType":"uint256"}],"stateMutability":"view"},{"type":"function","name":"stableSwapFeeBasisPoints","inputs":[],"outputs":[{"name":"","type":"uint256","internalType":"uint256"}],"stateMutability":"view"},{"type":"function","name":"stableTaxBasisPoints","inputs":[],"outputs":[{"name":"","type":"uint256","internalType":"uint256"}],"stateMutability":"view"},{"type":"function","name":"stableTokens","inputs":[{"name":"","type":"address","internalType":"address"}],"outputs":[{"name":"","type":"bool","internalType":"bool"}],"stateMutability":"view"},{"type":"function","name":"swap","inputs":[{"name":"_tokenIn","type":"address","internalType":"address"},{"name":"_tokenOut","type":"address","internalType":"address"},{"name":"_receiver","type":"address","internalType":"address"}],"outputs":[{"name":"","type":"uint256","internalType":"uint256"}],"stateMutability":"nonpayable"},{"type":"function","name":"swapFeeBasisPoints","inputs":[],"outputs":[{"name":"","type":"uint256","internalType":"uint256"}],"stateMutability":"view"},{"type":"function","name":"taxBasisPoints","inputs":[],"outputs":[{"name":"","type":"uint256","internalType":"uint256"}],"stateMutability":"view"},{"type":"function","name":"tokenBalances","inputs":[{"name":"","type":"address","internalType":"address"}],"outputs":[{"name":"","type":"uint256","internalType":"uint256"}],"stateMutability":"view"},{"type":"function","name":"tokenDecimals","inputs":[{"name":"","type":"address","internalType":"address"}],"outputs":[{"name":"","type":"uint256","internalType":"uint256"}],"stateMutability":"view"},{"type":"function","name":"tokenToUsdMin","inputs":[{"name":"_token","type":"address","internalType":"address"},{"name":"_tokenAmount","type":"uint256","internalType":"uint256"}],"outputs":[{"name":"","type":"uint256","internalType":"uint256"}],"stateMutability":"view"},{"type":"function","name":"tokenWeights","inputs":[{"name":"","type":"address","internalType":"address"}],"outputs":[{"name":"","type":"uint256","internalType":"uint256"}],"stateMutability":"view"},{"type":"function","name":"totalTokenWeights","inputs":[],"outputs":[{"name":"","type":"uint256","internalType":"uint256"}],"stateMutability":"view"},{"type":"function","name":"updateCumulativeFundingRate","inputs":[{"name":"_collateralToken","type":"address","internalType":"address"},{"name":"_indexToken","type":"address","internalType":"address"}],"outputs":[],"stateMutability":"nonpayable"},{"type":"function","name":"upgradeVault","inputs":[{"name":"_newVault","type":"address","internalType":"address"},{"name":"_token","type":"address","internalType":"address"},{"name":"_amount","type":"uint256","internalType":"uint256"}],"outputs":[],"stateMutability":"nonpayable"},{"type":"function","name":"usdToToken","inputs":[{"name":"_token","type":"address","internalType":"address"},{"name":"_usdAmount","type":"uint256","internalType":"uint256"},{"name":"_price","type":"uint256","internalType":"uint256"}],"outputs":[{"name":"","type":"uint256","internalType":"uint256"}],"stateMutability":"view"},{"type":"function","name":"usdToTokenMax","inputs":[{"name":"_token","type":"address","internalType":"address"},{"name":"_usdAmount","type":"uint256","internalType":"uint256"}],"outputs":[{"name":"","type":"uint256","internalType":"uint256"}],"stateMutability":"view"},{"type":"function","name":"usdToTokenMin","inputs":[{"name":"_token","type":"address","internalType":"address"},{"name":"_usdAmount","type":"uint256","internalType":"uint256"}],"outputs":[{"name":"","type":"uint256","internalType":"uint256"}],"stateMutability":"view"},{"type":"function","name":"usdg","inputs":[],"outputs":[{"name":"","type":"address","internalType":"address"}],"stateMutability":"view"},{"type":"function","name":"usdgAmounts","inputs":[{"name":"","type":"address","internalType":"address"}],"outputs":[{"name":"","type":"uint256","internalType":"uint256"}],"stateMutability":"view"},{"type":"function","name":"useSwapPricing","inputs":[],"outputs":[{"name":"","type":"bool","internalType":"bool"}],"stateMutability":"view"},{"type":"function","name":"validateLiquidation","inputs":[{"name":"_account","type":"address","internalType":"address"},{"name":"_collateralToken","type":"address","internalType":"address"},{"name":"_indexToken","type":"address","internalType":"address"},{"name":"_isLong","type":"bool","internalType":"bool"},{"name":"_raise","type":"bool","internalType":"bool"}],"outputs":[{"name":"","type":"uint256","internalType":"uint256"},{"name":"","type":"uint256","internalType":"uint256"}],"stateMutability":"view"},{"type":"function","name":"vaultUtils","inputs":[],"outputs":[{"name":"","type":"address","internalType":"contract IVaultUtils"}],"stateMutability":"view"},{"type":"function","name":"whitelistedTokenCount","inputs":[],"outputs":[{"name":"","type":"uint256","internalType":"uint256"}],"stateMutability":"view"},{"type":"function","name":"whitelistedTokens","inputs":[{"name":"","type":"address","internalType":"address"}],"outputs":[{"name":"","type":"bool","internalType":"bool"}],"stateMutability":"view"},{"type":"function","name":"withdrawFees","inputs":[{"name":"_token","type":"address","internalType":"address"},{"name":"_receiver","type":"address","internalType":"address"}],"outputs":[{"name":"","type":"uint256","internalType":"uint256"}],"stateMutability":"nonpayable"},{"type":"event","name":"BuyUSDG","inputs":[{"name":"account","type":"address","indexed":false,"internalType":"address"},{"name":"token","type":"address","indexed":false,"internalType":"address"},{"name":"tokenAmount","type":"uint256","indexed":false,"internalType":"uint256"},{"name":"usdgAmount","type":"uint256","indexed":false,"internalType":"uint256"},{"name":"feeBasisPoints","type":"uint256","indexed":false,"internalType":"uint256"}],"anonymous":false},{"type":"event","name":"ClosePosition","inputs":[{"name":"key","type":"bytes32","indexed":false,"internalType":"bytes32"},{"name":"size","type":"uint256","indexed":false,"internalType":"uint256"},{"name":"collateral","type":"uint256","indexed":false,"internalType":"uint256"},{"name":"averagePrice","type":"uint256","indexed":false,"internalType":"uint256"},{"name":"entryFundingRate","type":"uint256","indexed":false,"internalType":"uint256"},{"name":"reserveAmount","type":"uint256","indexed":false,"internalType":"uint256"},{"name":"realisedPnl","type":"int256","indexed":false,"internalType":"int256"}],"anonymous":false},{"type":"event","name":"CollectMarginFees","inputs":[{"name":"token","type":"address","indexed":false,"internalType":"address"},{"name":"feeUsd","type":"uint256","indexed":false,"internalType":"uint256"},{"name":"feeTokens","type":"uint256","indexed":false,"internalType":"uint256"}],"anonymous":false},{"type":"event","name":"CollectSwapFees","inputs":[{"name":"token","type":"address","indexed":false,"internalType":"address"},{"name":"feeUsd","type":"uint256","indexed":false,"internalType":"uint256"},{"name":"feeTokens","type":"uint256","indexed":false,"internalType":"uint256"}],"anonymous":false},{"type":"event","name":"DecreaseGuaranteedUsd","inputs":[{"name":"token","type":"address","indexed":false,"internalType":"address"},{"name":"amount","type":"uint256","indexed":false,"internalType":"uint256"}],"anonymous":false},{"type":"event","name":"DecreasePoolAmount","inputs":[{"name":"token","type":"address","indexed":false,"internalType":"address"},{"name":"amount","type":"uint256","indexed":false,"internalType":"uint256"}],"anonymous":false},{"type":"event","name":"DecreasePosition","inputs":[{"name":"key","type":"bytes32","indexed":false,"internalType":"bytes32"},{"name":"account","type":"address","indexed":false,"internalType":"address"},{"name":"collateralToken","type":"address","indexed":false,"internalType":"address"},{"name":"indexToken","type":"address","indexed":false,"internalType":"address"},{"name":"collateralDelta","type":"uint256","indexed":false,"internalType":"uint256"},{"name":"sizeDelta","type":"uint256","indexed":false,"internalType":"uint256"},{"name":"isLong","type":"bool","indexed":false,"internalType":"bool"},{"name":"price","type":"uint256","indexed":false,"internalType":"uint256"},{"name":"fee","type":"uint256","indexed":false,"internalType":"uint256"}],"anonymous":false},{"type":"event","name":"DecreaseReservedAmount","inputs":[{"name":"token","type":"address","indexed":false,"internalType":"address"},{"name":"amount","type":"uint256","indexed":false,"internalType":"uint256"}],"anonymous":false},{"type":"event","name":"DecreaseUsdgAmount","inputs":[{"name":"token","type":"address","indexed":false,"internalType":"address"},{"name":"amount","type":"uint256","indexed":false,"internalType":"uint256"}],"anonymous":false},{"type":"event","name":"DirectPoolDeposit","inputs":[{"name":"token","type":"address","indexed":false,"internalType":"address"},{"name":"amount","type":"uint256","indexed":false,"internalType":"uint256"}],"anonymous":false},{"type":"event","name":"IncreaseGuaranteedUsd","inputs":[{"name":"token","type":"address","indexed":false,"internalType":"address"},{"name":"amount","type":"uint256","indexed":false,"internalType":"uint256"}],"anonymous":false},{"type":"event","name":"IncreasePoolAmount","inputs":[{"name":"token","type":"address","indexed":false,"internalType":"address"},{"name":"amount","type":"uint256","indexed":false,"internalType":"uint256"}],"anonymous":false},{"type":"event","name":"IncreasePosition","inputs":[{"name":"key","type":"bytes32","indexed":false,"internalType":"bytes32"},{"name":"account","type":"address","indexed":false,"internalType":"address"},{"name":"collateralToken","type":"address","indexed":false,"internalType":"address"},{"name":"indexToken","type":"address","indexed":false,"internalType":"address"},{"name":"collateralDelta","type":"uint256","indexed":false,"internalType":"uint256"},{"name":"sizeDelta","type":"uint256","indexed":false,"internalType":"uint256"},{"name":"isLong","type":"bool","indexed":false,"internalType":"bool"},{"name":"price","type":"uint256","indexed":false,"internalType":"uint256"},{"name":"fee","type":"uint256","indexed":false,"internalType":"uint256"}],"anonymous":false},{"type":"event","name":"IncreaseReservedAmount","inputs":[{"name":"token","type":"address","indexed":false,"internalType":"address"},{"name":"amount","type":"uint256","indexed":false,"internalType":"uint256"}],"anonymous":false},{"type":"event","name":"IncreaseUsdgAmount","inputs":[{"name":"token","type":"address","indexed":false,"internalType":"address"},{"name":"amount","type":"uint256","indexed":false,"internalType":"uint256"}],"anonymous":false},{"type":"event","name":"LiquidatePosition","inputs":[{"name":"key","type":"bytes32","indexed":false,"internalType":"bytes32"},{"name":"account","type":"address","indexed":false,"internalType":"address"},{"name":"collateralToken","type":"address","indexed":false,"internalType":"address"},{"name":"indexToken","type":"address","indexed":false,"internalType":"address"},{"name":"isLong","type":"bool","indexed":false,"internalType":"bool"},{"name":"size","type":"uint256","indexed":false,"internalType":"uint256"},{"name":"collateral","type":"uint256","indexed":false,"internalType":"uint256"},{"name":"reserveAmount","type":"uint256","indexed":false,"internalType":"uint256"},{"name":"realisedPnl","type":"int256","indexed":false,"internalType":"int256"},{"name":"markPrice","type":"uint256","indexed":false,"internalType":"uint256"}],"anonymous":false},{"type":"event","name":"SellUSDG","inputs":[{"name":"account","type":"address","indexed":false,"internalType":"address"},{"name":"token","type":"address","indexed":false,"internalType":"address"},{"name":"usdgAmount","type":"uint256","indexed":false,"internalType":"uint256"},{"name":"tokenAmount","type":"uint256","indexed":false,"internalType":"uint256"},{"name":"feeBasisPoints","type":"uint256","indexed":false,"internalType":"uint256"}],"anonymous":false},{"type":"event","name":"Swap","inputs":[{"name":"account","type":"address","indexed":false,"internalType":"address"},{"name":"tokenIn","type":"address","indexed":false,"internalType":"address"},{"name":"tokenOut","type":"address","indexed":false,"internalType":"address"},{"name":"amountIn","type":"uint256","indexed":false,"internalType":"uint256"},{"name":"amountOut","type":"uint256","indexed":false,"internalType":"uint256"},{"name":"amountOutAfterFees","type":"uint256","indexed":false,"internalType":"uint256"},{"name":"feeBasisPoints","type":"uint256","indexed":false,"internalType":"uint256"}],"anonymous":false},{"type":"event","name":"UpdateFundingRate","inputs":[{"name":"token","type":"address","indexed":false,"internalType":"address"},{"name":"fundingRate","type":"uint256","indexed":false,"internalType":"uint256"}],"anonymous":false},{"type":"event","name":"UpdatePnl","inputs":[{"name":"key","type":"bytes32","indexed":false,"internalType":"bytes32"},{"name":"hasProfit","type":"bool","indexed":false,"internalType":"bool"},{"name":"delta","type":"uint256","indexed":false,"internalType":"uint256"}],"anonymous":false},{"type":"event","name":"UpdatePosition","inputs":[{"name":"key","type":"bytes32","indexed":false,"internalType":"bytes32"},{"name":"size","type":"uint256","indexed":false,"internalType":"uint256"},{"name":"collateral","type":"uint256","indexed":false,"internalType":"uint256"},{"name":"averagePrice","type":"uint256","indexed":false,"internalType":"uint256"},{"name":"entryFundingRate","type":"uint256","indexed":false,"internalType":"uint256"},{"name":"reserveAmount","type":"uint256","indexed":false,"internalType":"uint256"},{"name":"realisedPnl","type":"int256","indexed":false,"internalType":"int256"},{"name":"markPrice","type":"uint256","indexed":false,"internalType":"uint256"}],"anonymous":false}],"bytecode":{"object":"0x60806040526001805462ff00001961ff00199091166101001716620100001781556207a1206008556032600a9081556014600b55601e600c819055600d556004600e55600f556011805460ff199081169091556170806012556016805463ffffff0019921690921716905534801561007657600080fd5b506001600055600680546001600160a01b03191633179055615f3b806200009e6000396000f3fe608060405234801561001057600080fd5b50600436106107435760003560e01c80638585f4d2116103be578063c65bc7b1116101ff578063de2ea94811610125578063f2555278116100b8578063fa12dbc011610087578063fa12dbc014611783578063fbfded6d146117b5578063fce28c10146117e3578063fdaf6ac3146117eb57610743565b8063f25552781461171f578063f3ae24151461174d578063f5b91b7b14611773578063f887ea401461177b57610743565b8063e67f59a7116100f4578063e67f59a714611688578063efa10a6e146116ae578063f07456ce146116da578063f07bbf771461170057610743565b8063de2ea948146115f5578063df73a2671461163d578063e124e6d214611645578063e468baf01461166b57610743565b8063d66b000d1161019d578063daf9c2101161016c578063daf9c21014611555578063db3555fb1461157b578063db97495f146115a1578063dc8f5fac146115ed57610743565b8063d66b000d146114b1578063d8f897c3146114dd578063d9ac422514611503578063da76524c1461150b57610743565b8063cfad57a2116101d9578063cfad57a2146113f2578063d2fa635e14611418578063d3127e6314611435578063d54d5a9f1461145257610743565b8063c65bc7b114611356578063c7e074c31461137c578063cea0c328146113bc57610743565b80639f392eb3116102e4578063ad1e4f8d11610282578063b1cc53ab11610251578063b1cc53ab146112ca578063b364accb14611302578063c3c7b9e914611328578063c4f718bf1461134e57610743565b8063ad1e4f8d1461126e578063ae3302c214611294578063b06423f31461129c578063b136ca49146112a457610743565b8063a5e90eee116102be578063a5e90eee146111ec578063a93acac21461121a578063ab08c1c614611240578063ab2f3ad41461124857610743565b80639f392eb3146111b0578063a22f2392146111b8578063a42ab3d2146111c057610743565b80638f7b84041161035c5780639698d25a1161032b5780639698d25a146111245780639849e4121461114a5780639899cd02146111525780639d7432ca1461117e57610743565b80638f7b8404146110b65780639060b1ca146110dc57806393316212146110e457806395082d251461111c57610743565b80638a27d468116103985780638a27d468146110415780638a39735a146107c45780638a78daa81461106a5780638ee573ac1461109057610743565b80638585f4d214610fe7578063870d917c1461101357806388b1fbdf1461101b57610743565b80634453a3741161058857806362287a32116104ae578063724e78da1161044c5780637c2eb9f71161041b5780637c2eb9f714610f20578063817bb85714610f3f57806381a612d614610f6d57806382a0849014610f9357610743565b8063724e78da14610ea2578063728cdbca14610ec8578063741bef1a14610f105780637a210a2b14610f1857610743565b80636ae0b154116104885780636ae0b15414610e205780636be6026b14610e4657806371089f4d14610e4e578063711e619014610e7457610743565b806362287a3214610dea5780636274980314610df25780636abbe0c814610e1857610743565b80634d47b3041161052657806352f55eed116104f557806352f55eed14610d305780635c07eaab14610d565780635f7bc11914610d965780636092219914610dbc57610743565b80634d47b30414610c9e57806351723e8214610ca6578063523fba7f14610ce4578063529a356f14610d0a57610743565b806348f35cbb1161056257806348f35cbb14610be75780634a3f088d14610bef5780634a993ee914610c705780634befe2ca14610c9657610743565b80634453a37414610b1c57806345a6f37014610b4a57806348d91abf14610ba357610743565b806329ff96151161066d578063392e53cd1161060b5780633e72a262116105da5780633e72a26214610a6957806340eb380214610a715780634215287314610ac257806342b60b0314610af657610743565b8063392e53cd146109e55780633a05dcc1146109ed5780633c5a6e3514610a135780633de39c1114610a6157610743565b806330455ede1161064757806330455ede146109b6578063318bc689146109d557806334c1557d146107c4578063351a964d146109dd57610743565b806329ff9615146109265780632c668ec11461094c5780632d4b05761461097857610743565b8063134ca63b116106e55780631ce9cb8f116106b45780631ce9cb8f1461084257806324b0c04d1461086857806324ca984e1461088957806328e67be5146108af57610743565b8063134ca63b146107f0578063174d2694146107f8578063181e210e146108005780631aa4ace51461081c57610743565b80630a48d5a9116107215780630a48d5a91461079057806310eb56c2146107bc578063126082cf146107c457806312d43a51146107cc57610743565b806304fef1db1461074857806307c58752146107805780630842b07614610788575b600080fd5b61076e6004803603602081101561075e57600080fd5b50356001600160a01b031661182f565b60408051918252519081900360200190f35b61076e611892565b61076e6118a4565b61076e600480360360408110156107a657600080fd5b506001600160a01b0381351690602001356118aa565b61076e6118fd565b61076e611903565b6107d4611909565b604080516001600160a01b039092168252519081900360200190f35b61076e611918565b61076e61191e565b610808611924565b604080519115158252519081900360200190f35b61076e6004803603602081101561083257600080fd5b50356001600160a01b0316611934565b61076e6004803603602081101561085857600080fd5b50356001600160a01b0316611946565b6108876004803603602081101561087e57600080fd5b50351515611958565b005b6108876004803603602081101561089f57600080fd5b50356001600160a01b031661197c565b610887600480360360408110156108c557600080fd5b813591908101906040810160208201356401000000008111156108e757600080fd5b8201836020820111156108f957600080fd5b8035906020019184600183028401116401000000008311171561091b57600080fd5b5090925090506119ad565b61076e6004803603602081101561093c57600080fd5b50356001600160a01b0316611a40565b61076e6004803603604081101561096257600080fd5b506001600160a01b038135169060200135611a54565b61076e6004803603608081101561098e57600080fd5b506001600160a01b038135811691602081013582169160408201351690606001351515611a9a565b610887600480360360208110156109cc57600080fd5b50351515611af5565b61076e611b17565b610808611b1d565b610808611b2b565b61076e60048036036020811015610a0357600080fd5b50356001600160a01b0316611b34565b610887600480360360e0811015610a2957600080fd5b506001600160a01b038135169060208101359060408101359060608101359060808101359060a081013515159060c001351515611bf4565b61076e611d36565b610808611d3c565b6108876004803603610120811015610a8857600080fd5b5080359060208101359060408101359060608101359060808101359060a08101359060c08101359060e08101359061010001351515611d4b565b61076e60048036036060811015610ad857600080fd5b508035906001600160a01b0360208201358116916040013516611e06565b61080860048036036020811015610b0c57600080fd5b50356001600160a01b0316611ea8565b61088760048036036040811015610b3257600080fd5b506001600160a01b0381351690602001351515611ebd565b610b8860048036036080811015610b6057600080fd5b506001600160a01b038135811691602081013582169160408201351690606001351515611ef0565b60408051921515835260208301919091528051918290030190f35b610887600480360360a0811015610bb957600080fd5b506001600160a01b038135811691602081013582169160408201351690606081013590608001351515611f8e565b6107d46123cd565b610c2d60048036036080811015610c0557600080fd5b506001600160a01b0381358116916020810135821691604082013516906060013515156123dc565b604080519889526020890197909752878701959095526060870193909352608086019190915260a0850152151560c084015260e083015251908190036101000190f35b61076e60048036036020811015610c8657600080fd5b50356001600160a01b03166124d2565b61076e6124e4565b61076e6124ea565b61076e60048036036080811015610cbc57600080fd5b506001600160a01b0381358116916020810135821691604082013516906060013515156124f0565b61076e60048036036020811015610cfa57600080fd5b50356001600160a01b0316612596565b61080860048036036020811015610d2057600080fd5b50356001600160a01b03166125a8565b61076e60048036036020811015610d4657600080fd5b50356001600160a01b03166125bd565b610b88600480360360a0811015610d6c57600080fd5b506001600160a01b03813516906020810135906040810135906060810135151590608001356125cf565b61088760048036036020811015610dac57600080fd5b50356001600160a01b03166126c7565b61080860048036036040811015610dd257600080fd5b506001600160a01b03813581169160200135166127aa565b61076e6127ca565b61076e60048036036020811015610e0857600080fd5b50356001600160a01b03166127d0565b6107d46127e2565b61088760048036036020811015610e3657600080fd5b50356001600160a01b03166127f8565b61076e612826565b61088760048036036020811015610e6457600080fd5b50356001600160a01b031661282d565b61076e60048036036040811015610e8a57600080fd5b506001600160a01b0381358116916020013516612861565b61088760048036036020811015610eb857600080fd5b50356001600160a01b0316612af5565b610887600480360360c0811015610ede57600080fd5b506001600160a01b03813581169160208101358216916040820135169060608101359060808101359060a00135612b1f565b6107d4612b96565b61076e612ba5565b61088760048036036020811015610f3657600080fd5b50351515612bab565b61076e60048036036040811015610f5557600080fd5b506001600160a01b0381358116916020013516612bcf565b61076e60048036036020811015610f8357600080fd5b50356001600160a01b0316612ea1565b61076e600480360360e0811015610fa957600080fd5b506001600160a01b0381358116916020810135821691604082013581169160608101359160808201359160a081013515159160c09091013516612f4c565b61088760048036036040811015610ffd57600080fd5b506001600160a01b038135169060200135612fca565b61076e612fee565b61076e6004803603602081101561103157600080fd5b50356001600160a01b0316612ff3565b6108876004803603606081101561105757600080fd5b5080359060208101359060400135613005565b61076e6004803603602081101561108057600080fd5b50356001600160a01b031661304b565b61076e600480360360208110156110a657600080fd5b50356001600160a01b031661305d565b610887600480360360208110156110cc57600080fd5b50356001600160a01b031661306f565b610808613099565b61076e600480360360608110156110fa57600080fd5b506001600160a01b0381358116916020810135821691604090910135166130a8565b61076e613391565b61076e6004803603602081101561113a57600080fd5b50356001600160a01b03166133a2565b61076e6133b4565b61076e6004803603604081101561116857600080fd5b506001600160a01b0381351690602001356133ba565b61076e6004803603606081101561119457600080fd5b506001600160a01b0381351690602081013590604001356133dc565b610808613485565b61076e61348e565b61076e600480360360408110156111d657600080fd5b506001600160a01b038135169060200135613494565b6108876004803603604081101561120257600080fd5b506001600160a01b03813516906020013515156134b1565b61076e6004803603602081101561123057600080fd5b50356001600160a01b03166134e4565b6108086135e2565b61076e6004803603602081101561125e57600080fd5b50356001600160a01b03166135eb565b61076e6004803603602081101561128457600080fd5b50356001600160a01b03166135fd565b61076e61360f565b610808613615565b61076e600480360360208110156112ba57600080fd5b50356001600160a01b0316613623565b61076e600480360360608110156112e057600080fd5b506001600160a01b0381358116916020810135909116906040013515156136c4565b610b886004803603602081101561131857600080fd5b50356001600160a01b031661375f565b61076e6004803603602081101561133e57600080fd5b50356001600160a01b03166137f7565b61076e613809565b61076e6004803603602081101561136c57600080fd5b50356001600160a01b031661380f565b61076e600480360360a081101561139257600080fd5b506001600160a01b0381351690602081013590604081013590606081013590608001351515613821565b610887600480360360608110156113d257600080fd5b506001600160a01b038135811691602081013590911690604001356138cb565b6108876004803603602081101561140857600080fd5b50356001600160a01b03166138ec565b6108876004803603602081101561142e57600080fd5b5035613916565b6108876004803603602081101561144b57600080fd5b5035613923565b611498600480360360a081101561146857600080fd5b506001600160a01b038135811691602081013582169160408201351690606081013515159060800135151561393f565b6040805192835260208301919091528051918290030190f35b610887600480360360408110156114c757600080fd5b506001600160a01b0381351690602001356139f6565b61076e600480360360208110156114f357600080fd5b50356001600160a01b0316613a4f565b61076e613a61565b61076e600480360360c081101561152157600080fd5b506001600160a01b038135811691602081013582169160408201351690606081013515159060808101359060a00135613a67565b6108086004803603602081101561156b57600080fd5b50356001600160a01b0316613b1b565b6108086004803603602081101561159157600080fd5b50356001600160a01b0316613b30565b61076e600480360360e08110156115b757600080fd5b506001600160a01b0381351690602081013590604081013590606081013515159060808101359060a08101359060c00135613b44565b61076e613bd5565b610887600480360360a081101561160b57600080fd5b506001600160a01b03813581169160208101358216916040820135811691606081013515159160809091013516613bdb565b61076e613fb3565b61076e6004803603602081101561165b57600080fd5b50356001600160a01b0316613fb9565b6107d46004803603602081101561168157600080fd5b5035614031565b6108876004803603602081101561169e57600080fd5b50356001600160a01b0316614058565b610887600480360360408110156116c457600080fd5b506001600160a01b03813516906020013561412b565b61076e600480360360208110156116f057600080fd5b50356001600160a01b031661414f565b6108876004803603602081101561171657600080fd5b50351515614161565b61076e6004803603604081101561173557600080fd5b506001600160a01b0381358116916020013516614187565b6108086004803603602081101561176357600080fd5b50356001600160a01b03166141dd565b6107d46141f2565b6107d4614201565b61076e6004803603606081101561179957600080fd5b506001600160a01b038135169060208101359060400135614210565b610887600480360360408110156117cb57600080fd5b506001600160a01b038135811691602001351661424a565b61076e614423565b61076e600480360360a081101561180157600080fd5b506001600160a01b038135811691602081013582169160408201351690606081013515159060800135614429565b6001600160a01b0381166000908152602560205260408120548061185757600091505061188d565b6001600160a01b03831660009081526026602052604090205461188990829061188390620f424061449f565b906144f8565b9150505b919050565b6d04ee2d6d415b85acef810000000081565b601b5490565b6000816118b9575060006118f7565b60006118c484612ea1565b6001600160a01b0385166000908152601d60205260409020549091506118f2600a82900a611883868561449f565b925050505b92915050565b600b5481565b61271081565b6006546001600160a01b031681565b60145481565b60095481565b6016546301000000900460ff1681565b60236020526000908152604090205481565b602c6020526000908152604090205481565b61196061453a565b60168054911515620100000262ff000019909216919091179055565b3360009081526018602090815260408083206001600160a01b0394909416835292905220805460ff19166001179055565b6002546001600160a01b03163314806119d057506006546001600160a01b031633145b611a21576040805162461bcd60e51b815260206004820152601e60248201527f5661756c743a20696e76616c6964206572726f72436f6e74726f6c6c65720000604482015290519081900360640190fd5b6000838152603060205260409020611a3a908383615dca565b50505050565b60006118f782611a4f84613623565b6118aa565b600080611a6084613fb9565b90506000611a7f82611883866c0c9f2c9cd04674edea4000000061449f565b6005549091506118f29082906001600160a01b031687611e06565b604080516bffffffffffffffffffffffff19606096871b811660208084019190915295871b811660348301529390951b9092166048850152151560f81b605c8401528051603d818503018152605d9093019052815191012090565b611afd61453a565b600180549115156101000261ff0019909216919091179055565b600f5481565b600154610100900460ff1681565b60015460ff1681565b600080600560009054906101000a90046001600160a01b03166001600160a01b03166318160ddd6040518163ffffffff1660e01b815260040160206040518083038186803b158015611b8557600080fd5b505afa158015611b99573d6000803e3d6000fd5b505050506040513d6020811015611baf57600080fd5b5051905080611bc257600091505061188d565b6001600160a01b038316600090815260226020526040902054601554611bec90611883838561449f565b949350505050565b611bfc61453a565b6001600160a01b0387166000908152601c602052604090205460ff16611c7957600754611c2a906001614555565b600755601b80546001810182556000919091527f3ad8aa4f87544323a9d1e5dd902f40c356527a7955687113db5f9a85ad579dc10180546001600160a01b0319166001600160a01b0389161790555b6015546001600160a01b038816600090815260226020526040902054611ca09082906145af565b6001600160a01b0389166000908152601c602090815260408083208054600160ff1991821617909155601d83528184208c9055602283528184208b9055601e83528184208a905560248352818420899055601f83528184208054821689151517905591805290912080549091168415151790559050611d1f8187614555565b601555611d2b88613fb9565b505050505050505050565b60175481565b60015462010000900460ff1681565b611d5361453a565b611d636101f48a111560036145f1565b611d736101f489111560046145f1565b611d836101f488111560056145f1565b611d936101f487111560066145f1565b611da36101f486111560076145f1565b611db36101f485111560086145f1565b611dcf6d04ee2d6d415b85acef810000000084111560096145f1565b600a98909855600b96909655600c94909455600d92909255600e55600f556009556010556011805460ff1916911515919091179055565b60055460009081906001600160a01b03858116911614611e3e576001600160a01b0384166000908152601d6020526040902054611e41565b60125b6005549091506000906001600160a01b03858116911614611e7a576001600160a01b0384166000908152601d6020526040902054611e7d565b60125b9050611e9c82600a0a61188383600a0a8961449f90919063ffffffff16565b925050505b9392505050565b601f6020526000908152604090205460ff1681565b611ec561453a565b6001600160a01b03919091166000908152601960205260409020805460ff1916911515919091179055565b6000806000611f0187878787611a9a565b9050611f0b615e48565b506000818152602b6020908152604091829020825160e081018452815480825260018301549382019390935260028201549381018490526003820154606082015260048201546080820152600582015460a082015260069091015460c082018190529092611f7f92899290919089906125cf565b93509350505094509492505050565b60026000541415611fd4576040805162461bcd60e51b815260206004820152601f6024820152600080516020615e9b833981519152604482015290519081900360640190fd5b6002600055600154611ff09062010000900460ff16601c6145f1565b611ff861469d565b612001856146b9565b61200c84848361471c565b60015460408051634eae147d60e11b81526001600160a01b038881166004830152878116602483015286811660448301526064820186905284151560848301529151630100000090930490911691639d5c28fa9160a480820192600092909190829003018186803b15801561208057600080fd5b505afa158015612094573d6000803e3d6000fd5b505050506120a2848461424a565b60006120b086868685611a9a565b6000818152602b60205260408120919250836120d4576120cf86612ea1565b6120dd565b6120dd86613fb9565b82549091506120ee57600282018190555b8154158015906120fe5750600085115b156121245761211e868360000154846002015487858a8860060154613b44565b60028301555b600061213d898989888a88600001548960030154614831565b9050600061214a896148ff565b905060006121588a836118aa565b600186015490915061216a9082614555565b6001860181905561217f90841115601d6145f1565b600185015461218e90846145af565b600186015561219e8a8a896136c4565b600386015584546121af9089614555565b8086554260068701556121c5901515601e6145f1565b6121d7856000015486600101546149ac565b6121e58b8b8b8a600161393f565b505060006121f38b8a613494565b60048701549091506122059082614555565b60048701556122148b826149d0565b87156122595761222d8b6122288b87614555565b614a70565b6122378b83614aef565b6122418b84614b6e565b6122548b61224f8d876133ba565b614c86565b6122c5565b6001600160a01b038a166000908152602d6020526040902054612296576001600160a01b038a166000908152602e602052604090208590556122bb565b6122a18a868b6133dc565b6001600160a01b038b166000908152602e60205260409020555b6122c58a8a614d5c565b604080518881526001600160a01b03808f166020830152808e16828401528c1660608201526080810184905260a081018b905289151560c082015260e08101879052610100810186905290517f2fe68525253654c21998f35787a8d0f361905ef647c854092430ab65f2f15022918190036101200190a1855460018701546002880154600389015460048a015460058b0154604080518e81526020810197909752868101959095526060860193909352608085019190915260a084015260c083015260e08201879052517f20853733b590dce729d9f4628682ebd9a34d2354e72679e66f43a008fc03b773918190036101000190a15050600160005550505050505050505050565b6002546001600160a01b031681565b60008060008060008060008060006123f68d8d8d8d611a9a565b9050612400615e48565b602b60008381526020019081526020016000206040518060e001604052908160008201548152602001600182015481526020016002820154815260200160038201548152602001600482015481526020016005820154815260200160068201548152505090506000808260a0015113612480578160a00151600003612486565b8160a001515b9050816000015182602001518360400151846060015185608001518560008860a0015112158860c001519a509a509a509a509a509a509a509a5050505094995094995094999196509450565b60276020526000908152604090205481565b6101f481565b600c5481565b6000806124ff86868686611a9a565b9050612509615e48565b506000818152602b6020908152604091829020825160e0810184528154815260018201549281018390526002820154938101939093526003810154606084015260048101546080840152600581015460a08401526006015460c083015261257390151560256145f1565b6020810151815161258b91906118839061271061449f565b979650505050505050565b60216020526000908152604090205481565b60196020526000908152604090205460ff1681565b60256020526000908152604090205481565b6000806125e06000861160266145f1565b6000846125f5576125f088613fb9565b6125fe565b6125fe88612ea1565b905060008187116126185761261382886145af565b612622565b61262287836145af565b90506000612634886118838b8561449f565b905060008715612647575087831161264c565b508288115b60006126636010548961455590919063ffffffff16565b4211612687576001600160a01b038c166000908152601e602052604090205461268a565b60005b90508180156126ad575061269e8b8261449f565b6126aa8461271061449f565b11155b156126b757600092505b509a909950975050505050505050565b6002600054141561270d576040805162461bcd60e51b815260206004820152601f6024820152600080516020615e9b833981519152604482015290519081900360640190fd5b600260009081556001600160a01b0382168152601c60205260409020546127389060ff16600e6145f1565b6000612743826148ff565b905061275360008211600f6145f1565b61275d8282614b6e565b604080516001600160a01b03841681526020810183905281517fa5a389190ebf6170a133bda5c769b77f4d6715b8aa172ec0ddf8473d0b4944bd929181900390910190a150506001600055565b601860209081526000928352604080842090915290825290205460ff1681565b60075481565b602e6020526000908152604090205481565b600154630100000090046001600160a01b031681565b3360009081526018602090815260408083206001600160a01b0394909416835292905220805460ff19169055565b620f424081565b61283561453a565b600180546001600160a01b039092166301000000026301000000600160b81b0319909216919091179055565b6000600260005414156128a9576040805162461bcd60e51b815260206004820152601f6024820152600080516020615e9b833981519152604482015290519081900360640190fd5b60026000556128b6614e17565b6001600160a01b0383166000908152601c60205260409020546128dd9060ff1660136145f1565b6016805461ff001916610100179055600554600090612904906001600160a01b03166148ff565b90506129146000821160146145f1565b61291e848561424a565b600061292a8583611a54565b905061293a6000821160156145f1565b6129448583614e46565b61294e8582614c86565b60055460408051632770a7eb60e21b81523060048201526024810185905290516001600160a01b0390921691639dc29fac9160448082019260009290919082900301818387803b1580156129a157600080fd5b505af11580156129b5573d6000803e3d6000fd5b50506005546129cf92506001600160a01b03169050614f28565b6001546040805163eb0835bf60e01b81526001600160a01b038881166004830152602482018690529151600093630100000090049092169163eb0835bf91604480820192602092909190829003018186803b158015612a2d57600080fd5b505afa158015612a41573d6000803e3d6000fd5b505050506040513d6020811015612a5757600080fd5b505190506000612a68878484614fc3565b9050612a786000821160166145f1565b612a8387828861508b565b604080516001600160a01b03808916825289166020820152808201869052606081018390526080810184905290517fd732b7828fa6cee72c285eac756fc66a7477e3dc22e22e7c432f1c265d40b4839181900360a00190a16016805461ff001916905560016000559695505050505050565b612afd61453a565b600480546001600160a01b0319166001600160a01b0392909216919091179055565b612b2761453a565b60018054612b3b9160ff90911615906145f1565b6001805460ff191681179055600380546001600160a01b03199081166001600160a01b039889161790915560058054821696881696909617909555600480549095169390951692909217909255600991909155601355601455565b6004546001600160a01b031681565b600a5481565b612bb361453a565b60018054911515620100000262ff000019909216919091179055565b600060026000541415612c17576040805162461bcd60e51b815260206004820152601f6024820152600080516020615e9b833981519152604482015290519081900360640190fd5b6002600055612c24614e17565b6001600160a01b0383166000908152601c6020526040902054612c4b9060ff1660106145f1565b6016805461ff0019166101001790556000612c65846148ff565b9050612c756000821160116145f1565b612c7f848561424a565b6000612c8a85612ea1565b90506000612ca96c0c9f2c9cd04674edea40000000611883858561449f565b600554909150612cc590829088906001600160a01b0316611e06565b9050612cd56000821160126145f1565b6001546040805163256f6ee360e11b81526001600160a01b0389811660048301526024820185905291516000936301000000900490921691634adeddc691604480820192602092909190829003018186803b158015612d3357600080fd5b505afa158015612d47573d6000803e3d6000fd5b505050506040513d6020811015612d5d57600080fd5b505190506000612d6e888684614fc3565b90506000612d8d6c0c9f2c9cd04674edea40000000611883848861449f565b600554909150612da99082908b906001600160a01b0316611e06565b9050612db58982615132565b612dbf8983614b6e565b600554604080516340c10f1960e01b81526001600160a01b038b8116600483015260248201859052915191909216916340c10f1991604480830192600092919082900301818387803b158015612e1457600080fd5b505af1158015612e28573d6000803e3d6000fd5b5050604080516001600160a01b03808d1682528d1660208201528082018a9052606081018590526080810187905290517fab4c77c74cd32c85f35416cf03e7ce9e2d4387f7b7f2c1f4bf53daaecf8ea72d93509081900360a0019150a16016805461ff0019169055600160005598975050505050505050565b60048054601654604080516317e1d38560e11b81526001600160a01b038681169582019590955260006024820181905260ff80851615156044840152610100909404909316151560648201529051919390921691632fc3a70a916084808301926020929190829003018186803b158015612f1a57600080fd5b505afa158015612f2e573d6000803e3d6000fd5b505050506040513d6020811015612f4457600080fd5b505192915050565b600060026000541415612f94576040805162461bcd60e51b815260206004820152601f6024820152600080516020615e9b833981519152604482015290519081900360640190fd5b6002600055612fa161469d565b612faa886146b9565b612fb9888888888888886151f0565b600160005598975050505050505050565b612fd261453a565b6001600160a01b03909116600090815260276020526040902055565b601281565b601e6020526000908152604090205481565b61300d61453a565b61301d610e10841015600a6145f1565b61302d612710831115600b6145f1565b61303d612710821115600c6145f1565b601292909255601355601455565b602d6020526000908152604090205481565b601d6020526000908152604090205481565b61307761453a565b600280546001600160a01b0319166001600160a01b0392909216919091179055565b60165462010000900460ff1681565b6000600260005414156130f0576040805162461bcd60e51b815260206004820152601f6024820152600080516020615e9b833981519152604482015290519081900360640190fd5b600260005560015461310b90610100900460ff1660176145f1565b6001600160a01b0384166000908152601c60205260409020546131329060ff1660186145f1565b6001600160a01b0383166000908152601c60205260409020546131599060ff1660196145f1565b613179836001600160a01b0316856001600160a01b03161415601a6145f1565b6016805461ff001916610100179055613192848061424a565b61319c838461424a565b60006131a7856148ff565b90506131b760008211601b6145f1565b60006131c286612ea1565b905060006131cf86613fb9565b905060006131e182611883868661449f565b90506131ee818989611e06565b9050600061320d6c0c9f2c9cd04674edea40000000611883878761449f565b6005549091506132299082908b906001600160a01b0316611e06565b60015460408051636d099c0b60e11b81526001600160a01b038d811660048301528c8116602483015260448201859052915193945060009363010000009093049091169163da13381691606480820192602092909190829003018186803b15801561329357600080fd5b505afa1580156132a7573d6000803e3d6000fd5b505050506040513d60208110156132bd57600080fd5b5051905060006132ce8a8584614fc3565b90506132da8b84615132565b6132e48a84614e46565b6132ee8b88614b6e565b6132f88a85614c86565b6133018a6156b3565b61330c8a828b61508b565b604080516001600160a01b03808c168252808e1660208301528c1681830152606081018990526080810186905260a0810183905260c0810184905290517f0874b2d545cb271cdbda4e093020c452328b24af12382ed62c4d00f5c26709db9181900360e00190a16016805461ff001916905560016000559a9950505050505050505050565b6c0c9f2c9cd04674edea4000000081565b602f6020526000908152604090205481565b60125481565b6000816133c9575060006118f7565b611ea183836133d786613fb9565b614210565b6001600160a01b0383166000908152602d6020908152604080832054602e909252822054828582116134175761341286836145af565b613421565b61342182876145af565b9050600061343383611883868561449f565b905086831160006134448689614555565b905060008261345c576134578285614555565b613466565b61346682856145af565b9050613476816118838c8561449f565b9b9a5050505050505050505050565b60115460ff1681565b600d5481565b6000816134a3575060006118f7565b611ea183836133d786612ea1565b6134b961453a565b6001600160a01b03919091166000908152601a60205260409020805460ff1916911515919091179055565b6012546001600160a01b0382166000908152602a60205260408120549091429161350d91614555565b111561351b5750600061188d565b6012546001600160a01b0383166000908152602a60205260408120549091613548916118839042906145af565b6001600160a01b038416600090815260256020526040902054909150806135745760009250505061188d565b6001600160a01b0384166000908152601f602052604081205460ff1661359c576013546135a0565b6014545b6001600160a01b0386166000908152602660205260409020549091506135d99083906118839086906135d390869061449f565b9061449f565b95945050505050565b60165460ff1681565b60226020526000908152604090205481565b60246020526000908152604090205481565b60085481565b601654610100900460ff1681565b6001600160a01b0381166000908152601f602052604081205460ff161561366357506001600160a01b03811660009081526025602052604090205461188d565b6001600160a01b0382166000908152602860205260408120546136879084906133ba565b6001600160a01b038416600090815260266020908152604080832054602590925290912054919250611889916136be908490614555565b906145af565b6001546040805163b1cc53ab60e01b81526001600160a01b038681166004830152858116602483015284151560448301529151600093630100000090049092169163b1cc53ab91606480820192602092909190829003018186803b15801561372b57600080fd5b505afa15801561373f573d6000803e3d6000fd5b505050506040513d602081101561375557600080fd5b5051949350505050565b6001600160a01b0381166000908152602d602052604081205481908061378c5760008092509250506137f2565b600061379785613fb9565b6001600160a01b0386166000908152602e60205260408120549192508282116137c9576137c483836145af565b6137d3565b6137d382846145af565b905060006137e583611883878561449f565b9390921195509193505050505b915091565b60266020526000908152604090205481565b60135481565b60296020526000908152604090205481565b6001546040805163c7e074c360e01b81526001600160a01b03888116600483015260248201889052604482018790526064820186905284151560848301529151600093630100000090049092169163c7e074c39160a480820192602092909190829003018186803b15801561389557600080fd5b505afa1580156138a9573d6000803e3d6000fd5b505050506040513d60208110156138bf57600080fd5b50519695505050505050565b6138d361453a565b6138e76001600160a01b038316848361572b565b505050565b6138f461453a565b600680546001600160a01b0319166001600160a01b0392909216919091179055565b61391e61453a565b601755565b61392b61453a565b61393a612710821160026145f1565b600855565b6001546040805163d54d5a9f60e01b81526001600160a01b03888116600483015287811660248301528681166044830152851515606483015284151560848301528251600094859463010000009091049092169263d54d5a9f9260a4808301939192829003018186803b1580156139b557600080fd5b505afa1580156139c9573d6000803e3d6000fd5b505050506040513d60408110156139df57600080fd5b508051602090910151909890975095505050505050565b6139fe61453a565b6001600160a01b03821660009081526023602052604090205480821115613a3857613a3283613a2d84846145af565b615132565b50613a4b565b6138e783613a4683856145af565b614e46565b5050565b602a6020526000908152604090205481565b60105481565b6001546040805163369d949360e21b81526001600160a01b0389811660048301528881166024830152878116604483015286151560648301526084820186905260a482018590529151600093630100000090049092169163da76524c9160c480820192602092909190829003018186803b158015613ae457600080fd5b505afa158015613af8573d6000803e3d6000fd5b505050506040513d6020811015613b0e57600080fd5b5051979650505050505050565b601c6020526000908152604090205460ff1681565b602080526000908152604090205460ff1681565b6000806000613b568a8a8a8a886125cf565b90925090506000613b678a87614555565b905060008815613b965783613b8557613b8082846145af565b613b8f565b613b8f8284614555565b9050613bb7565b83613baa57613ba58284614555565b613bb4565b613bb482846145af565b90505b613bc5816118838a8561449f565b9c9b505050505050505050505050565b60155481565b60026000541415613c21576040805162461bcd60e51b815260206004820152601f6024820152600080516020615e9b833981519152604482015290519081900360640190fd5b60026000556016546301000000900460ff1615613c565733600090815260196020526040902054613c569060ff1660226145f1565b6016805460ff19169055613c6a848461424a565b6000613c7886868686611a9a565b9050613c82615e48565b506000818152602b6020908152604091829020825160e08101845281548082526001830154938201939093526002820154938101939093526003810154606084015260048101546080840152600581015460a08401526006015460c0830152613cee90151560236145f1565b600080613cff89898989600061393f565b91509150613d12826000141560246145f1565b8160021415613d4757613d2f898989600087600001518b8f6151f0565b50506016805460ff1916600117905550613fa7915050565b6000613d5389836133ba565b6001600160a01b038a166000908152602c6020526040902054909150613d799082614555565b6001600160a01b038a166000818152602c602090815260409182902093909355805191825291810184905280820183905290517f5d0c0019d3d45fadeb74eff9d2c9924d146d000ac6bcf3c28bf0ac3c9baa011a9181900360600190a1613de489856080015161577d565b8615613e135760208401518451613e05918b91613e00916145af565b614aef565b613e138961224f8b856133ba565b600087613e2857613e2389613fb9565b613e31565b613e3189612ea1565b90507f2e1f85a64a2f22cf2f0c42584e7c919ed4abe8d53675cff0f62bf1e95a1c676f868c8c8c8c8a600001518b602001518c608001518d60a001518a604051808b81526020018a6001600160a01b03168152602001896001600160a01b03168152602001886001600160a01b0316815260200187151581526020018681526020018581526020018481526020018381526020018281526020019a505050505050505050505060405180910390a187158015613ef05750846020015183105b15613f1e576020850151600090613f0790856145af565b9050613f1c8b613f178d846133ba565b614b6e565b505b87613f3157613f31898660000151615834565b6000868152602b60205260408120818155600181018290556002810182905560038101829055600481018290556005810182905560060155600954613f7d908b9061224f9082906133ba565b613f938a613f8d8c6009546133ba565b8961508b565b50506016805460ff19166001179055505050505b50506001600055505050565b600e5481565b60048054601654604080516317e1d38560e11b81526001600160a01b03868116958201959095526001602482015260ff80841615156044830152610100909304909216151560648301525160009390921691632fc3a70a91608480820192602092909190829003018186803b158015612f1a57600080fd5b601b818154811061403e57fe5b6000918252602090912001546001600160a01b0316905081565b61406061453a565b6001600160a01b0381166000908152601c60205260409020546140879060ff16600d6145f1565b6001600160a01b0381166000908152602260205260409020546015546140ac916145af565b6015556001600160a01b0381166000908152601c60209081526040808320805460ff19908116909155601d835281842084905560228352818420849055601e835281842084905560248352818420849055601f8352818420805482169055918052909120805490911690556007546141259060016145af565b60075550565b61413361453a565b6001600160a01b039091166000908152602f6020526040902055565b60286020526000908152604090205481565b61416961453a565b6016805491151563010000000263ff00000019909216919091179055565b600061419161453a565b6001600160a01b0383166000908152602c6020526040902054806141b95760009150506118f7565b6001600160a01b0384166000908152602c6020526040812055611ea184828561508b565b601a6020526000908152604090205460ff1681565b6005546001600160a01b031681565b6003546001600160a01b031681565b60008261421f57506000611ea1565b6001600160a01b0384166000908152601d60205260409020546135d98361188386600a85900a61449f565b6001546040805163fbfded6d60e01b81526001600160a01b03858116600483015284811660248301529151600093630100000090049092169163fbfded6d9160448082019260209290919082900301818787803b1580156142aa57600080fd5b505af11580156142be573d6000803e3d6000fd5b505050506040513d60208110156142d457600080fd5b50519050806142e35750613a4b565b6001600160a01b0383166000908152602a602052604090205461433057601254614311906135d342826144f8565b6001600160a01b0384166000908152602a602052604090205550613a4b565b6012546001600160a01b0384166000908152602a602052604090205442916143589190614555565b11156143645750613a4b565b600061436f846134e4565b6001600160a01b0385166000908152602960205260409020549091506143959082614555565b6001600160a01b0385166000908152602960205260409020556012546143bf906135d342826144f8565b6001600160a01b0385166000818152602a602090815260408083209490945560298152908390205483519283529082015281517fa146fc154e1913322e9817d49f0d5c37466c24326e15de10e739a948be815eab929181900390910190a150505050565b610e1081565b6001546040805163fdaf6ac360e01b81526001600160a01b038881166004830152878116602483015286811660448301528515156064830152608482018590529151600093630100000090049092169163fdaf6ac39160a480820192602092909190829003018186803b15801561389557600080fd5b6000826144ae575060006118f7565b828202828482816144bb57fe5b0414611ea15760405162461bcd60e51b8152600401808060200182810382526021815260200180615ebb6021913960400191505060405180910390fd5b6000611ea183836040518060400160405280601a81526020017f536166654d6174683a206469766973696f6e206279207a65726f00000000000081525061589c565b600654614553906001600160a01b0316331460356145f1565b565b600082820183811015611ea1576040805162461bcd60e51b815260206004820152601b60248201527f536166654d6174683a206164646974696f6e206f766572666c6f770000000000604482015290519081900360640190fd5b6000611ea183836040518060400160405280601e81526020017f536166654d6174683a207375627472616374696f6e206f766572666c6f77000081525061593e565b6000818152603060205260409020826138e75760405162461bcd60e51b815260206004820190815282546002600019610100600184161502019091160460248301819052909182916044909101908490801561468e5780601f106146635761010080835404028352916020019161468e565b820191906000526020600020905b81548152906001019060200180831161467157829003601f168201915b50509250505060405180910390fd5b6017546146a957614553565b6145536017543a111560376145f1565b336001600160a01b03821614156146cf57614719565b6003546001600160a01b03163314156146e757614719565b6001600160a01b03811660009081526018602090815260408083203384529091529020546147199060ff1660296145f1565b50565b801561479557614741826001600160a01b0316846001600160a01b031614602a6145f1565b6001600160a01b0383166000908152601c60205260409020546147689060ff16602b6145f1565b6001600160a01b0383166000908152601f60205260409020546147909060ff1615602c6145f1565b6138e7565b6001600160a01b0383166000908152601c60205260409020546147bc9060ff16602d6145f1565b6001600160a01b0383166000908152601f60205260409020546147e39060ff16602e6145f1565b6001600160a01b0382166000908152601f602052604090205461480b9060ff1615602f6145f1565b6001600160a01b03821660009081526020805260409020546138e79060ff1660306145f1565b6000806148418989898989614429565b905060006148538a8a8a8a8989613a67565b905061485f8282614555565b9150600061486d8a846133ba565b6001600160a01b038b166000908152602c60205260409020549091506148939082614555565b6001600160a01b038b166000818152602c602090815260409182902093909355805191825291810185905280820183905290517f5d0c0019d3d45fadeb74eff9d2c9924d146d000ac6bcf3c28bf0ac3c9baa011a9181900360600190a150909998505050505050505050565b6001600160a01b03811660008181526021602090815260408083205481516370a0823160e01b8152306004820152915193949093859391926370a08231926024808301939192829003018186803b15801561495957600080fd5b505afa15801561496d573d6000803e3d6000fd5b505050506040513d602081101561498357600080fd5b50516001600160a01b03851660009081526021602052604090208190559050611bec81836145af565b816149c2576149bd811560276145f1565b613a4b565b613a4b8183101560286145f1565b6001600160a01b0382166000908152602660205260409020546149f39082614555565b6001600160a01b038316600090815260266020818152604080842085905560258252909220549152614a2891111560346145f1565b604080516001600160a01b03841681526020810183905281517faa5649d82f5462be9d19b0f2b31a59b2259950a6076550bac9f3a1c07db9f66d929181900390910190a15050565b6001600160a01b038216600090815260286020526040902054614a939082614555565b6001600160a01b03831660008181526028602090815260409182902093909355805191825291810183905281517fd9d4761f75e0d0103b5cbeab941eeb443d7a56a35b5baf2a0787c03f03f4e474929181900390910190a15050565b6001600160a01b038216600090815260286020526040902054614b1290826145af565b6001600160a01b03831660008181526028602090815260409182902093909355805191825291810183905281517f34e07158b9db50df5613e591c44ea2ebc82834eff4a4dc3a46e000e608261d68929181900390910190a15050565b6001600160a01b038216600090815260256020526040902054614b919082614555565b6001600160a01b03831660008181526025602090815260408083209490945583516370a0823160e01b8152306004820152935191936370a082319260248083019392829003018186803b158015614be757600080fd5b505afa158015614bfb573d6000803e3d6000fd5b505050506040513d6020811015614c1157600080fd5b50516001600160a01b038416600090815260256020526040902054909150614c3d9082101560316145f1565b604080516001600160a01b03851681526020810184905281517f976177fbe09a15e5e43f848844963a42b41ef919ef17ff21a17a5421de8f4737929181900390910190a1505050565b604080518082018252601a81527f5661756c743a20706f6f6c416d6f756e742065786365656465640000000000006020808301919091526001600160a01b038516600090815260259091529190912054614ce191839061593e565b6001600160a01b03831660009081526025602090815260408083208490556026909152902054614d1491101560326145f1565b604080516001600160a01b03841681526020810183905281517f112726233fbeaeed0f5b1dba5cb0b2b81883dee49fb35ff99fd98ed9f6d31eb0929181900390910190a15050565b6001600160a01b0382166000908152602d6020526040902054614d7f9082614555565b6001600160a01b0383166000908152602d6020908152604080832093909355602f9052205480156138e7576001600160a01b0383166000908152602d60205260409020548110156138e7576040805162461bcd60e51b815260206004820152601a60248201527f5661756c743a206d61782073686f727473206578636565646564000000000000604482015290519081900360640190fd5b60165462010000900460ff161561455357336000908152601a60205260409020546145539060ff1660366145f1565b6001600160a01b038216600090815260236020526040902054818111614ec1576001600160a01b0383166000818152602360209081526040808320929092558151928352820183905280517fe1e812596aac93a06ecc4ca627014d18e30f5c33b825160cc9d5c0ba61e452279281900390910190a150613a4b565b614ecb81836145af565b6001600160a01b03841660008181526023602090815260409182902093909355805191825291810184905281517fe1e812596aac93a06ecc4ca627014d18e30f5c33b825160cc9d5c0ba61e45227929181900390910190a1505050565b6000816001600160a01b03166370a08231306040518263ffffffff1660e01b815260040180826001600160a01b0316815260200191505060206040518083038186803b158015614f7757600080fd5b505afa158015614f8b573d6000803e3d6000fd5b505050506040513d6020811015614fa157600080fd5b50516001600160a01b0390921660009081526021602052604090209190915550565b600080614fe0612710611883614fd982876145af565b879061449f565b90506000614fee85836145af565b6001600160a01b0387166000908152602c60205260409020549091506150149082614555565b6001600160a01b0387166000908152602c60205260409020557f47cd9dda0e50ce30bcaaacd0488452b596221c07ac402a581cfae4d3933cac2b8661505981846118aa565b604080516001600160a01b0390931683526020830191909152818101849052519081900360600190a150949350505050565b61509f6001600160a01b038416828461572b565b604080516370a0823160e01b815230600482015290516001600160a01b038516916370a08231916024808301926020929190829003018186803b1580156150e557600080fd5b505afa1580156150f9573d6000803e3d6000fd5b505050506040513d602081101561510f57600080fd5b50516001600160a01b039093166000908152602160205260409020929092555050565b6001600160a01b0382166000908152602360205260409020546151559082614555565b6001600160a01b03831660009081526023602090815260408083209390935560249052205480156151a7576001600160a01b0383166000908152602360205260409020546151a79082101560336145f1565b604080516001600160a01b03851681526020810184905281517f64243679a443432e2293343b77d411ff6144370404618f00ca0d2025d9ca9882929181900390910190a1505050565b600154604080516381d11a2360e01b81526001600160a01b038a8116600483015289811660248301528881166044830152606482018890526084820187905285151560a483015284811660c4830152915160009363010000009004909216916381d11a239160e4808201928692909190829003018186803b15801561527457600080fd5b505afa158015615288573d6000803e3d6000fd5b50505050615296878761424a565b60006152a489898987611a9a565b6000818152602b602052604090208054919250906152c5901515601f6145f1565b6152d7868260000154101560206145f1565b6152e9878260010154101560216145f1565b60018101548154600483015460009161530691611883908b61449f565b600484015490915061531890826145af565b60048401556153278b8261577d565b506000806153398d8d8d8d8d8d615998565b8554919350915089146154dd576153518c8c8a6136c4565b60038501558354615362908a6145af565b808555600185015461537491906149ac565b6153828d8d8d8b600161393f565b505087156153af576153a58c6122288660010154866145af90919063ffffffff16565b6153af8c8a614aef565b6000886153c4576153bf8c613fb9565b6153cd565b6153cd8c612ea1565b90507f93d75d64d1f84fc6f430a64fc578bdd4c1e090e90ea2d51773e626d19de56d30868f8f8f8f8f8f886154028c8c6145af565b60408051998a526001600160a01b0398891660208b015296881689880152949096166060880152608087019290925260a0860152151560c085015260e084019290925261010083019190915251908190036101200190a18454600186015460028701546003880154600489015460058a0154604080518d81526020810197909752868101959095526060860193909352608085019190915260a084015260c083015260e08201839052517f20853733b590dce729d9f4628682ebd9a34d2354e72679e66f43a008fc03b773918190036101000190a150615651565b87156154f7576154ed8c84614a70565b6154f78c8a614aef565b60008861550c576155078c613fb9565b615515565b6155158c612ea1565b90507f93d75d64d1f84fc6f430a64fc578bdd4c1e090e90ea2d51773e626d19de56d30868f8f8f8f8f8f8861554a8c8c6145af565b60408051998a526001600160a01b0398891660208b015296881689880152949096166060880152608087019290925260a0860152151560c085015260e084019290925261010083019190915251908190036101200190a18454600186015460028701546003880154600489015460058a0154604080518d81526020810197909752868101959095526060860193909352608085019190915260a084015260c0830152517f73af1d417d82c240fdb6d319b34ad884487c6bf2845d98980cc52ad9171cb4559181900360e00190a1506000858152602b602052604081208181556001810182905560028101829055600381018290556004810182905560058101829055600601555b87615660576156608b8a615834565b81156156a057871561567a5761567a8c61224f8e856133ba565b60006156868d836133ba565b90506156938d828a61508b565b955061258b945050505050565b5060009c9b505050505050505050505050565b6001600160a01b0381166000908152602760209081526040808320546025909252909120541015614719576040805162461bcd60e51b815260206004820152601a60248201527f5661756c743a20706f6f6c416d6f756e74203c20627566666572000000000000604482015290519081900360640190fd5b604080516001600160a01b038416602482015260448082018490528251808303909101815260649091019091526020810180516001600160e01b031663a9059cbb60e01b1790526138e7908490615b92565b604080518082018252601b81527f5661756c743a20696e73756666696369656e74207265736572766500000000006020808301919091526001600160a01b0385166000908152602690915291909120546157d891839061593e565b6001600160a01b03831660008181526026602090815260409182902093909355805191825291810183905281517f533cb5ed32be6a90284e96b5747a1bfc2d38fdb5768a6b5f67ff7d62144ed67b929181900390910190a15050565b6001600160a01b0382166000908152602d60205260409020548082111561587457506001600160a01b0382166000908152602d6020526040812055613a4b565b61587e81836145af565b6001600160a01b0384166000908152602d6020526040902055505050565b600081836159285760405162461bcd60e51b81526004018080602001828103825283818151815260200191508051906020019080838360005b838110156158ed5781810151838201526020016158d5565b50505050905090810190601f16801561591a5780820380516001836020036101000a031916815260200191505b509250505060405180910390fd5b50600083858161593457fe5b0495945050505050565b600081848411156159905760405162461bcd60e51b81526020600482018181528351602484015283519092839260449091019190850190808383600083156158ed5781810151838201526020016158d5565b505050900390565b60008060006159a989898987611a9a565b6000818152602b602052604081208054600382015493945090926159d6918d918d918d918b918d91614831565b90506000806000806159f78d876000015488600201548d8a600601546125cf565b87549195508593509150615a0f906118838d8461449f565b925050506000828015615a225750600082115b15615a525750600584018054820190558088615a52576000615a448e846133ba565b9050615a508e82614c86565b505b82158015615a605750600082115b15615aa4576001850154615a7490836145af565b600186015588615a98576000615a8a8e846133ba565b9050615a968e82614b6e565b505b60058501805483900390555b8a15615acc57615ab4818c614555565b6001860154909150615ac6908c6145af565b60018601555b84548a1415615aef576001850154615ae5908290614555565b6000600187015590505b8084811115615b0957615b0282866145af565b9050615b3d565b6001860154615b1890866145af565b60018701558915615b3d576000615b2f8f876133ba565b9050615b3b8f82614c86565b505b60408051888152851515602082015280820185905290517f3ff41bdde87755b687ae83d0221a232b6be51a803330ed9661c1b5d0105e0d8a9181900360600190a1909e909d509b505050505050505050505050565b6060615be7826040518060400160405280602081526020017f5361666545524332303a206c6f772d6c6576656c2063616c6c206661696c6564815250856001600160a01b0316615c439092919063ffffffff16565b8051909150156138e757808060200190516020811015615c0657600080fd5b50516138e75760405162461bcd60e51b815260040180806020018281038252602a815260200180615edc602a913960400191505060405180910390fd5b6060611bec848460008585615c5785615d5e565b615ca8576040805162461bcd60e51b815260206004820152601d60248201527f416464726573733a2063616c6c20746f206e6f6e2d636f6e7472616374000000604482015290519081900360640190fd5b60006060866001600160a01b031685876040518082805190602001908083835b60208310615ce75780518252601f199092019160209182019101615cc8565b6001836020036101000a03801982511681845116808217855250505050505090500191505060006040518083038185875af1925050503d8060008114615d49576040519150601f19603f3d011682016040523d82523d6000602084013e615d4e565b606091505b509150915061258b828286615d64565b3b151590565b60608315615d73575081611ea1565b825115615d835782518084602001fd5b60405162461bcd60e51b81526020600482018181528451602484015284518593919283926044019190850190808383600083156158ed5781810151838201526020016158d5565b828054600181600116156101000203166002900490600052602060002090601f016020900481019282601f10615e0b5782800160ff19823516178555615e38565b82800160010185558215615e38579182015b82811115615e38578235825591602001919060010190615e1d565b50615e44929150615e85565b5090565b6040518060e00160405280600081526020016000815260200160008152602001600081526020016000815260200160008152602001600081525090565b5b80821115615e445760008155600101615e8656fe5265656e7472616e637947756172643a207265656e7472616e742063616c6c00536166654d6174683a206d756c7469706c69636174696f6e206f766572666c6f775361666545524332303a204552433230206f7065726174696f6e20646964206e6f742073756363656564a2646970667358221220c3695a9af4f3db07245f8d234fdf3e1c61a1662f772a7b680e132aa66bf043d464736f6c634300060c0033","linkReferences":{}},"methodIdentifiers":{"BASIS_POINTS_DIVISOR()":"126082cf","FUNDING_RATE_PRECISION()":"6be6026b","MAX_FEE_BASIS_POINTS()":"4befe2ca","MAX_FUNDING_RATE_FACTOR()":"8a39735a","MAX_LIQUIDATION_FEE_USD()":"07c58752","MIN_FUNDING_RATE_INTERVAL()":"fce28c10","MIN_LEVERAGE()":"34c1557d","PRICE_PRECISION()":"95082d25","USDG_DECIMALS()":"870d917c","addRouter(address)":"24ca984e","adjustForDecimals(uint256,address,address)":"42152873","allWhitelistedTokens(uint256)":"e468baf0","allWhitelistedTokensLength()":"0842b076","approvedRouters(address,address)":"60922199","bufferAmounts(address)":"4a993ee9","buyUSDG(address,address)":"817bb857","clearTokenConfig(address)":"e67f59a7","cumulativeFundingRates(address)":"c65bc7b1","decreasePosition(address,address,address,uint256,uint256,bool,address)":"82a08490","directPoolDeposit(address)":"5f7bc119","errorController()":"48f35cbb","feeReserves(address)":"1ce9cb8f","fundingInterval()":"9849e412","fundingRateFactor()":"c4f718bf","getDelta(address,uint256,uint256,bool,uint256)":"5c07eaab","getEntryFundingRate(address,address,bool)":"b1cc53ab","getFeeBasisPoints(address,uint256,uint256,uint256,bool)":"c7e074c3","getFundingFee(address,address,address,bool,uint256,uint256)":"da76524c","getGlobalShortDelta(address)":"b364accb","getMaxPrice(address)":"e124e6d2","getMinPrice(address)":"81a612d6","getNextAveragePrice(address,uint256,uint256,bool,uint256,uint256,uint256)":"db97495f","getNextFundingRate(address)":"a93acac2","getNextGlobalShortAveragePrice(address,uint256,uint256)":"9d7432ca","getPosition(address,address,address,bool)":"4a3f088d","getPositionDelta(address,address,address,bool)":"45a6f370","getPositionFee(address,address,address,bool,uint256)":"fdaf6ac3","getPositionKey(address,address,address,bool)":"2d4b0576","getPositionLeverage(address,address,address,bool)":"51723e82","getRedemptionAmount(address,uint256)":"2c668ec1","getRedemptionCollateral(address)":"b136ca49","getRedemptionCollateralUsd(address)":"29ff9615","getTargetUsdgAmount(address)":"3a05dcc1","getUtilisation(address)":"04fef1db","globalShortAveragePrices(address)":"62749803","globalShortSizes(address)":"8a78daa8","gov()":"12d43a51","guaranteedUsd(address)":"f07456ce","hasDynamicFees()":"9f392eb3","inManagerMode()":"9060b1ca","inPrivateLiquidationMode()":"181e210e","includeAmmPrice()":"ab08c1c6","increasePosition(address,address,address,uint256,bool)":"48d91abf","initialize(address,address,address,uint256,uint256,uint256)":"728cdbca","isInitialized()":"392e53cd","isLeverageEnabled()":"3e72a262","isLiquidator(address)":"529a356f","isManager(address)":"f3ae2415","isSwapEnabled()":"351a964d","lastFundingTimes(address)":"d8f897c3","liquidatePosition(address,address,address,bool,address)":"de2ea948","liquidationFeeUsd()":"174d2694","marginFeeBasisPoints()":"318bc689","maxGasPrice()":"3de39c11","maxGlobalShortSizes(address)":"9698d25a","maxLeverage()":"ae3302c2","maxUsdgAmounts(address)":"ad1e4f8d","minProfitBasisPoints(address)":"88b1fbdf","minProfitTime()":"d9ac4225","mintBurnFeeBasisPoints()":"4d47b304","poolAmounts(address)":"52f55eed","priceFeed()":"741bef1a","removeRouter(address)":"6ae0b154","reservedAmounts(address)":"c3c7b9e9","router()":"f887ea40","sellUSDG(address,address)":"711e6190","setBufferAmount(address,uint256)":"8585f4d2","setError(uint256,string)":"28e67be5","setErrorController(address)":"8f7b8404","setFees(uint256,uint256,uint256,uint256,uint256,uint256,uint256,uint256,bool)":"40eb3802","setFundingRate(uint256,uint256,uint256)":"8a27d468","setGov(address)":"cfad57a2","setInManagerMode(bool)":"24b0c04d","setInPrivateLiquidationMode(bool)":"f07bbf77","setIsLeverageEnabled(bool)":"7c2eb9f7","setIsSwapEnabled(bool)":"30455ede","setLiquidator(address,bool)":"4453a374","setManager(address,bool)":"a5e90eee","setMaxGasPrice(uint256)":"d2fa635e","setMaxGlobalShortSize(address,uint256)":"efa10a6e","setMaxLeverage(uint256)":"d3127e63","setPriceFeed(address)":"724e78da","setTokenConfig(address,uint256,uint256,uint256,uint256,bool,bool)":"3c5a6e35","setUsdgAmount(address,uint256)":"d66b000d","setVaultUtils(address)":"71089f4d","shortableTokens(address)":"db3555fb","stableFundingRateFactor()":"134ca63b","stableSwapFeeBasisPoints()":"df73a267","stableTaxBasisPoints()":"10eb56c2","stableTokens(address)":"42b60b03","swap(address,address,address)":"93316212","swapFeeBasisPoints()":"a22f2392","taxBasisPoints()":"7a210a2b","tokenBalances(address)":"523fba7f","tokenDecimals(address)":"8ee573ac","tokenToUsdMin(address,uint256)":"0a48d5a9","tokenWeights(address)":"ab2f3ad4","totalTokenWeights()":"dc8f5fac","updateCumulativeFundingRate(address,address)":"fbfded6d","upgradeVault(address,address,uint256)":"cea0c328","usdToToken(address,uint256,uint256)":"fa12dbc0","usdToTokenMax(address,uint256)":"a42ab3d2","usdToTokenMin(address,uint256)":"9899cd02","usdg()":"f5b91b7b","usdgAmounts(address)":"1aa4ace5","useSwapPricing()":"b06423f3","validateLiquidation(address,address,address,bool,bool)":"d54d5a9f","vaultUtils()":"6abbe0c8","whitelistedTokenCount()":"62287a32","whitelistedTokens(address)":"daf9c210","withdrawFees(address,address)":"f2555278"},"id":91}