{"abi":[{"type":"constructor","inputs":[{"name":"_vault","type":"address","internalType":"address"},{"name":"_router","type":"address","internalType":"address"},{"name":"_weth","type":"address","internalType":"address"},{"name":"_shortsTracker","type":"address","internalType":"address"},{"name":"_depositFee","type":"uint256","internalType":"uint256"},{"name":"_minExecutionFee","type":"uint256","internalType":"uint256"}],"stateMutability":"nonpayable"},{"type":"receive","stateMutability":"payable"},{"type":"function","name":"BASIS_POINTS_DIVISOR","inputs":[],"outputs":[{"name":"","type":"uint256","internalType":"uint256"}],"stateMutability":"view"},{"type":"function","name":"admin","inputs":[],"outputs":[{"name":"","type":"address","internalType":"address"}],"stateMutability":"view"},{"type":"function","name":"approve","inputs":[{"name":"_token","type":"address","internalType":"address"},{"name":"_spender","type":"address","internalType":"address"},{"name":"_amount","type":"uint256","internalType":"uint256"}],"outputs":[],"stateMutability":"nonpayable"},{"type":"function","name":"callbackGasLimit","inputs":[],"outputs":[{"name":"","type":"uint256","internalType":"uint256"}],"stateMutability":"view"},{"type":"function","name":"cancelDecreasePosition","inputs":[{"name":"_key","type":"bytes32","internalType":"bytes32"},{"name":"_executionFeeReceiver","type":"address","internalType":"address payable"}],"outputs":[{"name":"","type":"bool","internalType":"bool"}],"stateMutability":"nonpayable"},{"type":"function","name":"cancelIncreasePosition","inputs":[{"name":"_key","type":"bytes32","internalType":"bytes32"},{"name":"_executionFeeReceiver","type":"address","internalType":"address payable"}],"outputs":[{"name":"","type":"bool","internalType":"bool"}],"stateMutability":"nonpayable"},{"type":"function","name":"createDecreasePosition","inputs":[{"name":"_path","type":"address[]","internalType":"address[]"},{"name":"_indexToken","type":"address","internalType":"address"},{"name":"_collateralDelta","type":"uint256","internalType":"uint256"},{"name":"_sizeDelta","type":"uint256","internalType":"uint256"},{"name":"_isLong","type":"bool","internalType":"bool"},{"name":"_receiver","type":"address","internalType":"address"},{"name":"_acceptablePrice","type":"uint256","internalType":"uint256"},{"name":"_minOut","type":"uint256","internalType":"uint256"},{"name":"_executionFee","type":"uint256","internalType":"uint256"},{"name":"_withdrawETH","type":"bool","internalType":"bool"},{"name":"_callbackTarget","type":"address","internalType":"address"}],"outputs":[{"name":"","type":"bytes32","internalType":"bytes32"}],"stateMutability":"payable"},{"type":"function","name":"createIncreasePosition","inputs":[{"name":"_path","type":"address[]","internalType":"address[]"},{"name":"_indexToken","type":"address","internalType":"address"},{"name":"_amountIn","type":"uint256","internalType":"uint256"},{"name":"_minOut","type":"uint256","internalType":"uint256"},{"name":"_sizeDelta","type":"uint256","internalType":"uint256"},{"name":"_isLong","type":"bool","internalType":"bool"},{"name":"_acceptablePrice","type":"uint256","internalType":"uint256"},{"name":"_executionFee","type":"uint256","internalType":"uint256"},{"name":"_referralCode","type":"bytes32","internalType":"bytes32"},{"name":"_callbackTarget","type":"address","internalType":"address"}],"outputs":[{"name":"","type":"bytes32","internalType":"bytes32"}],"stateMutability":"payable"},{"type":"function","name":"createIncreasePositionETH","inputs":[{"name":"_path","type":"address[]","internalType":"address[]"},{"name":"_indexToken","type":"address","internalType":"address"},{"name":"_minOut","type":"uint256","internalType":"uint256"},{"name":"_sizeDelta","type":"uint256","internalType":"uint256"},{"name":"_isLong","type":"bool","internalType":"bool"},{"name":"_acceptablePrice","type":"uint256","internalType":"uint256"},{"name":"_executionFee","type":"uint256","internalType":"uint256"},{"name":"_referralCode","type":"bytes32","internalType":"bytes32"},{"name":"_callbackTarget","type":"address","internalType":"address"}],"outputs":[{"name":"","type":"bytes32","internalType":"bytes32"}],"stateMutability":"payable"},{"type":"function","name":"decreasePositionRequestKeys","inputs":[{"name":"","type":"uint256","internalType":"uint256"}],"outputs":[{"name":"","type":"bytes32","internalType":"bytes32"}],"stateMutability":"view"},{"type":"function","name":"decreasePositionRequestKeysStart","inputs":[],"outputs":[{"name":"","type":"uint256","internalType":"uint256"}],"stateMutability":"view"},{"type":"function","name":"decreasePositionRequests","inputs":[{"name":"","type":"bytes32","internalType":"bytes32"}],"outputs":[{"name":"account","type":"address","internalType":"address"},{"name":"indexToken","type":"address","internalType":"address"},{"name":"collateralDelta","type":"uint256","internalType":"uint256"},{"name":"sizeDelta","type":"uint256","internalType":"uint256"},{"name":"isLong","type":"bool","internalType":"bool"},{"name":"receiver","type":"address","internalType":"address"},{"name":"acceptablePrice","type":"uint256","internalType":"uint256"},{"name":"minOut","type":"uint256","internalType":"uint256"},{"name":"executionFee","type":"uint256","internalType":"uint256"},{"name":"blockNumber","type":"uint256","internalType":"uint256"},{"name":"blockTime","type":"uint256","internalType":"uint256"},{"name":"withdrawETH","type":"bool","internalType":"bool"},{"name":"callbackTarget","type":"address","internalType":"address"}],"stateMutability":"view"},{"type":"function","name":"decreasePositionsIndex","inputs":[{"name":"","type":"address","internalType":"address"}],"outputs":[{"name":"","type":"uint256","internalType":"uint256"}],"stateMutability":"view"},{"type":"function","name":"depositFee","inputs":[],"outputs":[{"name":"","type":"uint256","internalType":"uint256"}],"stateMutability":"view"},{"type":"function","name":"executeDecreasePosition","inputs":[{"name":"_key","type":"bytes32","internalType":"bytes32"},{"name":"_executionFeeReceiver","type":"address","internalType":"address payable"}],"outputs":[{"name":"","type":"bool","internalType":"bool"}],"stateMutability":"nonpayable"},{"type":"function","name":"executeDecreasePositions","inputs":[{"name":"_endIndex","type":"uint256","internalType":"uint256"},{"name":"_executionFeeReceiver","type":"address","internalType":"address payable"}],"outputs":[],"stateMutability":"nonpayable"},{"type":"function","name":"executeIncreasePosition","inputs":[{"name":"_key","type":"bytes32","internalType":"bytes32"},{"name":"_executionFeeReceiver","type":"address","internalType":"address payable"}],"outputs":[{"name":"","type":"bool","internalType":"bool"}],"stateMutability":"nonpayable"},{"type":"function","name":"executeIncreasePositions","inputs":[{"name":"_endIndex","type":"uint256","internalType":"uint256"},{"name":"_executionFeeReceiver","type":"address","internalType":"address payable"}],"outputs":[],"stateMutability":"nonpayable"},{"type":"function","name":"feeReserves","inputs":[{"name":"","type":"address","internalType":"address"}],"outputs":[{"name":"","type":"uint256","internalType":"uint256"}],"stateMutability":"view"},{"type":"function","name":"getDecreasePositionRequestPath","inputs":[{"name":"_key","type":"bytes32","internalType":"bytes32"}],"outputs":[{"name":"","type":"address[]","internalType":"address[]"}],"stateMutability":"view"},{"type":"function","name":"getIncreasePositionRequestPath","inputs":[{"name":"_key","type":"bytes32","internalType":"bytes32"}],"outputs":[{"name":"","type":"address[]","internalType":"address[]"}],"stateMutability":"view"},{"type":"function","name":"getRequestKey","inputs":[{"name":"_account","type":"address","internalType":"address"},{"name":"_index","type":"uint256","internalType":"uint256"}],"outputs":[{"name":"","type":"bytes32","internalType":"bytes32"}],"stateMutability":"pure"},{"type":"function","name":"getRequestQueueLengths","inputs":[],"outputs":[{"name":"","type":"uint256","internalType":"uint256"},{"name":"","type":"uint256","internalType":"uint256"},{"name":"","type":"uint256","internalType":"uint256"},{"name":"","type":"uint256","internalType":"uint256"}],"stateMutability":"view"},{"type":"function","name":"gov","inputs":[],"outputs":[{"name":"","type":"address","internalType":"address"}],"stateMutability":"view"},{"type":"function","name":"increasePositionBufferBps","inputs":[],"outputs":[{"name":"","type":"uint256","internalType":"uint256"}],"stateMutability":"view"},{"type":"function","name":"increasePositionRequestKeys","inputs":[{"name":"","type":"uint256","internalType":"uint256"}],"outputs":[{"name":"","type":"bytes32","internalType":"bytes32"}],"stateMutability":"view"},{"type":"function","name":"increasePositionRequestKeysStart","inputs":[],"outputs":[{"name":"","type":"uint256","internalType":"uint256"}],"stateMutability":"view"},{"type":"function","name":"increasePositionRequests","inputs":[{"name":"","type":"bytes32","internalType":"bytes32"}],"outputs":[{"name":"account","type":"address","internalType":"address"},{"name":"indexToken","type":"address","internalType":"address"},{"name":"amountIn","type":"uint256","internalType":"uint256"},{"name":"minOut","type":"uint256","internalType":"uint256"},{"name":"sizeDelta","type":"uint256","internalType":"uint256"},{"name":"isLong","type":"bool","internalType":"bool"},{"name":"acceptablePrice","type":"uint256","internalType":"uint256"},{"name":"executionFee","type":"uint256","internalType":"uint256"},{"name":"blockNumber","type":"uint256","internalType":"uint256"},{"name":"blockTime","type":"uint256","internalType":"uint256"},{"name":"hasCollateralInETH","type":"bool","internalType":"bool"},{"name":"callbackTarget","type":"address","internalType":"address"}],"stateMutability":"view"},{"type":"function","name":"increasePositionsIndex","inputs":[{"name":"","type":"address","internalType":"address"}],"outputs":[{"name":"","type":"uint256","internalType":"uint256"}],"stateMutability":"view"},{"type":"function","name":"isLeverageEnabled","inputs":[],"outputs":[{"name":"","type":"bool","internalType":"bool"}],"stateMutability":"view"},{"type":"function","name":"isPositionKeeper","inputs":[{"name":"","type":"address","internalType":"address"}],"outputs":[{"name":"","type":"bool","internalType":"bool"}],"stateMutability":"view"},{"type":"function","name":"maxGlobalLongSizes","inputs":[{"name":"","type":"address","internalType":"address"}],"outputs":[{"name":"","type":"uint256","internalType":"uint256"}],"stateMutability":"view"},{"type":"function","name":"maxGlobalShortSizes","inputs":[{"name":"","type":"address","internalType":"address"}],"outputs":[{"name":"","type":"uint256","internalType":"uint256"}],"stateMutability":"view"},{"type":"function","name":"maxTimeDelay","inputs":[],"outputs":[{"name":"","type":"uint256","internalType":"uint256"}],"stateMutability":"view"},{"type":"function","name":"minBlockDelayKeeper","inputs":[],"outputs":[{"name":"","type":"uint256","internalType":"uint256"}],"stateMutability":"view"},{"type":"function","name":"minExecutionFee","inputs":[],"outputs":[{"name":"","type":"uint256","internalType":"uint256"}],"stateMutability":"view"},{"type":"function","name":"minTimeDelayPublic","inputs":[],"outputs":[{"name":"","type":"uint256","internalType":"uint256"}],"stateMutability":"view"},{"type":"function","name":"referralStorage","inputs":[],"outputs":[{"name":"","type":"address","internalType":"address"}],"stateMutability":"view"},{"type":"function","name":"router","inputs":[],"outputs":[{"name":"","type":"address","internalType":"address"}],"stateMutability":"view"},{"type":"function","name":"sendValue","inputs":[{"name":"_receiver","type":"address","internalType":"address payable"},{"name":"_amount","type":"uint256","internalType":"uint256"}],"outputs":[],"stateMutability":"nonpayable"},{"type":"function","name":"setAdmin","inputs":[{"name":"_admin","type":"address","internalType":"address"}],"outputs":[],"stateMutability":"nonpayable"},{"type":"function","name":"setCallbackGasLimit","inputs":[{"name":"_callbackGasLimit","type":"uint256","internalType":"uint256"}],"outputs":[],"stateMutability":"nonpayable"},{"type":"function","name":"setDelayValues","inputs":[{"name":"_minBlockDelayKeeper","type":"uint256","internalType":"uint256"},{"name":"_minTimeDelayPublic","type":"uint256","internalType":"uint256"},{"name":"_maxTimeDelay","type":"uint256","internalType":"uint256"}],"outputs":[],"stateMutability":"nonpayable"},{"type":"function","name":"setDepositFee","inputs":[{"name":"_depositFee","type":"uint256","internalType":"uint256"}],"outputs":[],"stateMutability":"nonpayable"},{"type":"function","name":"setGov","inputs":[{"name":"_gov","type":"address","internalType":"address"}],"outputs":[],"stateMutability":"nonpayable"},{"type":"function","name":"setIncreasePositionBufferBps","inputs":[{"name":"_increasePositionBufferBps","type":"uint256","internalType":"uint256"}],"outputs":[],"stateMutability":"nonpayable"},{"type":"function","name":"setIsLeverageEnabled","inputs":[{"name":"_isLeverageEnabled","type":"bool","internalType":"bool"}],"outputs":[],"stateMutability":"nonpayable"},{"type":"function","name":"setMaxGlobalSizes","inputs":[{"name":"_tokens","type":"address[]","internalType":"address[]"},{"name":"_longSizes","type":"uint256[]","internalType":"uint256[]"},{"name":"_shortSizes","type":"uint256[]","internalType":"uint256[]"}],"outputs":[],"stateMutability":"nonpayable"},{"type":"function","name":"setMinExecutionFee","inputs":[{"name":"_minExecutionFee","type":"uint256","internalType":"uint256"}],"outputs":[],"stateMutability":"nonpayable"},{"type":"function","name":"setPositionKeeper","inputs":[{"name":"_account","type":"address","internalType":"address"},{"name":"_isActive","type":"bool","internalType":"bool"}],"outputs":[],"stateMutability":"nonpayable"},{"type":"function","name":"setReferralStorage","inputs":[{"name":"_referralStorage","type":"address","internalType":"address"}],"outputs":[],"stateMutability":"nonpayable"},{"type":"function","name":"setRequestKeysStartValues","inputs":[{"name":"_increasePositionRequestKeysStart","type":"uint256","internalType":"uint256"},{"name":"_decreasePositionRequestKeysStart","type":"uint256","internalType":"uint256"}],"outputs":[],"stateMutability":"nonpayable"},{"type":"function","name":"shortsTracker","inputs":[],"outputs":[{"name":"","type":"address","internalType":"address"}],"stateMutability":"view"},{"type":"function","name":"vault","inputs":[],"outputs":[{"name":"","type":"address","internalType":"address"}],"stateMutability":"view"},{"type":"function","name":"weth","inputs":[],"outputs":[{"name":"","type":"address","internalType":"address"}],"stateMutability":"view"},{"type":"function","name":"withdrawFees","inputs":[{"name":"_token","type":"address","internalType":"address"},{"name":"_receiver","type":"address","internalType":"address"}],"outputs":[],"stateMutability":"nonpayable"},{"type":"event","name":"Callback","inputs":[{"name":"callbackTarget","type":"address","indexed":false,"internalType":"address"},{"name":"success","type":"bool","indexed":false,"internalType":"bool"}],"anonymous":false},{"type":"event","name":"CancelDecreasePosition","inputs":[{"name":"account","type":"address","indexed":true,"internalType":"address"},{"name":"path","type":"address[]","indexed":false,"internalType":"address[]"},{"name":"indexToken","type":"address","indexed":false,"internalType":"address"},{"name":"collateralDelta","type":"uint256","indexed":false,"internalType":"uint256"},{"name":"sizeDelta","type":"uint256","indexed":false,"internalType":"uint256"},{"name":"isLong","type":"bool","indexed":false,"internalType":"bool"},{"name":"receiver","type":"address","indexed":false,"internalType":"address"},{"name":"acceptablePrice","type":"uint256","indexed":false,"internalType":"uint256"},{"name":"minOut","type":"uint256","indexed":false,"internalType":"uint256"},{"name":"executionFee","type":"uint256","indexed":false,"internalType":"uint256"},{"name":"blockGap","type":"uint256","indexed":false,"internalType":"uint256"},{"name":"timeGap","type":"uint256","indexed":false,"internalType":"uint256"}],"anonymous":false},{"type":"event","name":"CancelIncreasePosition","inputs":[{"name":"account","type":"address","indexed":true,"internalType":"address"},{"name":"path","type":"address[]","indexed":false,"internalType":"address[]"},{"name":"indexToken","type":"address","indexed":false,"internalType":"address"},{"name":"amountIn","type":"uint256","indexed":false,"internalType":"uint256"},{"name":"minOut","type":"uint256","indexed":false,"internalType":"uint256"},{"name":"sizeDelta","type":"uint256","indexed":false,"internalType":"uint256"},{"name":"isLong","type":"bool","indexed":false,"internalType":"bool"},{"name":"acceptablePrice","type":"uint256","indexed":false,"internalType":"uint256"},{"name":"executionFee","type":"uint256","indexed":false,"internalType":"uint256"},{"name":"blockGap","type":"uint256","indexed":false,"internalType":"uint256"},{"name":"timeGap","type":"uint256","indexed":false,"internalType":"uint256"}],"anonymous":false},{"type":"event","name":"CreateDecreasePosition","inputs":[{"name":"account","type":"address","indexed":true,"internalType":"address"},{"name":"path","type":"address[]","indexed":false,"internalType":"address[]"},{"name":"indexToken","type":"address","indexed":false,"internalType":"address"},{"name":"collateralDelta","type":"uint256","indexed":false,"internalType":"uint256"},{"name":"sizeDelta","type":"uint256","indexed":false,"internalType":"uint256"},{"name":"isLong","type":"bool","indexed":false,"internalType":"bool"},{"name":"receiver","type":"address","indexed":false,"internalType":"address"},{"name":"acceptablePrice","type":"uint256","indexed":false,"internalType":"uint256"},{"name":"minOut","type":"uint256","indexed":false,"internalType":"uint256"},{"name":"executionFee","type":"uint256","indexed":false,"internalType":"uint256"},{"name":"index","type":"uint256","indexed":false,"internalType":"uint256"},{"name":"queueIndex","type":"uint256","indexed":false,"internalType":"uint256"},{"name":"blockNumber","type":"uint256","indexed":false,"internalType":"uint256"},{"name":"blockTime","type":"uint256","indexed":false,"internalType":"uint256"}],"anonymous":false},{"type":"event","name":"CreateIncreasePosition","inputs":[{"name":"account","type":"address","indexed":true,"internalType":"address"},{"name":"path","type":"address[]","indexed":false,"internalType":"address[]"},{"name":"indexToken","type":"address","indexed":false,"internalType":"address"},{"name":"amountIn","type":"uint256","indexed":false,"internalType":"uint256"},{"name":"minOut","type":"uint256","indexed":false,"internalType":"uint256"},{"name":"sizeDelta","type":"uint256","indexed":false,"internalType":"uint256"},{"name":"isLong","type":"bool","indexed":false,"internalType":"bool"},{"name":"acceptablePrice","type":"uint256","indexed":false,"internalType":"uint256"},{"name":"executionFee","type":"uint256","indexed":false,"internalType":"uint256"},{"name":"index","type":"uint256","indexed":false,"internalType":"uint256"},{"name":"queueIndex","type":"uint256","indexed":false,"internalType":"uint256"},{"name":"blockNumber","type":"uint256","indexed":false,"internalType":"uint256"},{"name":"blockTime","type":"uint256","indexed":false,"internalType":"uint256"},{"name":"gasPrice","type":"uint256","indexed":false,"internalType":"uint256"}],"anonymous":false},{"type":"event","name":"DecreasePositionReferral","inputs":[{"name":"account","type":"address","indexed":false,"internalType":"address"},{"name":"sizeDelta","type":"uint256","indexed":false,"internalType":"uint256"},{"name":"marginFeeBasisPoints","type":"uint256","indexed":false,"internalType":"uint256"},{"name":"referralCode","type":"bytes32","indexed":false,"internalType":"bytes32"},{"name":"referrer","type":"address","indexed":false,"internalType":"address"}],"anonymous":false},{"type":"event","name":"ExecuteDecreasePosition","inputs":[{"name":"account","type":"address","indexed":true,"internalType":"address"},{"name":"path","type":"address[]","indexed":false,"internalType":"address[]"},{"name":"indexToken","type":"address","indexed":false,"internalType":"address"},{"name":"collateralDelta","type":"uint256","indexed":false,"internalType":"uint256"},{"name":"sizeDelta","type":"uint256","indexed":false,"internalType":"uint256"},{"name":"isLong","type":"bool","indexed":false,"internalType":"bool"},{"name":"receiver","type":"address","indexed":false,"internalType":"address"},{"name":"acceptablePrice","type":"uint256","indexed":false,"internalType":"uint256"},{"name":"minOut","type":"uint256","indexed":false,"internalType":"uint256"},{"name":"executionFee","type":"uint256","indexed":false,"internalType":"uint256"},{"name":"blockGap","type":"uint256","indexed":false,"internalType":"uint256"},{"name":"timeGap","type":"uint256","indexed":false,"internalType":"uint256"}],"anonymous":false},{"type":"event","name":"ExecuteIncreasePosition","inputs":[{"name":"account","type":"address","indexed":true,"internalType":"address"},{"name":"path","type":"address[]","indexed":false,"internalType":"address[]"},{"name":"indexToken","type":"address","indexed":false,"internalType":"address"},{"name":"amountIn","type":"uint256","indexed":false,"internalType":"uint256"},{"name":"minOut","type":"uint256","indexed":false,"internalType":"uint256"},{"name":"sizeDelta","type":"uint256","indexed":false,"internalType":"uint256"},{"name":"isLong","type":"bool","indexed":false,"internalType":"bool"},{"name":"acceptablePrice","type":"uint256","indexed":false,"internalType":"uint256"},{"name":"executionFee","type":"uint256","indexed":false,"internalType":"uint256"},{"name":"blockGap","type":"uint256","indexed":false,"internalType":"uint256"},{"name":"timeGap","type":"uint256","indexed":false,"internalType":"uint256"}],"anonymous":false},{"type":"event","name":"IncreasePositionReferral","inputs":[{"name":"account","type":"address","indexed":false,"internalType":"address"},{"name":"sizeDelta","type":"uint256","indexed":false,"internalType":"uint256"},{"name":"marginFeeBasisPoints","type":"uint256","indexed":false,"internalType":"uint256"},{"name":"referralCode","type":"bytes32","indexed":false,"internalType":"bytes32"},{"name":"referrer","type":"address","indexed":false,"internalType":"address"}],"anonymous":false},{"type":"event","name":"SetAdmin","inputs":[{"name":"admin","type":"address","indexed":false,"internalType":"address"}],"anonymous":false},{"type":"event","name":"SetCallbackGasLimit","inputs":[{"name":"callbackGasLimit","type":"uint256","indexed":false,"internalType":"uint256"}],"anonymous":false},{"type":"event","name":"SetDelayValues","inputs":[{"name":"minBlockDelayKeeper","type":"uint256","indexed":false,"internalType":"uint256"},{"name":"minTimeDelayPublic","type":"uint256","indexed":false,"internalType":"uint256"},{"name":"maxTimeDelay","type":"uint256","indexed":false,"internalType":"uint256"}],"anonymous":false},{"type":"event","name":"SetDepositFee","inputs":[{"name":"depositFee","type":"uint256","indexed":false,"internalType":"uint256"}],"anonymous":false},{"type":"event","name":"SetIncreasePositionBufferBps","inputs":[{"name":"increasePositionBufferBps","type":"uint256","indexed":false,"internalType":"uint256"}],"anonymous":false},{"type":"event","name":"SetIsLeverageEnabled","inputs":[{"name":"isLeverageEnabled","type":"bool","indexed":false,"internalType":"bool"}],"anonymous":false},{"type":"event","name":"SetMaxGlobalSizes","inputs":[{"name":"tokens","type":"address[]","indexed":false,"internalType":"address[]"},{"name":"longSizes","type":"uint256[]","indexed":false,"internalType":"uint256[]"},{"name":"shortSizes","type":"uint256[]","indexed":false,"internalType":"uint256[]"}],"anonymous":false},{"type":"event","name":"SetMinExecutionFee","inputs":[{"name":"minExecutionFee","type":"uint256","indexed":false,"internalType":"uint256"}],"anonymous":false},{"type":"event","name":"SetPositionKeeper","inputs":[{"name":"account","type":"address","indexed":true,"internalType":"address"},{"name":"isActive","type":"bool","indexed":false,"internalType":"bool"}],"anonymous":false},{"type":"event","name":"SetReferralStorage","inputs":[{"name":"referralStorage","type":"address","indexed":false,"internalType":"address"}],"anonymous":false},{"type":"event","name":"SetRequestKeysStartValues","inputs":[{"name":"increasePositionRequestKeysStart","type":"uint256","indexed":false,"internalType":"uint256"},{"name":"decreasePositionRequestKeysStart","type":"uint256","indexed":false,"internalType":"uint256"}],"anonymous":false},{"type":"event","name":"WithdrawFees","inputs":[{"name":"token","type":"address","indexed":false,"internalType":"address"},{"name":"receiver","type":"address","indexed":false,"internalType":"address"},{"name":"amount","type":"uint256","indexed":false,"internalType":"uint256"}],"anonymous":false}],"bytecode":{"object":"0x608060405260646008556011805460ff191660011790553480156200002357600080fd5b50604051620061c5380380620061c5833981810160405260c08110156200004957600080fd5b508051602082015160408301516060840151608085015160a090950151600160008181558154336001600160a01b031991821681179093556003805482166001600160a01b03998a16179055600580548216978916979097179096556006805487169588169590951790945560079690965560048054851695909216949094179055600280549092169093179055600d556160da908190620000eb90396000f3fe60806040526004361061036e5760003560e01c8063633451de116101c6578063cb0269c9116100f7578063f3883d8b11610095578063fa4445771161006f578063fa444577146110bd578063faf990f3146110f0578063fbfa77cf14611189578063fc2cee621461119e576103be565b8063f3883d8b1461105a578063f851a44014611093578063f887ea40146110a8576103be565b8063ef12c67e116100d1578063ef12c67e14610d53578063f255527814610f05578063f2ae372f14610f40578063f2cea6a51461101f576103be565b8063cb0269c914610cc8578063cfad57a214610cdd578063e1f21c6714610d10576103be565b80638a54942f1161016457806398d1e03a1161013e57806398d1e03a14610c325780639a20810014610c475780639b57862014610c80578063ae4d7f9a14610c95576103be565b80638a54942f14610bab57806395e9bbd714610bd55780639698d25a14610bff576103be565b806367a52793116101a057806367a5279314610a4c578063704b6c0214610a615780637be7d14114610a945780637c2eb9f714610b7f576103be565b8063633451de146109ef57806363ae210314610a22578063657bc5d014610a37576103be565b8063308aa81f116102a05780634278555f1161023e5780635b88e8c6116102185780635b88e8c61461082a5780635d5c22e81461090357806360a362e21461097d57806362f8a3fe146109b6576103be565b80634278555f146107c1578063490ae210146107eb5780635841fcaa14610815576103be565b80633a2a80c71161027a5780633a2a80c71461074c5780633e72a262146107615780633fc8cef3146107765780634067b1321461078b576103be565b8063308aa81f146106ae5780633422ead1146106de57806336eba48a14610719576103be565b80631ce9cb8f1161030d578063233bfe3b116102e7578063233bfe3b146105fd57806324a084df1461062757806324f746971461066057806327b42c0f14610675576103be565b80631ce9cb8f146104ef5780631f28510614610522578063225fc9fd146105c4576103be565b80631045c74e116103495780631045c74e1461047d578063126082cf146104b057806312d43a51146104c55780631bca8cf0146104da576103be565b80626cc35e146103c357806304225954146103f45780630d4d003d14610430576103be565b366103be576006546001600160a01b031633146103bc5760405162461bcd60e51b81526004018080602001828103825260238152602001806160586023913960400191505060405180910390fd5b005b600080fd5b3480156103cf57600080fd5b506103d86111c8565b604080516001600160a01b039092168252519081900360200190f35b34801561040057600080fd5b5061041e6004803603602081101561041757600080fd5b50356111d7565b60408051918252519081900360200190f35b34801561043c57600080fd5b506104696004803603604081101561045357600080fd5b50803590602001356001600160a01b03166111f5565b604080519115158252519081900360200190f35b34801561048957600080fd5b5061041e600480360360208110156104a057600080fd5b50356001600160a01b0316611693565b3480156104bc57600080fd5b5061041e6116a5565b3480156104d157600080fd5b506103d86116ab565b3480156104e657600080fd5b5061041e6116ba565b3480156104fb57600080fd5b5061041e6004803603602081101561051257600080fd5b50356001600160a01b03166116c0565b34801561052e57600080fd5b5061054c6004803603602081101561054557600080fd5b50356116d2565b604080516001600160a01b039e8f1681529c8e1660208e01528c81019b909b5260608c019990995296151560808b0152948a1660a08a015260c089019390935260e088019190915261010087015261012086015261014085015215156101608401529092166101808201529051908190036101a00190f35b3480156105d057600080fd5b50610469600480360360408110156105e757600080fd5b50803590602001356001600160a01b0316611745565b34801561060957600080fd5b506103bc6004803603602081101561062057600080fd5b5035611b0f565b34801561063357600080fd5b506103bc6004803603604081101561064a57600080fd5b506001600160a01b038135169060200135611b97565b34801561066c57600080fd5b5061041e611c05565b34801561068157600080fd5b506104696004803603604081101561069857600080fd5b50803590602001356001600160a01b0316611c0b565b3480156106ba57600080fd5b506103bc600480360360408110156106d157600080fd5b508035906020013561206d565b3480156106ea57600080fd5b506103bc6004803603604081101561070157600080fd5b506001600160a01b0381351690602001351515612103565b34801561072557600080fd5b506104696004803603602081101561073c57600080fd5b50356001600160a01b03166121b0565b34801561075857600080fd5b5061041e6121c5565b34801561076d57600080fd5b506104696121cb565b34801561078257600080fd5b506103d86121d4565b34801561079757600080fd5b506103bc600480360360608110156107ae57600080fd5b50803590602081013590604001356121e3565b3480156107cd57600080fd5b5061041e600480360360208110156107e457600080fd5b5035612284565b3480156107f757600080fd5b506103bc6004803603602081101561080e57600080fd5b5035612291565b34801561082157600080fd5b5061041e612319565b61041e600480360361012081101561084157600080fd5b810190602081018135600160201b81111561085b57600080fd5b82018360208201111561086d57600080fd5b803590602001918460208302840111600160201b8311171561088e57600080fd5b919080806020026020016040519081016040528093929190818152602001838360200280828437600092019190915250929550505081356001600160a01b03908116935060208301359260408101359250606081013515159160808201359160a08101359160c08201359160e001351661231f565b34801561090f57600080fd5b5061092d6004803603602081101561092657600080fd5b50356124db565b60408051602080825283518183015283519192839290830191858101910280838360005b83811015610969578181015183820152602001610951565b505050509050019250505060405180910390f35b34801561098957600080fd5b50610469600480360360408110156109a057600080fd5b50803590602001356001600160a01b0316612611565b3480156109c257600080fd5b5061041e600480360360408110156109d957600080fd5b506001600160a01b0381351690602001356129af565b3480156109fb57600080fd5b5061041e60048036036020811015610a1257600080fd5b50356001600160a01b03166129f5565b348015610a2e57600080fd5b5061041e612a07565b348015610a4357600080fd5b506103d8612a0d565b348015610a5857600080fd5b5061041e612a1c565b348015610a6d57600080fd5b506103bc60048036036020811015610a8457600080fd5b50356001600160a01b0316612a22565b61041e6004803603610160811015610aab57600080fd5b810190602081018135600160201b811115610ac557600080fd5b820183602082011115610ad757600080fd5b803590602001918460208302840111600160201b83111715610af857600080fd5b919080806020026020016040519081016040528093929190818152602001838360200280828437600092019190915250929550505081356001600160a01b039081169350602083013592604081013592506060810135151591608082013581169160a08101359160c08201359160e081013591610100820135151591610120013516612acd565b348015610b8b57600080fd5b506103bc60048036036020811015610ba257600080fd5b50351515612c7d565b348015610bb757600080fd5b506103bc60048036036020811015610bce57600080fd5b5035612d11565b348015610be157600080fd5b5061092d60048036036020811015610bf857600080fd5b5035612d99565b348015610c0b57600080fd5b5061041e60048036036020811015610c2257600080fd5b50356001600160a01b0316612ec7565b348015610c3e57600080fd5b5061041e612ed9565b348015610c5357600080fd5b506103bc60048036036040811015610c6a57600080fd5b50803590602001356001600160a01b0316612edf565b348015610c8c57600080fd5b5061041e6130b7565b348015610ca157600080fd5b506103bc60048036036020811015610cb857600080fd5b50356001600160a01b03166130bd565b348015610cd457600080fd5b5061041e61315e565b348015610ce957600080fd5b506103bc60048036036020811015610d0057600080fd5b50356001600160a01b0316613164565b348015610d1c57600080fd5b506103bc60048036036060811015610d3357600080fd5b506001600160a01b038135811691602081013590911690604001356131dd565b348015610d5f57600080fd5b506103bc60048036036060811015610d7657600080fd5b810190602081018135600160201b811115610d9057600080fd5b820183602082011115610da257600080fd5b803590602001918460208302840111600160201b83111715610dc357600080fd5b9190808060200260200160405190810160405280939291908181526020018383602002808284376000920191909152509295949360208101935035915050600160201b811115610e1257600080fd5b820183602082011115610e2457600080fd5b803590602001918460208302840111600160201b83111715610e4557600080fd5b9190808060200260200160405190810160405280939291908181526020018383602002808284376000920191909152509295949360208101935035915050600160201b811115610e9457600080fd5b820183602082011115610ea657600080fd5b803590602001918460208302840111600160201b83111715610ec757600080fd5b9190808060200260200160405190810160405280939291908181526020018383602002808284376000920191909152509295506132bc945050505050565b348015610f1157600080fd5b506103bc60048036036040811015610f2857600080fd5b506001600160a01b03813581169160200135166134ab565b61041e6004803603610140811015610f5757600080fd5b810190602081018135600160201b811115610f7157600080fd5b820183602082011115610f8357600080fd5b803590602001918460208302840111600160201b83111715610fa457600080fd5b919080806020026020016040519081016040528093929190818152602001838360200280828437600092019190915250929550506001600160a01b038335811694506020840135936040810135935060608101359250608081013515159160a08201359160c08101359160e08201359161010001351661358f565b34801561102b57600080fd5b50611034613772565b604080519485526020850193909352838301919091526060830152519081900360800190f35b34801561106657600080fd5b506103bc6004803603604081101561107d57600080fd5b50803590602001356001600160a01b0316613784565b34801561109f57600080fd5b506103d861395c565b3480156110b457600080fd5b506103d861396b565b3480156110c957600080fd5b5061041e600480360360208110156110e057600080fd5b50356001600160a01b031661397a565b3480156110fc57600080fd5b5061111a6004803603602081101561111357600080fd5b503561398c565b604080516001600160a01b039d8e1681529b8d1660208d01528b81019a909a5260608b019890985260808a019690965293151560a089015260c088019290925260e087015261010086015261012085015215156101408401529092166101608201529051908190036101800190f35b34801561119557600080fd5b506103d8613a00565b3480156111aa57600080fd5b506103bc600480360360208110156111c157600080fd5b5035613a0f565b6009546001600160a01b031681565b601281815481106111e457fe5b600091825260209091200154905081565b60006002600054141561123d576040805162461bcd60e51b815260206004820152601f6024820152600080516020615eb3833981519152604482015290519081900360640190fd5b600260005561124a615caf565b6000848152601b602090815260409182902082516101c08101845281546001600160a01b03168152600182018054855181860281018601909652808652919492938581019392908301828280156112ca57602002820191906000526020600020905b81546001600160a01b031681526001909101906020018083116112ac575b505050918352505060028201546001600160a01b0390811660208301526003830154604083015260048301546060830152600583015460ff8082161515608085015261010091829004831660a0850152600685015460c0850152600785015460e08501526008850154828501526009850154610120850152600a850154610140850152600b90940154938416151561016084015290920482166101809091015281519192501661137e576001915050611688565b60006113998261014001518361016001518460000151613a97565b9050806113ab57600092505050611688565b6000858152601b6020526040812080546001600160a01b0319168155906113d56001830182615d46565b506002810180546001600160a01b0319169055600060038201819055600482018190556005820180546001600160a81b031990811690915560068301829055600783018290556008830182905560098301829055600a8301829055600b909201805490921690915582516020840151805161147b929190849061145457fe5b60200260200101518560400151866060015187608001518860a00151308a60e00151613c1d565b9050801561152a57600183602001515111156114eb57600354602084015180516114d4926001600160a01b03169184916000906114b457fe5b60200260200101516001600160a01b03166140b69092919063ffffffff16565b6114e883602001518461010001513061410d565b90505b8261018001511561150957611504818460c0015161418b565b61152a565b61152a8360c00151828560200151600187602001515103815181106114b457fe5b6115398361012001518661418b565b82600001516001600160a01b03167f21435c5b618d77ff3657140cd3318e2cffaebc5e0e1b7318f56a9ba4044c3ed284602001518560400151866060015187608001518860a001518960c001518a60e001518b61010001518c61012001516115af8e61014001514361422690919063ffffffff16565b6101608f01516115c0904290614226565b60405180806020018c6001600160a01b031681526020018b81526020018a81526020018915158152602001886001600160a01b0316815260200187815260200186815260200185815260200184815260200183815260200182810382528d818151815260200191508051906020019060200280838360005b83811015611650578181015183820152602001611638565b505050509050019c5050505050505050505050505060405180910390a2611680836101a001518760016000614268565b600193505050505b600160005592915050565b600b6020526000908152604090205481565b61271081565b6001546001600160a01b031681565b60155481565b600a6020526000908152604090205481565b601b602052600090815260409020805460028201546003830154600484015460058501546006860154600787015460088801546009890154600a8a0154600b909a01546001600160a01b03998a169a988a16999798969760ff80881698610100988990048316989093918216929104168d565b60006002600054141561178d576040805162461bcd60e51b815260206004820152601f6024820152600080516020615eb3833981519152604482015290519081900360640190fd5b600260005561179a615d64565b60008481526019602090815260409182902082516101a08101845281546001600160a01b031681526001820180548551818602810186019096528086529194929385810193929083018282801561181a57602002820191906000526020600020905b81546001600160a01b031681526001909101906020018083116117fc575b505050918352505060028201546001600160a01b039081166020830152600383015460408301526004830154606083015260058301546080830152600683015460ff908116151560a0840152600784015460c0840152600884015460e0840152600984015461010080850191909152600a850154610120850152600b909401549081161515610140840152929092048216610160909101528151919250166118c6576001915050611688565b60006118e1826101200151836101400151846000015161436e565b9050806118f357600092505050611688565b600085815260196020526040812080546001600160a01b03191681559061191d6001830182615d46565b506002810180546001600160a01b0319169055600060038201819055600482018190556005820181905560068201805460ff19169055600782018190556008820181905560098201819055600a820155600b0180546001600160a81b0319169055610160820151156119a05761199b8260600151836000015161418b565b6119be565b6119be8260000151836060015184602001516000815181106114b457fe5b6119cd8261010001518561418b565b81600001516001600160a01b03167f35b638e650e2328786fb405bd69d2083dbedc018d086662e74b775b4f1dae4bf83602001518460400151856060015186608001518760a001518860c001518960e001518a6101000151611a3d8c61012001514361422690919063ffffffff16565b6101408d0151611a4e904290614226565b60405180806020018b6001600160a01b031681526020018a8152602001898152602001888152602001871515815260200186815260200185815260200184815260200183815260200182810382528c818151815260200191508051906020019060200280838360005b83811015611acf578181015183820152602001611ab7565b505050509050019b50505050505050505050505060405180910390a2611afe8261018001518660006001614268565b600192505050600160005592915050565b6002546001600160a01b03163314611b5c576040805162461bcd60e51b815260206004820152601e6024820152600080516020615f8e833981519152604482015290519081900360640190fd5b60088190556040805182815290517f21167d0d4661af93817ebce920f18986eed3d75d5e1c03f2aed05efcbafbc4529181900360200190a150565b6001546001600160a01b03163314611bee576040805162461bcd60e51b815260206004820152601560248201527423b7bb32b93730b136329d103337b93134b23232b760591b604482015290519081900360640190fd5b611c016001600160a01b038316826143d6565b5050565b60165481565b600060026000541415611c53576040805162461bcd60e51b815260206004820152601f6024820152600080516020615eb3833981519152604482015290519081900360640190fd5b6002600055611c60615d64565b60008481526019602090815260409182902082516101a08101845281546001600160a01b0316815260018201805485518186028101860190965280865291949293858101939290830182828015611ce057602002820191906000526020600020905b81546001600160a01b03168152600190910190602001808311611cc2575b505050918352505060028201546001600160a01b039081166020830152600383015460408301526004830154606083015260058301546080830152600683015460ff908116151560a0840152600784015460c0840152600884015460e0840152600984015461010080850191909152600a850154610120850152600b90940154908116151561014084015292909204821661016090910152815191925016611d8c576001915050611688565b6000611da78261012001518361014001518460000151613a97565b905080611db957600092505050611688565b600085815260196020526040812080546001600160a01b031916815590611de36001830182615d46565b506002810180546001600160a01b0319169055600060038201819055600482018190556005820181905560068201805460ff19169055600782018190556008820181905560098201819055600a820155600b0180546001600160a81b0319169055606082015115611ef057606082015160208301515160011015611e9f57600354606084015160208501518051611e89936001600160a01b03169291906000906114b457fe5b611e9c836020015184608001513061410d565b90505b6000611ebf3385602001518487604001518860c001518960a001516144bb565b60035460208601518051929350611eed926001600160a01b039092169184919060001981019081106114b457fe5b50505b815160208301518051611f2e9291906000198101908110611f0d57fe5b602002602001015184604001518560a001518660c001518760e0015161459a565b611f3d8261010001518561418b565b81600001516001600160a01b03167f1be316b94d38c07bd41cdb4913772d0a0a82802786a2f8b657b6e85dbcdfc64183602001518460400151856060015186608001518760a001518860c001518960e001518a6101000151611fad8c61012001514361422690919063ffffffff16565b6101408d0151611fbe904290614226565b60405180806020018b6001600160a01b031681526020018a8152602001898152602001888152602001871515815260200186815260200185815260200184815260200183815260200182810382528c818151815260200191508051906020019060200280838360005b8381101561203f578181015183820152602001612027565b505050509050019b50505050505050505050505060405180910390a2611afe82610180015186600180614268565b6002546001600160a01b031633146120ba576040805162461bcd60e51b815260206004820152601e6024820152600080516020615f8e833981519152604482015290519081900360640190fd5b60148290556015819055604080518381526020810183905281517febb0f666150f4be5b60c45df8f3e49992510b0128027fe58eea6110f296493bc929181900390910190a15050565b6002546001600160a01b03163314612150576040805162461bcd60e51b815260206004820152601e6024820152600080516020615f8e833981519152604482015290519081900360640190fd5b6001600160a01b038216600081815260176020908152604091829020805460ff1916851515908117909155825190815291517ffbabc02389290a451c6e600d05bf9887b99bfad39d8e1237e4e3df042e4941fe9281900390910190a25050565b60176020526000908152604090205460ff1681565b600f5481565b60115460ff1681565b6006546001600160a01b031681565b6002546001600160a01b03163314612230576040805162461bcd60e51b815260206004820152601e6024820152600080516020615f8e833981519152604482015290519081900360640190fd5b600e839055600f8290556010819055604080518481526020810184905280820183905290517fb98e759701eaca2e60c25e91109003c1c7442ef731b5d569037063005da8254d9181900360600190a1505050565b601381815481106111e457fe5b6002546001600160a01b031633146122de576040805162461bcd60e51b815260206004820152601e6024820152600080516020615f8e833981519152604482015290519081900360640190fd5b60078190556040805182815290517f974fd3c1fcb4653dfc4fb740c4c692cd212d55c28f163f310128cb64d83006759181900360200190a150565b600e5481565b600060026000541415612367576040805162461bcd60e51b815260206004820152601f6024820152600080516020615eb3833981519152604482015290519081900360640190fd5b6002600055600d548410156123a9576040805162461bcd60e51b815260206004820152600360248201526266656560e81b604482015290519081900360640190fd5b833410156123e4576040805162461bcd60e51b81526020600482015260036024820152621d985b60ea1b604482015290519081900360640190fd5b8951600114806123f5575089516002145b61242c576040805162461bcd60e51b81526020600482015260036024820152623632b760e91b604482015290519081900360640190fd5b6006548a516001600160a01b03909116908b9060009061244857fe5b60200260200101516001600160a01b031614612494576040805162461bcd60e51b815260206004808301919091526024820152630e0c2e8d60e31b604482015290519081900360640190fd5b61249c6149a2565b6124a583614a0e565b60006124b13486614226565b90506124c7338c8c848d8d8d8d8d60018d614a82565b60016000559b9a5050505050505050505050565b60606124e5615caf565b6000838152601b602090815260409182902082516101c08101845281546001600160a01b031681526001820180548551818602810186019096528086529194929385810193929083018282801561256557602002820191906000526020600020905b81546001600160a01b03168152600190910190602001808311612547575b505050918352505060028201546001600160a01b039081166020808401919091526003840154604084015260048401546060840152600584015460ff8082161515608086015261010091829004841660a0860152600686015460c0860152600786015460e08601526008860154828601526009860154610120860152600a860154610140860152600b909501549485161515610160850152909304166101809091015201519392505050565b600060026000541415612659576040805162461bcd60e51b815260206004820152601f6024820152600080516020615eb3833981519152604482015290519081900360640190fd5b6002600055612666615caf565b6000848152601b602090815260409182902082516101c08101845281546001600160a01b03168152600182018054855181860281018601909652808652919492938581019392908301828280156126e657602002820191906000526020600020905b81546001600160a01b031681526001909101906020018083116126c8575b505050918352505060028201546001600160a01b0390811660208301526003830154604083015260048301546060830152600583015460ff8082161515608085015261010091829004831660a0850152600685015460c0850152600785015460e08501526008850154828501526009850154610120850152600a850154610140850152600b90940154938416151561016084015290920482166101809091015281519192501661279a576001915050611688565b60006127b5826101400151836101600151846000015161436e565b9050806127c757600092505050611688565b6000858152601b6020526040812080546001600160a01b0319168155906127f16001830182615d46565b506002810180546001600160a01b0319169055600060038201819055600482018190556005820180546001600160a81b031990811690915560068301829055600783018290556008830182905560098301829055600a830191909155600b90910180549091169055610120820151612869908561418b565b81600001516001600160a01b03167f87abfd78e844f28318363bdf3da99eab2f4a2da9ff7ae365484507f7b6c3f80583602001518460400151856060015186608001518760a001518860c001518960e001518a61010001518b61012001516128df8d61014001514361422690919063ffffffff16565b6101608e01516128f0904290614226565b60405180806020018c6001600160a01b031681526020018b81526020018a81526020018915158152602001886001600160a01b0316815260200187815260200186815260200185815260200184815260200183815260200182810382528d818151815260200191508051906020019060200280838360005b83811015612980578181015183820152602001612968565b505050509050019c5050505050505050505050505060405180910390a2611afe826101a0015186600080614268565b6000828260405160200180836001600160a01b031660601b8152601401828152602001925050506040516020818303038152906040528051906020012090505b92915050565b60186020526000908152604090205481565b600d5481565b6004546001600160a01b031681565b60075481565b6001546001600160a01b03163314612a79576040805162461bcd60e51b815260206004820152601560248201527423b7bb32b93730b136329d103337b93134b23232b760591b604482015290519081900360640190fd5b600280546001600160a01b0383166001600160a01b0319909116811790915560408051918252517f5a272403b402d892977df56625f4164ccaf70ca3863991c43ecfe76a6905b0a19181900360200190a150565b600060026000541415612b15576040805162461bcd60e51b815260206004820152601f6024820152600080516020615eb3833981519152604482015290519081900360640190fd5b6002600055600d54841015612b57576040805162461bcd60e51b815260206004820152600360248201526266656560e81b604482015290519081900360640190fd5b833414612b91576040805162461bcd60e51b81526020600482015260036024820152621d985b60ea1b604482015290519081900360640190fd5b8b5160011480612ba257508b516002145b612bd9576040805162461bcd60e51b81526020600482015260036024820152623632b760e91b604482015290519081900360640190fd5b8215612c4c576006548c516001600160a01b03909116908d906000198101908110612c0057fe5b60200260200101516001600160a01b031614612c4c576040805162461bcd60e51b815260206004808301919091526024820152630e0c2e8d60e31b604482015290519081900360640190fd5b612c546149a2565b612c68338d8d8d8d8d8d8d8d8d8d8d614c19565b60016000559c9b505050505050505050505050565b6002546001600160a01b03163314612cca576040805162461bcd60e51b815260206004820152601e6024820152600080516020615f8e833981519152604482015290519081900360640190fd5b6011805482151560ff19909116811790915560408051918252517f4eb87a5935d402aa24c01b45bfb30adefcd2328b480f2d967864de4b64ea929f9181900360200190a150565b6002546001600160a01b03163314612d5e576040805162461bcd60e51b815260206004820152601e6024820152600080516020615f8e833981519152604482015290519081900360640190fd5b60168190556040805182815290517f22bd2c9f980325d046be74aaef5fc76df4a2bc3fbc7c5a1200fcc79fe80dab6c9181900360200190a150565b6060612da3615d64565b60008381526019602090815260409182902082516101a08101845281546001600160a01b0316815260018201805485518186028101860190965280865291949293858101939290830182828015612e2357602002820191906000526020600020905b81546001600160a01b03168152600190910190602001808311612e05575b505050918352505060028201546001600160a01b03908116602080840191909152600384015460408401526004840154606084015260058401546080840152600684015460ff908116151560a0850152600785015460c0850152600885015460e0850152600985015461010080860191909152600a860154610120860152600b90950154908116151561014085015293909304166101609091015201519392505050565b600c6020526000908152604090205481565b60085481565b3360009081526017602052604090205460ff16612f29576040805162461bcd60e51b815260206004820152600360248201526234303360e81b604482015290519081900360640190fd5b601454601254808210612f3d575050611c01565b80841115612f49578093505b838210156130af57600060128381548110612f6057fe5b90600052602060002001549050306001600160a01b03166327b42c0f82866040518363ffffffff1660e01b815260040180838152602001826001600160a01b0316815260200192505050602060405180830381600087803b158015612fc457600080fd5b505af1925050508015612fe957506040513d6020811015612fe457600080fd5b505160015b61307d576040805163225fc9fd60e01b8152600481018390526001600160a01b03861660248201529051309163225fc9fd9160448083019260209291908290030181600087803b15801561303c57600080fd5b505af192505050801561306157506040513d602081101561305c57600080fd5b505160015b61306a57613078565b806130765750506130af565b505b61308b565b806130895750506130af565b505b6012838154811061309857fe5b600091825260208220015550600190910190612f49565b506014555050565b60145481565b6002546001600160a01b0316331461310a576040805162461bcd60e51b815260206004820152601e6024820152600080516020615f8e833981519152604482015290519081900360640190fd5b600980546001600160a01b0383166001600160a01b0319909116811790915560408051918252517f828abcccea18192c21d645e575652c49e20b986dab777906fc473d056b01b6a89181900360200190a150565b60105481565b6001546001600160a01b031633146131bb576040805162461bcd60e51b815260206004820152601560248201527423b7bb32b93730b136329d103337b93134b23232b760591b604482015290519081900360640190fd5b600180546001600160a01b0319166001600160a01b0392909216919091179055565b6001546001600160a01b03163314613234576040805162461bcd60e51b815260206004820152601560248201527423b7bb32b93730b136329d103337b93134b23232b760591b604482015290519081900360640190fd5b826001600160a01b031663095ea7b383836040518363ffffffff1660e01b815260040180836001600160a01b0316815260200182815260200192505050602060405180830381600087803b15801561328b57600080fd5b505af115801561329f573d6000803e3d6000fd5b505050506040513d60208110156132b557600080fd5b5050505050565b6002546001600160a01b03163314613309576040805162461bcd60e51b815260206004820152601e6024820152600080516020615f8e833981519152604482015290519081900360640190fd5b60005b83518110156133a457600084828151811061332357fe5b6020026020010151905083828151811061333957fe5b6020026020010151600b6000836001600160a01b03166001600160a01b031681526020019081526020016000208190555082828151811061337657fe5b6020908102919091018101516001600160a01b039092166000908152600c909152604090205560010161330c565b507fae32d569b058895b9620d6552b09aaffedc9a6f396be4d595a224ad09f8b213983838360405180806020018060200180602001848103845287818151815260200191508051906020019060200280838360005b838110156134115781810151838201526020016133f9565b50505050905001848103835286818151815260200191508051906020019060200280838360005b83811015613450578181015183820152602001613438565b50505050905001848103825285818151815260200191508051906020019060200280838360005b8381101561348f578181015183820152602001613477565b50505050905001965050505050505060405180910390a1505050565b6002546001600160a01b031633146134f8576040805162461bcd60e51b815260206004820152601e6024820152600080516020615f8e833981519152604482015290519081900360640190fd5b6001600160a01b0382166000908152600a60205260409020548061351c5750611c01565b6001600160a01b0383166000818152600a60205260408120556135409083836140b6565b604080516001600160a01b0380861682528416602082015280820183905290517f4f1b51dd7a2fcb861aa2670f668be66835c4ee12b4bbbf037e4d0018f39819e49181900360600190a1505050565b6000600260005414156135d7576040805162461bcd60e51b815260206004820152601f6024820152600080516020615eb3833981519152604482015290519081900360640190fd5b6002600055600d54841015613619576040805162461bcd60e51b815260206004820152600360248201526266656560e81b604482015290519081900360640190fd5b833414613653576040805162461bcd60e51b81526020600482015260036024820152621d985b60ea1b604482015290519081900360640190fd5b8a516001148061366457508a516002145b61369b576040805162461bcd60e51b81526020600482015260036024820152623632b760e91b604482015290519081900360640190fd5b6136a36149a2565b6136ac83614a0e565b881561375e576005548b516001600160a01b0390911690631b827878908d906000906136d457fe5b602002602001015133308d6040518563ffffffff1660e01b815260040180856001600160a01b03168152602001846001600160a01b03168152602001836001600160a01b03168152602001828152602001945050505050600060405180830381600087803b15801561374557600080fd5b505af1158015613759573d6000803e3d6000fd5b505050505b6124c7338c8c8c8c8c8c8c8c60008c614a82565b60145460125460155460135490919293565b3360009081526017602052604090205460ff166137ce576040805162461bcd60e51b815260206004820152600360248201526234303360e81b604482015290519081900360640190fd5b6015546013548082106137e2575050611c01565b808411156137ee578093505b838210156139545760006013838154811061380557fe5b90600052602060002001549050306001600160a01b0316630d4d003d82866040518363ffffffff1660e01b815260040180838152602001826001600160a01b0316815260200192505050602060405180830381600087803b15801561386957600080fd5b505af192505050801561388e57506040513d602081101561388957600080fd5b505160015b6139225760408051633051b17160e11b8152600481018390526001600160a01b0386166024820152905130916360a362e29160448083019260209291908290030181600087803b1580156138e157600080fd5b505af192505050801561390657506040513d602081101561390157600080fd5b505160015b61390f5761391d565b8061391b575050613954565b505b613930565b8061392e575050613954565b505b6013838154811061393d57fe5b6000918252602082200155506001909101906137ee565b506015555050565b6002546001600160a01b031681565b6005546001600160a01b031681565b601a6020526000908152604090205481565b6019602052600090815260409020805460028201546003830154600484015460058501546006860154600787015460088801546009890154600a8a0154600b909a01546001600160a01b03998a169a988a169997989697959660ff958616969495939492939092908216916101009004168c565b6003546001600160a01b031681565b6002546001600160a01b03163314613a5c576040805162461bcd60e51b815260206004820152601e6024820152600080516020615f8e833981519152604482015290519081900360640190fd5b600d8190556040805182815290517f52a8358457e20bbb36e4086b83fb0749599f1893fe4c35a876c46dc4886d12db9181900360200190a150565b600042613aaf60105485614df390919063ffffffff16565b11613aeb576040805162461bcd60e51b8152602060048201526007602482015266195e1c1a5c995960ca1b604482015290519081900360640190fd5b600033301480613b0a57503360009081526017602052604090205460ff165b60115490915060ff16158015613b1e575080155b15613b56576040805162461bcd60e51b815260206004820152600360248201526234303360e81b604482015290519081900360640190fd5b8015613b7c5743613b72600e5487614df390919063ffffffff16565b1115915050613c16565b336001600160a01b03841614613bbf576040805162461bcd60e51b815260206004820152600360248201526234303360e81b604482015290519081900360640190fd5b42613bd5600f5486614df390919063ffffffff16565b1115613c10576040805162461bcd60e51b815260206004820152600560248201526464656c617960d81b604482015290519081900360640190fd5b60019150505b9392505050565b6003546000906001600160a01b03168185613cb057816001600160a01b031663e124e6d28a6040518263ffffffff1660e01b815260040180826001600160a01b0316815260200191505060206040518083038186803b158015613c7f57600080fd5b505afa158015613c93573d6000803e3d6000fd5b505050506040513d6020811015613ca957600080fd5b5051613d2a565b816001600160a01b03166381a612d68a6040518263ffffffff1660e01b815260040180826001600160a01b0316815260200191505060206040518083038186803b158015613cfd57600080fd5b505afa158015613d11573d6000803e3d6000fd5b505050506040513d6020811015613d2757600080fd5b50515b90508515613d765783811015613d715760405162461bcd60e51b8152600401808060200182810382526030815260200180615f5e6030913960400191505060405180910390fd5b613db5565b83811115613db55760405162461bcd60e51b8152600401808060200182810382526031815260200180615ffe6031913960400191505060405180910390fd5b6000826001600160a01b03166312d43a516040518163ffffffff1660e01b815260040160206040518083038186803b158015613df057600080fd5b505afa158015613e04573d6000803e3d6000fd5b505050506040513d6020811015613e1a57600080fd5b81019080805190602001909291905050509050600460009054906101000a90046001600160a01b03166001600160a01b031663f3238cec8d8d8d8b8d8860006040518863ffffffff1660e01b815260040180886001600160a01b03168152602001876001600160a01b03168152602001866001600160a01b0316815260200185151581526020018481526020018381526020018215158152602001975050505050505050600060405180830381600087803b158015613ed857600080fd5b505af1158015613eec573d6000803e3d6000fd5b50505050806001600160a01b0316636d63c1d0846040518263ffffffff1660e01b815260040180826001600160a01b03168152602001915050600060405180830381600087803b158015613f3f57600080fd5b505af1158015613f53573d6000803e3d6000fd5b505050506000600560009054906101000a90046001600160a01b03166001600160a01b0316632662166b8e8e8e8e8e8e8e6040518863ffffffff1660e01b815260040180886001600160a01b03168152602001876001600160a01b03168152602001866001600160a01b031681526020018581526020018481526020018315158152602001826001600160a01b03168152602001975050505050505050602060405180830381600087803b15801561400a57600080fd5b505af115801561401e573d6000803e3d6000fd5b505050506040513d602081101561403457600080fd5b50516040805163d3c87bbb60e01b81526001600160a01b03878116600483015291519293509084169163d3c87bbb9160248082019260009290919082900301818387803b15801561408457600080fd5b505af1158015614098573d6000803e3d6000fd5b505050506140a68d8a614e4d565b9c9b505050505050505050505050565b604080516001600160a01b038416602482015260448082018490528251808303909101815260649091019091526020810180516001600160e01b031663a9059cbb60e01b179052614108908490614fd6565b505050565b60008351600214156141545761414d8460008151811061412957fe5b60200260200101518560018151811061413e57fe5b60200260200101518585615087565b9050613c16565b60405162461bcd60e51b815260040180806020018281038252602981526020018061602f6029913960400191505060405180910390fd5b60065460408051632e1a7d4d60e01b81526004810185905290516001600160a01b0390921691632e1a7d4d9160248082019260009290919082900301818387803b1580156141d857600080fd5b505af11580156141ec573d6000803e3d6000fd5b50506040516001600160a01b038416925084156108fc02915084906000818181858888f19350505050158015614108573d6000803e3d6000fd5b6000613c1683836040518060400160405280601e81526020017f536166654d6174683a207375627472616374696f6e206f766572666c6f77000081525061515d565b6001600160a01b03841661427b57614368565b61428d846001600160a01b03166151f4565b61429657614368565b601654806142a45750614368565b6000856001600160a01b031663edf3daec838787876040518563ffffffff1660e01b815260040180848152602001831515815260200182151581526020019350505050600060405180830381600088803b15801561430157600080fd5b5087f193505050508015614313575060015b61431c57614320565b5060015b604080516001600160a01b0388168152821515602082015281517f46ddbd62fc1a7626fe9c43026cb0694aec0b031fe81ac66fb4cfe9381dc6fe72929181900390910190a150505b50505050565b60008033301480613b0a57503360009081526017602052604090205460ff1660115490915060ff16158015613b1e575080613b56576040805162461bcd60e51b815260206004820152600360248201526234303360e81b604482015290519081900360640190fd5b8047101561442b576040805162461bcd60e51b815260206004820152601d60248201527f416464726573733a20696e73756666696369656e742062616c616e6365000000604482015290519081900360640190fd5b6040516000906001600160a01b0384169083908381818185875af1925050503d8060008114614476576040519150601f19603f3d011682016040523d82523d6000602084013e61447b565b606091505b50509050806141085760405162461bcd60e51b815260040180806020018281038252603a815260200180615efe603a913960400191505060405180910390fd5b6000806144cc8888888888886151fa565b9050801561458b5760006145036127106144fd6144f660075461271061422690919063ffffffff16565b8a906153d7565b90615430565b905060006145118883614226565b905060008960018b51038151811061452557fe5b6020026020010151905061456782600a6000846001600160a01b03166001600160a01b0316815260200190815260200160002054614df390919063ffffffff16565b6001600160a01b039091166000908152600a60205260409020555091506145909050565b859150505b9695505050505050565b6003546001600160a01b031660008361462b57816001600160a01b03166381a612d6876040518263ffffffff1660e01b815260040180826001600160a01b0316815260200191505060206040518083038186803b1580156145fa57600080fd5b505afa15801561460e573d6000803e3d6000fd5b505050506040513d602081101561462457600080fd5b50516146a5565b816001600160a01b031663e124e6d2876040518263ffffffff1660e01b815260040180826001600160a01b0316815260200191505060206040518083038186803b15801561467857600080fd5b505afa15801561468c573d6000803e3d6000fd5b505050506040513d60208110156146a257600080fd5b50515b905083156146f157828111156146ec5760405162461bcd60e51b8152600401808060200182810382526031815260200180615ffe6031913960400191505060405180910390fd5b614730565b828110156147305760405162461bcd60e51b8152600401808060200182810382526030815260200180615f5e6030913960400191505060405180910390fd5b61473b868587615472565b6000826001600160a01b03166312d43a516040518163ffffffff1660e01b815260040160206040518083038186803b15801561477657600080fd5b505afa15801561478a573d6000803e3d6000fd5b505050506040513d60208110156147a057600080fd5b50516004805460408051633cc8e33b60e21b81526001600160a01b038e8116948201949094528c841660248201528b841660448201528915156064820152608481018b905260a48101879052600160c4820152905193945091169163f3238cec9160e48082019260009290919082900301818387803b15801561482257600080fd5b505af1158015614836573d6000803e3d6000fd5b50505050806001600160a01b0316636d63c1d0846040518263ffffffff1660e01b815260040180826001600160a01b03168152602001915050600060405180830381600087803b15801561488957600080fd5b505af115801561489d573d6000803e3d6000fd5b505060055460408051630f8ee8bb60e11b81526001600160a01b038e811660048301528d811660248301528c81166044830152606482018c90528a151560848301529151919092169350631f1dd176925060a480830192600092919082900301818387803b15801561490e57600080fd5b505af1158015614922573d6000803e3d6000fd5b50505050806001600160a01b031663d3c87bbb846040518263ffffffff1660e01b815260040180826001600160a01b03168152602001915050600060405180830381600087803b15801561497557600080fd5b505af1158015614989573d6000803e3d6000fd5b505050506149978987615624565b505050505050505050565b3415614a0c57600660009054906101000a90046001600160a01b03166001600160a01b031663d0e30db0346040518263ffffffff1660e01b81526004016000604051808303818588803b1580156149f857600080fd5b505af11580156132b5573d6000803e3d6000fd5b565b8015801590614a2757506009546001600160a01b031615155b15614a7f57600954604080516356b4b2ad60e01b81523360048201526024810184905290516001600160a01b03909216916356b4b2ad9160448082019260009290919082900301818387803b1580156149f857600080fd5b50565b6000614a8c615d64565b604051806101a001604052808e6001600160a01b031681526020018d81526020018c6001600160a01b031681526020018b81526020018a815260200189815260200188151581526020018781526020018681526020014381526020014281526020018515158152602001846001600160a01b03168152509050600080614b118361572a565b915091508e6001600160a01b03167f5265bc4952da402633b3fc35f67ab4245493a0ab94dd8ab123667c8d45a4485c8f8f8f8f8f8f8f8f8b60016012805490500343423a60405180806020018e6001600160a01b031681526020018d81526020018c81526020018b81526020018a1515815260200189815260200188815260200187815260200186815260200185815260200184815260200183815260200182810382528f818151815260200191508051906020019060200280838360005b83811015614be8578181015183820152602001614bd0565b505050509050019e50505050505050505050505050505060405180910390a29e9d5050505050505050505050505050565b6000614c23615caf565b604051806101c001604052808f6001600160a01b031681526020018e81526020018d6001600160a01b031681526020018c81526020018b81526020018a15158152602001896001600160a01b031681526020018881526020018781526020018681526020014381526020014281526020018515158152602001846001600160a01b03168152509050600080614cb7836158c8565b9150915082600001516001600160a01b03167f81ed0476a7e785a9e4728fffd679ea97176ca1ac85e1003462558bb5677da57b84602001518560400151866060015187608001518860a001518960c001518a60e001518b61010001518c61012001518c600160138054905003434260405180806020018e6001600160a01b031681526020018d81526020018c81526020018b151581526020018a6001600160a01b0316815260200189815260200188815260200187815260200186815260200185815260200184815260200183815260200182810382528f818151815260200191508051906020019060200280838360005b83811015614dc1578181015183820152602001614da9565b505050509050019e50505050505050505050505050505060405180910390a29f9e505050505050505050505050505050565b600082820183811015613c16576040805162461bcd60e51b815260206004820152601b60248201527f536166654d6174683a206164646974696f6e206f766572666c6f770000000000604482015290519081900360640190fd5b6009546001600160a01b031680614e645750611c01565b600080826001600160a01b031663534ef883866040518263ffffffff1660e01b815260040180826001600160a01b03168152602001915050604080518083038186803b158015614eb357600080fd5b505afa158015614ec7573d6000803e3d6000fd5b505050506040513d6040811015614edd57600080fd5b508051602090910151909250905081614ef857505050611c01565b7f474c763ff84bf2c2039a6d9fea955ecd0f724030e3c365b91169c6a16fe751b78585600360009054906101000a90046001600160a01b03166001600160a01b031663318bc6896040518163ffffffff1660e01b815260040160206040518083038186803b158015614f6957600080fd5b505afa158015614f7d573d6000803e3d6000fd5b505050506040513d6020811015614f9357600080fd5b5051604080516001600160a01b03948516815260208101939093528281019190915260608201869052918416608082015290519081900360a00190a15050505050565b606061502b826040518060400160405280602081526020017f5361666545524332303a206c6f772d6c6576656c2063616c6c206661696c6564815250856001600160a01b0316615a719092919063ffffffff16565b8051909150156141085780806020019051602081101561504a57600080fd5b50516141085760405162461bcd60e51b815260040180806020018281038252602a81526020018061607b602a913960400191505060405180910390fd5b60035460408051634998b10960e11b81526001600160a01b03878116600483015286811660248301528481166044830152915160009384931691639331621291606480830192602092919082900301818787803b1580156150e757600080fd5b505af11580156150fb573d6000803e3d6000fd5b505050506040513d602081101561511157600080fd5b50519050838110156151545760405162461bcd60e51b815260040180806020018281038252602b815260200180615ed3602b913960400191505060405180910390fd5b95945050505050565b600081848411156151ec5760405162461bcd60e51b81526004018080602001828103825283818151815260200191508051906020019080838360005b838110156151b1578181015183820152602001615199565b50505050905090810190601f1680156151de5780820380516001836020036101000a031916815260200191505b509250505060405180910390fd5b505050900390565b3b151590565b60008261520957506000614590565b8161521657506001614590565b60008660018851038151811061522857fe5b602090810291909101015160035460408051634a3f088d60e01b81526001600160a01b038c81166004830152808516602483015289811660448301528815156064830152915193945091169160009182918491634a3f088d91608480830192610100929190829003018186803b1580156152a157600080fd5b505afa1580156152b5573d6000803e3d6000fd5b505050506040513d6101008110156152cc57600080fd5b5080516020909101519092509050816152ec576000945050505050614590565b60006152f88388614df3565b90506000846001600160a01b0316630a48d5a9878d6040518363ffffffff1660e01b815260040180836001600160a01b031681526020018281526020019250505060206040518083038186803b15801561535157600080fd5b505afa158015615365573d6000803e3d6000fd5b505050506040513d602081101561537b57600080fd5b50519050600061538b8483614df3565b9050600061539f856144fd886127106153d7565b905060006153c0836144fd60085461271001886153d790919063ffffffff16565b919091109f9e505050505050505050505050505050565b6000826153e6575060006129ef565b828202828482816153f357fe5b0414613c165760405162461bcd60e51b8152600401808060200182810382526021815260200180615fdd6021913960400191505060405180910390fd5b6000613c1683836040518060400160405280601a81526020017f536166654d6174683a206469766973696f6e206279207a65726f000000000000815250615a88565b8061547c57614108565b811561556f576001600160a01b0383166000908152600b6020526040902054801580159061552d57506003546040805163783a2b6760e11b81526001600160a01b0387811660048301529151849361552b93879391169163f07456ce91602480820192602092909190829003018186803b1580156154f957600080fd5b505afa15801561550d573d6000803e3d6000fd5b505050506040513d602081101561552357600080fd5b505190614df3565b115b156155695760405162461bcd60e51b815260040180806020018281038252602e815260200180615e85602e913960400191505060405180910390fd5b50614108565b6001600160a01b0383166000908152600c602052604090205480158015906155e857506003546040805163114f1b5560e31b81526001600160a01b038781166004830152915184936155e6938793911691638a78daa891602480820192602092909190829003018186803b1580156154f957600080fd5b115b156143685760405162461bcd60e51b815260040180806020018281038252602f815260200180615fae602f913960400191505060405180910390fd5b6009546001600160a01b03168061563b5750611c01565b600080826001600160a01b031663534ef883866040518263ffffffff1660e01b815260040180826001600160a01b03168152602001915050604080518083038186803b15801561568a57600080fd5b505afa15801561569e573d6000803e3d6000fd5b505050506040513d60408110156156b457600080fd5b5080516020918201516003546040805163318bc68960e01b815290519396509194507fc2414023ce7002ee98557d1e7be21e5559073336f2217ee5f9b2e50fd85f71ee93899389936001600160a01b039093169263318bc689926004808301939192829003018186803b158015614f6957600080fd5b80516001600160a01b038116600090815260186020526040812054909182918290615756906001614df3565b6001600160a01b038316600090815260186020526040812082905590915061577e83836129af565b6000818152601960209081526040909120885181546001600160a01b0319166001600160a01b03909116178155888201518051939450899391926157ca92600185019290910190615deb565b5060408201516002820180546001600160a01b039283166001600160a01b0319909116179055606083015160038301556080830151600483015560a0830151600583015560c083015160068301805491151560ff1992831617905560e084015160078401556101008085015160088501556101208501516009850155610140850151600a850155610160850151600b90940180546101809096015190931602610100600160a81b0319931515949091169390931791909116919091179055601280546001810182556000919091527fbb8a6a4669ba250d26cd7a459eca9d215f8307e33aebe50379bc5a3617ec344401819055909350915050915091565b80516001600160a01b0381166000908152601a60205260408120549091829182906158f4906001614df3565b6001600160a01b0383166000908152601a6020526040812082905590915061591c83836129af565b6000818152601b60209081526040909120885181546001600160a01b0319166001600160a01b039091161781558882015180519394508993919261596892600185019290910190615deb565b5060408201516002820180546001600160a01b039283166001600160a01b0319909116179055606083015160038301556080830151600483015560a083015160058301805460c08601518416610100908102610100600160a81b031994151560ff199384161785161790925560e0860151600686015581860151600786015561012086015160088601556101408601516009860155610160860151600a860155610180860151600b90950180546101a090970151909416909102931515941693909317909216179055601380546001810182556000919091527f66de8ffda797e3de9c05e8fc57b3bf0ec28a930d40b0d285d93c06501cf6a09001819055909350915050915091565b6060615a808484600085615aed565b949350505050565b60008183615ad75760405162461bcd60e51b81526020600482018181528351602484015283519092839260449091019190850190808383600083156151b1578181015183820152602001615199565b506000838581615ae357fe5b0495945050505050565b606082471015615b2e5760405162461bcd60e51b8152600401808060200182810382526026815260200180615f386026913960400191505060405180910390fd5b615b37856151f4565b615b88576040805162461bcd60e51b815260206004820152601d60248201527f416464726573733a2063616c6c20746f206e6f6e2d636f6e7472616374000000604482015290519081900360640190fd5b60006060866001600160a01b031685876040518082805190602001908083835b60208310615bc75780518252601f199092019160209182019101615ba8565b6001836020036101000a03801982511681845116808217855250505050505090500191505060006040518083038185875af1925050503d8060008114615c29576040519150601f19603f3d011682016040523d82523d6000602084013e615c2e565b606091505b5091509150615c3e828286615c49565b979650505050505050565b60608315615c58575081613c16565b825115615c685782518084602001fd5b60405162461bcd60e51b81526020600482018181528451602484015284518593919283926044019190850190808383600083156151b1578181015183820152602001615199565b604051806101c0016040528060006001600160a01b031681526020016060815260200160006001600160a01b03168152602001600081526020016000815260200160001515815260200160006001600160a01b03168152602001600081526020016000815260200160008152602001600081526020016000815260200160001515815260200160006001600160a01b031681525090565b5080546000825590600052602060002090810190614a7f9190615e50565b604051806101a0016040528060006001600160a01b031681526020016060815260200160006001600160a01b031681526020016000815260200160008152602001600081526020016000151581526020016000815260200160008152602001600081526020016000815260200160001515815260200160006001600160a01b031681525090565b828054828255906000526020600020908101928215615e40579160200282015b82811115615e4057825182546001600160a01b0319166001600160a01b03909116178255602090920191600190910190615e0b565b50615e4c929150615e65565b5090565b5b80821115615e4c5760008155600101615e51565b5b80821115615e4c5780546001600160a01b0319168155600101615e6656fe42617365506f736974696f6e4d616e616765723a206d617820676c6f62616c206c6f6e67732065786365656465645265656e7472616e637947756172643a207265656e7472616e742063616c6c0042617365506f736974696f6e4d616e616765723a20696e73756666696369656e7420616d6f756e744f7574416464726573733a20756e61626c6520746f2073656e642076616c75652c20726563697069656e74206d61792068617665207265766572746564416464726573733a20696e73756666696369656e742062616c616e636520666f722063616c6c42617365506f736974696f6e4d616e616765723a206d61726b207072696365206c6f776572207468616e206c696d697442617365506f736974696f6e4d616e616765723a20666f7262696464656e000042617365506f736974696f6e4d616e616765723a206d617820676c6f62616c2073686f727473206578636565646564536166654d6174683a206d756c7469706c69636174696f6e206f766572666c6f7742617365506f736974696f6e4d616e616765723a206d61726b20707269636520686967686572207468616e206c696d697442617365506f736974696f6e4d616e616765723a20696e76616c6964205f706174682e6c656e67746842617365506f736974696f6e4d616e616765723a20696e76616c69642073656e6465725361666545524332303a204552433230206f7065726174696f6e20646964206e6f742073756363656564a2646970667358221220855d0afcc3bcef31ef8ff2b527b678035ca43f824cdd9aed85d90c596ef262a864736f6c634300060c0033","linkReferences":{}},"methodIdentifiers":{"BASIS_POINTS_DIVISOR()":"126082cf","admin()":"f851a440","approve(address,address,uint256)":"e1f21c67","callbackGasLimit()":"24f74697","cancelDecreasePosition(bytes32,address)":"60a362e2","cancelIncreasePosition(bytes32,address)":"225fc9fd","createDecreasePosition(address[],address,uint256,uint256,bool,address,uint256,uint256,uint256,bool,address)":"7be7d141","createIncreasePosition(address[],address,uint256,uint256,uint256,bool,uint256,uint256,bytes32,address)":"f2ae372f","createIncreasePositionETH(address[],address,uint256,uint256,bool,uint256,uint256,bytes32,address)":"5b88e8c6","decreasePositionRequestKeys(uint256)":"4278555f","decreasePositionRequestKeysStart()":"1bca8cf0","decreasePositionRequests(bytes32)":"1f285106","decreasePositionsIndex(address)":"fa444577","depositFee()":"67a52793","executeDecreasePosition(bytes32,address)":"0d4d003d","executeDecreasePositions(uint256,address)":"f3883d8b","executeIncreasePosition(bytes32,address)":"27b42c0f","executeIncreasePositions(uint256,address)":"9a208100","feeReserves(address)":"1ce9cb8f","getDecreasePositionRequestPath(bytes32)":"5d5c22e8","getIncreasePositionRequestPath(bytes32)":"95e9bbd7","getRequestKey(address,uint256)":"62f8a3fe","getRequestQueueLengths()":"f2cea6a5","gov()":"12d43a51","increasePositionBufferBps()":"98d1e03a","increasePositionRequestKeys(uint256)":"04225954","increasePositionRequestKeysStart()":"9b578620","increasePositionRequests(bytes32)":"faf990f3","increasePositionsIndex(address)":"633451de","isLeverageEnabled()":"3e72a262","isPositionKeeper(address)":"36eba48a","maxGlobalLongSizes(address)":"1045c74e","maxGlobalShortSizes(address)":"9698d25a","maxTimeDelay()":"cb0269c9","minBlockDelayKeeper()":"5841fcaa","minExecutionFee()":"63ae2103","minTimeDelayPublic()":"3a2a80c7","referralStorage()":"006cc35e","router()":"f887ea40","sendValue(address,uint256)":"24a084df","setAdmin(address)":"704b6c02","setCallbackGasLimit(uint256)":"8a54942f","setDelayValues(uint256,uint256,uint256)":"4067b132","setDepositFee(uint256)":"490ae210","setGov(address)":"cfad57a2","setIncreasePositionBufferBps(uint256)":"233bfe3b","setIsLeverageEnabled(bool)":"7c2eb9f7","setMaxGlobalSizes(address[],uint256[],uint256[])":"ef12c67e","setMinExecutionFee(uint256)":"fc2cee62","setPositionKeeper(address,bool)":"3422ead1","setReferralStorage(address)":"ae4d7f9a","setRequestKeysStartValues(uint256,uint256)":"308aa81f","shortsTracker()":"657bc5d0","vault()":"fbfa77cf","weth()":"3fc8cef3","withdrawFees(address,address)":"f2555278"},"id":88}