{"abi":[{"type":"constructor","inputs":[{"name":"_name","type":"string","internalType":"string"},{"name":"_symbol","type":"string","internalType":"string"}],"stateMutability":"nonpayable"},{"type":"function","name":"BASIS_POINTS_DIVISOR","inputs":[],"outputs":[{"name":"","type":"uint256","internalType":"uint256"}],"stateMutability":"view"},{"type":"function","name":"PRECISION","inputs":[],"outputs":[{"name":"","type":"uint256","internalType":"uint256"}],"stateMutability":"view"},{"type":"function","name":"allowance","inputs":[{"name":"_owner","type":"address","internalType":"address"},{"name":"_spender","type":"address","internalType":"address"}],"outputs":[{"name":"","type":"uint256","internalType":"uint256"}],"stateMutability":"view"},{"type":"function","name":"allowances","inputs":[{"name":"","type":"address","internalType":"address"},{"name":"","type":"address","internalType":"address"}],"outputs":[{"name":"","type":"uint256","internalType":"uint256"}],"stateMutability":"view"},{"type":"function","name":"approve","inputs":[{"name":"_spender","type":"address","internalType":"address"},{"name":"_amount","type":"uint256","internalType":"uint256"}],"outputs":[{"name":"","type":"bool","internalType":"bool"}],"stateMutability":"nonpayable"},{"type":"function","name":"averageStakedAmounts","inputs":[{"name":"","type":"address","internalType":"address"}],"outputs":[{"name":"","type":"uint256","internalType":"uint256"}],"stateMutability":"view"},{"type":"function","name":"balanceOf","inputs":[{"name":"_account","type":"address","internalType":"address"}],"outputs":[{"name":"","type":"uint256","internalType":"uint256"}],"stateMutability":"view"},{"type":"function","name":"balances","inputs":[{"name":"","type":"address","internalType":"address"}],"outputs":[{"name":"","type":"uint256","internalType":"uint256"}],"stateMutability":"view"},{"type":"function","name":"claim","inputs":[{"name":"_receiver","type":"address","internalType":"address"}],"outputs":[{"name":"","type":"uint256","internalType":"uint256"}],"stateMutability":"nonpayable"},{"type":"function","name":"claimForAccount","inputs":[{"name":"_account","type":"address","internalType":"address"},{"name":"_receiver","type":"address","internalType":"address"}],"outputs":[{"name":"","type":"uint256","internalType":"uint256"}],"stateMutability":"nonpayable"},{"type":"function","name":"claimable","inputs":[{"name":"_account","type":"address","internalType":"address"}],"outputs":[{"name":"","type":"uint256","internalType":"uint256"}],"stateMutability":"view"},{"type":"function","name":"claimableReward","inputs":[{"name":"","type":"address","internalType":"address"}],"outputs":[{"name":"","type":"uint256","internalType":"uint256"}],"stateMutability":"view"},{"type":"function","name":"cumulativeRewardPerToken","inputs":[],"outputs":[{"name":"","type":"uint256","internalType":"uint256"}],"stateMutability":"view"},{"type":"function","name":"cumulativeRewards","inputs":[{"name":"","type":"address","internalType":"address"}],"outputs":[{"name":"","type":"uint256","internalType":"uint256"}],"stateMutability":"view"},{"type":"function","name":"decimals","inputs":[],"outputs":[{"name":"","type":"uint8","internalType":"uint8"}],"stateMutability":"view"},{"type":"function","name":"depositBalances","inputs":[{"name":"","type":"address","internalType":"address"},{"name":"","type":"address","internalType":"address"}],"outputs":[{"name":"","type":"uint256","internalType":"uint256"}],"stateMutability":"view"},{"type":"function","name":"distributor","inputs":[],"outputs":[{"name":"","type":"address","internalType":"address"}],"stateMutability":"view"},{"type":"function","name":"gov","inputs":[],"outputs":[{"name":"","type":"address","internalType":"address"}],"stateMutability":"view"},{"type":"function","name":"inPrivateClaimingMode","inputs":[],"outputs":[{"name":"","type":"bool","internalType":"bool"}],"stateMutability":"view"},{"type":"function","name":"inPrivateStakingMode","inputs":[],"outputs":[{"name":"","type":"bool","internalType":"bool"}],"stateMutability":"view"},{"type":"function","name":"inPrivateTransferMode","inputs":[],"outputs":[{"name":"","type":"bool","internalType":"bool"}],"stateMutability":"view"},{"type":"function","name":"initialize","inputs":[{"name":"_depositTokens","type":"address[]","internalType":"address[]"},{"name":"_distributor","type":"address","internalType":"address"}],"outputs":[],"stateMutability":"nonpayable"},{"type":"function","name":"isDepositToken","inputs":[{"name":"","type":"address","internalType":"address"}],"outputs":[{"name":"","type":"bool","internalType":"bool"}],"stateMutability":"view"},{"type":"function","name":"isHandler","inputs":[{"name":"","type":"address","internalType":"address"}],"outputs":[{"name":"","type":"bool","internalType":"bool"}],"stateMutability":"view"},{"type":"function","name":"isInitialized","inputs":[],"outputs":[{"name":"","type":"bool","internalType":"bool"}],"stateMutability":"view"},{"type":"function","name":"name","inputs":[],"outputs":[{"name":"","type":"string","internalType":"string"}],"stateMutability":"view"},{"type":"function","name":"previousCumulatedRewardPerToken","inputs":[{"name":"","type":"address","internalType":"address"}],"outputs":[{"name":"","type":"uint256","internalType":"uint256"}],"stateMutability":"view"},{"type":"function","name":"rewardToken","inputs":[],"outputs":[{"name":"","type":"address","internalType":"address"}],"stateMutability":"view"},{"type":"function","name":"setDepositToken","inputs":[{"name":"_depositToken","type":"address","internalType":"address"},{"name":"_isDepositToken","type":"bool","internalType":"bool"}],"outputs":[],"stateMutability":"nonpayable"},{"type":"function","name":"setGov","inputs":[{"name":"_gov","type":"address","internalType":"address"}],"outputs":[],"stateMutability":"nonpayable"},{"type":"function","name":"setHandler","inputs":[{"name":"_handler","type":"address","internalType":"address"},{"name":"_isActive","type":"bool","internalType":"bool"}],"outputs":[],"stateMutability":"nonpayable"},{"type":"function","name":"setInPrivateClaimingMode","inputs":[{"name":"_inPrivateClaimingMode","type":"bool","internalType":"bool"}],"outputs":[],"stateMutability":"nonpayable"},{"type":"function","name":"setInPrivateStakingMode","inputs":[{"name":"_inPrivateStakingMode","type":"bool","internalType":"bool"}],"outputs":[],"stateMutability":"nonpayable"},{"type":"function","name":"setInPrivateTransferMode","inputs":[{"name":"_inPrivateTransferMode","type":"bool","internalType":"bool"}],"outputs":[],"stateMutability":"nonpayable"},{"type":"function","name":"stake","inputs":[{"name":"_depositToken","type":"address","internalType":"address"},{"name":"_amount","type":"uint256","internalType":"uint256"}],"outputs":[],"stateMutability":"nonpayable"},{"type":"function","name":"stakeForAccount","inputs":[{"name":"_fundingAccount","type":"address","internalType":"address"},{"name":"_account","type":"address","internalType":"address"},{"name":"_depositToken","type":"address","internalType":"address"},{"name":"_amount","type":"uint256","internalType":"uint256"}],"outputs":[],"stateMutability":"nonpayable"},{"type":"function","name":"stakedAmounts","inputs":[{"name":"","type":"address","internalType":"address"}],"outputs":[{"name":"","type":"uint256","internalType":"uint256"}],"stateMutability":"view"},{"type":"function","name":"symbol","inputs":[],"outputs":[{"name":"","type":"string","internalType":"string"}],"stateMutability":"view"},{"type":"function","name":"tokensPerInterval","inputs":[],"outputs":[{"name":"","type":"uint256","internalType":"uint256"}],"stateMutability":"view"},{"type":"function","name":"totalDepositSupply","inputs":[{"name":"","type":"address","internalType":"address"}],"outputs":[{"name":"","type":"uint256","internalType":"uint256"}],"stateMutability":"view"},{"type":"function","name":"totalSupply","inputs":[],"outputs":[{"name":"","type":"uint256","internalType":"uint256"}],"stateMutability":"view"},{"type":"function","name":"transfer","inputs":[{"name":"_recipient","type":"address","internalType":"address"},{"name":"_amount","type":"uint256","internalType":"uint256"}],"outputs":[{"name":"","type":"bool","internalType":"bool"}],"stateMutability":"nonpayable"},{"type":"function","name":"transferFrom","inputs":[{"name":"_sender","type":"address","internalType":"address"},{"name":"_recipient","type":"address","internalType":"address"},{"name":"_amount","type":"uint256","internalType":"uint256"}],"outputs":[{"name":"","type":"bool","internalType":"bool"}],"stateMutability":"nonpayable"},{"type":"function","name":"unstake","inputs":[{"name":"_depositToken","type":"address","internalType":"address"},{"name":"_amount","type":"uint256","internalType":"uint256"}],"outputs":[],"stateMutability":"nonpayable"},{"type":"function","name":"unstakeForAccount","inputs":[{"name":"_account","type":"address","internalType":"address"},{"name":"_depositToken","type":"address","internalType":"address"},{"name":"_amount","type":"uint256","internalType":"uint256"},{"name":"_receiver","type":"address","internalType":"address"}],"outputs":[],"stateMutability":"nonpayable"},{"type":"function","name":"updateRewards","inputs":[],"outputs":[],"stateMutability":"nonpayable"},{"type":"function","name":"withdrawToken","inputs":[{"name":"_token","type":"address","internalType":"address"},{"name":"_account","type":"address","internalType":"address"},{"name":"_amount","type":"uint256","internalType":"uint256"}],"outputs":[],"stateMutability":"nonpayable"},{"type":"event","name":"Approval","inputs":[{"name":"owner","type":"address","indexed":true,"internalType":"address"},{"name":"spender","type":"address","indexed":true,"internalType":"address"},{"name":"value","type":"uint256","indexed":false,"internalType":"uint256"}],"anonymous":false},{"type":"event","name":"Claim","inputs":[{"name":"receiver","type":"address","indexed":false,"internalType":"address"},{"name":"amount","type":"uint256","indexed":false,"internalType":"uint256"}],"anonymous":false},{"type":"event","name":"Transfer","inputs":[{"name":"from","type":"address","indexed":true,"internalType":"address"},{"name":"to","type":"address","indexed":true,"internalType":"address"},{"name":"value","type":"uint256","indexed":false,"internalType":"uint256"}],"anonymous":false}],"bytecode":{"object":"0x60806040523480156200001157600080fd5b5060405162002cc238038062002cc2833981810160405260408110156200003757600080fd5b81019080805160405193929190846401000000008211156200005857600080fd5b9083019060208201858111156200006e57600080fd5b82516401000000008111828201881017156200008957600080fd5b82525081516020918201929091019080838360005b83811015620000b85781810151838201526020016200009e565b50505050905090810190601f168015620000e65780820380516001836020036101000a031916815260200191505b50604052602001805160405193929190846401000000008211156200010a57600080fd5b9083019060208201858111156200012057600080fd5b82516401000000008111828201881017156200013b57600080fd5b82525081516020918201929091019080838360005b838110156200016a57818101518382015260200162000150565b50505050905090810190601f168015620001985780820380516001836020036101000a031916815260200191505b5060405250506001600081905580546001600160a01b03191633179055508151620001cb906002906020850190620001ea565b508051620001e1906003906020840190620001ea565b50505062000286565b828054600181600116156101000203166002900490600052602060002090601f016020900481019282601f106200022d57805160ff19168380011785556200025d565b828001600101855582156200025d579182015b828111156200025d57825182559160200191906001019062000240565b506200026b9291506200026f565b5090565b5b808211156200026b576000815560010162000270565b612a2c80620002966000396000f3fe608060405234801561001057600080fd5b50600436106102955760003560e01c806355b6ed5c11610167578063bfe10928116100ce578063e44b755811610087578063e44b7558146108f0578063e95034251461091e578063f5d9d63e14610944578063f5fc507614610972578063f76033d31461097a578063f7c618c11461098257610295565b8063bfe1092814610858578063c2a672e014610860578063c5fa27301461088c578063cfad57a214610894578063dd62ed3e146108ba578063dfbaefb1146108e857610295565b8063a318021711610120578063a3180217146107a4578063a8d93627146107ca578063a9059cbb146107d2578063aaf5eb68146107fe578063adc9772e14610806578063b89e45b31461083257610295565b806355b6ed5c146106bf5780635a47a1a7146106ed57806370a082311461070c578063790b5a6c1461073257806395d89b411461076e5780639cb7de4b1461077657610295565b806323b872dd1161020b5780633e158b0c116101c45780633e158b0c14610571578063402914f51461057957806344a084111461059f578063462d0b2e146105c557806346ea87af14610673578063552ce1dc1461069957610295565b806323b872dd146104aa57806327e235e3146104e0578063313ce567146105065780633792def314610524578063392e53cd1461054a5780633cd7f7001461055257610295565b8063126082cf1161025d578063126082cf1461040357806312d43a511461040b57806313e82e7a1461042f57806318160ddd1461045d5780631d30d5bc146104655780631e83409a1461048457610295565b806301e336671461029a57806306fdde03146102d2578063095ea7b31461034f578063098bf59d1461038f57806310c1c103146103cb575b600080fd5b6102d0600480360360608110156102b057600080fd5b506001600160a01b0381358116916020810135909116906040013561098a565b005b6102da6109f0565b6040805160208082528351818301528351919283929083019185019080838360005b838110156103145781810151838201526020016102fc565b50505050905090810190601f1680156103415780820380516001836020036101000a031916815260200191505b509250505060405180910390f35b61037b6004803603604081101561036557600080fd5b506001600160a01b038135169060200135610a7b565b604080519115158252519081900360200190f35b6102d0600480360360808110156103a557600080fd5b506001600160a01b03813581169160208101358216916040820135916060013516610a92565b6103f1600480360360208110156103e157600080fd5b50356001600160a01b0316610afc565b60408051918252519081900360200190f35b6103f1610b0e565b610413610b14565b604080516001600160a01b039092168252519081900360200190f35b6103f16004803603604081101561044557600080fd5b506001600160a01b0381358116916020013516610b23565b6103f1610b8e565b6102d06004803603602081101561047b57600080fd5b50351515610b94565b6103f16004803603602081101561049a57600080fd5b50356001600160a01b0316610bfb565b61037b600480360360608110156104c057600080fd5b506001600160a01b03813581169160208101359091169060400135610ca5565b6103f1600480360360208110156104f657600080fd5b50356001600160a01b0316610d3f565b61050e610d51565b6040805160ff9092168252519081900360200190f35b6103f16004803603602081101561053a57600080fd5b50356001600160a01b0316610d56565b61037b610d68565b6102d06004803603602081101561056857600080fd5b50351515610d78565b6102d0610de1565b6103f16004803603602081101561058f57600080fd5b50356001600160a01b0316610e3e565b6103f1600480360360208110156105b557600080fd5b50356001600160a01b0316610f9e565b6102d0600480360360408110156105db57600080fd5b8101906020810181356401000000008111156105f657600080fd5b82018360208201111561060857600080fd5b8035906020019184602083028401116401000000008311171561062a57600080fd5b919080806020026020016040519081016040528093929190818152602001838360200280828437600092019190915250929550505090356001600160a01b03169150610fb09050565b61037b6004803603602081101561068957600080fd5b50356001600160a01b03166110d3565b6103f1600480360360208110156106af57600080fd5b50356001600160a01b03166110e8565b6103f1600480360360408110156106d557600080fd5b506001600160a01b03813581169160200135166110fa565b6102d06004803603602081101561070357600080fd5b50351515611117565b6103f16004803603602081101561072257600080fd5b50356001600160a01b0316611177565b6102d06004803603608081101561074857600080fd5b506001600160a01b03813581169160208101358216916040820135169060600135611192565b6102da6111f1565b6102d06004803603604081101561078c57600080fd5b506001600160a01b038135169060200135151561124c565b6103f1600480360360208110156107ba57600080fd5b50356001600160a01b03166112c4565b6103f16112d6565b61037b600480360360408110156107e857600080fd5b506001600160a01b038135169060200135611357565b6103f1611364565b6102d06004803603604081101561081c57600080fd5b506001600160a01b038135169060200135611375565b61037b6004803603602081101561084857600080fd5b50356001600160a01b031661141c565b610413611431565b6102d06004803603604081101561087657600080fd5b506001600160a01b038135169060200135611440565b61037b6114de565b6102d0600480360360208110156108aa57600080fd5b50356001600160a01b03166114ec565b6103f1600480360360408110156108d057600080fd5b506001600160a01b038135811691602001351661155b565b61037b611586565b6102d06004803603604081101561090657600080fd5b506001600160a01b038135169060200135151561158f565b6103f16004803603602081101561093457600080fd5b50356001600160a01b0316611607565b6103f16004803603604081101561095a57600080fd5b506001600160a01b0381358116916020013516611619565b6103f1611636565b61037b61163c565b61041361164b565b6001546001600160a01b031633146109d7576040805162461bcd60e51b815260206004820152601560248201526000805160206127cb833981519152604482015290519081900360640190fd5b6109eb6001600160a01b038416838361169b565b505050565b6002805460408051602060018416156101000260001901909316849004601f81018490048402820184019092528181529291830182828015610a735780601f10610a4857610100808354040283529160200191610a73565b820191906000526020600020905b815481529060010190602001808311610a5657829003601f168201915b505050505081565b6000610a883384846116ed565b5060015b92915050565b60026000541415610ad8576040805162461bcd60e51b815260206004820152601f602482015260008051602061272b833981519152604482015290519081900360640190fd5b6002600055610ae56117d9565b610af18484848461183f565b505060016000555050565b600c6020526000908152604090205481565b61271081565b6001546001600160a01b031681565b600060026000541415610b6b576040805162461bcd60e51b815260206004820152601f602482015260008051602061272b833981519152604482015290519081900360640190fd5b6002600055610b786117d9565b610b828383611a4d565b60016000559392505050565b60085481565b6001546001600160a01b03163314610be1576040805162461bcd60e51b815260206004820152601560248201526000805160206127cb833981519152604482015290519081900360640190fd5b601180549115156101000261ff0019909216919091179055565b600060026000541415610c43576040805162461bcd60e51b815260206004820152601f602482015260008051602061272b833981519152604482015290519081900360640190fd5b600260005560115462010000900460ff1615610c905760405162461bcd60e51b815260040180806020018281038252602181526020018061297b6021913960400191505060405180910390fd5b610c9a3383611a4d565b600160005592915050565b3360009081526012602052604081205460ff1615610cd057610cc8848484611ae3565b506001610d38565b6000610d1a83604051806060016040528060308152602001612921603091396001600160a01b0388166000908152600a602090815260408083203384529091529020549190611c48565b9050610d278533836116ed565b610d32858585611ae3565b60019150505b9392505050565b60096020526000908152604090205481565b601281565b600f6020526000908152604090205481565b600154600160a01b900460ff1681565b6001546001600160a01b03163314610dc5576040805162461bcd60e51b815260206004820152601560248201526000805160206127cb833981519152604482015290519081900360640190fd5b60118054911515620100000262ff000019909216919091179055565b60026000541415610e27576040805162461bcd60e51b815260206004820152601f602482015260008051602061272b833981519152604482015290519081900360640190fd5b60026000908155610e3790611cdf565b6001600055565b6001600160a01b0381166000908152600c602052604081205480610e7c5750506001600160a01b0381166000908152600d6020526040902054610f99565b60085460048054604080516376f69fed60e11b81529051600093610f0a936c0c9f2c9cd04674edea40000000936001600160a01b039091169263eded3fda92828101926020929190829003018186803b158015610ed857600080fd5b505afa158015610eec573d6000803e3d6000fd5b505050506040513d6020811015610f0257600080fd5b505190611f31565b90506000610f24610f1b8385611f8a565b600b5490611fcc565b6001600160a01b0387166000908152600e6020526040902054909150610f9290610f73906c0c9f2c9cd04674edea4000000090610f6d90610f66908690612026565b8890611f31565b90611f8a565b6001600160a01b0388166000908152600d602052604090205490611fcc565b9450505050505b919050565b600e6020526000908152604090205481565b6001546001600160a01b03163314610ffd576040805162461bcd60e51b815260206004820152601560248201526000805160206127cb833981519152604482015290519081900360640190fd5b600154600160a01b900460ff16156110465760405162461bcd60e51b81526004018080602001828103825260228152602001806128ab6022913960400191505060405180910390fd5b6001805460ff60a01b1916600160a01b17905560005b82518110156110af57600083828151811061107357fe5b6020908102919091018101516001600160a01b03166000908152600590915260409020805460ff1916600190811790915591909101905061105c565b50600480546001600160a01b0319166001600160a01b039290921691909117905550565b60126020526000908152604090205460ff1681565b60076020526000908152604090205481565b600a60209081526000928352604080842090915290825290205481565b6001546001600160a01b03163314611164576040805162461bcd60e51b815260206004820152601560248201526000805160206127cb833981519152604482015290519081900360640190fd5b6011805460ff1916911515919091179055565b6001600160a01b031660009081526009602052604090205490565b600260005414156111d8576040805162461bcd60e51b815260206004820152601f602482015260008051602061272b833981519152604482015290519081900360640190fd5b60026000556111e56117d9565b610af184848484612068565b6003805460408051602060026001851615610100026000190190941693909304601f81018490048402820184019092528181529291830182828015610a735780601f10610a4857610100808354040283529160200191610a73565b6001546001600160a01b03163314611299576040805162461bcd60e51b815260206004820152601560248201526000805160206127cb833981519152604482015290519081900360640190fd5b6001600160a01b03919091166000908152601260205260409020805460ff1916911515919091179055565b60106020526000908152604090205481565b6000600460009054906101000a90046001600160a01b03166001600160a01b031663a8d936276040518163ffffffff1660e01b815260040160206040518083038186803b15801561132657600080fd5b505afa15801561133a573d6000803e3d6000fd5b505050506040513d602081101561135057600080fd5b5051905090565b6000610a88338484611ae3565b6c0c9f2c9cd04674edea4000000081565b600260005414156113bb576040805162461bcd60e51b815260206004820152601f602482015260008051602061272b833981519152604482015290519081900360640190fd5b6002600055601154610100900460ff16156114075760405162461bcd60e51b815260040180806020018281038252602181526020018061297b6021913960400191505060405180910390fd5b61141333338484612068565b50506001600055565b60056020526000908152604090205460ff1681565b6004546001600160a01b031681565b60026000541415611486576040805162461bcd60e51b815260206004820152601f602482015260008051602061272b833981519152604482015290519081900360640190fd5b6002600055601154610100900460ff16156114d25760405162461bcd60e51b815260040180806020018281038252602181526020018061297b6021913960400191505060405180910390fd5b6114133383833361183f565b601154610100900460ff1681565b6001546001600160a01b03163314611539576040805162461bcd60e51b815260206004820152601560248201526000805160206127cb833981519152604482015290519081900360640190fd5b600180546001600160a01b0319166001600160a01b0392909216919091179055565b6001600160a01b039182166000908152600a6020908152604080832093909416825291909152205490565b60115460ff1681565b6001546001600160a01b031633146115dc576040805162461bcd60e51b815260206004820152601560248201526000805160206127cb833981519152604482015290519081900360640190fd5b6001600160a01b03919091166000908152600560205260409020805460ff1916911515919091179055565b600d6020526000908152604090205481565b600660209081526000928352604080842090915290825290205481565b600b5481565b60115462010000900460ff1681565b6000600460009054906101000a90046001600160a01b03166001600160a01b031663f7c618c16040518163ffffffff1660e01b815260040160206040518083038186803b15801561132657600080fd5b604080516001600160a01b038416602482015260448082018490528251808303909101815260649091019091526020810180516001600160e01b031663a9059cbb60e01b1790526109eb9084906121f1565b6001600160a01b0383166117325760405162461bcd60e51b815260040180806020018281038252602c815260200180612776602c913960400191505060405180910390fd5b6001600160a01b0382166117775760405162461bcd60e51b815260040180806020018281038252602a815260200180612860602a913960400191505060405180910390fd5b6001600160a01b038084166000818152600a6020908152604080832094871680845294825291829020859055815185815291517f8c5be1e5ebec7d5bd14f71427d1e84f3dd0314c0f7b2291e5b200ac8c7c3b9259281900390910190a3505050565b3360009081526012602052604090205460ff1661183d576040805162461bcd60e51b815260206004820152601860248201527f526577617264547261636b65723a20666f7262696464656e0000000000000000604482015290519081900360640190fd5b565b60008211611894576040805162461bcd60e51b815260206004820152601e60248201527f526577617264547261636b65723a20696e76616c6964205f616d6f756e740000604482015290519081900360640190fd5b6001600160a01b03831660009081526005602052604090205460ff166118eb5760405162461bcd60e51b815260040180806020018281038252602481526020018061283c6024913960400191505060405180910390fd5b6118f484611cdf565b6001600160a01b0384166000908152600c60205260409020548281101561194c5760405162461bcd60e51b815260040180806020018281038252602b81526020018061274b602b913960400191505060405180910390fd5b6119568184612026565b6001600160a01b038087166000908152600c6020908152604080832094909455600681528382209288168252919091522054838110156119c75760405162461bcd60e51b815260040180806020018281038252602d81526020018061299c602d913960400191505060405180910390fd5b6119d18185612026565b6001600160a01b038088166000908152600660209081526040808320938a168352928152828220939093556007909252902054611a0e9085612026565b6001600160a01b038616600090815260076020526040902055611a3186856122a2565b611a456001600160a01b038616848661169b565b505050505050565b6000611a5883611cdf565b6001600160a01b0383166000908152600d6020526040812080549190558015610d3857611a988382611a8861164b565b6001600160a01b0316919061169b565b604080516001600160a01b03861681526020810183905281517f47cee97cb7acd717b3c0aa1435d004cd5b3c8c57d70dbceb4e4458bbd60e39d4929181900390910190a19392505050565b6001600160a01b038316611b285760405162461bcd60e51b815260040180806020018281038252602d8152602001806128cd602d913960400191505060405180910390fd5b6001600160a01b038216611b6d5760405162461bcd60e51b815260040180806020018281038252602b8152602001806127eb602b913960400191505060405180910390fd5b60115460ff1615611b8057611b806117d9565b611bbd816040518060600160405280602e81526020016129c9602e91396001600160a01b0386166000908152600960205260409020549190611c48565b6001600160a01b038085166000908152600960205260408082209390935590841681522054611bec9082611fcc565b6001600160a01b0380841660008181526009602090815260409182902094909455805185815290519193928716927fddf252ad1be2c89b69c2b068fc378daa952ba7f163c4a11628f55a4df523b3ef92918290030190a3505050565b60008184841115611cd75760405162461bcd60e51b81526004018080602001828103825283818151815260200191508051906020019080838360005b83811015611c9c578181015183820152602001611c84565b50505050905090810190601f168015611cc95780820380516001836020036101000a031916815260200191505b509250505060405180910390fd5b505050900390565b6000600460009054906101000a90046001600160a01b03166001600160a01b031663e4fc6b6d6040518163ffffffff1660e01b8152600401602060405180830381600087803b158015611d3157600080fd5b505af1158015611d45573d6000803e3d6000fd5b505050506040513d6020811015611d5b57600080fd5b5051600854600b54919250908115801590611d765750600083115b15611da857611da0611d9983610f6d866c0c9f2c9cd04674edea40000000611f31565b8290611fcc565b600b81905590505b80611db557505050611f2e565b6001600160a01b03841615611f2a576001600160a01b0384166000908152600c6020908152604080832054600e909252822054909190611e14906c0c9f2c9cd04674edea4000000090610f6d90611e0d908790612026565b8590611f31565b6001600160a01b0387166000908152600d602052604081205491925090611e3b9083611fcc565b6001600160a01b0388166000908152600d60209081526040808320849055600e909152902085905590508015801590611e8b57506001600160a01b0387166000908152600c602052604090205415155b15611f26576001600160a01b0387166000908152600f6020526040812054611eb39084611fcc565b9050611f00611ec682610f6d8787611f31565b6001600160a01b038a166000908152600f6020908152604080832054601090925290912054611efa918591610f6d91611f31565b90611fcc565b6001600160a01b038916600090815260106020908152604080832093909355600f905220555b5050505b5050505b50565b600082611f4057506000610a8c565b82820282848281611f4d57fe5b0414610d385760405162461bcd60e51b815260040180806020018281038252602181526020018061288a6021913960400191505060405180910390fd5b6000610d3883836040518060400160405280601a81526020017f536166654d6174683a206469766973696f6e206279207a65726f000000000000815250612392565b600082820183811015610d38576040805162461bcd60e51b815260206004820152601b60248201527f536166654d6174683a206164646974696f6e206f766572666c6f770000000000604482015290519081900360640190fd5b6000610d3883836040518060400160405280601e81526020017f536166654d6174683a207375627472616374696f6e206f766572666c6f770000815250611c48565b600081116120bd576040805162461bcd60e51b815260206004820152601e60248201527f526577617264547261636b65723a20696e76616c6964205f616d6f756e740000604482015290519081900360640190fd5b6001600160a01b03821660009081526005602052604090205460ff166121145760405162461bcd60e51b815260040180806020018281038252602481526020018061283c6024913960400191505060405180910390fd5b6121296001600160a01b0383168530846123f7565b61213283611cdf565b6001600160a01b0383166000908152600c60205260409020546121559082611fcc565b6001600160a01b038085166000908152600c60209081526040808320949094556006815283822092861682529190915220546121919082611fcc565b6001600160a01b03808516600090815260066020908152604080832093871683529281528282209390935560079092529020546121ce9082611fcc565b6001600160a01b038316600090815260076020526040902055611f2a8382612451565b6060612246826040518060400160405280602081526020017f5361666545524332303a206c6f772d6c6576656c2063616c6c206661696c6564815250856001600160a01b03166125219092919063ffffffff16565b8051909150156109eb5780806020019051602081101561226557600080fd5b50516109eb5760405162461bcd60e51b815260040180806020018281038252602a815260200180612951602a913960400191505060405180910390fd5b6001600160a01b0382166122e75760405162461bcd60e51b81526004018080602001828103825260298152602001806127a26029913960400191505060405180910390fd5b612324816040518060600160405280602a8152602001612701602a91396001600160a01b0385166000908152600960205260409020549190611c48565b6001600160a01b03831660009081526009602052604090205560085461234a9082612026565b6008556040805182815290516000916001600160a01b038516917fddf252ad1be2c89b69c2b068fc378daa952ba7f163c4a11628f55a4df523b3ef9181900360200190a35050565b600081836123e15760405162461bcd60e51b8152602060048201818152835160248401528351909283926044909101919085019080838360008315611c9c578181015183820152602001611c84565b5060008385816123ed57fe5b0495945050505050565b604080516001600160a01b0380861660248301528416604482015260648082018490528251808303909101815260849091019091526020810180516001600160e01b03166323b872dd60e01b179052611f2a9085906121f1565b6001600160a01b0382166124965760405162461bcd60e51b81526004018080602001828103825260278152602001806128fa6027913960400191505060405180910390fd5b6008546124a39082611fcc565b6008556001600160a01b0382166000908152600960205260409020546124c99082611fcc565b6001600160a01b03831660008181526009602090815260408083209490945583518581529351929391927fddf252ad1be2c89b69c2b068fc378daa952ba7f163c4a11628f55a4df523b3ef9281900390910190a35050565b60606125308484600085612538565b949350505050565b6060824710156125795760405162461bcd60e51b81526004018080602001828103825260268152602001806128166026913960400191505060405180910390fd5b61258285612694565b6125d3576040805162461bcd60e51b815260206004820152601d60248201527f416464726573733a2063616c6c20746f206e6f6e2d636f6e7472616374000000604482015290519081900360640190fd5b60006060866001600160a01b031685876040518082805190602001908083835b602083106126125780518252601f1990920191602091820191016125f3565b6001836020036101000a03801982511681845116808217855250505050505090500191505060006040518083038185875af1925050503d8060008114612674576040519150601f19603f3d011682016040523d82523d6000602084013e612679565b606091505b509150915061268982828661269a565b979650505050505050565b3b151590565b606083156126a9575081610d38565b8251156126b95782518084602001fd5b60405162461bcd60e51b8152602060048201818152845160248401528451859391928392604401919085019080838360008315611c9c578181015183820152602001611c8456fe526577617264547261636b65723a206275726e20616d6f756e7420657863656564732062616c616e63655265656e7472616e637947756172643a207265656e7472616e742063616c6c00526577617264547261636b65723a205f616d6f756e742065786365656473207374616b6564416d6f756e74526577617264547261636b65723a20617070726f76652066726f6d20746865207a65726f2061646472657373526577617264547261636b65723a206275726e2066726f6d20746865207a65726f2061646472657373476f7665726e61626c653a20666f7262696464656e0000000000000000000000526577617264547261636b65723a207472616e7366657220746f20746865207a65726f2061646472657373416464726573733a20696e73756666696369656e742062616c616e636520666f722063616c6c526577617264547261636b65723a20696e76616c6964205f6465706f736974546f6b656e526577617264547261636b65723a20617070726f766520746f20746865207a65726f2061646472657373536166654d6174683a206d756c7469706c69636174696f6e206f766572666c6f77526577617264547261636b65723a20616c726561647920696e697469616c697a6564526577617264547261636b65723a207472616e736665722066726f6d20746865207a65726f2061646472657373526577617264547261636b65723a206d696e7420746f20746865207a65726f2061646472657373526577617264547261636b65723a207472616e7366657220616d6f756e74206578636565647320616c6c6f77616e63655361666545524332303a204552433230206f7065726174696f6e20646964206e6f742073756363656564526577617264547261636b65723a20616374696f6e206e6f7420656e61626c6564526577617264547261636b65723a205f616d6f756e742065786365656473206465706f73697442616c616e6365526577617264547261636b65723a207472616e7366657220616d6f756e7420657863656564732062616c616e6365a26469706673582212209deeea766f748ba89a914c1688b69e95ce54a228f6143c680a1e3b5e830a940c64736f6c634300060c0033","linkReferences":{}},"methodIdentifiers":{"BASIS_POINTS_DIVISOR()":"126082cf","PRECISION()":"aaf5eb68","allowance(address,address)":"dd62ed3e","allowances(address,address)":"55b6ed5c","approve(address,uint256)":"095ea7b3","averageStakedAmounts(address)":"a3180217","balanceOf(address)":"70a08231","balances(address)":"27e235e3","claim(address)":"1e83409a","claimForAccount(address,address)":"13e82e7a","claimable(address)":"402914f5","claimableReward(address)":"e9503425","cumulativeRewardPerToken()":"f5fc5076","cumulativeRewards(address)":"3792def3","decimals()":"313ce567","depositBalances(address,address)":"f5d9d63e","distributor()":"bfe10928","gov()":"12d43a51","inPrivateClaimingMode()":"f76033d3","inPrivateStakingMode()":"c5fa2730","inPrivateTransferMode()":"dfbaefb1","initialize(address[],address)":"462d0b2e","isDepositToken(address)":"b89e45b3","isHandler(address)":"46ea87af","isInitialized()":"392e53cd","name()":"06fdde03","previousCumulatedRewardPerToken(address)":"44a08411","rewardToken()":"f7c618c1","setDepositToken(address,bool)":"e44b7558","setGov(address)":"cfad57a2","setHandler(address,bool)":"9cb7de4b","setInPrivateClaimingMode(bool)":"3cd7f700","setInPrivateStakingMode(bool)":"1d30d5bc","setInPrivateTransferMode(bool)":"5a47a1a7","stake(address,uint256)":"adc9772e","stakeForAccount(address,address,address,uint256)":"790b5a6c","stakedAmounts(address)":"10c1c103","symbol()":"95d89b41","tokensPerInterval()":"a8d93627","totalDepositSupply(address)":"552ce1dc","totalSupply()":"18160ddd","transfer(address,uint256)":"a9059cbb","transferFrom(address,address,uint256)":"23b872dd","unstake(address,uint256)":"c2a672e0","unstakeForAccount(address,address,uint256,address)":"098bf59d","updateRewards()":"3e158b0c","withdrawToken(address,address,uint256)":"01e33667"},"id":170}