{"abi":[{"type":"constructor","inputs":[{"name":"_vault","type":"address","internalType":"contract IVault"}],"stateMutability":"nonpayable"},{"type":"function","name":"BASIS_POINTS_DIVISOR","inputs":[],"outputs":[{"name":"","type":"uint256","internalType":"uint256"}],"stateMutability":"view"},{"type":"function","name":"FUNDING_RATE_PRECISION","inputs":[],"outputs":[{"name":"","type":"uint256","internalType":"uint256"}],"stateMutability":"view"},{"type":"function","name":"getBuyUsdgFeeBasisPoints","inputs":[{"name":"_token","type":"address","internalType":"address"},{"name":"_usdgAmount","type":"uint256","internalType":"uint256"}],"outputs":[{"name":"","type":"uint256","internalType":"uint256"}],"stateMutability":"view"},{"type":"function","name":"getEntryFundingRate","inputs":[{"name":"_collateralToken","type":"address","internalType":"address"},{"name":"","type":"address","internalType":"address"},{"name":"","type":"bool","internalType":"bool"}],"outputs":[{"name":"","type":"uint256","internalType":"uint256"}],"stateMutability":"view"},{"type":"function","name":"getFeeBasisPoints","inputs":[{"name":"_token","type":"address","internalType":"address"},{"name":"_usdgDelta","type":"uint256","internalType":"uint256"},{"name":"_feeBasisPoints","type":"uint256","internalType":"uint256"},{"name":"_taxBasisPoints","type":"uint256","internalType":"uint256"},{"name":"_increment","type":"bool","internalType":"bool"}],"outputs":[{"name":"","type":"uint256","internalType":"uint256"}],"stateMutability":"view"},{"type":"function","name":"getFundingFee","inputs":[{"name":"","type":"address","internalType":"address"},{"name":"_collateralToken","type":"address","internalType":"address"},{"name":"","type":"address","internalType":"address"},{"name":"","type":"bool","internalType":"bool"},{"name":"_size","type":"uint256","internalType":"uint256"},{"name":"_entryFundingRate","type":"uint256","internalType":"uint256"}],"outputs":[{"name":"","type":"uint256","internalType":"uint256"}],"stateMutability":"view"},{"type":"function","name":"getPositionFee","inputs":[{"name":"","type":"address","internalType":"address"},{"name":"","type":"address","internalType":"address"},{"name":"","type":"address","internalType":"address"},{"name":"","type":"bool","internalType":"bool"},{"name":"_sizeDelta","type":"uint256","internalType":"uint256"}],"outputs":[{"name":"","type":"uint256","internalType":"uint256"}],"stateMutability":"view"},{"type":"function","name":"getSellUsdgFeeBasisPoints","inputs":[{"name":"_token","type":"address","internalType":"address"},{"name":"_usdgAmount","type":"uint256","internalType":"uint256"}],"outputs":[{"name":"","type":"uint256","internalType":"uint256"}],"stateMutability":"view"},{"type":"function","name":"getSwapFeeBasisPoints","inputs":[{"name":"_tokenIn","type":"address","internalType":"address"},{"name":"_tokenOut","type":"address","internalType":"address"},{"name":"_usdgAmount","type":"uint256","internalType":"uint256"}],"outputs":[{"name":"","type":"uint256","internalType":"uint256"}],"stateMutability":"view"},{"type":"function","name":"gov","inputs":[],"outputs":[{"name":"","type":"address","internalType":"address"}],"stateMutability":"view"},{"type":"function","name":"setGov","inputs":[{"name":"_gov","type":"address","internalType":"address"}],"outputs":[],"stateMutability":"nonpayable"},{"type":"function","name":"updateCumulativeFundingRate","inputs":[{"name":"","type":"address","internalType":"address"},{"name":"","type":"address","internalType":"address"}],"outputs":[{"name":"","type":"bool","internalType":"bool"}],"stateMutability":"nonpayable"},{"type":"function","name":"validateDecreasePosition","inputs":[{"name":"","type":"address","internalType":"address"},{"name":"","type":"address","internalType":"address"},{"name":"","type":"address","internalType":"address"},{"name":"","type":"uint256","internalType":"uint256"},{"name":"","type":"uint256","internalType":"uint256"},{"name":"","type":"bool","internalType":"bool"},{"name":"","type":"address","internalType":"address"}],"outputs":[],"stateMutability":"view"},{"type":"function","name":"validateIncreasePosition","inputs":[{"name":"","type":"address","internalType":"address"},{"name":"","type":"address","internalType":"address"},{"name":"","type":"address","internalType":"address"},{"name":"","type":"uint256","internalType":"uint256"},{"name":"","type":"bool","internalType":"bool"}],"outputs":[],"stateMutability":"view"},{"type":"function","name":"validateLiquidation","inputs":[{"name":"_account","type":"address","internalType":"address"},{"name":"_collateralToken","type":"address","internalType":"address"},{"name":"_indexToken","type":"address","internalType":"address"},{"name":"_isLong","type":"bool","internalType":"bool"},{"name":"_raise","type":"bool","internalType":"bool"}],"outputs":[{"name":"","type":"uint256","internalType":"uint256"},{"name":"","type":"uint256","internalType":"uint256"}],"stateMutability":"view"},{"type":"function","name":"vault","inputs":[],"outputs":[{"name":"","type":"address","internalType":"contract IVault"}],"stateMutability":"view"}],"bytecode":{"object":"0x608060405234801561001057600080fd5b506040516117183803806117188339818101604052602081101561003357600080fd5b5051600080546001600160a01b03199081163317909155600180546001600160a01b03909316929091169190911790556116a6806100726000396000f3fe608060405234801561001057600080fd5b50600436106101005760003560e01c8063cfad57a211610097578063eb0835bf11610066578063eb0835bf1461038e578063fbfa77cf146103ba578063fbfded6d146103c2578063fdaf6ac31461040457610100565b8063cfad57a214610289578063d54d5a9f146102af578063da1338161461030e578063da76524c1461034457610100565b806381d11a23116100d357806381d11a23146101775780639d5c28fa146101cd578063b1cc53ab14610211578063c7e074c31461024957610100565b8063126082cf1461010557806312d43a511461011f5780634adeddc6146101435780636be6026b1461016f575b600080fd5b61010d610448565b60408051918252519081900360200190f35b61012761044e565b604080516001600160a01b039092168252519081900360200190f35b61010d6004803603604081101561015957600080fd5b506001600160a01b03813516906020013561045d565b61010d61055f565b6101cb600480360360e081101561018d57600080fd5b506001600160a01b0381358116916020810135821691604082013581169160608101359160808201359160a081013515159160c09091013516610566565b005b6101cb600480360360a08110156101e357600080fd5b506001600160a01b03813581169160208101358216916040820135169060608101359060800135151561056f565b61010d6004803603606081101561022757600080fd5b506001600160a01b038135811691602081013590911690604001351515610576565b61010d600480360360a081101561025f57600080fd5b506001600160a01b03813516906020810135906040810135906060810135906080013515156105fb565b6101cb6004803603602081101561029f57600080fd5b50356001600160a01b031661088f565b6102f5600480360360a08110156102c557600080fd5b506001600160a01b0381358116916020810135821691604082013516906060810135151590608001351515610908565b6040805192835260208301919091528051918290030190f35b61010d6004803603606081101561032457600080fd5b506001600160a01b03813581169160208101359091169060400135610cd2565b61010d600480360360c081101561035a57600080fd5b506001600160a01b038135811691602081013582169160408201351690606081013515159060808101359060a00135611016565b61010d600480360360408110156103a457600080fd5b506001600160a01b0381351690602001356110dc565b6101276111d5565b6103f0600480360360408110156103d857600080fd5b506001600160a01b03813581169160200135166111e4565b604080519115158252519081900360200190f35b61010d600480360360a081101561041a57600080fd5b506001600160a01b0381358116916020810135821691604082013516906060810135151590608001356111ec565b61271081565b6000546001600160a01b031681565b60006105568383600160009054906101000a90046001600160a01b03166001600160a01b0316634d47b3046040518163ffffffff1660e01b815260040160206040518083038186803b1580156104b257600080fd5b505afa1580156104c6573d6000803e3d6000fd5b505050506040513d60208110156104dc57600080fd5b505160015460408051637a210a2b60e01b815290516001600160a01b0390921691637a210a2b91600480820192602092909190829003018186803b15801561052357600080fd5b505afa158015610537573d6000803e3d6000fd5b505050506040513d602081101561054d57600080fd5b505160016105fb565b90505b92915050565b620f424081565b50505050505050565b5050505050565b6001546040805163c65bc7b160e01b81526001600160a01b0386811660048301529151600093929092169163c65bc7b191602480820192602092909190829003018186803b1580156105c757600080fd5b505afa1580156105db573d6000803e3d6000fd5b505050506040513d60208110156105f157600080fd5b5051949350505050565b60015460408051639f392eb360e01b815290516000926001600160a01b031691639f392eb3916004808301926020929190829003018186803b15801561064057600080fd5b505afa158015610654573d6000803e3d6000fd5b505050506040513d602081101561066a57600080fd5b5051610677575082610886565b60015460408051631aa4ace560e01b81526001600160a01b03898116600483015291516000939290921691631aa4ace591602480820192602092909190829003018186803b1580156106c857600080fd5b505afa1580156106dc573d6000803e3d6000fd5b505050506040513d60208110156106f257600080fd5b50519050600061070282886112aa565b9050836107255781871161071f5761071a8288611304565b610722565b60005b90505b60015460408051633a05dcc160e01b81526001600160a01b038b8116600483015291516000939290921691633a05dcc191602480820192602092909190829003018186803b15801561077657600080fd5b505afa15801561078a573d6000803e3d6000fd5b505050506040513d60208110156107a057600080fd5b50519050806107b457869350505050610886565b60008184116107cc576107c78285611304565b6107d6565b6107d68483611304565b905060008284116107f0576107eb8385611304565b6107fa565b6107fa8484611304565b90508181101561084257600061081a846108148b86611346565b9061139f565b90508981116108325761082d8a82611304565b610835565b60005b9650505050505050610886565b6000610853600261081485856112aa565b9050838111156108605750825b6000610870856108148c85611346565b905061087c8b826112aa565b9750505050505050505b95945050505050565b6000546001600160a01b031633146108e6576040805162461bcd60e51b815260206004820152601560248201527423b7bb32b93730b136329d103337b93134b23232b760591b604482015290519081900360640190fd5b600080546001600160a01b0319166001600160a01b0392909216919091179055565b6000806109136115e9565b61091f888888886113e1565b600154815160408084015160c08501518251635c07eaab60e01b81526001600160a01b038d81166004830152602482019590955260448101929092528a1515606483015260848201528151949550919092169260009283928592635c07eaab9260a480840193919291829003018186803b15801561099c57600080fd5b505afa1580156109b0573d6000803e3d6000fd5b505050506040513d60408110156109c657600080fd5b508051602090910151855160608701519294509092506000916109f1918e918e918e918e9190611016565b9050610a0e610a078d8d8d8d8a600001516111ec565b82906112aa565b905082158015610a215750818560200151105b15610a89578715610a79576040805162461bcd60e51b815260206004820152601f60248201527f5661756c743a206c6f737365732065786365656420636f6c6c61746572616c00604482015290519081900360640190fd5b600196509450610cc89350505050565b602085015183610aa5576020860151610aa29084611304565b90505b81811015610b11578815610b00576040805162461bcd60e51b815260206004820152601d60248201527f5661756c743a20666565732065786365656420636f6c6c61746572616c000000604482015290519081900360640190fd5b600197509550610cc8945050505050565b610b80856001600160a01b031663174d26946040518163ffffffff1660e01b815260040160206040518083038186803b158015610b4d57600080fd5b505afa158015610b61573d6000803e3d6000fd5b505050506040513d6020811015610b7757600080fd5b505183906112aa565b811015610bd5578815610bc45760405162461bcd60e51b81526004018080602001828103825260298152602001806116276029913960400191505060405180910390fd5b50600196509450610cc89350505050565b8551610be390612710611346565b610c52866001600160a01b031663ae3302c26040518163ffffffff1660e01b815260040160206040518083038186803b158015610c1f57600080fd5b505afa158015610c33573d6000803e3d6000fd5b505050506040513d6020811015610c4957600080fd5b50518390611346565b1015610cbc578815610cab576040805162461bcd60e51b815260206004820152601b60248201527f5661756c743a206d61784c657665726167652065786365656465640000000000604482015290519081900360640190fd5b50600296509450610cc89350505050565b50600096509450505050505b9550959350505050565b600154604080516342b60b0360e01b81526001600160a01b0386811660048301529151600093849316916342b60b03916024808301926020929190829003018186803b158015610d2157600080fd5b505afa158015610d35573d6000803e3d6000fd5b505050506040513d6020811015610d4b57600080fd5b50518015610dce5750600154604080516342b60b0360e01b81526001600160a01b038781166004830152915191909216916342b60b03916024808301926020929190829003018186803b158015610da157600080fd5b505afa158015610db5573d6000803e3d6000fd5b505050506040513d6020811015610dcb57600080fd5b50515b9050600081610e5657600160009054906101000a90046001600160a01b03166001600160a01b031663a22f23926040518163ffffffff1660e01b815260040160206040518083038186803b158015610e2557600080fd5b505afa158015610e39573d6000803e3d6000fd5b505050506040513d6020811015610e4f57600080fd5b5051610ed1565b600160009054906101000a90046001600160a01b03166001600160a01b031663df73a2676040518163ffffffff1660e01b815260040160206040518083038186803b158015610ea457600080fd5b505afa158015610eb8573d6000803e3d6000fd5b505050506040513d6020811015610ece57600080fd5b50515b9050600082610f5957600160009054906101000a90046001600160a01b03166001600160a01b0316637a210a2b6040518163ffffffff1660e01b815260040160206040518083038186803b158015610f2857600080fd5b505afa158015610f3c573d6000803e3d6000fd5b505050506040513d6020811015610f5257600080fd5b5051610fd4565b600160009054906101000a90046001600160a01b03166001600160a01b03166310eb56c26040518163ffffffff1660e01b815260040160206040518083038186803b158015610fa757600080fd5b505afa158015610fbb573d6000803e3d6000fd5b505050506040513d6020811015610fd157600080fd5b50515b90506000610fe68887858560016105fb565b90506000610ff88888868660006105fb565b90508082116110075780611009565b815b9998505050505050505050565b600082611025575060006110d2565b6001546040805163c65bc7b160e01b81526001600160a01b03898116600483015291516000936110ac93879391169163c65bc7b191602480820192602092909190829003018186803b15801561107a57600080fd5b505afa15801561108e573d6000803e3d6000fd5b505050506040513d60208110156110a457600080fd5b505190611304565b9050806110bd5760009150506110d2565b6110ce620f42406108148684611346565b9150505b9695505050505050565b60006105568383600160009054906101000a90046001600160a01b03166001600160a01b0316634d47b3046040518163ffffffff1660e01b815260040160206040518083038186803b15801561113157600080fd5b505afa158015611145573d6000803e3d6000fd5b505050506040513d602081101561115b57600080fd5b505160015460408051637a210a2b60e01b815290516001600160a01b0390921691637a210a2b91600480820192602092909190829003018186803b1580156111a257600080fd5b505afa1580156111b6573d6000803e3d6000fd5b505050506040513d60208110156111cc57600080fd5b505160006105fb565b6001546001600160a01b031681565b600192915050565b6000816111fb57506000610886565b600061129361271061081461128c600160009054906101000a90046001600160a01b03166001600160a01b031663318bc6896040518163ffffffff1660e01b815260040160206040518083038186803b15801561125757600080fd5b505afa15801561126b573d6000803e3d6000fd5b505050506040513d602081101561128157600080fd5b505161271090611304565b8690611346565b905061129f8382611304565b979650505050505050565b600082820183811015610556576040805162461bcd60e51b815260206004820152601b60248201527f536166654d6174683a206164646974696f6e206f766572666c6f770000000000604482015290519081900360640190fd5b600061055683836040518060400160405280601e81526020017f536166654d6174683a207375627472616374696f6e206f766572666c6f7700008152506114ed565b60008261135557506000610559565b8282028284828161136257fe5b04146105565760405162461bcd60e51b81526004018080602001828103825260218152602001806116506021913960400191505060405180910390fd5b600061055683836040518060400160405280601a81526020017f536166654d6174683a206469766973696f6e206279207a65726f000000000000815250611584565b6113e96115e9565b6001546001600160a01b03166113fd6115e9565b6000806000806000866001600160a01b0316634a3f088d8d8d8d8d6040518563ffffffff1660e01b815260040180856001600160a01b03168152602001846001600160a01b03168152602001836001600160a01b0316815260200182151581526020019450505050506101006040518083038186803b15801561147f57600080fd5b505afa158015611493573d6000803e3d6000fd5b505050506040513d6101008110156114aa57600080fd5b50805160208083015160408085015160608087015160e090970151958d52938c01929092528a015288019190915260c087015250939a9950505050505050505050565b6000818484111561157c5760405162461bcd60e51b81526004018080602001828103825283818151815260200191508051906020019080838360005b83811015611541578181015183820152602001611529565b50505050905090810190601f16801561156e5780820380516001836020036101000a031916815260200191505b509250505060405180910390fd5b505050900390565b600081836115d35760405162461bcd60e51b8152602060048201818152835160248401528351909283926044909101919085019080838360008315611541578181015183820152602001611529565b5060008385816115df57fe5b0495945050505050565b6040518060e0016040528060008152602001600081526020016000815260200160008152602001600081526020016000815260200160008152509056fe5661756c743a206c69717569646174696f6e20666565732065786365656420636f6c6c61746572616c536166654d6174683a206d756c7469706c69636174696f6e206f766572666c6f77a2646970667358221220ee166e3fb97dad787f08f563852adc684f755c3d9feceb016fb945950f1aa81864736f6c634300060c0033","linkReferences":{}},"methodIdentifiers":{"BASIS_POINTS_DIVISOR()":"126082cf","FUNDING_RATE_PRECISION()":"6be6026b","getBuyUsdgFeeBasisPoints(address,uint256)":"4adeddc6","getEntryFundingRate(address,address,bool)":"b1cc53ab","getFeeBasisPoints(address,uint256,uint256,uint256,bool)":"c7e074c3","getFundingFee(address,address,address,bool,uint256,uint256)":"da76524c","getPositionFee(address,address,address,bool,uint256)":"fdaf6ac3","getSellUsdgFeeBasisPoints(address,uint256)":"eb0835bf","getSwapFeeBasisPoints(address,address,uint256)":"da133816","gov()":"12d43a51","setGov(address)":"cfad57a2","updateCumulativeFundingRate(address,address)":"fbfded6d","validateDecreasePosition(address,address,address,uint256,uint256,bool,address)":"81d11a23","validateIncreasePosition(address,address,address,uint256,bool)":"9d5c28fa","validateLiquidation(address,address,address,bool,bool)":"d54d5a9f","vault()":"fbfa77cf"},"id":94}