{"abi":[{"type":"constructor","inputs":[{"name":"_admin","type":"address","internalType":"address"},{"name":"_buffer","type":"uint256","internalType":"uint256"},{"name":"_tokenManager","type":"address","internalType":"address"}],"stateMutability":"nonpayable"},{"type":"function","name":"MAX_BUFFER","inputs":[],"outputs":[{"name":"","type":"uint256","internalType":"uint256"}],"stateMutability":"view"},{"type":"function","name":"admin","inputs":[],"outputs":[{"name":"","type":"address","internalType":"address"}],"stateMutability":"view"},{"type":"function","name":"approve","inputs":[{"name":"_token","type":"address","internalType":"address"},{"name":"_spender","type":"address","internalType":"address"},{"name":"_amount","type":"uint256","internalType":"uint256"}],"outputs":[],"stateMutability":"nonpayable"},{"type":"function","name":"buffer","inputs":[],"outputs":[{"name":"","type":"uint256","internalType":"uint256"}],"stateMutability":"view"},{"type":"function","name":"cancelAction","inputs":[{"name":"_action","type":"bytes32","internalType":"bytes32"}],"outputs":[],"stateMutability":"nonpayable"},{"type":"function","name":"isHandler","inputs":[{"name":"","type":"address","internalType":"address"}],"outputs":[{"name":"","type":"bool","internalType":"bool"}],"stateMutability":"view"},{"type":"function","name":"isKeeper","inputs":[{"name":"","type":"address","internalType":"address"}],"outputs":[{"name":"","type":"bool","internalType":"bool"}],"stateMutability":"view"},{"type":"function","name":"pendingActions","inputs":[{"name":"","type":"bytes32","internalType":"bytes32"}],"outputs":[{"name":"","type":"uint256","internalType":"uint256"}],"stateMutability":"view"},{"type":"function","name":"priceFeedSetTokenConfig","inputs":[{"name":"_vaultPriceFeed","type":"address","internalType":"address"},{"name":"_token","type":"address","internalType":"address"},{"name":"_priceFeed","type":"address","internalType":"address"},{"name":"_priceDecimals","type":"uint256","internalType":"uint256"},{"name":"_isStrictStable","type":"bool","internalType":"bool"}],"outputs":[],"stateMutability":"nonpayable"},{"type":"function","name":"setAdjustment","inputs":[{"name":"_priceFeed","type":"address","internalType":"address"},{"name":"_token","type":"address","internalType":"address"},{"name":"_isAdditive","type":"bool","internalType":"bool"},{"name":"_adjustmentBps","type":"uint256","internalType":"uint256"}],"outputs":[],"stateMutability":"nonpayable"},{"type":"function","name":"setAdmin","inputs":[{"name":"_admin","type":"address","internalType":"address"}],"outputs":[],"stateMutability":"nonpayable"},{"type":"function","name":"setBuffer","inputs":[{"name":"_buffer","type":"uint256","internalType":"uint256"}],"outputs":[],"stateMutability":"nonpayable"},{"type":"function","name":"setContractHandler","inputs":[{"name":"_handler","type":"address","internalType":"address"},{"name":"_isActive","type":"bool","internalType":"bool"}],"outputs":[],"stateMutability":"nonpayable"},{"type":"function","name":"setExternalAdmin","inputs":[{"name":"_target","type":"address","internalType":"address"},{"name":"_admin","type":"address","internalType":"address"}],"outputs":[],"stateMutability":"nonpayable"},{"type":"function","name":"setGov","inputs":[{"name":"_target","type":"address","internalType":"address"},{"name":"_gov","type":"address","internalType":"address"}],"outputs":[],"stateMutability":"nonpayable"},{"type":"function","name":"setIsAmmEnabled","inputs":[{"name":"_priceFeed","type":"address","internalType":"address"},{"name":"_isEnabled","type":"bool","internalType":"bool"}],"outputs":[],"stateMutability":"nonpayable"},{"type":"function","name":"setIsSecondaryPriceEnabled","inputs":[{"name":"_priceFeed","type":"address","internalType":"address"},{"name":"_isEnabled","type":"bool","internalType":"bool"}],"outputs":[],"stateMutability":"nonpayable"},{"type":"function","name":"setIsSpreadEnabled","inputs":[{"name":"_fastPriceFeed","type":"address","internalType":"address"},{"name":"_isSpreadEnabled","type":"bool","internalType":"bool"}],"outputs":[],"stateMutability":"nonpayable"},{"type":"function","name":"setKeeper","inputs":[{"name":"_keeper","type":"address","internalType":"address"},{"name":"_isActive","type":"bool","internalType":"bool"}],"outputs":[],"stateMutability":"nonpayable"},{"type":"function","name":"setMaxPriceUpdateDelay","inputs":[{"name":"_fastPriceFeed","type":"address","internalType":"address"},{"name":"_maxPriceUpdateDelay","type":"uint256","internalType":"uint256"}],"outputs":[],"stateMutability":"nonpayable"},{"type":"function","name":"setMaxStrictPriceDeviation","inputs":[{"name":"_priceFeed","type":"address","internalType":"address"},{"name":"_maxStrictPriceDeviation","type":"uint256","internalType":"uint256"}],"outputs":[],"stateMutability":"nonpayable"},{"type":"function","name":"setMinBlockInterval","inputs":[{"name":"_fastPriceFeed","type":"address","internalType":"address"},{"name":"_minBlockInterval","type":"uint256","internalType":"uint256"}],"outputs":[],"stateMutability":"nonpayable"},{"type":"function","name":"setPriceDuration","inputs":[{"name":"_fastPriceFeed","type":"address","internalType":"address"},{"name":"_priceDuration","type":"uint256","internalType":"uint256"}],"outputs":[],"stateMutability":"nonpayable"},{"type":"function","name":"setPriceFeedUpdater","inputs":[{"name":"_fastPriceFeed","type":"address","internalType":"address"},{"name":"_account","type":"address","internalType":"address"},{"name":"_isActive","type":"bool","internalType":"bool"}],"outputs":[],"stateMutability":"nonpayable"},{"type":"function","name":"setPriceFeedWatcher","inputs":[{"name":"_fastPriceFeed","type":"address","internalType":"address"},{"name":"_account","type":"address","internalType":"address"},{"name":"_isActive","type":"bool","internalType":"bool"}],"outputs":[],"stateMutability":"nonpayable"},{"type":"function","name":"setPriceSampleSpace","inputs":[{"name":"_priceFeed","type":"address","internalType":"address"},{"name":"_priceSampleSpace","type":"uint256","internalType":"uint256"}],"outputs":[],"stateMutability":"nonpayable"},{"type":"function","name":"setSpreadBasisPoints","inputs":[{"name":"_priceFeed","type":"address","internalType":"address"},{"name":"_token","type":"address","internalType":"address"},{"name":"_spreadBasisPoints","type":"uint256","internalType":"uint256"}],"outputs":[],"stateMutability":"nonpayable"},{"type":"function","name":"setSpreadBasisPointsIfChainError","inputs":[{"name":"_fastPriceFeed","type":"address","internalType":"address"},{"name":"_spreadBasisPointsIfChainError","type":"uint256","internalType":"uint256"}],"outputs":[],"stateMutability":"nonpayable"},{"type":"function","name":"setSpreadBasisPointsIfInactive","inputs":[{"name":"_fastPriceFeed","type":"address","internalType":"address"},{"name":"_spreadBasisPointsIfInactive","type":"uint256","internalType":"uint256"}],"outputs":[],"stateMutability":"nonpayable"},{"type":"function","name":"setUseV2Pricing","inputs":[{"name":"_priceFeed","type":"address","internalType":"address"},{"name":"_useV2Pricing","type":"bool","internalType":"bool"}],"outputs":[],"stateMutability":"nonpayable"},{"type":"function","name":"setVaultPriceFeed","inputs":[{"name":"_fastPriceFeed","type":"address","internalType":"address"},{"name":"_vaultPriceFeed","type":"address","internalType":"address"}],"outputs":[],"stateMutability":"nonpayable"},{"type":"function","name":"signalApprove","inputs":[{"name":"_token","type":"address","internalType":"address"},{"name":"_spender","type":"address","internalType":"address"},{"name":"_amount","type":"uint256","internalType":"uint256"}],"outputs":[],"stateMutability":"nonpayable"},{"type":"function","name":"signalPriceFeedSetTokenConfig","inputs":[{"name":"_vaultPriceFeed","type":"address","internalType":"address"},{"name":"_token","type":"address","internalType":"address"},{"name":"_priceFeed","type":"address","internalType":"address"},{"name":"_priceDecimals","type":"uint256","internalType":"uint256"},{"name":"_isStrictStable","type":"bool","internalType":"bool"}],"outputs":[],"stateMutability":"nonpayable"},{"type":"function","name":"signalSetGov","inputs":[{"name":"_target","type":"address","internalType":"address"},{"name":"_gov","type":"address","internalType":"address"}],"outputs":[],"stateMutability":"nonpayable"},{"type":"function","name":"signalSetPriceFeedUpdater","inputs":[{"name":"_fastPriceFeed","type":"address","internalType":"address"},{"name":"_account","type":"address","internalType":"address"},{"name":"_isActive","type":"bool","internalType":"bool"}],"outputs":[],"stateMutability":"nonpayable"},{"type":"function","name":"signalSetPriceFeedWatcher","inputs":[{"name":"_fastPriceFeed","type":"address","internalType":"address"},{"name":"_account","type":"address","internalType":"address"},{"name":"_isActive","type":"bool","internalType":"bool"}],"outputs":[],"stateMutability":"nonpayable"},{"type":"function","name":"signalWithdrawToken","inputs":[{"name":"_target","type":"address","internalType":"address"},{"name":"_token","type":"address","internalType":"address"},{"name":"_receiver","type":"address","internalType":"address"},{"name":"_amount","type":"uint256","internalType":"uint256"}],"outputs":[],"stateMutability":"nonpayable"},{"type":"function","name":"tokenManager","inputs":[],"outputs":[{"name":"","type":"address","internalType":"address"}],"stateMutability":"view"},{"type":"function","name":"transferIn","inputs":[{"name":"_sender","type":"address","internalType":"address"},{"name":"_token","type":"address","internalType":"address"},{"name":"_amount","type":"uint256","internalType":"uint256"}],"outputs":[],"stateMutability":"nonpayable"},{"type":"function","name":"withdrawToken","inputs":[{"name":"_target","type":"address","internalType":"address"},{"name":"_token","type":"address","internalType":"address"},{"name":"_receiver","type":"address","internalType":"address"},{"name":"_amount","type":"uint256","internalType":"uint256"}],"outputs":[],"stateMutability":"nonpayable"},{"type":"event","name":"ClearAction","inputs":[{"name":"action","type":"bytes32","indexed":false,"internalType":"bytes32"}],"anonymous":false},{"type":"event","name":"SignalApprove","inputs":[{"name":"token","type":"address","indexed":false,"internalType":"address"},{"name":"spender","type":"address","indexed":false,"internalType":"address"},{"name":"amount","type":"uint256","indexed":false,"internalType":"uint256"},{"name":"action","type":"bytes32","indexed":false,"internalType":"bytes32"}],"anonymous":false},{"type":"event","name":"SignalPendingAction","inputs":[{"name":"action","type":"bytes32","indexed":false,"internalType":"bytes32"}],"anonymous":false},{"type":"event","name":"SignalPriceFeedSetTokenConfig","inputs":[{"name":"vaultPriceFeed","type":"address","indexed":false,"internalType":"address"},{"name":"token","type":"address","indexed":false,"internalType":"address"},{"name":"priceFeed","type":"address","indexed":false,"internalType":"address"},{"name":"priceDecimals","type":"uint256","indexed":false,"internalType":"uint256"},{"name":"isStrictStable","type":"bool","indexed":false,"internalType":"bool"}],"anonymous":false},{"type":"event","name":"SignalSetGov","inputs":[{"name":"target","type":"address","indexed":false,"internalType":"address"},{"name":"gov","type":"address","indexed":false,"internalType":"address"},{"name":"action","type":"bytes32","indexed":false,"internalType":"bytes32"}],"anonymous":false},{"type":"event","name":"SignalSetPriceFeedWatcher","inputs":[{"name":"fastPriceFeed","type":"address","indexed":false,"internalType":"address"},{"name":"account","type":"address","indexed":false,"internalType":"address"},{"name":"isActive","type":"bool","indexed":false,"internalType":"bool"}],"anonymous":false},{"type":"event","name":"SignalWithdrawToken","inputs":[{"name":"target","type":"address","indexed":false,"internalType":"address"},{"name":"token","type":"address","indexed":false,"internalType":"address"},{"name":"receiver","type":"address","indexed":false,"internalType":"address"},{"name":"amount","type":"uint256","indexed":false,"internalType":"uint256"},{"name":"action","type":"bytes32","indexed":false,"internalType":"bytes32"}],"anonymous":false}],"bytecode":{"object":"0x608060405234801561001057600080fd5b5060405161288e38038061288e8339818101604052606081101561003357600080fd5b50805160208201516040909201519091906206978082111561009c576040805162461bcd60e51b815260206004820152601960248201527f54696d656c6f636b3a20696e76616c6964205f62756666657200000000000000604482015290519081900360640190fd5b600180546001600160a01b039485166001600160a01b031991821617909155600092909255600280549190931691161790556127b1806100dd6000396000f3fe608060405234801561001057600080fd5b50600436106102485760003560e01c80635b6348ac1161013b578063be03af58116100b8578063e30569e51161007c578063e30569e5146108d7578063e4652f49146108f4578063e7b0a3a11461092a578063edaafe2014610960578063f851a4401461096857610248565b8063be03af58146107d9578063d1b9e85314610805578063db5c875f14610833578063dce6e18d1461086b578063e1f21c67146108a157610248565b8063996a7a1e116100ff578063996a7a1e1461070a578063a0a316a214610738578063adc7ea3714610764578063b74517ba14610781578063bd0f1c45146107ad57610248565b80635b6348ac1461065b57806361d07569146106875780636ba42aaa146106a1578063704b6c02146106c7578063781cc3d3146106ed57610248565b8063384cae73116101c95780634cd23f3b1161018d5780634cd23f3b1461055d57806350e32d1d1461059957806351a6de0d146105d157806355ef1395146105ff5780635843752f1461062d57610248565b8063384cae7314610457578063395bc7941461049b57806343ec6619146104c7578063454ffa46146104f557806346ea87af1461052357610248565b80632a709b14116102105780632a709b14146103515780632a72e8ba146103755780632cfe82e8146103ad5780633335e38a146103db5780633799c6181461041f57610248565b8063185051c11461024d57806321754d9e1461027d5780632877f4c3146102b95780632965c8c7146102e5578063296b07e514610313575b600080fd5b61027b6004803603604081101561026357600080fd5b506001600160a01b0381351690602001351515610970565b005b61027b6004803603608081101561029357600080fd5b506001600160a01b038135811691602081013582169160408201351690606001356109e8565b61027b600480360360408110156102cf57600080fd5b506001600160a01b038135169060200135610b33565b61027b600480360360408110156102fb57600080fd5b506001600160a01b0381351690602001351515610c52565b61027b6004803603608081101561032957600080fd5b506001600160a01b038135811691602081013590911690604081013515159060600135610ce7565b610359610de7565b604080516001600160a01b039092168252519081900360200190f35b61027b6004803603606081101561038b57600080fd5b506001600160a01b038135811691602081013590911690604001351515610df6565b61027b600480360360408110156103c357600080fd5b506001600160a01b0381358116916020013516610f12565b61027b600480360360a08110156103f157600080fd5b506001600160a01b038135811691602081013582169160408201351690606081013590608001351515610fae565b61027b6004803603606081101561043557600080fd5b506001600160a01b038135811691602081013590911690604001351515611108565b61027b600480360360a081101561046d57600080fd5b506001600160a01b038135811691602081013582169160408201351690606081013590608001351515611213565b61027b600480360360408110156104b157600080fd5b506001600160a01b038135169060200135611344565b61027b600480360360408110156104dd57600080fd5b506001600160a01b03813516906020013515156113d7565b61027b6004803603604081101561050b57600080fd5b506001600160a01b038135169060200135151561146c565b6105496004803603602081101561053957600080fd5b50356001600160a01b0316611501565b604080519115158252519081900360200190f35b61027b6004803603608081101561057357600080fd5b506001600160a01b03813581169160208101358216916040820135169060600135611516565b61027b600480360360608110156105af57600080fd5b506001600160a01b038135811691602081013590911690604001351515611631565b61027b600480360360408110156105e757600080fd5b506001600160a01b038135811691602001351661174d565b61027b6004803603604081101561061557600080fd5b506001600160a01b0381358116916020013516611864565b61027b6004803603604081101561064357600080fd5b506001600160a01b038135169060200135151561195e565b61027b6004803603604081101561067157600080fd5b506001600160a01b0381351690602001356119f3565b61068f611aa0565b60408051918252519081900360200190f35b610549600480360360208110156106b757600080fd5b50356001600160a01b0316611aa7565b61027b600480360360208110156106dd57600080fd5b50356001600160a01b0316611abc565b61027b6004803603602081101561070357600080fd5b5035611b2b565b61027b6004803603604081101561072057600080fd5b506001600160a01b0381358116916020013516611b84565b61027b6004803603604081101561074e57600080fd5b506001600160a01b038135169060200135611c75565b61027b6004803603602081101561077a57600080fd5b5035611d08565b61027b6004803603604081101561079757600080fd5b506001600160a01b038135169060200135611df2565b61027b600480360360408110156107c357600080fd5b506001600160a01b038135169060200135611e9f565b61027b600480360360408110156107ef57600080fd5b506001600160a01b038135169060200135611f32565b61027b6004803603604081101561081b57600080fd5b506001600160a01b0381351690602001351515611fc5565b61027b6004803603606081101561084957600080fd5b506001600160a01b03813581169160208101359091169060400135151561203d565b61027b6004803603606081101561088157600080fd5b506001600160a01b038135811691602081013590911690604001356120f7565b61027b600480360360608110156108b757600080fd5b506001600160a01b038135811691602081013590911690604001356121f9565b61068f600480360360208110156108ed57600080fd5b503561232e565b61027b6004803603606081101561090a57600080fd5b506001600160a01b03813581169160208101359091169060400135612340565b61027b6004803603606081101561094057600080fd5b506001600160a01b03813581169160208101359091169060400135612417565b61068f6124ef565b6103596124f5565b6001546001600160a01b031633146109bd576040805162461bcd60e51b8152602060048201526013602482015260008051602061275c833981519152604482015290519081900360640190fd5b6001600160a01b03919091166000908152600460205260409020805460ff1916911515919091179055565b6001546001600160a01b03163314610a35576040805162461bcd60e51b8152602060048201526013602482015260008051602061275c833981519152604482015290519081900360640190fd5b604080516c3bb4ba34323930bbaa37b5b2b760991b6020808301919091526001600160601b0319606088811b8216602d85015287811b8216604185015286901b16605583015260698083018590528351808403909101815260899092019092528051910120610aa381612504565b610aac816125b0565b846001600160a01b03166301e336678585856040518463ffffffff1660e01b815260040180846001600160a01b03168152602001836001600160a01b031681526020018281526020019350505050600060405180830381600087803b158015610b1457600080fd5b505af1158015610b28573d6000803e3d6000fd5b505050505050505050565b6001546001600160a01b0316331480610b5b57503360009081526004602052604090205460ff165b610b9a576040805162461bcd60e51b8152602060048201526013602482015260008051602061275c833981519152604482015290519081900360640190fd5b6005811115610bf0576040805162461bcd60e51b815260206004820152601960248201527f496e76616c6964205f707269636553616d706c65537061636500000000000000604482015290519081900360640190fd5b816001600160a01b0316632fa03b8f826040518263ffffffff1660e01b815260040180828152602001915050600060405180830381600087803b158015610c3657600080fd5b505af1158015610c4a573d6000803e3d6000fd5b505050505050565b6001546001600160a01b03163314610c9f576040805162461bcd60e51b8152602060048201526013602482015260008051602061275c833981519152604482015290519081900360640190fd5b816001600160a01b031663eb1c92a9826040518263ffffffff1660e01b8152600401808215158152602001915050600060405180830381600087803b158015610c3657600080fd5b6001546001600160a01b0316331480610d0f57503360009081526004602052604090205460ff165b80610d2957503360009081526005602052604090205460ff165b610d68576040805162461bcd60e51b8152602060048201526013602482015260008051602061275c833981519152604482015290519081900360640190fd5b836001600160a01b031663d694376c8484846040518463ffffffff1660e01b815260040180846001600160a01b0316815260200183151581526020018281526020019350505050600060405180830381600087803b158015610dc957600080fd5b505af1158015610ddd573d6000803e3d6000fd5b5050505050505050565b6002546001600160a01b031681565b6001546001600160a01b03163314610e43576040805162461bcd60e51b8152602060048201526013602482015260008051602061275c833981519152604482015290519081900360640190fd5b604080517239b2ba283934b1b2a332b2b22bb0ba31b432b960691b6020808301919091526001600160601b0319606087811b8216603385015286901b16604783015283151560f81b605b8301528251603c818403018152605c9092019092528051910120610eb081612504565b610eb9816125b0565b836001600160a01b03166331cb610584846040518363ffffffff1660e01b815260040180836001600160a01b03168152602001821515815260200192505050600060405180830381600087803b158015610dc957600080fd5b6001546001600160a01b03163314610f5f576040805162461bcd60e51b8152602060048201526013602482015260008051602061275c833981519152604482015290519081900360640190fd5b816001600160a01b031663238aafb7826040518263ffffffff1660e01b815260040180826001600160a01b03168152602001915050600060405180830381600087803b158015610c3657600080fd5b6001546001600160a01b03163314610ffb576040805162461bcd60e51b8152602060048201526013602482015260008051602061275c833981519152604482015290519081900360640190fd5b6040805176707269636546656564536574546f6b656e436f6e66696760481b6020808301919091526001600160601b0319606089811b8216603785015288811b8216604b85015287901b16605f8301526073820185905283151560f81b6093830152825160748184030181526094909201909252805191012061107d81612504565b611086816125b0565b60408051634b9ade4760e01b81526001600160a01b0387811660048301528681166024830152604482018690528415156064830152915191881691634b9ade479160848082019260009290919082900301818387803b1580156110e857600080fd5b505af11580156110fc573d6000803e3d6000fd5b50505050505050505050565b6001546001600160a01b03163314611155576040805162461bcd60e51b8152602060048201526013602482015260008051602061275c833981519152604482015290519081900360640190fd5b604080517239b2ba283934b1b2a332b2b22bb0ba31b432b960691b6020808301919091526001600160601b0319606087811b8216603385015286901b16604783015283151560f81b605b8301528251603c818403018152605c90920190925280519101206111c281612659565b604080516001600160a01b038087168252851660208201528315158183015290517f6ab3018654d3055eae2cb61d3dffe4cbb30f257d54ec966059b4d00b325a36699181900360600190a150505050565b6001546001600160a01b03163314611260576040805162461bcd60e51b8152602060048201526013602482015260008051602061275c833981519152604482015290519081900360640190fd5b6040805176707269636546656564536574546f6b656e436f6e66696760481b6020808301919091526001600160601b0319606089811b8216603785015288811b8216604b85015287901b16605f8301526073820185905283151560f81b609383015282516074818403018152609490920190925280519101206112e281612659565b604080516001600160a01b038089168252808816602083015286168183015260608101859052831515608082015290517f1b2ddf357ae016d8c127dcd3a73c34744fdeaeeb4b7ef1e04490cebf7f4816fe9181900360a00190a1505050505050565b6001546001600160a01b03163314611391576040805162461bcd60e51b8152602060048201526013602482015260008051602061275c833981519152604482015290519081900360640190fd5b816001600160a01b031663b70c7b70826040518263ffffffff1660e01b815260040180828152602001915050600060405180830381600087803b158015610c3657600080fd5b6001546001600160a01b03163314611424576040805162461bcd60e51b8152602060048201526013602482015260008051602061275c833981519152604482015290519081900360640190fd5b816001600160a01b031663ce98dfa8826040518263ffffffff1660e01b8152600401808215158152602001915050600060405180830381600087803b158015610c3657600080fd5b6001546001600160a01b031633146114b9576040805162461bcd60e51b8152602060048201526013602482015260008051602061275c833981519152604482015290519081900360640190fd5b816001600160a01b031663fd34ec40826040518263ffffffff1660e01b8152600401808215158152602001915050600060405180830381600087803b158015610c3657600080fd5b60046020526000908152604090205460ff1681565b6001546001600160a01b03163314611563576040805162461bcd60e51b8152602060048201526013602482015260008051602061275c833981519152604482015290519081900360640190fd5b604080516c3bb4ba34323930bbaa37b5b2b760991b6020808301919091526001600160601b0319606088811b8216602d85015287811b8216604185015286901b166055830152606980830185905283518084039091018152608990920190925280519101206115d181612659565b604080516001600160a01b0380881682528087166020830152851681830152606081018490526080810183905290517f9ed7b0f07a9eed51079fab67f6d0f141f167f5b17fdb5a23282280e15fcafed39181900360a00190a15050505050565b6001546001600160a01b0316331461167e576040805162461bcd60e51b8152602060048201526013602482015260008051602061275c833981519152604482015290519081900360640190fd5b604080517239b2ba283934b1b2a332b2b22ab83230ba32b960691b6020808301919091526001600160601b0319606087811b8216603385015286901b16604783015283151560f81b605b8301528251603c818403018152605c90920190925280519101206116eb81612504565b6116f4816125b0565b836001600160a01b0316631a15339184846040518363ffffffff1660e01b815260040180836001600160a01b03168152602001821515815260200192505050600060405180830381600087803b158015610dc957600080fd5b6001546001600160a01b0316331461179a576040805162461bcd60e51b8152602060048201526013602482015260008051602061275c833981519152604482015290519081900360640190fd5b604080516539b2ba23b7bb60d11b6020808301919091526001600160601b0319606086811b8216602685015285901b16603a8301528251602e818403018152604e90920190925280519101206117ef81612504565b6117f8816125b0565b826001600160a01b031663cfad57a2836040518263ffffffff1660e01b815260040180826001600160a01b03168152602001915050600060405180830381600087803b15801561184757600080fd5b505af115801561185b573d6000803e3d6000fd5b50505050505050565b6001546001600160a01b031633146118b1576040805162461bcd60e51b8152602060048201526013602482015260008051602061275c833981519152604482015290519081900360640190fd5b6001600160a01b03821630141561190f576040805162461bcd60e51b815260206004820152601960248201527f54696d656c6f636b3a20696e76616c6964205f74617267657400000000000000604482015290519081900360640190fd5b816001600160a01b031663704b6c02826040518263ffffffff1660e01b815260040180826001600160a01b03168152602001915050600060405180830381600087803b158015610c3657600080fd5b6001546001600160a01b031633146119ab576040805162461bcd60e51b8152602060048201526013602482015260008051602061275c833981519152604482015290519081900360640190fd5b816001600160a01b0316639917dc74826040518263ffffffff1660e01b8152600401808215158152602001915050600060405180830381600087803b158015610c3657600080fd5b6001546001600160a01b0316331480611a1b57503360009081526004602052604090205460ff165b611a5a576040805162461bcd60e51b8152602060048201526013602482015260008051602061275c833981519152604482015290519081900360640190fd5b816001600160a01b0316638b7677f4826040518263ffffffff1660e01b815260040180828152602001915050600060405180830381600087803b158015610c3657600080fd5b6206978081565b60056020526000908152604090205460ff1681565b6002546001600160a01b03163314611b09576040805162461bcd60e51b8152602060048201526013602482015260008051602061275c833981519152604482015290519081900360640190fd5b600180546001600160a01b0319166001600160a01b0392909216919091179055565b6001546001600160a01b03163314611b78576040805162461bcd60e51b8152602060048201526013602482015260008051602061275c833981519152604482015290519081900360640190fd5b611b81816125b0565b50565b6001546001600160a01b03163314611bd1576040805162461bcd60e51b8152602060048201526013602482015260008051602061275c833981519152604482015290519081900360640190fd5b604080516539b2ba23b7bb60d11b6020808301919091526001600160601b0319606086811b8216602685015285901b16603a8301528251602e818403018152604e9092019092528051910120611c2681612659565b604080516001600160a01b0380861682528416602082015280820183905290517f2701a94fd55a560e291f3c54d36580040670d6fde558a77a75d619e38139f7139181900360600190a1505050565b6001546001600160a01b03163314611cc2576040805162461bcd60e51b8152602060048201526013602482015260008051602061275c833981519152604482015290519081900360640190fd5b816001600160a01b0316632fbfe3d3826040518263ffffffff1660e01b815260040180828152602001915050600060405180830381600087803b158015610c3657600080fd5b6001546001600160a01b03163314611d55576040805162461bcd60e51b8152602060048201526013602482015260008051602061275c833981519152604482015290519081900360640190fd5b62069780811115611dad576040805162461bcd60e51b815260206004820152601960248201527f54696d656c6f636b3a20696e76616c6964205f62756666657200000000000000604482015290519081900360640190fd5b6000548111611ded5760405162461bcd60e51b81526004018080602001828103825260248152602001806127386024913960400191505060405180910390fd5b600055565b6001546001600160a01b0316331480611e1a57503360009081526004602052604090205460ff165b611e59576040805162461bcd60e51b8152602060048201526013602482015260008051602061275c833981519152604482015290519081900360640190fd5b816001600160a01b03166344c23193826040518263ffffffff1660e01b815260040180828152602001915050600060405180830381600087803b158015610c3657600080fd5b6001546001600160a01b03163314611eec576040805162461bcd60e51b8152602060048201526013602482015260008051602061275c833981519152604482015290519081900360640190fd5b816001600160a01b031663de0d1b94826040518263ffffffff1660e01b815260040180828152602001915050600060405180830381600087803b158015610c3657600080fd5b6001546001600160a01b03163314611f7f576040805162461bcd60e51b8152602060048201526013602482015260008051602061275c833981519152604482015290519081900360640190fd5b816001600160a01b031663d6a153f1826040518263ffffffff1660e01b815260040180828152602001915050600060405180830381600087803b158015610c3657600080fd5b6001546001600160a01b03163314612012576040805162461bcd60e51b8152602060048201526013602482015260008051602061275c833981519152604482015290519081900360640190fd5b6001600160a01b03919091166000908152600560205260409020805460ff1916911515919091179055565b6001546001600160a01b0316331461208a576040805162461bcd60e51b8152602060048201526013602482015260008051602061275c833981519152604482015290519081900360640190fd5b604080517239b2ba283934b1b2a332b2b22ab83230ba32b960691b6020808301919091526001600160601b0319606087811b8216603385015286901b16604783015283151560f81b605b8301528251603c818403018152605c90920190925280519101206111c281612659565b6001546001600160a01b03163314612144576040805162461bcd60e51b8152602060048201526013602482015260008051602061275c833981519152604482015290519081900360640190fd5b6040805166617070726f766560c81b6020808301919091526001600160601b0319606087811b8216602785015286901b16603b830152604f80830185905283518084039091018152606f90920190925280519101206121a281612659565b604080516001600160a01b038087168252851660208201528082018490526060810183905290517f6af9d86ba7407a934e941ed8ae5f779369a88fe8ba2cd1c204185d6f8a8287fd9181900360800190a150505050565b6001546001600160a01b03163314612246576040805162461bcd60e51b8152602060048201526013602482015260008051602061275c833981519152604482015290519081900360640190fd5b6040805166617070726f766560c81b6020808301919091526001600160601b0319606087811b8216602785015286901b16603b830152604f80830185905283518084039091018152606f90920190925280519101206122a481612504565b6122ad816125b0565b836001600160a01b031663095ea7b384846040518363ffffffff1660e01b815260040180836001600160a01b0316815260200182815260200192505050602060405180830381600087803b15801561230457600080fd5b505af1158015612318573d6000803e3d6000fd5b505050506040513d6020811015610c4a57600080fd5b60036020526000908152604090205481565b6001546001600160a01b0316331461238d576040805162461bcd60e51b8152602060048201526013602482015260008051602061275c833981519152604482015290519081900360640190fd5b604080516323b872dd60e01b81526001600160a01b038581166004830152306024830152604482018490529151918416916323b872dd916064808201926020929091908290030181600087803b1580156123e657600080fd5b505af11580156123fa573d6000803e3d6000fd5b505050506040513d602081101561241057600080fd5b5050505050565b6001546001600160a01b031633148061243f57503360009081526004602052604090205460ff165b8061245957503360009081526005602052604090205460ff165b612498576040805162461bcd60e51b8152602060048201526013602482015260008051602061275c833981519152604482015290519081900360640190fd5b826001600160a01b0316639b88938083836040518363ffffffff1660e01b815260040180836001600160a01b0316815260200182815260200192505050600060405180830381600087803b15801561184757600080fd5b60005481565b6001546001600160a01b031681565b600081815260036020526040902054612564576040805162461bcd60e51b815260206004820152601e60248201527f54696d656c6f636b3a20616374696f6e206e6f74207369676e616c6c65640000604482015290519081900360640190fd5b6000818152600360205260409020544211611b815760405162461bcd60e51b81526004018080602001828103825260248152602001806127146024913960400191505060405180910390fd5b600081815260036020526040902054612610576040805162461bcd60e51b815260206004820152601960248201527f54696d656c6f636b3a20696e76616c6964205f616374696f6e00000000000000604482015290519081900360640190fd5b600081815260036020908152604080832092909255815183815291517f194ed6dd5e37e2acc44a19455c3f208c4831ee695fe362d9c4ef2d316bc53aec9281900390910190a150565b6000546126679042906126b2565b60008281526003602090815260409182902092909255805183815290517f5fb9c0ecf7b4a28c4c480212e868f9da7f373a2ed4d23498b0be6aadf35242fb929181900390910190a150565b60008282018381101561270c576040805162461bcd60e51b815260206004820152601b60248201527f536166654d6174683a206164646974696f6e206f766572666c6f770000000000604482015290519081900360640190fd5b939250505056fe54696d656c6f636b3a20616374696f6e2074696d65206e6f74207965742070617373656454696d656c6f636b3a206275666665722063616e6e6f742062652064656372656173656454696d656c6f636b3a20666f7262696464656e00000000000000000000000000a2646970667358221220d97aaf2df121356e6ac117b1a2594338369c6f6f2ade9abfdfa7da751dc4639364736f6c634300060c0033","linkReferences":{}},"methodIdentifiers":{"MAX_BUFFER()":"61d07569","admin()":"f851a440","approve(address,address,uint256)":"e1f21c67","buffer()":"edaafe20","cancelAction(bytes32)":"781cc3d3","isHandler(address)":"46ea87af","isKeeper(address)":"6ba42aaa","pendingActions(bytes32)":"e30569e5","priceFeedSetTokenConfig(address,address,address,uint256,bool)":"3335e38a","setAdjustment(address,address,bool,uint256)":"296b07e5","setAdmin(address)":"704b6c02","setBuffer(uint256)":"adc7ea37","setContractHandler(address,bool)":"185051c1","setExternalAdmin(address,address)":"55ef1395","setGov(address,address)":"51a6de0d","setIsAmmEnabled(address,bool)":"5843752f","setIsSecondaryPriceEnabled(address,bool)":"2965c8c7","setIsSpreadEnabled(address,bool)":"43ec6619","setKeeper(address,bool)":"d1b9e853","setMaxPriceUpdateDelay(address,uint256)":"5b6348ac","setMaxStrictPriceDeviation(address,uint256)":"a0a316a2","setMinBlockInterval(address,uint256)":"be03af58","setPriceDuration(address,uint256)":"b74517ba","setPriceFeedUpdater(address,address,bool)":"50e32d1d","setPriceFeedWatcher(address,address,bool)":"2a72e8ba","setPriceSampleSpace(address,uint256)":"2877f4c3","setSpreadBasisPoints(address,address,uint256)":"e7b0a3a1","setSpreadBasisPointsIfChainError(address,uint256)":"bd0f1c45","setSpreadBasisPointsIfInactive(address,uint256)":"395bc794","setUseV2Pricing(address,bool)":"454ffa46","setVaultPriceFeed(address,address)":"2cfe82e8","signalApprove(address,address,uint256)":"dce6e18d","signalPriceFeedSetTokenConfig(address,address,address,uint256,bool)":"384cae73","signalSetGov(address,address)":"996a7a1e","signalSetPriceFeedUpdater(address,address,bool)":"db5c875f","signalSetPriceFeedWatcher(address,address,bool)":"3799c618","signalWithdrawToken(address,address,address,uint256)":"4cd23f3b","tokenManager()":"2a709b14","transferIn(address,address,uint256)":"e4652f49","withdrawToken(address,address,address,uint256)":"21754d9e"},"id":151}