{"abi":[{"type":"constructor","inputs":[{"name":"_admin","type":"address","internalType":"address"},{"name":"_buffer","type":"uint256","internalType":"uint256"},{"name":"_averagePriceUpdateDelay","type":"uint256","internalType":"uint256"},{"name":"_maxAveragePriceChange","type":"uint256","internalType":"uint256"}],"stateMutability":"nonpayable"},{"type":"function","name":"BASIS_POINTS_DIVISOR","inputs":[],"outputs":[{"name":"","type":"uint256","internalType":"uint256"}],"stateMutability":"view"},{"type":"function","name":"MAX_BUFFER","inputs":[],"outputs":[{"name":"","type":"uint256","internalType":"uint256"}],"stateMutability":"view"},{"type":"function","name":"admin","inputs":[],"outputs":[{"name":"","type":"address","internalType":"address"}],"stateMutability":"view"},{"type":"function","name":"averagePriceUpdateDelay","inputs":[],"outputs":[{"name":"","type":"uint256","internalType":"uint256"}],"stateMutability":"view"},{"type":"function","name":"buffer","inputs":[],"outputs":[{"name":"","type":"uint256","internalType":"uint256"}],"stateMutability":"view"},{"type":"function","name":"disableIsGlobalShortDataReady","inputs":[{"name":"_shortsTracker","type":"address","internalType":"contract IShortsTracker"}],"outputs":[],"stateMutability":"nonpayable"},{"type":"function","name":"isHandler","inputs":[{"name":"","type":"address","internalType":"address"}],"outputs":[{"name":"","type":"bool","internalType":"bool"}],"stateMutability":"view"},{"type":"function","name":"lastUpdated","inputs":[{"name":"","type":"address","internalType":"address"}],"outputs":[{"name":"","type":"uint256","internalType":"uint256"}],"stateMutability":"view"},{"type":"function","name":"maxAveragePriceChange","inputs":[],"outputs":[{"name":"","type":"uint256","internalType":"uint256"}],"stateMutability":"view"},{"type":"function","name":"pendingActions","inputs":[{"name":"","type":"bytes32","internalType":"bytes32"}],"outputs":[{"name":"","type":"uint256","internalType":"uint256"}],"stateMutability":"view"},{"type":"function","name":"setAdmin","inputs":[{"name":"_admin","type":"address","internalType":"address"}],"outputs":[],"stateMutability":"nonpayable"},{"type":"function","name":"setAveragePriceUpdateDelay","inputs":[{"name":"_averagePriceUpdateDelay","type":"uint256","internalType":"uint256"}],"outputs":[],"stateMutability":"nonpayable"},{"type":"function","name":"setBuffer","inputs":[{"name":"_buffer","type":"uint256","internalType":"uint256"}],"outputs":[],"stateMutability":"nonpayable"},{"type":"function","name":"setGlobalShortAveragePrices","inputs":[{"name":"_shortsTracker","type":"address","internalType":"contract IShortsTracker"},{"name":"_tokens","type":"address[]","internalType":"address[]"},{"name":"_averagePrices","type":"uint256[]","internalType":"uint256[]"}],"outputs":[],"stateMutability":"nonpayable"},{"type":"function","name":"setGov","inputs":[{"name":"_shortsTracker","type":"address","internalType":"address"},{"name":"_gov","type":"address","internalType":"address"}],"outputs":[],"stateMutability":"nonpayable"},{"type":"function","name":"setHandler","inputs":[{"name":"_handler","type":"address","internalType":"address"},{"name":"_isActive","type":"bool","internalType":"bool"}],"outputs":[],"stateMutability":"nonpayable"},{"type":"function","name":"setIsGlobalShortDataReady","inputs":[{"name":"_shortsTracker","type":"address","internalType":"contract IShortsTracker"},{"name":"_value","type":"bool","internalType":"bool"}],"outputs":[],"stateMutability":"nonpayable"},{"type":"function","name":"setMaxAveragePriceChange","inputs":[{"name":"_maxAveragePriceChange","type":"uint256","internalType":"uint256"}],"outputs":[],"stateMutability":"nonpayable"},{"type":"function","name":"signalSetAdmin","inputs":[{"name":"_admin","type":"address","internalType":"address"}],"outputs":[],"stateMutability":"nonpayable"},{"type":"function","name":"signalSetAveragePriceUpdateDelay","inputs":[{"name":"_averagePriceUpdateDelay","type":"uint256","internalType":"uint256"}],"outputs":[],"stateMutability":"nonpayable"},{"type":"function","name":"signalSetGov","inputs":[{"name":"_shortsTracker","type":"address","internalType":"address"},{"name":"_gov","type":"address","internalType":"address"}],"outputs":[],"stateMutability":"nonpayable"},{"type":"function","name":"signalSetIsGlobalShortDataReady","inputs":[{"name":"_shortsTracker","type":"address","internalType":"contract IShortsTracker"},{"name":"_value","type":"bool","internalType":"bool"}],"outputs":[],"stateMutability":"nonpayable"},{"type":"function","name":"signalSetMaxAveragePriceChange","inputs":[{"name":"_maxAveragePriceChange","type":"uint256","internalType":"uint256"}],"outputs":[],"stateMutability":"nonpayable"},{"type":"event","name":"ClearAction","inputs":[{"name":"action","type":"bytes32","indexed":false,"internalType":"bytes32"}],"anonymous":false},{"type":"event","name":"GlobalShortAveragePriceUpdated","inputs":[{"name":"token","type":"address","indexed":true,"internalType":"address"},{"name":"oldAveragePrice","type":"uint256","indexed":false,"internalType":"uint256"},{"name":"newAveragePrice","type":"uint256","indexed":false,"internalType":"uint256"}],"anonymous":false},{"type":"event","name":"SetAdmin","inputs":[{"name":"admin","type":"address","indexed":false,"internalType":"address"}],"anonymous":false},{"type":"event","name":"SetAveragePriceUpdateDelay","inputs":[{"name":"averagePriceUpdateDelay","type":"uint256","indexed":false,"internalType":"uint256"}],"anonymous":false},{"type":"event","name":"SetGov","inputs":[{"name":"target","type":"address","indexed":false,"internalType":"address"},{"name":"gov","type":"address","indexed":false,"internalType":"address"}],"anonymous":false},{"type":"event","name":"SetHandler","inputs":[{"name":"handler","type":"address","indexed":true,"internalType":"address"},{"name":"isHandler","type":"bool","indexed":false,"internalType":"bool"}],"anonymous":false},{"type":"event","name":"SetIsGlobalShortDataReady","inputs":[{"name":"target","type":"address","indexed":false,"internalType":"address"},{"name":"isGlobalShortDataReady","type":"bool","indexed":false,"internalType":"bool"}],"anonymous":false},{"type":"event","name":"SetMaxAveragePriceChange","inputs":[{"name":"maxAveragePriceChange","type":"uint256","indexed":false,"internalType":"uint256"}],"anonymous":false},{"type":"event","name":"SignalPendingAction","inputs":[{"name":"action","type":"bytes32","indexed":false,"internalType":"bytes32"}],"anonymous":false},{"type":"event","name":"SignalSetAdmin","inputs":[{"name":"admin","type":"address","indexed":false,"internalType":"address"}],"anonymous":false},{"type":"event","name":"SignalSetAveragePriceUpdateDelay","inputs":[{"name":"averagePriceUpdateDelay","type":"uint256","indexed":false,"internalType":"uint256"}],"anonymous":false},{"type":"event","name":"SignalSetGov","inputs":[{"name":"target","type":"address","indexed":false,"internalType":"address"},{"name":"gov","type":"address","indexed":false,"internalType":"address"}],"anonymous":false},{"type":"event","name":"SignalSetIsGlobalShortDataReady","inputs":[{"name":"target","type":"address","indexed":false,"internalType":"address"},{"name":"isGlobalShortDataReady","type":"bool","indexed":false,"internalType":"bool"}],"anonymous":false},{"type":"event","name":"SignalSetMaxAveragePriceChange","inputs":[{"name":"maxAveragePriceChange","type":"uint256","indexed":false,"internalType":"uint256"}],"anonymous":false}],"bytecode":{"object":"0x608060405234801561001057600080fd5b50604051611c57380380611c578339818101604052608081101561003357600080fd5b50805160208201516040830151606090930151600180546001600160a01b0319166001600160a01b0390941693909317909255600255600591909155600655611bd6806100816000396000f3fe608060405234801561001057600080fd5b506004361061014d5760003560e01c806351a6de0d116100c3578063996a7a1e1161007c578063996a7a1e146104285780639cb7de4b14610456578063adc7ea3714610484578063e30569e5146104a1578063edaafe20146104be578063f851a440146104c65761014d565b806351a6de0d146103635780635c3bca361461039157806361d07569146103ae578063627395eb146103b6578063704b6c02146103dc578063717cf5d6146104025761014d565b8063331566391161011557806333156639146101e75780633976e5661461020457806342588a67146102d657806342773c2c146102f357806346ea87af146102fb5780634882fa13146103355761014d565b80630a6f93e614610152578063126082cf1461018a5780631ab8fe04146101925780632591d4831461019a5780632c166c41146101ca575b600080fd5b6101786004803603602081101561016857600080fd5b50356001600160a01b03166104ea565b60408051918252519081900360200190f35b6101786104fc565b610178610502565b6101c8600480360360408110156101b057600080fd5b506001600160a01b0381351690602001351515610508565b005b6101c8600480360360208110156101e057600080fd5b503561066d565b6101c8600480360360208110156101fd57600080fd5b503561074c565b6101c86004803603606081101561021a57600080fd5b6001600160a01b03823516919081019060408101602082013564010000000081111561024557600080fd5b82018360208201111561025757600080fd5b8035906020019184602083028401116401000000008311171561027957600080fd5b91939092909160208101903564010000000081111561029757600080fd5b8201836020820111156102a957600080fd5b803590602001918460208302840111640100000000831117156102cb57600080fd5b509092509050610830565b6101c8600480360360208110156102ec57600080fd5b5035610bcf565b610178610ca5565b6103216004803603602081101561031157600080fd5b50356001600160a01b0316610cab565b604080519115158252519081900360200190f35b6101c86004803603604081101561034b57600080fd5b506001600160a01b0381351690602001351515610cc0565b6101c86004803603604081101561037957600080fd5b506001600160a01b0381358116916020013516610dbc565b6101c8600480360360208110156103a757600080fd5b5035610f14565b610178610fe5565b6101c8600480360360208110156103cc57600080fd5b50356001600160a01b0316610fec565b6101c8600480360360208110156103f257600080fd5b50356001600160a01b03166110da565b6101c86004803603602081101561041857600080fd5b50356001600160a01b03166111ce565b6101c86004803603604081101561043e57600080fd5b506001600160a01b03813581169160200135166112e9565b6101c86004803603604081101561046c57600080fd5b506001600160a01b0381351690602001351515611416565b6101c86004803603602081101561049a57600080fd5b50356114bf565b610178600480360360208110156104b757600080fd5b503561158f565b6101786115a1565b6104ce6115a7565b604080516001600160a01b039092168252519081900360200190f35b60046020526000908152604090205481565b61271081565b60055481565b6001546001600160a01b031633146105515760405162461bcd60e51b8152600401808060200182810382526026815260200180611a336026913960400191505060405180910390fd5b60408051787365744973476c6f62616c53686f727444617461526561647960381b6020808301919091526001600160601b0319606086901b16603983015283151560f81b604d8301528251602e818403018152604e90920190925280519101206105ba816115b6565b6105c381611650565b826001600160a01b0316633d30cabf836040518263ffffffff1660e01b8152600401808215158152602001915050600060405180830381600087803b15801561060b57600080fd5b505af115801561061f573d6000803e3d6000fd5b5050604080516001600160a01b0387168152851515602082015281517f177de4361fc37a0e8defe8ac0c685d3472789b507959897eec32350c9d2c36669450908190039091019150a1505050565b6001546001600160a01b031633146106b65760405162461bcd60e51b8152600401808060200182810382526026815260200180611a336026913960400191505060405180910390fd5b60408051777365744d61784176657261676550726963654368616e676560401b60208083019190915260388083018590528351808403909101815260589092019092528051910120610707816115b6565b61071081611650565b60068290556040805183815290517fe846c28c10eef345d8d4fea8b403bfac624c32c3e64ce0b666f23404f2edb5149181900360200190a15050565b6001546001600160a01b031633146107955760405162461bcd60e51b8152600401808060200182810382526026815260200180611a336026913960400191505060405180910390fd5b604080517f73657441766572616765507269636555706461746544656c6179000000000000602080830191909152603a80830185905283518084039091018152605a90920190925280519101206107eb816115b6565b6107f481611650565b60058290556040805183815290517fa043b6b847902bb85c2a2575e9bce3a077bcaad8ec888ac941f50a6f4acdbb3d9181900360200190a15050565b3360009081526003602052604090205460ff168061085857506001546001600160a01b031633145b6108935760405162461bcd60e51b8152600401808060200182810382526028815260200180611a596028913960400191505060405180910390fd5b60408051633d30cabf60e01b815260006004820181905291516001600160a01b03881692633d30cabf926024808201939182900301818387803b1580156108d957600080fd5b505af11580156108ed573d6000803e3d6000fd5b5050505060005b83811015610b0a57600085858381811061090a57fe5b905060200201356001600160a01b031690506000876001600160a01b03166362749803836040518263ffffffff1660e01b815260040180826001600160a01b0316815260200191505060206040518083038186803b15801561096b57600080fd5b505afa15801561097f573d6000803e3d6000fd5b505050506040513d602081101561099557600080fd5b5051905060008585858181106109a757fe5b90506020020135905060008282116109c8576109c383836116e1565b6109d2565b6109d282846116e1565b6006549091506109ee846109e88461271061172c565b90611785565b10610a2a5760405162461bcd60e51b8152600401808060200182810382526025815260200180611b7c6025913960400191505060405180910390fd5b6005546001600160a01b038516600090815260046020526040902054610a4f916117c7565b421015610aa3576040805162461bcd60e51b815260206004820181905260248201527f53686f727473547261636b657254696d656c6f636b3a20746f6f206561726c79604482015290519081900360640190fd5b6001600160a01b038416600081815260046020908152604091829020429055815186815290810185905281517fa6a58ff784b1e07988de90568885d7bbd8e5485c3ec4344195c7306108553256929181900390910190a25050600190920191506108f49050565b50846001600160a01b031663bbd97187858585856040518563ffffffff1660e01b81526004018080602001806020018381038352878782818152602001925060200280828437600083820152601f01601f19169091018481038352858152602090810191508690860280828437600081840152601f19601f8201169050808301925050509650505050505050600060405180830381600087803b158015610bb057600080fd5b505af1158015610bc4573d6000803e3d6000fd5b505050505050505050565b6001546001600160a01b03163314610c185760405162461bcd60e51b8152600401808060200182810382526026815260200180611a336026913960400191505060405180910390fd5b604080517f73657441766572616765507269636555706461746544656c6179000000000000602080830191909152603a80830185905283518084039091018152605a9092019092528051910120610c6e81611821565b6040805183815290517fc226c48cee6a025ab009e01969a2e89f1ce4d455cfa2900745b2237cb0bb8d619181900360200190a15050565b60065481565b60036020526000908152604090205460ff1681565b6001546001600160a01b03163314610d095760405162461bcd60e51b8152600401808060200182810382526026815260200180611a336026913960400191505060405180910390fd5b60408051787365744973476c6f62616c53686f727444617461526561647960381b6020808301919091526001600160601b0319606086901b16603983015283151560f81b604d8301528251602e818403018152604e9092019092528051910120610d7281611821565b604080516001600160a01b0385168152831515602082015281517f362e5bba25647700de1a7562fc07672df837bef17125e07a6f79abea31ee5a48929181900390910190a1505050565b6001546001600160a01b03163314610e055760405162461bcd60e51b8152600401808060200182810382526026815260200180611a336026913960400191505060405180910390fd5b604080516539b2ba23b7bb60d11b6020808301919091526001600160601b0319606086811b8216602685015285901b16603a8301528251602e818403018152604e9092019092528051910120610e5a816115b6565b610e6381611650565b826001600160a01b031663cfad57a2836040518263ffffffff1660e01b815260040180826001600160a01b03168152602001915050600060405180830381600087803b158015610eb257600080fd5b505af1158015610ec6573d6000803e3d6000fd5b5050604080516001600160a01b0380881682528616602082015281517f53351836099c03ffc3b1727d8abd4b0222afa87d4ed76ae3102d51369ef7f7859450908190039091019150a1505050565b6001546001600160a01b03163314610f5d5760405162461bcd60e51b8152600401808060200182810382526026815260200180611a336026913960400191505060405180910390fd5b60408051777365744d61784176657261676550726963654368616e676560401b60208083019190915260388083018590528351808403909101815260589092019092528051910120610fae81611821565b6040805183815290517f21f68305d262b9ce144019f5d9f755a2dd1b5c2d35996cd4b649c285d7525cd19181900360200190a15050565b6206978081565b6001546001600160a01b031633146110355760405162461bcd60e51b8152600401808060200182810382526026815260200180611a336026913960400191505060405180910390fd5b60408051633d30cabf60e01b815260006004820181905291516001600160a01b03841692633d30cabf926024808201939182900301818387803b15801561107b57600080fd5b505af115801561108f573d6000803e3d6000fd5b5050604080516001600160a01b03851681526000602082015281517f177de4361fc37a0e8defe8ac0c685d3472789b507959897eec32350c9d2c36669450908190039091019150a150565b6001546001600160a01b031633146111235760405162461bcd60e51b8152600401808060200182810382526026815260200180611a336026913960400191505060405180910390fd5b604080516739b2ba20b236b4b760c11b6020808301919091526001600160601b0319606085901b1660288301528251601c818403018152603c9092019092528051910120611170816115b6565b61117981611650565b600180546001600160a01b0384166001600160a01b0319909116811790915560408051918252517f5a272403b402d892977df56625f4164ccaf70ca3863991c43ecfe76a6905b0a19181900360200190a15050565b6001546001600160a01b031633146112175760405162461bcd60e51b8152600401808060200182810382526026815260200180611a336026913960400191505060405180910390fd5b6001600160a01b03811661125c5760405162461bcd60e51b8152600401808060200182810382526024815260200180611b026024913960400191505060405180910390fd5b604080516739b2ba20b236b4b760c11b6020808301919091526001600160601b0319606085901b1660288301528251601c818403018152603c90920190925280519101206112a981611821565b604080516001600160a01b038416815290517fbccacda50126e9efa231593d2a9d4394d7cda7909ab2e14d2ae878ab2a306b3f9181900360200190a15050565b6001546001600160a01b031633146113325760405162461bcd60e51b8152600401808060200182810382526026815260200180611a336026913960400191505060405180910390fd5b6001600160a01b0381166113775760405162461bcd60e51b81526004018080602001828103825260228152602001806119c06022913960400191505060405180910390fd5b604080516539b2ba23b7bb60d11b6020808301919091526001600160601b0319606086811b8216602685015285901b16603a8301528251602e818403018152604e90920190925280519101206113cc81611821565b604080516001600160a01b0380861682528416602082015281517f84f5d90471bb5811423318895e49ef4de52f5a6f4dac67af85e4202410bb66a4929181900390910190a1505050565b6001546001600160a01b0316331461145f5760405162461bcd60e51b8152600401808060200182810382526026815260200180611a336026913960400191505060405180910390fd5b6001600160a01b038216600081815260036020908152604091829020805460ff1916851515908117909155825190815291517fd373464a39404e5f98fdb4b152b8ba9a094561e97e5c4b4ea11eb18cd9e6695e9281900390910190a25050565b6001546001600160a01b031633146115085760405162461bcd60e51b8152600401808060200182810382526026815260200180611a336026913960400191505060405180910390fd5b6206978081111561154a5760405162461bcd60e51b8152600401808060200182810382526025815260200180611b266025913960400191505060405180910390fd5b600254811161158a5760405162461bcd60e51b8152600401808060200182810382526031815260200180611b4b6031913960400191505060405180910390fd5b600255565b60006020819052908152604090205481565b60025481565b6001546001600160a01b031681565b6000818152602081905260409020546116005760405162461bcd60e51b815260040180806020018281038252602b815260200180611a08602b913960400191505060405180910390fd5b60008181526020819052604090205442101561164d5760405162461bcd60e51b8152600401808060200182810382526031815260200180611ad16031913960400191505060405180910390fd5b50565b60008181526020819052604090205461169a5760405162461bcd60e51b81526004018080602001828103825260268152602001806119e26026913960400191505060405180910390fd5b60008181526020818152604080832092909255815183815291517f194ed6dd5e37e2acc44a19455c3f208c4831ee695fe362d9c4ef2d316bc53aec9281900390910190a150565b600061172383836040518060400160405280601e81526020017f536166654d6174683a207375627472616374696f6e206f766572666c6f7700008152506118c3565b90505b92915050565b60008261173b57506000611726565b8282028284828161174857fe5b04146117235760405162461bcd60e51b8152600401808060200182810382526021815260200180611ab06021913960400191505060405180910390fd5b600061172383836040518060400160405280601a81526020017f536166654d6174683a206469766973696f6e206279207a65726f00000000000081525061195a565b600082820183811015611723576040805162461bcd60e51b815260206004820152601b60248201527f536166654d6174683a206164646974696f6e206f766572666c6f770000000000604482015290519081900360640190fd5b6000818152602081905260409020541561186c5760405162461bcd60e51b815260040180806020018281038252602f815260200180611a81602f913960400191505060405180910390fd5b60025461187a9042906117c7565b6000828152602081815260409182902092909255805183815290517f5fb9c0ecf7b4a28c4c480212e868f9da7f373a2ed4d23498b0be6aadf35242fb929181900390910190a150565b600081848411156119525760405162461bcd60e51b81526004018080602001828103825283818151815260200191508051906020019080838360005b838110156119175781810151838201526020016118ff565b50505050905090810190601f1680156119445780820380516001836020036101000a031916815260200191505b509250505060405180910390fd5b505050900390565b600081836119a95760405162461bcd60e51b81526020600482018181528351602484015283519092839260449091019190850190808383600083156119175781810151838201526020016118ff565b5060008385816119b557fe5b049594505050505056fe53686f727473547261636b657254696d656c6f636b3a20696e76616c696420676f7653686f727473547261636b657254696d656c6f636b3a20696e76616c6964205f616374696f6e53686f727473547261636b657254696d656c6f636b3a20616374696f6e206e6f74207369676e616c6c656453686f727473547261636b657254696d656c6f636b3a2061646d696e20666f7262696464656e53686f727473547261636b657254696d656c6f636b3a2068616e646c657220666f7262696464656e53686f727473547261636b657254696d656c6f636b3a20616374696f6e20616c7265616479207369676e616c6c6564536166654d6174683a206d756c7469706c69636174696f6e206f766572666c6f7753686f727473547261636b657254696d656c6f636b3a20616374696f6e2074696d65206e6f74207965742070617373656453686f727473547261636b657254696d656c6f636b3a20696e76616c69642061646d696e53686f727473547261636b657254696d656c6f636b3a20696e76616c69642062756666657253686f727473547261636b657254696d656c6f636b3a206275666665722063616e6e6f742062652064656372656173656453686f727473547261636b657254696d656c6f636b3a20746f6f20626967206368616e6765a264697066735822122091f32033188c4deec592f70cfef7877d03a81a4f572354e031dc749422ad7b0b64736f6c634300060c0033","linkReferences":{}},"methodIdentifiers":{"BASIS_POINTS_DIVISOR()":"126082cf","MAX_BUFFER()":"61d07569","admin()":"f851a440","averagePriceUpdateDelay()":"1ab8fe04","buffer()":"edaafe20","disableIsGlobalShortDataReady(address)":"627395eb","isHandler(address)":"46ea87af","lastUpdated(address)":"0a6f93e6","maxAveragePriceChange()":"42773c2c","pendingActions(bytes32)":"e30569e5","setAdmin(address)":"704b6c02","setAveragePriceUpdateDelay(uint256)":"33156639","setBuffer(uint256)":"adc7ea37","setGlobalShortAveragePrices(address,address[],uint256[])":"3976e566","setGov(address,address)":"51a6de0d","setHandler(address,bool)":"9cb7de4b","setIsGlobalShortDataReady(address,bool)":"2591d483","setMaxAveragePriceChange(uint256)":"2c166c41","signalSetAdmin(address)":"717cf5d6","signalSetAveragePriceUpdateDelay(uint256)":"42588a67","signalSetGov(address,address)":"996a7a1e","signalSetIsGlobalShortDataReady(address,bool)":"4882fa13","signalSetMaxAveragePriceChange(uint256)":"5c3bca36"},"id":154}