{"abi":[{"type":"function","name":"getCodeOwners","inputs":[{"name":"_referralStorage","type":"address","internalType":"contract IReferralStorage"},{"name":"_codes","type":"bytes32[]","internalType":"bytes32[]"}],"outputs":[{"name":"","type":"address[]","internalType":"address[]"}],"stateMutability":"view"}],"bytecode":{"object":"0x608060405234801561001057600080fd5b5061027c806100206000396000f3fe608060405234801561001057600080fd5b506004361061002b5760003560e01c80630f6803c014610030575b600080fd5b6100e36004803603604081101561004657600080fd5b6001600160a01b03823516919081019060408101602082013564010000000081111561007157600080fd5b82018360208201111561008357600080fd5b803590602001918460208302840111640100000000831117156100a557600080fd5b919080806020026020016040519081016040528093929190818152602001838360200280828437600092019190915250929550610133945050505050565b60408051602080825283518183015283519192839290830191858101910280838360005b8381101561011f578181015183820152602001610107565b505050509050019250505060405180910390f35b606080825167ffffffffffffffff8111801561014e57600080fd5b50604051908082528060200260200182016040528015610178578160200160208202803683370190505b50905060005b835181101561023e57600084828151811061019557fe5b60200260200101519050856001600160a01b031663c8b3c460826040518263ffffffff1660e01b81526004018082815260200191505060206040518083038186803b1580156101e357600080fd5b505afa1580156101f7573d6000803e3d6000fd5b505050506040513d602081101561020d57600080fd5b5051835184908490811061021d57fe5b6001600160a01b03909216602092830291909101909101525060010161017e565b50939250505056fea2646970667358221220b4af386d8823aacb641286fba6896eb22987f9fcc3e0dc6af765dbfc33ea5c7964736f6c634300060c0033","linkReferences":{}},"methodIdentifiers":{"getCodeOwners(address,bytes32[])":"0f6803c0"},"id":162}