{"abi":[{"type":"constructor","inputs":[{"name":"_admin","type":"address","internalType":"address"},{"name":"_buffer","type":"uint256","internalType":"uint256"},{"name":"_tokenManager","type":"address","internalType":"address"},{"name":"_mintReceiver","type":"address","internalType":"address"},{"name":"_glpManager","type":"address","internalType":"address"},{"name":"_rewardRouter","type":"address","internalType":"address"},{"name":"_maxTokenSupply","type":"uint256","internalType":"uint256"},{"name":"_marginFeeBasisPoints","type":"uint256","internalType":"uint256"},{"name":"_maxMarginFeeBasisPoints","type":"uint256","internalType":"uint256"}],"stateMutability":"nonpayable"},{"type":"function","name":"MAX_BUFFER","inputs":[],"outputs":[{"name":"","type":"uint256","internalType":"uint256"}],"stateMutability":"view"},{"type":"function","name":"MAX_FUNDING_RATE_FACTOR","inputs":[],"outputs":[{"name":"","type":"uint256","internalType":"uint256"}],"stateMutability":"view"},{"type":"function","name":"MAX_LEVERAGE_VALIDATION","inputs":[],"outputs":[{"name":"","type":"uint256","internalType":"uint256"}],"stateMutability":"view"},{"type":"function","name":"PRICE_PRECISION","inputs":[],"outputs":[{"name":"","type":"uint256","internalType":"uint256"}],"stateMutability":"view"},{"type":"function","name":"admin","inputs":[],"outputs":[{"name":"","type":"address","internalType":"address"}],"stateMutability":"view"},{"type":"function","name":"approve","inputs":[{"name":"_token","type":"address","internalType":"address"},{"name":"_spender","type":"address","internalType":"address"},{"name":"_amount","type":"uint256","internalType":"uint256"}],"outputs":[],"stateMutability":"nonpayable"},{"type":"function","name":"batchSetBonusRewards","inputs":[{"name":"_vester","type":"address","internalType":"address"},{"name":"_accounts","type":"address[]","internalType":"address[]"},{"name":"_amounts","type":"uint256[]","internalType":"uint256[]"}],"outputs":[],"stateMutability":"nonpayable"},{"type":"function","name":"batchWithdrawFees","inputs":[{"name":"_vault","type":"address","internalType":"address"},{"name":"_tokens","type":"address[]","internalType":"address[]"}],"outputs":[],"stateMutability":"nonpayable"},{"type":"function","name":"buffer","inputs":[],"outputs":[{"name":"","type":"uint256","internalType":"uint256"}],"stateMutability":"view"},{"type":"function","name":"cancelAction","inputs":[{"name":"_action","type":"bytes32","internalType":"bytes32"}],"outputs":[],"stateMutability":"nonpayable"},{"type":"function","name":"disableLeverage","inputs":[{"name":"_vault","type":"address","internalType":"address"}],"outputs":[],"stateMutability":"nonpayable"},{"type":"function","name":"enableLeverage","inputs":[{"name":"_vault","type":"address","internalType":"address"}],"outputs":[],"stateMutability":"nonpayable"},{"type":"function","name":"glpManager","inputs":[],"outputs":[{"name":"","type":"address","internalType":"address"}],"stateMutability":"view"},{"type":"function","name":"govSetCodeOwner","inputs":[{"name":"_referralStorage","type":"address","internalType":"address"},{"name":"_code","type":"bytes32","internalType":"bytes32"},{"name":"_newAccount","type":"address","internalType":"address"}],"outputs":[],"stateMutability":"nonpayable"},{"type":"function","name":"initGlpManager","inputs":[],"outputs":[],"stateMutability":"nonpayable"},{"type":"function","name":"initRewardRouter","inputs":[],"outputs":[],"stateMutability":"nonpayable"},{"type":"function","name":"isHandler","inputs":[{"name":"","type":"address","internalType":"address"}],"outputs":[{"name":"","type":"bool","internalType":"bool"}],"stateMutability":"view"},{"type":"function","name":"isKeeper","inputs":[{"name":"","type":"address","internalType":"address"}],"outputs":[{"name":"","type":"bool","internalType":"bool"}],"stateMutability":"view"},{"type":"function","name":"marginFeeBasisPoints","inputs":[],"outputs":[{"name":"","type":"uint256","internalType":"uint256"}],"stateMutability":"view"},{"type":"function","name":"maxMarginFeeBasisPoints","inputs":[],"outputs":[{"name":"","type":"uint256","internalType":"uint256"}],"stateMutability":"view"},{"type":"function","name":"maxTokenSupply","inputs":[],"outputs":[{"name":"","type":"uint256","internalType":"uint256"}],"stateMutability":"view"},{"type":"function","name":"mintReceiver","inputs":[],"outputs":[{"name":"","type":"address","internalType":"address"}],"stateMutability":"view"},{"type":"function","name":"pendingActions","inputs":[{"name":"","type":"bytes32","internalType":"bytes32"}],"outputs":[{"name":"","type":"uint256","internalType":"uint256"}],"stateMutability":"view"},{"type":"function","name":"processMint","inputs":[{"name":"_token","type":"address","internalType":"address"},{"name":"_receiver","type":"address","internalType":"address"},{"name":"_amount","type":"uint256","internalType":"uint256"}],"outputs":[],"stateMutability":"nonpayable"},{"type":"function","name":"redeemUsdg","inputs":[{"name":"_vault","type":"address","internalType":"address"},{"name":"_token","type":"address","internalType":"address"},{"name":"_amount","type":"uint256","internalType":"uint256"}],"outputs":[],"stateMutability":"nonpayable"},{"type":"function","name":"removeAdmin","inputs":[{"name":"_token","type":"address","internalType":"address"},{"name":"_account","type":"address","internalType":"address"}],"outputs":[],"stateMutability":"nonpayable"},{"type":"function","name":"rewardRouter","inputs":[],"outputs":[{"name":"","type":"address","internalType":"address"}],"stateMutability":"view"},{"type":"function","name":"setAdmin","inputs":[{"name":"_admin","type":"address","internalType":"address"}],"outputs":[],"stateMutability":"nonpayable"},{"type":"function","name":"setBuffer","inputs":[{"name":"_buffer","type":"uint256","internalType":"uint256"}],"outputs":[],"stateMutability":"nonpayable"},{"type":"function","name":"setContractHandler","inputs":[{"name":"_handler","type":"address","internalType":"address"},{"name":"_isActive","type":"bool","internalType":"bool"}],"outputs":[],"stateMutability":"nonpayable"},{"type":"function","name":"setExternalAdmin","inputs":[{"name":"_target","type":"address","internalType":"address"},{"name":"_admin","type":"address","internalType":"address"}],"outputs":[],"stateMutability":"nonpayable"},{"type":"function","name":"setFees","inputs":[{"name":"_vault","type":"address","internalType":"address"},{"name":"_taxBasisPoints","type":"uint256","internalType":"uint256"},{"name":"_stableTaxBasisPoints","type":"uint256","internalType":"uint256"},{"name":"_mintBurnFeeBasisPoints","type":"uint256","internalType":"uint256"},{"name":"_swapFeeBasisPoints","type":"uint256","internalType":"uint256"},{"name":"_stableSwapFeeBasisPoints","type":"uint256","internalType":"uint256"},{"name":"_marginFeeBasisPoints","type":"uint256","internalType":"uint256"},{"name":"_liquidationFeeUsd","type":"uint256","internalType":"uint256"},{"name":"_minProfitTime","type":"uint256","internalType":"uint256"},{"name":"_hasDynamicFees","type":"bool","internalType":"bool"}],"outputs":[],"stateMutability":"nonpayable"},{"type":"function","name":"setFundingRate","inputs":[{"name":"_vault","type":"address","internalType":"address"},{"name":"_fundingInterval","type":"uint256","internalType":"uint256"},{"name":"_fundingRateFactor","type":"uint256","internalType":"uint256"},{"name":"_stableFundingRateFactor","type":"uint256","internalType":"uint256"}],"outputs":[],"stateMutability":"nonpayable"},{"type":"function","name":"setGlpCooldownDuration","inputs":[{"name":"_cooldownDuration","type":"uint256","internalType":"uint256"}],"outputs":[],"stateMutability":"nonpayable"},{"type":"function","name":"setGov","inputs":[{"name":"_target","type":"address","internalType":"address"},{"name":"_gov","type":"address","internalType":"address"}],"outputs":[],"stateMutability":"nonpayable"},{"type":"function","name":"setHandler","inputs":[{"name":"_target","type":"address","internalType":"address"},{"name":"_handler","type":"address","internalType":"address"},{"name":"_isActive","type":"bool","internalType":"bool"}],"outputs":[],"stateMutability":"nonpayable"},{"type":"function","name":"setInPrivateLiquidationMode","inputs":[{"name":"_vault","type":"address","internalType":"address"},{"name":"_inPrivateLiquidationMode","type":"bool","internalType":"bool"}],"outputs":[],"stateMutability":"nonpayable"},{"type":"function","name":"setInPrivateTransferMode","inputs":[{"name":"_token","type":"address","internalType":"address"},{"name":"_inPrivateTransferMode","type":"bool","internalType":"bool"}],"outputs":[],"stateMutability":"nonpayable"},{"type":"function","name":"setIsLeverageEnabled","inputs":[{"name":"_vault","type":"address","internalType":"address"},{"name":"_isLeverageEnabled","type":"bool","internalType":"bool"}],"outputs":[],"stateMutability":"nonpayable"},{"type":"function","name":"setIsSwapEnabled","inputs":[{"name":"_vault","type":"address","internalType":"address"},{"name":"_isSwapEnabled","type":"bool","internalType":"bool"}],"outputs":[],"stateMutability":"nonpayable"},{"type":"function","name":"setKeeper","inputs":[{"name":"_keeper","type":"address","internalType":"address"},{"name":"_isActive","type":"bool","internalType":"bool"}],"outputs":[],"stateMutability":"nonpayable"},{"type":"function","name":"setLiquidator","inputs":[{"name":"_vault","type":"address","internalType":"address"},{"name":"_liquidator","type":"address","internalType":"address"},{"name":"_isActive","type":"bool","internalType":"bool"}],"outputs":[],"stateMutability":"nonpayable"},{"type":"function","name":"setMarginFeeBasisPoints","inputs":[{"name":"_marginFeeBasisPoints","type":"uint256","internalType":"uint256"},{"name":"_maxMarginFeeBasisPoints","type":"uint256","internalType":"uint256"}],"outputs":[],"stateMutability":"nonpayable"},{"type":"function","name":"setMaxGasPrice","inputs":[{"name":"_vault","type":"address","internalType":"address"},{"name":"_maxGasPrice","type":"uint256","internalType":"uint256"}],"outputs":[],"stateMutability":"nonpayable"},{"type":"function","name":"setMaxGlobalShortSize","inputs":[{"name":"_vault","type":"address","internalType":"address"},{"name":"_token","type":"address","internalType":"address"},{"name":"_amount","type":"uint256","internalType":"uint256"}],"outputs":[],"stateMutability":"nonpayable"},{"type":"function","name":"setMaxLeverage","inputs":[{"name":"_vault","type":"address","internalType":"address"},{"name":"_maxLeverage","type":"uint256","internalType":"uint256"}],"outputs":[],"stateMutability":"nonpayable"},{"type":"function","name":"setPriceFeed","inputs":[{"name":"_vault","type":"address","internalType":"address"},{"name":"_priceFeed","type":"address","internalType":"address"}],"outputs":[],"stateMutability":"nonpayable"},{"type":"function","name":"setReferrerTier","inputs":[{"name":"_referralStorage","type":"address","internalType":"address"},{"name":"_referrer","type":"address","internalType":"address"},{"name":"_tierId","type":"uint256","internalType":"uint256"}],"outputs":[],"stateMutability":"nonpayable"},{"type":"function","name":"setShortsTrackerAveragePriceWeight","inputs":[{"name":"_shortsTrackerAveragePriceWeight","type":"uint256","internalType":"uint256"}],"outputs":[],"stateMutability":"nonpayable"},{"type":"function","name":"setShouldToggleIsLeverageEnabled","inputs":[{"name":"_shouldToggleIsLeverageEnabled","type":"bool","internalType":"bool"}],"outputs":[],"stateMutability":"nonpayable"},{"type":"function","name":"setSwapFees","inputs":[{"name":"_vault","type":"address","internalType":"address"},{"name":"_taxBasisPoints","type":"uint256","internalType":"uint256"},{"name":"_stableTaxBasisPoints","type":"uint256","internalType":"uint256"},{"name":"_mintBurnFeeBasisPoints","type":"uint256","internalType":"uint256"},{"name":"_swapFeeBasisPoints","type":"uint256","internalType":"uint256"},{"name":"_stableSwapFeeBasisPoints","type":"uint256","internalType":"uint256"}],"outputs":[],"stateMutability":"nonpayable"},{"type":"function","name":"setTier","inputs":[{"name":"_referralStorage","type":"address","internalType":"address"},{"name":"_tierId","type":"uint256","internalType":"uint256"},{"name":"_totalRebate","type":"uint256","internalType":"uint256"},{"name":"_discountShare","type":"uint256","internalType":"uint256"}],"outputs":[],"stateMutability":"nonpayable"},{"type":"function","name":"setTokenConfig","inputs":[{"name":"_vault","type":"address","internalType":"address"},{"name":"_token","type":"address","internalType":"address"},{"name":"_tokenWeight","type":"uint256","internalType":"uint256"},{"name":"_minProfitBps","type":"uint256","internalType":"uint256"},{"name":"_maxUsdgAmount","type":"uint256","internalType":"uint256"},{"name":"_bufferAmount","type":"uint256","internalType":"uint256"},{"name":"_usdgAmount","type":"uint256","internalType":"uint256"}],"outputs":[],"stateMutability":"nonpayable"},{"type":"function","name":"setUsdgAmounts","inputs":[{"name":"_vault","type":"address","internalType":"address"},{"name":"_tokens","type":"address[]","internalType":"address[]"},{"name":"_usdgAmounts","type":"uint256[]","internalType":"uint256[]"}],"outputs":[],"stateMutability":"nonpayable"},{"type":"function","name":"setVaultUtils","inputs":[{"name":"_vault","type":"address","internalType":"address"},{"name":"_vaultUtils","type":"address","internalType":"contract IVaultUtils"}],"outputs":[],"stateMutability":"nonpayable"},{"type":"function","name":"shouldToggleIsLeverageEnabled","inputs":[],"outputs":[{"name":"","type":"bool","internalType":"bool"}],"stateMutability":"view"},{"type":"function","name":"signalApprove","inputs":[{"name":"_token","type":"address","internalType":"address"},{"name":"_spender","type":"address","internalType":"address"},{"name":"_amount","type":"uint256","internalType":"uint256"}],"outputs":[],"stateMutability":"nonpayable"},{"type":"function","name":"signalMint","inputs":[{"name":"_token","type":"address","internalType":"address"},{"name":"_receiver","type":"address","internalType":"address"},{"name":"_amount","type":"uint256","internalType":"uint256"}],"outputs":[],"stateMutability":"nonpayable"},{"type":"function","name":"signalRedeemUsdg","inputs":[{"name":"_vault","type":"address","internalType":"address"},{"name":"_token","type":"address","internalType":"address"},{"name":"_amount","type":"uint256","internalType":"uint256"}],"outputs":[],"stateMutability":"nonpayable"},{"type":"function","name":"signalSetGov","inputs":[{"name":"_target","type":"address","internalType":"address"},{"name":"_gov","type":"address","internalType":"address"}],"outputs":[],"stateMutability":"nonpayable"},{"type":"function","name":"signalSetHandler","inputs":[{"name":"_target","type":"address","internalType":"address"},{"name":"_handler","type":"address","internalType":"address"},{"name":"_isActive","type":"bool","internalType":"bool"}],"outputs":[],"stateMutability":"nonpayable"},{"type":"function","name":"signalSetPriceFeed","inputs":[{"name":"_vault","type":"address","internalType":"address"},{"name":"_priceFeed","type":"address","internalType":"address"}],"outputs":[],"stateMutability":"nonpayable"},{"type":"function","name":"signalVaultSetTokenConfig","inputs":[{"name":"_vault","type":"address","internalType":"address"},{"name":"_token","type":"address","internalType":"address"},{"name":"_tokenDecimals","type":"uint256","internalType":"uint256"},{"name":"_tokenWeight","type":"uint256","internalType":"uint256"},{"name":"_minProfitBps","type":"uint256","internalType":"uint256"},{"name":"_maxUsdgAmount","type":"uint256","internalType":"uint256"},{"name":"_isStable","type":"bool","internalType":"bool"},{"name":"_isShortable","type":"bool","internalType":"bool"}],"outputs":[],"stateMutability":"nonpayable"},{"type":"function","name":"signalWithdrawToken","inputs":[{"name":"_target","type":"address","internalType":"address"},{"name":"_token","type":"address","internalType":"address"},{"name":"_receiver","type":"address","internalType":"address"},{"name":"_amount","type":"uint256","internalType":"uint256"}],"outputs":[],"stateMutability":"nonpayable"},{"type":"function","name":"tokenManager","inputs":[],"outputs":[{"name":"","type":"address","internalType":"address"}],"stateMutability":"view"},{"type":"function","name":"transferIn","inputs":[{"name":"_sender","type":"address","internalType":"address"},{"name":"_token","type":"address","internalType":"address"},{"name":"_amount","type":"uint256","internalType":"uint256"}],"outputs":[],"stateMutability":"nonpayable"},{"type":"function","name":"updateUsdgSupply","inputs":[{"name":"usdgAmount","type":"uint256","internalType":"uint256"}],"outputs":[],"stateMutability":"nonpayable"},{"type":"function","name":"vaultSetTokenConfig","inputs":[{"name":"_vault","type":"address","internalType":"address"},{"name":"_token","type":"address","internalType":"address"},{"name":"_tokenDecimals","type":"uint256","internalType":"uint256"},{"name":"_tokenWeight","type":"uint256","internalType":"uint256"},{"name":"_minProfitBps","type":"uint256","internalType":"uint256"},{"name":"_maxUsdgAmount","type":"uint256","internalType":"uint256"},{"name":"_isStable","type":"bool","internalType":"bool"},{"name":"_isShortable","type":"bool","internalType":"bool"}],"outputs":[],"stateMutability":"nonpayable"},{"type":"function","name":"withdrawFees","inputs":[{"name":"_vault","type":"address","internalType":"address"},{"name":"_token","type":"address","internalType":"address"},{"name":"_receiver","type":"address","internalType":"address"}],"outputs":[],"stateMutability":"nonpayable"},{"type":"function","name":"withdrawToken","inputs":[{"name":"_target","type":"address","internalType":"address"},{"name":"_token","type":"address","internalType":"address"},{"name":"_receiver","type":"address","internalType":"address"},{"name":"_amount","type":"uint256","internalType":"uint256"}],"outputs":[],"stateMutability":"nonpayable"},{"type":"event","name":"ClearAction","inputs":[{"name":"action","type":"bytes32","indexed":false,"internalType":"bytes32"}],"anonymous":false},{"type":"event","name":"SignalApprove","inputs":[{"name":"token","type":"address","indexed":false,"internalType":"address"},{"name":"spender","type":"address","indexed":false,"internalType":"address"},{"name":"amount","type":"uint256","indexed":false,"internalType":"uint256"},{"name":"action","type":"bytes32","indexed":false,"internalType":"bytes32"}],"anonymous":false},{"type":"event","name":"SignalMint","inputs":[{"name":"token","type":"address","indexed":false,"internalType":"address"},{"name":"receiver","type":"address","indexed":false,"internalType":"address"},{"name":"amount","type":"uint256","indexed":false,"internalType":"uint256"},{"name":"action","type":"bytes32","indexed":false,"internalType":"bytes32"}],"anonymous":false},{"type":"event","name":"SignalPendingAction","inputs":[{"name":"action","type":"bytes32","indexed":false,"internalType":"bytes32"}],"anonymous":false},{"type":"event","name":"SignalRedeemUsdg","inputs":[{"name":"vault","type":"address","indexed":false,"internalType":"address"},{"name":"token","type":"address","indexed":false,"internalType":"address"},{"name":"amount","type":"uint256","indexed":false,"internalType":"uint256"}],"anonymous":false},{"type":"event","name":"SignalSetGov","inputs":[{"name":"target","type":"address","indexed":false,"internalType":"address"},{"name":"gov","type":"address","indexed":false,"internalType":"address"},{"name":"action","type":"bytes32","indexed":false,"internalType":"bytes32"}],"anonymous":false},{"type":"event","name":"SignalSetHandler","inputs":[{"name":"target","type":"address","indexed":false,"internalType":"address"},{"name":"handler","type":"address","indexed":false,"internalType":"address"},{"name":"isActive","type":"bool","indexed":false,"internalType":"bool"},{"name":"action","type":"bytes32","indexed":false,"internalType":"bytes32"}],"anonymous":false},{"type":"event","name":"SignalSetPriceFeed","inputs":[{"name":"vault","type":"address","indexed":false,"internalType":"address"},{"name":"priceFeed","type":"address","indexed":false,"internalType":"address"},{"name":"action","type":"bytes32","indexed":false,"internalType":"bytes32"}],"anonymous":false},{"type":"event","name":"SignalVaultSetTokenConfig","inputs":[{"name":"vault","type":"address","indexed":false,"internalType":"address"},{"name":"token","type":"address","indexed":false,"internalType":"address"},{"name":"tokenDecimals","type":"uint256","indexed":false,"internalType":"uint256"},{"name":"tokenWeight","type":"uint256","indexed":false,"internalType":"uint256"},{"name":"minProfitBps","type":"uint256","indexed":false,"internalType":"uint256"},{"name":"maxUsdgAmount","type":"uint256","indexed":false,"internalType":"uint256"},{"name":"isStable","type":"bool","indexed":false,"internalType":"bool"},{"name":"isShortable","type":"bool","indexed":false,"internalType":"bool"}],"anonymous":false},{"type":"event","name":"SignalWithdrawToken","inputs":[{"name":"target","type":"address","indexed":false,"internalType":"address"},{"name":"token","type":"address","indexed":false,"internalType":"address"},{"name":"receiver","type":"address","indexed":false,"internalType":"address"},{"name":"amount","type":"uint256","indexed":false,"internalType":"uint256"},{"name":"action","type":"bytes32","indexed":false,"internalType":"bytes32"}],"anonymous":false}],"bytecode":{"object":"0x60806040523480156200001157600080fd5b5060405162005e7e38038062005e7e83398181016040526101208110156200003857600080fd5b508051602082015160408301516060840151608085015160a086015160c087015160e08801516101009098015196979596949593949293919290919062069780881115620000cd576040805162461bcd60e51b815260206004820152601960248201527f54696d656c6f636b3a20696e76616c6964205f62756666657200000000000000604482015290519081900360640190fd5b600180546001600160a01b03199081166001600160a01b039b8c16179091556000988955600280548216988b1698909817909755600380548816968a169690961790955560048054871694891694909417909355600580549095169190961617909255600693909355600755600891909155615d2e9081906200015090396000f3fe608060405234801561001057600080fd5b50600436106104115760003560e01c8063781cc3d311610220578063c142940a11610130578063e1f21c67116100b8578063e4652f4911610087578063e4652f49146110d7578063e8ae22711461110d578063edaafe20146111be578063f851a440146111c6578063fa6db1bc146111ce57610411565b8063e1f21c6714611008578063e21b45911461103e578063e30569e514611061578063e3cbeb0f1461107e57610411565b8063d3c87bbb116100ff578063d3c87bbb14610ed9578063da76231614610eff578063db1c844114610f43578063dce6e18d14610f9c578063df3a66d914610fd257610411565b8063c142940a14610e3f578063c7bb26a014610e75578063cd2b123014610e7d578063d1b9e85314610eab57610411565b80638e34c98f116101b35780639b53ad22116101825780639b53ad2214610c83578063adc7ea3714610db6578063afd14deb14610dd3578063bc476dfd14610ddb578063bc8a8ab914610e0957610411565b80638e34c98f14610c2657806395082d2514610c45578063996a7a1e14610c4d578063996e2bc914610c7b57610411565b806381774b3d116101ef57806381774b3d14610ba757806386803c7214610bc45780638a39735a14610bf25780638bf22c4614610bfa57610411565b8063781cc3d314610b285780637b6f775a14610b455780637e43c62d14610b7157806380894d6214610b7957610411565b8063318bc689116103265780635a3bb989116102ae5780636d63c1d01161027d5780636d63c1d014610a175780636e5227d414610a3d578063704b6c0214610a9e57806370ac0a9314610ac457806376e1128614610afa57610411565b80635a3bb989146109c45780635b05348b146109cc57806361d07569146109e95780636ba42aaa146109f157610411565b80634f5f6b5e116102f55780634f5f6b5e1461090b57806350f7c2041461092857806351a6de0d14610930578063558182941461095e57806355ef13951461099657610411565b8063318bc6891461086957806346ea87af1461087157806347de43e2146108975780634cd23f3b146108cf57610411565b8063204bbc54116103a957806323aaad121161037857806323aaad12146107a957806324ccbe30146107c5578063268959e5146107fd5780632a709b141461082b5780632ba3725a1461084f57610411565b8063204bbc54146106d157806321754d9e1461070757806321bd059214610743578063227f03eb1461077157610411565b80630e9587f3116103e55780630e9587f3146106055780631154e8081461063d578063117cf20414610675578063185051c1146106a357610411565b80629a698e146104165780630191c2371461054b57806309cc9a08146105815780630e0dc426146105b7575b600080fd5b6105496004803603606081101561042c57600080fd5b6001600160a01b038235169190810190604081016020820135600160201b81111561045657600080fd5b82018360208201111561046857600080fd5b803590602001918460208302840111600160201b8311171561048957600080fd5b9190808060200260200160405190810160405280939291908181526020018383602002808284376000920191909152509295949360208101935035915050600160201b8111156104d857600080fd5b8201836020820111156104ea57600080fd5b803590602001918460208302840111600160201b8311171561050b57600080fd5b9190808060200260200160405190810160405280939291908181526020018383602002808284376000920191909152509295506111d6945050505050565b005b6105496004803603606081101561056157600080fd5b506001600160a01b03813581169160208101359091169060400135611436565b6105496004803603606081101561059757600080fd5b506001600160a01b03813581169160208101359091169060400135611534565b610549600480360360e08110156105cd57600080fd5b506001600160a01b03813581169160208101359091169060408101359060608101359060808101359060a08101359060c00135611633565b6105496004803603606081101561061b57600080fd5b506001600160a01b038135811691602081013582169160409091013516611aac565b6105496004803603606081101561065357600080fd5b506001600160a01b038135811691602081013590911690604001351515611b8a565b6105496004803603604081101561068b57600080fd5b506001600160a01b0381351690602001351515611cbb565b610549600480360360408110156106b957600080fd5b506001600160a01b0381351690602001351515611da0565b610549600480360360608110156106e757600080fd5b506001600160a01b03813581169160208101359160409091013516611e18565b6105496004803603608081101561071d57600080fd5b506001600160a01b03813581169160208101358216916040820135169060600135611ef0565b6105496004803603604081101561075957600080fd5b506001600160a01b038135169060200135151561203b565b6105496004803603608081101561078757600080fd5b506001600160a01b0381351690602081013590604081013590606001356120d0565b6107b1612225565b604080519115158252519081900360200190f35b610549600480360360608110156107db57600080fd5b506001600160a01b03813581169160208101359091169060400135151561222e565b6105496004803603604081101561081357600080fd5b506001600160a01b0381358116916020013516612337565b6108336123d3565b604080516001600160a01b039092168252519081900360200190f35b6108576123e2565b60408051918252519081900360200190f35b6108576123e9565b6107b16004803603602081101561088757600080fd5b50356001600160a01b03166123ef565b610549600480360360608110156108ad57600080fd5b506001600160a01b038135811691602081013590911690604001351515612404565b610549600480360360808110156108e557600080fd5b506001600160a01b038135811691602081013582169160408201351690606001356124aa565b6105496004803603602081101561092157600080fd5b50356125c5565b610857612671565b6105496004803603604081101561094657600080fd5b506001600160a01b0381358116916020013516612677565b6105496004803603608081101561097457600080fd5b506001600160a01b038135169060208101359060408101359060600135612771565b610549600480360360408110156109ac57600080fd5b506001600160a01b0381358116916020013516612848565b610833612942565b610549600480360360208110156109e257600080fd5b5035612951565b610857612a29565b6107b160048036036020811015610a0757600080fd5b50356001600160a01b0316612a30565b61054960048036036020811015610a2d57600080fd5b50356001600160a01b0316612a45565b6105496004803603610140811015610a5457600080fd5b506001600160a01b038135169060208101359060408101359060608101359060808101359060a08101359060c08101359060e0810135906101008101359061012001351515612efb565b61054960048036036020811015610ab457600080fd5b50356001600160a01b031661302b565b61054960048036036060811015610ada57600080fd5b506001600160a01b0381358116916020810135909116906040013561309a565b61054960048036036040811015610b1057600080fd5b506001600160a01b0381358116916020013516613498565b61054960048036036020811015610b3e57600080fd5b5035613597565b61054960048036036040811015610b5b57600080fd5b506001600160a01b0381351690602001356135f0565b6105496136da565b61054960048036036040811015610b8f57600080fd5b506001600160a01b038135811691602001351661399e565b61054960048036036020811015610bbd57600080fd5b5035613a94565b61054960048036036040811015610bda57600080fd5b506001600160a01b0381351690602001351515613dc5565b610857613e5a565b61054960048036036040811015610c1057600080fd5b506001600160a01b038135169060200135613e5f565b61054960048036036020811015610c3c57600080fd5b50351515613f42565b610857613fbc565b61054960048036036040811015610c6357600080fd5b506001600160a01b0381358116916020013516613fcd565b6108576140be565b61054960048036036060811015610c9957600080fd5b6001600160a01b038235169190810190604081016020820135600160201b811115610cc357600080fd5b820183602082011115610cd557600080fd5b803590602001918460208302840111600160201b83111715610cf657600080fd5b9190808060200260200160405190810160405280939291908181526020018383602002808284376000920191909152509295949360208101935035915050600160201b811115610d4557600080fd5b820183602082011115610d5757600080fd5b803590602001918460208302840111600160201b83111715610d7857600080fd5b9190808060200260200160405190810160405280939291908181526020018383602002808284376000920191909152509295506140c4945050505050565b61054960048036036020811015610dcc57600080fd5b50356141f8565b6105496142e2565b61054960048036036040811015610df157600080fd5b506001600160a01b0381358116916020013516614538565b61054960048036036060811015610e1f57600080fd5b506001600160a01b038135811691602081013590911690604001356145d4565b61054960048036036060811015610e5557600080fd5b506001600160a01b03813581169160208101359091169060400135614690565b610833614768565b61054960048036036040811015610e9357600080fd5b506001600160a01b0381351690602001351515614777565b61054960048036036040811015610ec157600080fd5b506001600160a01b0381351690602001351515614826565b61054960048036036020811015610eef57600080fd5b50356001600160a01b031661489e565b610549600480360360c0811015610f1557600080fd5b506001600160a01b038135169060208101359060408101359060608101359060808101359060a00135614bd8565b6105496004803603610100811015610f5a57600080fd5b506001600160a01b03813581169160208101359091169060408101359060608101359060808101359060a08101359060c081013515159060e001351515614e49565b61054960048036036060811015610fb257600080fd5b506001600160a01b03813581169160208101359091169060400135614fa6565b61054960048036036060811015610fe857600080fd5b506001600160a01b038135811691602081013590911690604001356150a8565b6105496004803603606081101561101e57600080fd5b506001600160a01b0381358116916020810135909116906040013561514c565b6105496004803603604081101561105457600080fd5b5080359060200135615281565b6108576004803603602081101561107757600080fd5b50356152f3565b610549600480360361010081101561109557600080fd5b506001600160a01b03813581169160208101359091169060408101359060608101359060808101359060a08101359060c081013515159060e001351515615305565b610549600480360360608110156110ed57600080fd5b506001600160a01b0381358116916020810135909116906040013561548a565b6105496004803603604081101561112357600080fd5b6001600160a01b038235169190810190604081016020820135600160201b81111561114d57600080fd5b82018360208201111561115f57600080fd5b803590602001918460208302840111600160201b8311171561118057600080fd5b919080806020026020016040519081016040528093929190818152602001838360200280828437600092019190915250929550615530945050505050565b61085761566c565b610833615672565b610833615681565b6001546001600160a01b03163314806111fe5750336000908152600b602052604090205460ff165b806112185750336000908152600c602052604090205460ff165b611257576040805162461bcd60e51b81526020600482015260136024820152600080516020615c8e833981519152604482015290519081900360640190fd5b80518251146112ad576040805162461bcd60e51b815260206004820152601960248201527f54696d656c6f636b3a20696e76616c6964206c656e6774687300000000000000604482015290519081900360640190fd5b60408051639cb7de4b60e01b81523060048201526001602482015290516001600160a01b03851691639cb7de4b91604480830192600092919082900301818387803b1580156112fb57600080fd5b505af115801561130f573d6000803e3d6000fd5b5050505060005b82518110156113cc57600083828151811061132d57fe5b60200260200101519050600083838151811061134557fe5b60200260200101519050856001600160a01b03166341f2272483836040518363ffffffff1660e01b815260040180836001600160a01b0316815260200182815260200192505050600060405180830381600087803b1580156113a657600080fd5b505af11580156113ba573d6000803e3d6000fd5b50506001909401935061131692505050565b5060408051639cb7de4b60e01b815230600482015260006024820181905291516001600160a01b03861692639cb7de4b926044808201939182900301818387803b15801561141957600080fd5b505af115801561142d573d6000803e3d6000fd5b50505050505050565b6001546001600160a01b03163314611483576040805162461bcd60e51b81526020600482015260136024820152600080516020615c8e833981519152604482015290519081900360640190fd5b604080516972656465656d5573646760b01b6020808301919091526001600160601b0319606087811b8216602a85015286901b16603e830152605280830185905283518084039091018152607290920190925280519101206114e481615690565b604080516001600160a01b0380871682528516602082015280820184905290517fe6bd553b6ef21f3a22ebc877b3aaedc30fe15826b8156d4e8c8b373ebf11d78b9181900360600190a150505050565b6001546001600160a01b03163314611581576040805162461bcd60e51b81526020600482015260136024820152600080516020615c8e833981519152604482015290519081900360640190fd5b60408051631b5a5b9d60e21b6020808301919091526001600160601b0319606087811b8216602485015286901b166038830152604c80830185905283518084039091018152606c90920190925280519101206115dc81615690565b604080516001600160a01b038087168252851660208201528082018490526060810183905290517f23d37bec99db82564427c9bbfe48ad7434bccf413a40fd357fb838c90a0d68289181900360800190a150505050565b6001546001600160a01b031633148061165b5750336000908152600b602052604090205460ff165b806116755750336000908152600c602052604090205460ff165b6116b4576040805162461bcd60e51b81526020600482015260136024820152600080516020615c8e833981519152604482015290519081900360640190fd5b6101f484111561170b576040805162461bcd60e51b815260206004820152601f60248201527f54696d656c6f636b3a20696e76616c6964205f6d696e50726f66697442707300604482015290519081900360640190fd5b60408051630daf9c2160e41b81526001600160a01b0388811660048301529151899283169163daf9c210916024808301926020929190829003018186803b15801561175557600080fd5b505afa158015611769573d6000803e3d6000fd5b505050506040513d602081101561177f57600080fd5b50516117bc5760405162461bcd60e51b8152600401808060200182810382526023815260200180615c236023913960400191505060405180910390fd5b6000816001600160a01b0316638ee573ac896040518263ffffffff1660e01b815260040180826001600160a01b0316815260200191505060206040518083038186803b15801561180b57600080fd5b505afa15801561181f573d6000803e3d6000fd5b505050506040513d602081101561183557600080fd5b5051604080516342b60b0360e01b81526001600160a01b038b811660048301529151929350600092918516916342b60b0391602480820192602092909190829003018186803b15801561188757600080fd5b505afa15801561189b573d6000803e3d6000fd5b505050506040513d60208110156118b157600080fd5b50516040805163db3555fb60e01b81526001600160a01b038c8116600483015291519293506000929186169163db3555fb91602480820192602092909190829003018186803b15801561190357600080fd5b505afa158015611917573d6000803e3d6000fd5b505050506040513d602081101561192d57600080fd5b505160408051633c5a6e3560e01b81526001600160a01b038d8116600483015260248201879052604482018d9052606482018c9052608482018b905285151560a483015283151560c48301529151929350908d1691633c5a6e359160e48082019260009290919082900301818387803b1580156119a957600080fd5b505af11580156119bd573d6000803e3d6000fd5b505050508a6001600160a01b0316638585f4d28b886040518363ffffffff1660e01b815260040180836001600160a01b0316815260200182815260200192505050600060405180830381600087803b158015611a1857600080fd5b505af1158015611a2c573d6000803e3d6000fd5b505050508a6001600160a01b031663d66b000d8b876040518363ffffffff1660e01b815260040180836001600160a01b0316815260200182815260200192505050600060405180830381600087803b158015611a8757600080fd5b505af1158015611a9b573d6000803e3d6000fd5b505050505050505050505050505050565b6001546001600160a01b03163314611af9576040805162461bcd60e51b81526020600482015260136024820152600080516020615c8e833981519152604482015290519081900360640190fd5b826001600160a01b031663f255527883836040518363ffffffff1660e01b815260040180836001600160a01b03168152602001826001600160a01b0316815260200192505050602060405180830381600087803b158015611b5957600080fd5b505af1158015611b6d573d6000803e3d6000fd5b505050506040513d6020811015611b8357600080fd5b5050505050565b6001546001600160a01b03163314611bd7576040805162461bcd60e51b81526020600482015260136024820152600080516020615c8e833981519152604482015290519081900360640190fd5b604080516939b2ba2430b7323632b960b11b6020808301919091526001600160601b0319606087811b8216602a85015286901b16603e83015283151560f81b60528301528251603381840301815260539092019092528051910120611c3b81615734565b611c44816157e0565b836001600160a01b0316639cb7de4b84846040518363ffffffff1660e01b815260040180836001600160a01b03168152602001821515815260200192505050600060405180830381600087803b158015611c9d57600080fd5b505af1158015611cb1573d6000803e3d6000fd5b5050505050505050565b6001546001600160a01b0316331480611ce35750336000908152600b602052604090205460ff165b80611cfd5750336000908152600c602052604090205460ff165b611d3c576040805162461bcd60e51b81526020600482015260136024820152600080516020615c8e833981519152604482015290519081900360640190fd5b816001600160a01b03166330455ede826040518263ffffffff1660e01b8152600401808215158152602001915050600060405180830381600087803b158015611d8457600080fd5b505af1158015611d98573d6000803e3d6000fd5b505050505050565b6001546001600160a01b03163314611ded576040805162461bcd60e51b81526020600482015260136024820152600080516020615c8e833981519152604482015290519081900360640190fd5b6001600160a01b03919091166000908152600b60205260409020805460ff1916911515919091179055565b6001546001600160a01b0316331480611e405750336000908152600b602052604090205460ff165b80611e5a5750336000908152600c602052604090205460ff165b611e99576040805162461bcd60e51b81526020600482015260136024820152600080516020615c8e833981519152604482015290519081900360640190fd5b826001600160a01b031663dfcfa25083836040518363ffffffff1660e01b815260040180838152602001826001600160a01b0316815260200192505050600060405180830381600087803b15801561141957600080fd5b6001546001600160a01b03163314611f3d576040805162461bcd60e51b81526020600482015260136024820152600080516020615c8e833981519152604482015290519081900360640190fd5b604080516c3bb4ba34323930bbaa37b5b2b760991b6020808301919091526001600160601b0319606088811b8216602d85015287811b8216604185015286901b16605583015260698083018590528351808403909101815260899092019092528051910120611fab81615734565b611fb4816157e0565b846001600160a01b03166301e336678585856040518463ffffffff1660e01b815260040180846001600160a01b03168152602001836001600160a01b031681526020018281526020019350505050600060405180830381600087803b15801561201c57600080fd5b505af1158015612030573d6000803e3d6000fd5b505050505050505050565b6001546001600160a01b03163314612088576040805162461bcd60e51b81526020600482015260136024820152600080516020615c8e833981519152604482015290519081900360640190fd5b816001600160a01b031663f07bbf77826040518263ffffffff1660e01b8152600401808215158152602001915050600060405180830381600087803b158015611d8457600080fd5b6001546001600160a01b03163314806120f85750336000908152600b602052604090205460ff165b806121125750336000908152600c602052604090205460ff165b612151576040805162461bcd60e51b81526020600482015260136024820152600080516020615c8e833981519152604482015290519081900360640190fd5b60c882106121905760405162461bcd60e51b8152600401808060200182810382526024815260200180615bba6024913960400191505060405180910390fd5b60c881106121cf5760405162461bcd60e51b815260040180806020018281038252602a815260200180615ccf602a913960400191505060405180910390fd5b836001600160a01b0316638a27d4688484846040518463ffffffff1660e01b8152600401808481526020018381526020018281526020019350505050600060405180830381600087803b158015611c9d57600080fd5b60095460ff1681565b6001546001600160a01b0316331461227b576040805162461bcd60e51b81526020600482015260136024820152600080516020615c8e833981519152604482015290519081900360640190fd5b604080516939b2ba2430b7323632b960b11b6020808301919091526001600160601b0319606087811b8216602a85015286901b16603e83015283151560f81b605283015282516033818403018152605390920190925280519101206122df81615690565b604080516001600160a01b03808716825285166020820152831515818301526060810183905290517f1929c4e13b0dbbad7856b9ce1fc9dca98c7bf7cedd56e22c04dd60ad1d34fe4b9181900360800190a150505050565b6001546001600160a01b03163314612384576040805162461bcd60e51b81526020600482015260136024820152600080516020615c8e833981519152604482015290519081900360640190fd5b816001600160a01b0316631785f53c826040518263ffffffff1660e01b815260040180826001600160a01b03168152602001915050600060405180830381600087803b158015611d8457600080fd5b6002546001600160a01b031681565b6207a12081565b60075481565b600b6020526000908152604090205460ff1681565b6001546001600160a01b03163314612451576040805162461bcd60e51b81526020600482015260136024820152600080516020615c8e833981519152604482015290519081900360640190fd5b826001600160a01b0316634453a37483836040518363ffffffff1660e01b815260040180836001600160a01b03168152602001821515815260200192505050600060405180830381600087803b15801561141957600080fd5b6001546001600160a01b031633146124f7576040805162461bcd60e51b81526020600482015260136024820152600080516020615c8e833981519152604482015290519081900360640190fd5b604080516c3bb4ba34323930bbaa37b5b2b760991b6020808301919091526001600160601b0319606088811b8216602d85015287811b8216604185015286901b1660558301526069808301859052835180840390910181526089909201909252805191012061256581615690565b604080516001600160a01b0380881682528087166020830152851681830152606081018490526080810183905290517f9ed7b0f07a9eed51079fab67f6d0f141f167f5b17fdb5a23282280e15fcafed39181900360a00190a15050505050565b6001546001600160a01b03163314612612576040805162461bcd60e51b81526020600482015260136024820152600080516020615c8e833981519152604482015290519081900360640190fd5b60048054604080516327afb5af60e11b8152928301849052516001600160a01b0390911691634f5f6b5e91602480830192600092919082900301818387803b15801561265d57600080fd5b505af1158015611b83573d6000803e3d6000fd5b60065481565b6001546001600160a01b031633146126c4576040805162461bcd60e51b81526020600482015260136024820152600080516020615c8e833981519152604482015290519081900360640190fd5b604080516539b2ba23b7bb60d11b6020808301919091526001600160601b0319606086811b8216602685015285901b16603a8301528251602e818403018152604e909201909252805191012061271981615734565b612722816157e0565b826001600160a01b031663cfad57a2836040518263ffffffff1660e01b815260040180826001600160a01b03168152602001915050600060405180830381600087803b15801561141957600080fd5b6001546001600160a01b03163314806127995750336000908152600b602052604090205460ff165b806127b35750336000908152600c602052604090205460ff165b6127f2576040805162461bcd60e51b81526020600482015260136024820152600080516020615c8e833981519152604482015290519081900360640190fd5b836001600160a01b031663836a01878484846040518463ffffffff1660e01b8152600401808481526020018381526020018281526020019350505050600060405180830381600087803b158015611c9d57600080fd5b6001546001600160a01b03163314612895576040805162461bcd60e51b81526020600482015260136024820152600080516020615c8e833981519152604482015290519081900360640190fd5b6001600160a01b0382163014156128f3576040805162461bcd60e51b815260206004820152601960248201527f54696d656c6f636b3a20696e76616c6964205f74617267657400000000000000604482015290519081900360640190fd5b816001600160a01b031663704b6c02826040518263ffffffff1660e01b815260040180826001600160a01b03168152602001915050600060405180830381600087803b158015611d8457600080fd5b6005546001600160a01b031681565b6001546001600160a01b0316331461299e576040805162461bcd60e51b81526020600482015260136024820152600080516020615c8e833981519152604482015290519081900360640190fd5b611c2081106129de5760405162461bcd60e51b8152600401808060200182810382526023815260200180615bde6023913960400191505060405180910390fd5b600480546040805163966be07560e01b8152928301849052516001600160a01b039091169163966be07591602480830192600092919082900301818387803b15801561265d57600080fd5b6206978081565b600c6020526000908152604090205460ff1681565b6001546001600160a01b0316331480612a6d5750336000908152600b602052604090205460ff165b612aac576040805162461bcd60e51b81526020600482015260136024820152600080516020615c8e833981519152604482015290519081900360640190fd5b600954819060ff1615612b1a5760408051637c2eb9f760e01b81526001600482015290516001600160a01b03831691637c2eb9f791602480830192600092919082900301818387803b158015612b0157600080fd5b505af1158015612b15573d6000803e3d6000fd5b505050505b806001600160a01b03166340eb3802826001600160a01b0316637a210a2b6040518163ffffffff1660e01b815260040160206040518083038186803b158015612b6257600080fd5b505afa158015612b76573d6000803e3d6000fd5b505050506040513d6020811015612b8c57600080fd5b505160408051630875ab6160e11b815290516001600160a01b038616916310eb56c2916004808301926020929190829003018186803b158015612bce57600080fd5b505afa158015612be2573d6000803e3d6000fd5b505050506040513d6020811015612bf857600080fd5b505160408051631351ecc160e21b815290516001600160a01b03871691634d47b304916004808301926020929190829003018186803b158015612c3a57600080fd5b505afa158015612c4e573d6000803e3d6000fd5b505050506040513d6020811015612c6457600080fd5b50516040805163511791c960e11b815290516001600160a01b0388169163a22f2392916004808301926020929190829003018186803b158015612ca657600080fd5b505afa158015612cba573d6000803e3d6000fd5b505050506040513d6020811015612cd057600080fd5b50516040805163df73a26760e01b815290516001600160a01b0389169163df73a267916004808301926020929190829003018186803b158015612d1257600080fd5b505afa158015612d26573d6000803e3d6000fd5b505050506040513d6020811015612d3c57600080fd5b5051600754604080516305d349a560e21b815290516001600160a01b038b169163174d2694916004808301926020929190829003018186803b158015612d8157600080fd5b505afa158015612d95573d6000803e3d6000fd5b505050506040513d6020811015612dab57600080fd5b50516040805163d9ac422560e01b815290516001600160a01b038c169163d9ac4225916004808301926020929190829003018186803b158015612ded57600080fd5b505afa158015612e01573d6000803e3d6000fd5b505050506040513d6020811015612e1757600080fd5b505160408051639f392eb360e01b815290516001600160a01b038d1691639f392eb3916004808301926020929190829003018186803b158015612e5957600080fd5b505afa158015612e6d573d6000803e3d6000fd5b505050506040513d6020811015612e8357600080fd5b5051604080516001600160e01b031960e08d901b168152600481019a909a5260248a019890985260448901969096526064880194909452608487019290925260a486015260c485015260e484015215156101048301525161012480830192600092919082900301818387803b158015611d8457600080fd5b6001546001600160a01b0316331480612f235750336000908152600b602052604090205460ff165b80612f3d5750336000908152600c602052604090205460ff165b612f7c576040805162461bcd60e51b81526020600482015260136024820152600080516020615c8e833981519152604482015290519081900360640190fd5b6007849055600854604080516320759c0160e11b8152600481018c9052602481018b9052604481018a9052606481018990526084810188905260a481019290925260c4820185905260e48201849052821515610104830152516001600160a01b038c16916340eb38029161012480830192600092919082900301818387803b15801561300757600080fd5b505af115801561301b573d6000803e3d6000fd5b5050505050505050505050505050565b6002546001600160a01b03163314613078576040805162461bcd60e51b81526020600482015260136024820152600080516020615c8e833981519152604482015290519081900360640190fd5b600180546001600160a01b0319166001600160a01b0392909216919091179055565b6001546001600160a01b031633146130e7576040805162461bcd60e51b81526020600482015260136024820152600080516020615c8e833981519152604482015290519081900360640190fd5b604080516972656465656d5573646760b01b6020808301919091526001600160601b0319606087811b8216602a85015286901b16603e8301526052808301859052835180840390910181526072909201909252805191012061314881615734565b613151816157e0565b6000846001600160a01b031663f5b91b7b6040518163ffffffff1660e01b815260040160206040518083038186803b15801561318c57600080fd5b505afa1580156131a0573d6000803e3d6000fd5b505050506040513d60208110156131b657600080fd5b5051604080516352f4877760e11b81523060048201526001602482015290519192506001600160a01b0387169163a5e90eee9160448082019260009290919082900301818387803b15801561320a57600080fd5b505af115801561321e573d6000803e3d6000fd5b5050604080516312b5ad0160e11b815230600482015290516001600160a01b038516935063256b5a029250602480830192600092919082900301818387803b15801561326957600080fd5b505af115801561327d573d6000803e3d6000fd5b5050604080516340c10f1960e01b81523060048201526024810187905290516001600160a01b03851693506340c10f199250604480830192600092919082900301818387803b1580156132cf57600080fd5b505af11580156132e3573d6000803e3d6000fd5b50505050806001600160a01b031663a9059cbb86856040518363ffffffff1660e01b815260040180836001600160a01b0316815260200182815260200192505050602060405180830381600087803b15801561333e57600080fd5b505af1158015613352573d6000803e3d6000fd5b505050506040513d602081101561336857600080fd5b505060035460408051630711e61960e41b81526001600160a01b038781166004830152928316602482015290519187169163711e6190916044808201926020929091908290030181600087803b1580156133c157600080fd5b505af11580156133d5573d6000803e3d6000fd5b505050506040513d60208110156133eb57600080fd5b5050604080516352f4877760e11b815230600482015260006024820181905291516001600160a01b0388169263a5e90eee926044808201939182900301818387803b15801561343957600080fd5b505af115801561344d573d6000803e3d6000fd5b50506040805163ceb68c2360e01b815230600482015290516001600160a01b038516935063ceb68c239250602480830192600092919082900301818387803b15801561201c57600080fd5b6001546001600160a01b031633146134e5576040805162461bcd60e51b81526020600482015260136024820152600080516020615c8e833981519152604482015290519081900360640190fd5b604080516b1cd95d141c9a58d95199595960a21b6020808301919091526001600160601b0319606086811b8216602c85015285901b1682840152825160348184030181526054909201909252805191012061353f81615734565b613548816157e0565b826001600160a01b031663724e78da836040518263ffffffff1660e01b815260040180826001600160a01b03168152602001915050600060405180830381600087803b15801561141957600080fd5b6001546001600160a01b031633146135e4576040805162461bcd60e51b81526020600482015260136024820152600080516020615c8e833981519152604482015290519081900360640190fd5b6135ed816157e0565b50565b6001546001600160a01b0316331461363d576040805162461bcd60e51b81526020600482015260136024820152600080516020615c8e833981519152604482015290519081900360640190fd5b6207a1208111613694576040805162461bcd60e51b815260206004820152601e60248201527f54696d656c6f636b3a20696e76616c6964205f6d61784c657665726167650000604482015290519081900360640190fd5b816001600160a01b031663d3127e63826040518263ffffffff1660e01b815260040180828152602001915050600060405180830381600087803b158015611d8457600080fd5b6001546001600160a01b03163314613727576040805162461bcd60e51b81526020600482015260136024820152600080516020615c8e833981519152604482015290519081900360640190fd5b6004805460408051633c5103f760e11b815290516001600160a01b039092169260009284926378a207ee9281810192602092909190829003018186803b15801561377057600080fd5b505afa158015613784573d6000803e3d6000fd5b505050506040513d602081101561379a57600080fd5b5051600480546040805163cf456ae760e01b81526001600160a01b0392831693810193909352600160248401525192935083169163cf456ae79160448082019260009290919082900301818387803b1580156137f557600080fd5b505af1158015613809573d6000803e3d6000fd5b505050506000826001600160a01b031663f5b91b7b6040518163ffffffff1660e01b815260040160206040518083038186803b15801561384857600080fd5b505afa15801561385c573d6000803e3d6000fd5b505050506040513d602081101561387257600080fd5b505160048054604080516312b5ad0160e11b81526001600160a01b03928316938101939093525192935083169163256b5a029160248082019260009290919082900301818387803b1580156138c657600080fd5b505af11580156138da573d6000803e3d6000fd5b505050506000836001600160a01b031663fbfa77cf6040518163ffffffff1660e01b815260040160206040518083038186803b15801561391957600080fd5b505afa15801561392d573d6000803e3d6000fd5b505050506040513d602081101561394357600080fd5b505160048054604080516352f4877760e11b81526001600160a01b0392831693810193909352600160248401525192935083169163a5e90eee9160448082019260009290919082900301818387803b158015611c9d57600080fd5b6001546001600160a01b031633146139eb576040805162461bcd60e51b81526020600482015260136024820152600080516020615c8e833981519152604482015290519081900360640190fd5b604080516b1cd95d141c9a58d95199595960a21b6020808301919091526001600160601b0319606086811b8216602c85015285901b16828401528251603481840301815260549092019092528051910120613a4581615690565b604080516001600160a01b0380861682528416602082015280820183905290517fb878dd4b5762f4118ad54995be907dd2bcd915d942e4ac75580fba9b4ee4727f9181900360600190a1505050565b6001546001600160a01b0316331480613abc5750336000908152600b602052604090205460ff165b80613ad65750336000908152600c602052604090205460ff165b613b15576040805162461bcd60e51b81526020600482015260136024820152600080516020615c8e833981519152604482015290519081900360640190fd5b6000600460009054906101000a90046001600160a01b03166001600160a01b031663f5b91b7b6040518163ffffffff1660e01b815260040160206040518083038186803b158015613b6557600080fd5b505afa158015613b79573d6000803e3d6000fd5b505050506040513d6020811015613b8f57600080fd5b505160048054604080516370a0823160e01b81526001600160a01b039283169381019390935251929350600092908416916370a08231916024808301926020929190829003018186803b158015613be557600080fd5b505afa158015613bf9573d6000803e3d6000fd5b505050506040513d6020811015613c0f57600080fd5b5051604080516312b5ad0160e11b815230600482015290519192506001600160a01b0384169163256b5a029160248082019260009290919082900301818387803b158015613c5c57600080fd5b505af1158015613c70573d6000803e3d6000fd5b5050505080831115613cff576000613c888483615889565b60048054604080516340c10f1960e01b81526001600160a01b039283169381019390935260248301849052519293508516916340c10f199160448082019260009290919082900301818387803b158015613ce157600080fd5b505af1158015613cf5573d6000803e3d6000fd5b5050505050613d7e565b6000613d0b8285615889565b6004805460408051632770a7eb60e21b81526001600160a01b03928316938101939093526024830184905251929350851691639dc29fac9160448082019260009290919082900301818387803b158015613d6457600080fd5b505af1158015613d78573d6000803e3d6000fd5b50505050505b6040805163ceb68c2360e01b815230600482015290516001600160a01b0384169163ceb68c2391602480830192600092919082900301818387803b15801561141957600080fd5b6001546001600160a01b03163314613e12576040805162461bcd60e51b81526020600482015260136024820152600080516020615c8e833981519152604482015290519081900360640190fd5b816001600160a01b0316635a47a1a7826040518263ffffffff1660e01b8152600401808215158152602001915050600060405180830381600087803b158015611d8457600080fd5b60c881565b6001546001600160a01b03163314613eac576040805162461bcd60e51b81526020600482015260136024820152600080516020615c8e833981519152604482015290519081900360640190fd5b64012a05f2008111613efc576040805162461bcd60e51b8152602060048201526014602482015273496e76616c6964205f6d6178476173507269636560601b604482015290519081900360640190fd5b816001600160a01b031663d2fa635e826040518263ffffffff1660e01b815260040180828152602001915050600060405180830381600087803b158015611d8457600080fd5b6001546001600160a01b0316331480613f6a5750336000908152600b602052604090205460ff165b613fa9576040805162461bcd60e51b81526020600482015260136024820152600080516020615c8e833981519152604482015290519081900360640190fd5b6009805460ff1916911515919091179055565b6c0c9f2c9cd04674edea4000000081565b6001546001600160a01b0316331461401a576040805162461bcd60e51b81526020600482015260136024820152600080516020615c8e833981519152604482015290519081900360640190fd5b604080516539b2ba23b7bb60d11b6020808301919091526001600160601b0319606086811b8216602685015285901b16603a8301528251602e818403018152604e909201909252805191012061406f81615690565b604080516001600160a01b0380861682528416602082015280820183905290517f2701a94fd55a560e291f3c54d36580040670d6fde558a77a75d619e38139f7139181900360600190a1505050565b60085481565b6001546001600160a01b03163314806140ec5750336000908152600b602052604090205460ff165b806141065750336000908152600c602052604090205460ff165b614145576040805162461bcd60e51b81526020600482015260136024820152600080516020615c8e833981519152604482015290519081900360640190fd5b60005b82518110156141f257836001600160a01b031663d66b000d84838151811061416c57fe5b602002602001015184848151811061418057fe5b60200260200101516040518363ffffffff1660e01b815260040180836001600160a01b0316815260200182815260200192505050600060405180830381600087803b1580156141ce57600080fd5b505af11580156141e2573d6000803e3d6000fd5b5050600190920191506141489050565b50505050565b6001546001600160a01b03163314614245576040805162461bcd60e51b81526020600482015260136024820152600080516020615c8e833981519152604482015290519081900360640190fd5b6206978081111561429d576040805162461bcd60e51b815260206004820152601960248201527f54696d656c6f636b3a20696e76616c6964205f62756666657200000000000000604482015290519081900360640190fd5b60005481116142dd5760405162461bcd60e51b8152600401808060200182810382526024815260200180615c6a6024913960400191505060405180910390fd5b600055565b6001546001600160a01b0316331461432f576040805162461bcd60e51b81526020600482015260136024820152600080516020615c8e833981519152604482015290519081900360640190fd5b6005546040805163e1c363b760e01b815290516001600160a01b0390921691829163e1c363b7916004808301926020929190829003018186803b15801561437557600080fd5b505afa158015614389573d6000803e3d6000fd5b505050506040513d602081101561439f57600080fd5b505160055460408051639cb7de4b60e01b81526001600160a01b0392831660048201526001602482015290519190921691639cb7de4b91604480830192600092919082900301818387803b1580156143f657600080fd5b505af115801561440a573d6000803e3d6000fd5b50505050806001600160a01b031663af394d006040518163ffffffff1660e01b815260040160206040518083038186803b15801561444757600080fd5b505afa15801561445b573d6000803e3d6000fd5b505050506040513d602081101561447157600080fd5b505160055460408051639cb7de4b60e01b81526001600160a01b0392831660048201526001602482015290519190921691639cb7de4b91604480830192600092919082900301818387803b1580156144c857600080fd5b505af11580156144dc573d6000803e3d6000fd5b50506004805460055460408051639cb7de4b60e01b81526001600160a01b0392831694810194909452600160248501525191169350639cb7de4b9250604480830192600092919082900301818387803b15801561265d57600080fd5b6001546001600160a01b03163314614585576040805162461bcd60e51b81526020600482015260136024820152600080516020615c8e833981519152604482015290519081900360640190fd5b816001600160a01b03166371089f4d826040518263ffffffff1660e01b815260040180826001600160a01b03168152602001915050600060405180830381600087803b158015611d8457600080fd5b6001546001600160a01b03163314614621576040805162461bcd60e51b81526020600482015260136024820152600080516020615c8e833981519152604482015290519081900360640190fd5b60408051631b5a5b9d60e21b6020808301919091526001600160601b0319606087811b8216602485015286901b166038830152604c80830185905283518084039091018152606c909201909252805191012061467c81615734565b614685816157e0565b6141f28484846158d2565b6001546001600160a01b03163314806146b85750336000908152600b602052604090205460ff165b806146d25750336000908152600c602052604090205460ff165b614711576040805162461bcd60e51b81526020600482015260136024820152600080516020615c8e833981519152604482015290519081900360640190fd5b826001600160a01b0316633fb8b32383836040518363ffffffff1660e01b815260040180836001600160a01b0316815260200182815260200192505050600060405180830381600087803b15801561141957600080fd5b6003546001600160a01b031681565b6001546001600160a01b031633148061479f5750336000908152600b602052604090205460ff165b6147de576040805162461bcd60e51b81526020600482015260136024820152600080516020615c8e833981519152604482015290519081900360640190fd5b816001600160a01b0316637c2eb9f7826040518263ffffffff1660e01b8152600401808215158152602001915050600060405180830381600087803b158015611d8457600080fd5b6001546001600160a01b03163314614873576040805162461bcd60e51b81526020600482015260136024820152600080516020615c8e833981519152604482015290519081900360640190fd5b6001600160a01b03919091166000908152600c60205260409020805460ff1916911515919091179055565b6001546001600160a01b03163314806148c65750336000908152600b602052604090205460ff165b614905576040805162461bcd60e51b81526020600482015260136024820152600080516020615c8e833981519152604482015290519081900360640190fd5b600954819060ff16156149715760408051637c2eb9f760e01b815260006004820181905291516001600160a01b03841692637c2eb9f7926024808201939182900301818387803b15801561495857600080fd5b505af115801561496c573d6000803e3d6000fd5b505050505b806001600160a01b03166340eb3802826001600160a01b0316637a210a2b6040518163ffffffff1660e01b815260040160206040518083038186803b1580156149b957600080fd5b505afa1580156149cd573d6000803e3d6000fd5b505050506040513d60208110156149e357600080fd5b505160408051630875ab6160e11b815290516001600160a01b038616916310eb56c2916004808301926020929190829003018186803b158015614a2557600080fd5b505afa158015614a39573d6000803e3d6000fd5b505050506040513d6020811015614a4f57600080fd5b505160408051631351ecc160e21b815290516001600160a01b03871691634d47b304916004808301926020929190829003018186803b158015614a9157600080fd5b505afa158015614aa5573d6000803e3d6000fd5b505050506040513d6020811015614abb57600080fd5b50516040805163511791c960e11b815290516001600160a01b0388169163a22f2392916004808301926020929190829003018186803b158015614afd57600080fd5b505afa158015614b11573d6000803e3d6000fd5b505050506040513d6020811015614b2757600080fd5b50516040805163df73a26760e01b815290516001600160a01b0389169163df73a267916004808301926020929190829003018186803b158015614b6957600080fd5b505afa158015614b7d573d6000803e3d6000fd5b505050506040513d6020811015614b9357600080fd5b5051600854604080516305d349a560e21b815290516001600160a01b038b169163174d2694916004808301926020929190829003018186803b158015612d8157600080fd5b6001546001600160a01b0316331480614c005750336000908152600b602052604090205460ff165b80614c1a5750336000908152600c602052604090205460ff165b614c59576040805162461bcd60e51b81526020600482015260136024820152600080516020615c8e833981519152604482015290519081900360640190fd5b6000869050806001600160a01b03166340eb38028787878787600854886001600160a01b031663174d26946040518163ffffffff1660e01b815260040160206040518083038186803b158015614cae57600080fd5b505afa158015614cc2573d6000803e3d6000fd5b505050506040513d6020811015614cd857600080fd5b50516040805163d9ac422560e01b815290516001600160a01b038c169163d9ac4225916004808301926020929190829003018186803b158015614d1a57600080fd5b505afa158015614d2e573d6000803e3d6000fd5b505050506040513d6020811015614d4457600080fd5b505160408051639f392eb360e01b815290516001600160a01b038d1691639f392eb3916004808301926020929190829003018186803b158015614d8657600080fd5b505afa158015614d9a573d6000803e3d6000fd5b505050506040513d6020811015614db057600080fd5b5051604080516001600160e01b031960e08d901b168152600481019a909a5260248a019890985260448901969096526064880194909452608487019290925260a486015260c485015260e484015215156101048301525161012480830192600092919082900301818387803b158015614e2857600080fd5b505af1158015614e3c573d6000803e3d6000fd5b5050505050505050505050565b6001546001600160a01b03163314614e96576040805162461bcd60e51b81526020600482015260136024820152600080516020615c8e833981519152604482015290519081900360640190fd5b60408051727661756c74536574546f6b656e436f6e66696760681b6020808301919091526001600160601b031960608c811b821660338501528b901b166047830152605b8201899052607b8201889052609b820187905260bb820186905284151560f890811b60db840152841515901b60dc830152825160bd81840301815260dd9092019092528051910120614f2b81615690565b604080516001600160a01b03808c1682528a166020820152808201899052606081018890526080810187905260a0810186905284151560c082015283151560e082015290517f3510e9d8245371c6c1061c33781ce16bd0eafa03cd3d0781865036520af4c743918190036101000190a1505050505050505050565b6001546001600160a01b03163314614ff3576040805162461bcd60e51b81526020600482015260136024820152600080516020615c8e833981519152604482015290519081900360640190fd5b6040805166617070726f766560c81b6020808301919091526001600160601b0319606087811b8216602785015286901b16603b830152604f80830185905283518084039091018152606f909201909252805191012061505181615690565b604080516001600160a01b038087168252851660208201528082018490526060810183905290517f6af9d86ba7407a934e941ed8ae5f779369a88fe8ba2cd1c204185d6f8a8287fd9181900360800190a150505050565b6001546001600160a01b031633146150f5576040805162461bcd60e51b81526020600482015260136024820152600080516020615c8e833981519152604482015290519081900360640190fd5b826001600160a01b031663efa10a6e83836040518363ffffffff1660e01b815260040180836001600160a01b0316815260200182815260200192505050600060405180830381600087803b15801561141957600080fd5b6001546001600160a01b03163314615199576040805162461bcd60e51b81526020600482015260136024820152600080516020615c8e833981519152604482015290519081900360640190fd5b6040805166617070726f766560c81b6020808301919091526001600160601b0319606087811b8216602785015286901b16603b830152604f80830185905283518084039091018152606f90920190925280519101206151f781615734565b615200816157e0565b836001600160a01b031663095ea7b384846040518363ffffffff1660e01b815260040180836001600160a01b0316815260200182815260200192505050602060405180830381600087803b15801561525757600080fd5b505af115801561526b573d6000803e3d6000fd5b505050506040513d6020811015611d9857600080fd5b6001546001600160a01b03163314806152a95750336000908152600b602052604090205460ff165b6152e8576040805162461bcd60e51b81526020600482015260136024820152600080516020615c8e833981519152604482015290519081900360640190fd5b600791909155600855565b600a6020526000908152604090205481565b6001546001600160a01b03163314615352576040805162461bcd60e51b81526020600482015260136024820152600080516020615c8e833981519152604482015290519081900360640190fd5b60408051727661756c74536574546f6b656e436f6e66696760681b6020808301919091526001600160601b031960608c811b821660338501528b901b166047830152605b8201899052607b8201889052609b820187905260bb820186905284151560f890811b60db840152841515901b60dc830152825160bd81840301815260dd90920190925280519101206153e781615734565b6153f0816157e0565b60408051633c5a6e3560e01b81526001600160a01b038a81166004830152602482018a905260448201899052606482018890526084820187905285151560a483015284151560c48301529151918b1691633c5a6e359160e48082019260009290919082900301818387803b15801561546757600080fd5b505af115801561547b573d6000803e3d6000fd5b50505050505050505050505050565b6001546001600160a01b031633146154d7576040805162461bcd60e51b81526020600482015260136024820152600080516020615c8e833981519152604482015290519081900360640190fd5b604080516323b872dd60e01b81526001600160a01b038581166004830152306024830152604482018490529151918416916323b872dd916064808201926020929091908290030181600087803b158015611b5957600080fd5b6001546001600160a01b03163314806155585750336000908152600b602052604090205460ff165b806155725750336000908152600c602052604090205460ff165b6155b1576040805162461bcd60e51b81526020600482015260136024820152600080516020615c8e833981519152604482015290519081900360640190fd5b60005b815181101561566757826001600160a01b031663f25552788383815181106155d857fe5b602090810291909101810151600154604080516001600160e01b031960e087901b1681526001600160a01b03938416600482015292909116602483015251604480830193928290030181600087803b15801561563357600080fd5b505af1158015615647573d6000803e3d6000fd5b505050506040513d602081101561565d57600080fd5b50506001016155b4565b505050565b60005481565b6001546001600160a01b031681565b6004546001600160a01b031681565b6000818152600a6020526040902054156156db5760405162461bcd60e51b8152600401808060200182810382526022815260200180615c016022913960400191505060405180910390fd5b6000546156e9904290615ac8565b6000828152600a602090815260409182902092909255805183815290517f5fb9c0ecf7b4a28c4c480212e868f9da7f373a2ed4d23498b0be6aadf35242fb929181900390910190a150565b6000818152600a6020526040902054615794576040805162461bcd60e51b815260206004820152601e60248201527f54696d656c6f636b3a20616374696f6e206e6f74207369676e616c6c65640000604482015290519081900360640190fd5b6000818152600a602052604090205442116135ed5760405162461bcd60e51b8152600401808060200182810382526024815260200180615c466024913960400191505060405180910390fd5b6000818152600a6020526040902054615840576040805162461bcd60e51b815260206004820152601960248201527f54696d656c6f636b3a20696e76616c6964205f616374696f6e00000000000000604482015290519081900360640190fd5b6000818152600a6020908152604080832092909255815183815291517f194ed6dd5e37e2acc44a19455c3f208c4831ee695fe362d9c4ef2d316bc53aec9281900390910190a150565b60006158cb83836040518060400160405280601e81526020017f536166654d6174683a207375627472616374696f6e206f766572666c6f770000815250615b22565b9392505050565b604080516355138f0d60e11b8152306004820152905184916001600160a01b0383169163aa271e1a916024808201926020929091908290030181600087803b15801561591d57600080fd5b505af1158015615931573d6000803e3d6000fd5b505050506040513d602081101561594757600080fd5b50516159b4576040805163cf456ae760e01b81523060048201526001602482015290516001600160a01b0383169163cf456ae791604480830192600092919082900301818387803b15801561599b57600080fd5b505af11580156159af573d6000803e3d6000fd5b505050505b806001600160a01b03166340c10f1984846040518363ffffffff1660e01b815260040180836001600160a01b0316815260200182815260200192505050600060405180830381600087803b158015615a0b57600080fd5b505af1158015615a1f573d6000803e3d6000fd5b50505050600654846001600160a01b03166318160ddd6040518163ffffffff1660e01b815260040160206040518083038186803b158015615a5f57600080fd5b505afa158015615a73573d6000803e3d6000fd5b505050506040513d6020811015615a8957600080fd5b505111156141f25760405162461bcd60e51b8152600401808060200182810382526021815260200180615cae6021913960400191505060405180910390fd5b6000828201838110156158cb576040805162461bcd60e51b815260206004820152601b60248201527f536166654d6174683a206164646974696f6e206f766572666c6f770000000000604482015290519081900360640190fd5b60008184841115615bb15760405162461bcd60e51b81526004018080602001828103825283818151815260200191508051906020019080838360005b83811015615b76578181015183820152602001615b5e565b50505050905090810190601f168015615ba35780820380516001836020036101000a031916815260200191505b509250505060405180910390fd5b50505090039056fe54696d656c6f636b3a20696e76616c6964205f66756e64696e6752617465466163746f7254696d656c6f636b3a20696e76616c6964205f636f6f6c646f776e4475726174696f6e54696d656c6f636b3a20616374696f6e20616c7265616479207369676e616c6c656454696d656c6f636b3a20746f6b656e206e6f74207965742077686974656c697374656454696d656c6f636b3a20616374696f6e2074696d65206e6f74207965742070617373656454696d656c6f636b3a206275666665722063616e6e6f742062652064656372656173656454696d656c6f636b3a20666f7262696464656e0000000000000000000000000054696d656c6f636b3a206d6178546f6b656e537570706c7920657863656564656454696d656c6f636b3a20696e76616c6964205f737461626c6546756e64696e6752617465466163746f72a264697066735822122007a5d4a9c85de57e8aedef0d55d2b007722edf1100880a0a3a2d65419e63431e64736f6c634300060c0033","linkReferences":{}},"methodIdentifiers":{"MAX_BUFFER()":"61d07569","MAX_FUNDING_RATE_FACTOR()":"8a39735a","MAX_LEVERAGE_VALIDATION()":"2ba3725a","PRICE_PRECISION()":"95082d25","admin()":"f851a440","approve(address,address,uint256)":"e1f21c67","batchSetBonusRewards(address,address[],uint256[])":"009a698e","batchWithdrawFees(address,address[])":"e8ae2271","buffer()":"edaafe20","cancelAction(bytes32)":"781cc3d3","disableLeverage(address)":"d3c87bbb","enableLeverage(address)":"6d63c1d0","glpManager()":"fa6db1bc","govSetCodeOwner(address,bytes32,address)":"204bbc54","initGlpManager()":"7e43c62d","initRewardRouter()":"afd14deb","isHandler(address)":"46ea87af","isKeeper(address)":"6ba42aaa","marginFeeBasisPoints()":"318bc689","maxMarginFeeBasisPoints()":"996e2bc9","maxTokenSupply()":"50f7c204","mintReceiver()":"c7bb26a0","pendingActions(bytes32)":"e30569e5","processMint(address,address,uint256)":"bc8a8ab9","redeemUsdg(address,address,uint256)":"70ac0a93","removeAdmin(address,address)":"268959e5","rewardRouter()":"5a3bb989","setAdmin(address)":"704b6c02","setBuffer(uint256)":"adc7ea37","setContractHandler(address,bool)":"185051c1","setExternalAdmin(address,address)":"55ef1395","setFees(address,uint256,uint256,uint256,uint256,uint256,uint256,uint256,uint256,bool)":"6e5227d4","setFundingRate(address,uint256,uint256,uint256)":"227f03eb","setGlpCooldownDuration(uint256)":"5b05348b","setGov(address,address)":"51a6de0d","setHandler(address,address,bool)":"1154e808","setInPrivateLiquidationMode(address,bool)":"21bd0592","setInPrivateTransferMode(address,bool)":"86803c72","setIsLeverageEnabled(address,bool)":"cd2b1230","setIsSwapEnabled(address,bool)":"117cf204","setKeeper(address,bool)":"d1b9e853","setLiquidator(address,address,bool)":"47de43e2","setMarginFeeBasisPoints(uint256,uint256)":"e21b4591","setMaxGasPrice(address,uint256)":"8bf22c46","setMaxGlobalShortSize(address,address,uint256)":"df3a66d9","setMaxLeverage(address,uint256)":"7b6f775a","setPriceFeed(address,address)":"76e11286","setReferrerTier(address,address,uint256)":"c142940a","setShortsTrackerAveragePriceWeight(uint256)":"4f5f6b5e","setShouldToggleIsLeverageEnabled(bool)":"8e34c98f","setSwapFees(address,uint256,uint256,uint256,uint256,uint256)":"da762316","setTier(address,uint256,uint256,uint256)":"55818294","setTokenConfig(address,address,uint256,uint256,uint256,uint256,uint256)":"0e0dc426","setUsdgAmounts(address,address[],uint256[])":"9b53ad22","setVaultUtils(address,address)":"bc476dfd","shouldToggleIsLeverageEnabled()":"23aaad12","signalApprove(address,address,uint256)":"dce6e18d","signalMint(address,address,uint256)":"09cc9a08","signalRedeemUsdg(address,address,uint256)":"0191c237","signalSetGov(address,address)":"996a7a1e","signalSetHandler(address,address,bool)":"24ccbe30","signalSetPriceFeed(address,address)":"80894d62","signalVaultSetTokenConfig(address,address,uint256,uint256,uint256,uint256,bool,bool)":"db1c8441","signalWithdrawToken(address,address,address,uint256)":"4cd23f3b","tokenManager()":"2a709b14","transferIn(address,address,uint256)":"e4652f49","updateUsdgSupply(uint256)":"81774b3d","vaultSetTokenConfig(address,address,uint256,uint256,uint256,uint256,bool,bool)":"e3cbeb0f","withdrawFees(address,address,address)":"0e9587f3","withdrawToken(address,address,address,uint256)":"21754d9e"},"id":156}