{"abi":[{"type":"constructor","inputs":[{"name":"_vault","type":"address","internalType":"address"},{"name":"_usdg","type":"address","internalType":"address"},{"name":"_glp","type":"address","internalType":"address"},{"name":"_shortsTracker","type":"address","internalType":"address"},{"name":"_cooldownDuration","type":"uint256","internalType":"uint256"}],"stateMutability":"nonpayable"},{"type":"function","name":"BASIS_POINTS_DIVISOR","inputs":[],"outputs":[{"name":"","type":"uint256","internalType":"uint256"}],"stateMutability":"view"},{"type":"function","name":"GLP_PRECISION","inputs":[],"outputs":[{"name":"","type":"uint256","internalType":"uint256"}],"stateMutability":"view"},{"type":"function","name":"MAX_COOLDOWN_DURATION","inputs":[],"outputs":[{"name":"","type":"uint256","internalType":"uint256"}],"stateMutability":"view"},{"type":"function","name":"PRICE_PRECISION","inputs":[],"outputs":[{"name":"","type":"uint256","internalType":"uint256"}],"stateMutability":"view"},{"type":"function","name":"USDG_DECIMALS","inputs":[],"outputs":[{"name":"","type":"uint256","internalType":"uint256"}],"stateMutability":"view"},{"type":"function","name":"addLiquidity","inputs":[{"name":"_token","type":"address","internalType":"address"},{"name":"_amount","type":"uint256","internalType":"uint256"},{"name":"_minUsdg","type":"uint256","internalType":"uint256"},{"name":"_minGlp","type":"uint256","internalType":"uint256"}],"outputs":[{"name":"","type":"uint256","internalType":"uint256"}],"stateMutability":"nonpayable"},{"type":"function","name":"addLiquidityForAccount","inputs":[{"name":"_fundingAccount","type":"address","internalType":"address"},{"name":"_account","type":"address","internalType":"address"},{"name":"_token","type":"address","internalType":"address"},{"name":"_amount","type":"uint256","internalType":"uint256"},{"name":"_minUsdg","type":"uint256","internalType":"uint256"},{"name":"_minGlp","type":"uint256","internalType":"uint256"}],"outputs":[{"name":"","type":"uint256","internalType":"uint256"}],"stateMutability":"nonpayable"},{"type":"function","name":"aumAddition","inputs":[],"outputs":[{"name":"","type":"uint256","internalType":"uint256"}],"stateMutability":"view"},{"type":"function","name":"aumDeduction","inputs":[],"outputs":[{"name":"","type":"uint256","internalType":"uint256"}],"stateMutability":"view"},{"type":"function","name":"cooldownDuration","inputs":[],"outputs":[{"name":"","type":"uint256","internalType":"uint256"}],"stateMutability":"view"},{"type":"function","name":"getAum","inputs":[{"name":"maximise","type":"bool","internalType":"bool"}],"outputs":[{"name":"","type":"uint256","internalType":"uint256"}],"stateMutability":"view"},{"type":"function","name":"getAumInUsdg","inputs":[{"name":"maximise","type":"bool","internalType":"bool"}],"outputs":[{"name":"","type":"uint256","internalType":"uint256"}],"stateMutability":"view"},{"type":"function","name":"getAums","inputs":[],"outputs":[{"name":"","type":"uint256[]","internalType":"uint256[]"}],"stateMutability":"view"},{"type":"function","name":"getGlobalShortAveragePrice","inputs":[{"name":"_token","type":"address","internalType":"address"}],"outputs":[{"name":"","type":"uint256","internalType":"uint256"}],"stateMutability":"view"},{"type":"function","name":"getGlobalShortDelta","inputs":[{"name":"_token","type":"address","internalType":"address"},{"name":"_price","type":"uint256","internalType":"uint256"},{"name":"_size","type":"uint256","internalType":"uint256"}],"outputs":[{"name":"","type":"uint256","internalType":"uint256"},{"name":"","type":"bool","internalType":"bool"}],"stateMutability":"view"},{"type":"function","name":"getPrice","inputs":[{"name":"_maximise","type":"bool","internalType":"bool"}],"outputs":[{"name":"","type":"uint256","internalType":"uint256"}],"stateMutability":"view"},{"type":"function","name":"glp","inputs":[],"outputs":[{"name":"","type":"address","internalType":"address"}],"stateMutability":"view"},{"type":"function","name":"gov","inputs":[],"outputs":[{"name":"","type":"address","internalType":"address"}],"stateMutability":"view"},{"type":"function","name":"inPrivateMode","inputs":[],"outputs":[{"name":"","type":"bool","internalType":"bool"}],"stateMutability":"view"},{"type":"function","name":"isHandler","inputs":[{"name":"","type":"address","internalType":"address"}],"outputs":[{"name":"","type":"bool","internalType":"bool"}],"stateMutability":"view"},{"type":"function","name":"lastAddedAt","inputs":[{"name":"","type":"address","internalType":"address"}],"outputs":[{"name":"","type":"uint256","internalType":"uint256"}],"stateMutability":"view"},{"type":"function","name":"removeLiquidity","inputs":[{"name":"_tokenOut","type":"address","internalType":"address"},{"name":"_glpAmount","type":"uint256","internalType":"uint256"},{"name":"_minOut","type":"uint256","internalType":"uint256"},{"name":"_receiver","type":"address","internalType":"address"}],"outputs":[{"name":"","type":"uint256","internalType":"uint256"}],"stateMutability":"nonpayable"},{"type":"function","name":"removeLiquidityForAccount","inputs":[{"name":"_account","type":"address","internalType":"address"},{"name":"_tokenOut","type":"address","internalType":"address"},{"name":"_glpAmount","type":"uint256","internalType":"uint256"},{"name":"_minOut","type":"uint256","internalType":"uint256"},{"name":"_receiver","type":"address","internalType":"address"}],"outputs":[{"name":"","type":"uint256","internalType":"uint256"}],"stateMutability":"nonpayable"},{"type":"function","name":"setAumAdjustment","inputs":[{"name":"_aumAddition","type":"uint256","internalType":"uint256"},{"name":"_aumDeduction","type":"uint256","internalType":"uint256"}],"outputs":[],"stateMutability":"nonpayable"},{"type":"function","name":"setCooldownDuration","inputs":[{"name":"_cooldownDuration","type":"uint256","internalType":"uint256"}],"outputs":[],"stateMutability":"nonpayable"},{"type":"function","name":"setGov","inputs":[{"name":"_gov","type":"address","internalType":"address"}],"outputs":[],"stateMutability":"nonpayable"},{"type":"function","name":"setHandler","inputs":[{"name":"_handler","type":"address","internalType":"address"},{"name":"_isActive","type":"bool","internalType":"bool"}],"outputs":[],"stateMutability":"nonpayable"},{"type":"function","name":"setInPrivateMode","inputs":[{"name":"_inPrivateMode","type":"bool","internalType":"bool"}],"outputs":[],"stateMutability":"nonpayable"},{"type":"function","name":"setShortsTracker","inputs":[{"name":"_shortsTracker","type":"address","internalType":"contract IShortsTracker"}],"outputs":[],"stateMutability":"nonpayable"},{"type":"function","name":"setShortsTrackerAveragePriceWeight","inputs":[{"name":"_shortsTrackerAveragePriceWeight","type":"uint256","internalType":"uint256"}],"outputs":[],"stateMutability":"nonpayable"},{"type":"function","name":"shortsTracker","inputs":[],"outputs":[{"name":"","type":"address","internalType":"contract IShortsTracker"}],"stateMutability":"view"},{"type":"function","name":"shortsTrackerAveragePriceWeight","inputs":[],"outputs":[{"name":"","type":"uint256","internalType":"uint256"}],"stateMutability":"view"},{"type":"function","name":"usdg","inputs":[],"outputs":[{"name":"","type":"address","internalType":"address"}],"stateMutability":"view"},{"type":"function","name":"vault","inputs":[],"outputs":[{"name":"","type":"address","internalType":"contract IVault"}],"stateMutability":"view"},{"type":"event","name":"AddLiquidity","inputs":[{"name":"account","type":"address","indexed":false,"internalType":"address"},{"name":"token","type":"address","indexed":false,"internalType":"address"},{"name":"amount","type":"uint256","indexed":false,"internalType":"uint256"},{"name":"aumInUsdg","type":"uint256","indexed":false,"internalType":"uint256"},{"name":"glpSupply","type":"uint256","indexed":false,"internalType":"uint256"},{"name":"usdgAmount","type":"uint256","indexed":false,"internalType":"uint256"},{"name":"mintAmount","type":"uint256","indexed":false,"internalType":"uint256"}],"anonymous":false},{"type":"event","name":"RemoveLiquidity","inputs":[{"name":"account","type":"address","indexed":false,"internalType":"address"},{"name":"token","type":"address","indexed":false,"internalType":"address"},{"name":"glpAmount","type":"uint256","indexed":false,"internalType":"uint256"},{"name":"aumInUsdg","type":"uint256","indexed":false,"internalType":"uint256"},{"name":"glpSupply","type":"uint256","indexed":false,"internalType":"uint256"},{"name":"usdgAmount","type":"uint256","indexed":false,"internalType":"uint256"},{"name":"amountOut","type":"uint256","indexed":false,"internalType":"uint256"}],"anonymous":false}],"bytecode":{"object":"0x608060405234801561001057600080fd5b506040516126df3803806126df833981810160405260a081101561003357600080fd5b5080516020820151604083015160608401516080909401516001600081905580546001600160a01b031990811633908117821617909155600280546001600160a01b039687169083161790556004805494861694821694909417909355600580549285169284169290921790915560038054939094169290911691909117909155600655612619806100c66000396000f3fe608060405234801561001057600080fd5b50600436106102065760003560e01c806371d597ad1161011a5780639cb7de4b116100ad578063d34ee0931161007c578063d34ee09314610580578063e245b5af146105a6578063ed0d1c04146105c5578063f5b91b7b1461061d578063fbfa77cf1461062557610206565b80639cb7de4b146104d9578063a1acd3d514610507578063b172bb0c14610552578063cfad57a21461055a57610206565b80638fed0b2c116100e95780638fed0b2c146104575780639116c4ae1461049157806395082d25146104b4578063966be075146104bc57610206565b806371d597ad146103dd57806378a207ee14610421578063870d917c146104295780638b770e111461043157610206565b8063352693151161019d57806364e6617f1161016c57806364e6617f14610387578063657bc5d01461038f578063662f1c681461039757806368a0a3e01461039f5780636a86da19146103be57610206565b80633526931514610314578063440d828a1461031c57806346ea87af146103425780634f5f6b5e1461036857610206565b806317eb2a15116101d957806317eb2a1514610284578063196b68cb146102cc5780631e9049cf146102d45780631ece366a146102dc57610206565b8063033914761461020b578063070eacee1461023c578063126082cf1461025857806312d43a5114610260575b600080fd5b61022a6004803603602081101561022157600080fd5b5035151561062d565b60408051918252519081900360200190f35b610244610cab565b604080519115158252519081900360200190f35b61022a610cb4565b610268610cba565b604080516001600160a01b039092168252519081900360200190f35b61022a600480360360c081101561029a57600080fd5b506001600160a01b03813581169160208101358216916040820135169060608101359060808101359060a00135610cc9565b61022a610d3c565b61022a610d42565b61022a600480360360808110156102f257600080fd5b506001600160a01b038135169060208101359060408101359060600135610d49565b61022a610e0a565b61022a6004803603602081101561033257600080fd5b50356001600160a01b0316610e10565b6102446004803603602081101561035857600080fd5b50356001600160a01b0316611121565b6103856004803603602081101561037e57600080fd5b5035611136565b005b61022a6111e1565b6102686111e7565b61022a6111f6565b61022a600480360360208110156103b557600080fd5b50351515611202565b610385600480360360208110156103d457600080fd5b5035151561123a565b61022a600480360360a08110156103f357600080fd5b506001600160a01b03813581169160208101358216916040820135916060810135916080909101351661129a565b61026861130b565b61022a61131a565b61022a6004803603602081101561044757600080fd5b50356001600160a01b031661131f565b61022a6004803603608081101561046d57600080fd5b506001600160a01b0381358116916020810135916040820135916060013516611331565b610385600480360360408110156104a757600080fd5b50803590602001356113e3565b61022a61143b565b610385600480360360208110156104d257600080fd5b503561144c565b610385600480360360408110156104ef57600080fd5b506001600160a01b03813516906020013515156114e0565b6105396004803603606081101561051d57600080fd5b506001600160a01b038135169060208101359060400135611558565b6040805192835290151560208301528051918290030190f35b61022a6115ac565b6103856004803603602081101561057057600080fd5b50356001600160a01b03166115b2565b6103856004803603602081101561059657600080fd5b50356001600160a01b0316611621565b61022a600480360360208110156105bc57600080fd5b50351515611690565b6105cd61173a565b60408051602080825283518183015283519192839290830191858101910280838360005b838110156106095781810151838201526020016105f1565b505050509050019250505060405180910390f35b6102686117a8565b6102686117b7565b600080600260009054906101000a90046001600160a01b03166001600160a01b0316630842b0766040518163ffffffff1660e01b815260040160206040518083038186803b15801561067e57600080fd5b505afa158015610692573d6000803e3d6000fd5b505050506040513d60208110156106a857600080fd5b5051600854600254919250906000906001600160a01b0316815b84811015610c645760025460408051630e468baf60e41b81526004810184905290516000926001600160a01b03169163e468baf0916024808301926020929190829003018186803b15801561071657600080fd5b505afa15801561072a573d6000803e3d6000fd5b505050506040513d602081101561074057600080fd5b505160025460408051630daf9c2160e41b81526001600160a01b0380851660048301529151939450600093919092169163daf9c210916024808301926020929190829003018186803b15801561079557600080fd5b505afa1580156107a9573d6000803e3d6000fd5b505050506040513d60208110156107bf57600080fd5b50519050806107cf575050610c5c565b60008961085457846001600160a01b03166381a612d6846040518263ffffffff1660e01b815260040180826001600160a01b0316815260200191505060206040518083038186803b15801561082357600080fd5b505afa158015610837573d6000803e3d6000fd5b505050506040513d602081101561084d57600080fd5b50516108ce565b846001600160a01b031663e124e6d2846040518263ffffffff1660e01b815260040180826001600160a01b0316815260200191505060206040518083038186803b1580156108a157600080fd5b505afa1580156108b5573d6000803e3d6000fd5b505050506040513d60208110156108cb57600080fd5b50515b90506000856001600160a01b03166352f55eed856040518263ffffffff1660e01b815260040180826001600160a01b0316815260200191505060206040518083038186803b15801561091f57600080fd5b505afa158015610933573d6000803e3d6000fd5b505050506040513d602081101561094957600080fd5b5051604080516323b95ceb60e21b81526001600160a01b038781166004830152915192935060009291891691638ee573ac91602480820192602092909190829003018186803b15801561099b57600080fd5b505afa1580156109af573d6000803e3d6000fd5b505050506040513d60208110156109c557600080fd5b5051604080516342b60b0360e01b81526001600160a01b0388811660048301529151929350908916916342b60b0391602480820192602092909190829003018186803b158015610a1457600080fd5b505afa158015610a28573d6000803e3d6000fd5b505050506040513d6020811015610a3e57600080fd5b505115610a6e57610a67610a60600a83900a610a5a85876117c6565b90611828565b8a9061186a565b9850610c56565b6000876001600160a01b0316638a78daa8876040518263ffffffff1660e01b815260040180826001600160a01b0316815260200191505060206040518083038186803b158015610abd57600080fd5b505afa158015610ad1573d6000803e3d6000fd5b505050506040513d6020811015610ae757600080fd5b505190508015610b2957600080610aff888785611558565b9150915080610b1957610b128c8361186a565b9b50610b26565b610b238b8361186a565b9a505b50505b610bac886001600160a01b031663f07456ce886040518263ffffffff1660e01b815260040180826001600160a01b0316815260200191505060206040518083038186803b158015610b7957600080fd5b505afa158015610b8d573d6000803e3d6000fd5b505050506040513d6020811015610ba357600080fd5b50518b9061186a565b99506000886001600160a01b031663c3c7b9e9886040518263ffffffff1660e01b815260040180826001600160a01b0316815260200191505060206040518083038186803b158015610bfd57600080fd5b505afa158015610c11573d6000803e3d6000fd5b505050506040513d6020811015610c2757600080fd5b50519050610c51610c4a600a85900a610a5a88610c4489876118c4565b906117c6565b8c9061186a565b9a5050505b50505050505b6001016106c2565b50828211610c7b57610c7683836118c4565b610c7e565b60005b92508260095411610c9c57600954610c979084906118c4565b610c9f565b60005b9450505050505b919050565b600a5460ff1681565b61271081565b6001546001600160a01b031681565b600060026000541415610d11576040805162461bcd60e51b815260206004820152601f60248201526000805160206124e6833981519152604482015290519081900360640190fd5b6002600055610d1e611906565b610d2c878787878787611964565b6001600055979650505050505050565b60085481565b6202a30081565b600060026000541415610d91576040805162461bcd60e51b815260206004820152601f60248201526000805160206124e6833981519152604482015290519081900360640190fd5b6002600055600a5460ff1615610dee576040805162461bcd60e51b815260206004820152601e60248201527f476c704d616e616765723a20616374696f6e206e6f7420656e61626c65640000604482015290519081900360640190fd5b610dfc333387878787611964565b600160005595945050505050565b60065481565b6003546000906001600160a01b0316801580610e8e5750806001600160a01b0316639a11178f6040518163ffffffff1660e01b815260040160206040518083038186803b158015610e6057600080fd5b505afa158015610e74573d6000803e3d6000fd5b505050506040513d6020811015610e8a57600080fd5b5051155b15610f155760025460408051636274980360e01b81526001600160a01b038681166004830152915191909216916362749803916024808301926020929190829003018186803b158015610ee057600080fd5b505afa158015610ef4573d6000803e3d6000fd5b505050506040513d6020811015610f0a57600080fd5b50519150610ca69050565b600b5480610fa05760025460408051636274980360e01b81526001600160a01b038781166004830152915191909216916362749803916024808301926020929190829003018186803b158015610f6a57600080fd5b505afa158015610f7e573d6000803e3d6000fd5b505050506040513d6020811015610f9457600080fd5b50519250610ca6915050565b612710811415610ff757816001600160a01b03166362749803856040518263ffffffff1660e01b815260040180826001600160a01b0316815260200191505060206040518083038186803b158015610f6a57600080fd5b60025460408051636274980360e01b81526001600160a01b03878116600483015291516000939290921691636274980391602480820192602092909190829003018186803b15801561104857600080fd5b505afa15801561105c573d6000803e3d6000fd5b505050506040513d602081101561107257600080fd5b505160408051636274980360e01b81526001600160a01b038881166004830152915192935060009291861691636274980391602480820192602092909190829003018186803b1580156110c457600080fd5b505afa1580156110d8573d6000803e3d6000fd5b505050506040513d60208110156110ee57600080fd5b50519050610c9f612710610a5a61110584876117c6565b61111b611114612710896118c4565b87906117c6565b9061186a565b600c6020526000908152604090205460ff1681565b6001546001600160a01b03163314611183576040805162461bcd60e51b81526020600482015260156024820152600080516020612506833981519152604482015290519081900360640190fd5b612710600b5411156111dc576040805162461bcd60e51b815260206004820152601a60248201527f476c704d616e616765723a20696e76616c696420776569676874000000000000604482015290519081900360640190fd5b600b55565b600b5481565b6003546001600160a01b031681565b670de0b6b3a764000081565b60008061120e8361062d565b90506112336c0c9f2c9cd04674edea40000000610a5a83670de0b6b3a76400006117c6565b9392505050565b6001546001600160a01b03163314611287576040805162461bcd60e51b81526020600482015260156024820152600080516020612506833981519152604482015290519081900360640190fd5b600a805460ff1916911515919091179055565b6000600260005414156112e2576040805162461bcd60e51b815260206004820152601f60248201526000805160206124e6833981519152604482015290519081900360640190fd5b60026000556112ef611906565b6112fc8686868686611c7f565b60016000559695505050505050565b6005546001600160a01b031681565b601281565b60076020526000908152604090205481565b600060026000541415611379576040805162461bcd60e51b815260206004820152601f60248201526000805160206124e6833981519152604482015290519081900360640190fd5b6002600055600a5460ff16156113d6576040805162461bcd60e51b815260206004820152601e60248201527f476c704d616e616765723a20616374696f6e206e6f7420656e61626c65640000604482015290519081900360640190fd5b610dfc3386868686611c7f565b6001546001600160a01b03163314611430576040805162461bcd60e51b81526020600482015260156024820152600080516020612506833981519152604482015290519081900360640190fd5b600891909155600955565b6c0c9f2c9cd04674edea4000000081565b6001546001600160a01b03163314611499576040805162461bcd60e51b81526020600482015260156024820152600080516020612506833981519152604482015290519081900360640190fd5b6202a3008111156114db5760405162461bcd60e51b81526004018080602001828103825260258152602001806124c16025913960400191505060405180910390fd5b600655565b6001546001600160a01b0316331461152d576040805162461bcd60e51b81526020600482015260156024820152600080516020612506833981519152604482015290519081900360640190fd5b6001600160a01b03919091166000908152600c60205260409020805460ff1916911515919091179055565b600080600061156686610e10565b905060008582116115805761157b86836118c4565b61158a565b61158a82876118c4565b9050600061159c83610a5a88856117c6565b9450505084109050935093915050565b60095481565b6001546001600160a01b031633146115ff576040805162461bcd60e51b81526020600482015260156024820152600080516020612506833981519152604482015290519081900360640190fd5b600180546001600160a01b0319166001600160a01b0392909216919091179055565b6001546001600160a01b0316331461166e576040805162461bcd60e51b81526020600482015260156024820152600080516020612506833981519152604482015290519081900360640190fd5b600380546001600160a01b0319166001600160a01b0392909216919091179055565b60008061169c8361062d565b90506000600560009054906101000a90046001600160a01b03166001600160a01b03166318160ddd6040518163ffffffff1660e01b815260040160206040518083038186803b1580156116ee57600080fd5b505afa158015611702573d6000803e3d6000fd5b505050506040513d602081101561171857600080fd5b5051905061173281610a5a84670de0b6b3a76400006117c6565b949350505050565b604080516002808252606080830184529283929190602083019080368337019050509050611768600161062d565b8160008151811061177557fe5b60200260200101818152505061178b600061062d565b8160018151811061179857fe5b6020908102919091010152905090565b6004546001600160a01b031681565b6002546001600160a01b031681565b6000826117d557506000611822565b828202828482816117e257fe5b041461181f5760405162461bcd60e51b81526004018080602001828103825260218152602001806125526021913960400191505060405180910390fd5b90505b92915050565b600061181f83836040518060400160405280601a81526020017f536166654d6174683a206469766973696f6e206279207a65726f00000000000081525061211c565b60008282018381101561181f576040805162461bcd60e51b815260206004820152601b60248201527f536166654d6174683a206164646974696f6e206f766572666c6f770000000000604482015290519081900360640190fd5b600061181f83836040518060400160405280601e81526020017f536166654d6174683a207375627472616374696f6e206f766572666c6f7700008152506121be565b336000908152600c602052604090205460ff16611962576040805162461bcd60e51b815260206004820152601560248201527423b63826b0b730b3b2b91d103337b93134b23232b760591b604482015290519081900360640190fd5b565b60008084116119ba576040805162461bcd60e51b815260206004820152601b60248201527f476c704d616e616765723a20696e76616c6964205f616d6f756e740000000000604482015290519081900360640190fd5b60006119c66001611202565b90506000600560009054906101000a90046001600160a01b03166001600160a01b03166318160ddd6040518163ffffffff1660e01b815260040160206040518083038186803b158015611a1857600080fd5b505afa158015611a2c573d6000803e3d6000fd5b505050506040513d6020811015611a4257600080fd5b5051600254909150611a63906001600160a01b03898116918c911689612218565b6002546040805163817bb85760e01b81526001600160a01b038a811660048301523060248301529151600093929092169163817bb8579160448082019260209290919082900301818787803b158015611abb57600080fd5b505af1158015611acf573d6000803e3d6000fd5b505050506040513d6020811015611ae557600080fd5b5051905085811015611b285760405162461bcd60e51b81526004018080602001828103825260248152602001806125966024913960400191505060405180910390fd5b60008315611b4357611b3e84610a5a84866117c6565b611b45565b815b905085811015611b865760405162461bcd60e51b81526004018080602001828103825260238152602001806125736023913960400191505060405180910390fd5b600554604080516340c10f1960e01b81526001600160a01b038d8116600483015260248201859052915191909216916340c10f1991604480830192600092919082900301818387803b158015611bdb57600080fd5b505af1158015611bef573d6000803e3d6000fd5b5050506001600160a01b03808c166000818152600760209081526040918290204290558151928352928d16928201929092528082018b9052606081018790526080810186905260a0810185905260c0810184905290517f38dc38b96482be64113daffd8d464ebda93e856b70ccfc605e69ccf892ab981e92509081900360e00190a19a9950505050505050505050565b6000808411611cd5576040805162461bcd60e51b815260206004820152601e60248201527f476c704d616e616765723a20696e76616c6964205f676c70416d6f756e740000604482015290519081900360640190fd5b6006546001600160a01b0387166000908152600760205260409020544291611cfd919061186a565b1115611d3a5760405162461bcd60e51b815260040180806020018281038252602c815260200180612526602c913960400191505060405180910390fd5b6000611d466000611202565b90506000600560009054906101000a90046001600160a01b03166001600160a01b03166318160ddd6040518163ffffffff1660e01b815260040160206040518083038186803b158015611d9857600080fd5b505afa158015611dac573d6000803e3d6000fd5b505050506040513d6020811015611dc257600080fd5b505190506000611dd682610a5a89866117c6565b60048054604080516370a0823160e01b81523093810193909352519293506000926001600160a01b03909116916370a08231916024808301926020929190829003018186803b158015611e2857600080fd5b505afa158015611e3c573d6000803e3d6000fd5b505050506040513d6020811015611e5257600080fd5b5051905080821115611ed9576004546001600160a01b03166340c10f1930611e7a85856118c4565b6040518363ffffffff1660e01b815260040180836001600160a01b0316815260200182815260200192505050600060405180830381600087803b158015611ec057600080fd5b505af1158015611ed4573d6000803e3d6000fd5b505050505b60055460408051632770a7eb60e21b81526001600160a01b038d81166004830152602482018c905291519190921691639dc29fac91604480830192600092919082900301818387803b158015611f2e57600080fd5b505af1158015611f42573d6000803e3d6000fd5b5050600480546002546040805163a9059cbb60e01b81526001600160a01b039283169481019490945260248401889052519116935063a9059cbb925060448083019260209291908290030181600087803b158015611f9f57600080fd5b505af1158015611fb3573d6000803e3d6000fd5b505050506040513d6020811015611fc957600080fd5b505060025460408051630711e61960e41b81526001600160a01b038c8116600483015289811660248301529151600093929092169163711e61909160448082019260209290919082900301818787803b15801561202557600080fd5b505af1158015612039573d6000803e3d6000fd5b505050506040513d602081101561204f57600080fd5b50519050878110156120a8576040805162461bcd60e51b815260206004820152601f60248201527f476c704d616e616765723a20696e73756666696369656e74206f757470757400604482015290519081900360640190fd5b604080516001600160a01b03808e1682528c1660208201528082018b9052606081018790526080810186905260a0810185905260c0810183905290517f87b9679bb9a4944bafa98c267e7cd4a00ab29fed48afdefae25f0fca5da279409181900360e00190a19a9950505050505050505050565b600081836121a85760405162461bcd60e51b81526004018080602001828103825283818151815260200191508051906020019080838360005b8381101561216d578181015183820152602001612155565b50505050905090810190601f16801561219a5780820380516001836020036101000a031916815260200191505b509250505060405180910390fd5b5060008385816121b457fe5b0495945050505050565b600081848411156122105760405162461bcd60e51b815260206004820181815283516024840152835190928392604490910191908501908083836000831561216d578181015183820152602001612155565b505050900390565b604080516001600160a01b0380861660248301528416604482015260648082018490528251808303909101815260849091019091526020810180516001600160e01b03166323b872dd60e01b179052612272908590612278565b50505050565b60606122cd826040518060400160405280602081526020017f5361666545524332303a206c6f772d6c6576656c2063616c6c206661696c6564815250856001600160a01b031661232e9092919063ffffffff16565b805190915015612329578080602001905160208110156122ec57600080fd5b50516123295760405162461bcd60e51b815260040180806020018281038252602a8152602001806125ba602a913960400191505060405180910390fd5b505050565b606061173284846000858561234285612454565b612393576040805162461bcd60e51b815260206004820152601d60248201527f416464726573733a2063616c6c20746f206e6f6e2d636f6e7472616374000000604482015290519081900360640190fd5b60006060866001600160a01b031685876040518082805190602001908083835b602083106123d25780518252601f1990920191602091820191016123b3565b6001836020036101000a03801982511681845116808217855250505050505090500191505060006040518083038185875af1925050503d8060008114612434576040519150601f19603f3d011682016040523d82523d6000602084013e612439565b606091505b509150915061244982828661245a565b979650505050505050565b3b151590565b60608315612469575081611233565b8251156124795782518084602001fd5b60405162461bcd60e51b815260206004820181815284516024840152845185939192839260440191908501908083836000831561216d57818101518382015260200161215556fe476c704d616e616765723a20696e76616c6964205f636f6f6c646f776e4475726174696f6e5265656e7472616e637947756172643a207265656e7472616e742063616c6c00476f7665726e61626c653a20666f7262696464656e0000000000000000000000476c704d616e616765723a20636f6f6c646f776e206475726174696f6e206e6f742079657420706173736564536166654d6174683a206d756c7469706c69636174696f6e206f766572666c6f77476c704d616e616765723a20696e73756666696369656e7420474c50206f7574707574476c704d616e616765723a20696e73756666696369656e742055534447206f75747075745361666545524332303a204552433230206f7065726174696f6e20646964206e6f742073756363656564a2646970667358221220c3000b98b35f001a14eb40251db25ad64f3ea1db42d5f721932bf03080e83bd964736f6c634300060c0033","linkReferences":{}},"methodIdentifiers":{"BASIS_POINTS_DIVISOR()":"126082cf","GLP_PRECISION()":"662f1c68","MAX_COOLDOWN_DURATION()":"1e9049cf","PRICE_PRECISION()":"95082d25","USDG_DECIMALS()":"870d917c","addLiquidity(address,uint256,uint256,uint256)":"1ece366a","addLiquidityForAccount(address,address,address,uint256,uint256,uint256)":"17eb2a15","aumAddition()":"196b68cb","aumDeduction()":"b172bb0c","cooldownDuration()":"35269315","getAum(bool)":"03391476","getAumInUsdg(bool)":"68a0a3e0","getAums()":"ed0d1c04","getGlobalShortAveragePrice(address)":"440d828a","getGlobalShortDelta(address,uint256,uint256)":"a1acd3d5","getPrice(bool)":"e245b5af","glp()":"78a207ee","gov()":"12d43a51","inPrivateMode()":"070eacee","isHandler(address)":"46ea87af","lastAddedAt(address)":"8b770e11","removeLiquidity(address,uint256,uint256,address)":"8fed0b2c","removeLiquidityForAccount(address,address,uint256,uint256,address)":"71d597ad","setAumAdjustment(uint256,uint256)":"9116c4ae","setCooldownDuration(uint256)":"966be075","setGov(address)":"cfad57a2","setHandler(address,bool)":"9cb7de4b","setInPrivateMode(bool)":"6a86da19","setShortsTracker(address)":"d34ee093","setShortsTrackerAveragePriceWeight(uint256)":"4f5f6b5e","shortsTracker()":"657bc5d0","shortsTrackerAveragePriceWeight()":"64e6617f","usdg()":"f5b91b7b","vault()":"fbfa77cf"},"id":85}