{"abi":[{"type":"constructor","inputs":[],"stateMutability":"nonpayable"},{"type":"function","name":"USDG_PRECISION","inputs":[],"outputs":[{"name":"","type":"uint256","internalType":"uint256"}],"stateMutability":"view"},{"type":"function","name":"admin","inputs":[],"outputs":[{"name":"","type":"address","internalType":"address"}],"stateMutability":"view"},{"type":"function","name":"ammRouterV1","inputs":[],"outputs":[{"name":"","type":"address","internalType":"address"}],"stateMutability":"view"},{"type":"function","name":"ammRouterV2","inputs":[],"outputs":[{"name":"","type":"address","internalType":"address"}],"stateMutability":"view"},{"type":"function","name":"bnb","inputs":[],"outputs":[{"name":"","type":"address","internalType":"address"}],"stateMutability":"view"},{"type":"function","name":"busd","inputs":[],"outputs":[{"name":"","type":"address","internalType":"address"}],"stateMutability":"view"},{"type":"function","name":"gmt","inputs":[],"outputs":[{"name":"","type":"address","internalType":"address"}],"stateMutability":"view"},{"type":"function","name":"initialize","inputs":[{"name":"_ammRouterV1","type":"address","internalType":"address"},{"name":"_ammRouterV2","type":"address","internalType":"address"},{"name":"_vault","type":"address","internalType":"address"},{"name":"_gmt","type":"address","internalType":"address"},{"name":"_xgmt","type":"address","internalType":"address"},{"name":"_usdg","type":"address","internalType":"address"},{"name":"_bnb","type":"address","internalType":"address"},{"name":"_busd","type":"address","internalType":"address"}],"outputs":[],"stateMutability":"nonpayable"},{"type":"function","name":"isInitialized","inputs":[],"outputs":[{"name":"","type":"bool","internalType":"bool"}],"stateMutability":"view"},{"type":"function","name":"redeemUsdg","inputs":[{"name":"_migrator","type":"address","internalType":"address"},{"name":"_redemptionToken","type":"address","internalType":"address"},{"name":"_usdgAmount","type":"uint256","internalType":"uint256"}],"outputs":[],"stateMutability":"nonpayable"},{"type":"function","name":"refund","inputs":[{"name":"_migrator","type":"address","internalType":"address"},{"name":"_account","type":"address","internalType":"address"},{"name":"_token","type":"address","internalType":"address"},{"name":"_usdgAmount","type":"uint256","internalType":"uint256"}],"outputs":[],"stateMutability":"nonpayable"},{"type":"function","name":"refundedAmounts","inputs":[{"name":"","type":"address","internalType":"address"},{"name":"","type":"address","internalType":"address"}],"outputs":[{"name":"","type":"uint256","internalType":"uint256"}],"stateMutability":"view"},{"type":"function","name":"swap","inputs":[{"name":"_migrator","type":"address","internalType":"address"},{"name":"_gmtAmountForUsdg","type":"uint256","internalType":"uint256"},{"name":"_xgmtAmountForUsdg","type":"uint256","internalType":"uint256"},{"name":"_gmtAmountForBusd","type":"uint256","internalType":"uint256"}],"outputs":[],"stateMutability":"nonpayable"},{"type":"function","name":"usdg","inputs":[],"outputs":[{"name":"","type":"address","internalType":"address"}],"stateMutability":"view"},{"type":"function","name":"vault","inputs":[],"outputs":[{"name":"","type":"address","internalType":"address"}],"stateMutability":"view"},{"type":"function","name":"xgmt","inputs":[],"outputs":[{"name":"","type":"address","internalType":"address"}],"stateMutability":"view"}],"bytecode":{"object":"0x608060405234801561001057600080fd5b506001600081905580546101003302610100600160a81b03199091161790556117188061003e6000396000f3fe608060405234801561001057600080fd5b50600436106101005760003560e01c8063a9eb51c611610097578063f5b91b7b11610066578063f5b91b7b146102b8578063f8322d24146102c0578063f851a440146102c8578063fbfa77cf146102d057610100565b8063a9eb51c614610234578063ade027f61461023c578063c9ec924814610244578063ccc362e71461027c57610100565b80634a686d67116100d35780634a686d671461018d57806370ac0a93146101955780638a29e2de146101cd578063a53064d11461022c57610100565b8063252c322214610105578063392e53cd146101455780633ca5b2341461016157806349a876e414610185575b600080fd5b6101336004803603604081101561011b57600080fd5b506001600160a01b03813581169160200135166102d8565b60408051918252519081900360200190f35b61014d6102f5565b604080519115158252519081900360200190f35b6101696102fe565b604080516001600160a01b039092168252519081900360200190f35b61016961030d565b61013361031c565b6101cb600480360360608110156101ab57600080fd5b506001600160a01b03813581169160208101359091169060400135610328565b005b6101cb60048036036101008110156101e457600080fd5b506001600160a01b038135811691602081013582169160408201358116916060810135821691608082013581169160a081013582169160c082013581169160e001351661082b565b610169610959565b610169610968565b610169610977565b6101cb6004803603608081101561025a57600080fd5b506001600160a01b038135169060208101359060408101359060600135610986565b6101cb6004803603608081101561029257600080fd5b506001600160a01b03813581169160208101358216916040820135169060600135611201565b6101696114eb565b6101696114fa565b610169611509565b61016961151d565b600a60209081526000928352604080842090915290825290205481565b60015460ff1681565b6009546001600160a01b031681565b6008546001600160a01b031681565b670de0b6b3a764000081565b60015461010090046001600160a01b0316331461037a576040805162461bcd60e51b815260206004820152601b6024820152600080516020611672833981519152604482015290519081900360640190fd5b600260005414156103d2576040805162461bcd60e51b815260206004820152601f60248201527f5265656e7472616e637947756172643a207265656e7472616e742063616c6c00604482015290519081900360640190fd5b6002600090815560075460048054604080516323b872dd60e01b81526001600160a01b03898116948201949094529183166024830152604482018690525191909216926323b872dd92606480820193602093909283900390910190829087803b15801561043e57600080fd5b505af1158015610452573d6000803e3d6000fd5b505050506040513d602081101561046857600080fd5b50506004805460408051630711e61960e41b81526001600160a01b038681169482019490945230602482015290516000939092169163711e61909160448082019260209290919082900301818787803b1580156104c457600080fd5b505af11580156104d8573d6000803e3d6000fd5b505050506040513d60208110156104ee57600080fd5b5051604080516002808252606080830184529394509091602083019080368337505060085482519293506001600160a01b03169183915060009061052e57fe5b6001600160a01b03928316602091820292909201015260095482519116908290600190811061055957fe5b6001600160a01b0392831660209182029290920101526008548582169116146106225760408051600380825260808201909252906020820160608036833701905050905083816000815181106105ab57fe5b6001600160a01b0392831660209182029290920101526008548251911690829060019081106105d657fe5b6001600160a01b03928316602091820292909201015260095482519116908290600290811061060157fe5b60200260200101906001600160a01b031690816001600160a01b0316815250505b6003546040805163095ea7b360e01b81526001600160a01b0392831660048201526024810185905290519186169163095ea7b3916044808201926020929091908290030181600087803b15801561067857600080fd5b505af115801561068c573d6000803e3d6000fd5b505050506040513d60208110156106a257600080fd5b50506003546040516338ed173960e01b8152600481018481526000602483018190526001600160a01b038981166064850152426084850181905260a060448601908152875160a4870152875192909616956338ed173995899589948e9493919260c40190602087810191028083838b5b8381101561072a578181015183820152602001610712565b505050509050019650505050505050600060405180830381600087803b15801561075357600080fd5b505af1158015610767573d6000803e3d6000fd5b505050506040513d6000823e601f3d908101601f19168201604052602081101561079057600080fd5b81019080805160405193929190846401000000008211156107b057600080fd5b9083019060208201858111156107c557600080fd5b82518660208202830111640100000000821117156107e257600080fd5b82525081516020918201928201910280838360005b8381101561080f5781810151838201526020016107f7565b5050505091909101604052505060016000555050505050505050565b60015461010090046001600160a01b0316331461087d576040805162461bcd60e51b815260206004820152601b6024820152600080516020611672833981519152604482015290519081900360640190fd5b60015460ff16156108bf5760405162461bcd60e51b81526004018080602001828103825260258152602001806116926025913960400191505060405180910390fd5b6001805460ff191681179055600280546001600160a01b03199081166001600160a01b039a8b1617909155600380548216988a1698909817909755600480548816968916969096179095556005805487169488169490941790935560068054861692871692909217909155600780548516918616919091179055600880548416918516919091179055600980549092169216919091179055565b6002546001600160a01b031681565b6006546001600160a01b031681565b6003546001600160a01b031681565b60015461010090046001600160a01b031633146109d8576040805162461bcd60e51b815260206004820152601b6024820152600080516020611672833981519152604482015290519081900360640190fd5b60026000541415610a30576040805162461bcd60e51b815260206004820152601f60248201527f5265656e7472616e637947756172643a207265656e7472616e742063616c6c00604482015290519081900360640190fd5b600260008190556040805182815260608082018352929091602083019080368337505060055482519293506001600160a01b031691839150600090610a7157fe5b6001600160a01b039283166020918202929092010152600754825191169082906001908110610a9c57fe5b6001600160a01b03928316602091820292909201810191909152600554604080516323b872dd60e01b8152898516600482015230602482015260448101899052905191909316926323b872dd9260648083019391928290030181600087803b158015610b0757600080fd5b505af1158015610b1b573d6000803e3d6000fd5b505050506040513d6020811015610b3157600080fd5b50506005546003546040805163095ea7b360e01b81526001600160a01b039283166004820152602481018890529051919092169163095ea7b39160448083019260209291908290030181600087803b158015610b8c57600080fd5b505af1158015610ba0573d6000803e3d6000fd5b505050506040513d6020811015610bb657600080fd5b50506003546040516338ed173960e01b8152600481018681526000602483018190526001600160a01b038981166064850152426084850181905260a060448601908152875160a4870152875192909616956338ed1739958b9589948e9493919260c40190602087810191028083838b5b83811015610c3e578181015183820152602001610c26565b505050509050019650505050505050600060405180830381600087803b158015610c6757600080fd5b505af1158015610c7b573d6000803e3d6000fd5b505050506040513d6000823e601f3d908101601f191682016040526020811015610ca457600080fd5b8101908080516040519392919084640100000000821115610cc457600080fd5b908301906020820185811115610cd957600080fd5b8251866020820283011164010000000082111715610cf657600080fd5b82525081516020918201928201910280838360005b83811015610d23578181015183820152602001610d0b565b5050505090500160405250505050600660009054906101000a90046001600160a01b031681600081518110610d5457fe5b6001600160a01b039283166020918202929092010152600754825191169082906001908110610d7f57fe5b6001600160a01b03928316602091820292909201810191909152600654604080516323b872dd60e01b8152898516600482015230602482015260448101889052905191909316926323b872dd9260648083019391928290030181600087803b158015610dea57600080fd5b505af1158015610dfe573d6000803e3d6000fd5b505050506040513d6020811015610e1457600080fd5b50506006546003546040805163095ea7b360e01b81526001600160a01b039283166004820152602481018790529051919092169163095ea7b39160448083019260209291908290030181600087803b158015610e6f57600080fd5b505af1158015610e83573d6000803e3d6000fd5b505050506040513d6020811015610e9957600080fd5b50506003546040516338ed173960e01b8152600481018581526000602483018190526001600160a01b038981166064850152426084850181905260a060448601908152875160a4870152875192909616956338ed1739958a9589948e9493919260c40190602087810191028083838b5b83811015610f21578181015183820152602001610f09565b505050509050019650505050505050600060405180830381600087803b158015610f4a57600080fd5b505af1158015610f5e573d6000803e3d6000fd5b505050506040513d6000823e601f3d908101601f191682016040526020811015610f8757600080fd5b8101908080516040519392919084640100000000821115610fa757600080fd5b908301906020820185811115610fbc57600080fd5b8251866020820283011164010000000082111715610fd957600080fd5b82525081516020918201928201910280838360005b83811015611006578181015183820152602001610fee565b5050505090500160405250505050600560009054906101000a90046001600160a01b03168160008151811061103757fe5b6001600160a01b03928316602091820292909201015260095482519116908290600190811061106257fe5b6001600160a01b03928316602091820292909201810191909152600554604080516323b872dd60e01b8152898516600482015230602482015260448101879052905191909316926323b872dd9260648083019391928290030181600087803b1580156110cd57600080fd5b505af11580156110e1573d6000803e3d6000fd5b505050506040513d60208110156110f757600080fd5b50506005546002546040805163095ea7b360e01b81526001600160a01b039283166004820152602481018690529051919092169163095ea7b39160448083019260209291908290030181600087803b15801561115257600080fd5b505af1158015611166573d6000803e3d6000fd5b505050506040513d602081101561117c57600080fd5b50506002546040516338ed173960e01b8152600481018481526000602483018190526001600160a01b038981166064850152426084850181905260a060448601908152875160a4870152875192909616956338ed173995899589948e9493919260c40190602087810191028083838b831561072a578181015183820152602001610712565b60015461010090046001600160a01b03163314611253576040805162461bcd60e51b815260206004820152601b6024820152600080516020611672833981519152604482015290519081900360640190fd5b600260005414156112ab576040805162461bcd60e51b815260206004820152601f60248201527f5265656e7472616e637947756172643a207265656e7472616e742063616c6c00604482015290519081900360640190fd5b60026000819055506000846001600160a01b03166341410d4a846040518263ffffffff1660e01b815260040180826001600160a01b0316815260200191505060206040518083038186803b15801561130257600080fd5b505afa158015611316573d6000803e3d6000fd5b505050506040513d602081101561132c57600080fd5b5051604080516370a0823160e01b81526001600160a01b0387811660048301529151929350600092918416916370a0823191602480820192602092909190829003018186803b15801561137e57600080fd5b505afa158015611392573d6000803e3d6000fd5b505050506040513d60208110156113a857600080fd5b5051905060006113b984600261152c565b6001600160a01b038088166000908152600a60209081526040808320938816835292905220549091506113ec8183611575565b6001600160a01b038881166000908152600a602090815260408083209389168352929052208190558310156114525760405162461bcd60e51b815260040180806020018281038252602c8152602001806116b7602c913960400191505060405180910390fd5b600754604080516323b872dd60e01b81526001600160a01b038b811660048301528a8116602483015260448201899052915191909216916323b872dd9160648083019260209291908290030181600087803b1580156114b057600080fd5b505af11580156114c4573d6000803e3d6000fd5b505050506040513d60208110156114da57600080fd5b505060016000555050505050505050565b6007546001600160a01b031681565b6005546001600160a01b031681565b60015461010090046001600160a01b031681565b6004546001600160a01b031681565b600061156e83836040518060400160405280601a81526020017f536166654d6174683a206469766973696f6e206279207a65726f0000000000008152506115cf565b9392505050565b60008282018381101561156e576040805162461bcd60e51b815260206004820152601b60248201527f536166654d6174683a206164646974696f6e206f766572666c6f770000000000604482015290519081900360640190fd5b6000818361165b5760405162461bcd60e51b81526004018080602001828103825283818151815260200191508051906020019080838360005b83811015611620578181015183820152602001611608565b50505050905090810190601f16801561164d5780820380516001836020036101000a031916815260200191505b509250505060405180910390fd5b50600083858161166757fe5b049594505050505056fe4d6967726174696f6e48616e646c65723a20666f7262696464656e00000000004d6967726174696f6e48616e646c65723a20616c726561647920696e697469616c697a65644d6967726174696f6e48616e646c65723a20726566756e6461626c6520616d6f756e74206578636565646564a2646970667358221220677e1e5672eb792a44257e103930b066cf62a9050e03c0df9e55c07d91be201364736f6c634300060c0033","linkReferences":{}},"methodIdentifiers":{"USDG_PRECISION()":"4a686d67","admin()":"f851a440","ammRouterV1()":"a53064d1","ammRouterV2()":"ade027f6","bnb()":"49a876e4","busd()":"3ca5b234","gmt()":"f8322d24","initialize(address,address,address,address,address,address,address,address)":"8a29e2de","isInitialized()":"392e53cd","redeemUsdg(address,address,uint256)":"70ac0a93","refund(address,address,address,uint256)":"ccc362e7","refundedAmounts(address,address)":"252c3222","swap(address,uint256,uint256,uint256)":"c9ec9248","usdg()":"f5b91b7b","vault()":"fbfa77cf","xgmt()":"a9eb51c6"},"id":114}