{"abi":[{"type":"constructor","inputs":[{"name":"_name","type":"string","internalType":"string"},{"name":"_symbol","type":"string","internalType":"string"},{"name":"_initialSupply","type":"uint256","internalType":"uint256"}],"stateMutability":"nonpayable"},{"type":"function","name":"addAdmin","inputs":[{"name":"_account","type":"address","internalType":"address"}],"outputs":[],"stateMutability":"nonpayable"},{"type":"function","name":"addNonStakingAccount","inputs":[{"name":"_account","type":"address","internalType":"address"}],"outputs":[],"stateMutability":"nonpayable"},{"type":"function","name":"admins","inputs":[{"name":"","type":"address","internalType":"address"}],"outputs":[{"name":"","type":"bool","internalType":"bool"}],"stateMutability":"view"},{"type":"function","name":"allowance","inputs":[{"name":"_owner","type":"address","internalType":"address"},{"name":"_spender","type":"address","internalType":"address"}],"outputs":[{"name":"","type":"uint256","internalType":"uint256"}],"stateMutability":"view"},{"type":"function","name":"allowances","inputs":[{"name":"","type":"address","internalType":"address"},{"name":"","type":"address","internalType":"address"}],"outputs":[{"name":"","type":"uint256","internalType":"uint256"}],"stateMutability":"view"},{"type":"function","name":"approve","inputs":[{"name":"_spender","type":"address","internalType":"address"},{"name":"_amount","type":"uint256","internalType":"uint256"}],"outputs":[{"name":"","type":"bool","internalType":"bool"}],"stateMutability":"nonpayable"},{"type":"function","name":"balanceOf","inputs":[{"name":"_account","type":"address","internalType":"address"}],"outputs":[{"name":"","type":"uint256","internalType":"uint256"}],"stateMutability":"view"},{"type":"function","name":"balances","inputs":[{"name":"","type":"address","internalType":"address"}],"outputs":[{"name":"","type":"uint256","internalType":"uint256"}],"stateMutability":"view"},{"type":"function","name":"batchMint","inputs":[{"name":"_accounts","type":"address[]","internalType":"address[]"},{"name":"_amounts","type":"uint256[]","internalType":"uint256[]"}],"outputs":[],"stateMutability":"nonpayable"},{"type":"function","name":"burn","inputs":[{"name":"_account","type":"address","internalType":"address"},{"name":"_amount","type":"uint256","internalType":"uint256"}],"outputs":[],"stateMutability":"nonpayable"},{"type":"function","name":"claim","inputs":[{"name":"_receiver","type":"address","internalType":"address"}],"outputs":[],"stateMutability":"nonpayable"},{"type":"function","name":"decimals","inputs":[],"outputs":[{"name":"","type":"uint8","internalType":"uint8"}],"stateMutability":"view"},{"type":"function","name":"gov","inputs":[],"outputs":[{"name":"","type":"address","internalType":"address"}],"stateMutability":"view"},{"type":"function","name":"inPrivateTransferMode","inputs":[],"outputs":[{"name":"","type":"bool","internalType":"bool"}],"stateMutability":"view"},{"type":"function","name":"isHandler","inputs":[{"name":"","type":"address","internalType":"address"}],"outputs":[{"name":"","type":"bool","internalType":"bool"}],"stateMutability":"view"},{"type":"function","name":"isMinter","inputs":[{"name":"","type":"address","internalType":"address"}],"outputs":[{"name":"","type":"bool","internalType":"bool"}],"stateMutability":"view"},{"type":"function","name":"mint","inputs":[{"name":"_account","type":"address","internalType":"address"},{"name":"_amount","type":"uint256","internalType":"uint256"}],"outputs":[],"stateMutability":"nonpayable"},{"type":"function","name":"name","inputs":[],"outputs":[{"name":"","type":"string","internalType":"string"}],"stateMutability":"view"},{"type":"function","name":"nonStakingAccounts","inputs":[{"name":"","type":"address","internalType":"address"}],"outputs":[{"name":"","type":"bool","internalType":"bool"}],"stateMutability":"view"},{"type":"function","name":"nonStakingSupply","inputs":[],"outputs":[{"name":"","type":"uint256","internalType":"uint256"}],"stateMutability":"view"},{"type":"function","name":"recoverClaim","inputs":[{"name":"_account","type":"address","internalType":"address"},{"name":"_receiver","type":"address","internalType":"address"}],"outputs":[],"stateMutability":"nonpayable"},{"type":"function","name":"removeAdmin","inputs":[{"name":"_account","type":"address","internalType":"address"}],"outputs":[],"stateMutability":"nonpayable"},{"type":"function","name":"removeNonStakingAccount","inputs":[{"name":"_account","type":"address","internalType":"address"}],"outputs":[],"stateMutability":"nonpayable"},{"type":"function","name":"setGov","inputs":[{"name":"_gov","type":"address","internalType":"address"}],"outputs":[],"stateMutability":"nonpayable"},{"type":"function","name":"setHandler","inputs":[{"name":"_handler","type":"address","internalType":"address"},{"name":"_isActive","type":"bool","internalType":"bool"}],"outputs":[],"stateMutability":"nonpayable"},{"type":"function","name":"setInPrivateTransferMode","inputs":[{"name":"_inPrivateTransferMode","type":"bool","internalType":"bool"}],"outputs":[],"stateMutability":"nonpayable"},{"type":"function","name":"setInfo","inputs":[{"name":"_name","type":"string","internalType":"string"},{"name":"_symbol","type":"string","internalType":"string"}],"outputs":[],"stateMutability":"nonpayable"},{"type":"function","name":"setMinter","inputs":[{"name":"_minter","type":"address","internalType":"address"},{"name":"_isActive","type":"bool","internalType":"bool"}],"outputs":[],"stateMutability":"nonpayable"},{"type":"function","name":"setYieldTrackers","inputs":[{"name":"_yieldTrackers","type":"address[]","internalType":"address[]"}],"outputs":[],"stateMutability":"nonpayable"},{"type":"function","name":"stakedBalance","inputs":[{"name":"_account","type":"address","internalType":"address"}],"outputs":[{"name":"","type":"uint256","internalType":"uint256"}],"stateMutability":"view"},{"type":"function","name":"symbol","inputs":[],"outputs":[{"name":"","type":"string","internalType":"string"}],"stateMutability":"view"},{"type":"function","name":"totalStaked","inputs":[],"outputs":[{"name":"","type":"uint256","internalType":"uint256"}],"stateMutability":"view"},{"type":"function","name":"totalSupply","inputs":[],"outputs":[{"name":"","type":"uint256","internalType":"uint256"}],"stateMutability":"view"},{"type":"function","name":"transfer","inputs":[{"name":"_recipient","type":"address","internalType":"address"},{"name":"_amount","type":"uint256","internalType":"uint256"}],"outputs":[{"name":"","type":"bool","internalType":"bool"}],"stateMutability":"nonpayable"},{"type":"function","name":"transferFrom","inputs":[{"name":"_sender","type":"address","internalType":"address"},{"name":"_recipient","type":"address","internalType":"address"},{"name":"_amount","type":"uint256","internalType":"uint256"}],"outputs":[{"name":"","type":"bool","internalType":"bool"}],"stateMutability":"nonpayable"},{"type":"function","name":"withdrawToken","inputs":[{"name":"_token","type":"address","internalType":"address"},{"name":"_account","type":"address","internalType":"address"},{"name":"_amount","type":"uint256","internalType":"uint256"}],"outputs":[],"stateMutability":"nonpayable"},{"type":"function","name":"yieldTrackers","inputs":[{"name":"","type":"uint256","internalType":"uint256"}],"outputs":[{"name":"","type":"address","internalType":"address"}],"stateMutability":"view"},{"type":"event","name":"Approval","inputs":[{"name":"owner","type":"address","indexed":true,"internalType":"address"},{"name":"spender","type":"address","indexed":true,"internalType":"address"},{"name":"value","type":"uint256","indexed":false,"internalType":"uint256"}],"anonymous":false},{"type":"event","name":"Transfer","inputs":[{"name":"from","type":"address","indexed":true,"internalType":"address"},{"name":"to","type":"address","indexed":true,"internalType":"address"},{"name":"value","type":"uint256","indexed":false,"internalType":"uint256"}],"anonymous":false}],"bytecode":{"object":"0x60806040523480156200001157600080fd5b50604051620028f3380380620028f3833981810160405260608110156200003757600080fd5b81019080805160405193929190846401000000008211156200005857600080fd5b9083019060208201858111156200006e57600080fd5b82516401000000008111828201881017156200008957600080fd5b82525081516020918201929091019080838360005b83811015620000b85781810151838201526020016200009e565b50505050905090810190601f168015620000e65780820380516001836020036101000a031916815260200191505b50604052602001805160405193929190846401000000008211156200010a57600080fd5b9083019060208201858111156200012057600080fd5b82516401000000008111828201881017156200013b57600080fd5b82525081516020918201929091019080838360005b838110156200016a57818101518382015260200162000150565b50505050905090810190601f168015620001985780820380516001836020036101000a031916815260200191505b50604052602090810151855190935085925084918491849184918491620001c59160009186019062000443565b508151620001db90600190602085019062000443565b50600480546001600160a01b03191633908117909155620001fd90826200020c565b505050505050505050620004df565b6001600160a01b038216620002535760405162461bcd60e51b8152600401808060200182810382526023815260200180620028d06023913960400191505060405180910390fd5b6200025e8262000342565b6200027a81600254620003e160201b620016911790919060201c565b6002556001600160a01b038216600090815260056020908152604090912054620002af91839062001691620003e1821b17901c565b6001600160a01b03831660009081526005602090815260408083209390935560089052205460ff1615620002fd57620002f981600354620003e160201b620016911790919060201c565b6003555b6040805182815290516001600160a01b038416916000917fddf252ad1be2c89b69c2b068fc378daa952ba7f163c4a11628f55a4df523b3ef9181900360200190a35050565b60005b600754811015620003dd576000600782815481106200036057fe5b600091825260208220015460408051635fd6196560e01b81526001600160a01b03878116600483015291519190921693508392635fd61965926024808201939182900301818387803b158015620003b657600080fd5b505af1158015620003cb573d6000803e3d6000fd5b50506001909301925062000345915050565b5050565b6000828201838110156200043c576040805162461bcd60e51b815260206004820152601b60248201527f536166654d6174683a206164646974696f6e206f766572666c6f770000000000604482015290519081900360640190fd5b9392505050565b828054600181600116156101000203166002900490600052602060002090601f016020900481019282601f106200048657805160ff1916838001178555620004b6565b82800160010185558215620004b6579182015b82811115620004b657825182559160200191906001019062000499565b50620004c4929150620004c8565b5090565b5b80821115620004c45760008155600101620004c9565b6123e180620004ef6000396000f3fe608060405234801561001057600080fd5b50600436106102275760003560e01c806362289077116101305780639dc29fac116100b8578063cf456ae71161007c578063cf456ae7146109a4578063cfad57a2146109d2578063dd62ed3e146109f8578063dfbaefb114610a26578063fb30d91614610a2e57610227565b80639dc29fac146107f5578063a9059cbb14610821578063a923fc401461084d578063aa271e1a14610976578063c93be6361461099c57610227565b8063817b1cd2116100ff578063817b1cd2146107635780639554381a1461076b57806395d89b4114610791578063996f11ee146107995780639cb7de4b146107c757610227565b806362289077146105ce57806368573107146105f4578063704802751461071757806370a082311461073d57610227565b806327e235e3116101b357806346ea87af1161018257806346ea87af1461051857806352cd38d91461053e57806355b6ed5c1461055b5780635a47a1a71461058957806360217267146105a857610227565b806327e235e314610482578063313ce567146104a857806340c10f19146104c6578063429b62e5146104f257610227565b80631785f53c116101fa5780631785f53c1461034557806318160ddd1461036b5780631e83409a1461038557806323b872dd146103ab578063276eab4e146103e157610227565b806301e336671461022c57806306fdde0314610264578063095ea7b3146102e157806312d43a5114610321575b600080fd5b6102626004803603606081101561024257600080fd5b506001600160a01b03813581169160208101359091169060400135610a54565b005b61026c610aba565b6040805160208082528351818301528351919283929083019185019080838360005b838110156102a657818101518382015260200161028e565b50505050905090810190601f1680156102d35780820380516001836020036101000a031916815260200191505b509250505060405180910390f35b61030d600480360360408110156102f757600080fd5b506001600160a01b038135169060200135610b48565b604080519115158252519081900360200190f35b610329610b5e565b604080516001600160a01b039092168252519081900360200190f35b6102626004803603602081101561035b57600080fd5b50356001600160a01b0316610b6d565b610373610bdb565b60408051918252519081900360200190f35b6102626004803603602081101561039b57600080fd5b50356001600160a01b0316610be1565b61030d600480360360608110156103c157600080fd5b506001600160a01b03813581169160208101359091169060400135610c98565b610262600480360360208110156103f757600080fd5b810190602081018135600160201b81111561041157600080fd5b82018360208201111561042357600080fd5b803590602001918460208302840111600160201b8311171561044457600080fd5b919080806020026020016040519081016040528093929190818152602001838360200280828437600092019190915250929550610d32945050505050565b6103736004803603602081101561049857600080fd5b50356001600160a01b0316610d92565b6104b0610da4565b6040805160ff9092168252519081900360200190f35b610262600480360360408110156104dc57600080fd5b506001600160a01b038135169060200135610da9565b61030d6004803603602081101561050857600080fd5b50356001600160a01b0316610e17565b61030d6004803603602081101561052e57600080fd5b50356001600160a01b0316610e2c565b6103296004803603602081101561055457600080fd5b5035610e41565b6103736004803603604081101561057157600080fd5b506001600160a01b0381358116916020013516610e68565b6102626004803603602081101561059f57600080fd5b50351515610e85565b610373600480360360208110156105be57600080fd5b50356001600160a01b0316610ee5565b610262600480360360208110156105e457600080fd5b50356001600160a01b0316610f2e565b6102626004803603604081101561060a57600080fd5b810190602081018135600160201b81111561062457600080fd5b82018360208201111561063657600080fd5b803590602001918460208302840111600160201b8311171561065757600080fd5b9190808060200260200160405190810160405280939291908181526020018383602002808284376000920191909152509295949360208101935035915050600160201b8111156106a657600080fd5b8201836020820111156106b857600080fd5b803590602001918460208302840111600160201b831117156106d957600080fd5b919080806020026020016040519081016040528093929190818152602001838360200280828437600092019190915250929550611021945050505050565b6102626004803603602081101561072d57600080fd5b50356001600160a01b03166110d5565b6103736004803603602081101561075357600080fd5b50356001600160a01b0316611146565b610373611161565b61030d6004803603602081101561078157600080fd5b50356001600160a01b031661117f565b61026c611194565b610262600480360360408110156107af57600080fd5b506001600160a01b03813581169160200135166111ee565b610262600480360360408110156107dd57600080fd5b506001600160a01b03813516906020013515156112f5565b6102626004803603604081101561080b57600080fd5b506001600160a01b03813516906020013561136d565b61030d6004803603604081101561083757600080fd5b506001600160a01b0381351690602001356113db565b6102626004803603604081101561086357600080fd5b810190602081018135600160201b81111561087d57600080fd5b82018360208201111561088f57600080fd5b803590602001918460018302840111600160201b831117156108b057600080fd5b91908080601f0160208091040260200160405190810160405280939291908181526020018383808284376000920191909152509295949360208101935035915050600160201b81111561090257600080fd5b82018360208201111561091457600080fd5b803590602001918460018302840111600160201b8311171561093557600080fd5b91908080601f0160208091040260200160405190810160405280939291908181526020018383808284376000920191909152509295506113e8945050505050565b61030d6004803603602081101561098c57600080fd5b50356001600160a01b031661145c565b610373611471565b610262600480360360408110156109ba57600080fd5b506001600160a01b0381351690602001351515611477565b610262600480360360208110156109e857600080fd5b50356001600160a01b03166114ef565b61037360048036036040811015610a0e57600080fd5b506001600160a01b038135811691602001351661155e565b61030d611589565b61026260048036036020811015610a4457600080fd5b50356001600160a01b0316611592565b6004546001600160a01b03163314610aa1576040805162461bcd60e51b8152602060048201526014602482015260008051602061227a833981519152604482015290519081900360640190fd5b610ab56001600160a01b03841683836116eb565b505050565b6000805460408051602060026001851615610100026000190190941693909304601f81018490048402820184019092528181529291830182828015610b405780601f10610b1557610100808354040283529160200191610b40565b820191906000526020600020905b815481529060010190602001808311610b2357829003601f168201915b505050505081565b6000610b5533848461173d565b50600192915050565b6004546001600160a01b031681565b6004546001600160a01b03163314610bba576040805162461bcd60e51b8152602060048201526014602482015260008051602061227a833981519152604482015290519081900360640190fd5b6001600160a01b03166000908152600960205260409020805460ff19169055565b60025481565b60005b600754811015610c9457600060078281548110610bfd57fe5b6000918252602080832090910154604080516310e059a160e11b81523360048201526001600160a01b038881166024830152915191909216945084936321c0b34293604480850194919392918390030190829087803b158015610c5f57600080fd5b505af1158015610c73573d6000803e3d6000fd5b505050506040513d6020811015610c8957600080fd5b505050600101610be4565b5050565b336000908152600b602052604081205460ff1615610cc357610cbb848484611829565b506001610d2b565b6000610d0d836040518060600160405280602c8152602001612228602c91396001600160a01b03881660009081526006602090815260408083203384529091529020549190611a51565b9050610d1a85338361173d565b610d25858585611829565b60019150505b9392505050565b6004546001600160a01b03163314610d7f576040805162461bcd60e51b8152602060048201526014602482015260008051602061227a833981519152604482015290519081900360640190fd5b8051610c9490600790602084019061207f565b60056020526000908152604090205481565b601281565b336000908152600c602052604090205460ff16610e0d576040805162461bcd60e51b815260206004820152601c60248201527f4d696e7461626c6542617365546f6b656e3a20666f7262696464656e00000000604482015290519081900360640190fd5b610c948282611ae8565b60096020526000908152604090205460ff1681565b600b6020526000908152604090205460ff1681565b60078181548110610e4e57fe5b6000918252602090912001546001600160a01b0316905081565b600660209081526000928352604080842090915290825290205481565b6004546001600160a01b03163314610ed2576040805162461bcd60e51b8152602060048201526014602482015260008051602061227a833981519152604482015290519081900360640190fd5b600a805460ff1916911515919091179055565b6001600160a01b03811660009081526008602052604081205460ff1615610f0e57506000610f29565b506001600160a01b0381166000908152600560205260409020545b919050565b3360009081526009602052604090205460ff16610f80576040805162461bcd60e51b8152602060048201526014602482015260008051602061227a833981519152604482015290519081900360640190fd5b6001600160a01b03811660009081526008602052604090205460ff1615610fd85760405162461bcd60e51b81526004018080602001828103825260228152602001806122ec6022913960400191505060405180910390fd5b610fe181611bec565b6001600160a01b0381166000908152600860209081526040808320805460ff19166001179055600590915290205460035461101b91611691565b60035550565b336000908152600c602052604090205460ff16611085576040805162461bcd60e51b815260206004820152601c60248201527f4d696e7461626c6542617365546f6b656e3a20666f7262696464656e00000000604482015290519081900360640190fd5b60005b8251811015610ab557600083828151811061109f57fe5b6020026020010151905060008383815181106110b757fe5b602002602001015190506110cb8282611ae8565b5050600101611088565b6004546001600160a01b03163314611122576040805162461bcd60e51b8152602060048201526014602482015260008051602061227a833981519152604482015290519081900360640190fd5b6001600160a01b03166000908152600960205260409020805460ff19166001179055565b6001600160a01b031660009081526005602052604090205490565b600061117a600354600254611c8290919063ffffffff16565b905090565b60086020526000908152604090205460ff1681565b60018054604080516020600284861615610100026000190190941693909304601f81018490048402820184019092528181529291830182828015610b405780601f10610b1557610100808354040283529160200191610b40565b3360009081526009602052604090205460ff16611240576040805162461bcd60e51b8152602060048201526014602482015260008051602061227a833981519152604482015290519081900360640190fd5b60005b600754811015610ab55760006007828154811061125c57fe5b6000918252602080832090910154604080516310e059a160e11b81526001600160a01b0389811660048301528881166024830152915191909216945084936321c0b34293604480850194919392918390030190829087803b1580156112c057600080fd5b505af11580156112d4573d6000803e3d6000fd5b505050506040513d60208110156112ea57600080fd5b505050600101611243565b6004546001600160a01b03163314611342576040805162461bcd60e51b8152602060048201526014602482015260008051602061227a833981519152604482015290519081900360640190fd5b6001600160a01b03919091166000908152600b60205260409020805460ff1916911515919091179055565b336000908152600c602052604090205460ff166113d1576040805162461bcd60e51b815260206004820152601c60248201527f4d696e7461626c6542617365546f6b656e3a20666f7262696464656e00000000604482015290519081900360640190fd5b610c948282611cc4565b6000610b55338484611829565b6004546001600160a01b03163314611435576040805162461bcd60e51b8152602060048201526014602482015260008051602061227a833981519152604482015290519081900360640190fd5b81516114489060009060208501906120e4565b508051610ab59060019060208401906120e4565b600c6020526000908152604090205460ff1681565b60035481565b6004546001600160a01b031633146114c4576040805162461bcd60e51b8152602060048201526014602482015260008051602061227a833981519152604482015290519081900360640190fd5b6001600160a01b03919091166000908152600c60205260409020805460ff1916911515919091179055565b6004546001600160a01b0316331461153c576040805162461bcd60e51b8152602060048201526014602482015260008051602061227a833981519152604482015290519081900360640190fd5b600480546001600160a01b0319166001600160a01b0392909216919091179055565b6001600160a01b03918216600090815260066020908152604080832093909416825291909152205490565b600a5460ff1681565b3360009081526009602052604090205460ff166115e4576040805162461bcd60e51b8152602060048201526014602482015260008051602061227a833981519152604482015290519081900360640190fd5b6001600160a01b03811660009081526008602052604090205460ff16611651576040805162461bcd60e51b815260206004820152601e60248201527f42617365546f6b656e3a205f6163636f756e74206e6f74206d61726b65640000604482015290519081900360640190fd5b61165a81611bec565b6001600160a01b0381166000908152600860209081526040808320805460ff19169055600590915290205460035461101b91611c82565b600082820183811015610d2b576040805162461bcd60e51b815260206004820152601b60248201527f536166654d6174683a206164646974696f6e206f766572666c6f770000000000604482015290519081900360640190fd5b604080516001600160a01b038416602482015260448082018490528251808303909101815260649091019091526020810180516001600160e01b031663a9059cbb60e01b179052610ab5908490611def565b6001600160a01b0383166117825760405162461bcd60e51b815260040180806020018281038252602881526020018061229a6028913960400191505060405180910390fd5b6001600160a01b0382166117c75760405162461bcd60e51b81526004018080602001828103825260268152602001806122026026913960400191505060405180910390fd5b6001600160a01b03808416600081815260066020908152604080832094871680845294825291829020859055815185815291517f8c5be1e5ebec7d5bd14f71427d1e84f3dd0314c0f7b2291e5b200ac8c7c3b9259281900390910190a3505050565b6001600160a01b03831661186e5760405162461bcd60e51b81526004018080602001828103825260298152602001806123836029913960400191505060405180910390fd5b6001600160a01b0382166118b35760405162461bcd60e51b81526004018080602001828103825260278152602001806121b86027913960400191505060405180910390fd5b600a5460ff161561190c57336000908152600b602052604090205460ff1661190c5760405162461bcd60e51b81526004018080602001828103825260258152602001806121936025913960400191505060405180910390fd5b61191583611bec565b61191e82611bec565b61195b816040518060600160405280602a81526020016122c2602a91396001600160a01b0386166000908152600560205260409020549190611a51565b6001600160a01b03808516600090815260056020526040808220939093559084168152205461198a9082611691565b6001600160a01b0380841660009081526005602090815260408083209490945591861681526008909152205460ff16156119cf576003546119cb9082611c82565b6003555b6001600160a01b03821660009081526008602052604090205460ff1615611a01576003546119fd9082611691565b6003555b816001600160a01b0316836001600160a01b03167fddf252ad1be2c89b69c2b068fc378daa952ba7f163c4a11628f55a4df523b3ef836040518082815260200191505060405180910390a3505050565b60008184841115611ae05760405162461bcd60e51b81526004018080602001828103825283818151815260200191508051906020019080838360005b83811015611aa5578181015183820152602001611a8d565b50505050905090810190601f168015611ad25780820380516001836020036101000a031916815260200191505b509250505060405180910390fd5b505050900390565b6001600160a01b038216611b2d5760405162461bcd60e51b81526004018080602001828103825260238152602001806121df6023913960400191505060405180910390fd5b611b3682611bec565b600254611b439082611691565b6002556001600160a01b038216600090815260056020526040902054611b699082611691565b6001600160a01b03831660009081526005602090815260408083209390935560089052205460ff1615611ba757600354611ba39082611691565b6003555b6040805182815290516001600160a01b038416916000917fddf252ad1be2c89b69c2b068fc378daa952ba7f163c4a11628f55a4df523b3ef9181900360200190a35050565b60005b600754811015610c9457600060078281548110611c0857fe5b600091825260208220015460408051635fd6196560e01b81526001600160a01b03878116600483015291519190921693508392635fd61965926024808201939182900301818387803b158015611c5d57600080fd5b505af1158015611c71573d6000803e3d6000fd5b505060019093019250611bef915050565b6000610d2b83836040518060400160405280601e81526020017f536166654d6174683a207375627472616374696f6e206f766572666c6f770000815250611a51565b6001600160a01b038216611d095760405162461bcd60e51b815260040180806020018281038252602581526020018061235e6025913960400191505060405180910390fd5b611d1282611bec565b611d4f8160405180606001604052806026815260200161230e602691396001600160a01b0385166000908152600560205260409020549190611a51565b6001600160a01b038316600090815260056020526040902055600254611d759082611c82565b6002556001600160a01b03821660009081526008602052604090205460ff1615611daa57600354611da69082611c82565b6003555b6040805182815290516000916001600160a01b038516917fddf252ad1be2c89b69c2b068fc378daa952ba7f163c4a11628f55a4df523b3ef9181900360200190a35050565b6060611e44826040518060400160405280602081526020017f5361666545524332303a206c6f772d6c6576656c2063616c6c206661696c6564815250856001600160a01b0316611ea09092919063ffffffff16565b805190915015610ab557808060200190516020811015611e6357600080fd5b5051610ab55760405162461bcd60e51b815260040180806020018281038252602a815260200180612334602a913960400191505060405180910390fd5b6060611eaf8484600085611eb7565b949350505050565b606082471015611ef85760405162461bcd60e51b81526004018080602001828103825260268152602001806122546026913960400191505060405180910390fd5b611f0185612013565b611f52576040805162461bcd60e51b815260206004820152601d60248201527f416464726573733a2063616c6c20746f206e6f6e2d636f6e7472616374000000604482015290519081900360640190fd5b60006060866001600160a01b031685876040518082805190602001908083835b60208310611f915780518252601f199092019160209182019101611f72565b6001836020036101000a03801982511681845116808217855250505050505090500191505060006040518083038185875af1925050503d8060008114611ff3576040519150601f19603f3d011682016040523d82523d6000602084013e611ff8565b606091505b5091509150612008828286612019565b979650505050505050565b3b151590565b60608315612028575081610d2b565b8251156120385782518084602001fd5b60405162461bcd60e51b8152602060048201818152845160248401528451859391928392604401919085019080838360008315611aa5578181015183820152602001611a8d565b8280548282559060005260206000209081019282156120d4579160200282015b828111156120d457825182546001600160a01b0319166001600160a01b0390911617825560209092019160019091019061209f565b506120e092915061215e565b5090565b828054600181600116156101000203166002900490600052602060002090601f016020900481019282601f1061212557805160ff1916838001178555612152565b82800160010185558215612152579182015b82811115612152578251825591602001919060010190612137565b506120e092915061217d565b5b808211156120e05780546001600160a01b031916815560010161215f565b5b808211156120e0576000815560010161217e56fe42617365546f6b656e3a206d73672e73656e646572206e6f742077686974656c697374656442617365546f6b656e3a207472616e7366657220746f20746865207a65726f206164647265737342617365546f6b656e3a206d696e7420746f20746865207a65726f206164647265737342617365546f6b656e3a20617070726f766520746f20746865207a65726f206164647265737342617365546f6b656e3a207472616e7366657220616d6f756e74206578636565647320616c6c6f77616e6365416464726573733a20696e73756666696369656e742062616c616e636520666f722063616c6c42617365546f6b656e3a20666f7262696464656e00000000000000000000000042617365546f6b656e3a20617070726f76652066726f6d20746865207a65726f206164647265737342617365546f6b656e3a207472616e7366657220616d6f756e7420657863656564732062616c616e636542617365546f6b656e3a205f6163636f756e7420616c7265616479206d61726b656442617365546f6b656e3a206275726e20616d6f756e7420657863656564732062616c616e63655361666545524332303a204552433230206f7065726174696f6e20646964206e6f74207375636365656442617365546f6b656e3a206275726e2066726f6d20746865207a65726f206164647265737342617365546f6b656e3a207472616e736665722066726f6d20746865207a65726f2061646472657373a264697066735822122054e8c7ebe54f49f0866c7db10d612fd09d71650709a6e40ea3064789c01d4ca064736f6c634300060c003342617365546f6b656e3a206d696e7420746f20746865207a65726f2061646472657373","linkReferences":{}},"methodIdentifiers":{"addAdmin(address)":"70480275","addNonStakingAccount(address)":"62289077","admins(address)":"429b62e5","allowance(address,address)":"dd62ed3e","allowances(address,address)":"55b6ed5c","approve(address,uint256)":"095ea7b3","balanceOf(address)":"70a08231","balances(address)":"27e235e3","batchMint(address[],uint256[])":"68573107","burn(address,uint256)":"9dc29fac","claim(address)":"1e83409a","decimals()":"313ce567","gov()":"12d43a51","inPrivateTransferMode()":"dfbaefb1","isHandler(address)":"46ea87af","isMinter(address)":"aa271e1a","mint(address,uint256)":"40c10f19","name()":"06fdde03","nonStakingAccounts(address)":"9554381a","nonStakingSupply()":"c93be636","recoverClaim(address,address)":"996f11ee","removeAdmin(address)":"1785f53c","removeNonStakingAccount(address)":"fb30d916","setGov(address)":"cfad57a2","setHandler(address,bool)":"9cb7de4b","setInPrivateTransferMode(bool)":"5a47a1a7","setInfo(string,string)":"a923fc40","setMinter(address,bool)":"cf456ae7","setYieldTrackers(address[])":"276eab4e","stakedBalance(address)":"60217267","symbol()":"95d89b41","totalStaked()":"817b1cd2","totalSupply()":"18160ddd","transfer(address,uint256)":"a9059cbb","transferFrom(address,address,uint256)":"23b872dd","withdrawToken(address,address,uint256)":"01e33667","yieldTrackers(uint256)":"52cd38d9"},"id":182}