{"abi":[{"type":"function","name":"getDepositBalances","inputs":[{"name":"_account","type":"address","internalType":"address"},{"name":"_depositTokens","type":"address[]","internalType":"address[]"},{"name":"_rewardTrackers","type":"address[]","internalType":"address[]"}],"outputs":[{"name":"","type":"uint256[]","internalType":"uint256[]"}],"stateMutability":"view"},{"type":"function","name":"getStakingInfo","inputs":[{"name":"_account","type":"address","internalType":"address"},{"name":"_rewardTrackers","type":"address[]","internalType":"address[]"}],"outputs":[{"name":"","type":"uint256[]","internalType":"uint256[]"}],"stateMutability":"view"},{"type":"function","name":"getVestingInfoV2","inputs":[{"name":"_account","type":"address","internalType":"address"},{"name":"_vesters","type":"address[]","internalType":"address[]"}],"outputs":[{"name":"","type":"uint256[]","internalType":"uint256[]"}],"stateMutability":"view"}],"bytecode":{"object":"0x608060405234801561001057600080fd5b50611007806100206000396000f3fe608060405234801561001057600080fd5b50600436106100415760003560e01c8063575157e414610046578063937a0be8146101c9578063e1fc2a381461027a575b600080fd5b6101796004803603606081101561005c57600080fd5b6001600160a01b038235169190810190604081016020820135600160201b81111561008657600080fd5b82018360208201111561009857600080fd5b803590602001918460208302840111600160201b831117156100b957600080fd5b9190808060200260200160405190810160405280939291908181526020018383602002808284376000920191909152509295949360208101935035915050600160201b81111561010857600080fd5b82018360208201111561011a57600080fd5b803590602001918460208302840111600160201b8311171561013b57600080fd5b91908080602002602001604051908101604052809392919081815260200183836020028082843760009201919091525092955061032b945050505050565b60408051602080825283518183015283519192839290830191858101910280838360005b838110156101b557818101518382015260200161019d565b505050509050019250505060405180910390f35b610179600480360360408110156101df57600080fd5b6001600160a01b038235169190810190604081016020820135600160201b81111561020957600080fd5b82018360208201111561021b57600080fd5b803590602001918460208302840111600160201b8311171561023c57600080fd5b91908080602002602001604051908101604052809392919081815260200183836020028082843760009201919091525092955061045f945050505050565b6101796004803603604081101561029057600080fd5b6001600160a01b038235169190810190604081016020820135600160201b8111156102ba57600080fd5b8201836020820111156102cc57600080fd5b803590602001918460208302840111600160201b831117156102ed57600080fd5b9190808060200260200160405190810160405280939291908181526020018383602002808284376000920191909152509295506107bc945050505050565b606080825167ffffffffffffffff8111801561034657600080fd5b50604051908082528060200260200182016040528015610370578160200160208202803683370190505b50905060005b835181101561045657600084828151811061038d57fe5b60200260200101519050806001600160a01b031663f5d9d63e888885815181106103b357fe5b60200260200101516040518363ffffffff1660e01b815260040180836001600160a01b03168152602001826001600160a01b031681526020019250505060206040518083038186803b15801561040857600080fd5b505afa15801561041c573d6000803e3d6000fd5b505050506040513d602081101561043257600080fd5b5051835184908490811061044257fe5b602090810291909101015250600101610376565b50949350505050565b606060006005905060608184510267ffffffffffffffff8111801561048357600080fd5b506040519080825280602002602001820160405280156104ad578160200160208202803683370190505b50905060005b84518110156104565760008582815181106104ca57fe5b60200260200101519050806001600160a01b031663402914f5886040518263ffffffff1660e01b815260040180826001600160a01b0316815260200191505060206040518083038186803b15801561052157600080fd5b505afa158015610535573d6000803e3d6000fd5b505050506040513d602081101561054b57600080fd5b50518351849084870290811061055d57fe5b602002602001018181525050806001600160a01b031663a8d936276040518163ffffffff1660e01b815260040160206040518083038186803b1580156105a257600080fd5b505afa1580156105b6573d6000803e3d6000fd5b505050506040513d60208110156105cc57600080fd5b5051835184906001858802019081106105e157fe5b602002602001018181525050806001600160a01b031663a3180217886040518263ffffffff1660e01b815260040180826001600160a01b0316815260200191505060206040518083038186803b15801561063a57600080fd5b505afa15801561064e573d6000803e3d6000fd5b505050506040513d602081101561066457600080fd5b50518351849060028588020190811061067957fe5b602002602001018181525050806001600160a01b0316633792def3886040518263ffffffff1660e01b815260040180826001600160a01b0316815260200191505060206040518083038186803b1580156106d257600080fd5b505afa1580156106e6573d6000803e3d6000fd5b505050506040513d60208110156106fc57600080fd5b50518351849060038588020190811061071157fe5b60200260200101818152505085828151811061072957fe5b60200260200101516001600160a01b03166318160ddd6040518163ffffffff1660e01b815260040160206040518083038186803b15801561076957600080fd5b505afa15801561077d573d6000803e3d6000fd5b505050506040513d602081101561079357600080fd5b5051835184906004858802019081106107a857fe5b6020908102919091010152506001016104b3565b60606000600c905060608184510267ffffffffffffffff811180156107e057600080fd5b5060405190808252806020026020018201604052801561080a578160200160208202803683370190505b50905060005b845181101561045657600085828151811061082757fe5b602002602001015190506000816001600160a01b0316636bcb411a6040518163ffffffff1660e01b815260040160206040518083038186803b15801561086c57600080fd5b505afa158015610880573d6000803e3d6000fd5b505050506040513d602081101561089657600080fd5b505160408051635d50e72960e01b81526001600160a01b038b81166004830152915192935090841691635d50e72991602480820192602092909190829003018186803b1580156108e557600080fd5b505afa1580156108f9573d6000803e3d6000fd5b505050506040513d602081101561090f57600080fd5b50518451859085880290811061092157fe5b602002602001018181525050816001600160a01b031663d5a73fdd896040518263ffffffff1660e01b815260040180826001600160a01b0316815260200191505060206040518083038186803b15801561097a57600080fd5b505afa15801561098e573d6000803e3d6000fd5b505050506040513d60208110156109a457600080fd5b5051845185906001868902019081106109b957fe5b6020026020010181815250508683815181106109d157fe5b60200260200101516001600160a01b03166370a08231896040518263ffffffff1660e01b815260040180826001600160a01b0316815260200191505060206040518083038186803b158015610a2557600080fd5b505afa158015610a39573d6000803e3d6000fd5b505050506040513d6020811015610a4f57600080fd5b505184518590600286890201908110610a6457fe5b602002602001018181525050816001600160a01b03166371417b32896040518263ffffffff1660e01b815260040180826001600160a01b0316815260200191505060206040518083038186803b158015610abd57600080fd5b505afa158015610ad1573d6000803e3d6000fd5b505050506040513d6020811015610ae757600080fd5b505184518590600386890201908110610afc57fe5b602002602001018181525050816001600160a01b031663402914f5896040518263ffffffff1660e01b815260040180826001600160a01b0316815260200191505060206040518083038186803b158015610b5557600080fd5b505afa158015610b69573d6000803e3d6000fd5b505050506040513d6020811015610b7f57600080fd5b505184518590600486890201908110610b9457fe5b602002602001018181525050816001600160a01b03166308f26c76896040518263ffffffff1660e01b815260040180826001600160a01b0316815260200191505060206040518083038186803b158015610bed57600080fd5b505afa158015610c01573d6000803e3d6000fd5b505050506040513d6020811015610c1757600080fd5b505184518590600586890201908110610c2c57fe5b602002602001018181525050816001600160a01b03166345f01ee6896040518263ffffffff1660e01b815260040180826001600160a01b0316815260200191505060206040518083038186803b158015610c8557600080fd5b505afa158015610c99573d6000803e3d6000fd5b505050506040513d6020811015610caf57600080fd5b505184518590600686890201908110610cc457fe5b602002602001018181525050806001600160a01b0316633792def3896040518263ffffffff1660e01b815260040180826001600160a01b0316815260200191505060206040518083038186803b158015610d1d57600080fd5b505afa158015610d31573d6000803e3d6000fd5b505050506040513d6020811015610d4757600080fd5b505184518590600786890201908110610d5c57fe5b602002602001018181525050816001600160a01b031663b71bce2a896040518263ffffffff1660e01b815260040180826001600160a01b0316815260200191505060206040518083038186803b158015610db557600080fd5b505afa158015610dc9573d6000803e3d6000fd5b505050506040513d6020811015610ddf57600080fd5b505184518590600886890201908110610df457fe5b602002602001018181525050816001600160a01b031663a2545fa5896040518263ffffffff1660e01b815260040180826001600160a01b0316815260200191505060206040518083038186803b158015610e4d57600080fd5b505afa158015610e61573d6000803e3d6000fd5b505050506040513d6020811015610e7757600080fd5b505184518590600986890201908110610e8c57fe5b602002602001018181525050806001600160a01b031663a3180217896040518263ffffffff1660e01b815260040180826001600160a01b0316815260200191505060206040518083038186803b158015610ee557600080fd5b505afa158015610ef9573d6000803e3d6000fd5b505050506040513d6020811015610f0f57600080fd5b505184518590600a86890201908110610f2457fe5b602002602001018181525050816001600160a01b0316637337035c896040518263ffffffff1660e01b815260040180826001600160a01b0316815260200191505060206040518083038186803b158015610f7d57600080fd5b505afa158015610f91573d6000803e3d6000fd5b505050506040513d6020811015610fa757600080fd5b505184518590600b86890201908110610fbc57fe5b6020908102919091010152505060010161081056fea26469706673582212207bf9cde076b6f5d3928e91ee1c4c27435b4d5a50e077d26eb476629de266aaf164736f6c634300060c0033","linkReferences":{}},"methodIdentifiers":{"getDepositBalances(address,address[],address[])":"575157e4","getStakingInfo(address,address[])":"937a0be8","getVestingInfoV2(address,address[])":"e1fc2a38"},"id":153}