{"abi":[{"type":"constructor","inputs":[{"name":"_name","type":"string","internalType":"string"},{"name":"_symbol","type":"string","internalType":"string"},{"name":"_initialSupply","type":"uint256","internalType":"uint256"}],"stateMutability":"nonpayable"},{"type":"function","name":"addAdmin","inputs":[{"name":"_account","type":"address","internalType":"address"}],"outputs":[],"stateMutability":"nonpayable"},{"type":"function","name":"addNonStakingAccount","inputs":[{"name":"_account","type":"address","internalType":"address"}],"outputs":[],"stateMutability":"nonpayable"},{"type":"function","name":"admins","inputs":[{"name":"","type":"address","internalType":"address"}],"outputs":[{"name":"","type":"bool","internalType":"bool"}],"stateMutability":"view"},{"type":"function","name":"allowance","inputs":[{"name":"_owner","type":"address","internalType":"address"},{"name":"_spender","type":"address","internalType":"address"}],"outputs":[{"name":"","type":"uint256","internalType":"uint256"}],"stateMutability":"view"},{"type":"function","name":"allowances","inputs":[{"name":"","type":"address","internalType":"address"},{"name":"","type":"address","internalType":"address"}],"outputs":[{"name":"","type":"uint256","internalType":"uint256"}],"stateMutability":"view"},{"type":"function","name":"approve","inputs":[{"name":"_spender","type":"address","internalType":"address"},{"name":"_amount","type":"uint256","internalType":"uint256"}],"outputs":[{"name":"","type":"bool","internalType":"bool"}],"stateMutability":"nonpayable"},{"type":"function","name":"balanceOf","inputs":[{"name":"_account","type":"address","internalType":"address"}],"outputs":[{"name":"","type":"uint256","internalType":"uint256"}],"stateMutability":"view"},{"type":"function","name":"balances","inputs":[{"name":"","type":"address","internalType":"address"}],"outputs":[{"name":"","type":"uint256","internalType":"uint256"}],"stateMutability":"view"},{"type":"function","name":"claim","inputs":[{"name":"_receiver","type":"address","internalType":"address"}],"outputs":[],"stateMutability":"nonpayable"},{"type":"function","name":"decimals","inputs":[],"outputs":[{"name":"","type":"uint8","internalType":"uint8"}],"stateMutability":"view"},{"type":"function","name":"gov","inputs":[],"outputs":[{"name":"","type":"address","internalType":"address"}],"stateMutability":"view"},{"type":"function","name":"inPrivateTransferMode","inputs":[],"outputs":[{"name":"","type":"bool","internalType":"bool"}],"stateMutability":"view"},{"type":"function","name":"isHandler","inputs":[{"name":"","type":"address","internalType":"address"}],"outputs":[{"name":"","type":"bool","internalType":"bool"}],"stateMutability":"view"},{"type":"function","name":"name","inputs":[],"outputs":[{"name":"","type":"string","internalType":"string"}],"stateMutability":"view"},{"type":"function","name":"nonStakingAccounts","inputs":[{"name":"","type":"address","internalType":"address"}],"outputs":[{"name":"","type":"bool","internalType":"bool"}],"stateMutability":"view"},{"type":"function","name":"nonStakingSupply","inputs":[],"outputs":[{"name":"","type":"uint256","internalType":"uint256"}],"stateMutability":"view"},{"type":"function","name":"recoverClaim","inputs":[{"name":"_account","type":"address","internalType":"address"},{"name":"_receiver","type":"address","internalType":"address"}],"outputs":[],"stateMutability":"nonpayable"},{"type":"function","name":"removeAdmin","inputs":[{"name":"_account","type":"address","internalType":"address"}],"outputs":[],"stateMutability":"nonpayable"},{"type":"function","name":"removeNonStakingAccount","inputs":[{"name":"_account","type":"address","internalType":"address"}],"outputs":[],"stateMutability":"nonpayable"},{"type":"function","name":"setGov","inputs":[{"name":"_gov","type":"address","internalType":"address"}],"outputs":[],"stateMutability":"nonpayable"},{"type":"function","name":"setHandler","inputs":[{"name":"_handler","type":"address","internalType":"address"},{"name":"_isActive","type":"bool","internalType":"bool"}],"outputs":[],"stateMutability":"nonpayable"},{"type":"function","name":"setInPrivateTransferMode","inputs":[{"name":"_inPrivateTransferMode","type":"bool","internalType":"bool"}],"outputs":[],"stateMutability":"nonpayable"},{"type":"function","name":"setInfo","inputs":[{"name":"_name","type":"string","internalType":"string"},{"name":"_symbol","type":"string","internalType":"string"}],"outputs":[],"stateMutability":"nonpayable"},{"type":"function","name":"setYieldTrackers","inputs":[{"name":"_yieldTrackers","type":"address[]","internalType":"address[]"}],"outputs":[],"stateMutability":"nonpayable"},{"type":"function","name":"stakedBalance","inputs":[{"name":"_account","type":"address","internalType":"address"}],"outputs":[{"name":"","type":"uint256","internalType":"uint256"}],"stateMutability":"view"},{"type":"function","name":"symbol","inputs":[],"outputs":[{"name":"","type":"string","internalType":"string"}],"stateMutability":"view"},{"type":"function","name":"totalStaked","inputs":[],"outputs":[{"name":"","type":"uint256","internalType":"uint256"}],"stateMutability":"view"},{"type":"function","name":"totalSupply","inputs":[],"outputs":[{"name":"","type":"uint256","internalType":"uint256"}],"stateMutability":"view"},{"type":"function","name":"transfer","inputs":[{"name":"_recipient","type":"address","internalType":"address"},{"name":"_amount","type":"uint256","internalType":"uint256"}],"outputs":[{"name":"","type":"bool","internalType":"bool"}],"stateMutability":"nonpayable"},{"type":"function","name":"transferFrom","inputs":[{"name":"_sender","type":"address","internalType":"address"},{"name":"_recipient","type":"address","internalType":"address"},{"name":"_amount","type":"uint256","internalType":"uint256"}],"outputs":[{"name":"","type":"bool","internalType":"bool"}],"stateMutability":"nonpayable"},{"type":"function","name":"withdrawToken","inputs":[{"name":"_token","type":"address","internalType":"address"},{"name":"_account","type":"address","internalType":"address"},{"name":"_amount","type":"uint256","internalType":"uint256"}],"outputs":[],"stateMutability":"nonpayable"},{"type":"function","name":"yieldTrackers","inputs":[{"name":"","type":"uint256","internalType":"uint256"}],"outputs":[{"name":"","type":"address","internalType":"address"}],"stateMutability":"view"},{"type":"event","name":"Approval","inputs":[{"name":"owner","type":"address","indexed":true,"internalType":"address"},{"name":"spender","type":"address","indexed":true,"internalType":"address"},{"name":"value","type":"uint256","indexed":false,"internalType":"uint256"}],"anonymous":false},{"type":"event","name":"Transfer","inputs":[{"name":"from","type":"address","indexed":true,"internalType":"address"},{"name":"to","type":"address","indexed":true,"internalType":"address"},{"name":"value","type":"uint256","indexed":false,"internalType":"uint256"}],"anonymous":false}],"bytecode":{"object":"0x60806040523480156200001157600080fd5b506040516200222738038062002227833981810160405260608110156200003757600080fd5b81019080805160405193929190846401000000008211156200005857600080fd5b9083019060208201858111156200006e57600080fd5b82516401000000008111828201881017156200008957600080fd5b82525081516020918201929091019080838360005b83811015620000b85781810151838201526020016200009e565b50505050905090810190601f168015620000e65780820380516001836020036101000a031916815260200191505b50604052602001805160405193929190846401000000008211156200010a57600080fd5b9083019060208201858111156200012057600080fd5b82516401000000008111828201881017156200013b57600080fd5b82525081516020918201929091019080838360005b838110156200016a57818101518382015260200162000150565b50505050905090810190601f168015620001985780820380516001836020036101000a031916815260200191505b506040526020908101518551909350620001b9925060009186019062000431565b508151620001cf90600190602085019062000431565b50600480546001600160a01b03191633908117909155620001f19082620001fa565b505050620004cd565b6001600160a01b038216620002415760405162461bcd60e51b8152600401808060200182810382526023815260200180620022046023913960400191505060405180910390fd5b6200024c8262000330565b6200026881600254620003cf60201b620012741790919060201c565b6002556001600160a01b0382166000908152600560209081526040909120546200029d91839062001274620003cf821b17901c565b6001600160a01b03831660009081526005602090815260408083209390935560089052205460ff1615620002eb57620002e781600354620003cf60201b620012741790919060201c565b6003555b6040805182815290516001600160a01b038416916000917fddf252ad1be2c89b69c2b068fc378daa952ba7f163c4a11628f55a4df523b3ef9181900360200190a35050565b60005b600754811015620003cb576000600782815481106200034e57fe5b600091825260208220015460408051635fd6196560e01b81526001600160a01b03878116600483015291519190921693508392635fd61965926024808201939182900301818387803b158015620003a457600080fd5b505af1158015620003b9573d6000803e3d6000fd5b50506001909301925062000333915050565b5050565b6000828201838110156200042a576040805162461bcd60e51b815260206004820152601b60248201527f536166654d6174683a206164646974696f6e206f766572666c6f770000000000604482015290519081900360640190fd5b9392505050565b828054600181600116156101000203166002900490600052602060002090601f016020900481019282601f106200047457805160ff1916838001178555620004a4565b82800160010185558215620004a4579182015b82811115620004a457825182559160200191906001019062000487565b50620004b2929150620004b6565b5090565b5b80821115620004b25760008155600101620004b7565b611d2780620004dd6000396000f3fe608060405234801561001057600080fd5b50600436106101f05760003560e01c8063602172671161010f5780639cb7de4b116100a2578063cfad57a211610071578063cfad57a2146107d2578063dd62ed3e146107f8578063dfbaefb114610826578063fb30d9161461082e576101f0565b80639cb7de4b14610643578063a9059cbb14610671578063a923fc401461069d578063c93be636146107ca576101f0565b8063817b1cd2116100de578063817b1cd2146105df5780639554381a146105e757806395d89b411461060d578063996f11ee14610615576101f0565b80636021726714610547578063622890771461056d578063704802751461059357806370a08231146105b9576101f0565b8063276eab4e1161018757806346ea87af1161015657806346ea87af146104b757806352cd38d9146104dd57806355b6ed5c146104fa5780635a47a1a714610528576101f0565b8063276eab4e146103aa57806327e235e31461044d578063313ce56714610473578063429b62e514610491576101f0565b80631785f53c116101c35780631785f53c1461030e57806318160ddd146103345780631e83409a1461034e57806323b872dd14610374576101f0565b806301e33667146101f557806306fdde031461022d578063095ea7b3146102aa57806312d43a51146102ea575b600080fd5b61022b6004803603606081101561020b57600080fd5b506001600160a01b03813581169160208101359091169060400135610854565b005b6102356108ba565b6040805160208082528351818301528351919283929083019185019080838360005b8381101561026f578181015183820152602001610257565b50505050905090810190601f16801561029c5780820380516001836020036101000a031916815260200191505b509250505060405180910390f35b6102d6600480360360408110156102c057600080fd5b506001600160a01b038135169060200135610948565b604080519115158252519081900360200190f35b6102f261095e565b604080516001600160a01b039092168252519081900360200190f35b61022b6004803603602081101561032457600080fd5b50356001600160a01b031661096d565b61033c6109db565b60408051918252519081900360200190f35b61022b6004803603602081101561036457600080fd5b50356001600160a01b03166109e1565b6102d66004803603606081101561038a57600080fd5b506001600160a01b03813581169160208101359091169060400135610a98565b61022b600480360360208110156103c057600080fd5b8101906020810181356401000000008111156103db57600080fd5b8201836020820111156103ed57600080fd5b8035906020019184602083028401116401000000008311171561040f57600080fd5b919080806020026020016040519081016040528093929190818152602001838360200280828437600092019190915250929550610b32945050505050565b61033c6004803603602081101561046357600080fd5b50356001600160a01b0316610b92565b61047b610ba4565b6040805160ff9092168252519081900360200190f35b6102d6600480360360208110156104a757600080fd5b50356001600160a01b0316610ba9565b6102d6600480360360208110156104cd57600080fd5b50356001600160a01b0316610bbe565b6102f2600480360360208110156104f357600080fd5b5035610bd3565b61033c6004803603604081101561051057600080fd5b506001600160a01b0381358116916020013516610bfa565b61022b6004803603602081101561053e57600080fd5b50351515610c17565b61033c6004803603602081101561055d57600080fd5b50356001600160a01b0316610c77565b61022b6004803603602081101561058357600080fd5b50356001600160a01b0316610cc0565b61022b600480360360208110156105a957600080fd5b50356001600160a01b0316610db3565b61033c600480360360208110156105cf57600080fd5b50356001600160a01b0316610e24565b61033c610e3f565b6102d6600480360360208110156105fd57600080fd5b50356001600160a01b0316610e5d565b610235610e72565b61022b6004803603604081101561062b57600080fd5b506001600160a01b0381358116916020013516610ecc565b61022b6004803603604081101561065957600080fd5b506001600160a01b0381351690602001351515610fd3565b6102d66004803603604081101561068757600080fd5b506001600160a01b03813516906020013561104b565b61022b600480360360408110156106b357600080fd5b8101906020810181356401000000008111156106ce57600080fd5b8201836020820111156106e057600080fd5b8035906020019184600183028401116401000000008311171561070257600080fd5b91908080601f016020809104026020016040519081016040528093929190818152602001838380828437600092019190915250929594936020810193503591505064010000000081111561075557600080fd5b82018360208201111561076757600080fd5b8035906020019184600183028401116401000000008311171561078957600080fd5b91908080601f016020809104026020016040519081016040528093929190818152602001838380828437600092019190915250929550611058945050505050565b61033c6110cc565b61022b600480360360208110156107e857600080fd5b50356001600160a01b03166110d2565b61033c6004803603604081101561080e57600080fd5b506001600160a01b0381358116916020013516611141565b6102d661116c565b61022b6004803603602081101561084457600080fd5b50356001600160a01b0316611175565b6004546001600160a01b031633146108a1576040805162461bcd60e51b81526020600482015260146024820152600080516020611c0b833981519152604482015290519081900360640190fd5b6108b56001600160a01b03841683836112ce565b505050565b6000805460408051602060026001851615610100026000190190941693909304601f810184900484028201840190925281815292918301828280156109405780601f1061091557610100808354040283529160200191610940565b820191906000526020600020905b81548152906001019060200180831161092357829003601f168201915b505050505081565b6000610955338484611320565b50600192915050565b6004546001600160a01b031681565b6004546001600160a01b031633146109ba576040805162461bcd60e51b81526020600482015260146024820152600080516020611c0b833981519152604482015290519081900360640190fd5b6001600160a01b03166000908152600960205260409020805460ff19169055565b60025481565b60005b600754811015610a94576000600782815481106109fd57fe5b6000918252602080832090910154604080516310e059a160e11b81523360048201526001600160a01b038881166024830152915191909216945084936321c0b34293604480850194919392918390030190829087803b158015610a5f57600080fd5b505af1158015610a73573d6000803e3d6000fd5b505050506040513d6020811015610a8957600080fd5b5050506001016109e4565b5050565b336000908152600b602052604081205460ff1615610ac357610abb84848461140c565b506001610b2b565b6000610b0d836040518060600160405280602c8152602001611bb9602c91396001600160a01b03881660009081526006602090815260408083203384529091529020549190611634565b9050610b1a853383611320565b610b2585858561140c565b60019150505b9392505050565b6004546001600160a01b03163314610b7f576040805162461bcd60e51b81526020600482015260146024820152600080516020611c0b833981519152604482015290519081900360640190fd5b8051610a94906007906020840190611a33565b60056020526000908152604090205481565b601281565b60096020526000908152604090205460ff1681565b600b6020526000908152604090205460ff1681565b60078181548110610be057fe5b6000918252602090912001546001600160a01b0316905081565b600660209081526000928352604080842090915290825290205481565b6004546001600160a01b03163314610c64576040805162461bcd60e51b81526020600482015260146024820152600080516020611c0b833981519152604482015290519081900360640190fd5b600a805460ff1916911515919091179055565b6001600160a01b03811660009081526008602052604081205460ff1615610ca057506000610cbb565b506001600160a01b0381166000908152600560205260409020545b919050565b3360009081526009602052604090205460ff16610d12576040805162461bcd60e51b81526020600482015260146024820152600080516020611c0b833981519152604482015290519081900360640190fd5b6001600160a01b03811660009081526008602052604090205460ff1615610d6a5760405162461bcd60e51b8152600401808060200182810382526022815260200180611c7d6022913960400191505060405180910390fd5b610d73816116cb565b6001600160a01b0381166000908152600860209081526040808320805460ff191660011790556005909152902054600354610dad91611274565b60035550565b6004546001600160a01b03163314610e00576040805162461bcd60e51b81526020600482015260146024820152600080516020611c0b833981519152604482015290519081900360640190fd5b6001600160a01b03166000908152600960205260409020805460ff19166001179055565b6001600160a01b031660009081526005602052604090205490565b6000610e5860035460025461176190919063ffffffff16565b905090565b60086020526000908152604090205460ff1681565b60018054604080516020600284861615610100026000190190941693909304601f810184900484028201840190925281815292918301828280156109405780601f1061091557610100808354040283529160200191610940565b3360009081526009602052604090205460ff16610f1e576040805162461bcd60e51b81526020600482015260146024820152600080516020611c0b833981519152604482015290519081900360640190fd5b60005b6007548110156108b557600060078281548110610f3a57fe5b6000918252602080832090910154604080516310e059a160e11b81526001600160a01b0389811660048301528881166024830152915191909216945084936321c0b34293604480850194919392918390030190829087803b158015610f9e57600080fd5b505af1158015610fb2573d6000803e3d6000fd5b505050506040513d6020811015610fc857600080fd5b505050600101610f21565b6004546001600160a01b03163314611020576040805162461bcd60e51b81526020600482015260146024820152600080516020611c0b833981519152604482015290519081900360640190fd5b6001600160a01b03919091166000908152600b60205260409020805460ff1916911515919091179055565b600061095533848461140c565b6004546001600160a01b031633146110a5576040805162461bcd60e51b81526020600482015260146024820152600080516020611c0b833981519152604482015290519081900360640190fd5b81516110b8906000906020850190611a98565b5080516108b5906001906020840190611a98565b60035481565b6004546001600160a01b0316331461111f576040805162461bcd60e51b81526020600482015260146024820152600080516020611c0b833981519152604482015290519081900360640190fd5b600480546001600160a01b0319166001600160a01b0392909216919091179055565b6001600160a01b03918216600090815260066020908152604080832093909416825291909152205490565b600a5460ff1681565b3360009081526009602052604090205460ff166111c7576040805162461bcd60e51b81526020600482015260146024820152600080516020611c0b833981519152604482015290519081900360640190fd5b6001600160a01b03811660009081526008602052604090205460ff16611234576040805162461bcd60e51b815260206004820152601e60248201527f42617365546f6b656e3a205f6163636f756e74206e6f74206d61726b65640000604482015290519081900360640190fd5b61123d816116cb565b6001600160a01b0381166000908152600860209081526040808320805460ff191690556005909152902054600354610dad91611761565b600082820183811015610b2b576040805162461bcd60e51b815260206004820152601b60248201527f536166654d6174683a206164646974696f6e206f766572666c6f770000000000604482015290519081900360640190fd5b604080516001600160a01b038416602482015260448082018490528251808303909101815260649091019091526020810180516001600160e01b031663a9059cbb60e01b1790526108b59084906117a3565b6001600160a01b0383166113655760405162461bcd60e51b8152600401808060200182810382526028815260200180611c2b6028913960400191505060405180910390fd5b6001600160a01b0382166113aa5760405162461bcd60e51b8152600401808060200182810382526026815260200180611b936026913960400191505060405180910390fd5b6001600160a01b03808416600081815260066020908152604080832094871680845294825291829020859055815185815291517f8c5be1e5ebec7d5bd14f71427d1e84f3dd0314c0f7b2291e5b200ac8c7c3b9259281900390910190a3505050565b6001600160a01b0383166114515760405162461bcd60e51b8152600401808060200182810382526029815260200180611cc96029913960400191505060405180910390fd5b6001600160a01b0382166114965760405162461bcd60e51b8152600401808060200182810382526027815260200180611b6c6027913960400191505060405180910390fd5b600a5460ff16156114ef57336000908152600b602052604090205460ff166114ef5760405162461bcd60e51b8152600401808060200182810382526025815260200180611b476025913960400191505060405180910390fd5b6114f8836116cb565b611501826116cb565b61153e816040518060600160405280602a8152602001611c53602a91396001600160a01b0386166000908152600560205260409020549190611634565b6001600160a01b03808516600090815260056020526040808220939093559084168152205461156d9082611274565b6001600160a01b0380841660009081526005602090815260408083209490945591861681526008909152205460ff16156115b2576003546115ae9082611761565b6003555b6001600160a01b03821660009081526008602052604090205460ff16156115e4576003546115e09082611274565b6003555b816001600160a01b0316836001600160a01b03167fddf252ad1be2c89b69c2b068fc378daa952ba7f163c4a11628f55a4df523b3ef836040518082815260200191505060405180910390a3505050565b600081848411156116c35760405162461bcd60e51b81526004018080602001828103825283818151815260200191508051906020019080838360005b83811015611688578181015183820152602001611670565b50505050905090810190601f1680156116b55780820380516001836020036101000a031916815260200191505b509250505060405180910390fd5b505050900390565b60005b600754811015610a94576000600782815481106116e757fe5b600091825260208220015460408051635fd6196560e01b81526001600160a01b03878116600483015291519190921693508392635fd61965926024808201939182900301818387803b15801561173c57600080fd5b505af1158015611750573d6000803e3d6000fd5b5050600190930192506116ce915050565b6000610b2b83836040518060400160405280601e81526020017f536166654d6174683a207375627472616374696f6e206f766572666c6f770000815250611634565b60606117f8826040518060400160405280602081526020017f5361666545524332303a206c6f772d6c6576656c2063616c6c206661696c6564815250856001600160a01b03166118549092919063ffffffff16565b8051909150156108b55780806020019051602081101561181757600080fd5b50516108b55760405162461bcd60e51b815260040180806020018281038252602a815260200180611c9f602a913960400191505060405180910390fd5b6060611863848460008561186b565b949350505050565b6060824710156118ac5760405162461bcd60e51b8152600401808060200182810382526026815260200180611be56026913960400191505060405180910390fd5b6118b5856119c7565b611906576040805162461bcd60e51b815260206004820152601d60248201527f416464726573733a2063616c6c20746f206e6f6e2d636f6e7472616374000000604482015290519081900360640190fd5b60006060866001600160a01b031685876040518082805190602001908083835b602083106119455780518252601f199092019160209182019101611926565b6001836020036101000a03801982511681845116808217855250505050505090500191505060006040518083038185875af1925050503d80600081146119a7576040519150601f19603f3d011682016040523d82523d6000602084013e6119ac565b606091505b50915091506119bc8282866119cd565b979650505050505050565b3b151590565b606083156119dc575081610b2b565b8251156119ec5782518084602001fd5b60405162461bcd60e51b8152602060048201818152845160248401528451859391928392604401919085019080838360008315611688578181015183820152602001611670565b828054828255906000526020600020908101928215611a88579160200282015b82811115611a8857825182546001600160a01b0319166001600160a01b03909116178255602090920191600190910190611a53565b50611a94929150611b12565b5090565b828054600181600116156101000203166002900490600052602060002090601f016020900481019282601f10611ad957805160ff1916838001178555611b06565b82800160010185558215611b06579182015b82811115611b06578251825591602001919060010190611aeb565b50611a94929150611b31565b5b80821115611a945780546001600160a01b0319168155600101611b13565b5b80821115611a945760008155600101611b3256fe42617365546f6b656e3a206d73672e73656e646572206e6f742077686974656c697374656442617365546f6b656e3a207472616e7366657220746f20746865207a65726f206164647265737342617365546f6b656e3a20617070726f766520746f20746865207a65726f206164647265737342617365546f6b656e3a207472616e7366657220616d6f756e74206578636565647320616c6c6f77616e6365416464726573733a20696e73756666696369656e742062616c616e636520666f722063616c6c42617365546f6b656e3a20666f7262696464656e00000000000000000000000042617365546f6b656e3a20617070726f76652066726f6d20746865207a65726f206164647265737342617365546f6b656e3a207472616e7366657220616d6f756e7420657863656564732062616c616e636542617365546f6b656e3a205f6163636f756e7420616c7265616479206d61726b65645361666545524332303a204552433230206f7065726174696f6e20646964206e6f74207375636365656442617365546f6b656e3a207472616e736665722066726f6d20746865207a65726f2061646472657373a26469706673582212206b5d7aab3b1b578a2efb4bfac4c861116918f5182152dab0653a2e627178a66364736f6c634300060c003342617365546f6b656e3a206d696e7420746f20746865207a65726f2061646472657373","linkReferences":{}},"methodIdentifiers":{"addAdmin(address)":"70480275","addNonStakingAccount(address)":"62289077","admins(address)":"429b62e5","allowance(address,address)":"dd62ed3e","allowances(address,address)":"55b6ed5c","approve(address,uint256)":"095ea7b3","balanceOf(address)":"70a08231","balances(address)":"27e235e3","claim(address)":"1e83409a","decimals()":"313ce567","gov()":"12d43a51","inPrivateTransferMode()":"dfbaefb1","isHandler(address)":"46ea87af","name()":"06fdde03","nonStakingAccounts(address)":"9554381a","nonStakingSupply()":"c93be636","recoverClaim(address,address)":"996f11ee","removeAdmin(address)":"1785f53c","removeNonStakingAccount(address)":"fb30d916","setGov(address)":"cfad57a2","setHandler(address,bool)":"9cb7de4b","setInPrivateTransferMode(bool)":"5a47a1a7","setInfo(string,string)":"a923fc40","setYieldTrackers(address[])":"276eab4e","stakedBalance(address)":"60217267","symbol()":"95d89b41","totalStaked()":"817b1cd2","totalSupply()":"18160ddd","transfer(address,uint256)":"a9059cbb","transferFrom(address,address,uint256)":"23b872dd","withdrawToken(address,address,uint256)":"01e33667","yieldTrackers(uint256)":"52cd38d9"},"id":178}