{"abi":[{"type":"constructor","inputs":[{"name":"_vault","type":"address","internalType":"address"},{"name":"_router","type":"address","internalType":"address"},{"name":"_shortsTracker","type":"address","internalType":"address"},{"name":"_weth","type":"address","internalType":"address"},{"name":"_depositFee","type":"uint256","internalType":"uint256"},{"name":"_orderBook","type":"address","internalType":"address"}],"stateMutability":"nonpayable"},{"type":"receive","stateMutability":"payable"},{"type":"function","name":"BASIS_POINTS_DIVISOR","inputs":[],"outputs":[{"name":"","type":"uint256","internalType":"uint256"}],"stateMutability":"view"},{"type":"function","name":"admin","inputs":[],"outputs":[{"name":"","type":"address","internalType":"address"}],"stateMutability":"view"},{"type":"function","name":"approve","inputs":[{"name":"_token","type":"address","internalType":"address"},{"name":"_spender","type":"address","internalType":"address"},{"name":"_amount","type":"uint256","internalType":"uint256"}],"outputs":[],"stateMutability":"nonpayable"},{"type":"function","name":"decreasePosition","inputs":[{"name":"_collateralToken","type":"address","internalType":"address"},{"name":"_indexToken","type":"address","internalType":"address"},{"name":"_collateralDelta","type":"uint256","internalType":"uint256"},{"name":"_sizeDelta","type":"uint256","internalType":"uint256"},{"name":"_isLong","type":"bool","internalType":"bool"},{"name":"_receiver","type":"address","internalType":"address"},{"name":"_price","type":"uint256","internalType":"uint256"}],"outputs":[],"stateMutability":"nonpayable"},{"type":"function","name":"decreasePositionAndSwap","inputs":[{"name":"_path","type":"address[]","internalType":"address[]"},{"name":"_indexToken","type":"address","internalType":"address"},{"name":"_collateralDelta","type":"uint256","internalType":"uint256"},{"name":"_sizeDelta","type":"uint256","internalType":"uint256"},{"name":"_isLong","type":"bool","internalType":"bool"},{"name":"_receiver","type":"address","internalType":"address"},{"name":"_price","type":"uint256","internalType":"uint256"},{"name":"_minOut","type":"uint256","internalType":"uint256"}],"outputs":[],"stateMutability":"nonpayable"},{"type":"function","name":"decreasePositionAndSwapETH","inputs":[{"name":"_path","type":"address[]","internalType":"address[]"},{"name":"_indexToken","type":"address","internalType":"address"},{"name":"_collateralDelta","type":"uint256","internalType":"uint256"},{"name":"_sizeDelta","type":"uint256","internalType":"uint256"},{"name":"_isLong","type":"bool","internalType":"bool"},{"name":"_receiver","type":"address","internalType":"address payable"},{"name":"_price","type":"uint256","internalType":"uint256"},{"name":"_minOut","type":"uint256","internalType":"uint256"}],"outputs":[],"stateMutability":"nonpayable"},{"type":"function","name":"decreasePositionETH","inputs":[{"name":"_collateralToken","type":"address","internalType":"address"},{"name":"_indexToken","type":"address","internalType":"address"},{"name":"_collateralDelta","type":"uint256","internalType":"uint256"},{"name":"_sizeDelta","type":"uint256","internalType":"uint256"},{"name":"_isLong","type":"bool","internalType":"bool"},{"name":"_receiver","type":"address","internalType":"address payable"},{"name":"_price","type":"uint256","internalType":"uint256"}],"outputs":[],"stateMutability":"nonpayable"},{"type":"function","name":"depositFee","inputs":[],"outputs":[{"name":"","type":"uint256","internalType":"uint256"}],"stateMutability":"view"},{"type":"function","name":"executeDecreaseOrder","inputs":[{"name":"_account","type":"address","internalType":"address"},{"name":"_orderIndex","type":"uint256","internalType":"uint256"},{"name":"_feeReceiver","type":"address","internalType":"address payable"}],"outputs":[],"stateMutability":"nonpayable"},{"type":"function","name":"executeIncreaseOrder","inputs":[{"name":"_account","type":"address","internalType":"address"},{"name":"_orderIndex","type":"uint256","internalType":"uint256"},{"name":"_feeReceiver","type":"address","internalType":"address payable"}],"outputs":[],"stateMutability":"nonpayable"},{"type":"function","name":"executeSwapOrder","inputs":[{"name":"_account","type":"address","internalType":"address"},{"name":"_orderIndex","type":"uint256","internalType":"uint256"},{"name":"_feeReceiver","type":"address","internalType":"address payable"}],"outputs":[],"stateMutability":"nonpayable"},{"type":"function","name":"feeReserves","inputs":[{"name":"","type":"address","internalType":"address"}],"outputs":[{"name":"","type":"uint256","internalType":"uint256"}],"stateMutability":"view"},{"type":"function","name":"gov","inputs":[],"outputs":[{"name":"","type":"address","internalType":"address"}],"stateMutability":"view"},{"type":"function","name":"inLegacyMode","inputs":[],"outputs":[{"name":"","type":"bool","internalType":"bool"}],"stateMutability":"view"},{"type":"function","name":"increasePosition","inputs":[{"name":"_path","type":"address[]","internalType":"address[]"},{"name":"_indexToken","type":"address","internalType":"address"},{"name":"_amountIn","type":"uint256","internalType":"uint256"},{"name":"_minOut","type":"uint256","internalType":"uint256"},{"name":"_sizeDelta","type":"uint256","internalType":"uint256"},{"name":"_isLong","type":"bool","internalType":"bool"},{"name":"_price","type":"uint256","internalType":"uint256"}],"outputs":[],"stateMutability":"nonpayable"},{"type":"function","name":"increasePositionBufferBps","inputs":[],"outputs":[{"name":"","type":"uint256","internalType":"uint256"}],"stateMutability":"view"},{"type":"function","name":"increasePositionETH","inputs":[{"name":"_path","type":"address[]","internalType":"address[]"},{"name":"_indexToken","type":"address","internalType":"address"},{"name":"_minOut","type":"uint256","internalType":"uint256"},{"name":"_sizeDelta","type":"uint256","internalType":"uint256"},{"name":"_isLong","type":"bool","internalType":"bool"},{"name":"_price","type":"uint256","internalType":"uint256"}],"outputs":[],"stateMutability":"payable"},{"type":"function","name":"isLiquidator","inputs":[{"name":"","type":"address","internalType":"address"}],"outputs":[{"name":"","type":"bool","internalType":"bool"}],"stateMutability":"view"},{"type":"function","name":"isOrderKeeper","inputs":[{"name":"","type":"address","internalType":"address"}],"outputs":[{"name":"","type":"bool","internalType":"bool"}],"stateMutability":"view"},{"type":"function","name":"isPartner","inputs":[{"name":"","type":"address","internalType":"address"}],"outputs":[{"name":"","type":"bool","internalType":"bool"}],"stateMutability":"view"},{"type":"function","name":"liquidatePosition","inputs":[{"name":"_account","type":"address","internalType":"address"},{"name":"_collateralToken","type":"address","internalType":"address"},{"name":"_indexToken","type":"address","internalType":"address"},{"name":"_isLong","type":"bool","internalType":"bool"},{"name":"_feeReceiver","type":"address","internalType":"address"}],"outputs":[],"stateMutability":"nonpayable"},{"type":"function","name":"maxGlobalLongSizes","inputs":[{"name":"","type":"address","internalType":"address"}],"outputs":[{"name":"","type":"uint256","internalType":"uint256"}],"stateMutability":"view"},{"type":"function","name":"maxGlobalShortSizes","inputs":[{"name":"","type":"address","internalType":"address"}],"outputs":[{"name":"","type":"uint256","internalType":"uint256"}],"stateMutability":"view"},{"type":"function","name":"orderBook","inputs":[],"outputs":[{"name":"","type":"address","internalType":"address"}],"stateMutability":"view"},{"type":"function","name":"referralStorage","inputs":[],"outputs":[{"name":"","type":"address","internalType":"address"}],"stateMutability":"view"},{"type":"function","name":"router","inputs":[],"outputs":[{"name":"","type":"address","internalType":"address"}],"stateMutability":"view"},{"type":"function","name":"sendValue","inputs":[{"name":"_receiver","type":"address","internalType":"address payable"},{"name":"_amount","type":"uint256","internalType":"uint256"}],"outputs":[],"stateMutability":"nonpayable"},{"type":"function","name":"setAdmin","inputs":[{"name":"_admin","type":"address","internalType":"address"}],"outputs":[],"stateMutability":"nonpayable"},{"type":"function","name":"setDepositFee","inputs":[{"name":"_depositFee","type":"uint256","internalType":"uint256"}],"outputs":[],"stateMutability":"nonpayable"},{"type":"function","name":"setGov","inputs":[{"name":"_gov","type":"address","internalType":"address"}],"outputs":[],"stateMutability":"nonpayable"},{"type":"function","name":"setInLegacyMode","inputs":[{"name":"_inLegacyMode","type":"bool","internalType":"bool"}],"outputs":[],"stateMutability":"nonpayable"},{"type":"function","name":"setIncreasePositionBufferBps","inputs":[{"name":"_increasePositionBufferBps","type":"uint256","internalType":"uint256"}],"outputs":[],"stateMutability":"nonpayable"},{"type":"function","name":"setLiquidator","inputs":[{"name":"_account","type":"address","internalType":"address"},{"name":"_isActive","type":"bool","internalType":"bool"}],"outputs":[],"stateMutability":"nonpayable"},{"type":"function","name":"setMaxGlobalSizes","inputs":[{"name":"_tokens","type":"address[]","internalType":"address[]"},{"name":"_longSizes","type":"uint256[]","internalType":"uint256[]"},{"name":"_shortSizes","type":"uint256[]","internalType":"uint256[]"}],"outputs":[],"stateMutability":"nonpayable"},{"type":"function","name":"setOrderKeeper","inputs":[{"name":"_account","type":"address","internalType":"address"},{"name":"_isActive","type":"bool","internalType":"bool"}],"outputs":[],"stateMutability":"nonpayable"},{"type":"function","name":"setPartner","inputs":[{"name":"_account","type":"address","internalType":"address"},{"name":"_isActive","type":"bool","internalType":"bool"}],"outputs":[],"stateMutability":"nonpayable"},{"type":"function","name":"setReferralStorage","inputs":[{"name":"_referralStorage","type":"address","internalType":"address"}],"outputs":[],"stateMutability":"nonpayable"},{"type":"function","name":"setShouldValidateIncreaseOrder","inputs":[{"name":"_shouldValidateIncreaseOrder","type":"bool","internalType":"bool"}],"outputs":[],"stateMutability":"nonpayable"},{"type":"function","name":"shortsTracker","inputs":[],"outputs":[{"name":"","type":"address","internalType":"address"}],"stateMutability":"view"},{"type":"function","name":"shouldValidateIncreaseOrder","inputs":[],"outputs":[{"name":"","type":"bool","internalType":"bool"}],"stateMutability":"view"},{"type":"function","name":"vault","inputs":[],"outputs":[{"name":"","type":"address","internalType":"address"}],"stateMutability":"view"},{"type":"function","name":"weth","inputs":[],"outputs":[{"name":"","type":"address","internalType":"address"}],"stateMutability":"view"},{"type":"function","name":"withdrawFees","inputs":[{"name":"_token","type":"address","internalType":"address"},{"name":"_receiver","type":"address","internalType":"address"}],"outputs":[],"stateMutability":"nonpayable"},{"type":"event","name":"DecreasePositionReferral","inputs":[{"name":"account","type":"address","indexed":false,"internalType":"address"},{"name":"sizeDelta","type":"uint256","indexed":false,"internalType":"uint256"},{"name":"marginFeeBasisPoints","type":"uint256","indexed":false,"internalType":"uint256"},{"name":"referralCode","type":"bytes32","indexed":false,"internalType":"bytes32"},{"name":"referrer","type":"address","indexed":false,"internalType":"address"}],"anonymous":false},{"type":"event","name":"IncreasePositionReferral","inputs":[{"name":"account","type":"address","indexed":false,"internalType":"address"},{"name":"sizeDelta","type":"uint256","indexed":false,"internalType":"uint256"},{"name":"marginFeeBasisPoints","type":"uint256","indexed":false,"internalType":"uint256"},{"name":"referralCode","type":"bytes32","indexed":false,"internalType":"bytes32"},{"name":"referrer","type":"address","indexed":false,"internalType":"address"}],"anonymous":false},{"type":"event","name":"SetAdmin","inputs":[{"name":"admin","type":"address","indexed":false,"internalType":"address"}],"anonymous":false},{"type":"event","name":"SetDepositFee","inputs":[{"name":"depositFee","type":"uint256","indexed":false,"internalType":"uint256"}],"anonymous":false},{"type":"event","name":"SetInLegacyMode","inputs":[{"name":"inLegacyMode","type":"bool","indexed":false,"internalType":"bool"}],"anonymous":false},{"type":"event","name":"SetIncreasePositionBufferBps","inputs":[{"name":"increasePositionBufferBps","type":"uint256","indexed":false,"internalType":"uint256"}],"anonymous":false},{"type":"event","name":"SetLiquidator","inputs":[{"name":"account","type":"address","indexed":true,"internalType":"address"},{"name":"isActive","type":"bool","indexed":false,"internalType":"bool"}],"anonymous":false},{"type":"event","name":"SetMaxGlobalSizes","inputs":[{"name":"tokens","type":"address[]","indexed":false,"internalType":"address[]"},{"name":"longSizes","type":"uint256[]","indexed":false,"internalType":"uint256[]"},{"name":"shortSizes","type":"uint256[]","indexed":false,"internalType":"uint256[]"}],"anonymous":false},{"type":"event","name":"SetOrderKeeper","inputs":[{"name":"account","type":"address","indexed":true,"internalType":"address"},{"name":"isActive","type":"bool","indexed":false,"internalType":"bool"}],"anonymous":false},{"type":"event","name":"SetPartner","inputs":[{"name":"account","type":"address","indexed":false,"internalType":"address"},{"name":"isActive","type":"bool","indexed":false,"internalType":"bool"}],"anonymous":false},{"type":"event","name":"SetReferralStorage","inputs":[{"name":"referralStorage","type":"address","indexed":false,"internalType":"address"}],"anonymous":false},{"type":"event","name":"SetShouldValidateIncreaseOrder","inputs":[{"name":"shouldValidateIncreaseOrder","type":"bool","indexed":false,"internalType":"bool"}],"anonymous":false},{"type":"event","name":"WithdrawFees","inputs":[{"name":"token","type":"address","indexed":false,"internalType":"address"},{"name":"receiver","type":"address","indexed":false,"internalType":"address"},{"name":"amount","type":"uint256","indexed":false,"internalType":"uint256"}],"anonymous":false}],"bytecode":{"object":"0x60806040526064600855600d805460ff60a81b1916600160a81b17905534801561002857600080fd5b50604051620051b3380380620051b3833981810160405260c081101561004d57600080fd5b508051602082015160408301516060840151608085015160a0909501516001600081905580546001600160a01b031990811633908117909255600380546001600160a01b039889169083161790556005805496881696821696909617909555600680549387169386169390931790925560079590955560048054928516928416929092179091556002805483169091179055600d80549290931691161790556150b780620000fc6000396000f3fe60806040526004361061025f5760003560e01c8063657bc5d011610144578063b7ddc992116100b6578063e1f21c671161007a578063e1f21c6714610c5e578063ef12c67e14610ca1578063f255527814610e53578063f851a44014610e8e578063f887ea4014610ea3578063fbfa77cf14610eb8576102af565b8063b7ddc99214610aa8578063cfad57a214610b7e578063d38ab51914610bb1578063d4ca83f914610bf4578063de2ea94814610c09576102af565b806390205d8c1161010857806390205d8c146108df5780639698d25a1461093e57806398d1e03a146109715780639c95332f14610986578063ae4d7f9a146109b2578063b32755de146109e5576102af565b8063657bc5d01461083a57806367a527931461084f578063704b6c0214610864578063776af5ba146108975780638c0f9aac146108ac576102af565b8063233bfe3b116101dd578063430ed37c116101a1578063430ed37c1461064e5780634453a374146106ad5780634584bd4b146106e8578063490ae210146106fd578063529a356f146107275780635fc8500e1461075a576102af565b8063233bfe3b146104af57806324a084df146104d95780633039e37f146105125780633833f5f5146105f25780633fc8cef314610639576102af565b806312d43a511161022457806312d43a51146103c55780631b904359146103da5780631ce9cb8f146104065780631e2615381461043957806321acf65914610474576102af565b80626cc35e146102b457806307c7edc3146102e55780631045c74e1461032857806311d9444a1461036d578063126082cf146103b0576102af565b366102af576006546001600160a01b031633146102ad5760405162461bcd60e51b81526004018080602001828103825260238152602001806150106023913960400191505060405180910390fd5b005b600080fd5b3480156102c057600080fd5b506102c9610ecd565b604080516001600160a01b039092168252519081900360200190f35b3480156102f157600080fd5b506102ad6004803603606081101561030857600080fd5b506001600160a01b03813581169160208101359160409091013516610edc565b34801561033457600080fd5b5061035b6004803603602081101561034b57600080fd5b50356001600160a01b0316610fa8565b60408051918252519081900360200190f35b34801561037957600080fd5b506102ad6004803603606081101561039057600080fd5b506001600160a01b03813581169160208101359160409091013516610fba565b3480156103bc57600080fd5b5061035b61141a565b3480156103d157600080fd5b506102c9611420565b3480156103e657600080fd5b506102ad600480360360208110156103fd57600080fd5b5035151561142f565b34801561041257600080fd5b5061035b6004803603602081101561042957600080fd5b50356001600160a01b03166114cf565b34801561044557600080fd5b506102ad6004803603604081101561045c57600080fd5b506001600160a01b03813516906020013515156114e1565b34801561048057600080fd5b506102ad6004803603604081101561049757600080fd5b506001600160a01b038135169060200135151561158e565b3480156104bb57600080fd5b506102ad600480360360208110156104d257600080fd5b503561163f565b3480156104e557600080fd5b506102ad600480360360408110156104fc57600080fd5b506001600160a01b0381351690602001356116c7565b34801561051e57600080fd5b506102ad600480360361010081101561053657600080fd5b810190602081018135600160201b81111561055057600080fd5b82018360208201111561056257600080fd5b803590602001918460208302840111600160201b8311171561058357600080fd5b919080806020026020016040519081016040528093929190818152602001838360200280828437600092019190915250929550505081356001600160a01b0390811693506020830135926040810135925060608101351515916080820135169060a08101359060c00135611735565b3480156105fe57600080fd5b506106256004803603602081101561061557600080fd5b50356001600160a01b0316611942565b604080519115158252519081900360200190f35b34801561064557600080fd5b506102c9611957565b34801561065a57600080fd5b506102ad600480360360e081101561067157600080fd5b506001600160a01b0381358116916020810135821691604082013591606081013591608082013515159160a08101359091169060c00135611966565b3480156106b957600080fd5b506102ad600480360360408110156106d057600080fd5b506001600160a01b0381351690602001351515611a8f565b3480156106f457600080fd5b50610625611b3c565b34801561070957600080fd5b506102ad6004803603602081101561072057600080fd5b5035611b4c565b34801561073357600080fd5b506106256004803603602081101561074a57600080fd5b50356001600160a01b0316611bd4565b34801561076657600080fd5b506102ad600480360361010081101561077e57600080fd5b810190602081018135600160201b81111561079857600080fd5b8201836020820111156107aa57600080fd5b803590602001918460208302840111600160201b831117156107cb57600080fd5b919080806020026020016040519081016040528093929190818152602001838360200280828437600092019190915250929550505081356001600160a01b0390811693506020830135926040810135925060608101351515916080820135169060a08101359060c00135611be9565b34801561084657600080fd5b506102c9611d20565b34801561085b57600080fd5b5061035b611d2f565b34801561087057600080fd5b506102ad6004803603602081101561088757600080fd5b50356001600160a01b0316611d35565b3480156108a357600080fd5b506102c9611de0565b3480156108b857600080fd5b50610625600480360360208110156108cf57600080fd5b50356001600160a01b0316611def565b3480156108eb57600080fd5b506102ad600480360360e081101561090257600080fd5b506001600160a01b0381358116916020810135821691604082013591606081013591608082013515159160a08101359091169060c00135611e04565b34801561094a57600080fd5b5061035b6004803603602081101561096157600080fd5b50356001600160a01b0316611ec4565b34801561097d57600080fd5b5061035b611ed6565b34801561099257600080fd5b506102ad600480360360208110156109a957600080fd5b50351515611edc565b3480156109be57600080fd5b506102ad600480360360208110156109d557600080fd5b50356001600160a01b0316611f7c565b6102ad600480360360c08110156109fb57600080fd5b810190602081018135600160201b811115610a1557600080fd5b820183602082011115610a2757600080fd5b803590602001918460208302840111600160201b83111715610a4857600080fd5b919080806020026020016040519081016040528093929190818152602001838360200280828437600092019190915250929550506001600160a01b038335169350505060208101359060408101359060608101351515906080013561201d565b348015610ab457600080fd5b506102ad600480360360e0811015610acb57600080fd5b810190602081018135600160201b811115610ae557600080fd5b820183602082011115610af757600080fd5b803590602001918460208302840111600160201b83111715610b1857600080fd5b919080806020026020016040519081016040528093929190818152602001838360200280828437600092019190915250929550506001600160a01b0383351693505050602081013590604081013590606081013590608081013515159060a0013561224e565b348015610b8a57600080fd5b506102ad60048036036020811015610ba157600080fd5b50356001600160a01b031661252d565b348015610bbd57600080fd5b506102ad60048036036060811015610bd457600080fd5b506001600160a01b038135811691602081013591604090910135166125a6565b348015610c0057600080fd5b50610625612a07565b348015610c1557600080fd5b506102ad600480360360a0811015610c2c57600080fd5b506001600160a01b03813581169160208101358216916040820135811691606081013515159160809091013516612a17565b348015610c6a57600080fd5b506102ad60048036036060811015610c8157600080fd5b506001600160a01b03813581169160208101359091169060400135612ebc565b348015610cad57600080fd5b506102ad60048036036060811015610cc457600080fd5b810190602081018135600160201b811115610cde57600080fd5b820183602082011115610cf057600080fd5b803590602001918460208302840111600160201b83111715610d1157600080fd5b9190808060200260200160405190810160405280939291908181526020018383602002808284376000920191909152509295949360208101935035915050600160201b811115610d6057600080fd5b820183602082011115610d7257600080fd5b803590602001918460208302840111600160201b83111715610d9357600080fd5b9190808060200260200160405190810160405280939291908181526020018383602002808284376000920191909152509295949360208101935035915050600160201b811115610de257600080fd5b820183602082011115610df457600080fd5b803590602001918460208302840111600160201b83111715610e1557600080fd5b919080806020026020016040519081016040528093929190818152602001838360200280828437600092019190915250929550612f9b945050505050565b348015610e5f57600080fd5b506102ad60048036036040811015610e7657600080fd5b506001600160a01b038135811691602001351661318a565b348015610e9a57600080fd5b506102c961326e565b348015610eaf57600080fd5b506102c961327d565b348015610ec457600080fd5b506102c961328c565b6009546001600160a01b031681565b336000908152600e602052604090205460ff16610f2e576040805162461bcd60e51b815260206004820152601a6024820152600080516020614f77833981519152604482015290519081900360640190fd5b600d54604080516307c7edc360e01b81526001600160a01b038681166004830152602482018690528481166044830152915191909216916307c7edc391606480830192600092919082900301818387803b158015610f8b57600080fd5b505af1158015610f9f573d6000803e3d6000fd5b50505050505050565b600b6020526000908152604090205481565b336000908152600e602052604090205460ff1661100c576040805162461bcd60e51b815260206004820152601a6024820152600080516020614f77833981519152604482015290519081900360640190fd5b600354604080516312d43a5160e01b815290516001600160a01b039092169160009183916312d43a5191600480820192602092909190829003018186803b15801561105657600080fd5b505afa15801561106a573d6000803e3d6000fd5b505050506040513d602081101561108057600080fd5b5051600d5460408051630130197760e11b81526001600160a01b03898116600483015260248201899052915193945060009384938493849391169163026032ee9160448082019261010092909190829003018186803b1580156110e257600080fd5b505afa1580156110f6573d6000803e3d6000fd5b505050506040513d61010081101561110d57600080fd5b50805160408201516060830151608090930151919650945090925090506000816111af57866001600160a01b031663e124e6d2856040518263ffffffff1660e01b815260040180826001600160a01b0316815260200191505060206040518083038186803b15801561117e57600080fd5b505afa158015611192573d6000803e3d6000fd5b505050506040513d60208110156111a857600080fd5b5051611229565b866001600160a01b03166381a612d6856040518263ffffffff1660e01b815260040180826001600160a01b0316815260200191505060206040518083038186803b1580156111fc57600080fd5b505afa158015611210573d6000803e3d6000fd5b505050506040513d602081101561122657600080fd5b50515b6004805460408051633cc8e33b60e21b81526001600160a01b038f8116948201949094528984166024820152888416604482015286151560648201526084810188905260a48101859052600060c482018190529151949550929091169263f3238cec9260e480820193929182900301818387803b1580156112a957600080fd5b505af11580156112bd573d6000803e3d6000fd5b50505050856001600160a01b0316636d63c1d0886040518263ffffffff1660e01b815260040180826001600160a01b03168152602001915050600060405180830381600087803b15801561131057600080fd5b505af1158015611324573d6000803e3d6000fd5b5050600d54604080516308eca22560e11b81526001600160a01b038f81166004830152602482018f90528d8116604483015291519190921693506311d9444a9250606480830192600092919082900301818387803b15801561138557600080fd5b505af1158015611399573d6000803e3d6000fd5b50505050856001600160a01b031663d3c87bbb886040518263ffffffff1660e01b815260040180826001600160a01b03168152602001915050600060405180830381600087803b1580156113ec57600080fd5b505af1158015611400573d6000803e3d6000fd5b5050505061140e8a8461329b565b50505050505050505050565b61271081565b6001546001600160a01b031681565b6002546001600160a01b0316331461147c576040805162461bcd60e51b815260206004820152601e6024820152600080516020614ed6833981519152604482015290519081900360640190fd5b600d8054821515600160a81b810260ff60a81b199092169190911790915560408051918252517fa956222e37fe025ff51e5440ac729a9bd417ff91e485e14dcffa2c0ba8894f409181900360200190a150565b600a6020526000908152604090205481565b6002546001600160a01b0316331461152e576040805162461bcd60e51b815260206004820152601e6024820152600080516020614ed6833981519152604482015290519081900360640190fd5b6001600160a01b0382166000818152600e6020908152604091829020805460ff1916851515908117909155825190815291517f1d5bc0255b943d6a5b5279e8a55d74d620baccbceecb25e87a3558f14c4c118e9281900390910190a25050565b6002546001600160a01b031633146115db576040805162461bcd60e51b815260206004820152601e6024820152600080516020614ed6833981519152604482015290519081900360640190fd5b6001600160a01b0382166000818152600f6020908152604091829020805460ff191685151590811790915582519384529083015280517fa4e46c70ff429a91de7d1716d736e877c7cca1c22ac850b23d242530dd95e4749281900390910190a15050565b6002546001600160a01b0316331461168c576040805162461bcd60e51b815260206004820152601e6024820152600080516020614ed6833981519152604482015290519081900360640190fd5b60088190556040805182815290517f21167d0d4661af93817ebce920f18986eed3d75d5e1c03f2aed05efcbafbc4529181900360200190a150565b6001546001600160a01b0316331461171e576040805162461bcd60e51b815260206004820152601560248201527423b7bb32b93730b136329d103337b93134b23232b760591b604482015290519081900360640190fd5b6117316001600160a01b03831682613424565b5050565b6002600054141561177b576040805162461bcd60e51b815260206004820152601f6024820152600080516020614dfb833981519152604482015290519081900360640190fd5b60026000908155338152600f602052604090205460ff16806117a65750600d54600160a01b900460ff165b6117e5576040805162461bcd60e51b815260206004820152601a6024820152600080516020614f77833981519152604482015290519081900360640190fd5b87516002146118255760405162461bcd60e51b815260040180806020018281038252602581526020018061505d6025913960400191505060405180910390fd5b60065488516001600160a01b03909116908990600019810190811061184657fe5b60200260200101516001600160a01b0316146118a9576040805162461bcd60e51b815260206004820152601e60248201527f506f736974696f6e4d616e616765723a20696e76616c6964205f706174680000604482015290519081900360640190fd5b60006118cf338a6000815181106118bc57fe5b60200260200101518a8a8a8a308a61350e565b9050611918600360009054906101000a90046001600160a01b0316828b6000815181106118f857fe5b60200260200101516001600160a01b03166139a79092919063ffffffff16565b60006119258a84306139f9565b90506119318186613a7e565b505060016000555050505050505050565b600e6020526000908152604090205460ff1681565b6006546001600160a01b031681565b600260005414156119ac576040805162461bcd60e51b815260206004820152601f6024820152600080516020614dfb833981519152604482015290519081900360640190fd5b60026000908155338152600f602052604090205460ff16806119d75750600d54600160a01b900460ff165b611a16576040805162461bcd60e51b815260206004820152601a6024820152600080516020614f77833981519152604482015290519081900360640190fd5b6006546001600160a01b03888116911614611a625760405162461bcd60e51b8152600401808060200182810382526029815260200180614fe76029913960400191505060405180910390fd5b6000611a74338989898989308961350e565b9050611a808184613a7e565b50506001600055505050505050565b6002546001600160a01b03163314611adc576040805162461bcd60e51b815260206004820152601e6024820152600080516020614ed6833981519152604482015290519081900360640190fd5b6001600160a01b038216600081815260106020908152604091829020805460ff1916851515908117909155825190815291517f8c0d56805c3b43d441481229dc64bee168253ffe4305f37ab7cfe63b1c4268c69281900390910190a25050565b600d54600160a81b900460ff1681565b6002546001600160a01b03163314611b99576040805162461bcd60e51b815260206004820152601e6024820152600080516020614ed6833981519152604482015290519081900360640190fd5b60078190556040805182815290517f974fd3c1fcb4653dfc4fb740c4c692cd212d55c28f163f310128cb64d83006759181900360200190a150565b60106020526000908152604090205460ff1681565b60026000541415611c2f576040805162461bcd60e51b815260206004820152601f6024820152600080516020614dfb833981519152604482015290519081900360640190fd5b60026000908155338152600f602052604090205460ff1680611c5a5750600d54600160a01b900460ff165b611c99576040805162461bcd60e51b815260206004820152601a6024820152600080516020614f77833981519152604482015290519081900360640190fd5b8751600214611cd95760405162461bcd60e51b815260040180806020018281038252602581526020018061505d6025913960400191505060405180910390fd5b6000611cec338a6000815181106118bc57fe5b9050611d15600360009054906101000a90046001600160a01b0316828b6000815181106118f857fe5b6119318983866139f9565b6004546001600160a01b031681565b60075481565b6001546001600160a01b03163314611d8c576040805162461bcd60e51b815260206004820152601560248201527423b7bb32b93730b136329d103337b93134b23232b760591b604482015290519081900360640190fd5b600280546001600160a01b0383166001600160a01b0319909116811790915560408051918252517f5a272403b402d892977df56625f4164ccaf70ca3863991c43ecfe76a6905b0a19181900360200190a150565b600d546001600160a01b031681565b600f6020526000908152604090205460ff1681565b60026000541415611e4a576040805162461bcd60e51b815260206004820152601f6024820152600080516020614dfb833981519152604482015290519081900360640190fd5b60026000908155338152600f602052604090205460ff1680611e755750600d54600160a01b900460ff165b611eb4576040805162461bcd60e51b815260206004820152601a6024820152600080516020614f77833981519152604482015290519081900360640190fd5b611a80338888888888888861350e565b600c6020526000908152604090205481565b60085481565b6002546001600160a01b03163314611f29576040805162461bcd60e51b815260206004820152601e6024820152600080516020614ed6833981519152604482015290519081900360640190fd5b600d8054821515600160a01b810260ff60a01b199092169190911790915560408051918252517feac6b3611e79ff0d8ea5daa8439f6b1ab7eea4ebf95f1dd360417f712c3fc3049181900360200190a150565b6002546001600160a01b03163314611fc9576040805162461bcd60e51b815260206004820152601e6024820152600080516020614ed6833981519152604482015290519081900360640190fd5b600980546001600160a01b0383166001600160a01b0319909116811790915560408051918252517f828abcccea18192c21d645e575652c49e20b986dab777906fc473d056b01b6a89181900360200190a150565b60026000541415612063576040805162461bcd60e51b815260206004820152601f6024820152600080516020614dfb833981519152604482015290519081900360640190fd5b60026000908155338152600f602052604090205460ff168061208e5750600d54600160a01b900460ff165b6120cd576040805162461bcd60e51b815260206004820152601a6024820152600080516020614f77833981519152604482015290519081900360640190fd5b8551600114806120de575085516002145b6121195760405162461bcd60e51b815260040180806020018281038252602581526020018061505d6025913960400191505060405180910390fd5b60065486516001600160a01b0390911690879060009061213557fe5b60200260200101516001600160a01b031614612198576040805162461bcd60e51b815260206004820152601e60248201527f506f736974696f6e4d616e616765723a20696e76616c6964205f706174680000604482015290519081900360640190fd5b341561221c576121a6613b19565b85513490600110156121dd576003546006546121cf916001600160a01b039182169116346139a7565b6121da8786306139f9565b90505b60006121ed3389848a888a613b85565b9050612219600360009054906101000a90046001600160a01b0316828a60018c5103815181106118f857fe5b50505b612241338760018951038151811061223057fe5b602002602001015187868686613c64565b5050600160005550505050565b60026000541415612294576040805162461bcd60e51b815260206004820152601f6024820152600080516020614dfb833981519152604482015290519081900360640190fd5b60026000908155338152600f602052604090205460ff16806122bf5750600d54600160a01b900460ff165b6122fe576040805162461bcd60e51b815260206004820152601a6024820152600080516020614f77833981519152604482015290519081900360640190fd5b86516001148061230f575086516002145b61234a5760405162461bcd60e51b815260040180806020018281038252602581526020018061505d6025913960400191505060405180910390fd5b84156124fa5786516001141561240a5760055487516001600160a01b0390911690631b82787890899060009061237c57fe5b60200260200101513330896040518563ffffffff1660e01b815260040180856001600160a01b03168152602001846001600160a01b03168152602001836001600160a01b03168152602001828152602001945050505050600060405180830381600087803b1580156123ed57600080fd5b505af1158015612401573d6000803e3d6000fd5b505050506124bc565b60055487516001600160a01b0390911690631b82787890899060009061242c57fe5b6020908102919091010151600354604080516001600160e01b031960e086901b1681526001600160a01b0393841660048201523360248201529290911660448301526064820189905251608480830192600092919082900301818387803b15801561249657600080fd5b505af11580156124aa573d6000803e3d6000fd5b505050506124b98785306139f9565b94505b60006124cc3389888a8789613b85565b90506124f8600360009054906101000a90046001600160a01b0316828a60018c5103815181106118f857fe5b505b61251f338860018a51038151811061250e57fe5b602002602001015188868686613c64565b505060016000555050505050565b6001546001600160a01b03163314612584576040805162461bcd60e51b815260206004820152601560248201527423b7bb32b93730b136329d103337b93134b23232b760591b604482015290519081900360640190fd5b600180546001600160a01b0319166001600160a01b0392909216919091179055565b336000908152600e602052604090205460ff166125f8576040805162461bcd60e51b815260206004820152601a6024820152600080516020614f77833981519152604482015290519081900360640190fd5b612602838361406c565b600354604080516312d43a5160e01b815290516001600160a01b039092169160009183916312d43a5191600480820192602092909190829003018186803b15801561264c57600080fd5b505afa158015612660573d6000803e3d6000fd5b505050506040513d602081101561267657600080fd5b5051600d546040805163d3bab1d160e01b81526001600160a01b03898116600483015260248201899052915193945060009384938493849391169163d3bab1d19160448082019261012092909190829003018186803b1580156126d857600080fd5b505afa1580156126ec573d6000803e3d6000fd5b505050506040513d61012081101561270357600080fd5b5060408101516060820151608083015160a090930151919650945090925090506000816127a857866001600160a01b03166381a612d6856040518263ffffffff1660e01b815260040180826001600160a01b0316815260200191505060206040518083038186803b15801561277757600080fd5b505afa15801561278b573d6000803e3d6000fd5b505050506040513d60208110156127a157600080fd5b5051612822565b866001600160a01b031663e124e6d2856040518263ffffffff1660e01b815260040180826001600160a01b0316815260200191505060206040518083038186803b1580156127f557600080fd5b505afa158015612809573d6000803e3d6000fd5b505050506040513d602081101561281f57600080fd5b50515b6004805460408051633cc8e33b60e21b81526001600160a01b038f8116948201949094528984166024820152888416604482015286151560648201526084810188905260a48101859052600160c4820152905193945091169163f3238cec9160e48082019260009290919082900301818387803b1580156128a257600080fd5b505af11580156128b6573d6000803e3d6000fd5b50505050856001600160a01b0316636d63c1d0886040518263ffffffff1660e01b815260040180826001600160a01b03168152602001915050600060405180830381600087803b15801561290957600080fd5b505af115801561291d573d6000803e3d6000fd5b5050600d546040805163d38ab51960e01b81526001600160a01b038f81166004830152602482018f90528d81166044830152915191909216935063d38ab5199250606480830192600092919082900301818387803b15801561297e57600080fd5b505af1158015612992573d6000803e3d6000fd5b50505050856001600160a01b031663d3c87bbb886040518263ffffffff1660e01b815260040180826001600160a01b03168152602001915050600060405180830381600087803b1580156129e557600080fd5b505af11580156129f9573d6000803e3d6000fd5b5050505061140e8a8461438f565b600d54600160a01b900460ff1681565b60026000541415612a5d576040805162461bcd60e51b815260206004820152601f6024820152600080516020614dfb833981519152604482015290519081900360640190fd5b600260009081553381526010602052604090205460ff16612ab3576040805162461bcd60e51b815260206004820152601a6024820152600080516020614f77833981519152604482015290519081900360640190fd5b600354604080516312d43a5160e01b815290516001600160a01b039092169160009183916312d43a5191600480820192602092909190829003018186803b158015612afd57600080fd5b505afa158015612b11573d6000803e3d6000fd5b505050506040513d6020811015612b2757600080fd5b505160035460408051634a3f088d60e01b81526001600160a01b038b811660048301528a811660248301528981166044830152881515606483015291519394506000939190921691634a3f088d91608480830192610100929190829003018186803b158015612b9557600080fd5b505afa158015612ba9573d6000803e3d6000fd5b505050506040513d610100811015612bc057600080fd5b50519050600085612c4957836001600160a01b031663e124e6d2886040518263ffffffff1660e01b815260040180826001600160a01b0316815260200191505060206040518083038186803b158015612c1857600080fd5b505afa158015612c2c573d6000803e3d6000fd5b505050506040513d6020811015612c4257600080fd5b5051612cc3565b836001600160a01b03166381a612d6886040518263ffffffff1660e01b815260040180826001600160a01b0316815260200191505060206040518083038186803b158015612c9657600080fd5b505afa158015612caa573d6000803e3d6000fd5b505050506040513d6020811015612cc057600080fd5b50515b6004805460408051633cc8e33b60e21b81526001600160a01b038e8116948201949094528c841660248201528b841660448201528a151560648201526084810187905260a48101859052600060c482018190529151949550929091169263f3238cec9260e480820193929182900301818387803b158015612d4357600080fd5b505af1158015612d57573d6000803e3d6000fd5b50505050826001600160a01b0316636d63c1d0856040518263ffffffff1660e01b815260040180826001600160a01b03168152602001915050600060405180830381600087803b158015612daa57600080fd5b505af1158015612dbe573d6000803e3d6000fd5b505060408051631bc5d52960e31b81526001600160a01b038d811660048301528c811660248301528b811660448301528a1515606483015289811660848301529151918816935063de2ea948925060a48082019260009290919082900301818387803b158015612e2d57600080fd5b505af1158015612e41573d6000803e3d6000fd5b50505050826001600160a01b031663d3c87bbb856040518263ffffffff1660e01b815260040180826001600160a01b03168152602001915050600060405180830381600087803b158015612e9457600080fd5b505af1158015612ea8573d6000803e3d6000fd5b505060016000555050505050505050505050565b6001546001600160a01b03163314612f13576040805162461bcd60e51b815260206004820152601560248201527423b7bb32b93730b136329d103337b93134b23232b760591b604482015290519081900360640190fd5b826001600160a01b031663095ea7b383836040518363ffffffff1660e01b815260040180836001600160a01b0316815260200182815260200192505050602060405180830381600087803b158015612f6a57600080fd5b505af1158015612f7e573d6000803e3d6000fd5b505050506040513d6020811015612f9457600080fd5b5050505050565b6002546001600160a01b03163314612fe8576040805162461bcd60e51b815260206004820152601e6024820152600080516020614ed6833981519152604482015290519081900360640190fd5b60005b835181101561308357600084828151811061300257fe5b6020026020010151905083828151811061301857fe5b6020026020010151600b6000836001600160a01b03166001600160a01b031681526020019081526020016000208190555082828151811061305557fe5b6020908102919091018101516001600160a01b039092166000908152600c9091526040902055600101612feb565b507fae32d569b058895b9620d6552b09aaffedc9a6f396be4d595a224ad09f8b213983838360405180806020018060200180602001848103845287818151815260200191508051906020019060200280838360005b838110156130f05781810151838201526020016130d8565b50505050905001848103835286818151815260200191508051906020019060200280838360005b8381101561312f578181015183820152602001613117565b50505050905001848103825285818151815260200191508051906020019060200280838360005b8381101561316e578181015183820152602001613156565b50505050905001965050505050505060405180910390a1505050565b6002546001600160a01b031633146131d7576040805162461bcd60e51b815260206004820152601e6024820152600080516020614ed6833981519152604482015290519081900360640190fd5b6001600160a01b0382166000908152600a6020526040902054806131fb5750611731565b6001600160a01b0383166000818152600a602052604081205561321f9083836139a7565b604080516001600160a01b0380861682528416602082015280820183905290517f4f1b51dd7a2fcb861aa2670f668be66835c4ee12b4bbbf037e4d0018f39819e49181900360600190a1505050565b6002546001600160a01b031681565b6005546001600160a01b031681565b6003546001600160a01b031681565b6009546001600160a01b0316806132b25750611731565b600080826001600160a01b031663534ef883866040518263ffffffff1660e01b815260040180826001600160a01b03168152602001915050604080518083038186803b15801561330157600080fd5b505afa158015613315573d6000803e3d6000fd5b505050506040513d604081101561332b57600080fd5b50805160209091015190925090508161334657505050611731565b7f474c763ff84bf2c2039a6d9fea955ecd0f724030e3c365b91169c6a16fe751b78585600360009054906101000a90046001600160a01b03166001600160a01b031663318bc6896040518163ffffffff1660e01b815260040160206040518083038186803b1580156133b757600080fd5b505afa1580156133cb573d6000803e3d6000fd5b505050506040513d60208110156133e157600080fd5b5051604080516001600160a01b03948516815260208101939093528281019190915260608201869052918416608082015290519081900360a00190a15050505050565b80471015613479576040805162461bcd60e51b815260206004820152601d60248201527f416464726573733a20696e73756666696369656e742062616c616e6365000000604482015290519081900360640190fd5b6040516000906001600160a01b0384169083908381818185875af1925050503d80600081146134c4576040519150601f19603f3d011682016040523d82523d6000602084013e6134c9565b606091505b50509050806135095760405162461bcd60e51b815260040180806020018281038252603a815260200180614e46603a913960400191505060405180910390fd5b505050565b6003546000906001600160a01b031681856135a157816001600160a01b031663e124e6d28a6040518263ffffffff1660e01b815260040180826001600160a01b0316815260200191505060206040518083038186803b15801561357057600080fd5b505afa158015613584573d6000803e3d6000fd5b505050506040513d602081101561359a57600080fd5b505161361b565b816001600160a01b03166381a612d68a6040518263ffffffff1660e01b815260040180826001600160a01b0316815260200191505060206040518083038186803b1580156135ee57600080fd5b505afa158015613602573d6000803e3d6000fd5b505050506040513d602081101561361857600080fd5b50515b9050851561366757838110156136625760405162461bcd60e51b8152600401808060200182810382526030815260200180614ea66030913960400191505060405180910390fd5b6136a6565b838111156136a65760405162461bcd60e51b8152600401808060200182810382526031815260200180614f466031913960400191505060405180910390fd5b6000826001600160a01b03166312d43a516040518163ffffffff1660e01b815260040160206040518083038186803b1580156136e157600080fd5b505afa1580156136f5573d6000803e3d6000fd5b505050506040513d602081101561370b57600080fd5b81019080805190602001909291905050509050600460009054906101000a90046001600160a01b03166001600160a01b031663f3238cec8d8d8d8b8d8860006040518863ffffffff1660e01b815260040180886001600160a01b03168152602001876001600160a01b03168152602001866001600160a01b0316815260200185151581526020018481526020018381526020018215158152602001975050505050505050600060405180830381600087803b1580156137c957600080fd5b505af11580156137dd573d6000803e3d6000fd5b50505050806001600160a01b0316636d63c1d0846040518263ffffffff1660e01b815260040180826001600160a01b03168152602001915050600060405180830381600087803b15801561383057600080fd5b505af1158015613844573d6000803e3d6000fd5b505050506000600560009054906101000a90046001600160a01b03166001600160a01b0316632662166b8e8e8e8e8e8e8e6040518863ffffffff1660e01b815260040180886001600160a01b03168152602001876001600160a01b03168152602001866001600160a01b031681526020018581526020018481526020018315158152602001826001600160a01b03168152602001975050505050505050602060405180830381600087803b1580156138fb57600080fd5b505af115801561390f573d6000803e3d6000fd5b505050506040513d602081101561392557600080fd5b50516040805163d3c87bbb60e01b81526001600160a01b03878116600483015291519293509084169163d3c87bbb9160248082019260009290919082900301818387803b15801561397557600080fd5b505af1158015613989573d6000803e3d6000fd5b505050506139978d8a61329b565b9c9b505050505050505050505050565b604080516001600160a01b038416602482015260448082018490528251808303909101815260649091019091526020810180516001600160e01b031663a9059cbb60e01b179052613509908490614495565b6000835160021415613a4057613a3984600081518110613a1557fe5b602002602001015185600181518110613a2a57fe5b60200260200101518585614546565b9050613a77565b60405162461bcd60e51b8152600401808060200182810382526029815260200180614fbe6029913960400191505060405180910390fd5b9392505050565b60065460408051632e1a7d4d60e01b81526004810185905290516001600160a01b0390921691632e1a7d4d9160248082019260009290919082900301818387803b158015613acb57600080fd5b505af1158015613adf573d6000803e3d6000fd5b50506040516001600160a01b038416925084156108fc02915084906000818181858888f19350505050158015613509573d6000803e3d6000fd5b3415613b8357600660009054906101000a90046001600160a01b03166001600160a01b031663d0e30db0346040518263ffffffff1660e01b81526004016000604051808303818588803b158015613b6f57600080fd5b505af1158015612f94573d6000803e3d6000fd5b565b600080613b9688888888888861461c565b90508015613c55576000613bcd612710613bc7613bc06007546127106147f990919063ffffffff16565b8a90614844565b9061489d565b90506000613bdb88836147f9565b905060008960018b510381518110613bef57fe5b60200260200101519050613c3182600a6000846001600160a01b03166001600160a01b03168152602001908152602001600020546148df90919063ffffffff16565b6001600160a01b039091166000908152600a6020526040902055509150613c5a9050565b859150505b9695505050505050565b6003546001600160a01b0316600083613cf557816001600160a01b03166381a612d6876040518263ffffffff1660e01b815260040180826001600160a01b0316815260200191505060206040518083038186803b158015613cc457600080fd5b505afa158015613cd8573d6000803e3d6000fd5b505050506040513d6020811015613cee57600080fd5b5051613d6f565b816001600160a01b031663e124e6d2876040518263ffffffff1660e01b815260040180826001600160a01b0316815260200191505060206040518083038186803b158015613d4257600080fd5b505afa158015613d56573d6000803e3d6000fd5b505050506040513d6020811015613d6c57600080fd5b50515b90508315613dbb5782811115613db65760405162461bcd60e51b8152600401808060200182810382526031815260200180614f466031913960400191505060405180910390fd5b613dfa565b82811015613dfa5760405162461bcd60e51b8152600401808060200182810382526030815260200180614ea66030913960400191505060405180910390fd5b613e05868587614939565b6000826001600160a01b03166312d43a516040518163ffffffff1660e01b815260040160206040518083038186803b158015613e4057600080fd5b505afa158015613e54573d6000803e3d6000fd5b505050506040513d6020811015613e6a57600080fd5b50516004805460408051633cc8e33b60e21b81526001600160a01b038e8116948201949094528c841660248201528b841660448201528915156064820152608481018b905260a48101879052600160c4820152905193945091169163f3238cec9160e48082019260009290919082900301818387803b158015613eec57600080fd5b505af1158015613f00573d6000803e3d6000fd5b50505050806001600160a01b0316636d63c1d0846040518263ffffffff1660e01b815260040180826001600160a01b03168152602001915050600060405180830381600087803b158015613f5357600080fd5b505af1158015613f67573d6000803e3d6000fd5b505060055460408051630f8ee8bb60e11b81526001600160a01b038e811660048301528d811660248301528c81166044830152606482018c90528a151560848301529151919092169350631f1dd176925060a480830192600092919082900301818387803b158015613fd857600080fd5b505af1158015613fec573d6000803e3d6000fd5b50505050806001600160a01b031663d3c87bbb846040518263ffffffff1660e01b815260040180826001600160a01b03168152602001915050600060405180830381600087803b15801561403f57600080fd5b505af1158015614053573d6000803e3d6000fd5b50505050614061898761438f565b505050505050505050565b600d546040805163d3bab1d160e01b81526001600160a01b03858116600483015260248201859052915160009384938493849384938493169163d3bab1d191604480830192610120929190829003018186803b1580156140cb57600080fd5b505afa1580156140df573d6000803e3d6000fd5b505050506040513d6101208110156140f657600080fd5b508051602082015160408301516060840151608085015160a090950151939a5091985096509450909250905061412d838284614939565b600d54600160a81b900460ff1661414957505050505050611731565b8061415957505050505050611731565b600082116141ae576040805162461bcd60e51b815260206004820152601d60248201527f506f736974696f6e4d616e616765723a206c6f6e67206465706f736974000000604482015290519081900360640190fd5b60035460408051634a3f088d60e01b81526001600160a01b038b811660048301528781166024830152868116604483015284151560648301529151919092169160009182918491634a3f088d9160848082019261010092909190829003018186803b15801561421c57600080fd5b505afa158015614230573d6000803e3d6000fd5b505050506040513d61010081101561424757600080fd5b50805160209091015190925090508161426857505050505050505050611731565b600061427483876148df565b90506000846001600160a01b0316630a48d5a98c8c6040518363ffffffff1660e01b815260040180836001600160a01b031681526020018281526020019250505060206040518083038186803b1580156142cd57600080fd5b505afa1580156142e1573d6000803e3d6000fd5b505050506040513d60208110156142f757600080fd5b50519050600061430784836148df565b9050600061431b85613bc788612710614844565b9050600061433c83613bc7600854612710018861484490919063ffffffff16565b90508181101561437d5760405162461bcd60e51b8152600401808060200182810382526027815260200180614f976027913960400191505060405180910390fd5b50505050505050505050505050505050565b6009546001600160a01b0316806143a65750611731565b600080826001600160a01b031663534ef883866040518263ffffffff1660e01b815260040180826001600160a01b03168152602001915050604080518083038186803b1580156143f557600080fd5b505afa158015614409573d6000803e3d6000fd5b505050506040513d604081101561441f57600080fd5b5080516020918201516003546040805163318bc68960e01b815290519396509194507fc2414023ce7002ee98557d1e7be21e5559073336f2217ee5f9b2e50fd85f71ee93899389936001600160a01b039093169263318bc689926004808301939192829003018186803b1580156133b757600080fd5b60606144ea826040518060400160405280602081526020017f5361666545524332303a206c6f772d6c6576656c2063616c6c206661696c6564815250856001600160a01b0316614af19092919063ffffffff16565b8051909150156135095780806020019051602081101561450957600080fd5b50516135095760405162461bcd60e51b815260040180806020018281038252602a815260200180615033602a913960400191505060405180910390fd5b60035460408051634998b10960e11b81526001600160a01b03878116600483015286811660248301528481166044830152915160009384931691639331621291606480830192602092919082900301818787803b1580156145a657600080fd5b505af11580156145ba573d6000803e3d6000fd5b505050506040513d60208110156145d057600080fd5b50519050838110156146135760405162461bcd60e51b815260040180806020018281038252602b815260200180614e1b602b913960400191505060405180910390fd5b95945050505050565b60008261462b57506000613c5a565b8161463857506001613c5a565b60008660018851038151811061464a57fe5b602090810291909101015160035460408051634a3f088d60e01b81526001600160a01b038c81166004830152808516602483015289811660448301528815156064830152915193945091169160009182918491634a3f088d91608480830192610100929190829003018186803b1580156146c357600080fd5b505afa1580156146d7573d6000803e3d6000fd5b505050506040513d6101008110156146ee57600080fd5b50805160209091015190925090508161470e576000945050505050613c5a565b600061471a83886148df565b90506000846001600160a01b0316630a48d5a9878d6040518363ffffffff1660e01b815260040180836001600160a01b031681526020018281526020019250505060206040518083038186803b15801561477357600080fd5b505afa158015614787573d6000803e3d6000fd5b505050506040513d602081101561479d57600080fd5b5051905060006147ad84836148df565b905060006147c185613bc788612710614844565b905060006147e283613bc7600854612710018861484490919063ffffffff16565b919091109f9e505050505050505050505050505050565b600061483b83836040518060400160405280601e81526020017f536166654d6174683a207375627472616374696f6e206f766572666c6f770000815250614b08565b90505b92915050565b6000826148535750600061483e565b8282028284828161486057fe5b041461483b5760405162461bcd60e51b8152600401808060200182810382526021815260200180614f256021913960400191505060405180910390fd5b600061483b83836040518060400160405280601a81526020017f536166654d6174683a206469766973696f6e206279207a65726f000000000000815250614b9f565b60008282018381101561483b576040805162461bcd60e51b815260206004820152601b60248201527f536166654d6174683a206164646974696f6e206f766572666c6f770000000000604482015290519081900360640190fd5b8061494357613509565b8115614a36576001600160a01b0383166000908152600b602052604090205480158015906149f457506003546040805163783a2b6760e11b81526001600160a01b038781166004830152915184936149f293879391169163f07456ce91602480820192602092909190829003018186803b1580156149c057600080fd5b505afa1580156149d4573d6000803e3d6000fd5b505050506040513d60208110156149ea57600080fd5b5051906148df565b115b15614a305760405162461bcd60e51b815260040180806020018281038252602e815260200180614dcd602e913960400191505060405180910390fd5b50613509565b6001600160a01b0383166000908152600c60205260409020548015801590614aaf57506003546040805163114f1b5560e31b81526001600160a01b03878116600483015291518493614aad938793911691638a78daa891602480820192602092909190829003018186803b1580156149c057600080fd5b115b15614aeb5760405162461bcd60e51b815260040180806020018281038252602f815260200180614ef6602f913960400191505060405180910390fd5b50505050565b6060614b008484600085614c04565b949350505050565b60008184841115614b975760405162461bcd60e51b81526004018080602001828103825283818151815260200191508051906020019080838360005b83811015614b5c578181015183820152602001614b44565b50505050905090810190601f168015614b895780820380516001836020036101000a031916815260200191505b509250505060405180910390fd5b505050900390565b60008183614bee5760405162461bcd60e51b8152602060048201818152835160248401528351909283926044909101919085019080838360008315614b5c578181015183820152602001614b44565b506000838581614bfa57fe5b0495945050505050565b606082471015614c455760405162461bcd60e51b8152600401808060200182810382526026815260200180614e806026913960400191505060405180910390fd5b614c4e85614d60565b614c9f576040805162461bcd60e51b815260206004820152601d60248201527f416464726573733a2063616c6c20746f206e6f6e2d636f6e7472616374000000604482015290519081900360640190fd5b60006060866001600160a01b031685876040518082805190602001908083835b60208310614cde5780518252601f199092019160209182019101614cbf565b6001836020036101000a03801982511681845116808217855250505050505090500191505060006040518083038185875af1925050503d8060008114614d40576040519150601f19603f3d011682016040523d82523d6000602084013e614d45565b606091505b5091509150614d55828286614d66565b979650505050505050565b3b151590565b60608315614d75575081613a77565b825115614d855782518084602001fd5b60405162461bcd60e51b8152602060048201818152845160248401528451859391928392604401919085019080838360008315614b5c578181015183820152602001614b4456fe42617365506f736974696f6e4d616e616765723a206d617820676c6f62616c206c6f6e67732065786365656465645265656e7472616e637947756172643a207265656e7472616e742063616c6c0042617365506f736974696f6e4d616e616765723a20696e73756666696369656e7420616d6f756e744f7574416464726573733a20756e61626c6520746f2073656e642076616c75652c20726563697069656e74206d61792068617665207265766572746564416464726573733a20696e73756666696369656e742062616c616e636520666f722063616c6c42617365506f736974696f6e4d616e616765723a206d61726b207072696365206c6f776572207468616e206c696d697442617365506f736974696f6e4d616e616765723a20666f7262696464656e000042617365506f736974696f6e4d616e616765723a206d617820676c6f62616c2073686f727473206578636565646564536166654d6174683a206d756c7469706c69636174696f6e206f766572666c6f7742617365506f736974696f6e4d616e616765723a206d61726b20707269636520686967686572207468616e206c696d6974506f736974696f6e4d616e616765723a20666f7262696464656e000000000000506f736974696f6e4d616e616765723a206c6f6e67206c6576657261676520646563726561736542617365506f736974696f6e4d616e616765723a20696e76616c6964205f706174682e6c656e677468506f736974696f6e4d616e616765723a20696e76616c6964205f636f6c6c61746572616c546f6b656e42617365506f736974696f6e4d616e616765723a20696e76616c69642073656e6465725361666545524332303a204552433230206f7065726174696f6e20646964206e6f742073756363656564506f736974696f6e4d616e616765723a20696e76616c6964205f706174682e6c656e677468a2646970667358221220462d4aac0836ff3f5d74e95eb70f8266c76ed947f9aff899c53f0a1dc88758a864736f6c634300060c0033","linkReferences":{}},"methodIdentifiers":{"BASIS_POINTS_DIVISOR()":"126082cf","admin()":"f851a440","approve(address,address,uint256)":"e1f21c67","decreasePosition(address,address,uint256,uint256,bool,address,uint256)":"90205d8c","decreasePositionAndSwap(address[],address,uint256,uint256,bool,address,uint256,uint256)":"5fc8500e","decreasePositionAndSwapETH(address[],address,uint256,uint256,bool,address,uint256,uint256)":"3039e37f","decreasePositionETH(address,address,uint256,uint256,bool,address,uint256)":"430ed37c","depositFee()":"67a52793","executeDecreaseOrder(address,uint256,address)":"11d9444a","executeIncreaseOrder(address,uint256,address)":"d38ab519","executeSwapOrder(address,uint256,address)":"07c7edc3","feeReserves(address)":"1ce9cb8f","gov()":"12d43a51","inLegacyMode()":"d4ca83f9","increasePosition(address[],address,uint256,uint256,uint256,bool,uint256)":"b7ddc992","increasePositionBufferBps()":"98d1e03a","increasePositionETH(address[],address,uint256,uint256,bool,uint256)":"b32755de","isLiquidator(address)":"529a356f","isOrderKeeper(address)":"3833f5f5","isPartner(address)":"8c0f9aac","liquidatePosition(address,address,address,bool,address)":"de2ea948","maxGlobalLongSizes(address)":"1045c74e","maxGlobalShortSizes(address)":"9698d25a","orderBook()":"776af5ba","referralStorage()":"006cc35e","router()":"f887ea40","sendValue(address,uint256)":"24a084df","setAdmin(address)":"704b6c02","setDepositFee(uint256)":"490ae210","setGov(address)":"cfad57a2","setInLegacyMode(bool)":"9c95332f","setIncreasePositionBufferBps(uint256)":"233bfe3b","setLiquidator(address,bool)":"4453a374","setMaxGlobalSizes(address[],uint256[],uint256[])":"ef12c67e","setOrderKeeper(address,bool)":"1e261538","setPartner(address,bool)":"21acf659","setReferralStorage(address)":"ae4d7f9a","setShouldValidateIncreaseOrder(bool)":"1b904359","shortsTracker()":"657bc5d0","shouldValidateIncreaseOrder()":"4584bd4b","vault()":"fbfa77cf","weth()":"3fc8cef3","withdrawFees(address,address)":"f2555278"},"id":87}