{"abi":[{"type":"constructor","inputs":[{"name":"_vault","type":"address","internalType":"address"}],"stateMutability":"nonpayable"},{"type":"function","name":"MAX_INT256","inputs":[],"outputs":[{"name":"","type":"uint256","internalType":"uint256"}],"stateMutability":"view"},{"type":"function","name":"_getNextGlobalAveragePrice","inputs":[{"name":"_averagePrice","type":"uint256","internalType":"uint256"},{"name":"_nextPrice","type":"uint256","internalType":"uint256"},{"name":"_nextSize","type":"uint256","internalType":"uint256"},{"name":"_delta","type":"uint256","internalType":"uint256"},{"name":"_realisedPnl","type":"int256","internalType":"int256"}],"outputs":[{"name":"","type":"uint256","internalType":"uint256"}],"stateMutability":"pure"},{"type":"function","name":"data","inputs":[{"name":"","type":"bytes32","internalType":"bytes32"}],"outputs":[{"name":"","type":"bytes32","internalType":"bytes32"}],"stateMutability":"view"},{"type":"function","name":"getGlobalShortDelta","inputs":[{"name":"_token","type":"address","internalType":"address"}],"outputs":[{"name":"","type":"bool","internalType":"bool"},{"name":"","type":"uint256","internalType":"uint256"}],"stateMutability":"view"},{"type":"function","name":"getNextGlobalShortData","inputs":[{"name":"_account","type":"address","internalType":"address"},{"name":"_collateralToken","type":"address","internalType":"address"},{"name":"_indexToken","type":"address","internalType":"address"},{"name":"_nextPrice","type":"uint256","internalType":"uint256"},{"name":"_sizeDelta","type":"uint256","internalType":"uint256"},{"name":"_isIncrease","type":"bool","internalType":"bool"}],"outputs":[{"name":"","type":"uint256","internalType":"uint256"},{"name":"","type":"uint256","internalType":"uint256"}],"stateMutability":"view"},{"type":"function","name":"getRealisedPnl","inputs":[{"name":"_account","type":"address","internalType":"address"},{"name":"_collateralToken","type":"address","internalType":"address"},{"name":"_indexToken","type":"address","internalType":"address"},{"name":"_sizeDelta","type":"uint256","internalType":"uint256"},{"name":"_isIncrease","type":"bool","internalType":"bool"}],"outputs":[{"name":"","type":"int256","internalType":"int256"}],"stateMutability":"view"},{"type":"function","name":"globalShortAveragePrices","inputs":[{"name":"","type":"address","internalType":"address"}],"outputs":[{"name":"","type":"uint256","internalType":"uint256"}],"stateMutability":"view"},{"type":"function","name":"gov","inputs":[],"outputs":[{"name":"","type":"address","internalType":"address"}],"stateMutability":"view"},{"type":"function","name":"isGlobalShortDataReady","inputs":[],"outputs":[{"name":"","type":"bool","internalType":"bool"}],"stateMutability":"view"},{"type":"function","name":"isHandler","inputs":[{"name":"","type":"address","internalType":"address"}],"outputs":[{"name":"","type":"bool","internalType":"bool"}],"stateMutability":"view"},{"type":"function","name":"setGov","inputs":[{"name":"_gov","type":"address","internalType":"address"}],"outputs":[],"stateMutability":"nonpayable"},{"type":"function","name":"setHandler","inputs":[{"name":"_handler","type":"address","internalType":"address"},{"name":"_isActive","type":"bool","internalType":"bool"}],"outputs":[],"stateMutability":"nonpayable"},{"type":"function","name":"setInitData","inputs":[{"name":"_tokens","type":"address[]","internalType":"address[]"},{"name":"_averagePrices","type":"uint256[]","internalType":"uint256[]"}],"outputs":[],"stateMutability":"nonpayable"},{"type":"function","name":"setIsGlobalShortDataReady","inputs":[{"name":"value","type":"bool","internalType":"bool"}],"outputs":[],"stateMutability":"nonpayable"},{"type":"function","name":"updateGlobalShortData","inputs":[{"name":"_account","type":"address","internalType":"address"},{"name":"_collateralToken","type":"address","internalType":"address"},{"name":"_indexToken","type":"address","internalType":"address"},{"name":"_isLong","type":"bool","internalType":"bool"},{"name":"_sizeDelta","type":"uint256","internalType":"uint256"},{"name":"_markPrice","type":"uint256","internalType":"uint256"},{"name":"_isIncrease","type":"bool","internalType":"bool"}],"outputs":[],"stateMutability":"nonpayable"},{"type":"function","name":"vault","inputs":[],"outputs":[{"name":"","type":"address","internalType":"contract IVault"}],"stateMutability":"view"},{"type":"event","name":"GlobalShortDataUpdated","inputs":[{"name":"token","type":"address","indexed":true,"internalType":"address"},{"name":"globalShortSize","type":"uint256","indexed":false,"internalType":"uint256"},{"name":"globalShortAveragePrice","type":"uint256","indexed":false,"internalType":"uint256"}],"anonymous":false}],"bytecode":{"object":"0x608060405234801561001057600080fd5b506040516111943803806111948339818101604052602081101561003357600080fd5b5051600080546001600160a01b03199081163317909155600180546001600160a01b0390931692909116919091179055611122806100726000396000f3fe608060405234801561001057600080fd5b50600436106101005760003560e01c80639cb7de4b11610097578063bbd9718711610066578063bbd9718714610334578063cfad57a2146103f6578063f3238cec1461041c578063fbfa77cf1461046e57610100565b80639cb7de4b1461021e5780639cdeb5931461024c578063a83b75fd146102af578063b364accb146102f357610100565b806346ea87af116100d357806346ea87af146101815780635886b711146101bb57806362749803146101f05780639a11178f1461021657610100565b80630147fb0c14610105578063122e7b071461013457806312d43a511461013c5780633d30cabf14610160575b600080fd5b6101226004803603602081101561011b57600080fd5b5035610476565b60408051918252519081900360200190f35b610122610488565b610144610493565b604080516001600160a01b039092168252519081900360200190f35b61017f6004803603602081101561017657600080fd5b503515156104a2565b005b6101a76004803603602081101561019757600080fd5b50356001600160a01b031661050c565b604080519115158252519081900360200190f35b610122600480360360a08110156101d157600080fd5b5080359060208101359060408101359060608101359060800135610521565b6101226004803603602081101561020657600080fd5b50356001600160a01b0316610578565b6101a761058a565b61017f6004803603604081101561023457600080fd5b506001600160a01b0381351690602001351515610593565b610296600480360360c081101561026257600080fd5b506001600160a01b03813581169160208101358216916040820135169060608101359060808101359060a001351515610670565b6040805192835260208301919091528051918290030190f35b610122600480360360a08110156102c557600080fd5b506001600160a01b0381358116916020810135821691604082013516906060810135906080013515156107c4565b6103196004803603602081101561030957600080fd5b50356001600160a01b03166109aa565b60408051921515835260208301919091528051918290030190f35b61017f6004803603604081101561034a57600080fd5b81019060208101813564010000000081111561036557600080fd5b82018360208201111561037757600080fd5b8035906020019184602083028401116401000000008311171561039957600080fd5b9193909290916020810190356401000000008111156103b757600080fd5b8201836020820111156103c957600080fd5b803590602001918460208302840111640100000000831117156103eb57600080fd5b509092509050610b1d565b61017f6004803603602081101561040c57600080fd5b50356001600160a01b0316610c39565b61017f600480360360e081101561043257600080fd5b506001600160a01b038135811691602081013582169160408201351690606081013515159060808101359060a08101359060c001351515610cb2565b610144610da7565b60036020526000908152604090205481565b6001600160ff1b0381565b6000546001600160a01b031681565b6000546001600160a01b031633146104f9576040805162461bcd60e51b815260206004820152601560248201527423b7bb32b93730b136329d103337b93134b23232b760591b604482015290519081900360640190fd5b6005805460ff1916911515919091179055565b60026020526000908152604090205460ff1681565b600080600061053285898987610db6565b9150915060006105698361054f5761054a8884610e73565b610559565b6105598884610ed6565b6105638a8a610f18565b90610f71565b93505050505b95945050505050565b60046020526000908152604090205481565b60055460ff1681565b6000546001600160a01b031633146105ea576040805162461bcd60e51b815260206004820152601560248201527423b7bb32b93730b136329d103337b93134b23232b760591b604482015290519081900360640190fd5b6001600160a01b038216610645576040805162461bcd60e51b815260206004820152601f60248201527f53686f727473547261636b65723a20696e76616c6964205f68616e646c657200604482015290519081900360640190fd5b6001600160a01b03919091166000908152600260205260409020805460ff1916911515919091179055565b600080600061068289898988886107c4565b6001600160a01b0388166000908152600460205260408120549192508782116106b4576106af8883610ed6565b6106be565b6106be8289610ed6565b6001546040805163114f1b5560e31b81526001600160a01b038d811660048301529151939450600093849384931691638a78daa8916024808301926020929190829003018186803b15801561071257600080fd5b505afa158015610726573d6000803e3d6000fd5b505050506040513d602081101561073c57600080fd5b50519050886107545761074f818b610ed6565b61075e565b61075e818b610e73565b92508261077757600080975097505050505050506107b9565b8461078d57828b975097505050505050506107b9565b61079b856105638387610f18565b91505060006107ad858c85858a610521565b92975091955050505050505b965096945050505050565b600081156107d45750600061056f565b60015460408051634a3f088d60e01b81526001600160a01b038981166004830152888116602483015287811660448301526000606483018190529251931692829182918591634a3f088d91608480830192610100929190829003018186803b15801561083f57600080fd5b505afa158015610853573d6000803e3d6000fd5b505050506040513d61010081101561086a57600080fd5b50805160408083015160e0909301518151635c07eaab60e01b81526001600160a01b038d811660048301526024820185905260448201869052600060648301819052608483018490528451959950959750919550849391891692635c07eaab9260a480840193829003018186803b1580156108e457600080fd5b505afa1580156108f8573d6000803e3d6000fd5b505050506040513d604081101561090e57600080fd5b5080516020909101519092509050600061092c866105638c85610f18565b90506001600160ff1b038110610989576040805162461bcd60e51b815260206004820152601760248201527f53686f727473547261636b65723a206f766572666c6f77000000000000000000604482015290519081900360640190fd5b826109975780600003610999565b805b9d9c50505050505050505050505050565b6001546040805163114f1b5560e31b81526001600160a01b038481166004830152915160009384938493911691638a78daa891602480820192602092909190829003018186803b1580156109fd57600080fd5b505afa158015610a11573d6000803e3d6000fd5b505050506040513d6020811015610a2757600080fd5b50516001600160a01b03851660009081526004602052604090205490915081610a5857600080935093505050610b18565b60015460408051637092736960e11b81526001600160a01b0388811660048301529151600093929092169163e124e6d291602480820192602092909190829003018186803b158015610aa957600080fd5b505afa158015610abd573d6000803e3d6000fd5b505050506040513d6020811015610ad357600080fd5b505190506000818311610aef57610aea8284610ed6565b610af9565b610af98383610ed6565b90506000610b0b846105638785610f18565b9290931195509093505050505b915091565b6000546001600160a01b03163314610b74576040805162461bcd60e51b815260206004820152601560248201527423b7bb32b93730b136329d103337b93134b23232b760591b604482015290519081900360640190fd5b60055460ff1615610bcc576040805162461bcd60e51b815260206004820152601f60248201527f53686f727473547261636b65723a20616c7265616479206d6967726174656400604482015290519081900360640190fd5b60005b83811015610c2557828282818110610be357fe5b9050602002013560046000878785818110610bfa57fe5b602090810292909201356001600160a01b031683525081019190915260400160002055600101610bcf565b50506005805460ff19166001179055505050565b6000546001600160a01b03163314610c90576040805162461bcd60e51b815260206004820152601560248201527423b7bb32b93730b136329d103337b93134b23232b760591b604482015290519081900360640190fd5b600080546001600160a01b0319166001600160a01b0392909216919091179055565b3360009081526002602052604090205460ff16610d16576040805162461bcd60e51b815260206004820152601860248201527f53686f727473547261636b65723a20666f7262696464656e0000000000000000604482015290519081900360640190fd5b8380610d20575082155b15610d2a57610d9e565b60055460ff16610d3957610d9e565b600080610d4a898989878988610670565b91509150610d588782610fb3565b604080518381526020810183905281516001600160a01b038a16927fd6137be44db128ffcf1ea1821dbe8f889f67f949be7656c2d8acba2a4a891a02928290030190a250505b50505050505050565b6001546001600160a01b031681565b6000808385118015610e15576000841315610dfa5786841115610de857610ddd8488610ed6565b965060009050610df5565b610df28785610ed6565b96505b610e0b565b610e08876000869003610e73565b96505b9150859050610e6a565b6000841315610e2f57610e288785610e73565b9650610e64565b86846000031115610e5357610e48600085900388610ed6565b965060019050610e64565b610e61876000869003610ed6565b96505b91508590505b94509492505050565b600082820183811015610ecd576040805162461bcd60e51b815260206004820152601b60248201527f536166654d6174683a206164646974696f6e206f766572666c6f770000000000604482015290519081900360640190fd5b90505b92915050565b6000610ecd83836040518060400160405280601e81526020017f536166654d6174683a207375627472616374696f6e206f766572666c6f770000815250610fcf565b600082610f2757506000610ed0565b82820282848281610f3457fe5b0414610ecd5760405162461bcd60e51b81526004018080602001828103825260218152602001806110cc6021913960400191505060405180910390fd5b6000610ecd83836040518060400160405280601a81526020017f536166654d6174683a206469766973696f6e206279207a65726f000000000000815250611066565b6001600160a01b03909116600090815260046020526040902055565b6000818484111561105e5760405162461bcd60e51b81526004018080602001828103825283818151815260200191508051906020019080838360005b8381101561102357818101518382015260200161100b565b50505050905090810190601f1680156110505780820380516001836020036101000a031916815260200191505b509250505060405180910390fd5b505050900390565b600081836110b55760405162461bcd60e51b815260206004820181815283516024840152835190928392604490910191908501908083836000831561102357818101518382015260200161100b565b5060008385816110c157fe5b049594505050505056fe536166654d6174683a206d756c7469706c69636174696f6e206f766572666c6f77a2646970667358221220f98e732814b87652fb4026edb42fb566a5fa6d5da82246c1317fdce17b0081bc64736f6c634300060c0033","linkReferences":{}},"methodIdentifiers":{"MAX_INT256()":"122e7b07","_getNextGlobalAveragePrice(uint256,uint256,uint256,uint256,int256)":"5886b711","data(bytes32)":"0147fb0c","getGlobalShortDelta(address)":"b364accb","getNextGlobalShortData(address,address,address,uint256,uint256,bool)":"9cdeb593","getRealisedPnl(address,address,address,uint256,bool)":"a83b75fd","globalShortAveragePrices(address)":"62749803","gov()":"12d43a51","isGlobalShortDataReady()":"9a11178f","isHandler(address)":"46ea87af","setGov(address)":"cfad57a2","setHandler(address,bool)":"9cb7de4b","setInitData(address[],uint256[])":"bbd97187","setIsGlobalShortDataReady(bool)":"3d30cabf","updateGlobalShortData(address,address,address,bool,uint256,uint256,bool)":"f3238cec","vault()":"fbfa77cf"},"id":90}