{"abi":[{"type":"constructor","inputs":[{"name":"_name","type":"string","internalType":"string"},{"name":"_symbol","type":"string","internalType":"string"},{"name":"_initialSupply","type":"uint256","internalType":"uint256"}],"stateMutability":"nonpayable"},{"type":"function","name":"addAdmin","inputs":[{"name":"_account","type":"address","internalType":"address"}],"outputs":[],"stateMutability":"nonpayable"},{"type":"function","name":"addNonStakingAccount","inputs":[{"name":"_account","type":"address","internalType":"address"}],"outputs":[],"stateMutability":"nonpayable"},{"type":"function","name":"admins","inputs":[{"name":"","type":"address","internalType":"address"}],"outputs":[{"name":"","type":"bool","internalType":"bool"}],"stateMutability":"view"},{"type":"function","name":"allowance","inputs":[{"name":"_owner","type":"address","internalType":"address"},{"name":"_spender","type":"address","internalType":"address"}],"outputs":[{"name":"","type":"uint256","internalType":"uint256"}],"stateMutability":"view"},{"type":"function","name":"allowances","inputs":[{"name":"","type":"address","internalType":"address"},{"name":"","type":"address","internalType":"address"}],"outputs":[{"name":"","type":"uint256","internalType":"uint256"}],"stateMutability":"view"},{"type":"function","name":"approve","inputs":[{"name":"_spender","type":"address","internalType":"address"},{"name":"_amount","type":"uint256","internalType":"uint256"}],"outputs":[{"name":"","type":"bool","internalType":"bool"}],"stateMutability":"nonpayable"},{"type":"function","name":"balanceOf","inputs":[{"name":"_account","type":"address","internalType":"address"}],"outputs":[{"name":"","type":"uint256","internalType":"uint256"}],"stateMutability":"view"},{"type":"function","name":"balances","inputs":[{"name":"","type":"address","internalType":"address"}],"outputs":[{"name":"","type":"uint256","internalType":"uint256"}],"stateMutability":"view"},{"type":"function","name":"burn","inputs":[{"name":"_account","type":"address","internalType":"address"},{"name":"_amount","type":"uint256","internalType":"uint256"}],"outputs":[],"stateMutability":"nonpayable"},{"type":"function","name":"claim","inputs":[{"name":"_receiver","type":"address","internalType":"address"}],"outputs":[],"stateMutability":"nonpayable"},{"type":"function","name":"decimals","inputs":[],"outputs":[{"name":"","type":"uint8","internalType":"uint8"}],"stateMutability":"view"},{"type":"function","name":"gov","inputs":[],"outputs":[{"name":"","type":"address","internalType":"address"}],"stateMutability":"view"},{"type":"function","name":"inPrivateTransferMode","inputs":[],"outputs":[{"name":"","type":"bool","internalType":"bool"}],"stateMutability":"view"},{"type":"function","name":"isHandler","inputs":[{"name":"","type":"address","internalType":"address"}],"outputs":[{"name":"","type":"bool","internalType":"bool"}],"stateMutability":"view"},{"type":"function","name":"isMinter","inputs":[{"name":"","type":"address","internalType":"address"}],"outputs":[{"name":"","type":"bool","internalType":"bool"}],"stateMutability":"view"},{"type":"function","name":"mint","inputs":[{"name":"_account","type":"address","internalType":"address"},{"name":"_amount","type":"uint256","internalType":"uint256"}],"outputs":[],"stateMutability":"nonpayable"},{"type":"function","name":"name","inputs":[],"outputs":[{"name":"","type":"string","internalType":"string"}],"stateMutability":"view"},{"type":"function","name":"nonStakingAccounts","inputs":[{"name":"","type":"address","internalType":"address"}],"outputs":[{"name":"","type":"bool","internalType":"bool"}],"stateMutability":"view"},{"type":"function","name":"nonStakingSupply","inputs":[],"outputs":[{"name":"","type":"uint256","internalType":"uint256"}],"stateMutability":"view"},{"type":"function","name":"recoverClaim","inputs":[{"name":"_account","type":"address","internalType":"address"},{"name":"_receiver","type":"address","internalType":"address"}],"outputs":[],"stateMutability":"nonpayable"},{"type":"function","name":"removeAdmin","inputs":[{"name":"_account","type":"address","internalType":"address"}],"outputs":[],"stateMutability":"nonpayable"},{"type":"function","name":"removeNonStakingAccount","inputs":[{"name":"_account","type":"address","internalType":"address"}],"outputs":[],"stateMutability":"nonpayable"},{"type":"function","name":"setGov","inputs":[{"name":"_gov","type":"address","internalType":"address"}],"outputs":[],"stateMutability":"nonpayable"},{"type":"function","name":"setHandler","inputs":[{"name":"_handler","type":"address","internalType":"address"},{"name":"_isActive","type":"bool","internalType":"bool"}],"outputs":[],"stateMutability":"nonpayable"},{"type":"function","name":"setInPrivateTransferMode","inputs":[{"name":"_inPrivateTransferMode","type":"bool","internalType":"bool"}],"outputs":[],"stateMutability":"nonpayable"},{"type":"function","name":"setInfo","inputs":[{"name":"_name","type":"string","internalType":"string"},{"name":"_symbol","type":"string","internalType":"string"}],"outputs":[],"stateMutability":"nonpayable"},{"type":"function","name":"setMinter","inputs":[{"name":"_minter","type":"address","internalType":"address"},{"name":"_isActive","type":"bool","internalType":"bool"}],"outputs":[],"stateMutability":"nonpayable"},{"type":"function","name":"setYieldTrackers","inputs":[{"name":"_yieldTrackers","type":"address[]","internalType":"address[]"}],"outputs":[],"stateMutability":"nonpayable"},{"type":"function","name":"stakedBalance","inputs":[{"name":"_account","type":"address","internalType":"address"}],"outputs":[{"name":"","type":"uint256","internalType":"uint256"}],"stateMutability":"view"},{"type":"function","name":"symbol","inputs":[],"outputs":[{"name":"","type":"string","internalType":"string"}],"stateMutability":"view"},{"type":"function","name":"totalStaked","inputs":[],"outputs":[{"name":"","type":"uint256","internalType":"uint256"}],"stateMutability":"view"},{"type":"function","name":"totalSupply","inputs":[],"outputs":[{"name":"","type":"uint256","internalType":"uint256"}],"stateMutability":"view"},{"type":"function","name":"transfer","inputs":[{"name":"_recipient","type":"address","internalType":"address"},{"name":"_amount","type":"uint256","internalType":"uint256"}],"outputs":[{"name":"","type":"bool","internalType":"bool"}],"stateMutability":"nonpayable"},{"type":"function","name":"transferFrom","inputs":[{"name":"_sender","type":"address","internalType":"address"},{"name":"_recipient","type":"address","internalType":"address"},{"name":"_amount","type":"uint256","internalType":"uint256"}],"outputs":[{"name":"","type":"bool","internalType":"bool"}],"stateMutability":"nonpayable"},{"type":"function","name":"withdrawToken","inputs":[{"name":"_token","type":"address","internalType":"address"},{"name":"_account","type":"address","internalType":"address"},{"name":"_amount","type":"uint256","internalType":"uint256"}],"outputs":[],"stateMutability":"nonpayable"},{"type":"function","name":"yieldTrackers","inputs":[{"name":"","type":"uint256","internalType":"uint256"}],"outputs":[{"name":"","type":"address","internalType":"address"}],"stateMutability":"view"},{"type":"event","name":"Approval","inputs":[{"name":"owner","type":"address","indexed":true,"internalType":"address"},{"name":"spender","type":"address","indexed":true,"internalType":"address"},{"name":"value","type":"uint256","indexed":false,"internalType":"uint256"}],"anonymous":false},{"type":"event","name":"Transfer","inputs":[{"name":"from","type":"address","indexed":true,"internalType":"address"},{"name":"to","type":"address","indexed":true,"internalType":"address"},{"name":"value","type":"uint256","indexed":false,"internalType":"uint256"}],"anonymous":false}],"bytecode":{"object":"0x60806040523480156200001157600080fd5b506040516200270f3803806200270f833981810160405260608110156200003757600080fd5b81019080805160405193929190846401000000008211156200005857600080fd5b9083019060208201858111156200006e57600080fd5b82516401000000008111828201881017156200008957600080fd5b82525081516020918201929091019080838360005b83811015620000b85781810151838201526020016200009e565b50505050905090810190601f168015620000e65780820380516001836020036101000a031916815260200191505b50604052602001805160405193929190846401000000008211156200010a57600080fd5b9083019060208201858111156200012057600080fd5b82516401000000008111828201881017156200013b57600080fd5b82525081516020918201929091019080838360005b838110156200016a57818101518382015260200162000150565b50505050905090810190601f168015620001985780820380516001836020036101000a031916815260200191505b50604052602090810151855190935085925084918491620001c091600091908601906200043b565b508151620001d69060019060208501906200043b565b50600480546001600160a01b03191633908117909155620001f8908262000204565b505050505050620004d7565b6001600160a01b0382166200024b5760405162461bcd60e51b8152600401808060200182810382526023815260200180620026ec6023913960400191505060405180910390fd5b62000256826200033a565b6200027281600254620003d960201b620014b51790919060201c565b6002556001600160a01b038216600090815260056020908152604090912054620002a7918390620014b5620003d9821b17901c565b6001600160a01b03831660009081526005602090815260408083209390935560089052205460ff1615620002f557620002f181600354620003d960201b620014b51790919060201c565b6003555b6040805182815290516001600160a01b038416916000917fddf252ad1be2c89b69c2b068fc378daa952ba7f163c4a11628f55a4df523b3ef9181900360200190a35050565b60005b600754811015620003d5576000600782815481106200035857fe5b600091825260208220015460408051635fd6196560e01b81526001600160a01b03878116600483015291519190921693508392635fd61965926024808201939182900301818387803b158015620003ae57600080fd5b505af1158015620003c3573d6000803e3d6000fd5b5050600190930192506200033d915050565b5050565b60008282018381101562000434576040805162461bcd60e51b815260206004820152601b60248201527f536166654d6174683a206164646974696f6e206f766572666c6f770000000000604482015290519081900360640190fd5b9392505050565b828054600181600116156101000203166002900490600052602060002090601f016020900481019282601f106200047e57805160ff1916838001178555620004ae565b82800160010185558215620004ae579182015b82811115620004ae57825182559160200191906001019062000491565b50620004bc929150620004c0565b5090565b5b80821115620004bc5760008155600101620004c1565b61220580620004e76000396000f3fe608060405234801561001057600080fd5b506004361061021c5760003560e01c80636228907711610125578063a9059cbb116100ad578063cf456ae71161007c578063cf456ae71461087c578063cfad57a2146108aa578063dd62ed3e146108d0578063dfbaefb1146108fe578063fb30d916146109065761021c565b8063a9059cbb146106f5578063a923fc4014610721578063aa271e1a1461084e578063c93be636146108745761021c565b80639554381a116100f45780639554381a1461063f57806395d89b4114610665578063996f11ee1461066d5780639cb7de4b1461069b5780639dc29fac146106c95761021c565b806362289077146105c557806370480275146105eb57806370a0823114610611578063817b1cd2146106375761021c565b806327e235e3116101a857806346ea87af1161017757806346ea87af1461050f57806352cd38d91461053557806355b6ed5c146105525780635a47a1a714610580578063602172671461059f5761021c565b806327e235e314610479578063313ce5671461049f57806340c10f19146104bd578063429b62e5146104e95761021c565b80631785f53c116101ef5780631785f53c1461033a57806318160ddd146103605780631e83409a1461037a57806323b872dd146103a0578063276eab4e146103d65761021c565b806301e336671461022157806306fdde0314610259578063095ea7b3146102d657806312d43a5114610316575b600080fd5b6102576004803603606081101561023757600080fd5b506001600160a01b0381358116916020810135909116906040013561092c565b005b610261610992565b6040805160208082528351818301528351919283929083019185019080838360005b8381101561029b578181015183820152602001610283565b50505050905090810190601f1680156102c85780820380516001836020036101000a031916815260200191505b509250505060405180910390f35b610302600480360360408110156102ec57600080fd5b506001600160a01b038135169060200135610a20565b604080519115158252519081900360200190f35b61031e610a36565b604080516001600160a01b039092168252519081900360200190f35b6102576004803603602081101561035057600080fd5b50356001600160a01b0316610a45565b610368610ab3565b60408051918252519081900360200190f35b6102576004803603602081101561039057600080fd5b50356001600160a01b0316610ab9565b610302600480360360608110156103b657600080fd5b506001600160a01b03813581169160208101359091169060400135610b70565b610257600480360360208110156103ec57600080fd5b81019060208101813564010000000081111561040757600080fd5b82018360208201111561041957600080fd5b8035906020019184602083028401116401000000008311171561043b57600080fd5b919080806020026020016040519081016040528093929190818152602001838360200280828437600092019190915250929550610c0a945050505050565b6103686004803603602081101561048f57600080fd5b50356001600160a01b0316610c6a565b6104a7610c7c565b6040805160ff9092168252519081900360200190f35b610257600480360360408110156104d357600080fd5b506001600160a01b038135169060200135610c81565b610302600480360360208110156104ff57600080fd5b50356001600160a01b0316610cef565b6103026004803603602081101561052557600080fd5b50356001600160a01b0316610d04565b61031e6004803603602081101561054b57600080fd5b5035610d19565b6103686004803603604081101561056857600080fd5b506001600160a01b0381358116916020013516610d40565b6102576004803603602081101561059657600080fd5b50351515610d5d565b610368600480360360208110156105b557600080fd5b50356001600160a01b0316610dbd565b610257600480360360208110156105db57600080fd5b50356001600160a01b0316610e06565b6102576004803603602081101561060157600080fd5b50356001600160a01b0316610ef9565b6103686004803603602081101561062757600080fd5b50356001600160a01b0316610f6a565b610368610f85565b6103026004803603602081101561065557600080fd5b50356001600160a01b0316610fa3565b610261610fb8565b6102576004803603604081101561068357600080fd5b506001600160a01b0381358116916020013516611012565b610257600480360360408110156106b157600080fd5b506001600160a01b0381351690602001351515611119565b610257600480360360408110156106df57600080fd5b506001600160a01b038135169060200135611191565b6103026004803603604081101561070b57600080fd5b506001600160a01b0381351690602001356111ff565b6102576004803603604081101561073757600080fd5b81019060208101813564010000000081111561075257600080fd5b82018360208201111561076457600080fd5b8035906020019184600183028401116401000000008311171561078657600080fd5b91908080601f01602080910402602001604051908101604052809392919081815260200183838082843760009201919091525092959493602081019350359150506401000000008111156107d957600080fd5b8201836020820111156107eb57600080fd5b8035906020019184600183028401116401000000008311171561080d57600080fd5b91908080601f01602080910402602001604051908101604052809392919081815260200183838082843760009201919091525092955061120c945050505050565b6103026004803603602081101561086457600080fd5b50356001600160a01b0316611280565b610368611295565b6102576004803603604081101561089257600080fd5b506001600160a01b038135169060200135151561129b565b610257600480360360208110156108c057600080fd5b50356001600160a01b0316611313565b610368600480360360408110156108e657600080fd5b506001600160a01b0381358116916020013516611382565b6103026113ad565b6102576004803603602081101561091c57600080fd5b50356001600160a01b03166113b6565b6004546001600160a01b03163314610979576040805162461bcd60e51b8152602060048201526014602482015260008051602061209e833981519152604482015290519081900360640190fd5b61098d6001600160a01b038416838361150f565b505050565b6000805460408051602060026001851615610100026000190190941693909304601f81018490048402820184019092528181529291830182828015610a185780601f106109ed57610100808354040283529160200191610a18565b820191906000526020600020905b8154815290600101906020018083116109fb57829003601f168201915b505050505081565b6000610a2d338484611561565b50600192915050565b6004546001600160a01b031681565b6004546001600160a01b03163314610a92576040805162461bcd60e51b8152602060048201526014602482015260008051602061209e833981519152604482015290519081900360640190fd5b6001600160a01b03166000908152600960205260409020805460ff19169055565b60025481565b60005b600754811015610b6c57600060078281548110610ad557fe5b6000918252602080832090910154604080516310e059a160e11b81523360048201526001600160a01b038881166024830152915191909216945084936321c0b34293604480850194919392918390030190829087803b158015610b3757600080fd5b505af1158015610b4b573d6000803e3d6000fd5b505050506040513d6020811015610b6157600080fd5b505050600101610abc565b5050565b336000908152600b602052604081205460ff1615610b9b57610b9384848461164d565b506001610c03565b6000610be5836040518060600160405280602c815260200161204c602c91396001600160a01b03881660009081526006602090815260408083203384529091529020549190611875565b9050610bf2853383611561565b610bfd85858561164d565b60019150505b9392505050565b6004546001600160a01b03163314610c57576040805162461bcd60e51b8152602060048201526014602482015260008051602061209e833981519152604482015290519081900360640190fd5b8051610b6c906007906020840190611ea3565b60056020526000908152604090205481565b601281565b336000908152600c602052604090205460ff16610ce5576040805162461bcd60e51b815260206004820152601c60248201527f4d696e7461626c6542617365546f6b656e3a20666f7262696464656e00000000604482015290519081900360640190fd5b610b6c828261190c565b60096020526000908152604090205460ff1681565b600b6020526000908152604090205460ff1681565b60078181548110610d2657fe5b6000918252602090912001546001600160a01b0316905081565b600660209081526000928352604080842090915290825290205481565b6004546001600160a01b03163314610daa576040805162461bcd60e51b8152602060048201526014602482015260008051602061209e833981519152604482015290519081900360640190fd5b600a805460ff1916911515919091179055565b6001600160a01b03811660009081526008602052604081205460ff1615610de657506000610e01565b506001600160a01b0381166000908152600560205260409020545b919050565b3360009081526009602052604090205460ff16610e58576040805162461bcd60e51b8152602060048201526014602482015260008051602061209e833981519152604482015290519081900360640190fd5b6001600160a01b03811660009081526008602052604090205460ff1615610eb05760405162461bcd60e51b81526004018080602001828103825260228152602001806121106022913960400191505060405180910390fd5b610eb981611a10565b6001600160a01b0381166000908152600860209081526040808320805460ff191660011790556005909152902054600354610ef3916114b5565b60035550565b6004546001600160a01b03163314610f46576040805162461bcd60e51b8152602060048201526014602482015260008051602061209e833981519152604482015290519081900360640190fd5b6001600160a01b03166000908152600960205260409020805460ff19166001179055565b6001600160a01b031660009081526005602052604090205490565b6000610f9e600354600254611aa690919063ffffffff16565b905090565b60086020526000908152604090205460ff1681565b60018054604080516020600284861615610100026000190190941693909304601f81018490048402820184019092528181529291830182828015610a185780601f106109ed57610100808354040283529160200191610a18565b3360009081526009602052604090205460ff16611064576040805162461bcd60e51b8152602060048201526014602482015260008051602061209e833981519152604482015290519081900360640190fd5b60005b60075481101561098d5760006007828154811061108057fe5b6000918252602080832090910154604080516310e059a160e11b81526001600160a01b0389811660048301528881166024830152915191909216945084936321c0b34293604480850194919392918390030190829087803b1580156110e457600080fd5b505af11580156110f8573d6000803e3d6000fd5b505050506040513d602081101561110e57600080fd5b505050600101611067565b6004546001600160a01b03163314611166576040805162461bcd60e51b8152602060048201526014602482015260008051602061209e833981519152604482015290519081900360640190fd5b6001600160a01b03919091166000908152600b60205260409020805460ff1916911515919091179055565b336000908152600c602052604090205460ff166111f5576040805162461bcd60e51b815260206004820152601c60248201527f4d696e7461626c6542617365546f6b656e3a20666f7262696464656e00000000604482015290519081900360640190fd5b610b6c8282611ae8565b6000610a2d33848461164d565b6004546001600160a01b03163314611259576040805162461bcd60e51b8152602060048201526014602482015260008051602061209e833981519152604482015290519081900360640190fd5b815161126c906000906020850190611f08565b50805161098d906001906020840190611f08565b600c6020526000908152604090205460ff1681565b60035481565b6004546001600160a01b031633146112e8576040805162461bcd60e51b8152602060048201526014602482015260008051602061209e833981519152604482015290519081900360640190fd5b6001600160a01b03919091166000908152600c60205260409020805460ff1916911515919091179055565b6004546001600160a01b03163314611360576040805162461bcd60e51b8152602060048201526014602482015260008051602061209e833981519152604482015290519081900360640190fd5b600480546001600160a01b0319166001600160a01b0392909216919091179055565b6001600160a01b03918216600090815260066020908152604080832093909416825291909152205490565b600a5460ff1681565b3360009081526009602052604090205460ff16611408576040805162461bcd60e51b8152602060048201526014602482015260008051602061209e833981519152604482015290519081900360640190fd5b6001600160a01b03811660009081526008602052604090205460ff16611475576040805162461bcd60e51b815260206004820152601e60248201527f42617365546f6b656e3a205f6163636f756e74206e6f74206d61726b65640000604482015290519081900360640190fd5b61147e81611a10565b6001600160a01b0381166000908152600860209081526040808320805460ff191690556005909152902054600354610ef391611aa6565b600082820183811015610c03576040805162461bcd60e51b815260206004820152601b60248201527f536166654d6174683a206164646974696f6e206f766572666c6f770000000000604482015290519081900360640190fd5b604080516001600160a01b038416602482015260448082018490528251808303909101815260649091019091526020810180516001600160e01b031663a9059cbb60e01b17905261098d908490611c13565b6001600160a01b0383166115a65760405162461bcd60e51b81526004018080602001828103825260288152602001806120be6028913960400191505060405180910390fd5b6001600160a01b0382166115eb5760405162461bcd60e51b81526004018080602001828103825260268152602001806120266026913960400191505060405180910390fd5b6001600160a01b03808416600081815260066020908152604080832094871680845294825291829020859055815185815291517f8c5be1e5ebec7d5bd14f71427d1e84f3dd0314c0f7b2291e5b200ac8c7c3b9259281900390910190a3505050565b6001600160a01b0383166116925760405162461bcd60e51b81526004018080602001828103825260298152602001806121a76029913960400191505060405180910390fd5b6001600160a01b0382166116d75760405162461bcd60e51b8152600401808060200182810382526027815260200180611fdc6027913960400191505060405180910390fd5b600a5460ff161561173057336000908152600b602052604090205460ff166117305760405162461bcd60e51b8152600401808060200182810382526025815260200180611fb76025913960400191505060405180910390fd5b61173983611a10565b61174282611a10565b61177f816040518060600160405280602a81526020016120e6602a91396001600160a01b0386166000908152600560205260409020549190611875565b6001600160a01b0380851660009081526005602052604080822093909355908416815220546117ae90826114b5565b6001600160a01b0380841660009081526005602090815260408083209490945591861681526008909152205460ff16156117f3576003546117ef9082611aa6565b6003555b6001600160a01b03821660009081526008602052604090205460ff16156118255760035461182190826114b5565b6003555b816001600160a01b0316836001600160a01b03167fddf252ad1be2c89b69c2b068fc378daa952ba7f163c4a11628f55a4df523b3ef836040518082815260200191505060405180910390a3505050565b600081848411156119045760405162461bcd60e51b81526004018080602001828103825283818151815260200191508051906020019080838360005b838110156118c95781810151838201526020016118b1565b50505050905090810190601f1680156118f65780820380516001836020036101000a031916815260200191505b509250505060405180910390fd5b505050900390565b6001600160a01b0382166119515760405162461bcd60e51b81526004018080602001828103825260238152602001806120036023913960400191505060405180910390fd5b61195a82611a10565b60025461196790826114b5565b6002556001600160a01b03821660009081526005602052604090205461198d90826114b5565b6001600160a01b03831660009081526005602090815260408083209390935560089052205460ff16156119cb576003546119c790826114b5565b6003555b6040805182815290516001600160a01b038416916000917fddf252ad1be2c89b69c2b068fc378daa952ba7f163c4a11628f55a4df523b3ef9181900360200190a35050565b60005b600754811015610b6c57600060078281548110611a2c57fe5b600091825260208220015460408051635fd6196560e01b81526001600160a01b03878116600483015291519190921693508392635fd61965926024808201939182900301818387803b158015611a8157600080fd5b505af1158015611a95573d6000803e3d6000fd5b505060019093019250611a13915050565b6000610c0383836040518060400160405280601e81526020017f536166654d6174683a207375627472616374696f6e206f766572666c6f770000815250611875565b6001600160a01b038216611b2d5760405162461bcd60e51b81526004018080602001828103825260258152602001806121826025913960400191505060405180910390fd5b611b3682611a10565b611b7381604051806060016040528060268152602001612132602691396001600160a01b0385166000908152600560205260409020549190611875565b6001600160a01b038316600090815260056020526040902055600254611b999082611aa6565b6002556001600160a01b03821660009081526008602052604090205460ff1615611bce57600354611bca9082611aa6565b6003555b6040805182815290516000916001600160a01b038516917fddf252ad1be2c89b69c2b068fc378daa952ba7f163c4a11628f55a4df523b3ef9181900360200190a35050565b6060611c68826040518060400160405280602081526020017f5361666545524332303a206c6f772d6c6576656c2063616c6c206661696c6564815250856001600160a01b0316611cc49092919063ffffffff16565b80519091501561098d57808060200190516020811015611c8757600080fd5b505161098d5760405162461bcd60e51b815260040180806020018281038252602a815260200180612158602a913960400191505060405180910390fd5b6060611cd38484600085611cdb565b949350505050565b606082471015611d1c5760405162461bcd60e51b81526004018080602001828103825260268152602001806120786026913960400191505060405180910390fd5b611d2585611e37565b611d76576040805162461bcd60e51b815260206004820152601d60248201527f416464726573733a2063616c6c20746f206e6f6e2d636f6e7472616374000000604482015290519081900360640190fd5b60006060866001600160a01b031685876040518082805190602001908083835b60208310611db55780518252601f199092019160209182019101611d96565b6001836020036101000a03801982511681845116808217855250505050505090500191505060006040518083038185875af1925050503d8060008114611e17576040519150601f19603f3d011682016040523d82523d6000602084013e611e1c565b606091505b5091509150611e2c828286611e3d565b979650505050505050565b3b151590565b60608315611e4c575081610c03565b825115611e5c5782518084602001fd5b60405162461bcd60e51b81526020600482018181528451602484015284518593919283926044019190850190808383600083156118c95781810151838201526020016118b1565b828054828255906000526020600020908101928215611ef8579160200282015b82811115611ef857825182546001600160a01b0319166001600160a01b03909116178255602090920191600190910190611ec3565b50611f04929150611f82565b5090565b828054600181600116156101000203166002900490600052602060002090601f016020900481019282601f10611f4957805160ff1916838001178555611f76565b82800160010185558215611f76579182015b82811115611f76578251825591602001919060010190611f5b565b50611f04929150611fa1565b5b80821115611f045780546001600160a01b0319168155600101611f83565b5b80821115611f045760008155600101611fa256fe42617365546f6b656e3a206d73672e73656e646572206e6f742077686974656c697374656442617365546f6b656e3a207472616e7366657220746f20746865207a65726f206164647265737342617365546f6b656e3a206d696e7420746f20746865207a65726f206164647265737342617365546f6b656e3a20617070726f766520746f20746865207a65726f206164647265737342617365546f6b656e3a207472616e7366657220616d6f756e74206578636565647320616c6c6f77616e6365416464726573733a20696e73756666696369656e742062616c616e636520666f722063616c6c42617365546f6b656e3a20666f7262696464656e00000000000000000000000042617365546f6b656e3a20617070726f76652066726f6d20746865207a65726f206164647265737342617365546f6b656e3a207472616e7366657220616d6f756e7420657863656564732062616c616e636542617365546f6b656e3a205f6163636f756e7420616c7265616479206d61726b656442617365546f6b656e3a206275726e20616d6f756e7420657863656564732062616c616e63655361666545524332303a204552433230206f7065726174696f6e20646964206e6f74207375636365656442617365546f6b656e3a206275726e2066726f6d20746865207a65726f206164647265737342617365546f6b656e3a207472616e736665722066726f6d20746865207a65726f2061646472657373a2646970667358221220c3653ffff6be55cd8be221845c6b78bfc2dbd141fa12f02aa825f015d26f5cd564736f6c634300060c003342617365546f6b656e3a206d696e7420746f20746865207a65726f2061646472657373","linkReferences":{}},"methodIdentifiers":{"addAdmin(address)":"70480275","addNonStakingAccount(address)":"62289077","admins(address)":"429b62e5","allowance(address,address)":"dd62ed3e","allowances(address,address)":"55b6ed5c","approve(address,uint256)":"095ea7b3","balanceOf(address)":"70a08231","balances(address)":"27e235e3","burn(address,uint256)":"9dc29fac","claim(address)":"1e83409a","decimals()":"313ce567","gov()":"12d43a51","inPrivateTransferMode()":"dfbaefb1","isHandler(address)":"46ea87af","isMinter(address)":"aa271e1a","mint(address,uint256)":"40c10f19","name()":"06fdde03","nonStakingAccounts(address)":"9554381a","nonStakingSupply()":"c93be636","recoverClaim(address,address)":"996f11ee","removeAdmin(address)":"1785f53c","removeNonStakingAccount(address)":"fb30d916","setGov(address)":"cfad57a2","setHandler(address,bool)":"9cb7de4b","setInPrivateTransferMode(bool)":"5a47a1a7","setInfo(string,string)":"a923fc40","setMinter(address,bool)":"cf456ae7","setYieldTrackers(address[])":"276eab4e","stakedBalance(address)":"60217267","symbol()":"95d89b41","totalStaked()":"817b1cd2","totalSupply()":"18160ddd","transfer(address,uint256)":"a9059cbb","transferFrom(address,address,uint256)":"23b872dd","withdrawToken(address,address,uint256)":"01e33667","yieldTrackers(uint256)":"52cd38d9"},"id":181}