{"abi":[{"type":"constructor","inputs":[{"name":"_vault","type":"address","internalType":"address"},{"name":"_usdg","type":"address","internalType":"address"},{"name":"_weth","type":"address","internalType":"address"}],"stateMutability":"nonpayable"},{"type":"receive","stateMutability":"payable"},{"type":"function","name":"addPlugin","inputs":[{"name":"_plugin","type":"address","internalType":"address"}],"outputs":[],"stateMutability":"nonpayable"},{"type":"function","name":"approvePlugin","inputs":[{"name":"_plugin","type":"address","internalType":"address"}],"outputs":[],"stateMutability":"nonpayable"},{"type":"function","name":"approvedPlugins","inputs":[{"name":"","type":"address","internalType":"address"},{"name":"","type":"address","internalType":"address"}],"outputs":[{"name":"","type":"bool","internalType":"bool"}],"stateMutability":"view"},{"type":"function","name":"decreasePosition","inputs":[{"name":"_collateralToken","type":"address","internalType":"address"},{"name":"_indexToken","type":"address","internalType":"address"},{"name":"_collateralDelta","type":"uint256","internalType":"uint256"},{"name":"_sizeDelta","type":"uint256","internalType":"uint256"},{"name":"_isLong","type":"bool","internalType":"bool"},{"name":"_receiver","type":"address","internalType":"address"},{"name":"_price","type":"uint256","internalType":"uint256"}],"outputs":[],"stateMutability":"nonpayable"},{"type":"function","name":"decreasePositionAndSwap","inputs":[{"name":"_path","type":"address[]","internalType":"address[]"},{"name":"_indexToken","type":"address","internalType":"address"},{"name":"_collateralDelta","type":"uint256","internalType":"uint256"},{"name":"_sizeDelta","type":"uint256","internalType":"uint256"},{"name":"_isLong","type":"bool","internalType":"bool"},{"name":"_receiver","type":"address","internalType":"address"},{"name":"_price","type":"uint256","internalType":"uint256"},{"name":"_minOut","type":"uint256","internalType":"uint256"}],"outputs":[],"stateMutability":"nonpayable"},{"type":"function","name":"decreasePositionAndSwapETH","inputs":[{"name":"_path","type":"address[]","internalType":"address[]"},{"name":"_indexToken","type":"address","internalType":"address"},{"name":"_collateralDelta","type":"uint256","internalType":"uint256"},{"name":"_sizeDelta","type":"uint256","internalType":"uint256"},{"name":"_isLong","type":"bool","internalType":"bool"},{"name":"_receiver","type":"address","internalType":"address payable"},{"name":"_price","type":"uint256","internalType":"uint256"},{"name":"_minOut","type":"uint256","internalType":"uint256"}],"outputs":[],"stateMutability":"nonpayable"},{"type":"function","name":"decreasePositionETH","inputs":[{"name":"_collateralToken","type":"address","internalType":"address"},{"name":"_indexToken","type":"address","internalType":"address"},{"name":"_collateralDelta","type":"uint256","internalType":"uint256"},{"name":"_sizeDelta","type":"uint256","internalType":"uint256"},{"name":"_isLong","type":"bool","internalType":"bool"},{"name":"_receiver","type":"address","internalType":"address payable"},{"name":"_price","type":"uint256","internalType":"uint256"}],"outputs":[],"stateMutability":"nonpayable"},{"type":"function","name":"denyPlugin","inputs":[{"name":"_plugin","type":"address","internalType":"address"}],"outputs":[],"stateMutability":"nonpayable"},{"type":"function","name":"directPoolDeposit","inputs":[{"name":"_token","type":"address","internalType":"address"},{"name":"_amount","type":"uint256","internalType":"uint256"}],"outputs":[],"stateMutability":"nonpayable"},{"type":"function","name":"gov","inputs":[],"outputs":[{"name":"","type":"address","internalType":"address"}],"stateMutability":"view"},{"type":"function","name":"increasePosition","inputs":[{"name":"_path","type":"address[]","internalType":"address[]"},{"name":"_indexToken","type":"address","internalType":"address"},{"name":"_amountIn","type":"uint256","internalType":"uint256"},{"name":"_minOut","type":"uint256","internalType":"uint256"},{"name":"_sizeDelta","type":"uint256","internalType":"uint256"},{"name":"_isLong","type":"bool","internalType":"bool"},{"name":"_price","type":"uint256","internalType":"uint256"}],"outputs":[],"stateMutability":"nonpayable"},{"type":"function","name":"increasePositionETH","inputs":[{"name":"_path","type":"address[]","internalType":"address[]"},{"name":"_indexToken","type":"address","internalType":"address"},{"name":"_minOut","type":"uint256","internalType":"uint256"},{"name":"_sizeDelta","type":"uint256","internalType":"uint256"},{"name":"_isLong","type":"bool","internalType":"bool"},{"name":"_price","type":"uint256","internalType":"uint256"}],"outputs":[],"stateMutability":"payable"},{"type":"function","name":"pluginDecreasePosition","inputs":[{"name":"_account","type":"address","internalType":"address"},{"name":"_collateralToken","type":"address","internalType":"address"},{"name":"_indexToken","type":"address","internalType":"address"},{"name":"_collateralDelta","type":"uint256","internalType":"uint256"},{"name":"_sizeDelta","type":"uint256","internalType":"uint256"},{"name":"_isLong","type":"bool","internalType":"bool"},{"name":"_receiver","type":"address","internalType":"address"}],"outputs":[{"name":"","type":"uint256","internalType":"uint256"}],"stateMutability":"nonpayable"},{"type":"function","name":"pluginIncreasePosition","inputs":[{"name":"_account","type":"address","internalType":"address"},{"name":"_collateralToken","type":"address","internalType":"address"},{"name":"_indexToken","type":"address","internalType":"address"},{"name":"_sizeDelta","type":"uint256","internalType":"uint256"},{"name":"_isLong","type":"bool","internalType":"bool"}],"outputs":[],"stateMutability":"nonpayable"},{"type":"function","name":"pluginTransfer","inputs":[{"name":"_token","type":"address","internalType":"address"},{"name":"_account","type":"address","internalType":"address"},{"name":"_receiver","type":"address","internalType":"address"},{"name":"_amount","type":"uint256","internalType":"uint256"}],"outputs":[],"stateMutability":"nonpayable"},{"type":"function","name":"plugins","inputs":[{"name":"","type":"address","internalType":"address"}],"outputs":[{"name":"","type":"bool","internalType":"bool"}],"stateMutability":"view"},{"type":"function","name":"removePlugin","inputs":[{"name":"_plugin","type":"address","internalType":"address"}],"outputs":[],"stateMutability":"nonpayable"},{"type":"function","name":"setGov","inputs":[{"name":"_gov","type":"address","internalType":"address"}],"outputs":[],"stateMutability":"nonpayable"},{"type":"function","name":"swap","inputs":[{"name":"_path","type":"address[]","internalType":"address[]"},{"name":"_amountIn","type":"uint256","internalType":"uint256"},{"name":"_minOut","type":"uint256","internalType":"uint256"},{"name":"_receiver","type":"address","internalType":"address"}],"outputs":[],"stateMutability":"nonpayable"},{"type":"function","name":"swapETHToTokens","inputs":[{"name":"_path","type":"address[]","internalType":"address[]"},{"name":"_minOut","type":"uint256","internalType":"uint256"},{"name":"_receiver","type":"address","internalType":"address"}],"outputs":[],"stateMutability":"payable"},{"type":"function","name":"swapTokensToETH","inputs":[{"name":"_path","type":"address[]","internalType":"address[]"},{"name":"_amountIn","type":"uint256","internalType":"uint256"},{"name":"_minOut","type":"uint256","internalType":"uint256"},{"name":"_receiver","type":"address","internalType":"address payable"}],"outputs":[],"stateMutability":"nonpayable"},{"type":"function","name":"usdg","inputs":[],"outputs":[{"name":"","type":"address","internalType":"address"}],"stateMutability":"view"},{"type":"function","name":"vault","inputs":[],"outputs":[{"name":"","type":"address","internalType":"address"}],"stateMutability":"view"},{"type":"function","name":"weth","inputs":[],"outputs":[{"name":"","type":"address","internalType":"address"}],"stateMutability":"view"},{"type":"event","name":"Swap","inputs":[{"name":"account","type":"address","indexed":false,"internalType":"address"},{"name":"tokenIn","type":"address","indexed":false,"internalType":"address"},{"name":"tokenOut","type":"address","indexed":false,"internalType":"address"},{"name":"amountIn","type":"uint256","indexed":false,"internalType":"uint256"},{"name":"amountOut","type":"uint256","indexed":false,"internalType":"uint256"}],"anonymous":false}],"bytecode":{"object":"0x608060405234801561001057600080fd5b506040516124c83803806124c88339818101604052606081101561003357600080fd5b5080516020820151604090920151600380546001600160a01b039384166001600160a01b03199182161790915560028054948416948216949094179093556001805492909116918316919091179055600080549091163317905561242c8061009c6000396000f3fe60806040526004361061014f5760003560e01c806390205d8c116100b6578063b7ddc9921161006f578063b7ddc9921461099b578063cedd437514610a71578063cfad57a214610aa4578063d8867fc814610ad7578063f5b91b7b14610b0a578063fbfa77cf14610b1f576101ae565b806390205d8c1461072357806390b64ad314610782578063956f285e146107bb578063a4d95b64146107f6578063abe68eaa14610829578063b32755de146108d8576101ae565b806338c74dd91161010857806338c74dd9146104935780633fc8cef3146104c6578063430ed37c146104db5780634b12e6431461053a5780635fc8500e146105815780636023e96614610661576101ae565b806312d43a51146101b35780631b827878146101e45780631f1dd1761461022d5780632662166b1461027e5780632d4ba6a7146102f15780633039e37f146103b3576101ae565b366101ae576001546001600160a01b031633146101ac576040805162461bcd60e51b81526020600482015260166024820152752937baba32b91d1034b73b30b634b21039b2b73232b960511b604482015290519081900360640190fd5b005b600080fd5b3480156101bf57600080fd5b506101c8610b34565b604080516001600160a01b039092168252519081900360200190f35b3480156101f057600080fd5b506101ac6004803603608081101561020757600080fd5b506001600160a01b03813581169160208101358216916040820135169060600135610b43565b34801561023957600080fd5b506101ac600480360360a081101561025057600080fd5b506001600160a01b038135811691602081013582169160408201351690606081013590608001351515610b67565b34801561028a57600080fd5b506102df600480360360e08110156102a157600080fd5b506001600160a01b0381358116916020810135821691604082013581169160608101359160808201359160a081013515159160c09091013516610bfc565b60408051918252519081900360200190f35b3480156102fd57600080fd5b506101ac6004803603608081101561031457600080fd5b810190602081018135600160201b81111561032e57600080fd5b82018360208201111561034057600080fd5b803590602001918460208302840111600160201b8311171561036157600080fd5b91908080602002602001604051908101604052809392919081815260200183836020028082843760009201919091525092955050823593505050602081013590604001356001600160a01b0316610cbc565b3480156103bf57600080fd5b506101ac60048036036101008110156103d757600080fd5b810190602081018135600160201b8111156103f157600080fd5b82018360208201111561040357600080fd5b803590602001918460208302840111600160201b8311171561042457600080fd5b919080806020026020016040519081016040528093929190818152602001838360200280828437600092019190915250929550505081356001600160a01b0390811693506020830135926040810135925060608101351515916080820135169060a08101359060c00135610e3f565b34801561049f57600080fd5b506101ac600480360360208110156104b657600080fd5b50356001600160a01b0316610f4e565b3480156104d257600080fd5b506101c8610f7f565b3480156104e757600080fd5b506101ac600480360360e08110156104fe57600080fd5b506001600160a01b0381358116916020810135821691604082013591606081013591608082013515159160a08101359091169060c00135610f8e565b34801561054657600080fd5b5061056d6004803603602081101561055d57600080fd5b50356001600160a01b0316610fb5565b604080519115158252519081900360200190f35b34801561058d57600080fd5b506101ac60048036036101008110156105a557600080fd5b810190602081018135600160201b8111156105bf57600080fd5b8201836020820111156105d157600080fd5b803590602001918460208302840111600160201b831117156105f257600080fd5b919080806020026020016040519081016040528093929190818152602001838360200280828437600092019190915250929550505081356001600160a01b0390811693506020830135926040810135925060608101351515916080820135169060a08101359060c00135610fca565b34801561066d57600080fd5b506101ac6004803603608081101561068457600080fd5b810190602081018135600160201b81111561069e57600080fd5b8201836020820111156106b057600080fd5b803590602001918460208302840111600160201b831117156106d157600080fd5b91908080602002602001604051908101604052809392919081815260200183836020028082843760009201919091525092955050823593505050602081013590604001356001600160a01b0316611010565b34801561072f57600080fd5b506101ac600480360360e081101561074657600080fd5b506001600160a01b0381358116916020810135821691604082013591606081013591608082013515159160a08101359091169060c00135611059565b34801561078e57600080fd5b506101ac600480360360408110156107a557600080fd5b506001600160a01b038135169060200135611068565b3480156107c757600080fd5b5061056d600480360360408110156107de57600080fd5b506001600160a01b03813581169160200135166110f4565b34801561080257600080fd5b506101ac6004803603602081101561081957600080fd5b50356001600160a01b0316611114565b6101ac6004803603606081101561083f57600080fd5b810190602081018135600160201b81111561085957600080fd5b82018360208201111561086b57600080fd5b803590602001918460208302840111600160201b8311171561088c57600080fd5b91908080602002602001604051908101604052809392919081815260200183836020028082843760009201919091525092955050823593505050602001356001600160a01b0316611188565b6101ac600480360360c08110156108ee57600080fd5b810190602081018135600160201b81111561090857600080fd5b82018360208201111561091a57600080fd5b803590602001918460208302840111600160201b8311171561093b57600080fd5b919080806020026020016040519081016040528093929190818152602001838360200280828437600092019190915250929550506001600160a01b03833516935050506020810135906040810135906060810135151590608001356112b9565b3480156109a757600080fd5b506101ac600480360360e08110156109be57600080fd5b810190602081018135600160201b8111156109d857600080fd5b8201836020820111156109ea57600080fd5b803590602001918460208302840111600160201b83111715610a0b57600080fd5b919080806020026020016040519081016040528093929190818152602001838360200280828437600092019190915250929550506001600160a01b0383351693505050602081013590604081013590606081013590608081013515159060a001356113b3565b348015610a7d57600080fd5b506101ac60048036036020811015610a9457600080fd5b50356001600160a01b0316611460565b348015610ab057600080fd5b506101ac60048036036020811015610ac757600080fd5b50356001600160a01b031661148e565b348015610ae357600080fd5b506101ac60048036036020811015610afa57600080fd5b50356001600160a01b0316611503565b348015610b1657600080fd5b506101c861157a565b348015610b2b57600080fd5b506101c8611589565b6000546001600160a01b031681565b610b4c83611598565b610b616001600160a01b038516848484611670565b50505050565b610b7085611598565b600354604080516348d91abf60e01b81526001600160a01b03888116600483015287811660248301528681166044830152606482018690528415156084830152915191909216916348d91abf9160a480830192600092919082900301818387803b158015610bdd57600080fd5b505af1158015610bf1573d6000803e3d6000fd5b505050505050505050565b6000610c0788611598565b6003546040805163082a084960e41b81526001600160a01b038b811660048301528a811660248301528981166044830152606482018990526084820188905286151560a483015285811660c4830152915191909216916382a084909160e48083019260209291908290030181600087803b158015610c8457600080fd5b505af1158015610c98573d6000803e3d6000fd5b505050506040513d6020811015610cae57600080fd5b505198975050505050505050565b60015484516001600160a01b039091169085906000198101908110610cdd57fe5b60200260200101516001600160a01b031614610d38576040805162461bcd60e51b81526020600482015260156024820152740a4deeae8cae47440d2dcecc2d8d2c840bee0c2e8d605b1b604482015290519081900360640190fd5b610d82610d436116ca565b60035486516001600160a01b039091169086908890600090610d6157fe5b60200260200101516001600160a01b0316611670909392919063ffffffff16565b6000610d8f8584306116ce565b9050610d9b818361180f565b7fcd3829a3813dc3cdd188fd3d01dcf3268c16be2fdd2dd21d0665418816e460623386600081518110610dca57fe5b602002602001015187600189510381518110610de257fe5b6020026020010151878560405180866001600160a01b03168152602001856001600160a01b03168152602001846001600160a01b031681526020018381526020018281526020019550505050505060405180910390a15050505050565b60015488516001600160a01b039091169089906000198101908110610e6057fe5b60200260200101516001600160a01b031614610ebb576040805162461bcd60e51b81526020600482015260156024820152740a4deeae8cae47440d2dcecc2d8d2c840bee0c2e8d605b1b604482015290519081900360640190fd5b6000610ee089600081518110610ecd57fe5b602002602001015189898989308961188c565b9050610f29600360009054906101000a90046001600160a01b0316828b600081518110610f0957fe5b60200260200101516001600160a01b0316611a999092919063ffffffff16565b6000610f368a84306116ce565b9050610f42818661180f565b50505050505050505050565b3360009081526005602090815260408083206001600160a01b0394909416835292905220805460ff19166001179055565b6001546001600160a01b031681565b6000610f9f8888888888308861188c565b9050610fab818461180f565b5050505050505050565b60046020526000908152604090205460ff1681565b6000610fdc89600081518110610ecd57fe5b9050611005600360009054906101000a90046001600160a01b0316828b600081518110610f0957fe5b610f428983866116ce565b61101b610d436116ca565b60006110288584846116ce565b90507fcd3829a3813dc3cdd188fd3d01dcf3268c16be2fdd2dd21d0665418816e460623386600081518110610dca57fe5b610fab8787878787878761188c565b61108a6110736116ca565b6003546001600160a01b0385811692911684611670565b60035460408051635f7bc11960e01b81526001600160a01b03858116600483015291519190921691635f7bc11991602480830192600092919082900301818387803b1580156110d857600080fd5b505af11580156110ec573d6000803e3d6000fd5b505050505050565b600560209081526000928352604080842090915290825290205460ff1681565b6000546001600160a01b03163314611167576040805162461bcd60e51b81526020600482015260116024820152702937baba32b91d103337b93134b23232b760791b604482015290519081900360640190fd5b6001600160a01b03166000908152600460205260409020805460ff19169055565b60015483516001600160a01b039091169084906000906111a457fe5b60200260200101516001600160a01b0316146111ff576040805162461bcd60e51b81526020600482015260156024820152740a4deeae8cae47440d2dcecc2d8d2c840bee0c2e8d605b1b604482015290519081900360640190fd5b611207611af0565b60006112148484846116ce565b90507fcd3829a3813dc3cdd188fd3d01dcf3268c16be2fdd2dd21d0665418816e46062338560008151811061124557fe5b60200260200101518660018851038151811061125d57fe5b6020026020010151348560405180866001600160a01b03168152602001856001600160a01b03168152602001846001600160a01b031681526020018381526020018281526020019550505050505060405180910390a150505050565b60015486516001600160a01b039091169087906000906112d557fe5b60200260200101516001600160a01b031614611330576040805162461bcd60e51b81526020600482015260156024820152740a4deeae8cae47440d2dcecc2d8d2c840bee0c2e8d605b1b604482015290519081900360640190fd5b341561133e5761133e611af0565b6001865111801561134f5750600034115b1561138f5760006113618786306116ce565b905061138d600360009054906101000a90046001600160a01b0316828960018b510381518110610f0957fe5b505b6110ec866001885103815181106113a257fe5b602002602001015186858585611b79565b84156113e2576113e26113c46116ca565b60035489516001600160a01b039091169088908b90600090610d6157fe5b600187511180156113f35750600085115b156114335760006114058886306116ce565b9050611431600360009054906101000a90046001600160a01b0316828a60018c510381518110610f0957fe5b505b6114578760018951038151811061144657fe5b602002602001015187858585611b79565b50505050505050565b3360009081526005602090815260408083206001600160a01b0394909416835292905220805460ff19169055565b6000546001600160a01b031633146114e1576040805162461bcd60e51b81526020600482015260116024820152702937baba32b91d103337b93134b23232b760791b604482015290519081900360640190fd5b600080546001600160a01b0319166001600160a01b0392909216919091179055565b6000546001600160a01b03163314611556576040805162461bcd60e51b81526020600482015260116024820152702937baba32b91d103337b93134b23232b760791b604482015290519081900360640190fd5b6001600160a01b03166000908152600460205260409020805460ff19166001179055565b6002546001600160a01b031681565b6003546001600160a01b031681565b3360009081526004602052604090205460ff166115f5576040805162461bcd60e51b81526020600482015260166024820152752937baba32b91d1034b73b30b634b21038363ab3b4b760511b604482015290519081900360640190fd5b6001600160a01b038116600090815260056020908152604080832033845290915290205460ff1661166d576040805162461bcd60e51b815260206004820152601b60248201527f526f757465723a20706c7567696e206e6f7420617070726f7665640000000000604482015290519081900360640190fd5b50565b604080516001600160a01b0380861660248301528416604482015260648082018490528251808303909101815260849091019091526020810180516001600160e01b03166323b872dd60e01b179052610b61908590611d74565b3390565b60008351600214156117155761170e846000815181106116ea57fe5b6020026020010151856001815181106116ff57fe5b60200260200101518585611e25565b9050611808565b8351600314156117bb5760006117568560008151811061173157fe5b60200260200101518660018151811061174657fe5b6020026020010151600030611e25565b905061177f600360009054906101000a90046001600160a01b03168287600181518110610f0957fe5b6117b38560018151811061178f57fe5b6020026020010151866002815181106117a457fe5b60200260200101518686611e25565b915050611808565b6040805162461bcd60e51b815260206004820152601c60248201527f526f757465723a20696e76616c6964205f706174682e6c656e67746800000000604482015290519081900360640190fd5b9392505050565b60015460408051632e1a7d4d60e01b81526004810185905290516001600160a01b0390921691632e1a7d4d9160248082019260009290919082900301818387803b15801561185c57600080fd5b505af1158015611870573d6000803e3d6000fd5b50611888925050506001600160a01b03821683612023565b5050565b6000831561195257600354604080516340d3096b60e11b81526001600160a01b038a811660048301529151859392909216916381a612d691602480820192602092909190829003018186803b1580156118e457600080fd5b505afa1580156118f8573d6000803e3d6000fd5b505050506040513d602081101561190e57600080fd5b5051101561194d5760405162461bcd60e51b81526004018080602001828103825260238152602001806123866023913960400191505060405180910390fd5b611a0b565b60035460408051637092736960e11b81526001600160a01b038a8116600483015291518593929092169163e124e6d291602480820192602092909190829003018186803b1580156119a257600080fd5b505afa1580156119b6573d6000803e3d6000fd5b505050506040513d60208110156119cc57600080fd5b50511115611a0b5760405162461bcd60e51b81526004018080602001828103825260248152602001806123d36024913960400191505060405180910390fd5b6003546001600160a01b03166382a08490611a246116ca565b604080516001600160e01b031960e085901b1681526001600160a01b039283166004820152828d166024820152828c166044820152606481018b9052608481018a905288151560a482015291871660c48301525160e48083019260209291908290030181600087803b158015610c8457600080fd5b604080516001600160a01b038416602482015260448082018490528251808303909101815260649091019091526020810180516001600160e01b031663a9059cbb60e01b179052611aeb908490611d74565b505050565b600160009054906101000a90046001600160a01b03166001600160a01b031663d0e30db0346040518263ffffffff1660e01b81526004016000604051808303818588803b158015611b4057600080fd5b505af1158015611b54573d6000803e3d6000fd5b5050600354600154611b7794506001600160a01b03908116935016905034611a99565b565b8115611c3d5760035460408051637092736960e11b81526001600160a01b03878116600483015291518493929092169163e124e6d291602480820192602092909190829003018186803b158015611bcf57600080fd5b505afa158015611be3573d6000803e3d6000fd5b505050506040513d6020811015611bf957600080fd5b50511115611c385760405162461bcd60e51b81526004018080602001828103825260248152602001806123d36024913960400191505060405180910390fd5b611cf6565b600354604080516340d3096b60e11b81526001600160a01b0387811660048301529151849392909216916381a612d691602480820192602092909190829003018186803b158015611c8d57600080fd5b505afa158015611ca1573d6000803e3d6000fd5b505050506040513d6020811015611cb757600080fd5b50511015611cf65760405162461bcd60e51b81526004018080602001828103825260238152602001806123866023913960400191505060405180910390fd5b6003546001600160a01b03166348d91abf611d0f6116ca565b604080516001600160e01b031960e085901b1681526001600160a01b039283166004820152828a16602482015291881660448301526064820187905285151560848301525160a480830192600092919082900301818387803b158015610bdd57600080fd5b6060611dc9826040518060400160405280602081526020017f5361666545524332303a206c6f772d6c6576656c2063616c6c206661696c6564815250856001600160a01b03166121089092919063ffffffff16565b805190915015611aeb57808060200190516020811015611de857600080fd5b5051611aeb5760405162461bcd60e51b815260040180806020018281038252602a8152602001806123a9602a913960400191505060405180910390fd5b60025460009081906001600160a01b0386811691161415611eca576003546040805163817bb85760e01b81526001600160a01b03898116600483015286811660248301529151919092169163817bb8579160448083019260209291908290030181600087803b158015611e9757600080fd5b505af1158015611eab573d6000803e3d6000fd5b505050506040513d6020811015611ec157600080fd5b50519050611fc5565b6002546001600160a01b0387811691161415611f375760035460408051630711e61960e41b81526001600160a01b03888116600483015286811660248301529151919092169163711e61909160448083019260209291908290030181600087803b158015611e9757600080fd5b60035460408051634998b10960e11b81526001600160a01b038981166004830152888116602483015286811660448301529151919092169163933162129160648083019260209291908290030181600087803b158015611f9657600080fd5b505af1158015611faa573d6000803e3d6000fd5b505050506040513d6020811015611fc057600080fd5b505190505b8381101561201a576040805162461bcd60e51b815260206004820152601e60248201527f526f757465723a20696e73756666696369656e7420616d6f756e744f75740000604482015290519081900360640190fd5b95945050505050565b80471015612078576040805162461bcd60e51b815260206004820152601d60248201527f416464726573733a20696e73756666696369656e742062616c616e6365000000604482015290519081900360640190fd5b6040516000906001600160a01b0384169083908381818185875af1925050503d80600081146120c3576040519150601f19603f3d011682016040523d82523d6000602084013e6120c8565b606091505b5050905080611aeb5760405162461bcd60e51b815260040180806020018281038252603a815260200180612326603a913960400191505060405180910390fd5b6060612117848460008561211f565b949350505050565b6060824710156121605760405162461bcd60e51b81526004018080602001828103825260268152602001806123606026913960400191505060405180910390fd5b6121698561227b565b6121ba576040805162461bcd60e51b815260206004820152601d60248201527f416464726573733a2063616c6c20746f206e6f6e2d636f6e7472616374000000604482015290519081900360640190fd5b60006060866001600160a01b031685876040518082805190602001908083835b602083106121f95780518252601f1990920191602091820191016121da565b6001836020036101000a03801982511681845116808217855250505050505090500191505060006040518083038185875af1925050503d806000811461225b576040519150601f19603f3d011682016040523d82523d6000602084013e612260565b606091505b5091509150612270828286612281565b979650505050505050565b3b151590565b60608315612290575081611808565b8251156122a05782518084602001fd5b8160405162461bcd60e51b81526004018080602001828103825283818151815260200191508051906020019080838360005b838110156122ea5781810151838201526020016122d2565b50505050905090810190601f1680156123175780820380516001836020036101000a031916815260200191505b509250505060405180910390fdfe416464726573733a20756e61626c6520746f2073656e642076616c75652c20726563697069656e74206d61792068617665207265766572746564416464726573733a20696e73756666696369656e742062616c616e636520666f722063616c6c526f757465723a206d61726b207072696365206c6f776572207468616e206c696d69745361666545524332303a204552433230206f7065726174696f6e20646964206e6f742073756363656564526f757465723a206d61726b20707269636520686967686572207468616e206c696d6974a264697066735822122023c17018028362bdf03a5509f7e8846af2132b222b5b7c31fed648c2ab3fc7cc64736f6c634300060c0033","linkReferences":{}},"methodIdentifiers":{"addPlugin(address)":"d8867fc8","approvePlugin(address)":"38c74dd9","approvedPlugins(address,address)":"956f285e","decreasePosition(address,address,uint256,uint256,bool,address,uint256)":"90205d8c","decreasePositionAndSwap(address[],address,uint256,uint256,bool,address,uint256,uint256)":"5fc8500e","decreasePositionAndSwapETH(address[],address,uint256,uint256,bool,address,uint256,uint256)":"3039e37f","decreasePositionETH(address,address,uint256,uint256,bool,address,uint256)":"430ed37c","denyPlugin(address)":"cedd4375","directPoolDeposit(address,uint256)":"90b64ad3","gov()":"12d43a51","increasePosition(address[],address,uint256,uint256,uint256,bool,uint256)":"b7ddc992","increasePositionETH(address[],address,uint256,uint256,bool,uint256)":"b32755de","pluginDecreasePosition(address,address,address,uint256,uint256,bool,address)":"2662166b","pluginIncreasePosition(address,address,address,uint256,bool)":"1f1dd176","pluginTransfer(address,address,address,uint256)":"1b827878","plugins(address)":"4b12e643","removePlugin(address)":"a4d95b64","setGov(address)":"cfad57a2","swap(address[],uint256,uint256,address)":"6023e966","swapETHToTokens(address[],uint256,address)":"abe68eaa","swapTokensToETH(address[],uint256,uint256,address)":"2d4ba6a7","usdg()":"f5b91b7b","vault()":"fbfa77cf","weth()":"3fc8cef3"},"id":89}