{"abi":[{"type":"constructor","inputs":[{"name":"name","type":"string","internalType":"string"},{"name":"symbol","type":"string","internalType":"string"},{"name":"decimals","type":"uint8","internalType":"uint8"},{"name":"dropletAmount","type":"uint256","internalType":"uint256"}],"stateMutability":"nonpayable"},{"type":"function","name":"DROPLET_INTERVAL","inputs":[],"outputs":[{"name":"","type":"uint256","internalType":"uint256"}],"stateMutability":"view"},{"type":"function","name":"_claimedAt","inputs":[{"name":"","type":"address","internalType":"address"}],"outputs":[{"name":"","type":"uint256","internalType":"uint256"}],"stateMutability":"view"},{"type":"function","name":"_dropletAmount","inputs":[],"outputs":[{"name":"","type":"uint256","internalType":"uint256"}],"stateMutability":"view"},{"type":"function","name":"_gov","inputs":[],"outputs":[{"name":"","type":"address","internalType":"address"}],"stateMutability":"view"},{"type":"function","name":"_isFaucetEnabled","inputs":[],"outputs":[{"name":"","type":"bool","internalType":"bool"}],"stateMutability":"view"},{"type":"function","name":"allowance","inputs":[{"name":"owner","type":"address","internalType":"address"},{"name":"spender","type":"address","internalType":"address"}],"outputs":[{"name":"","type":"uint256","internalType":"uint256"}],"stateMutability":"view"},{"type":"function","name":"approve","inputs":[{"name":"spender","type":"address","internalType":"address"},{"name":"amount","type":"uint256","internalType":"uint256"}],"outputs":[{"name":"","type":"bool","internalType":"bool"}],"stateMutability":"nonpayable"},{"type":"function","name":"balanceOf","inputs":[{"name":"account","type":"address","internalType":"address"}],"outputs":[{"name":"","type":"uint256","internalType":"uint256"}],"stateMutability":"view"},{"type":"function","name":"claimDroplet","inputs":[],"outputs":[],"stateMutability":"nonpayable"},{"type":"function","name":"decimals","inputs":[],"outputs":[{"name":"","type":"uint8","internalType":"uint8"}],"stateMutability":"view"},{"type":"function","name":"decreaseAllowance","inputs":[{"name":"spender","type":"address","internalType":"address"},{"name":"subtractedValue","type":"uint256","internalType":"uint256"}],"outputs":[{"name":"","type":"bool","internalType":"bool"}],"stateMutability":"nonpayable"},{"type":"function","name":"disableFaucet","inputs":[],"outputs":[],"stateMutability":"nonpayable"},{"type":"function","name":"enableFaucet","inputs":[],"outputs":[],"stateMutability":"nonpayable"},{"type":"function","name":"increaseAllowance","inputs":[{"name":"spender","type":"address","internalType":"address"},{"name":"addedValue","type":"uint256","internalType":"uint256"}],"outputs":[{"name":"","type":"bool","internalType":"bool"}],"stateMutability":"nonpayable"},{"type":"function","name":"mint","inputs":[{"name":"account","type":"address","internalType":"address"},{"name":"amount","type":"uint256","internalType":"uint256"}],"outputs":[],"stateMutability":"nonpayable"},{"type":"function","name":"name","inputs":[],"outputs":[{"name":"","type":"string","internalType":"string"}],"stateMutability":"view"},{"type":"function","name":"setDropletAmount","inputs":[{"name":"dropletAmount","type":"uint256","internalType":"uint256"}],"outputs":[],"stateMutability":"nonpayable"},{"type":"function","name":"symbol","inputs":[],"outputs":[{"name":"","type":"string","internalType":"string"}],"stateMutability":"view"},{"type":"function","name":"totalSupply","inputs":[],"outputs":[{"name":"","type":"uint256","internalType":"uint256"}],"stateMutability":"view"},{"type":"function","name":"transfer","inputs":[{"name":"recipient","type":"address","internalType":"address"},{"name":"amount","type":"uint256","internalType":"uint256"}],"outputs":[{"name":"","type":"bool","internalType":"bool"}],"stateMutability":"nonpayable"},{"type":"function","name":"transferFrom","inputs":[{"name":"sender","type":"address","internalType":"address"},{"name":"recipient","type":"address","internalType":"address"},{"name":"amount","type":"uint256","internalType":"uint256"}],"outputs":[{"name":"","type":"bool","internalType":"bool"}],"stateMutability":"nonpayable"},{"type":"event","name":"Approval","inputs":[{"name":"owner","type":"address","indexed":true,"internalType":"address"},{"name":"spender","type":"address","indexed":true,"internalType":"address"},{"name":"value","type":"uint256","indexed":false,"internalType":"uint256"}],"anonymous":false},{"type":"event","name":"Transfer","inputs":[{"name":"from","type":"address","indexed":true,"internalType":"address"},{"name":"to","type":"address","indexed":true,"internalType":"address"},{"name":"value","type":"uint256","indexed":false,"internalType":"uint256"}],"anonymous":false}],"bytecode":{"object":"0x60806040526170806000553480156200001757600080fd5b50604051620011b4380380620011b4833981810160405260808110156200003d57600080fd5b81019080805160405193929190846401000000008211156200005e57600080fd5b9083019060208201858111156200007457600080fd5b82516401000000008111828201881017156200008f57600080fd5b82525081516020918201929091019080838360005b83811015620000be578181015183820152602001620000a4565b50505050905090810190601f168015620000ec5780820380516001836020036101000a031916815260200191505b50604052602001805160405193929190846401000000008211156200011057600080fd5b9083019060208201858111156200012657600080fd5b82516401000000008111828201881017156200014157600080fd5b82525081516020918201929091019080838360005b838110156200017057818101518382015260200162000156565b50505050905090810190601f1680156200019e5780820380516001836020036101000a031916815260200191505b506040908152602082810151929091015186519294509250620001c79160069187019062000212565b508251620001dd90600790602086019062000212565b506008805460ff90931660ff1990931692909217909155600180546001600160a01b0319163317905560025550620002ae9050565b828054600181600116156101000203166002900490600052602060002090601f016020900481019282601f106200025557805160ff191683800117855562000285565b8280016001018555821562000285579182015b828111156200028557825182559160200191906001019062000268565b506200029392915062000297565b5090565b5b8082111562000293576000815560010162000298565b610ef680620002be6000396000f3fe608060405234801561001057600080fd5b50600436106101375760003560e01c806370a08231116100b8578063a9059cbb1161007c578063a9059cbb1461037d578063bd136448146103a9578063c7c7dee5146103b1578063d08f8b3f146103b9578063dd62ed3e146103d6578063e65117431461040457610137565b806370a0823114610313578063944d3c2a1461033957806395d89b4114610341578063a1c2fb0c14610349578063a457c2d71461035157610137565b8063313ce567116100ff578063313ce5671461026f578063395093511461028d57806340c10f19146102b9578063458a7c36146102e757806363878f16146102ef57610137565b806306fdde031461013c578063095ea7b3146101b957806318160ddd146101f957806323b872dd14610213578063309ef25214610249575b600080fd5b61014461040c565b6040805160208082528351818301528351919283929083019185019080838360005b8381101561017e578181015183820152602001610166565b50505050905090810190601f1680156101ab5780820380516001836020036101000a031916815260200191505b509250505060405180910390f35b6101e5600480360360408110156101cf57600080fd5b506001600160a01b0381351690602001356104a2565b604080519115158252519081900360200190f35b6102016104bf565b60408051918252519081900360200190f35b6101e56004803603606081101561022957600080fd5b506001600160a01b038135811691602081013590911690604001356104c5565b6102016004803603602081101561025f57600080fd5b50356001600160a01b031661054c565b61027761055e565b6040805160ff9092168252519081900360200190f35b6101e5600480360360408110156102a357600080fd5b506001600160a01b038135169060200135610567565b6102e5600480360360408110156102cf57600080fd5b506001600160a01b0381351690602001356105b5565b005b61020161061b565b6102f7610621565b604080516001600160a01b039092168252519081900360200190f35b6102016004803603602081101561032957600080fd5b50356001600160a01b0316610630565b6102e561064b565b6101446106af565b6101e5610710565b6101e56004803603604081101561036757600080fd5b506001600160a01b038135169060200135610719565b6101e56004803603604081101561039357600080fd5b506001600160a01b038135169060200135610781565b610201610795565b6102e561079b565b6102e5600480360360208110156103cf57600080fd5b5035610802565b610201600480360360408110156103ec57600080fd5b506001600160a01b038135811691602001351661085f565b6102e561088a565b60068054604080516020601f60026000196101006001881615020190951694909404938401819004810282018101909252828152606093909290918301828280156104985780601f1061046d57610100808354040283529160200191610498565b820191906000526020600020905b81548152906001019060200180831161047b57829003601f168201915b5050505050905090565b60006104b66104af61095d565b8484610961565b50600192915050565b60055490565b60006104d2848484610a4d565b610542846104de61095d565b61053d85604051806060016040528060288152602001610e2b602891396001600160a01b038a166000908152600a602052604081209061051c61095d565b6001600160a01b031681526020810191909152604001600020549190610baa565b610961565b5060019392505050565b60046020526000908152604090205481565b60085460ff1690565b60006104b661057461095d565b8461053d85600a600061058561095d565b6001600160a01b03908116825260208083019390935260409182016000908120918c168152925290205490610c41565b6001546001600160a01b0316331461060d576040805162461bcd60e51b81526020600482015260166024820152752330bab1b2ba2a37b5b2b71d103337b93134b23232b760511b604482015290519081900360640190fd5b6106178282610ca2565b5050565b60025481565b6001546001600160a01b031681565b6001600160a01b031660009081526009602052604090205490565b6001546001600160a01b031633146106a3576040805162461bcd60e51b81526020600482015260166024820152752330bab1b2ba2a37b5b2b71d103337b93134b23232b760511b604482015290519081900360640190fd5b6003805460ff19169055565b60078054604080516020601f60026000196101006001881615020190951694909404938401819004810282018101909252828152606093909290918301828280156104985780601f1061046d57610100808354040283529160200191610498565b60035460ff1681565b60006104b661072661095d565b8461053d85604051806060016040528060258152602001610e9c60259139600a600061075061095d565b6001600160a01b03908116825260208083019390935260409182016000908120918d16815292529020549190610baa565b60006104b661078e61095d565b8484610a4d565b60005481565b6001546001600160a01b031633146107f3576040805162461bcd60e51b81526020600482015260166024820152752330bab1b2ba2a37b5b2b71d103337b93134b23232b760511b604482015290519081900360640190fd5b6003805460ff19166001179055565b6001546001600160a01b0316331461085a576040805162461bcd60e51b81526020600482015260166024820152752330bab1b2ba2a37b5b2b71d103337b93134b23232b760511b604482015290519081900360640190fd5b600255565b6001600160a01b039182166000908152600a6020908152604080832093909416825291909152205490565b60035460ff166108e1576040805162461bcd60e51b815260206004820152601f60248201527f466175636574546f6b656e3a20666175636574206e6f7420656e61626c656400604482015290519081900360640190fd5b60008054338252600460205260409091205442916108ff9190610c41565b111561093c5760405162461bcd60e51b8152600401808060200182810382526026815260200180610ddf6026913960400191505060405180910390fd5b33600081815260046020526040902042905560025461095b9190610ca2565b565b3390565b6001600160a01b0383166109a65760405162461bcd60e51b8152600401808060200182810382526024815260200180610e786024913960400191505060405180910390fd5b6001600160a01b0382166109eb5760405162461bcd60e51b8152600401808060200182810382526022815260200180610dbd6022913960400191505060405180910390fd5b6001600160a01b038084166000818152600a6020908152604080832094871680845294825291829020859055815185815291517f8c5be1e5ebec7d5bd14f71427d1e84f3dd0314c0f7b2291e5b200ac8c7c3b9259281900390910190a3505050565b6001600160a01b038316610a925760405162461bcd60e51b8152600401808060200182810382526025815260200180610e536025913960400191505060405180910390fd5b6001600160a01b038216610ad75760405162461bcd60e51b8152600401808060200182810382526023815260200180610d9a6023913960400191505060405180910390fd5b610ae2838383610d94565b610b1f81604051806060016040528060268152602001610e05602691396001600160a01b0386166000908152600960205260409020549190610baa565b6001600160a01b038085166000908152600960205260408082209390935590841681522054610b4e9082610c41565b6001600160a01b0380841660008181526009602090815260409182902094909455805185815290519193928716927fddf252ad1be2c89b69c2b068fc378daa952ba7f163c4a11628f55a4df523b3ef92918290030190a3505050565b60008184841115610c395760405162461bcd60e51b81526004018080602001828103825283818151815260200191508051906020019080838360005b83811015610bfe578181015183820152602001610be6565b50505050905090810190601f168015610c2b5780820380516001836020036101000a031916815260200191505b509250505060405180910390fd5b505050900390565b600082820183811015610c9b576040805162461bcd60e51b815260206004820152601b60248201527f536166654d6174683a206164646974696f6e206f766572666c6f770000000000604482015290519081900360640190fd5b9392505050565b6001600160a01b038216610cfd576040805162461bcd60e51b815260206004820152601f60248201527f45524332303a206d696e7420746f20746865207a65726f206164647265737300604482015290519081900360640190fd5b610d0960008383610d94565b600554610d169082610c41565b6005556001600160a01b038216600090815260096020526040902054610d3c9082610c41565b6001600160a01b03831660008181526009602090815260408083209490945583518581529351929391927fddf252ad1be2c89b69c2b068fc378daa952ba7f163c4a11628f55a4df523b3ef9281900390910190a35050565b50505056fe45524332303a207472616e7366657220746f20746865207a65726f206164647265737345524332303a20617070726f766520746f20746865207a65726f2061646472657373466175636574546f6b656e3a2064726f706c6574206e6f7420617661696c61626c652079657445524332303a207472616e7366657220616d6f756e7420657863656564732062616c616e636545524332303a207472616e7366657220616d6f756e74206578636565647320616c6c6f77616e636545524332303a207472616e736665722066726f6d20746865207a65726f206164647265737345524332303a20617070726f76652066726f6d20746865207a65726f206164647265737345524332303a2064656372656173656420616c6c6f77616e63652062656c6f77207a65726fa2646970667358221220df3b048be6d933e8f0b5dca487aded90b041889c2e18e00529a0f9e2c49d38c364736f6c634300060c0033","linkReferences":{}},"methodIdentifiers":{"DROPLET_INTERVAL()":"bd136448","_claimedAt(address)":"309ef252","_dropletAmount()":"458a7c36","_gov()":"63878f16","_isFaucetEnabled()":"a1c2fb0c","allowance(address,address)":"dd62ed3e","approve(address,uint256)":"095ea7b3","balanceOf(address)":"70a08231","claimDroplet()":"e6511743","decimals()":"313ce567","decreaseAllowance(address,uint256)":"a457c2d7","disableFaucet()":"944d3c2a","enableFaucet()":"c7c7dee5","increaseAllowance(address,uint256)":"39509351","mint(address,uint256)":"40c10f19","name()":"06fdde03","setDropletAmount(uint256)":"d08f8b3f","symbol()":"95d89b41","totalSupply()":"18160ddd","transfer(address,uint256)":"a9059cbb","transferFrom(address,address,uint256)":"23b872dd"},"id":180}