{"abi":[{"type":"constructor","inputs":[],"stateMutability":"nonpayable"},{"type":"function","name":"aggregator","inputs":[],"outputs":[{"name":"","type":"address","internalType":"address"}],"stateMutability":"view"},{"type":"function","name":"answer","inputs":[],"outputs":[{"name":"","type":"int256","internalType":"int256"}],"stateMutability":"view"},{"type":"function","name":"answers","inputs":[{"name":"","type":"uint80","internalType":"uint80"}],"outputs":[{"name":"","type":"int256","internalType":"int256"}],"stateMutability":"view"},{"type":"function","name":"decimals","inputs":[],"outputs":[{"name":"","type":"uint256","internalType":"uint256"}],"stateMutability":"view"},{"type":"function","name":"description","inputs":[],"outputs":[{"name":"","type":"string","internalType":"string"}],"stateMutability":"view"},{"type":"function","name":"getRoundData","inputs":[{"name":"_roundId","type":"uint80","internalType":"uint80"}],"outputs":[{"name":"","type":"uint80","internalType":"uint80"},{"name":"","type":"int256","internalType":"int256"},{"name":"","type":"uint256","internalType":"uint256"},{"name":"","type":"uint256","internalType":"uint256"},{"name":"","type":"uint80","internalType":"uint80"}],"stateMutability":"view"},{"type":"function","name":"gov","inputs":[],"outputs":[{"name":"","type":"address","internalType":"address"}],"stateMutability":"view"},{"type":"function","name":"isAdmin","inputs":[{"name":"","type":"address","internalType":"address"}],"outputs":[{"name":"","type":"bool","internalType":"bool"}],"stateMutability":"view"},{"type":"function","name":"latestAnswer","inputs":[],"outputs":[{"name":"","type":"int256","internalType":"int256"}],"stateMutability":"view"},{"type":"function","name":"latestRound","inputs":[],"outputs":[{"name":"","type":"uint80","internalType":"uint80"}],"stateMutability":"view"},{"type":"function","name":"roundId","inputs":[],"outputs":[{"name":"","type":"uint80","internalType":"uint80"}],"stateMutability":"view"},{"type":"function","name":"setAdmin","inputs":[{"name":"_account","type":"address","internalType":"address"},{"name":"_isAdmin","type":"bool","internalType":"bool"}],"outputs":[],"stateMutability":"nonpayable"},{"type":"function","name":"setLatestAnswer","inputs":[{"name":"_answer","type":"int256","internalType":"int256"}],"outputs":[],"stateMutability":"nonpayable"}],"bytecode":{"object":"0x60c06040526009608081905268141c9a58d95199595960ba1b60a090815261002a916002919061006b565b5034801561003757600080fd5b50600580546001600160a01b031916339081179091556000908152600760205260409020805460ff191660011790556100fe565b828054600181600116156101000203166002900490600052602060002090601f016020900481019282601f106100ac57805160ff19168380011785556100d9565b828001600101855582156100d9579182015b828111156100d95782518255916020019190600101906100be565b506100e59291506100e9565b5090565b5b808211156100e557600081556001016100ea565b6105588061010d6000396000f3fe608060405234801561001057600080fd5b50600436106100cf5760003560e01c80634c295ca31161008c5780637284e416116100665780637284e416146101f357806385bb7d69146102705780638cd221c9146102785780639a6fc8f514610280576100cf565b80634c295ca3146101a157806350d25bcd146101c7578063668a0f02146101cf576100cf565b806304ea97b0146100d457806312d43a51146100f3578063245a7bfc1461011757806324d7806c1461011f578063313ce567146101595780634b0bddd214610173575b600080fd5b6100f1600480360360208110156100ea57600080fd5b50356102ea565b005b6100fb610380565b604080516001600160a01b039092168252519081900360200190f35b6100fb61038f565b6101456004803603602081101561013557600080fd5b50356001600160a01b031661039e565b604080519115158252519081900360200190f35b6101616103b3565b60408051918252519081900360200190f35b6100f16004803603604081101561018957600080fd5b506001600160a01b03813516906020013515156103b9565b610161600480360360208110156101b757600080fd5b50356001600160501b031661043a565b61016161044c565b6101d7610452565b604080516001600160501b039092168252519081900360200190f35b6101fb610461565b6040805160208082528351818301528351919283929083019185019080838360005b8381101561023557818101518382015260200161021d565b50505050905090810190601f1680156102625780820380516001836020036101000a031916815260200191505b509250505060405180910390f35b6101616104ec565b6101d76104f2565b6102a66004803603602081101561029657600080fd5b50356001600160501b0316610501565b60405180866001600160501b03168152602001858152602001848152602001838152602001826001600160501b031681526020019550505050505060405180910390f35b3360009081526007602052604090205460ff16610345576040805162461bcd60e51b8152602060048201526014602482015273283934b1b2a332b2b21d103337b93134b23232b760611b604482015290519081900360640190fd5b6001805469ffffffffffffffffffff1981166001600160501b0391821683018216179182905560008381559116815260066020526040902055565b6005546001600160a01b031681565b6003546001600160a01b031681565b60076020526000908152604090205460ff1681565b60045481565b6005546001600160a01b0316331461040f576040805162461bcd60e51b8152602060048201526014602482015273283934b1b2a332b2b21d103337b93134b23232b760611b604482015290519081900360640190fd5b6001600160a01b03919091166000908152600760205260409020805460ff1916911515919091179055565b60066020526000908152604090205481565b60005490565b6001546001600160501b031690565b6002805460408051602060018416156101000260001901909316849004601f810184900484028201840190925281815292918301828280156104e45780601f106104b9576101008083540402835291602001916104e4565b820191906000526020600020905b8154815290600101906020018083116104c757829003601f168201915b505050505081565b60005481565b6001546001600160501b031681565b6001600160501b03811660009081526006602052604081205491928190819056fea2646970667358221220a80a575abe58936323631676b3d1f1f09a35c8002fc9b9e5737e0e08c240841164736f6c634300060c0033","linkReferences":{}},"methodIdentifiers":{"aggregator()":"245a7bfc","answer()":"85bb7d69","answers(uint80)":"4c295ca3","decimals()":"313ce567","description()":"7284e416","getRoundData(uint80)":"9a6fc8f5","gov()":"12d43a51","isAdmin(address)":"24d7806c","latestAnswer()":"50d25bcd","latestRound()":"668a0f02","roundId()":"8cd221c9","setAdmin(address,bool)":"4b0bddd2","setLatestAnswer(int256)":"04ea97b0"},"id":140}