{"abi":[{"type":"constructor","inputs":[{"name":"_priceDuration","type":"uint256","internalType":"uint256"},{"name":"_maxPriceUpdateDelay","type":"uint256","internalType":"uint256"},{"name":"_minBlockInterval","type":"uint256","internalType":"uint256"},{"name":"_maxDeviationBasisPoints","type":"uint256","internalType":"uint256"},{"name":"_fastPriceEvents","type":"address","internalType":"address"},{"name":"_tokenManager","type":"address","internalType":"address"},{"name":"_positionRouter","type":"address","internalType":"address"}],"stateMutability":"nonpayable"},{"type":"function","name":"BASIS_POINTS_DIVISOR","inputs":[],"outputs":[{"name":"","type":"uint256","internalType":"uint256"}],"stateMutability":"view"},{"type":"function","name":"BITMASK_32","inputs":[],"outputs":[{"name":"","type":"uint256","internalType":"uint256"}],"stateMutability":"view"},{"type":"function","name":"CUMULATIVE_DELTA_PRECISION","inputs":[],"outputs":[{"name":"","type":"uint256","internalType":"uint256"}],"stateMutability":"view"},{"type":"function","name":"MAX_CUMULATIVE_FAST_DELTA","inputs":[],"outputs":[{"name":"","type":"uint256","internalType":"uint256"}],"stateMutability":"view"},{"type":"function","name":"MAX_CUMULATIVE_REF_DELTA","inputs":[],"outputs":[{"name":"","type":"uint256","internalType":"uint256"}],"stateMutability":"view"},{"type":"function","name":"MAX_PRICE_DURATION","inputs":[],"outputs":[{"name":"","type":"uint256","internalType":"uint256"}],"stateMutability":"view"},{"type":"function","name":"MAX_REF_PRICE","inputs":[],"outputs":[{"name":"","type":"uint256","internalType":"uint256"}],"stateMutability":"view"},{"type":"function","name":"PRICE_PRECISION","inputs":[],"outputs":[{"name":"","type":"uint256","internalType":"uint256"}],"stateMutability":"view"},{"type":"function","name":"disableFastPrice","inputs":[],"outputs":[],"stateMutability":"nonpayable"},{"type":"function","name":"disableFastPriceVoteCount","inputs":[],"outputs":[{"name":"","type":"uint256","internalType":"uint256"}],"stateMutability":"view"},{"type":"function","name":"disableFastPriceVotes","inputs":[{"name":"","type":"address","internalType":"address"}],"outputs":[{"name":"","type":"bool","internalType":"bool"}],"stateMutability":"view"},{"type":"function","name":"enableFastPrice","inputs":[],"outputs":[],"stateMutability":"nonpayable"},{"type":"function","name":"fastPriceEvents","inputs":[],"outputs":[{"name":"","type":"address","internalType":"address"}],"stateMutability":"view"},{"type":"function","name":"favorFastPrice","inputs":[{"name":"_token","type":"address","internalType":"address"}],"outputs":[{"name":"","type":"bool","internalType":"bool"}],"stateMutability":"view"},{"type":"function","name":"getPrice","inputs":[{"name":"_token","type":"address","internalType":"address"},{"name":"_refPrice","type":"uint256","internalType":"uint256"},{"name":"_maximise","type":"bool","internalType":"bool"}],"outputs":[{"name":"","type":"uint256","internalType":"uint256"}],"stateMutability":"view"},{"type":"function","name":"getPriceData","inputs":[{"name":"_token","type":"address","internalType":"address"}],"outputs":[{"name":"","type":"uint256","internalType":"uint256"},{"name":"","type":"uint256","internalType":"uint256"},{"name":"","type":"uint256","internalType":"uint256"},{"name":"","type":"uint256","internalType":"uint256"}],"stateMutability":"view"},{"type":"function","name":"gov","inputs":[],"outputs":[{"name":"","type":"address","internalType":"address"}],"stateMutability":"view"},{"type":"function","name":"initialize","inputs":[{"name":"_minAuthorizations","type":"uint256","internalType":"uint256"},{"name":"_signers","type":"address[]","internalType":"address[]"},{"name":"_updaters","type":"address[]","internalType":"address[]"}],"outputs":[],"stateMutability":"nonpayable"},{"type":"function","name":"isInitialized","inputs":[],"outputs":[{"name":"","type":"bool","internalType":"bool"}],"stateMutability":"view"},{"type":"function","name":"isSigner","inputs":[{"name":"","type":"address","internalType":"address"}],"outputs":[{"name":"","type":"bool","internalType":"bool"}],"stateMutability":"view"},{"type":"function","name":"isSpreadEnabled","inputs":[],"outputs":[{"name":"","type":"bool","internalType":"bool"}],"stateMutability":"view"},{"type":"function","name":"isUpdater","inputs":[{"name":"","type":"address","internalType":"address"}],"outputs":[{"name":"","type":"bool","internalType":"bool"}],"stateMutability":"view"},{"type":"function","name":"lastUpdatedAt","inputs":[],"outputs":[{"name":"","type":"uint256","internalType":"uint256"}],"stateMutability":"view"},{"type":"function","name":"lastUpdatedBlock","inputs":[],"outputs":[{"name":"","type":"uint256","internalType":"uint256"}],"stateMutability":"view"},{"type":"function","name":"maxCumulativeDeltaDiffs","inputs":[{"name":"","type":"address","internalType":"address"}],"outputs":[{"name":"","type":"uint256","internalType":"uint256"}],"stateMutability":"view"},{"type":"function","name":"maxDeviationBasisPoints","inputs":[],"outputs":[{"name":"","type":"uint256","internalType":"uint256"}],"stateMutability":"view"},{"type":"function","name":"maxPriceUpdateDelay","inputs":[],"outputs":[{"name":"","type":"uint256","internalType":"uint256"}],"stateMutability":"view"},{"type":"function","name":"maxTimeDeviation","inputs":[],"outputs":[{"name":"","type":"uint256","internalType":"uint256"}],"stateMutability":"view"},{"type":"function","name":"minAuthorizations","inputs":[],"outputs":[{"name":"","type":"uint256","internalType":"uint256"}],"stateMutability":"view"},{"type":"function","name":"minBlockInterval","inputs":[],"outputs":[{"name":"","type":"uint256","internalType":"uint256"}],"stateMutability":"view"},{"type":"function","name":"positionRouter","inputs":[],"outputs":[{"name":"","type":"address","internalType":"address"}],"stateMutability":"view"},{"type":"function","name":"priceData","inputs":[{"name":"","type":"address","internalType":"address"}],"outputs":[{"name":"refPrice","type":"uint160","internalType":"uint160"},{"name":"refTime","type":"uint32","internalType":"uint32"},{"name":"cumulativeRefDelta","type":"uint32","internalType":"uint32"},{"name":"cumulativeFastDelta","type":"uint32","internalType":"uint32"}],"stateMutability":"view"},{"type":"function","name":"priceDataInterval","inputs":[],"outputs":[{"name":"","type":"uint256","internalType":"uint256"}],"stateMutability":"view"},{"type":"function","name":"priceDuration","inputs":[],"outputs":[{"name":"","type":"uint256","internalType":"uint256"}],"stateMutability":"view"},{"type":"function","name":"prices","inputs":[{"name":"","type":"address","internalType":"address"}],"outputs":[{"name":"","type":"uint256","internalType":"uint256"}],"stateMutability":"view"},{"type":"function","name":"setCompactedPrices","inputs":[{"name":"_priceBitArray","type":"uint256[]","internalType":"uint256[]"},{"name":"_timestamp","type":"uint256","internalType":"uint256"}],"outputs":[],"stateMutability":"nonpayable"},{"type":"function","name":"setFastPriceEvents","inputs":[{"name":"_fastPriceEvents","type":"address","internalType":"address"}],"outputs":[],"stateMutability":"nonpayable"},{"type":"function","name":"setGov","inputs":[{"name":"_gov","type":"address","internalType":"address"}],"outputs":[],"stateMutability":"nonpayable"},{"type":"function","name":"setIsSpreadEnabled","inputs":[{"name":"_isSpreadEnabled","type":"bool","internalType":"bool"}],"outputs":[],"stateMutability":"nonpayable"},{"type":"function","name":"setLastUpdatedAt","inputs":[{"name":"_lastUpdatedAt","type":"uint256","internalType":"uint256"}],"outputs":[],"stateMutability":"nonpayable"},{"type":"function","name":"setMaxCumulativeDeltaDiffs","inputs":[{"name":"_tokens","type":"address[]","internalType":"address[]"},{"name":"_maxCumulativeDeltaDiffs","type":"uint256[]","internalType":"uint256[]"}],"outputs":[],"stateMutability":"nonpayable"},{"type":"function","name":"setMaxDeviationBasisPoints","inputs":[{"name":"_maxDeviationBasisPoints","type":"uint256","internalType":"uint256"}],"outputs":[],"stateMutability":"nonpayable"},{"type":"function","name":"setMaxPriceUpdateDelay","inputs":[{"name":"_maxPriceUpdateDelay","type":"uint256","internalType":"uint256"}],"outputs":[],"stateMutability":"nonpayable"},{"type":"function","name":"setMaxTimeDeviation","inputs":[{"name":"_maxTimeDeviation","type":"uint256","internalType":"uint256"}],"outputs":[],"stateMutability":"nonpayable"},{"type":"function","name":"setMinAuthorizations","inputs":[{"name":"_minAuthorizations","type":"uint256","internalType":"uint256"}],"outputs":[],"stateMutability":"nonpayable"},{"type":"function","name":"setMinBlockInterval","inputs":[{"name":"_minBlockInterval","type":"uint256","internalType":"uint256"}],"outputs":[],"stateMutability":"nonpayable"},{"type":"function","name":"setPriceDataInterval","inputs":[{"name":"_priceDataInterval","type":"uint256","internalType":"uint256"}],"outputs":[],"stateMutability":"nonpayable"},{"type":"function","name":"setPriceDuration","inputs":[{"name":"_priceDuration","type":"uint256","internalType":"uint256"}],"outputs":[],"stateMutability":"nonpayable"},{"type":"function","name":"setPrices","inputs":[{"name":"_tokens","type":"address[]","internalType":"address[]"},{"name":"_prices","type":"uint256[]","internalType":"uint256[]"},{"name":"_timestamp","type":"uint256","internalType":"uint256"}],"outputs":[],"stateMutability":"nonpayable"},{"type":"function","name":"setPricesWithBits","inputs":[{"name":"_priceBits","type":"uint256","internalType":"uint256"},{"name":"_timestamp","type":"uint256","internalType":"uint256"}],"outputs":[],"stateMutability":"nonpayable"},{"type":"function","name":"setPricesWithBitsAndExecute","inputs":[{"name":"_priceBits","type":"uint256","internalType":"uint256"},{"name":"_timestamp","type":"uint256","internalType":"uint256"},{"name":"_endIndexForIncreasePositions","type":"uint256","internalType":"uint256"},{"name":"_endIndexForDecreasePositions","type":"uint256","internalType":"uint256"},{"name":"_maxIncreasePositions","type":"uint256","internalType":"uint256"},{"name":"_maxDecreasePositions","type":"uint256","internalType":"uint256"}],"outputs":[],"stateMutability":"nonpayable"},{"type":"function","name":"setSigner","inputs":[{"name":"_account","type":"address","internalType":"address"},{"name":"_isActive","type":"bool","internalType":"bool"}],"outputs":[],"stateMutability":"nonpayable"},{"type":"function","name":"setSpreadBasisPointsIfChainError","inputs":[{"name":"_spreadBasisPointsIfChainError","type":"uint256","internalType":"uint256"}],"outputs":[],"stateMutability":"nonpayable"},{"type":"function","name":"setSpreadBasisPointsIfInactive","inputs":[{"name":"_spreadBasisPointsIfInactive","type":"uint256","internalType":"uint256"}],"outputs":[],"stateMutability":"nonpayable"},{"type":"function","name":"setTokenManager","inputs":[{"name":"_tokenManager","type":"address","internalType":"address"}],"outputs":[],"stateMutability":"nonpayable"},{"type":"function","name":"setTokens","inputs":[{"name":"_tokens","type":"address[]","internalType":"address[]"},{"name":"_tokenPrecisions","type":"uint256[]","internalType":"uint256[]"}],"outputs":[],"stateMutability":"nonpayable"},{"type":"function","name":"setUpdater","inputs":[{"name":"_account","type":"address","internalType":"address"},{"name":"_isActive","type":"bool","internalType":"bool"}],"outputs":[],"stateMutability":"nonpayable"},{"type":"function","name":"setVaultPriceFeed","inputs":[{"name":"_vaultPriceFeed","type":"address","internalType":"address"}],"outputs":[],"stateMutability":"nonpayable"},{"type":"function","name":"spreadBasisPointsIfChainError","inputs":[],"outputs":[{"name":"","type":"uint256","internalType":"uint256"}],"stateMutability":"view"},{"type":"function","name":"spreadBasisPointsIfInactive","inputs":[],"outputs":[{"name":"","type":"uint256","internalType":"uint256"}],"stateMutability":"view"},{"type":"function","name":"tokenManager","inputs":[],"outputs":[{"name":"","type":"address","internalType":"address"}],"stateMutability":"view"},{"type":"function","name":"tokenPrecisions","inputs":[{"name":"","type":"uint256","internalType":"uint256"}],"outputs":[{"name":"","type":"uint256","internalType":"uint256"}],"stateMutability":"view"},{"type":"function","name":"tokens","inputs":[{"name":"","type":"uint256","internalType":"uint256"}],"outputs":[{"name":"","type":"address","internalType":"address"}],"stateMutability":"view"},{"type":"function","name":"vaultPriceFeed","inputs":[],"outputs":[{"name":"","type":"address","internalType":"address"}],"stateMutability":"view"},{"type":"event","name":"DisableFastPrice","inputs":[{"name":"signer","type":"address","indexed":false,"internalType":"address"}],"anonymous":false},{"type":"event","name":"EnableFastPrice","inputs":[{"name":"signer","type":"address","indexed":false,"internalType":"address"}],"anonymous":false},{"type":"event","name":"MaxCumulativeDeltaDiffExceeded","inputs":[{"name":"token","type":"address","indexed":false,"internalType":"address"},{"name":"refPrice","type":"uint256","indexed":false,"internalType":"uint256"},{"name":"fastPrice","type":"uint256","indexed":false,"internalType":"uint256"},{"name":"cumulativeRefDelta","type":"uint256","indexed":false,"internalType":"uint256"},{"name":"cumulativeFastDelta","type":"uint256","indexed":false,"internalType":"uint256"}],"anonymous":false},{"type":"event","name":"PriceData","inputs":[{"name":"token","type":"address","indexed":false,"internalType":"address"},{"name":"refPrice","type":"uint256","indexed":false,"internalType":"uint256"},{"name":"fastPrice","type":"uint256","indexed":false,"internalType":"uint256"},{"name":"cumulativeRefDelta","type":"uint256","indexed":false,"internalType":"uint256"},{"name":"cumulativeFastDelta","type":"uint256","indexed":false,"internalType":"uint256"}],"anonymous":false}],"bytecode":{"object":"0x60806040526000805460ff60a81b1916815560105534801561002057600080fd5b506040516200302538038062003025833981810160405260e081101561004557600080fd5b508051602082015160408301516060840151608085015160a086015160c090960151600080546001600160a01b0319163317905594959394929391929091906107088711156100c65760405162461bcd60e51b8152600401808060200182810382526025815260200180620030006025913960400191505060405180910390fd5b600796909655600894909455600b92909255600e55600280546001600160a01b039283166001600160a01b031991821617909155600380549383169382169390931790925560048054919093169116179055612ed880620001286000396000f3fe608060405234801561001057600080fd5b50600436106103d05760003560e01c806372279ba1116101ff578063b3606b561161011a578063d6a153f1116100ad578063e64559ad1161007c578063e64559ad14610e98578063e68a22c014610ea0578063eeaa783a14610ea8578063f90ce5ba14610eb0576103d0565b8063d6a153f114610e39578063d925351a14610e56578063de0d1b9414610e73578063dfb481c914610e90576103d0565b8063cab44b76116100e9578063cab44b7614610d70578063ce98dfa814610dce578063cfad57a214610ded578063cfed246b14610e13576103d0565b8063b3606b5614610c20578063b70c7b7014610c28578063c8390a4814610c45578063c84a912414610d68576103d0565b8063807c978211610192578063a2b47c1611610161578063a2b47c1614610be2578063a374242514610bea578063a6eca89614610c10578063b0a2566614610c18576103d0565b8063807c9782146104ce57806382553aad14610ba05780638b7677f414610bbd57806395082d2514610bda576103d0565b80637cb2b79c116101ce5780637cb2b79c146109f65780637df73e2714610a1c5780637fbc79c614610a425780637fece36814610b6c576103d0565b806372279ba11461086057806374bfed89146108ac578063776d16c1146108b4578063782661bc146108d1576103d0565b8063392e53cd116102ef57806354aea12711610282578063695d418411610251578063695d4184146108225780636c56fd051461082a5780636ccd47c414610850578063715c753614610858576103d0565b806354aea127146107cf578063574ec1be146107d757806361ef161f14610812578063668d3d651461081a576103d0565b80634c0e31c8116102be5780634c0e31c81461064c5780634d11fb4a1461076f5780634f64b2be1461078c5780634fdfb086146107a9576103d0565b8063392e53cd1461061f5780633aa08f861461062757806344c231931461062f5780634bd66c1c146104ce576103d0565b8063162ac4e011610367578063287800c911610336578063287800c9146105c45780632a709b14146105cc5780632e9cd94b146105d457806331cb6105146105f1576103d0565b8063162ac4e01461052757806317835d1c1461054d5780631a15339114610570578063238aafb71461059e576103d0565b80630e9272ea116103a35780630e9272ea146104d6578063126082cf146104fa57806312d43a511461050257806314dd2dce1461050a576103d0565b806303b04936146103d557806303cd25711461040f57806303f4d7dc146104295780630604ddea146104ce575b600080fd5b6103fb600480360360208110156103eb57600080fd5b50356001600160a01b0316610eb8565b604080519115158252519081900360200190f35b610417610ecd565b60408051918252519081900360200190f35b6104cc6004803603604081101561043f57600080fd5b810190602081018135600160201b81111561045957600080fd5b82018360208201111561046b57600080fd5b803590602001918460208302840111600160201b8311171561048c57600080fd5b9190808060200260200160405190810160405280939291908181526020018383602002808284376000920191909152509295505091359250610ed3915050565b005b61041761104b565b6104de611053565b604080516001600160a01b039092168252519081900360200190f35b610417611062565b6104de611068565b6104cc6004803603602081101561052057600080fd5b5035611077565b6104cc6004803603602081101561053d57600080fd5b50356001600160a01b03166110c9565b6104cc6004803603604081101561056357600080fd5b5080359060200135611138565b6104cc6004803603604081101561058657600080fd5b506001600160a01b0381351690602001351515611194565b6104cc600480360360208110156105b457600080fd5b50356001600160a01b031661120c565b61041761127b565b6104de611281565b6104cc600480360360208110156105ea57600080fd5b5035611290565b6104cc6004803603604081101561060757600080fd5b506001600160a01b03813516906020013515156112e2565b6103fb61135a565b61041761136a565b6104cc6004803603602081101561064557600080fd5b5035611370565b6104cc6004803603604081101561066257600080fd5b810190602081018135600160201b81111561067c57600080fd5b82018360208201111561068e57600080fd5b803590602001918460208302840111600160201b831117156106af57600080fd5b9190808060200260200160405190810160405280939291908181526020018383602002808284376000920191909152509295949360208101935035915050600160201b8111156106fe57600080fd5b82018360208201111561071057600080fd5b803590602001918460208302840111600160201b8311171561073157600080fd5b919080806020026020016040519081016040528093929190818152602001838360200280828437600092019190915250929550611403945050505050565b6104176004803603602081101561078557600080fd5b50356114ae565b6104de600480360360208110156107a257600080fd5b50356114cc565b6103fb600480360360208110156107bf57600080fd5b50356001600160a01b03166114f3565b610417611508565b6104cc600480360360c08110156107ed57600080fd5b5080359060208101359060408101359060608101359060808101359060a0013561150e565b6104de61171d565b61041761172c565b6103fb611732565b6103fb6004803603602081101561084057600080fd5b50356001600160a01b0316611742565b6104cc6117cd565b6104176118e0565b6108866004803603602081101561087657600080fd5b50356001600160a01b03166118e6565b604080519485526020850193909352838301919091526060830152519081900360800190f35b610417611964565b6104cc600480360360208110156108ca57600080fd5b503561196a565b6104cc600480360360608110156108e757600080fd5b810190602081018135600160201b81111561090157600080fd5b82018360208201111561091357600080fd5b803590602001918460208302840111600160201b8311171561093457600080fd5b9190808060200260200160405190810160405280939291908181526020018383602002808284376000920191909152509295949360208101935035915050600160201b81111561098357600080fd5b82018360208201111561099557600080fd5b803590602001918460208302840111600160201b831117156109b657600080fd5b91908080602002602001604051908101604052809392919081815260200183836020028082843760009201919091525092955050913592506119bc915050565b6104cc60048036036020811015610a0c57600080fd5b50356001600160a01b0316611a8a565b6103fb60048036036020811015610a3257600080fd5b50356001600160a01b0316611af9565b6104cc60048036036060811015610a5857600080fd5b81359190810190604081016020820135600160201b811115610a7957600080fd5b820183602082011115610a8b57600080fd5b803590602001918460208302840111600160201b83111715610aac57600080fd5b9190808060200260200160405190810160405280939291908181526020018383602002808284376000920191909152509295949360208101935035915050600160201b811115610afb57600080fd5b820183602082011115610b0d57600080fd5b803590602001918460208302840111600160201b83111715610b2e57600080fd5b919080806020026020016040519081016040528093929190818152602001838360200280828437600092019190915250929550611b0e945050505050565b61041760048036036060811015610b8257600080fd5b506001600160a01b0381351690602081013590604001351515611c67565b6104cc60048036036020811015610bb657600080fd5b5035611ded565b6104cc60048036036020811015610bd357600080fd5b5035611e3f565b610417611e91565b610417611ea2565b61041760048036036020811015610c0057600080fd5b50356001600160a01b0316611ea9565b610417611ebb565b610417611ec1565b610417611ec7565b6104cc60048036036020811015610c3e57600080fd5b5035611ecd565b6104cc60048036036040811015610c5b57600080fd5b810190602081018135600160201b811115610c7557600080fd5b820183602082011115610c8757600080fd5b803590602001918460208302840111600160201b83111715610ca857600080fd5b9190808060200260200160405190810160405280939291908181526020018383602002808284376000920191909152509295949360208101935035915050600160201b811115610cf757600080fd5b820183602082011115610d0957600080fd5b803590602001918460208302840111600160201b83111715610d2a57600080fd5b919080806020026020016040519081016040528093929190818152602001838360200280828437600092019190915250929550611f1f945050505050565b6104cc611fe9565b610d9660048036036020811015610d8657600080fd5b50356001600160a01b0316612101565b604080516001600160a01b03909516855263ffffffff9384166020860152918316848301529091166060830152519081900360800190f35b6104cc60048036036020811015610de457600080fd5b50351515612140565b6104cc60048036036020811015610e0357600080fd5b50356001600160a01b03166121ab565b61041760048036036020811015610e2957600080fd5b50356001600160a01b031661221a565b6104cc60048036036020811015610e4f57600080fd5b503561222c565b6104cc60048036036020811015610e6c57600080fd5b503561227e565b6104cc60048036036020811015610e8957600080fd5b50356122d0565b610417612322565b610417612328565b61041761232e565b6104de612339565b610417612348565b60166020526000908152604090205460ff1681565b60075481565b3360009081526011602052604090205460ff16610f25576040805162461bcd60e51b81526020600482015260186024820152600080516020612d8d833981519152604482015290519081900360640190fd5b6000610f308261234e565b90508015611045576002546001546001600160a01b03918216911660005b8551811015611041576000868281518110610f6557fe5b6020026020010151905060005b600881101561103757601754600884028201908110610f975750505050505050611047565b60178054602084029185831c63ffffffff169160009190600889028701908110610fbd57fe5b6000918252602082200154601880546001600160a01b0390921693509060088a028801908110610fe957fe5b6000918252602082200154915061101782611011866c0c9f2c9cd04674edea4000000061245a565b906124bc565b905061102583828c8e6124fe565b505060019094019350610f7292505050565b5050600101610f4e565b5050505b505b5050565b63ffffffff81565b6002546001600160a01b031681565b61271081565b6000546001600160a01b031681565b6000546001600160a01b031633146110c4576040805162461bcd60e51b81526020600482015260156024820152600080516020612d6d833981519152604482015290519081900360640190fd5b600555565b6000546001600160a01b03163314611116576040805162461bcd60e51b81526020600482015260156024820152600080516020612d6d833981519152604482015290519081900360640190fd5b600280546001600160a01b0319166001600160a01b0392909216919091179055565b3360009081526011602052604090205460ff1661118a576040805162461bcd60e51b81526020600482015260186024820152600080516020612d8d833981519152604482015290519081900360640190fd5b6110478282612793565b6000546001600160a01b031633146111e1576040805162461bcd60e51b81526020600482015260156024820152600080516020612d6d833981519152604482015290519081900360640190fd5b6001600160a01b03919091166000908152601160205260409020805460ff1916911515919091179055565b6000546001600160a01b03163314611259576040805162461bcd60e51b81526020600482015260156024820152600080516020612d6d833981519152604482015290519081900360640190fd5b600180546001600160a01b0319166001600160a01b0392909216919091179055565b600f5481565b6003546001600160a01b031681565b6003546001600160a01b031633146112dd576040805162461bcd60e51b81526020600482015260186024820152600080516020612d8d833981519152604482015290519081900360640190fd5b600d55565b6000546001600160a01b0316331461132f576040805162461bcd60e51b81526020600482015260156024820152600080516020612d6d833981519152604482015290519081900360640190fd5b6001600160a01b03919091166000908152601560205260409020805460ff1916911515919091179055565b600054600160a01b900460ff1681565b600c5481565b6000546001600160a01b031633146113bd576040805162461bcd60e51b81526020600482015260156024820152600080516020612d6d833981519152604482015290519081900360640190fd5b6107088111156113fe5760405162461bcd60e51b8152600401808060200182810382526025815260200180612d1e6025913960400191505060405180910390fd5b600755565b6003546001600160a01b03163314611450576040805162461bcd60e51b81526020600482015260186024820152600080516020612d8d833981519152604482015290519081900360640190fd5b60005b825181101561104557600083828151811061146a57fe5b6020026020010151905082828151811061148057fe5b6020908102919091018101516001600160a01b03909216600090815260149091526040902055600101611453565b601881815481106114bb57fe5b600091825260209091200154905081565b601781815481106114d957fe5b6000918252602090912001546001600160a01b0316905081565b60116020526000908152604090205460ff1681565b60055481565b3360009081526011602052604090205460ff16611560576040805162461bcd60e51b81526020600482015260186024820152600080516020612d8d833981519152604482015290519081900360640190fd5b61156a8686612793565b60048054604080516304dabc3160e51b815290516001600160a01b03909216926000926115ea9287928692639b57862092808301926020929182900301818987803b1580156115b857600080fd5b505af11580156115cc573d6000803e3d6000fd5b505050506040513d60208110156115e257600080fd5b50519061286a565b9050600061162d84846001600160a01b0316631bca8cf06040518163ffffffff1660e01b8152600401602060405180830381600087803b1580156115b857600080fd5b90508187111561163b578196505b80861115611647578095505b60408051629a208160e81b81526004810189905233602482015290516001600160a01b03851691639a20810091604480830192600092919082900301818387803b15801561169457600080fd5b505af11580156116a8573d6000803e3d6000fd5b50506040805163f3883d8b60e01b8152600481018a905233602482015290516001600160a01b038716935063f3883d8b9250604480830192600092919082900301818387803b1580156116fa57600080fd5b505af115801561170e573d6000803e3d6000fd5b50505050505050505050505050565b6004546001600160a01b031681565b61070881565b600054600160a81b900460ff1681565b60008054600160a81b900460ff161561175d575060006117c8565b600f5460105410611770575060006117c8565b60008061177c846118e6565b93509350505081811180156117b157506001600160a01b0384166000908152601460205260409020546117af82846128c4565b115b156117c1576000925050506117c8565b6001925050505b919050565b3360009081526015602052604090205460ff1661181f576040805162461bcd60e51b81526020600482015260186024820152600080516020612d8d833981519152604482015290519081900360640190fd5b3360009081526016602052604090205460ff16611883576040805162461bcd60e51b815260206004820152601e60248201527f466173745072696365466565643a20616c726561647920656e61626c65640000604482015290519081900360640190fd5b336000908152601660205260409020805460ff191690556010546118a89060016128c4565b6010556040805133815290517f9fe0c305c33aa92757a537936872a60be0d91549a4303cc99fd8b7fce8a002759181900360200190a1565b600e5481565b6000806000806118f4612c16565b505050506001600160a01b039182166000908152601360209081526040918290208251608081018452905494851680825263ffffffff600160a01b87048116938301849052600160c01b87048116948301859052600160e01b909604909516606090910181905293949093919250565b60095481565b6000546001600160a01b031633146119b7576040805162461bcd60e51b81526020600482015260156024820152600080516020612d6d833981519152604482015290519081900360640190fd5b600c55565b3360009081526011602052604090205460ff16611a0e576040805162461bcd60e51b81526020600482015260186024820152600080516020612d8d833981519152604482015290519081900360640190fd5b6000611a198261234e565b90508015611a84576002546001546001600160a01b03918216911660005b8651811015611a80576000878281518110611a4e57fe5b60200260200101519050611a7781888481518110611a6857fe5b602002602001015185876124fe565b50600101611a37565b5050505b50505050565b6003546001600160a01b03163314611ad7576040805162461bcd60e51b81526020600482015260186024820152600080516020612d8d833981519152604482015290519081900360640190fd5b600380546001600160a01b0319166001600160a01b0392909216919091179055565b60156020526000908152604090205460ff1681565b6000546001600160a01b03163314611b5b576040805162461bcd60e51b81526020600482015260156024820152600080516020612d6d833981519152604482015290519081900360640190fd5b600054600160a01b900460ff1615611ba45760405162461bcd60e51b8152600401808060200182810382526022815260200180612e816022913960400191505060405180910390fd5b6000805460ff60a01b1916600160a01b178155600f8490555b8251811015611c10576000838281518110611bd457fe5b6020908102919091018101516001600160a01b03166000908152601590915260409020805460ff19166001908117909155919091019050611bbd565b5060005b8151811015611a84576000828281518110611c2b57fe5b6020908102919091018101516001600160a01b03166000908152601190915260409020805460ff19166001908117909155919091019050611c14565b6000611c8060085460055461286a90919063ffffffff16565b421115611cdb578115611cbb57611cb4612710611011611cad600a5461271061286a90919063ffffffff16565b869061245a565b9050611de6565b611cb4612710611011611cad600a546127106128c490919063ffffffff16565b600754600554611cea9161286a565b421115611d37578115611d1757611cb4612710611011611cad60095461271061286a90919063ffffffff16565b611cb4612710611011611cad6009546127106128c490919063ffffffff16565b6001600160a01b03841660009081526012602052604090205480611d5e5783915050611de6565b6000818511611d7657611d7182866128c4565b611d80565b611d8085836128c4565b9050611d92856110118361271061245a565b90506000611d9f87611742565b1580611dac5750600e5482115b90508015611de0578415611dd357828611611dc75782611dc9565b855b9350505050611de6565b828610611dc75782611dc9565b50909150505b9392505050565b6003546001600160a01b03163314611e3a576040805162461bcd60e51b81526020600482015260186024820152600080516020612d8d833981519152604482015290519081900360640190fd5b600e55565b6000546001600160a01b03163314611e8c576040805162461bcd60e51b81526020600482015260156024820152600080516020612d6d833981519152604482015290519081900360640190fd5b600855565b6c0c9f2c9cd04674edea4000000081565b6298968081565b60146020526000908152604090205481565b600a5481565b60105481565b600b5481565b6000546001600160a01b03163314611f1a576040805162461bcd60e51b81526020600482015260156024820152600080516020612d6d833981519152604482015290519081900360640190fd5b600955565b6000546001600160a01b03163314611f6c576040805162461bcd60e51b81526020600482015260156024820152600080516020612d6d833981519152604482015290519081900360640190fd5b8051825114611fc2576040805162461bcd60e51b815260206004820152601e60248201527f466173745072696365466565643a20696e76616c6964206c656e677468730000604482015290519081900360640190fd5b8151611fd5906017906020850190612c3d565b508051611045906018906020840190612ca2565b3360009081526015602052604090205460ff1661203b576040805162461bcd60e51b81526020600482015260186024820152600080516020612d8d833981519152604482015290519081900360640190fd5b3360009081526016602052604090205460ff16156120a0576040805162461bcd60e51b815260206004820152601c60248201527f466173745072696365466565643a20616c726561647920766f74656400000000604482015290519081900360640190fd5b336000908152601660205260409020805460ff191660019081179091556010546120c99161286a565b6010556040805133815290517f4c0c5fabf50e808e3bc8d19577d305e3a7163eea7e8a74a50caa8896694cd44b9181900360200190a1565b6013602052600090815260409020546001600160a01b0381169063ffffffff600160a01b8204811691600160c01b8104821691600160e01b9091041684565b6000546001600160a01b0316331461218d576040805162461bcd60e51b81526020600482015260156024820152600080516020612d6d833981519152604482015290519081900360640190fd5b60008054911515600160a81b0260ff60a81b19909216919091179055565b6000546001600160a01b031633146121f8576040805162461bcd60e51b81526020600482015260156024820152600080516020612d6d833981519152604482015290519081900360640190fd5b600080546001600160a01b0319166001600160a01b0392909216919091179055565b60126020526000908152604090205481565b6000546001600160a01b03163314612279576040805162461bcd60e51b81526020600482015260156024820152600080516020612d6d833981519152604482015290519081900360640190fd5b600b55565b6003546001600160a01b031633146122cb576040805162461bcd60e51b81526020600482015260186024820152600080516020612d8d833981519152604482015290519081900360640190fd5b600f55565b6000546001600160a01b0316331461231d576040805162461bcd60e51b81526020600482015260156024820152600080516020612d6d833981519152604482015290519081900360640190fd5b600a55565b600d5481565b60085481565b6001600160a01b0381565b6001546001600160a01b031681565b60065481565b600b54600090156123a757600b5460065461236a9043906128c4565b10156123a75760405162461bcd60e51b815260040180806020018281038252602e815260200180612e2a602e913960400191505060405180910390fd5b600c546123b442826128c4565b83116123f15760405162461bcd60e51b815260040180806020018281038252602d815260200180612dfd602d913960400191505060405180910390fd5b6123fb428261286a565b83106124385760405162461bcd60e51b815260040180806020018281038252602f815260200180612dad602f913960400191505060405180910390fd5b60055483101561244c5760009150506117c8565b505060055543600655600190565b600082612469575060006124b6565b8282028284828161247657fe5b04146124b35760405162461bcd60e51b8152600401808060200182810382526021815260200180612ddc6021913960400191505060405180910390fd5b90505b92915050565b60006124b383836040518060400160405280601a81526020017f536166654d6174683a206469766973696f6e206279207a65726f000000000000815250612906565b6001600160a01b0382161561276d576000826001600160a01b03166356bf9de4866040518263ffffffff1660e01b815260040180826001600160a01b0316815260200191505060206040518083038186803b15801561255c57600080fd5b505afa158015612570573d6000803e3d6000fd5b505050506040513d602081101561258657600080fd5b50516001600160a01b0386166000908152601260205260408120549192508080806125b08a6118e6565b935093509350935060008411156126775760008487116125d9576125d485886128c4565b6125e3565b6125e387866128c4565b905060008a87116125fd576125f88b886128c4565b612607565b612607878c6128c4565b905061261e600d54426124bc90919063ffffffff16565b600d5461262c9087906124bc565b1461263a5760009350600092505b61265561264e87611011856298968061245a565b859061286a565b935061267261266b88611011846298968061245a565b849061286a565b925050505b81811180156126a657506001600160a01b038a166000908152601460205260409020546126a482846128c4565b115b1561270357604080516001600160a01b038c16815260208101889052808201879052606081018490526080810183905290517fe582322b389ad06b2bbf619cd6da3f16a288ec873ea0fa6df4d72f3d9480b4479181900360a00190a15b61270f8a8784846129a8565b604080516001600160a01b038c16815260208101889052808201879052606081018490526080810183905290517f23b9387f81fca646aac1dc4487ede045c65f5f7445482906565f01e05afdb3a89181900360a00190a15050505050505b6001600160a01b0384166000908152601260205260409020839055611a84818585612b3e565b600061279e8261234e565b90508015611045576002546001546001600160a01b03918216911660005b600881101561104157601754819081106127da575050505050611047565b60178054602084029189831c63ffffffff169160009190869081106127fb57fe5b6000918252602082200154601880546001600160a01b039092169350908790811061282257fe5b6000918252602082200154915061284a82611011866c0c9f2c9cd04674edea4000000061245a565b905061285883828a8c6124fe565b5050600190940193506127bc92505050565b6000828201838110156124b3576040805162461bcd60e51b815260206004820152601b60248201527f536166654d6174683a206164646974696f6e206f766572666c6f770000000000604482015290519081900360640190fd5b60006124b383836040518060400160405280601e81526020017f536166654d6174683a207375627472616374696f6e206f766572666c6f770000815250612bbc565b600081836129925760405162461bcd60e51b81526004018080602001828103825283818151815260200191508051906020019080838360005b8381101561295757818101518382015260200161293f565b50505050905090810190601f1680156129845780820380516001836020036101000a031916815260200191505b509250505060405180910390fd5b50600083858161299e57fe5b0495945050505050565b6001600160a01b038310612a03576040805162461bcd60e51b815260206004820152601f60248201527f466173745072696365466565643a20696e76616c696420726566507269636500604482015290519081900360640190fd5b63ffffffff8210612a455760405162461bcd60e51b8152600401808060200182810382526029815260200180612e586029913960400191505060405180910390fd5b63ffffffff8110612a875760405162461bcd60e51b815260040180806020018281038252602a815260200180612d43602a913960400191505060405180910390fd5b604080516080810182526001600160a01b03948516815263ffffffff4281166020808401918252958216838501908152948216606084019081529787166000908152601390965292909420905181549251935196518516600160e01b026001600160e01b03978616600160c01b0263ffffffff60c01b1995909616600160a01b0263ffffffff60a01b19929097166001600160a01b0319909416939093171694909417919091169190911792909216919091179055565b6001600160a01b038316612b5157611045565b826001600160a01b031663e0409c7183836040518363ffffffff1660e01b815260040180836001600160a01b0316815260200182815260200192505050600060405180830381600087803b158015612ba857600080fd5b505af1158015611a80573d6000803e3d6000fd5b60008184841115612c0e5760405162461bcd60e51b815260206004820181815283516024840152835190928392604490910191908501908083836000831561295757818101518382015260200161293f565b505050900390565b60408051608081018252600080825260208201819052918101829052606081019190915290565b828054828255906000526020600020908101928215612c92579160200282015b82811115612c9257825182546001600160a01b0319166001600160a01b03909116178255602090920191600190910190612c5d565b50612c9e929150612ce9565b5090565b828054828255906000526020600020908101928215612cdd579160200282015b82811115612cdd578251825591602001919060010190612cc2565b50612c9e929150612d08565b5b80821115612c9e5780546001600160a01b0319168155600101612cea565b5b80821115612c9e5760008155600101612d0956fe466173745072696365466565643a20696e76616c6964205f70726963654475726174696f6e466173745072696365466565643a20696e76616c69642063756d756c61746976654661737444656c7461476f7665726e61626c653a20666f7262696464656e0000000000000000000000466173745072696365466565643a20666f7262696464656e0000000000000000466173745072696365466565643a205f74696d657374616d70206578636565647320616c6c6f7765642072616e6765536166654d6174683a206d756c7469706c69636174696f6e206f766572666c6f77466173745072696365466565643a205f74696d657374616d702062656c6f7720616c6c6f7765642072616e6765466173745072696365466565643a206d696e426c6f636b496e74657276616c206e6f742079657420706173736564466173745072696365466565643a20696e76616c69642063756d756c617469766552656644656c7461466173745072696365466565643a20616c726561647920696e697469616c697a6564a26469706673582212204a59d9d7788c6a1d0ef736ecc57ed2fcdf15d09705cfea4f2a37b49ebfae8f2b64736f6c634300060c0033466173745072696365466565643a20696e76616c6964205f70726963654475726174696f6e","linkReferences":{}},"methodIdentifiers":{"BASIS_POINTS_DIVISOR()":"126082cf","BITMASK_32()":"807c9782","CUMULATIVE_DELTA_PRECISION()":"a2b47c16","MAX_CUMULATIVE_FAST_DELTA()":"4bd66c1c","MAX_CUMULATIVE_REF_DELTA()":"0604ddea","MAX_PRICE_DURATION()":"668d3d65","MAX_REF_PRICE()":"e68a22c0","PRICE_PRECISION()":"95082d25","disableFastPrice()":"c84a9124","disableFastPriceVoteCount()":"b0a25666","disableFastPriceVotes(address)":"03b04936","enableFastPrice()":"6ccd47c4","fastPriceEvents()":"0e9272ea","favorFastPrice(address)":"6c56fd05","getPrice(address,uint256,bool)":"7fece368","getPriceData(address)":"72279ba1","gov()":"12d43a51","initialize(uint256,address[],address[])":"7fbc79c6","isInitialized()":"392e53cd","isSigner(address)":"7df73e27","isSpreadEnabled()":"695d4184","isUpdater(address)":"4fdfb086","lastUpdatedAt()":"54aea127","lastUpdatedBlock()":"f90ce5ba","maxCumulativeDeltaDiffs(address)":"a3742425","maxDeviationBasisPoints()":"715c7536","maxPriceUpdateDelay()":"e64559ad","maxTimeDeviation()":"3aa08f86","minAuthorizations()":"287800c9","minBlockInterval()":"b3606b56","positionRouter()":"61ef161f","priceData(address)":"cab44b76","priceDataInterval()":"dfb481c9","priceDuration()":"03cd2571","prices(address)":"cfed246b","setCompactedPrices(uint256[],uint256)":"03f4d7dc","setFastPriceEvents(address)":"162ac4e0","setGov(address)":"cfad57a2","setIsSpreadEnabled(bool)":"ce98dfa8","setLastUpdatedAt(uint256)":"14dd2dce","setMaxCumulativeDeltaDiffs(address[],uint256[])":"4c0e31c8","setMaxDeviationBasisPoints(uint256)":"82553aad","setMaxPriceUpdateDelay(uint256)":"8b7677f4","setMaxTimeDeviation(uint256)":"776d16c1","setMinAuthorizations(uint256)":"d925351a","setMinBlockInterval(uint256)":"d6a153f1","setPriceDataInterval(uint256)":"2e9cd94b","setPriceDuration(uint256)":"44c23193","setPrices(address[],uint256[],uint256)":"782661bc","setPricesWithBits(uint256,uint256)":"17835d1c","setPricesWithBitsAndExecute(uint256,uint256,uint256,uint256,uint256,uint256)":"574ec1be","setSigner(address,bool)":"31cb6105","setSpreadBasisPointsIfChainError(uint256)":"de0d1b94","setSpreadBasisPointsIfInactive(uint256)":"b70c7b70","setTokenManager(address)":"7cb2b79c","setTokens(address[],uint256[])":"c8390a48","setUpdater(address,bool)":"1a153391","setVaultPriceFeed(address)":"238aafb7","spreadBasisPointsIfChainError()":"a6eca896","spreadBasisPointsIfInactive()":"74bfed89","tokenManager()":"2a709b14","tokenPrecisions(uint256)":"4d11fb4a","tokens(uint256)":"4f64b2be","vaultPriceFeed()":"eeaa783a"},"id":139}