{"abi":[{"type":"constructor","inputs":[{"name":"_minAuthorizations","type":"uint256","internalType":"uint256"}],"stateMutability":"nonpayable"},{"type":"function","name":"actionsNonce","inputs":[],"outputs":[{"name":"","type":"uint256","internalType":"uint256"}],"stateMutability":"view"},{"type":"function","name":"admin","inputs":[],"outputs":[{"name":"","type":"address","internalType":"address"}],"stateMutability":"view"},{"type":"function","name":"approve","inputs":[{"name":"_token","type":"address","internalType":"address"},{"name":"_spender","type":"address","internalType":"address"},{"name":"_amount","type":"uint256","internalType":"uint256"},{"name":"_nonce","type":"uint256","internalType":"uint256"}],"outputs":[],"stateMutability":"nonpayable"},{"type":"function","name":"approveNFT","inputs":[{"name":"_token","type":"address","internalType":"address"},{"name":"_spender","type":"address","internalType":"address"},{"name":"_tokenId","type":"uint256","internalType":"uint256"},{"name":"_nonce","type":"uint256","internalType":"uint256"}],"outputs":[],"stateMutability":"nonpayable"},{"type":"function","name":"approveNFTs","inputs":[{"name":"_token","type":"address","internalType":"address"},{"name":"_spender","type":"address","internalType":"address"},{"name":"_tokenIds","type":"uint256[]","internalType":"uint256[]"},{"name":"_nonce","type":"uint256","internalType":"uint256"}],"outputs":[],"stateMutability":"nonpayable"},{"type":"function","name":"initialize","inputs":[{"name":"_signers","type":"address[]","internalType":"address[]"}],"outputs":[],"stateMutability":"nonpayable"},{"type":"function","name":"isInitialized","inputs":[],"outputs":[{"name":"","type":"bool","internalType":"bool"}],"stateMutability":"view"},{"type":"function","name":"isSigner","inputs":[{"name":"","type":"address","internalType":"address"}],"outputs":[{"name":"","type":"bool","internalType":"bool"}],"stateMutability":"view"},{"type":"function","name":"minAuthorizations","inputs":[],"outputs":[{"name":"","type":"uint256","internalType":"uint256"}],"stateMutability":"view"},{"type":"function","name":"pendingActions","inputs":[{"name":"","type":"bytes32","internalType":"bytes32"}],"outputs":[{"name":"","type":"bool","internalType":"bool"}],"stateMutability":"view"},{"type":"function","name":"receiveNFTs","inputs":[{"name":"_token","type":"address","internalType":"address"},{"name":"_sender","type":"address","internalType":"address"},{"name":"_tokenIds","type":"uint256[]","internalType":"uint256[]"}],"outputs":[],"stateMutability":"nonpayable"},{"type":"function","name":"setAdmin","inputs":[{"name":"_target","type":"address","internalType":"address"},{"name":"_admin","type":"address","internalType":"address"},{"name":"_nonce","type":"uint256","internalType":"uint256"}],"outputs":[],"stateMutability":"nonpayable"},{"type":"function","name":"setGov","inputs":[{"name":"_timelock","type":"address","internalType":"address"},{"name":"_target","type":"address","internalType":"address"},{"name":"_gov","type":"address","internalType":"address"},{"name":"_nonce","type":"uint256","internalType":"uint256"}],"outputs":[],"stateMutability":"nonpayable"},{"type":"function","name":"signApprove","inputs":[{"name":"_token","type":"address","internalType":"address"},{"name":"_spender","type":"address","internalType":"address"},{"name":"_amount","type":"uint256","internalType":"uint256"},{"name":"_nonce","type":"uint256","internalType":"uint256"}],"outputs":[],"stateMutability":"nonpayable"},{"type":"function","name":"signApproveNFT","inputs":[{"name":"_token","type":"address","internalType":"address"},{"name":"_spender","type":"address","internalType":"address"},{"name":"_tokenId","type":"uint256","internalType":"uint256"},{"name":"_nonce","type":"uint256","internalType":"uint256"}],"outputs":[],"stateMutability":"nonpayable"},{"type":"function","name":"signApproveNFTs","inputs":[{"name":"_token","type":"address","internalType":"address"},{"name":"_spender","type":"address","internalType":"address"},{"name":"_tokenIds","type":"uint256[]","internalType":"uint256[]"},{"name":"_nonce","type":"uint256","internalType":"uint256"}],"outputs":[],"stateMutability":"nonpayable"},{"type":"function","name":"signSetAdmin","inputs":[{"name":"_target","type":"address","internalType":"address"},{"name":"_admin","type":"address","internalType":"address"},{"name":"_nonce","type":"uint256","internalType":"uint256"}],"outputs":[],"stateMutability":"nonpayable"},{"type":"function","name":"signSetGov","inputs":[{"name":"_timelock","type":"address","internalType":"address"},{"name":"_target","type":"address","internalType":"address"},{"name":"_gov","type":"address","internalType":"address"},{"name":"_nonce","type":"uint256","internalType":"uint256"}],"outputs":[],"stateMutability":"nonpayable"},{"type":"function","name":"signalApprove","inputs":[{"name":"_token","type":"address","internalType":"address"},{"name":"_spender","type":"address","internalType":"address"},{"name":"_amount","type":"uint256","internalType":"uint256"}],"outputs":[],"stateMutability":"nonpayable"},{"type":"function","name":"signalApproveNFT","inputs":[{"name":"_token","type":"address","internalType":"address"},{"name":"_spender","type":"address","internalType":"address"},{"name":"_tokenId","type":"uint256","internalType":"uint256"}],"outputs":[],"stateMutability":"nonpayable"},{"type":"function","name":"signalApproveNFTs","inputs":[{"name":"_token","type":"address","internalType":"address"},{"name":"_spender","type":"address","internalType":"address"},{"name":"_tokenIds","type":"uint256[]","internalType":"uint256[]"}],"outputs":[],"stateMutability":"nonpayable"},{"type":"function","name":"signalSetAdmin","inputs":[{"name":"_target","type":"address","internalType":"address"},{"name":"_admin","type":"address","internalType":"address"}],"outputs":[],"stateMutability":"nonpayable"},{"type":"function","name":"signalSetGov","inputs":[{"name":"_timelock","type":"address","internalType":"address"},{"name":"_target","type":"address","internalType":"address"},{"name":"_gov","type":"address","internalType":"address"}],"outputs":[],"stateMutability":"nonpayable"},{"type":"function","name":"signedActions","inputs":[{"name":"","type":"address","internalType":"address"},{"name":"","type":"bytes32","internalType":"bytes32"}],"outputs":[{"name":"","type":"bool","internalType":"bool"}],"stateMutability":"view"},{"type":"function","name":"signers","inputs":[{"name":"","type":"uint256","internalType":"uint256"}],"outputs":[{"name":"","type":"address","internalType":"address"}],"stateMutability":"view"},{"type":"function","name":"signersLength","inputs":[],"outputs":[{"name":"","type":"uint256","internalType":"uint256"}],"stateMutability":"view"},{"type":"event","name":"ClearAction","inputs":[{"name":"action","type":"bytes32","indexed":false,"internalType":"bytes32"},{"name":"nonce","type":"uint256","indexed":false,"internalType":"uint256"}],"anonymous":false},{"type":"event","name":"SignAction","inputs":[{"name":"action","type":"bytes32","indexed":false,"internalType":"bytes32"},{"name":"nonce","type":"uint256","indexed":false,"internalType":"uint256"}],"anonymous":false},{"type":"event","name":"SignalApprove","inputs":[{"name":"token","type":"address","indexed":false,"internalType":"address"},{"name":"spender","type":"address","indexed":false,"internalType":"address"},{"name":"amount","type":"uint256","indexed":false,"internalType":"uint256"},{"name":"action","type":"bytes32","indexed":false,"internalType":"bytes32"},{"name":"nonce","type":"uint256","indexed":false,"internalType":"uint256"}],"anonymous":false},{"type":"event","name":"SignalApproveNFT","inputs":[{"name":"token","type":"address","indexed":false,"internalType":"address"},{"name":"spender","type":"address","indexed":false,"internalType":"address"},{"name":"tokenId","type":"uint256","indexed":false,"internalType":"uint256"},{"name":"action","type":"bytes32","indexed":false,"internalType":"bytes32"},{"name":"nonce","type":"uint256","indexed":false,"internalType":"uint256"}],"anonymous":false},{"type":"event","name":"SignalApproveNFTs","inputs":[{"name":"token","type":"address","indexed":false,"internalType":"address"},{"name":"spender","type":"address","indexed":false,"internalType":"address"},{"name":"tokenIds","type":"uint256[]","indexed":false,"internalType":"uint256[]"},{"name":"action","type":"bytes32","indexed":false,"internalType":"bytes32"},{"name":"nonce","type":"uint256","indexed":false,"internalType":"uint256"}],"anonymous":false},{"type":"event","name":"SignalPendingAction","inputs":[{"name":"action","type":"bytes32","indexed":false,"internalType":"bytes32"},{"name":"nonce","type":"uint256","indexed":false,"internalType":"uint256"}],"anonymous":false},{"type":"event","name":"SignalSetAdmin","inputs":[{"name":"target","type":"address","indexed":false,"internalType":"address"},{"name":"admin","type":"address","indexed":false,"internalType":"address"},{"name":"action","type":"bytes32","indexed":false,"internalType":"bytes32"},{"name":"nonce","type":"uint256","indexed":false,"internalType":"uint256"}],"anonymous":false},{"type":"event","name":"SignalSetGov","inputs":[{"name":"timelock","type":"address","indexed":false,"internalType":"address"},{"name":"target","type":"address","indexed":false,"internalType":"address"},{"name":"gov","type":"address","indexed":false,"internalType":"address"},{"name":"action","type":"bytes32","indexed":false,"internalType":"bytes32"},{"name":"nonce","type":"uint256","indexed":false,"internalType":"uint256"}],"anonymous":false}],"bytecode":{"object":"0x608060405234801561001057600080fd5b506040516126bb3803806126bb8339818101604052602081101561003357600080fd5b50516001600055600480546001600160a01b0319163317905560035561265d8061005e6000396000f3fe608060405234801561001057600080fd5b506004361061018e5760003560e01c8063a4c04bb7116100de578063e30569e511610097578063f23f977511610071578063f23f977514610808578063f466634b14610844578063f52dc4f71461087a578063f851a440146108b65761018e565b8063e30569e5146106f3578063e907562114610710578063f00cb9421461074c5761018e565b8063a4c04bb71461054b578063a62fb17014610553578063adb384b61461058f578063dce6e18d14610649578063ddf67a9f1461067f578063e2d03cc5146106bb5761018e565b806342a1fcee1161014b5780637df73e27116101255780637df73e271461042257806387c6d4f9146104485780639fddaac114610474578063a224cee7146104aa5761018e565b806342a1fcee146102fc5780634dc5ecb3146103b857806375fd490c146103f45761018e565b80630b13beca14610193578063181fcd33146101cb5780632079fb9a14610285578063287800c9146102be578063392e53cd146102d857806341f684f3146102f4575b600080fd5b6101c9600480360360608110156101a957600080fd5b506001600160a01b038135811691602081013590911690604001356108be565b005b6101c9600480360360608110156101e157600080fd5b6001600160a01b038235811692602081013590911691810190606081016040820135600160201b81111561021457600080fd5b82018360208201111561022657600080fd5b803590602001918460208302840111600160201b8311171561024757600080fd5b919080806020026020016040519081016040528093929190818152602001838360200280828437600092019190915250929550610a2e945050505050565b6102a26004803603602081101561029b57600080fd5b5035610c24565b604080516001600160a01b039092168252519081900360200190f35b6102c6610c4b565b60408051918252519081900360200190f35b6102e0610c51565b604080519115158252519081900360200190f35b6102c6610c5a565b6101c96004803603608081101561031257600080fd5b6001600160a01b038235811692602081013590911691810190606081016040820135600160201b81111561034557600080fd5b82018360208201111561035757600080fd5b803590602001918460208302840111600160201b8311171561037857600080fd5b9190808060200260200160405190810160405280939291908181526020018383602002808284376000920191909152509295505091359250610c60915050565b6101c9600480360360808110156103ce57600080fd5b506001600160a01b03813581169160208101359091169060408101359060600135610e56565b6101c96004803603604081101561040a57600080fd5b506001600160a01b0381358116916020013516610fea565b6102e06004803603602081101561043857600080fd5b50356001600160a01b0316611173565b6102e06004803603604081101561045e57600080fd5b506001600160a01b038135169060200135611188565b6101c96004803603606081101561048a57600080fd5b506001600160a01b038135811691602081013590911690604001356111a8565b6101c9600480360360208110156104c057600080fd5b810190602081018135600160201b8111156104da57600080fd5b8201836020820111156104ec57600080fd5b803590602001918460208302840111600160201b8311171561050d57600080fd5b919080806020026020016040519081016040528093929190818152602001838360200280828437600092019190915250929550611328945050505050565b6102c6611431565b6101c96004803603608081101561056957600080fd5b506001600160a01b03813581169160208101358216916040820135169060600135611437565b6101c9600480360360608110156105a557600080fd5b6001600160a01b038235811692602081013590911691810190606081016040820135600160201b8111156105d857600080fd5b8201836020820111156105ea57600080fd5b803590602001918460208302840111600160201b8311171561060b57600080fd5b919080806020026020016040519081016040528093929190818152602001838360200280828437600092019190915250929550611619945050505050565b6101c96004803603606081101561065f57600080fd5b506001600160a01b0381358116916020810135909116906040013561175c565b6101c96004803603608081101561069557600080fd5b506001600160a01b038135811691602081013590911690604081013590606001356118c9565b6101c9600480360360608110156106d157600080fd5b506001600160a01b0381358116916020810135821691604090910135166119cd565b6102e06004803603602081101561070957600080fd5b5035611b69565b6101c96004803603608081101561072657600080fd5b506001600160a01b03813581169160208101358216916040820135169060600135611b7e565b6101c96004803603608081101561076257600080fd5b6001600160a01b038235811692602081013590911691810190606081016040820135600160201b81111561079557600080fd5b8201836020820111156107a757600080fd5b803590602001918460208302840111600160201b831117156107c857600080fd5b9190808060200260200160405190810160405280939291908181526020018383602002808284376000920191909152509295505091359250611d0d915050565b6101c96004803603608081101561081e57600080fd5b506001600160a01b03813581169160208101359091169060408101359060600135611e4d565b6101c96004803603606081101561085a57600080fd5b506001600160a01b03813581169160208101359091169060400135611fad565b6101c96004803603608081101561089057600080fd5b506001600160a01b03813581169160208101359091169060408101359060600135612181565b6102a2612282565b60026000541415610904576040805162461bcd60e51b815260206004820152601f602482015260008051602061255a833981519152604482015290519081900360640190fd5b60026000556004546001600160a01b03163314610956576040805162461bcd60e51b815260206004820152601760248201526000805160206125e6833981519152604482015290519081900360640190fd5b60028054600101908190556040805169185c1c1c9bdd9953919560b21b6020808301919091526001600160601b0319606088811b8216602a85015287901b16603e83015260528201859052607280830185905283518084039091018152609290920190925280519101206109ca8183612291565b604080516001600160a01b03808816825286166020820152808201859052606081018390526080810184905290517fcd9ba83b63715dc15ac193645d6e925bf4b487c94b73d709b8b6dea608efd4cc9181900360a00190a150506001600055505050565b60026000541415610a74576040805162461bcd60e51b815260206004820152601f602482015260008051602061255a833981519152604482015290519081900360640190fd5b60026000556004546001600160a01b03163314610ac6576040805162461bcd60e51b815260206004820152601760248201526000805160206125e6833981519152604482015290519081900360640190fd5b60028054600101908190556040516a617070726f76654e46547360a81b60208083019182526001600160601b0319606088811b8216602b86015287901b16603f840152845160009388938893889388936053019180860191028083838b5b83811015610b3c578181015183820152602001610b24565b50505050905001828152602001945050505050604051602081830303815290604052805190602001209050610b718183612291565b7ff9d0354d71c261982d98abd09b735f3663b2d7275e2569ad5fd907a4092765f9858585848660405180866001600160a01b03168152602001856001600160a01b0316815260200180602001848152602001838152602001828103825285818151815260200191508051906020019060200280838360005b83811015610c01578181015183820152602001610be9565b50505050905001965050505050505060405180910390a150506001600055505050565b60058181548110610c3157fe5b6000918252602090912001546001600160a01b0316905081565b60035481565b60015460ff1681565b60055490565b60026000541415610ca6576040805162461bcd60e51b815260206004820152601f602482015260008051602061255a833981519152604482015290519081900360640190fd5b60026000556004546001600160a01b03163314610cf8576040805162461bcd60e51b815260206004820152601760248201526000805160206125e6833981519152604482015290519081900360640190fd5b60008484848460405160200180806a617070726f76654e46547360a81b815250600b01856001600160a01b031660601b8152601401846001600160a01b031660601b8152601401838051906020019060200280838360005b83811015610d68578181015183820152602001610d50565b50505050905001828152602001945050505050604051602081830303815290604052805190602001209050610d9c816122ea565b610da58161233a565b60005b8351811015610e3f57856001600160a01b031663095ea7b386868481518110610dcd57fe5b60200260200101516040518363ffffffff1660e01b815260040180836001600160a01b0316815260200182815260200192505050600060405180830381600087803b158015610e1b57600080fd5b505af1158015610e2f573d6000803e3d6000fd5b505060019092019150610da89050565b50610e4a818361241c565b50506001600055505050565b60026000541415610e9c576040805162461bcd60e51b815260206004820152601f602482015260008051602061255a833981519152604482015290519081900360640190fd5b60026000556004546001600160a01b03163314610eee576040805162461bcd60e51b815260206004820152601760248201526000805160206125e6833981519152604482015290519081900360640190fd5b6040805166617070726f766560c81b6020808301919091526001600160601b0319606088811b8216602785015287901b16603b830152604f8201859052606f80830185905283518084039091018152608f9092019092528051910120610f53816122ea565b610f5c8161233a565b846001600160a01b031663095ea7b385856040518363ffffffff1660e01b815260040180836001600160a01b0316815260200182815260200192505050602060405180830381600087803b158015610fb357600080fd5b505af1158015610fc7573d6000803e3d6000fd5b505050506040513d6020811015610fdd57600080fd5b50610e4a9050818361241c565b60026000541415611030576040805162461bcd60e51b815260206004820152601f602482015260008051602061255a833981519152604482015290519081900360640190fd5b600260009081553381526006602052604090205460ff16611086576040805162461bcd60e51b815260206004820152601760248201526000805160206125e6833981519152604482015290519081900360640190fd5b6002805460010190819055604080516739b2ba20b236b4b760c11b6020808301919091526001600160601b0319606087811b8216602885015286901b16603c830152605080830185905283518084039091018152607090920190925280519101206110f18183612291565b336000908152600860209081526040808320848452825291829020805460ff1916600117905581516001600160a01b0387811682528616918101919091528082018390526060810184905290517f4fc9433645aa0a3670e9185496bbd752209fed7a9696fb8a954a0db30ef927b09181900360800190a1505060016000555050565b60066020526000908152604090205460ff1681565b600860209081526000928352604080842090915290825290205460ff1681565b600260005414156111ee576040805162461bcd60e51b815260206004820152601f602482015260008051602061255a833981519152604482015290519081900360640190fd5b600260009081553381526006602052604090205460ff16611244576040805162461bcd60e51b815260206004820152601760248201526000805160206125e6833981519152604482015290519081900360640190fd5b604080516739b2ba20b236b4b760c11b6020808301919091526001600160601b0319606087811b8216602885015286901b16603c830152605080830185905283518084039091018152607090920190925280519101206112a3816122ea565b6112ac8161233a565b836001600160a01b031663704b6c02846040518263ffffffff1660e01b815260040180826001600160a01b03168152602001915050600060405180830381600087803b1580156112fb57600080fd5b505af115801561130f573d6000803e3d6000fd5b5050505061131d818361241c565b505060016000555050565b6004546001600160a01b03163314611375576040805162461bcd60e51b815260206004820152601760248201526000805160206125e6833981519152604482015290519081900360640190fd5b60015460ff16156113b75760405162461bcd60e51b815260040180806020018281038252602181526020018061257a6021913960400191505060405180910390fd5b6001805460ff19168117905580516113d69060059060208401906124d5565b5060005b815181101561142d5760008282815181106113f157fe5b6020908102919091018101516001600160a01b03166000908152600690915260409020805460ff191660019081179091559190910190506113da565b5050565b60025481565b6002600054141561147d576040805162461bcd60e51b815260206004820152601f602482015260008051602061255a833981519152604482015290519081900360640190fd5b600260009081553381526006602052604090205460ff166114d3576040805162461bcd60e51b815260206004820152601760248201526000805160206125e6833981519152604482015290519081900360640190fd5b604080516b39b4b3b730b629b2ba23b7bb60a11b6020808301919091526001600160601b0319606088811b8216602c85015287811b82168486015286901b1660548301526068808301859052835180840390910181526088909201909252805191012061153f816122ea565b33600090815260086020908152604080832084845290915290205460ff16156115af576040805162461bcd60e51b815260206004820152601c60248201527f546f6b656e4d616e616765723a20616c7265616479207369676e656400000000604482015290519081900360640190fd5b336000908152600860209081526040808320848452825291829020805460ff19166001179055815183815290810184905281517faae28fe5531fe5dfb8d12409392ec67b50c825dd06233312cb6aeaddd16cbd22929181900390910190a150506001600055505050565b6002600054141561165f576040805162461bcd60e51b815260206004820152601f602482015260008051602061255a833981519152604482015290519081900360640190fd5b60026000556004546001600160a01b031633146116b1576040805162461bcd60e51b815260206004820152601760248201526000805160206125e6833981519152604482015290519081900360640190fd5b60005b815181101561131d57836001600160a01b03166323b872dd84308585815181106116da57fe5b60200260200101516040518463ffffffff1660e01b815260040180846001600160a01b03168152602001836001600160a01b031681526020018281526020019350505050600060405180830381600087803b15801561173857600080fd5b505af115801561174c573d6000803e3d6000fd5b5050600190920191506116b49050565b600260005414156117a2576040805162461bcd60e51b815260206004820152601f602482015260008051602061255a833981519152604482015290519081900360640190fd5b60026000556004546001600160a01b031633146117f4576040805162461bcd60e51b815260206004820152601760248201526000805160206125e6833981519152604482015290519081900360640190fd5b60028054600101908190556040805166617070726f766560c81b6020808301919091526001600160601b0319606088811b8216602785015287901b16603b830152604f8201859052606f80830185905283518084039091018152608f90920190925280519101206118658183612291565b604080516001600160a01b03808816825286166020820152808201859052606081018390526080810184905290517fc19251bf5f704ddc3d5babe6f4e5bde0dded20b19f7844716861821ab3163cd79181900360a00190a150506001600055505050565b6002600054141561190f576040805162461bcd60e51b815260206004820152601f602482015260008051602061255a833981519152604482015290519081900360640190fd5b600260009081553381526006602052604090205460ff16611965576040805162461bcd60e51b815260206004820152601760248201526000805160206125e6833981519152604482015290519081900360640190fd5b6040805169185c1c1c9bdd9953919560b21b6020808301919091526001600160601b0319606088811b8216602a85015287901b16603e830152605282018590526072808301859052835180840390910181526092909201909252805191012061153f816122ea565b60026000541415611a13576040805162461bcd60e51b815260206004820152601f602482015260008051602061255a833981519152604482015290519081900360640190fd5b60026000556004546001600160a01b03163314611a65576040805162461bcd60e51b815260206004820152601760248201526000805160206125e6833981519152604482015290519081900360640190fd5b6002805460010190819055604080516b39b4b3b730b629b2ba23b7bb60a11b6020808301919091526001600160601b0319606088811b8216602c85015287811b82168486015286901b16605483015260688083018590528351808403909101815260889092019092528051910120611add8183612291565b336000908152600860209081526040808320848452825291829020805460ff1916600117905581516001600160a01b0388811682528781169282019290925290851681830152606081018390526080810184905290517f634e13057d45400506e3b303913ac59b61e5a8137ea6fed5ed44aa0b8bc3c5689181900360a00190a150506001600055505050565b60076020526000908152604090205460ff1681565b60026000541415611bc4576040805162461bcd60e51b815260206004820152601f602482015260008051602061255a833981519152604482015290519081900360640190fd5b60026000556004546001600160a01b03163314611c16576040805162461bcd60e51b815260206004820152601760248201526000805160206125e6833981519152604482015290519081900360640190fd5b604080516b39b4b3b730b629b2ba23b7bb60a11b6020808301919091526001600160601b0319606088811b8216602c85015287811b82168486015286901b16605483015260688083018590528351808403909101815260889092019092528051910120611c82816122ea565b611c8b8161233a565b846001600160a01b031663996a7a1e85856040518363ffffffff1660e01b815260040180836001600160a01b03168152602001826001600160a01b0316815260200192505050600060405180830381600087803b158015611ceb57600080fd5b505af1158015611cff573d6000803e3d6000fd5b50505050610e4a818361241c565b60026000541415611d53576040805162461bcd60e51b815260206004820152601f602482015260008051602061255a833981519152604482015290519081900360640190fd5b600260009081553381526006602052604090205460ff16611da9576040805162461bcd60e51b815260206004820152601760248201526000805160206125e6833981519152604482015290519081900360640190fd5b60008484848460405160200180806a617070726f76654e46547360a81b815250600b01856001600160a01b031660601b8152601401846001600160a01b031660601b8152601401838051906020019060200280838360005b83811015611e19578181015183820152602001611e01565b5050505090500182815260200194505050505060405160208183030381529060405280519060200120905061153f816122ea565b60026000541415611e93576040805162461bcd60e51b815260206004820152601f602482015260008051602061255a833981519152604482015290519081900360640190fd5b60026000556004546001600160a01b03163314611ee5576040805162461bcd60e51b815260206004820152601760248201526000805160206125e6833981519152604482015290519081900360640190fd5b6040805169185c1c1c9bdd9953919560b21b6020808301919091526001600160601b0319606088811b8216602a85015287901b16603e8301526052820185905260728083018590528351808403909101815260929092019092528051910120611f4d816122ea565b611f568161233a565b846001600160a01b031663095ea7b385856040518363ffffffff1660e01b815260040180836001600160a01b0316815260200182815260200192505050600060405180830381600087803b158015611ceb57600080fd5b60026000541415611ff3576040805162461bcd60e51b815260206004820152601f602482015260008051602061255a833981519152604482015290519081900360640190fd5b600260009081553381526006602052604090205460ff16612049576040805162461bcd60e51b815260206004820152601760248201526000805160206125e6833981519152604482015290519081900360640190fd5b604080516739b2ba20b236b4b760c11b6020808301919091526001600160601b0319606087811b8216602885015286901b16603c830152605080830185905283518084039091018152607090920190925280519101206120a8816122ea565b33600090815260086020908152604080832084845290915290205460ff1615612118576040805162461bcd60e51b815260206004820152601c60248201527f546f6b656e4d616e616765723a20616c7265616479207369676e656400000000604482015290519081900360640190fd5b336000908152600860209081526040808320848452825291829020805460ff19166001179055815183815290810184905281517faae28fe5531fe5dfb8d12409392ec67b50c825dd06233312cb6aeaddd16cbd22929181900390910190a1505060016000555050565b600260005414156121c7576040805162461bcd60e51b815260206004820152601f602482015260008051602061255a833981519152604482015290519081900360640190fd5b600260009081553381526006602052604090205460ff1661221d576040805162461bcd60e51b815260206004820152601760248201526000805160206125e6833981519152604482015290519081900360640190fd5b6040805166617070726f766560c81b6020808301919091526001600160601b0319606088811b8216602785015287901b16603b830152604f8201859052606f80830185905283518084039091018152608f909201909252805191012061153f816122ea565b6004546001600160a01b031681565b600082815260076020908152604091829020805460ff19166001179055815184815290810183905281517f64df01c46eb530dc540770a0b88cc32f0b8c2b371a546ae0b13cc8ca6671fff9929181900390910190a15050565b60008181526007602052604090205460ff166123375760405162461bcd60e51b81526004018080602001828103825260228152602001806126066022913960400191505060405180910390fd5b50565b6000805b60055481101561239e5760006005828154811061235757fe5b60009182526020808320909101546001600160a01b031680835260088252604080842088855290925291205490915060ff1615612395576001909201915b5060010161233e565b50806123db5760405162461bcd60e51b81526004018080602001828103825260238152602001806125c36023913960400191505060405180910390fd5b60035481101561142d5760405162461bcd60e51b815260040180806020018281038252602881526020018061259b6028913960400191505060405180910390fd5b60008281526007602052604090205460ff1661247f576040805162461bcd60e51b815260206004820152601d60248201527f546f6b656e4d616e616765723a20696e76616c6964205f616374696f6e000000604482015290519081900360640190fd5b600082815260076020908152604091829020805460ff19169055815184815290810183905281517ff4640d39061e643d9b802cb3725953405344555ad6dbb1cbdb0495f3eccb8e68929181900390910190a15050565b82805482825590600052602060002090810192821561252a579160200282015b8281111561252a57825182546001600160a01b0319166001600160a01b039091161782556020909201916001909101906124f5565b5061253692915061253a565b5090565b5b808211156125365780546001600160a01b031916815560010161253b56fe5265656e7472616e637947756172643a207265656e7472616e742063616c6c00546f6b656e4d616e616765723a20616c726561647920696e697469616c697a6564546f6b656e4d616e616765723a20696e73756666696369656e7420617574686f72697a6174696f6e546f6b656e4d616e616765723a20616374696f6e206e6f7420617574686f72697a6564546f6b656e4d616e616765723a20666f7262696464656e000000000000000000546f6b656e4d616e616765723a20616374696f6e206e6f74207369676e616c6c6564a26469706673582212203b3a8cc50dd4baeea2fa1311c456abb428ead4f4ee3dbd80c8b243d9ab05cb7f64736f6c634300060c0033","linkReferences":{}},"methodIdentifiers":{"actionsNonce()":"a4c04bb7","admin()":"f851a440","approve(address,address,uint256,uint256)":"4dc5ecb3","approveNFT(address,address,uint256,uint256)":"f23f9775","approveNFTs(address,address,uint256[],uint256)":"42a1fcee","initialize(address[])":"a224cee7","isInitialized()":"392e53cd","isSigner(address)":"7df73e27","minAuthorizations()":"287800c9","pendingActions(bytes32)":"e30569e5","receiveNFTs(address,address,uint256[])":"adb384b6","setAdmin(address,address,uint256)":"9fddaac1","setGov(address,address,address,uint256)":"e9075621","signApprove(address,address,uint256,uint256)":"f52dc4f7","signApproveNFT(address,address,uint256,uint256)":"ddf67a9f","signApproveNFTs(address,address,uint256[],uint256)":"f00cb942","signSetAdmin(address,address,uint256)":"f466634b","signSetGov(address,address,address,uint256)":"a62fb170","signalApprove(address,address,uint256)":"dce6e18d","signalApproveNFT(address,address,uint256)":"0b13beca","signalApproveNFTs(address,address,uint256[])":"181fcd33","signalSetAdmin(address,address)":"75fd490c","signalSetGov(address,address,address)":"e2d03cc5","signedActions(address,bytes32)":"87c6d4f9","signers(uint256)":"2079fb9a","signersLength()":"41f684f3"},"id":73}