{"abi":[{"type":"function","name":"gov","inputs":[],"outputs":[{"name":"","type":"address","internalType":"address"}],"stateMutability":"view"},{"type":"function","name":"setGov","inputs":[{"name":"_gov","type":"address","internalType":"address"}],"outputs":[],"stateMutability":"nonpayable"},{"type":"function","name":"stakeForAccount","inputs":[{"name":"_rewardTracker","type":"address","internalType":"address"},{"name":"_account","type":"address","internalType":"address"},{"name":"_token","type":"address","internalType":"address"},{"name":"_amount","type":"uint256","internalType":"uint256"}],"outputs":[],"stateMutability":"nonpayable"}],"bytecode":{"object":"0x608060405234801561001057600080fd5b50600080546001600160a01b03191633179055610262806100326000396000f3fe608060405234801561001057600080fd5b50600436106100415760003560e01c806312d43a5114610046578063790b5a6c1461006a578063cfad57a2146100a8575b600080fd5b61004e6100ce565b604080516001600160a01b039092168252519081900360200190f35b6100a66004803603608081101561008057600080fd5b506001600160a01b038135811691602081013582169160408201351690606001356100dd565b005b6100a6600480360360208110156100be57600080fd5b50356001600160a01b03166101b3565b6000546001600160a01b031681565b6000546001600160a01b03163314610134576040805162461bcd60e51b815260206004820152601560248201527423b7bb32b93730b136329d103337b93134b23232b760591b604482015290519081900360640190fd5b60408051631e42d69b60e21b81526001600160a01b0385811660048301819052602483015284811660448301526064820184905291519186169163790b5a6c9160848082019260009290919082900301818387803b15801561019557600080fd5b505af11580156101a9573d6000803e3d6000fd5b5050505050505050565b6000546001600160a01b0316331461020a576040805162461bcd60e51b815260206004820152601560248201527423b7bb32b93730b136329d103337b93134b23232b760591b604482015290519081900360640190fd5b600080546001600160a01b0319166001600160a01b039290921691909117905556fea26469706673582212206bbb96a2134ed145bbc4d0b1cebbe7b3f1d93a5f71313c7aaf6bce7df74b26ca64736f6c634300060c0033","linkReferences":{}},"methodIdentifiers":{"gov()":"12d43a51","setGov(address)":"cfad57a2","stakeForAccount(address,address,address,uint256)":"790b5a6c"},"id":171}