{"abi":[{"type":"constructor","inputs":[{"name":"_glpManager","type":"address","internalType":"contract IGlpManager"},{"name":"_stakedGlpTracker","type":"address","internalType":"address"}],"stateMutability":"nonpayable"},{"type":"function","name":"allowance","inputs":[{"name":"_owner","type":"address","internalType":"address"},{"name":"_spender","type":"address","internalType":"address"}],"outputs":[{"name":"","type":"uint256","internalType":"uint256"}],"stateMutability":"view"},{"type":"function","name":"allowances","inputs":[{"name":"","type":"address","internalType":"address"},{"name":"","type":"address","internalType":"address"}],"outputs":[{"name":"","type":"uint256","internalType":"uint256"}],"stateMutability":"view"},{"type":"function","name":"approve","inputs":[{"name":"_spender","type":"address","internalType":"address"},{"name":"_amount","type":"uint256","internalType":"uint256"}],"outputs":[{"name":"","type":"bool","internalType":"bool"}],"stateMutability":"nonpayable"},{"type":"function","name":"glpManager","inputs":[],"outputs":[{"name":"","type":"address","internalType":"contract IGlpManager"}],"stateMutability":"view"},{"type":"function","name":"stakedGlpTracker","inputs":[],"outputs":[{"name":"","type":"address","internalType":"address"}],"stateMutability":"view"},{"type":"function","name":"transfer","inputs":[{"name":"_recipient","type":"address","internalType":"address"},{"name":"_amount","type":"uint256","internalType":"uint256"}],"outputs":[{"name":"","type":"bool","internalType":"bool"}],"stateMutability":"nonpayable"},{"type":"function","name":"transferFrom","inputs":[{"name":"_sender","type":"address","internalType":"address"},{"name":"_recipient","type":"address","internalType":"address"},{"name":"_amount","type":"uint256","internalType":"uint256"}],"outputs":[{"name":"","type":"bool","internalType":"bool"}],"stateMutability":"nonpayable"},{"type":"event","name":"Approval","inputs":[{"name":"owner","type":"address","indexed":true,"internalType":"address"},{"name":"spender","type":"address","indexed":true,"internalType":"address"},{"name":"value","type":"uint256","indexed":false,"internalType":"uint256"}],"anonymous":false}],"bytecode":{"object":"0x608060405234801561001057600080fd5b5060405161089c38038061089c8339818101604052604081101561003357600080fd5b508051602090910151600080546001600160a01b039384166001600160a01b031991821617909155600180549390921692169190911790556108228061007a6000396000f3fe608060405234801561001057600080fd5b506004361061007d5760003560e01c8063a9059cbb1161005b578063a9059cbb14610138578063af394d0014610164578063dd62ed3e14610188578063fa6db1bc146101b65761007d565b8063095ea7b31461008257806323b872dd146100c257806355b6ed5c146100f8575b600080fd5b6100ae6004803603604081101561009857600080fd5b506001600160a01b0381351690602001356101be565b604080519115158252519081900360200190f35b6100ae600480360360608110156100d857600080fd5b506001600160a01b038135811691602081013590911690604001356101d4565b6101266004803603604081101561010e57600080fd5b506001600160a01b0381358116916020013516610242565b60408051918252519081900360200190f35b6100ae6004803603604081101561014e57600080fd5b506001600160a01b03813516906020013561025f565b61016c61026c565b604080516001600160a01b039092168252519081900360200190f35b6101266004803603604081101561019e57600080fd5b506001600160a01b038135811691602001351661027b565b61016c6102a6565b60006101cb3384846102b5565b50600192915050565b60008061021f836040518060600160405280602d81526020016106f2602d91396001600160a01b038816600090815260026020908152604080832033845290915290205491906103a1565b905061022c8533836102b5565b610237858585610438565b506001949350505050565b600260209081526000928352604080842090915290825290205481565b60006101cb338484610438565b6001546001600160a01b031681565b6001600160a01b03918216600090815260026020908152604080832093909416825291909152205490565b6000546001600160a01b031681565b6001600160a01b0383166102fa5760405162461bcd60e51b815260040180806020018281038252602981526020018061071f6029913960400191505060405180910390fd5b6001600160a01b03821661033f5760405162461bcd60e51b81526004018080602001828103825260278152602001806107c66027913960400191505060405180910390fd5b6001600160a01b03808416600081815260026020908152604080832094871680845294825291829020859055815185815291517f8c5be1e5ebec7d5bd14f71427d1e84f3dd0314c0f7b2291e5b200ac8c7c3b9259281900390910190a3505050565b600081848411156104305760405162461bcd60e51b81526004018080602001828103825283818151815260200191508051906020019080838360005b838110156103f55781810151838201526020016103dd565b50505050905090810190601f1680156104225780820380516001836020036101000a031916815260200191505b509250505060405180910390fd5b505050900390565b6001600160a01b03831661047d5760405162461bcd60e51b815260040180806020018281038252602a81526020018061079c602a913960400191505060405180910390fd5b6001600160a01b0382166104c25760405162461bcd60e51b81526004018080602001828103825260288152602001806107486028913960400191505060405180910390fd5b426105c460008054906101000a90046001600160a01b03166001600160a01b031663352693156040518163ffffffff1660e01b8152600401602060405180830381600087803b15801561051457600080fd5b505af1158015610528573d6000803e3d6000fd5b505050506040513d602081101561053e57600080fd5b50516000805460408051638b770e1160e01b81526001600160a01b038a8116600483015291519190921692638b770e1192602480820193602093909283900390910190829087803b15801561059257600080fd5b505af11580156105a6573d6000803e3d6000fd5b505050506040513d60208110156105bc57600080fd5b505190610690565b11156106015760405162461bcd60e51b815260040180806020018281038252602c815260200180610770602c913960400191505060405180910390fd5b600154604080516323b872dd60e01b81526001600160a01b038681166004830152858116602483015260448201859052915191909216916323b872dd9160648083019260209291908290030181600087803b15801561065f57600080fd5b505af1158015610673573d6000803e3d6000fd5b505050506040513d602081101561068957600080fd5b5050505050565b6000828201838110156106ea576040805162461bcd60e51b815260206004820152601b60248201527f536166654d6174683a206164646974696f6e206f766572666c6f770000000000604482015290519081900360640190fd5b939250505056fe476c7042616c616e63653a207472616e7366657220616d6f756e74206578636565647320616c6c6f77616e6365476c7042616c616e63653a20617070726f76652066726f6d20746865207a65726f2061646472657373476c7042616c616e63653a207472616e7366657220746f20746865207a65726f2061646472657373476c7042616c616e63653a20636f6f6c646f776e206475726174696f6e206e6f742079657420706173736564476c7042616c616e63653a207472616e736665722066726f6d20746865207a65726f2061646472657373476c7042616c616e63653a20617070726f766520746f20746865207a65726f2061646472657373a26469706673582212202ac60b97051d764fd31077ae7e525e0c97e54e63d4ba7f794c3c2371e8428cab64736f6c634300060c0033","linkReferences":{}},"methodIdentifiers":{"allowance(address,address)":"dd62ed3e","allowances(address,address)":"55b6ed5c","approve(address,uint256)":"095ea7b3","glpManager()":"fa6db1bc","stakedGlpTracker()":"af394d00","transfer(address,uint256)":"a9059cbb","transferFrom(address,address,uint256)":"23b872dd"},"id":166}