{"abi":[{"type":"constructor","inputs":[{"name":"_name","type":"string","internalType":"string"},{"name":"_symbol","type":"string","internalType":"string"},{"name":"_vestingDuration","type":"uint256","internalType":"uint256"},{"name":"_esToken","type":"address","internalType":"address"},{"name":"_pairToken","type":"address","internalType":"address"},{"name":"_claimableToken","type":"address","internalType":"address"},{"name":"_rewardTracker","type":"address","internalType":"address"}],"stateMutability":"nonpayable"},{"type":"function","name":"allowance","inputs":[{"name":"","type":"address","internalType":"address"},{"name":"","type":"address","internalType":"address"}],"outputs":[{"name":"","type":"uint256","internalType":"uint256"}],"stateMutability":"view"},{"type":"function","name":"approve","inputs":[{"name":"","type":"address","internalType":"address"},{"name":"","type":"uint256","internalType":"uint256"}],"outputs":[{"name":"","type":"bool","internalType":"bool"}],"stateMutability":"nonpayable"},{"type":"function","name":"balanceOf","inputs":[{"name":"_account","type":"address","internalType":"address"}],"outputs":[{"name":"","type":"uint256","internalType":"uint256"}],"stateMutability":"view"},{"type":"function","name":"balances","inputs":[{"name":"","type":"address","internalType":"address"}],"outputs":[{"name":"","type":"uint256","internalType":"uint256"}],"stateMutability":"view"},{"type":"function","name":"bonusRewards","inputs":[{"name":"","type":"address","internalType":"address"}],"outputs":[{"name":"","type":"uint256","internalType":"uint256"}],"stateMutability":"view"},{"type":"function","name":"claim","inputs":[],"outputs":[{"name":"","type":"uint256","internalType":"uint256"}],"stateMutability":"nonpayable"},{"type":"function","name":"claimForAccount","inputs":[{"name":"_account","type":"address","internalType":"address"},{"name":"_receiver","type":"address","internalType":"address"}],"outputs":[{"name":"","type":"uint256","internalType":"uint256"}],"stateMutability":"nonpayable"},{"type":"function","name":"claimable","inputs":[{"name":"_account","type":"address","internalType":"address"}],"outputs":[{"name":"","type":"uint256","internalType":"uint256"}],"stateMutability":"view"},{"type":"function","name":"claimableToken","inputs":[],"outputs":[{"name":"","type":"address","internalType":"address"}],"stateMutability":"view"},{"type":"function","name":"claimedAmounts","inputs":[{"name":"","type":"address","internalType":"address"}],"outputs":[{"name":"","type":"uint256","internalType":"uint256"}],"stateMutability":"view"},{"type":"function","name":"cumulativeClaimAmounts","inputs":[{"name":"","type":"address","internalType":"address"}],"outputs":[{"name":"","type":"uint256","internalType":"uint256"}],"stateMutability":"view"},{"type":"function","name":"cumulativeRewardDeductions","inputs":[{"name":"","type":"address","internalType":"address"}],"outputs":[{"name":"","type":"uint256","internalType":"uint256"}],"stateMutability":"view"},{"type":"function","name":"decimals","inputs":[],"outputs":[{"name":"","type":"uint8","internalType":"uint8"}],"stateMutability":"view"},{"type":"function","name":"deposit","inputs":[{"name":"_amount","type":"uint256","internalType":"uint256"}],"outputs":[],"stateMutability":"nonpayable"},{"type":"function","name":"depositForAccount","inputs":[{"name":"_account","type":"address","internalType":"address"},{"name":"_amount","type":"uint256","internalType":"uint256"}],"outputs":[],"stateMutability":"nonpayable"},{"type":"function","name":"esToken","inputs":[],"outputs":[{"name":"","type":"address","internalType":"address"}],"stateMutability":"view"},{"type":"function","name":"getCombinedAverageStakedAmount","inputs":[{"name":"_account","type":"address","internalType":"address"}],"outputs":[{"name":"","type":"uint256","internalType":"uint256"}],"stateMutability":"view"},{"type":"function","name":"getMaxVestableAmount","inputs":[{"name":"_account","type":"address","internalType":"address"}],"outputs":[{"name":"","type":"uint256","internalType":"uint256"}],"stateMutability":"view"},{"type":"function","name":"getPairAmount","inputs":[{"name":"_account","type":"address","internalType":"address"},{"name":"_esAmount","type":"uint256","internalType":"uint256"}],"outputs":[{"name":"","type":"uint256","internalType":"uint256"}],"stateMutability":"view"},{"type":"function","name":"getTotalVested","inputs":[{"name":"_account","type":"address","internalType":"address"}],"outputs":[{"name":"","type":"uint256","internalType":"uint256"}],"stateMutability":"view"},{"type":"function","name":"getVestedAmount","inputs":[{"name":"_account","type":"address","internalType":"address"}],"outputs":[{"name":"","type":"uint256","internalType":"uint256"}],"stateMutability":"view"},{"type":"function","name":"gov","inputs":[],"outputs":[{"name":"","type":"address","internalType":"address"}],"stateMutability":"view"},{"type":"function","name":"hasMaxVestableAmount","inputs":[],"outputs":[{"name":"","type":"bool","internalType":"bool"}],"stateMutability":"view"},{"type":"function","name":"hasPairToken","inputs":[],"outputs":[{"name":"","type":"bool","internalType":"bool"}],"stateMutability":"view"},{"type":"function","name":"hasRewardTracker","inputs":[],"outputs":[{"name":"","type":"bool","internalType":"bool"}],"stateMutability":"view"},{"type":"function","name":"isHandler","inputs":[{"name":"","type":"address","internalType":"address"}],"outputs":[{"name":"","type":"bool","internalType":"bool"}],"stateMutability":"view"},{"type":"function","name":"lastVestingTimes","inputs":[{"name":"","type":"address","internalType":"address"}],"outputs":[{"name":"","type":"uint256","internalType":"uint256"}],"stateMutability":"view"},{"type":"function","name":"name","inputs":[],"outputs":[{"name":"","type":"string","internalType":"string"}],"stateMutability":"view"},{"type":"function","name":"pairAmounts","inputs":[{"name":"","type":"address","internalType":"address"}],"outputs":[{"name":"","type":"uint256","internalType":"uint256"}],"stateMutability":"view"},{"type":"function","name":"pairSupply","inputs":[],"outputs":[{"name":"","type":"uint256","internalType":"uint256"}],"stateMutability":"view"},{"type":"function","name":"pairToken","inputs":[],"outputs":[{"name":"","type":"address","internalType":"address"}],"stateMutability":"view"},{"type":"function","name":"rewardTracker","inputs":[],"outputs":[{"name":"","type":"address","internalType":"address"}],"stateMutability":"view"},{"type":"function","name":"setBonusRewards","inputs":[{"name":"_account","type":"address","internalType":"address"},{"name":"_amount","type":"uint256","internalType":"uint256"}],"outputs":[],"stateMutability":"nonpayable"},{"type":"function","name":"setCumulativeRewardDeductions","inputs":[{"name":"_account","type":"address","internalType":"address"},{"name":"_amount","type":"uint256","internalType":"uint256"}],"outputs":[],"stateMutability":"nonpayable"},{"type":"function","name":"setGov","inputs":[{"name":"_gov","type":"address","internalType":"address"}],"outputs":[],"stateMutability":"nonpayable"},{"type":"function","name":"setHandler","inputs":[{"name":"_handler","type":"address","internalType":"address"},{"name":"_isActive","type":"bool","internalType":"bool"}],"outputs":[],"stateMutability":"nonpayable"},{"type":"function","name":"setHasMaxVestableAmount","inputs":[{"name":"_hasMaxVestableAmount","type":"bool","internalType":"bool"}],"outputs":[],"stateMutability":"nonpayable"},{"type":"function","name":"setTransferredAverageStakedAmounts","inputs":[{"name":"_account","type":"address","internalType":"address"},{"name":"_amount","type":"uint256","internalType":"uint256"}],"outputs":[],"stateMutability":"nonpayable"},{"type":"function","name":"setTransferredCumulativeRewards","inputs":[{"name":"_account","type":"address","internalType":"address"},{"name":"_amount","type":"uint256","internalType":"uint256"}],"outputs":[],"stateMutability":"nonpayable"},{"type":"function","name":"symbol","inputs":[],"outputs":[{"name":"","type":"string","internalType":"string"}],"stateMutability":"view"},{"type":"function","name":"totalSupply","inputs":[],"outputs":[{"name":"","type":"uint256","internalType":"uint256"}],"stateMutability":"view"},{"type":"function","name":"transfer","inputs":[{"name":"","type":"address","internalType":"address"},{"name":"","type":"uint256","internalType":"uint256"}],"outputs":[{"name":"","type":"bool","internalType":"bool"}],"stateMutability":"nonpayable"},{"type":"function","name":"transferFrom","inputs":[{"name":"","type":"address","internalType":"address"},{"name":"","type":"address","internalType":"address"},{"name":"","type":"uint256","internalType":"uint256"}],"outputs":[{"name":"","type":"bool","internalType":"bool"}],"stateMutability":"nonpayable"},{"type":"function","name":"transferStakeValues","inputs":[{"name":"_sender","type":"address","internalType":"address"},{"name":"_receiver","type":"address","internalType":"address"}],"outputs":[],"stateMutability":"nonpayable"},{"type":"function","name":"transferredAverageStakedAmounts","inputs":[{"name":"","type":"address","internalType":"address"}],"outputs":[{"name":"","type":"uint256","internalType":"uint256"}],"stateMutability":"view"},{"type":"function","name":"transferredCumulativeRewards","inputs":[{"name":"","type":"address","internalType":"address"}],"outputs":[{"name":"","type":"uint256","internalType":"uint256"}],"stateMutability":"view"},{"type":"function","name":"vestingDuration","inputs":[],"outputs":[{"name":"","type":"uint256","internalType":"uint256"}],"stateMutability":"view"},{"type":"function","name":"withdraw","inputs":[],"outputs":[],"stateMutability":"nonpayable"},{"type":"function","name":"withdrawToken","inputs":[{"name":"_token","type":"address","internalType":"address"},{"name":"_account","type":"address","internalType":"address"},{"name":"_amount","type":"uint256","internalType":"uint256"}],"outputs":[],"stateMutability":"nonpayable"},{"type":"event","name":"Approval","inputs":[{"name":"owner","type":"address","indexed":true,"internalType":"address"},{"name":"spender","type":"address","indexed":true,"internalType":"address"},{"name":"value","type":"uint256","indexed":false,"internalType":"uint256"}],"anonymous":false},{"type":"event","name":"Claim","inputs":[{"name":"receiver","type":"address","indexed":false,"internalType":"address"},{"name":"amount","type":"uint256","indexed":false,"internalType":"uint256"}],"anonymous":false},{"type":"event","name":"Deposit","inputs":[{"name":"account","type":"address","indexed":false,"internalType":"address"},{"name":"amount","type":"uint256","indexed":false,"internalType":"uint256"}],"anonymous":false},{"type":"event","name":"PairTransfer","inputs":[{"name":"from","type":"address","indexed":true,"internalType":"address"},{"name":"to","type":"address","indexed":true,"internalType":"address"},{"name":"value","type":"uint256","indexed":false,"internalType":"uint256"}],"anonymous":false},{"type":"event","name":"Transfer","inputs":[{"name":"from","type":"address","indexed":true,"internalType":"address"},{"name":"to","type":"address","indexed":true,"internalType":"address"},{"name":"value","type":"uint256","indexed":false,"internalType":"uint256"}],"anonymous":false},{"type":"event","name":"Withdraw","inputs":[{"name":"account","type":"address","indexed":false,"internalType":"address"},{"name":"claimedAmount","type":"uint256","indexed":false,"internalType":"uint256"},{"name":"balance","type":"uint256","indexed":false,"internalType":"uint256"}],"anonymous":false}],"bytecode":{"object":"0x60806040526004805460ff191660121790553480156200001e57600080fd5b50604051620028fd380380620028fd833981810160405260e08110156200004457600080fd5b81019080805160405193929190846401000000008211156200006557600080fd5b9083019060208201858111156200007b57600080fd5b82516401000000008111828201881017156200009657600080fd5b82525081516020918201929091019080838360005b83811015620000c5578181015183820152602001620000ab565b50505050905090810190601f168015620000f35780820380516001836020036101000a031916815260200191505b50604052602001805160405193929190846401000000008211156200011757600080fd5b9083019060208201858111156200012d57600080fd5b82516401000000008111828201881017156200014857600080fd5b82525081516020918201929091019080838360005b83811015620001775781810151838201526020016200015d565b50505050905090810190601f168015620001a55780820380516001836020036101000a031916815260200191505b506040908152602082810151918301516060840151608085015160a0909501516001600081905580546001600160a01b03191633179055895194975091955093929091620001f9916002918a019062000280565b5085516200020f90600390602089019062000280565b506005859055600680546001600160a01b03199081166001600160a01b038781169190911790925560078054821686841617905560088054821685841617905560098054909116838316179081905516156200027357600c805460ff191660011790555b505050505050506200031c565b828054600181600116156101000203166002900490600052602060002090601f016020900481019282601f10620002c357805160ff1916838001178555620002f3565b82800160010185558215620002f3579182015b82811115620002f3578251825591602001919060010190620002d6565b506200030192915062000305565b5090565b5b8082111562000301576000815560010162000306565b6125d1806200032c6000396000f3fe608060405234801561001057600080fd5b50600436106102bb5760003560e01c806369de9b9311610182578063b5ff136d116100e9578063d75abb57116100a2578063e3ecc4b21161007c578063e3ecc4b2146108bf578063f421f62a146108eb578063f6d6d5aa146108f3578063f713c230146108fb576102bb565b8063d75abb571461085d578063d89b700714610865578063dd62ed3e14610891576102bb565b8063b5ff136d1461077c578063b6b55f25146107a2578063b71bce2a146107bf578063cfad57a2146107e5578063d0b038b71461080b578063d5a73fdd14610837576102bb565b8063930354731161013b57806393035473146106f257806395d89b41146107185780639cb7de4b14610720578063a2545fa51461074e578063a9059cbb146103ad578063acf077a514610774576102bb565b806369de9b931461062d5780636bcb411a1461064c57806370a082311461065457806371417b321461067a5780637337035c146106a05780637cf8f3b2146106c6576102bb565b806327e235e311610226578063402914f5116101df578063402914f51461056157806341f227241461058757806345f01ee6146105b357806346ea87af146105d95780634e71d92d146105ff5780635d50e72914610607576102bb565b806327e235e3146104bb578063313ce567146104e1578063342fcda9146104ff578063387a785d1461052b5780633ccfd60b146105515780633de35b7914610559576102bb565b806313e82e7a1161027857806313e82e7a146104375780631514617e1461046557806315e90a411461046d57806316ca05c51461047557806318160ddd1461047d57806323b872dd14610485576102bb565b806301e33667146102c057806306fdde03146102f857806308f26c7614610375578063095ea7b3146103ad5780630db9ea4a146103ed57806312d43a5114610413575b600080fd5b6102f6600480360360608110156102d657600080fd5b506001600160a01b03813581169160208101359091169060400135610929565b005b610300610999565b6040805160208082528351818301528351919283929083019185019080838360005b8381101561033a578181015183820152602001610322565b50505050905090810190601f1680156103675780820380516001836020036101000a031916815260200191505b509250505060405180910390f35b61039b6004803603602081101561038b57600080fd5b50356001600160a01b0316610a24565b60408051918252519081900360200190f35b6103d9600480360360408110156103c357600080fd5b506001600160a01b038135169060200135610b2d565b604080519115158252519081900360200190f35b61039b6004803603602081101561040357600080fd5b50356001600160a01b0316610b7c565b61041b610b8e565b604080516001600160a01b039092168252519081900360200190f35b61039b6004803603604081101561044d57600080fd5b506001600160a01b0381358116916020013516610b9d565b61039b610c08565b61039b610c0e565b61041b610c14565b61039b610c23565b6103d96004803603606081101561049b57600080fd5b506001600160a01b03813581169160208101359091169060400135610b2d565b61039b600480360360208110156104d157600080fd5b50356001600160a01b0316610c29565b6104e9610c3b565b6040805160ff9092168252519081900360200190f35b6102f66004803603604081101561051557600080fd5b506001600160a01b038135169060200135610c44565b61039b6004803603602081101561054157600080fd5b50356001600160a01b0316610caa565b6102f6610cbc565b61041b610e7f565b61039b6004803603602081101561057757600080fd5b50356001600160a01b0316610e8e565b6102f66004803603604081101561059d57600080fd5b506001600160a01b038135169060200135610edf565b61039b600480360360208110156105c957600080fd5b50356001600160a01b0316610f55565b6103d9600480360360208110156105ef57600080fd5b50356001600160a01b03166110c7565b61039b6110dc565b61039b6004803603602081101561061d57600080fd5b50356001600160a01b031661113d565b6102f66004803603602081101561064357600080fd5b5035151561114f565b61041b6111b9565b61039b6004803603602081101561066a57600080fd5b50356001600160a01b03166111c8565b61039b6004803603602081101561069057600080fd5b50356001600160a01b03166111e3565b61039b600480360360208110156106b657600080fd5b50356001600160a01b03166111f5565b61039b600480360360408110156106dc57600080fd5b506001600160a01b038135169060200135611207565b61039b6004803603602081101561070857600080fd5b50356001600160a01b031661126f565b61030061129c565b6102f66004803603604081101561073657600080fd5b506001600160a01b03813516906020013515156112f7565b61039b6004803603602081101561076457600080fd5b50356001600160a01b0316611379565b6103d961138b565b61039b6004803603602081101561079257600080fd5b50356001600160a01b0316611394565b6102f6600480360360208110156107b857600080fd5b50356113a6565b61039b600480360360208110156107d557600080fd5b50356001600160a01b0316611403565b6102f6600480360360208110156107fb57600080fd5b50356001600160a01b0316611415565b6102f66004803603604081101561082157600080fd5b506001600160a01b03813516906020013561148e565b61039b6004803603602081101561084d57600080fd5b50356001600160a01b0316611504565b6103d9611532565b6102f66004803603604081101561087b57600080fd5b506001600160a01b038135169060200135611543565b61039b600480360360408110156108a757600080fd5b506001600160a01b03813581169160200135166115b9565b6102f6600480360360408110156108d557600080fd5b506001600160a01b0381351690602001356115c1565b6103d9611637565b61041b611648565b6102f66004803603604081101561091157600080fd5b506001600160a01b0381358116916020013516611657565b6001546001600160a01b03163314610980576040805162461bcd60e51b815260206004820152601560248201527423b7bb32b93730b136329d103337b93134b23232b760591b604482015290519081900360640190fd5b6109946001600160a01b03841683836117c0565b505050565b6002805460408051602060018416156101000260001901909316849004601f81018490048402820184019092528181529291830182828015610a1c5780601f106109f157610100808354040283529160200191610a1c565b820191906000526020600020905b8154815290600101906020018083116109ff57829003601f168201915b505050505081565b6000610a2e611637565b610a3a57506000610b28565b6001600160a01b0380831660008181526013602090815260408083205460158352818420546009548351633792def360e01b81526004810197909752925191969095921692633792def39260248082019391829003018186803b158015610aa057600080fd5b505afa158015610ab4573d6000803e3d6000fd5b505050506040513d6020811015610aca57600080fd5b505190506000610ae483610ade8487611812565b90611812565b6001600160a01b03871660009081526014602052604090205490915080821015610b1657600095505050505050610b28565b610b208282611873565b955050505050505b919050565b6040805162461bcd60e51b815260206004820152601960248201527f5665737465723a206e6f6e2d7472616e736665727261626c65000000000000006044820152905160009181900360640190fd5b60116020526000908152604090205481565b6001546001600160a01b031681565b600060026000541415610be5576040805162461bcd60e51b815260206004820152601f60248201526000805160206124c8833981519152604482015290519081900360640190fd5b6002600055610bf26118b5565b610bfc838361190f565b60016000559392505050565b60055481565b600b5481565b6006546001600160a01b031681565b600a5481565b600d6020526000908152604090205481565b60045460ff1681565b60026000541415610c8a576040805162461bcd60e51b815260206004820152601f60248201526000805160206124c8833981519152604482015290519081900360640190fd5b6002600055610c976118b5565b610ca182826119c2565b50506001600055565b60146020526000908152604090205481565b60026000541415610d02576040805162461bcd60e51b815260206004820152601f60248201526000805160206124c8833981519152604482015290519081900360640190fd5b60026000553380610d13818061190f565b506001600160a01b0382166000908152600f6020908152604080832054600d9092528220549091610d448284611812565b905060008111610d9b576040805162461bcd60e51b815260206004820152601d60248201527f5665737465723a2076657374656420616d6f756e74206973207a65726f000000604482015290519081900360640190fd5b610da3611532565b15610de4576001600160a01b0385166000908152600e6020526040902054610dcb8682611b6a565b600754610de2906001600160a01b031686836117c0565b505b600654610dfb906001600160a01b031685846117c0565b610e058583611c5a565b6001600160a01b0385166000818152600f6020908152604080832083905560108252808320839055601182528083209290925581519283528201859052818101849052517ff279e6a1f5e320cca91135676d9cb6e44ca8a08c0b88342bcdb1144f6511b5689181900360600190a150506001600055505050565b6007546001600160a01b031681565b6001600160a01b038116600090815260106020908152604080832054600f9092528220548291610ebe9190611873565b90506000610ecb84611d4a565b9050610ed78282611812565b949350505050565b60026000541415610f25576040805162461bcd60e51b815260206004820152601f60248201526000805160206124c8833981519152604482015290519081900360640190fd5b6002600055610f326118b5565b6001600160a01b0390911660009081526015602052604081209190915560019055565b60095460408051633792def360e01b81526001600160a01b038481166004830152915160009384931691633792def3916024808301926020929190829003018186803b158015610fa457600080fd5b505afa158015610fb8573d6000803e3d6000fd5b505050506040513d6020811015610fce57600080fd5b50516001600160a01b038416600090815260136020526040812054919250610ff68383611812565b9050806110095760009350505050610b28565b6009546040805163a318021760e01b81526001600160a01b0388811660048301529151600093929092169163a318021791602480820192602092909190829003018186803b15801561105a57600080fd5b505afa15801561106e573d6000803e3d6000fd5b505050506040513d602081101561108457600080fd5b50516001600160a01b038716600090815260126020526040902054909150610b206110b9846110b38488611de3565b90611e3c565b610ade856110b3868a611de3565b60166020526000908152604090205460ff1681565b600060026000541415611124576040805162461bcd60e51b815260206004820152601f60248201526000805160206124c8833981519152604482015290519081900360640190fd5b6002600055611133338061190f565b9050600160005590565b600e6020526000908152604090205481565b6001546001600160a01b031633146111a6576040805162461bcd60e51b815260206004820152601560248201527423b7bb32b93730b136329d103337b93134b23232b760591b604482015290519081900360640190fd5b600c805460ff1916911515919091179055565b6009546001600160a01b031681565b6001600160a01b03166000908152600d602052604090205490565b60106020526000908152604090205481565b60126020526000908152604090205481565b6000611211611637565b61121d57506000611269565b600061122884610f55565b905080611239576000915050611269565b600061124485610a24565b90508061125657600092505050611269565b611264816110b38685611de3565b925050505b92915050565b6001600160a01b0381166000908152600f6020908152604080832054600d90925282205461126991611812565b6003805460408051602060026001851615610100026000190190941693909304601f81018490048402820184019092528181529291830182828015610a1c5780601f106109f157610100808354040283529160200191610a1c565b6001546001600160a01b0316331461134e576040805162461bcd60e51b815260206004820152601560248201527423b7bb32b93730b136329d103337b93134b23232b760591b604482015290519081900360640190fd5b6001600160a01b03919091166000908152601660205260409020805460ff1916911515919091179055565b60156020526000908152604090205481565b600c5460ff1681565b600f6020526000908152604090205481565b600260005414156113ec576040805162461bcd60e51b815260206004820152601f60248201526000805160206124c8833981519152604482015290519081900360640190fd5b60026000556113fb33826119c2565b506001600055565b60136020526000908152604090205481565b6001546001600160a01b0316331461146c576040805162461bcd60e51b815260206004820152601560248201527423b7bb32b93730b136329d103337b93134b23232b760591b604482015290519081900360640190fd5b600180546001600160a01b0319166001600160a01b0392909216919091179055565b600260005414156114d4576040805162461bcd60e51b815260206004820152601f60248201526000805160206124c8833981519152604482015290519081900360640190fd5b60026000556114e16118b5565b6001600160a01b0390911660009081526013602052604081209190915560019055565b6001600160a01b0381166000908152600d6020908152604080832054600f909252822054610ed78282611812565b6007546001600160a01b0316151590565b60026000541415611589576040805162461bcd60e51b815260206004820152601f60248201526000805160206124c8833981519152604482015290519081900360640190fd5b60026000556115966118b5565b6001600160a01b0390911660009081526014602052604081209190915560019055565b600092915050565b60026000541415611607576040805162461bcd60e51b815260206004820152601f60248201526000805160206124c8833981519152604482015290519081900360640190fd5b60026000556116146118b5565b6001600160a01b0390911660009081526012602052604081209190915560019055565b6009546001600160a01b0316151590565b6008546001600160a01b031681565b6002600054141561169d576040805162461bcd60e51b815260206004820152601f60248201526000805160206124c8833981519152604482015290519081900360640190fd5b60026000556116aa6118b5565b6116b382610f55565b6001600160a01b0380831660009081526012602090815260408083209490945585831680835284832083905560138252848320546009548651633792def360e01b815260048101939093529551909593949390931692633792def392602480840193919291829003018186803b15801561172c57600080fd5b505afa158015611740573d6000803e3d6000fd5b505050506040513d602081101561175657600080fd5b505190506117648282611812565b6001600160a01b0393841660008181526013602081815260408084209590955597909616808252601488528382209490945594865281852085905560159095528084208054958552908420949094558252509081905560019055565b604080516001600160a01b038416602482015260448082018490528251808303909101815260649091019091526020810180516001600160e01b031663a9059cbb60e01b179052610994908490611e7e565b60008282018381101561186c576040805162461bcd60e51b815260206004820152601b60248201527f536166654d6174683a206164646974696f6e206f766572666c6f770000000000604482015290519081900360640190fd5b9392505050565b600061186c83836040518060400160405280601e81526020017f536166654d6174683a207375627472616374696f6e206f766572666c6f770000815250611f2f565b3360009081526016602052604090205460ff1661190d576040805162461bcd60e51b81526020600482015260116024820152702b32b9ba32b91d103337b93134b23232b760791b604482015290519081900360640190fd5b565b600061191a83611fc6565b600061192584610e8e565b6001600160a01b03851660009081526010602052604090205490915061194b9082611812565b6001600160a01b03808616600090815260106020526040902091909155600854611977911684836117c0565b604080516001600160a01b03861681526020810183905281517f47cee97cb7acd717b3c0aa1435d004cd5b3c8c57d70dbceb4e4458bbd60e39d4929181900390910190a19392505050565b60008111611a17576040805162461bcd60e51b815260206004820152601760248201527f5665737465723a20696e76616c6964205f616d6f756e74000000000000000000604482015290519081900360640190fd5b611a2082611fc6565b600654611a38906001600160a01b03168330846120a4565b611a428282612104565b611a4a611532565b15611ac1576001600160a01b0382166000908152600e6020908152604080832054600d909252822054909190611a81908590611207565b905081811115611abe576000611a978284611873565b600754909150611ab2906001600160a01b03168630846120a4565b611abc85826121ea565b505b50505b600c5460ff1615611b22576000611ad783610a24565b905080611ae38461126f565b1115611b205760405162461bcd60e51b815260040180806020018281038252602481526020018061254e6024913960400191505060405180910390fd5b505b604080516001600160a01b03841681526020810183905281517fe1fffcc4923d04b559f4d29a8bfc6cda04eb5b0d3c460751c2402c5c5cc9109c929181900390910190a15050565b6001600160a01b038216611baf5760405162461bcd60e51b815260040180806020018281038252602281526020018061250b6022913960400191505060405180910390fd5b611bec816040518060600160405280602381526020016124e8602391396001600160a01b0385166000908152600e60205260409020549190611f2f565b6001600160a01b0383166000908152600e6020526040902055600b54611c129082611873565b600b556040805182815290516000916001600160a01b038516917f659523c479d006050ebc0d0e48fea36d1b2c5d45b2f31402ac6f8671fc84cc049181900360200190a35050565b6001600160a01b038216611c9f5760405162461bcd60e51b815260040180806020018281038252602281526020018061250b6022913960400191505060405180910390fd5b611cdc816040518060600160405280602381526020016124e8602391396001600160a01b0385166000908152600d60205260409020549190611f2f565b6001600160a01b0383166000908152600d6020526040902055600a54611d029082611873565b600a556040805182815290516000916001600160a01b038516917fddf252ad1be2c89b69c2b068fc378daa952ba7f163c4a11628f55a4df523b3ef9181900360200190a35050565b6001600160a01b0381166000908152601160205260408120548190611d70904290611873565b6001600160a01b0384166000908152600d602052604090205490915080611d9c57600092505050610b28565b6000611da785611504565b90506000611dc46005546110b38685611de390919063ffffffff16565b905082811015611dd9579350610b2892505050565b5090949350505050565b600082611df257506000611269565b82820282848281611dff57fe5b041461186c5760405162461bcd60e51b815260040180806020018281038252602181526020018061252d6021913960400191505060405180910390fd5b600061186c83836040518060400160405280601a81526020017f536166654d6174683a206469766973696f6e206279207a65726f0000000000008152506122d0565b6060611ed3826040518060400160405280602081526020017f5361666545524332303a206c6f772d6c6576656c2063616c6c206661696c6564815250856001600160a01b03166123359092919063ffffffff16565b80519091501561099457808060200190516020811015611ef257600080fd5b50516109945760405162461bcd60e51b815260040180806020018281038252602a815260200180612572602a913960400191505060405180910390fd5b60008184841115611fbe5760405162461bcd60e51b81526004018080602001828103825283818151815260200191508051906020019080838360005b83811015611f83578181015183820152602001611f6b565b50505050905090810190601f168015611fb05780820380516001836020036101000a031916815260200191505b509250505060405180910390fd5b505050900390565b6000611fd182611d4a565b6001600160a01b0383166000908152601160205260409020429055905080611ff957506120a1565b6120038282611c5a565b6001600160a01b0382166000908152600f60205260409020546120269082611812565b6001600160a01b038084166000908152600f6020526040808220939093556006548351632770a7eb60e21b8152306004820152602481018690529351921692639dc29fac926044808301939282900301818387803b15801561208757600080fd5b505af115801561209b573d6000803e3d6000fd5b50505050505b50565b604080516001600160a01b0380861660248301528416604482015260648082018490528251808303909101815260849091019091526020810180516001600160e01b03166323b872dd60e01b1790526120fe908590611e7e565b50505050565b6001600160a01b03821661215f576040805162461bcd60e51b815260206004820181905260248201527f5665737465723a206d696e7420746f20746865207a65726f2061646472657373604482015290519081900360640190fd5b600a5461216c9082611812565b600a556001600160a01b0382166000908152600d60205260409020546121929082611812565b6001600160a01b0383166000818152600d602090815260408083209490945583518581529351929391927fddf252ad1be2c89b69c2b068fc378daa952ba7f163c4a11628f55a4df523b3ef9281900390910190a35050565b6001600160a01b038216612245576040805162461bcd60e51b815260206004820181905260248201527f5665737465723a206d696e7420746f20746865207a65726f2061646472657373604482015290519081900360640190fd5b600b546122529082611812565b600b556001600160a01b0382166000908152600e60205260409020546122789082611812565b6001600160a01b0383166000818152600e602090815260408083209490945583518581529351929391927f659523c479d006050ebc0d0e48fea36d1b2c5d45b2f31402ac6f8671fc84cc049281900390910190a35050565b6000818361231f5760405162461bcd60e51b8152602060048201818152835160248401528351909283926044909101919085019080838360008315611f83578181015183820152602001611f6b565b50600083858161232b57fe5b0495945050505050565b6060610ed78484600085856123498561245b565b61239a576040805162461bcd60e51b815260206004820152601d60248201527f416464726573733a2063616c6c20746f206e6f6e2d636f6e7472616374000000604482015290519081900360640190fd5b60006060866001600160a01b031685876040518082805190602001908083835b602083106123d95780518252601f1990920191602091820191016123ba565b6001836020036101000a03801982511681845116808217855250505050505090500191505060006040518083038185875af1925050503d806000811461243b576040519150601f19603f3d011682016040523d82523d6000602084013e612440565b606091505b5091509150612450828286612461565b979650505050505050565b3b151590565b6060831561247057508161186c565b8251156124805782518084602001fd5b60405162461bcd60e51b8152602060048201818152845160248401528451859391928392604401919085019080838360008315611f83578181015183820152602001611f6b56fe5265656e7472616e637947756172643a207265656e7472616e742063616c6c005665737465723a206275726e20616d6f756e7420657863656564732062616c616e63655665737465723a206275726e2066726f6d20746865207a65726f2061646472657373536166654d6174683a206d756c7469706c69636174696f6e206f766572666c6f775665737465723a206d6178207665737461626c6520616d6f756e742065786365656465645361666545524332303a204552433230206f7065726174696f6e20646964206e6f742073756363656564a2646970667358221220938efb7899a0503b1302fb010bd350bb556f62bbf4b7aa864f5fc9b8efa81d3664736f6c634300060c0033","linkReferences":{}},"methodIdentifiers":{"allowance(address,address)":"dd62ed3e","approve(address,uint256)":"095ea7b3","balanceOf(address)":"70a08231","balances(address)":"27e235e3","bonusRewards(address)":"a2545fa5","claim()":"4e71d92d","claimForAccount(address,address)":"13e82e7a","claimable(address)":"402914f5","claimableToken()":"f6d6d5aa","claimedAmounts(address)":"71417b32","cumulativeClaimAmounts(address)":"b5ff136d","cumulativeRewardDeductions(address)":"387a785d","decimals()":"313ce567","deposit(uint256)":"b6b55f25","depositForAccount(address,uint256)":"342fcda9","esToken()":"16ca05c5","getCombinedAverageStakedAmount(address)":"45f01ee6","getMaxVestableAmount(address)":"08f26c76","getPairAmount(address,uint256)":"7cf8f3b2","getTotalVested(address)":"93035473","getVestedAmount(address)":"d5a73fdd","gov()":"12d43a51","hasMaxVestableAmount()":"acf077a5","hasPairToken()":"d75abb57","hasRewardTracker()":"f421f62a","isHandler(address)":"46ea87af","lastVestingTimes(address)":"0db9ea4a","name()":"06fdde03","pairAmounts(address)":"5d50e729","pairSupply()":"15e90a41","pairToken()":"3de35b79","rewardTracker()":"6bcb411a","setBonusRewards(address,uint256)":"41f22724","setCumulativeRewardDeductions(address,uint256)":"d89b7007","setGov(address)":"cfad57a2","setHandler(address,bool)":"9cb7de4b","setHasMaxVestableAmount(bool)":"69de9b93","setTransferredAverageStakedAmounts(address,uint256)":"e3ecc4b2","setTransferredCumulativeRewards(address,uint256)":"d0b038b7","symbol()":"95d89b41","totalSupply()":"18160ddd","transfer(address,uint256)":"a9059cbb","transferFrom(address,address,uint256)":"23b872dd","transferStakeValues(address,address)":"f713c230","transferredAverageStakedAmounts(address)":"7337035c","transferredCumulativeRewards(address)":"b71bce2a","vestingDuration()":"1514617e","withdraw()":"3ccfd60b","withdrawToken(address,address,uint256)":"01e33667"},"id":173}