{"abi":[{"type":"function","name":"BASIS_POINTS_DIVISOR","inputs":[],"outputs":[{"name":"","type":"uint256","internalType":"uint256"}],"stateMutability":"view"},{"type":"function","name":"POSITION_PROPS_LENGTH","inputs":[],"outputs":[{"name":"","type":"uint256","internalType":"uint256"}],"stateMutability":"view"},{"type":"function","name":"PRICE_PRECISION","inputs":[],"outputs":[{"name":"","type":"uint256","internalType":"uint256"}],"stateMutability":"view"},{"type":"function","name":"USDG_DECIMALS","inputs":[],"outputs":[{"name":"","type":"uint256","internalType":"uint256"}],"stateMutability":"view"},{"type":"function","name":"getAmountOut","inputs":[{"name":"_vault","type":"address","internalType":"contract IVault"},{"name":"_tokenIn","type":"address","internalType":"address"},{"name":"_tokenOut","type":"address","internalType":"address"},{"name":"_amountIn","type":"uint256","internalType":"uint256"}],"outputs":[{"name":"","type":"uint256","internalType":"uint256"},{"name":"","type":"uint256","internalType":"uint256"}],"stateMutability":"view"},{"type":"function","name":"getFeeBasisPoints","inputs":[{"name":"_vault","type":"address","internalType":"contract IVault"},{"name":"_tokenIn","type":"address","internalType":"address"},{"name":"_tokenOut","type":"address","internalType":"address"},{"name":"_amountIn","type":"uint256","internalType":"uint256"}],"outputs":[{"name":"","type":"uint256","internalType":"uint256"},{"name":"","type":"uint256","internalType":"uint256"},{"name":"","type":"uint256","internalType":"uint256"}],"stateMutability":"view"},{"type":"function","name":"getFees","inputs":[{"name":"_vault","type":"address","internalType":"address"},{"name":"_tokens","type":"address[]","internalType":"address[]"}],"outputs":[{"name":"","type":"uint256[]","internalType":"uint256[]"}],"stateMutability":"view"},{"type":"function","name":"getFullVaultTokenInfo","inputs":[{"name":"_vault","type":"address","internalType":"address"},{"name":"_weth","type":"address","internalType":"address"},{"name":"_usdgAmount","type":"uint256","internalType":"uint256"},{"name":"_tokens","type":"address[]","internalType":"address[]"}],"outputs":[{"name":"","type":"uint256[]","internalType":"uint256[]"}],"stateMutability":"view"},{"type":"function","name":"getFundingRates","inputs":[{"name":"_vault","type":"address","internalType":"address"},{"name":"_weth","type":"address","internalType":"address"},{"name":"_tokens","type":"address[]","internalType":"address[]"}],"outputs":[{"name":"","type":"uint256[]","internalType":"uint256[]"}],"stateMutability":"view"},{"type":"function","name":"getMaxAmountIn","inputs":[{"name":"_vault","type":"address","internalType":"contract IVault"},{"name":"_tokenIn","type":"address","internalType":"address"},{"name":"_tokenOut","type":"address","internalType":"address"}],"outputs":[{"name":"","type":"uint256","internalType":"uint256"}],"stateMutability":"view"},{"type":"function","name":"getPairInfo","inputs":[{"name":"_factory","type":"address","internalType":"address"},{"name":"_tokens","type":"address[]","internalType":"address[]"}],"outputs":[{"name":"","type":"uint256[]","internalType":"uint256[]"}],"stateMutability":"view"},{"type":"function","name":"getPositions","inputs":[{"name":"_vault","type":"address","internalType":"address"},{"name":"_account","type":"address","internalType":"address"},{"name":"_collateralTokens","type":"address[]","internalType":"address[]"},{"name":"_indexTokens","type":"address[]","internalType":"address[]"},{"name":"_isLong","type":"bool[]","internalType":"bool[]"}],"outputs":[{"name":"","type":"uint256[]","internalType":"uint256[]"}],"stateMutability":"view"},{"type":"function","name":"getPrices","inputs":[{"name":"_priceFeed","type":"address","internalType":"contract IVaultPriceFeed"},{"name":"_tokens","type":"address[]","internalType":"address[]"}],"outputs":[{"name":"","type":"uint256[]","internalType":"uint256[]"}],"stateMutability":"view"},{"type":"function","name":"getStakingInfo","inputs":[{"name":"_account","type":"address","internalType":"address"},{"name":"_yieldTrackers","type":"address[]","internalType":"address[]"}],"outputs":[{"name":"","type":"uint256[]","internalType":"uint256[]"}],"stateMutability":"view"},{"type":"function","name":"getTokenBalances","inputs":[{"name":"_account","type":"address","internalType":"address"},{"name":"_tokens","type":"address[]","internalType":"address[]"}],"outputs":[{"name":"","type":"uint256[]","internalType":"uint256[]"}],"stateMutability":"view"},{"type":"function","name":"getTokenBalancesWithSupplies","inputs":[{"name":"_account","type":"address","internalType":"address"},{"name":"_tokens","type":"address[]","internalType":"address[]"}],"outputs":[{"name":"","type":"uint256[]","internalType":"uint256[]"}],"stateMutability":"view"},{"type":"function","name":"getTokenSupply","inputs":[{"name":"_token","type":"address","internalType":"contract IERC20"},{"name":"_excludedAccounts","type":"address[]","internalType":"address[]"}],"outputs":[{"name":"","type":"uint256","internalType":"uint256"}],"stateMutability":"view"},{"type":"function","name":"getTotalBalance","inputs":[{"name":"_token","type":"address","internalType":"contract IERC20"},{"name":"_accounts","type":"address[]","internalType":"address[]"}],"outputs":[{"name":"","type":"uint256","internalType":"uint256"}],"stateMutability":"view"},{"type":"function","name":"getTotalStaked","inputs":[{"name":"_yieldTokens","type":"address[]","internalType":"address[]"}],"outputs":[{"name":"","type":"uint256[]","internalType":"uint256[]"}],"stateMutability":"view"},{"type":"function","name":"getVaultTokenInfo","inputs":[{"name":"_vault","type":"address","internalType":"address"},{"name":"_weth","type":"address","internalType":"address"},{"name":"_usdgAmount","type":"uint256","internalType":"uint256"},{"name":"_tokens","type":"address[]","internalType":"address[]"}],"outputs":[{"name":"","type":"uint256[]","internalType":"uint256[]"}],"stateMutability":"view"},{"type":"function","name":"getVaultTokenInfoV2","inputs":[{"name":"_vault","type":"address","internalType":"address"},{"name":"_weth","type":"address","internalType":"address"},{"name":"_usdgAmount","type":"uint256","internalType":"uint256"},{"name":"_tokens","type":"address[]","internalType":"address[]"}],"outputs":[{"name":"","type":"uint256[]","internalType":"uint256[]"}],"stateMutability":"view"},{"type":"function","name":"getVestingInfo","inputs":[{"name":"_account","type":"address","internalType":"address"},{"name":"_vesters","type":"address[]","internalType":"address[]"}],"outputs":[{"name":"","type":"uint256[]","internalType":"uint256[]"}],"stateMutability":"view"},{"type":"function","name":"gov","inputs":[],"outputs":[{"name":"","type":"address","internalType":"address"}],"stateMutability":"view"},{"type":"function","name":"hasMaxGlobalShortSizes","inputs":[],"outputs":[{"name":"","type":"bool","internalType":"bool"}],"stateMutability":"view"},{"type":"function","name":"setConfig","inputs":[{"name":"_hasMaxGlobalShortSizes","type":"bool","internalType":"bool"}],"outputs":[],"stateMutability":"nonpayable"},{"type":"function","name":"setGov","inputs":[{"name":"_gov","type":"address","internalType":"address"}],"outputs":[],"stateMutability":"nonpayable"}],"bytecode":{"object":"0x608060405234801561001057600080fd5b50600080546001600160a01b03191633179055615a5880620000336000396000f3fe608060405234801561001057600080fd5b506004361061018e5760003560e01c8063937a0be8116100de578063c6f1d67611610097578063d802178e11610071578063d802178e14610bc0578063dc383cab14610c71578063f3535e6c14610e2f578063fbdb05ca14610e675761018e565b8063c6f1d67614610b29578063cfad57a214610b45578063d7176ca914610b6b5761018e565b8063937a0be8146108dc57806395082d251461098d57806395a7535a146109955780639b0183c314610a4f578063a4543ead14610a70578063ad7e549714610b215761018e565b80633613d5271161014b5780637b906e93116101255780637b906e93146106a157806386d4d0f514610762578063870d917c146108135780638e83ca321461081b5761018e565b80633613d527146104e5578063440f018c1461059657806348211934146105f05761018e565b8063126082cf1461019357806312d43a51146101ad57806320542568146101d15780632413c8c1146102e25780632ac0184c146103835780632e3e334214610434575b600080fd5b61019b610f18565b60408051918252519081900360200190f35b6101b5610f1e565b604080516001600160a01b039092168252519081900360200190f35b610292600480360360808110156101e757600080fd5b6001600160a01b03823581169260208101359091169160408201359190810190608081016060820135600160201b81111561022157600080fd5b82018360208201111561023357600080fd5b803590602001918460208302840111600160201b8311171561025457600080fd5b919080806020026020016040519081016040528093929190818152602001838360200280828437600092019190915250929550610f2d945050505050565b60408051602080825283518183015283519192839290830191858101910280838360005b838110156102ce5781810151838201526020016102b6565b505050509050019250505060405180910390f35b610292600480360360208110156102f857600080fd5b810190602081018135600160201b81111561031257600080fd5b82018360208201111561032457600080fd5b803590602001918460208302840111600160201b8311171561034557600080fd5b91908080602002602001604051908101604052809392919081815260200183836020028082843760009201919091525092955061163b945050505050565b61019b6004803603604081101561039957600080fd5b6001600160a01b038235169190810190604081016020820135600160201b8111156103c357600080fd5b8201836020820111156103d557600080fd5b803590602001918460208302840111600160201b831117156103f657600080fd5b919080806020026020016040519081016040528093929190818152602001838360200280828437600092019190915250929550611734945050505050565b6102926004803603604081101561044a57600080fd5b6001600160a01b038235169190810190604081016020820135600160201b81111561047457600080fd5b82018360208201111561048657600080fd5b803590602001918460208302840111600160201b831117156104a757600080fd5b91908080602002602001604051908101604052809392919081815260200183836020028082843760009201919091525092955061185f945050505050565b610292600480360360408110156104fb57600080fd5b6001600160a01b038235169190810190604081016020820135600160201b81111561052557600080fd5b82018360208201111561053757600080fd5b803590602001918460208302840111600160201b8311171561055857600080fd5b919080806020026020016040519081016040528093929190818152602001838360200280828437600092019190915250929550611a64945050505050565b6105d2600480360360808110156105ac57600080fd5b506001600160a01b03813581169160208101358216916040820135169060600135611e9e565b60408051938452602084019290925282820152519081900360600190f35b6102926004803603604081101561060657600080fd5b6001600160a01b038235169190810190604081016020820135600160201b81111561063057600080fd5b82018360208201111561064257600080fd5b803590602001918460208302840111600160201b8311171561066357600080fd5b919080806020026020016040519081016040528093929190818152602001838360200280828437600092019190915250929550612404945050505050565b610292600480360360808110156106b757600080fd5b6001600160a01b03823581169260208101359091169160408201359190810190608081016060820135600160201b8111156106f157600080fd5b82018360208201111561070357600080fd5b803590602001918460208302840111600160201b8311171561072457600080fd5b9190808060200260200160405190810160405280939291908181526020018383602002808284376000920191909152509295506128b8945050505050565b6102926004803603604081101561077857600080fd5b6001600160a01b038235169190810190604081016020820135600160201b8111156107a257600080fd5b8201836020820111156107b457600080fd5b803590602001918460208302840111600160201b831117156107d557600080fd5b9190808060200260200160405190810160405280939291908181526020018383602002808284376000920191909152509295506130e9945050505050565b61019b6131e9565b6102926004803603608081101561083157600080fd5b6001600160a01b03823581169260208101359091169160408201359190810190608081016060820135600160201b81111561086b57600080fd5b82018360208201111561087d57600080fd5b803590602001918460208302840111600160201b8311171561089e57600080fd5b9190808060200260200160405190810160405280939291908181526020018383602002808284376000920191909152509295506131ee945050505050565b610292600480360360408110156108f257600080fd5b6001600160a01b038235169190810190604081016020820135600160201b81111561091c57600080fd5b82018360208201111561092e57600080fd5b803590602001918460208302840111600160201b8311171561094f57600080fd5b919080806020026020016040519081016040528093929190818152602001838360200280828437600092019190915250929550613b6b945050505050565b61019b613d00565b610292600480360360608110156109ab57600080fd5b6001600160a01b038235811692602081013590911691810190606081016040820135600160201b8111156109de57600080fd5b8201836020820111156109f057600080fd5b803590602001918460208302840111600160201b83111715610a1157600080fd5b919080806020026020016040519081016040528093929190818152602001838360200280828437600092019190915250929550613d11945050505050565b610a6e60048036036020811015610a6557600080fd5b503515156141df565b005b61029260048036036040811015610a8657600080fd5b6001600160a01b038235169190810190604081016020820135600160201b811115610ab057600080fd5b820183602082011115610ac257600080fd5b803590602001918460208302840111600160201b83111715610ae357600080fd5b919080806020026020016040519081016040528093929190818152602001838360200280828437600092019190915250929550614254945050505050565b61019b6144c0565b610b316144c5565b604080519115158252519081900360200190f35b610a6e60048036036020811015610b5b57600080fd5b50356001600160a01b03166144d5565b610ba760048036036080811015610b8157600080fd5b506001600160a01b0381358116916020810135821691604082013516906060013561454e565b6040805192835260208301919091528051918290030190f35b61029260048036036040811015610bd657600080fd5b6001600160a01b038235169190810190604081016020820135600160201b811115610c0057600080fd5b820183602082011115610c1257600080fd5b803590602001918460208302840111600160201b83111715610c3357600080fd5b919080806020026020016040519081016040528093929190818152602001838360200280828437600092019190915250929550614c05945050505050565b610292600480360360a0811015610c8757600080fd5b6001600160a01b038235811692602081013590911691810190606081016040820135600160201b811115610cba57600080fd5b820183602082011115610ccc57600080fd5b803590602001918460208302840111600160201b83111715610ced57600080fd5b9190808060200260200160405190810160405280939291908181526020018383602002808284376000920191909152509295949360208101935035915050600160201b811115610d3c57600080fd5b820183602082011115610d4e57600080fd5b803590602001918460208302840111600160201b83111715610d6f57600080fd5b9190808060200260200160405190810160405280939291908181526020018383602002808284376000920191909152509295949360208101935035915050600160201b811115610dbe57600080fd5b820183602082011115610dd057600080fd5b803590602001918460208302840111600160201b83111715610df157600080fd5b919080806020026020016040519081016040528093929190818152602001838360200280828437600092019190915250929550614d51945050505050565b61019b60048036036060811015610e4557600080fd5b506001600160a01b03813581169160208101358216916040909101351661514d565b61019b60048036036040811015610e7d57600080fd5b6001600160a01b038235169190810190604081016020820135600160201b811115610ea757600080fd5b820183602082011115610eb957600080fd5b803590602001918460208302840111600160201b83111715610eda57600080fd5b919080806020026020016040519081016040528093929190818152602001838360200280828437600092019190915250929550615715945050505050565b61271081565b6000546001600160a01b031681565b60606000600a905060008690506000816001600160a01b031663741bef1a6040518163ffffffff1660e01b815260040160206040518083038186803b158015610f7557600080fd5b505afa158015610f89573d6000803e3d6000fd5b505050506040513d6020811015610f9f57600080fd5b5051855190915060609084026001600160401b0381118015610fc057600080fd5b50604051908082528060200260200182016040528015610fea578160200160208202803683370190505b50905060005b865181101561162e57600087828151811061100757fe5b6020026020010151905060006001600160a01b0316816001600160a01b0316141561102f5750885b846001600160a01b03166352f55eed826040518263ffffffff1660e01b815260040180826001600160a01b0316815260200191505060206040518083038186803b15801561107c57600080fd5b505afa158015611090573d6000803e3d6000fd5b505050506040513d60208110156110a657600080fd5b5051835184908489029081106110b857fe5b602002602001018181525050846001600160a01b031663c3c7b9e9826040518263ffffffff1660e01b815260040180826001600160a01b0316815260200191505060206040518083038186803b15801561111157600080fd5b505afa158015611125573d6000803e3d6000fd5b505050506040513d602081101561113b57600080fd5b5051835184906001858a020190811061115057fe5b602002602001018181525050846001600160a01b0316631aa4ace5826040518263ffffffff1660e01b815260040180826001600160a01b0316815260200191505060206040518083038186803b1580156111a957600080fd5b505afa1580156111bd573d6000803e3d6000fd5b505050506040513d60208110156111d357600080fd5b5051835184906002858a02019081106111e857fe5b602002602001018181525050846001600160a01b0316632c668ec1828b6040518363ffffffff1660e01b815260040180836001600160a01b031681526020018281526020019250505060206040518083038186803b15801561124957600080fd5b505afa15801561125d573d6000803e3d6000fd5b505050506040513d602081101561127357600080fd5b5051835184906003858a020190811061128857fe5b602002602001018181525050846001600160a01b031663ab2f3ad4826040518263ffffffff1660e01b815260040180826001600160a01b0316815260200191505060206040518083038186803b1580156112e157600080fd5b505afa1580156112f5573d6000803e3d6000fd5b505050506040513d602081101561130b57600080fd5b5051835184906004858a020190811061132057fe5b602002602001018181525050846001600160a01b03166381a612d6826040518263ffffffff1660e01b815260040180826001600160a01b0316815260200191505060206040518083038186803b15801561137957600080fd5b505afa15801561138d573d6000803e3d6000fd5b505050506040513d60208110156113a357600080fd5b5051835184906005858a02019081106113b857fe5b602002602001018181525050846001600160a01b031663e124e6d2826040518263ffffffff1660e01b815260040180826001600160a01b0316815260200191505060206040518083038186803b15801561141157600080fd5b505afa158015611425573d6000803e3d6000fd5b505050506040513d602081101561143b57600080fd5b5051835184906006858a020190811061145057fe5b602002602001018181525050846001600160a01b031663f07456ce826040518263ffffffff1660e01b815260040180826001600160a01b0316815260200191505060206040518083038186803b1580156114a957600080fd5b505afa1580156114bd573d6000803e3d6000fd5b505050506040513d60208110156114d357600080fd5b5051835184906007858a02019081106114e857fe5b602090810291909101810191909152604080516356c8c2c160e01b81526001600160a01b038481166004830152600060248301529151918716926356c8c2c192604480840193829003018186803b15801561154257600080fd5b505afa158015611556573d6000803e3d6000fd5b505050506040513d602081101561156c57600080fd5b5051835184906008858a020190811061158157fe5b602090810291909101810191909152604080516356c8c2c160e01b81526001600160a01b038481166004830152600160248301529151918716926356c8c2c192604480840193829003018186803b1580156115db57600080fd5b505afa1580156115ef573d6000803e3d6000fd5b505050506040513d602081101561160557600080fd5b5051835184906009858a020190811061161a57fe5b602090810291909101015250600101610ff0565b5098975050505050505050565b60608082516001600160401b038111801561165557600080fd5b5060405190808252806020026020018201604052801561167f578160200160208202803683370190505b50905060005b835181101561172d57600084828151811061169c57fe5b60200260200101519050806001600160a01b031663817b1cd26040518163ffffffff1660e01b815260040160206040518083038186803b1580156116df57600080fd5b505afa1580156116f3573d6000803e3d6000fd5b505050506040513d602081101561170957600080fd5b5051835184908490811061171957fe5b602090810291909101015250600101611685565b5092915050565b600080836001600160a01b03166318160ddd6040518163ffffffff1660e01b815260040160206040518083038186803b15801561177057600080fd5b505afa158015611784573d6000803e3d6000fd5b505050506040513d602081101561179a57600080fd5b5051905060005b83518110156118555760008482815181106117b857fe5b602002602001015190506000866001600160a01b03166370a08231836040518263ffffffff1660e01b815260040180826001600160a01b0316815260200191505060206040518083038186803b15801561181157600080fd5b505afa158015611825573d6000803e3d6000fd5b505050506040513d602081101561183b57600080fd5b5051905061184984826157ce565b935050506001016117a1565b5090505b92915050565b60606000600290506060818451026001600160401b038111801561188257600080fd5b506040519080825280602002602001820160405280156118ac578160200160208202803683370190505b50905060005b8451811015611a5b5760008582815181106118c957fe5b6020026020010151905060006001600160a01b0316816001600160a01b0316141561193857866001600160a01b031631838584028151811061190757fe5b6020026020010181815250506000838584026001018151811061192657fe5b60200260200101818152505050611a53565b806001600160a01b03166370a08231886040518263ffffffff1660e01b815260040180826001600160a01b0316815260200191505060206040518083038186803b15801561198557600080fd5b505afa158015611999573d6000803e3d6000fd5b505050506040513d60208110156119af57600080fd5b5051835184908487029081106119c157fe5b602002602001018181525050806001600160a01b03166318160ddd6040518163ffffffff1660e01b815260040160206040518083038186803b158015611a0657600080fd5b505afa158015611a1a573d6000803e3d6000fd5b505050506040513d6020811015611a3057600080fd5b505183518490600185880201908110611a4557fe5b602002602001018181525050505b6001016118b2565b50949350505050565b60606000600690506060818451026001600160401b0381118015611a8757600080fd5b50604051908082528060200260200182016040528015611ab1578160200160208202803683370190505b50905060005b8451811015611a5b576000858281518110611ace57fe5b602090810291909101810151604080516317e1d38560e11b81526001600160a01b0380841660048301526001602483018190526044830152600060648301529151929450908a1692632fc3a70a92608480840193829003018186803b158015611b3657600080fd5b505afa158015611b4a573d6000803e3d6000fd5b505050506040513d6020811015611b6057600080fd5b505183518490848702908110611b7257fe5b602090810291909101810191909152604080516317e1d38560e11b81526001600160a01b0384811660048301526000602483018190526001604484015260648301529151918a1692632fc3a70a92608480840193829003018186803b158015611bda57600080fd5b505afa158015611bee573d6000803e3d6000fd5b505050506040513d6020811015611c0457600080fd5b505183518490600185880201908110611c1957fe5b602090810291909101810191909152604080516356c8c2c160e01b81526001600160a01b038481166004830152600160248301529151918a16926356c8c2c192604480840193829003018186803b158015611c7357600080fd5b505afa158015611c87573d6000803e3d6000fd5b505050506040513d6020811015611c9d57600080fd5b505183518490600285880201908110611cb257fe5b602090810291909101810191909152604080516356c8c2c160e01b81526001600160a01b038481166004830152600060248301529151918a16926356c8c2c192604480840193829003018186803b158015611d0c57600080fd5b505afa158015611d20573d6000803e3d6000fd5b505050506040513d6020811015611d3657600080fd5b505183518490600385880201908110611d4b57fe5b602002602001018181525050866001600160a01b0316636ce8a44b826040518263ffffffff1660e01b815260040180826001600160a01b0316815260200191505060206040518083038186803b158015611da457600080fd5b505afa158015611db8573d6000803e3d6000fd5b505050506040513d6020811015611dce57600080fd5b5051611ddb576000611dde565b60015b60ff168385840260040181518110611df257fe5b602002602001018181525050866001600160a01b03166348cac277826040518263ffffffff1660e01b815260040180826001600160a01b0316815260200191505060206040518083038186803b158015611e4b57600080fd5b505afa158015611e5f573d6000803e3d6000fd5b505050506040513d6020811015611e7557600080fd5b505183518490600585880201908110611e8a57fe5b602090810291909101015250600101611ab7565b600080600080876001600160a01b03166381a612d6886040518263ffffffff1660e01b815260040180826001600160a01b0316815260200191505060206040518083038186803b158015611ef157600080fd5b505afa158015611f05573d6000803e3d6000fd5b505050506040513d6020811015611f1b57600080fd5b5051604080516323b95ceb60e21b81526001600160a01b038a811660048301529151929350600092918b1691638ee573ac91602480820192602092909190829003018186803b158015611f6d57600080fd5b505afa158015611f81573d6000803e3d6000fd5b505050506040513d6020811015611f9757600080fd5b505190506000611fbe6c0c9f2c9cd04674edea40000000611fb88986615810565b90615869565b9050611fda600a83900a611fb883670de0b6b3a7640000615810565b905060008a6001600160a01b03166342b60b038b6040518263ffffffff1660e01b815260040180826001600160a01b0316815260200191505060206040518083038186803b15801561202b57600080fd5b505afa15801561203f573d6000803e3d6000fd5b505050506040513d602081101561205557600080fd5b505180156120d857508a6001600160a01b03166342b60b038a6040518263ffffffff1660e01b815260040180826001600160a01b0316815260200191505060206040518083038186803b1580156120ab57600080fd5b505afa1580156120bf573d6000803e3d6000fd5b505050506040513d60208110156120d557600080fd5b50515b905060008161214b578b6001600160a01b031663a22f23926040518163ffffffff1660e01b815260040160206040518083038186803b15801561211a57600080fd5b505afa15801561212e573d6000803e3d6000fd5b505050506040513d602081101561214457600080fd5b50516121b1565b8b6001600160a01b031663df73a2676040518163ffffffff1660e01b815260040160206040518083038186803b15801561218457600080fd5b505afa158015612198573d6000803e3d6000fd5b505050506040513d60208110156121ae57600080fd5b50515b9050600082612224578c6001600160a01b0316637a210a2b6040518163ffffffff1660e01b815260040160206040518083038186803b1580156121f357600080fd5b505afa158015612207573d6000803e3d6000fd5b505050506040513d602081101561221d57600080fd5b505161228a565b8c6001600160a01b03166310eb56c26040518163ffffffff1660e01b815260040160206040518083038186803b15801561225d57600080fd5b505afa158015612271573d6000803e3d6000fd5b505050506040513d602081101561228757600080fd5b50515b905060008d6001600160a01b031663c7e074c38e87868660016040518663ffffffff1660e01b815260040180866001600160a01b0316815260200185815260200184815260200183815260200182151581526020019550505050505060206040518083038186803b1580156122fe57600080fd5b505afa158015612312573d6000803e3d6000fd5b505050506040513d602081101561232857600080fd5b8101908080519060200190929190505050905060008e6001600160a01b031663c7e074c38e88878760006040518663ffffffff1660e01b815260040180866001600160a01b0316815260200185815260200184815260200183815260200182151581526020019550505050505060206040518083038186803b1580156123ad57600080fd5b505afa1580156123c1573d6000803e3d6000fd5b505050506040513d60208110156123d757600080fd5b5051905060008183116123ea57816123ec565b825b9b509199509750505050505050509450945094915050565b60606000600790506060818451026001600160401b038111801561242757600080fd5b50604051908082528060200260200182016040528015612451578160200160208202803683370190505b50905060005b8451811015611a5b57600085828151811061246e57fe5b60200260200101519050806001600160a01b0316635d50e729886040518263ffffffff1660e01b815260040180826001600160a01b0316815260200191505060206040518083038186803b1580156124c557600080fd5b505afa1580156124d9573d6000803e3d6000fd5b505050506040513d60208110156124ef57600080fd5b50518351849084870290811061250157fe5b602002602001018181525050806001600160a01b031663d5a73fdd886040518263ffffffff1660e01b815260040180826001600160a01b0316815260200191505060206040518083038186803b15801561255a57600080fd5b505afa15801561256e573d6000803e3d6000fd5b505050506040513d602081101561258457600080fd5b50518351849060018588020190811061259957fe5b6020026020010181815250508582815181106125b157fe5b60200260200101516001600160a01b03166370a08231886040518263ffffffff1660e01b815260040180826001600160a01b0316815260200191505060206040518083038186803b15801561260557600080fd5b505afa158015612619573d6000803e3d6000fd5b505050506040513d602081101561262f57600080fd5b50518351849060028588020190811061264457fe5b602002602001018181525050806001600160a01b03166371417b32886040518263ffffffff1660e01b815260040180826001600160a01b0316815260200191505060206040518083038186803b15801561269d57600080fd5b505afa1580156126b1573d6000803e3d6000fd5b505050506040513d60208110156126c757600080fd5b5051835184906003858802019081106126dc57fe5b602002602001018181525050806001600160a01b031663402914f5886040518263ffffffff1660e01b815260040180826001600160a01b0316815260200191505060206040518083038186803b15801561273557600080fd5b505afa158015612749573d6000803e3d6000fd5b505050506040513d602081101561275f57600080fd5b50518351849060048588020190811061277457fe5b602002602001018181525050806001600160a01b03166308f26c76886040518263ffffffff1660e01b815260040180826001600160a01b0316815260200191505060206040518083038186803b1580156127cd57600080fd5b505afa1580156127e1573d6000803e3d6000fd5b505050506040513d60208110156127f757600080fd5b50518351849060058588020190811061280c57fe5b602002602001018181525050806001600160a01b03166345f01ee6886040518263ffffffff1660e01b815260040180826001600160a01b0316815260200191505060206040518083038186803b15801561286557600080fd5b505afa158015612879573d6000803e3d6000fd5b505050506040513d602081101561288f57600080fd5b5051835184906006858802019081106128a457fe5b602090810291909101015250600101612457565b60606000600c905060008690506000816001600160a01b031663741bef1a6040518163ffffffff1660e01b815260040160206040518083038186803b15801561290057600080fd5b505afa158015612914573d6000803e3d6000fd5b505050506040513d602081101561292a57600080fd5b5051855190915060609084026001600160401b038111801561294b57600080fd5b50604051908082528060200260200182016040528015612975578160200160208202803683370190505b50905060005b865181101561162e57600087828151811061299257fe5b6020026020010151905060006001600160a01b0316816001600160a01b031614156129ba5750885b846001600160a01b03166352f55eed826040518263ffffffff1660e01b815260040180826001600160a01b0316815260200191505060206040518083038186803b158015612a0757600080fd5b505afa158015612a1b573d6000803e3d6000fd5b505050506040513d6020811015612a3157600080fd5b505183518490848902908110612a4357fe5b602002602001018181525050846001600160a01b031663c3c7b9e9826040518263ffffffff1660e01b815260040180826001600160a01b0316815260200191505060206040518083038186803b158015612a9c57600080fd5b505afa158015612ab0573d6000803e3d6000fd5b505050506040513d6020811015612ac657600080fd5b5051835184906001858a0201908110612adb57fe5b602002602001018181525050846001600160a01b0316631aa4ace5826040518263ffffffff1660e01b815260040180826001600160a01b0316815260200191505060206040518083038186803b158015612b3457600080fd5b505afa158015612b48573d6000803e3d6000fd5b505050506040513d6020811015612b5e57600080fd5b5051835184906002858a0201908110612b7357fe5b602002602001018181525050846001600160a01b0316632c668ec1828b6040518363ffffffff1660e01b815260040180836001600160a01b031681526020018281526020019250505060206040518083038186803b158015612bd457600080fd5b505afa158015612be8573d6000803e3d6000fd5b505050506040513d6020811015612bfe57600080fd5b5051835184906003858a0201908110612c1357fe5b602002602001018181525050846001600160a01b031663ab2f3ad4826040518263ffffffff1660e01b815260040180826001600160a01b0316815260200191505060206040518083038186803b158015612c6c57600080fd5b505afa158015612c80573d6000803e3d6000fd5b505050506040513d6020811015612c9657600080fd5b5051835184906004858a0201908110612cab57fe5b602002602001018181525050846001600160a01b0316634a993ee9826040518263ffffffff1660e01b815260040180826001600160a01b0316815260200191505060206040518083038186803b158015612d0457600080fd5b505afa158015612d18573d6000803e3d6000fd5b505050506040513d6020811015612d2e57600080fd5b5051835184906005858a0201908110612d4357fe5b602002602001018181525050846001600160a01b031663ad1e4f8d826040518263ffffffff1660e01b815260040180826001600160a01b0316815260200191505060206040518083038186803b158015612d9c57600080fd5b505afa158015612db0573d6000803e3d6000fd5b505050506040513d6020811015612dc657600080fd5b5051835184906006858a0201908110612ddb57fe5b602002602001018181525050846001600160a01b03166381a612d6826040518263ffffffff1660e01b815260040180826001600160a01b0316815260200191505060206040518083038186803b158015612e3457600080fd5b505afa158015612e48573d6000803e3d6000fd5b505050506040513d6020811015612e5e57600080fd5b5051835184906007858a0201908110612e7357fe5b602002602001018181525050846001600160a01b031663e124e6d2826040518263ffffffff1660e01b815260040180826001600160a01b0316815260200191505060206040518083038186803b158015612ecc57600080fd5b505afa158015612ee0573d6000803e3d6000fd5b505050506040513d6020811015612ef657600080fd5b5051835184906008858a0201908110612f0b57fe5b602002602001018181525050846001600160a01b031663f07456ce826040518263ffffffff1660e01b815260040180826001600160a01b0316815260200191505060206040518083038186803b158015612f6457600080fd5b505afa158015612f78573d6000803e3d6000fd5b505050506040513d6020811015612f8e57600080fd5b5051835184906009858a0201908110612fa357fe5b602090810291909101810191909152604080516356c8c2c160e01b81526001600160a01b038481166004830152600060248301529151918716926356c8c2c192604480840193829003018186803b158015612ffd57600080fd5b505afa158015613011573d6000803e3d6000fd5b505050506040513d602081101561302757600080fd5b505183518490600a858a020190811061303c57fe5b602090810291909101810191909152604080516356c8c2c160e01b81526001600160a01b038481166004830152600160248301529151918716926356c8c2c192604480840193829003018186803b15801561309657600080fd5b505afa1580156130aa573d6000803e3d6000fd5b505050506040513d60208110156130c057600080fd5b505183518490600b858a02019081106130d557fe5b60209081029190910101525060010161297b565b60608082516001600160401b038111801561310357600080fd5b5060405190808252806020026020018201604052801561312d578160200160208202803683370190505b50905060005b835181101561185557846001600160a01b0316631ce9cb8f85838151811061315757fe5b60200260200101516040518263ffffffff1660e01b815260040180826001600160a01b0316815260200191505060206040518083038186803b15801561319c57600080fd5b505afa1580156131b0573d6000803e3d6000fd5b505050506040513d60208110156131c657600080fd5b505182518390839081106131d657fe5b6020908102919091010152600101613133565b601281565b60606000600e905060008690506000816001600160a01b031663741bef1a6040518163ffffffff1660e01b815260040160206040518083038186803b15801561323657600080fd5b505afa15801561324a573d6000803e3d6000fd5b505050506040513d602081101561326057600080fd5b5051855190915060609084026001600160401b038111801561328157600080fd5b506040519080825280602002602001820160405280156132ab578160200160208202803683370190505b50905060005b865181101561162e5760008782815181106132c857fe5b6020026020010151905060006001600160a01b0316816001600160a01b031614156132f05750885b60008054600160a01b900460ff16613309576000613383565b856001600160a01b0316639698d25a836040518263ffffffff1660e01b815260040180826001600160a01b0316815260200191505060206040518083038186803b15801561335657600080fd5b505afa15801561336a573d6000803e3d6000fd5b505050506040513d602081101561338057600080fd5b50515b9050856001600160a01b03166352f55eed836040518263ffffffff1660e01b815260040180826001600160a01b0316815260200191505060206040518083038186803b1580156133d257600080fd5b505afa1580156133e6573d6000803e3d6000fd5b505050506040513d60208110156133fc57600080fd5b505184518590858a0290811061340e57fe5b602002602001018181525050856001600160a01b031663c3c7b9e9836040518263ffffffff1660e01b815260040180826001600160a01b0316815260200191505060206040518083038186803b15801561346757600080fd5b505afa15801561347b573d6000803e3d6000fd5b505050506040513d602081101561349157600080fd5b5051845185906001868b02019081106134a657fe5b602002602001018181525050856001600160a01b0316631aa4ace5836040518263ffffffff1660e01b815260040180826001600160a01b0316815260200191505060206040518083038186803b1580156134ff57600080fd5b505afa158015613513573d6000803e3d6000fd5b505050506040513d602081101561352957600080fd5b5051845185906002868b020190811061353e57fe5b602002602001018181525050856001600160a01b0316632c668ec1838c6040518363ffffffff1660e01b815260040180836001600160a01b031681526020018281526020019250505060206040518083038186803b15801561359f57600080fd5b505afa1580156135b3573d6000803e3d6000fd5b505050506040513d60208110156135c957600080fd5b5051845185906003868b02019081106135de57fe5b602002602001018181525050856001600160a01b031663ab2f3ad4836040518263ffffffff1660e01b815260040180826001600160a01b0316815260200191505060206040518083038186803b15801561363757600080fd5b505afa15801561364b573d6000803e3d6000fd5b505050506040513d602081101561366157600080fd5b5051845185906004868b020190811061367657fe5b602002602001018181525050856001600160a01b0316634a993ee9836040518263ffffffff1660e01b815260040180826001600160a01b0316815260200191505060206040518083038186803b1580156136cf57600080fd5b505afa1580156136e3573d6000803e3d6000fd5b505050506040513d60208110156136f957600080fd5b5051845185906005868b020190811061370e57fe5b602002602001018181525050856001600160a01b031663ad1e4f8d836040518263ffffffff1660e01b815260040180826001600160a01b0316815260200191505060206040518083038186803b15801561376757600080fd5b505afa15801561377b573d6000803e3d6000fd5b505050506040513d602081101561379157600080fd5b5051845185906006868b02019081106137a657fe5b602002602001018181525050856001600160a01b0316638a78daa8836040518263ffffffff1660e01b815260040180826001600160a01b0316815260200191505060206040518083038186803b1580156137ff57600080fd5b505afa158015613813573d6000803e3d6000fd5b505050506040513d602081101561382957600080fd5b5051845185906007868b020190811061383e57fe5b60200260200101818152505080848885026008018151811061385c57fe5b602002602001018181525050856001600160a01b03166381a612d6836040518263ffffffff1660e01b815260040180826001600160a01b0316815260200191505060206040518083038186803b1580156138b557600080fd5b505afa1580156138c9573d6000803e3d6000fd5b505050506040513d60208110156138df57600080fd5b5051845185906009868b02019081106138f457fe5b602002602001018181525050856001600160a01b031663e124e6d2836040518263ffffffff1660e01b815260040180826001600160a01b0316815260200191505060206040518083038186803b15801561394d57600080fd5b505afa158015613961573d6000803e3d6000fd5b505050506040513d602081101561397757600080fd5b505184518590600a868b020190811061398c57fe5b602002602001018181525050856001600160a01b031663f07456ce836040518263ffffffff1660e01b815260040180826001600160a01b0316815260200191505060206040518083038186803b1580156139e557600080fd5b505afa1580156139f9573d6000803e3d6000fd5b505050506040513d6020811015613a0f57600080fd5b505184518590600b868b0201908110613a2457fe5b602090810291909101810191909152604080516356c8c2c160e01b81526001600160a01b038581166004830152600060248301529151918816926356c8c2c192604480840193829003018186803b158015613a7e57600080fd5b505afa158015613a92573d6000803e3d6000fd5b505050506040513d6020811015613aa857600080fd5b505184518590600c868b0201908110613abd57fe5b602090810291909101810191909152604080516356c8c2c160e01b81526001600160a01b038581166004830152600160248301529151918816926356c8c2c192604480840193829003018186803b158015613b1757600080fd5b505afa158015613b2b573d6000803e3d6000fd5b505050506040513d6020811015613b4157600080fd5b505184518590600d868b0201908110613b5657fe5b602090810291909101015250506001016132b1565b60606000600290506060818451026001600160401b0381118015613b8e57600080fd5b50604051908082528060200260200182016040528015613bb8578160200160208202803683370190505b50905060005b8451811015611a5b576000858281518110613bd557fe5b60200260200101519050806001600160a01b031663402914f5886040518263ffffffff1660e01b815260040180826001600160a01b0316815260200191505060206040518083038186803b158015613c2c57600080fd5b505afa158015613c40573d6000803e3d6000fd5b505050506040513d6020811015613c5657600080fd5b505183518490848702908110613c6857fe5b602002602001018181525050806001600160a01b0316632459f51d6040518163ffffffff1660e01b815260040160206040518083038186803b158015613cad57600080fd5b505afa158015613cc1573d6000803e3d6000fd5b505050506040513d6020811015613cd757600080fd5b505183518490600185880201908110613cec57fe5b602090810291909101015250600101613bbe565b6c0c9f2c9cd04674edea4000000081565b60606000600290506060818451026001600160401b0381118015613d3457600080fd5b50604051908082528060200260200182016040528015613d5e578160200160208202803683370190505b5090508560005b85518110156141d1576000868281518110613d7c57fe5b6020026020010151905060006001600160a01b0316816001600160a01b03161415613da45750865b6000836001600160a01b03166342b60b03836040518263ffffffff1660e01b815260040180826001600160a01b0316815260200191505060206040518083038186803b158015613df357600080fd5b505afa158015613e07573d6000803e3d6000fd5b505050506040513d6020811015613e1d57600080fd5b5051613e8d57836001600160a01b031663c4f718bf6040518163ffffffff1660e01b815260040160206040518083038186803b158015613e5c57600080fd5b505afa158015613e70573d6000803e3d6000fd5b505050506040513d6020811015613e8657600080fd5b5051613ef3565b836001600160a01b031663134ca63b6040518163ffffffff1660e01b815260040160206040518083038186803b158015613ec657600080fd5b505afa158015613eda573d6000803e3d6000fd5b505050506040513d6020811015613ef057600080fd5b50515b90506000846001600160a01b031663c3c7b9e9846040518263ffffffff1660e01b815260040180826001600160a01b0316815260200191505060206040518083038186803b158015613f4457600080fd5b505afa158015613f58573d6000803e3d6000fd5b505050506040513d6020811015613f6e57600080fd5b5051604080516352f55eed60e01b81526001600160a01b0386811660048301529151929350600092918816916352f55eed91602480820192602092909190829003018186803b158015613fc057600080fd5b505afa158015613fd4573d6000803e3d6000fd5b505050506040513d6020811015613fea57600080fd5b50519050801561401d5761400281611fb88585615810565b878987028151811061401057fe5b6020026020010181815250505b6000866001600160a01b031663c65bc7b1866040518263ffffffff1660e01b815260040180826001600160a01b0316815260200191505060206040518083038186803b15801561406c57600080fd5b505afa158015614080573d6000803e3d6000fd5b505050506040513d602081101561409657600080fd5b505111156141c1576000866001600160a01b031663a93acac2866040518263ffffffff1660e01b815260040180826001600160a01b0316815260200191505060206040518083038186803b1580156140ed57600080fd5b505afa158015614101573d6000803e3d6000fd5b505050506040513d602081101561411757600080fd5b50516040805163c65bc7b160e01b81526001600160a01b0388811660048301529151929350600092918a169163c65bc7b191602480820192602092909190829003018186803b15801561416957600080fd5b505afa15801561417d573d6000803e3d6000fd5b505050506040513d602081101561419357600080fd5b505190506141a181836158ab565b898b8902600101815181106141b257fe5b60200260200101818152505050505b505060019092019150613d659050565b5090925050505b9392505050565b6000546001600160a01b03163314614236576040805162461bcd60e51b815260206004820152601560248201527423b7bb32b93730b136329d103337b93134b23232b760591b604482015290519081900360640190fd5b60008054911515600160a01b0260ff60a01b19909216919091179055565b80516060906002908190839082900482026001600160401b038111801561427a57600080fd5b506040519080825280602002602001820160405280156142a4578160200160208202803683370190505b50905060005b838651816142b457fe5b048110156144b657600086858302815181106142cc57fe5b60200260200101519050600087868402600101815181106142e957fe5b602002602001015190506000896001600160a01b031663e6a4390584846040518363ffffffff1660e01b815260040180836001600160a01b03168152602001826001600160a01b031681526020019250505060206040518083038186803b15801561435357600080fd5b505afa158015614367573d6000803e3d6000fd5b505050506040513d602081101561437d57600080fd5b5051604080516370a0823160e01b81526001600160a01b0380841660048301529151929350908516916370a0823191602480820192602092909190829003018186803b1580156143cc57600080fd5b505afa1580156143e0573d6000803e3d6000fd5b505050506040513d60208110156143f657600080fd5b50518551869086890290811061440857fe5b602002602001018181525050816001600160a01b03166370a08231826040518263ffffffff1660e01b815260040180826001600160a01b0316815260200191505060206040518083038186803b15801561446157600080fd5b505afa158015614475573d6000803e3d6000fd5b505050506040513d602081101561448b57600080fd5b5051855186906001878a02019081106144a057fe5b60209081029190910101525050506001016142aa565b5095945050505050565b600981565b600054600160a01b900460ff1681565b6000546001600160a01b0316331461452c576040805162461bcd60e51b815260206004820152601560248201527423b7bb32b93730b136329d103337b93134b23232b760591b604482015290519081900360640190fd5b600080546001600160a01b0319166001600160a01b0392909216919091179055565b6000806000866001600160a01b03166381a612d6876040518263ffffffff1660e01b815260040180826001600160a01b0316815260200191505060206040518083038186803b1580156145a057600080fd5b505afa1580156145b4573d6000803e3d6000fd5b505050506040513d60208110156145ca57600080fd5b5051604080516323b95ceb60e21b81526001600160a01b0389811660048301529151929350600092918a1691638ee573ac91602480820192602092909190829003018186803b15801561461c57600080fd5b505afa158015614630573d6000803e3d6000fd5b505050506040513d602081101561464657600080fd5b5051604080516323b95ceb60e21b81526001600160a01b0389811660048301529151929350600092918b1691638ee573ac91602480820192602092909190829003018186803b15801561469857600080fd5b505afa1580156146ac573d6000803e3d6000fd5b505050506040513d60208110156146c257600080fd5b505190506000806146e46c0c9f2c9cd04674edea40000000611fb88a88615810565b9050614700600a85900a611fb883670de0b6b3a7640000615810565b905060008b6001600160a01b03166342b60b038c6040518263ffffffff1660e01b815260040180826001600160a01b0316815260200191505060206040518083038186803b15801561475157600080fd5b505afa158015614765573d6000803e3d6000fd5b505050506040513d602081101561477b57600080fd5b505180156147fe57508b6001600160a01b03166342b60b038b6040518263ffffffff1660e01b815260040180826001600160a01b0316815260200191505060206040518083038186803b1580156147d157600080fd5b505afa1580156147e5573d6000803e3d6000fd5b505050506040513d60208110156147fb57600080fd5b50515b9050600081614871578c6001600160a01b031663a22f23926040518163ffffffff1660e01b815260040160206040518083038186803b15801561484057600080fd5b505afa158015614854573d6000803e3d6000fd5b505050506040513d602081101561486a57600080fd5b50516148d7565b8c6001600160a01b031663df73a2676040518163ffffffff1660e01b815260040160206040518083038186803b1580156148aa57600080fd5b505afa1580156148be573d6000803e3d6000fd5b505050506040513d60208110156148d457600080fd5b50515b905060008261494a578d6001600160a01b0316637a210a2b6040518163ffffffff1660e01b815260040160206040518083038186803b15801561491957600080fd5b505afa15801561492d573d6000803e3d6000fd5b505050506040513d602081101561494357600080fd5b50516149b0565b8d6001600160a01b03166310eb56c26040518163ffffffff1660e01b815260040160206040518083038186803b15801561498357600080fd5b505afa158015614997573d6000803e3d6000fd5b505050506040513d60208110156149ad57600080fd5b50515b905060008e6001600160a01b031663c7e074c38f87868660016040518663ffffffff1660e01b815260040180866001600160a01b0316815260200185815260200184815260200183815260200182151581526020019550505050505060206040518083038186803b158015614a2457600080fd5b505afa158015614a38573d6000803e3d6000fd5b505050506040513d6020811015614a4e57600080fd5b8101908080519060200190929190505050905060008f6001600160a01b031663c7e074c38f88878760006040518663ffffffff1660e01b815260040180866001600160a01b0316815260200185815260200184815260200183815260200182151581526020019550505050505060206040518083038186803b158015614ad357600080fd5b505afa158015614ae7573d6000803e3d6000fd5b505050506040513d6020811015614afd57600080fd5b50519050808211614b0e5780614b10565b815b965050505050505060008a6001600160a01b031663e124e6d28a6040518263ffffffff1660e01b815260040180826001600160a01b0316815260200191505060206040518083038186803b158015614b6757600080fd5b505afa158015614b7b573d6000803e3d6000fd5b505050506040513d6020811015614b9157600080fd5b505190506000614ba582611fb88b89615810565b9050614bc485600a0a611fb886600a0a8461581090919063ffffffff16565b90506000614be2612710611fb8614bdb82886157ce565b8590615810565b90506000614bf083836157ce565b919e919d50909b505050505050505050505050565b60608082516001600160401b0381118015614c1f57600080fd5b50604051908082528060200260200182016040528015614c49578160200160208202803683370190505b50905060005b8351811015611855576000848281518110614c6657fe5b6020026020010151905060006001600160a01b0316816001600160a01b03161415614cb457856001600160a01b031631838381518110614ca257fe5b60200260200101818152505050614d49565b806001600160a01b03166370a08231876040518263ffffffff1660e01b815260040180826001600160a01b0316815260200191505060206040518083038186803b158015614d0157600080fd5b505afa158015614d15573d6000803e3d6000fd5b505050506040513d6020811015614d2b57600080fd5b50518351849084908110614d3b57fe5b602002602001018181525050505b600101614c4f565b60608060098551026001600160401b0381118015614d6e57600080fd5b50604051908082528060200260200182016040528015614d98578160200160208202803683370190505b50905060005b85518110156151425760008060008060008060008e6001600160a01b0316634a3f088d8f8f8b81518110614dce57fe5b60200260200101518f8c81518110614de257fe5b60200260200101518f8d81518110614df657fe5b60200260200101516040518563ffffffff1660e01b815260040180856001600160a01b03168152602001846001600160a01b03168152602001836001600160a01b0316815260200182151581526020019450505050506101006040518083038186803b158015614e6557600080fd5b505afa158015614e79573d6000803e3d6000fd5b505050506040513d610100811015614e9057600080fd5b50805160208201516040830151606084015160a085015160c086015160e0909601518f51959d50939b509199509750955091935090915087908a9060098b02908110614ed857fe5b602002602001018181525050858960098a0260010181518110614ef757fe5b602002602001018181525050848960098a0260020181518110614f1657fe5b602002602001018181525050838960098a0260030181518110614f3557fe5b60200260200101818152505081614f4d576000614f50565b60015b60ff168960098a0260040181518110614f6557fe5b602002602001018181525050828960098a0260050181518110614f8457fe5b602002602001018181525050808960098a0260060181518110614fa357fe5b602002602001018181525050505050505050506000826009830281518110614fc757fe5b602002602001015190506000836009840260020181518110614fe557fe5b60200260200101519050600084600985026006018151811061500357fe5b602002602001015190506000821115615137576000808c6001600160a01b0316635c07eaab8b888151811061503457fe5b602002602001015187878d8b8151811061504a57fe5b6020026020010151886040518663ffffffff1660e01b815260040180866001600160a01b03168152602001858152602001848152602001831515815260200182815260200195505050505050604080518083038186803b1580156150ad57600080fd5b505afa1580156150c1573d6000803e3d6000fd5b505050506040513d60408110156150d757600080fd5b5080516020909101519092509050816150f15760006150f4565b60015b60ff1687600988026007018151811061510957fe5b6020026020010181815250508087600988026008018151811061512857fe5b60200260200101818152505050505b505050600101614d9e565b509695505050505050565b600080846001600160a01b03166381a612d6856040518263ffffffff1660e01b815260040180826001600160a01b0316815260200191505060206040518083038186803b15801561519d57600080fd5b505afa1580156151b1573d6000803e3d6000fd5b505050506040513d60208110156151c757600080fd5b505160408051637092736960e11b81526001600160a01b03868116600483015291519293506000929188169163e124e6d291602480820192602092909190829003018186803b15801561521957600080fd5b505afa15801561522d573d6000803e3d6000fd5b505050506040513d602081101561524357600080fd5b5051604080516323b95ceb60e21b81526001600160a01b038881166004830152915192935060009291891691638ee573ac91602480820192602092909190829003018186803b15801561529557600080fd5b505afa1580156152a9573d6000803e3d6000fd5b505050506040513d60208110156152bf57600080fd5b5051604080516323b95ceb60e21b81526001600160a01b0388811660048301529151929350600092918a1691638ee573ac91602480820192602092909190829003018186803b15801561531157600080fd5b505afa158015615325573d6000803e3d6000fd5b505050506040513d602081101561533b57600080fd5b5051604080516352f55eed60e01b81526001600160a01b038981166004830152915192935060009283928c16916352f55eed916024808301926020929190829003018186803b15801561538d57600080fd5b505afa1580156153a1573d6000803e3d6000fd5b505050506040513d60208110156153b757600080fd5b50516040805163c3c7b9e960e01b81526001600160a01b038b811660048301529151929350600092918d169163c3c7b9e991602480820192602092909190829003018186803b15801561540957600080fd5b505afa15801561541d573d6000803e3d6000fd5b505050506040513d602081101561543357600080fd5b505160408051634a993ee960e01b81526001600160a01b038c811660048301529151929350600092918e1691634a993ee991602480820192602092909190829003018186803b15801561548557600080fd5b505afa158015615499573d6000803e3d6000fd5b505050506040513d60208110156154af57600080fd5b5051905060008183116154c257816154c4565b825b90508381106154df57600099505050505050505050506141d8565b60006154eb85836157ce565b905061551887600a0a611fb88a600a0a6155128e611fb88f8861581090919063ffffffff16565b90615810565b955050505050506000896001600160a01b031663ad1e4f8d8a6040518263ffffffff1660e01b815260040180826001600160a01b0316815260200191505060206040518083038186803b15801561556e57600080fd5b505afa158015615582573d6000803e3d6000fd5b505050506040513d602081101561559857600080fd5b50519050801561162e57896001600160a01b0316631aa4ace58a6040518263ffffffff1660e01b815260040180826001600160a01b0316815260200191505060206040518083038186803b1580156155ef57600080fd5b505afa158015615603573d6000803e3d6000fd5b505050506040513d602081101561561957600080fd5b505181101561563157600096505050505050506141d8565b60006156b68b6001600160a01b0316631aa4ace58c6040518263ffffffff1660e01b815260040180826001600160a01b0316815260200191505060206040518083038186803b15801561568357600080fd5b505afa158015615697573d6000803e3d6000fd5b505050506040513d60208110156156ad57600080fd5b505183906157ce565b90506156d2670de0b6b3a7640000611fb883600a89900a615810565b90506156ef87611fb8836c0c9f2c9cd04674edea40000000615810565b9050808311156157075796506141d895505050505050565b505098975050505050505050565b600080805b835181101561185557600084828151811061573157fe5b602002602001015190506000866001600160a01b03166370a08231836040518263ffffffff1660e01b815260040180826001600160a01b0316815260200191505060206040518083038186803b15801561578a57600080fd5b505afa15801561579e573d6000803e3d6000fd5b505050506040513d60208110156157b457600080fd5b505190506157c284826158ab565b9350505060010161571a565b60006141d883836040518060400160405280601e81526020017f536166654d6174683a207375627472616374696f6e206f766572666c6f770000815250615905565b60008261581f57506000611859565b8282028284828161582c57fe5b04146141d85760405162461bcd60e51b8152600401808060200182810382526021815260200180615a026021913960400191505060405180910390fd5b60006141d883836040518060400160405280601a81526020017f536166654d6174683a206469766973696f6e206279207a65726f00000000000081525061599c565b6000828201838110156141d8576040805162461bcd60e51b815260206004820152601b60248201527f536166654d6174683a206164646974696f6e206f766572666c6f770000000000604482015290519081900360640190fd5b600081848411156159945760405162461bcd60e51b81526004018080602001828103825283818151815260200191508051906020019080838360005b83811015615959578181015183820152602001615941565b50505050905090810190601f1680156159865780820380516001836020036101000a031916815260200191505b509250505060405180910390fd5b505050900390565b600081836159eb5760405162461bcd60e51b8152602060048201818152835160248401528351909283926044909101919085019080838360008315615959578181015183820152602001615941565b5060008385816159f757fe5b049594505050505056fe536166654d6174683a206d756c7469706c69636174696f6e206f766572666c6f77a26469706673582212205f1ead3af61383ee08ff7e61685808a78e2569a5cec8457f5b1a9d0aa2917cc764736f6c634300060c0033","linkReferences":{}},"methodIdentifiers":{"BASIS_POINTS_DIVISOR()":"126082cf","POSITION_PROPS_LENGTH()":"ad7e5497","PRICE_PRECISION()":"95082d25","USDG_DECIMALS()":"870d917c","getAmountOut(address,address,address,uint256)":"d7176ca9","getFeeBasisPoints(address,address,address,uint256)":"440f018c","getFees(address,address[])":"86d4d0f5","getFullVaultTokenInfo(address,address,uint256,address[])":"7b906e93","getFundingRates(address,address,address[])":"95a7535a","getMaxAmountIn(address,address,address)":"f3535e6c","getPairInfo(address,address[])":"a4543ead","getPositions(address,address,address[],address[],bool[])":"dc383cab","getPrices(address,address[])":"3613d527","getStakingInfo(address,address[])":"937a0be8","getTokenBalances(address,address[])":"d802178e","getTokenBalancesWithSupplies(address,address[])":"2e3e3342","getTokenSupply(address,address[])":"2ac0184c","getTotalBalance(address,address[])":"fbdb05ca","getTotalStaked(address[])":"2413c8c1","getVaultTokenInfo(address,address,uint256,address[])":"20542568","getVaultTokenInfoV2(address,address,uint256,address[])":"8e83ca32","getVestingInfo(address,address[])":"48211934","gov()":"12d43a51","hasMaxGlobalShortSizes()":"c6f1d676","setConfig(bool)":"9b0183c3","setGov(address)":"cfad57a2"},"id":152}